{
  "contractName": "ONEWalletFactoryHelper",
  "abi": [
    {
      "inputs": [
        {
          "internalType": "contract ONEWalletFactory",
          "name": "factory_",
          "type": "address"
        }
      ],
      "stateMutability": "nonpayable",
      "type": "constructor"
    },
    {
      "inputs": [],
      "name": "factory",
      "outputs": [
        {
          "internalType": "contract ONEWalletFactory",
          "name": "",
          "type": "address"
        }
      ],
      "stateMutability": "view",
      "type": "function"
    },
    {
      "inputs": [
        {
          "components": [
            {
              "components": [
                {
                  "internalType": "bytes32",
                  "name": "root",
                  "type": "bytes32"
                },
                {
                  "internalType": "uint8",
                  "name": "height",
                  "type": "uint8"
                },
                {
                  "internalType": "uint8",
                  "name": "interval",
                  "type": "uint8"
                },
                {
                  "internalType": "uint32",
                  "name": "t0",
                  "type": "uint32"
                },
                {
                  "internalType": "uint32",
                  "name": "lifespan",
                  "type": "uint32"
                },
                {
                  "internalType": "uint8",
                  "name": "maxOperationsPerInterval",
                  "type": "uint8"
                }
              ],
              "internalType": "struct IONEWallet.CoreSetting",
              "name": "core",
              "type": "tuple"
            },
            {
              "components": [
                {
                  "internalType": "uint256",
                  "name": "spendingLimit",
                  "type": "uint256"
                },
                {
                  "internalType": "uint256",
                  "name": "spentAmount",
                  "type": "uint256"
                },
                {
                  "internalType": "uint32",
                  "name": "lastSpendingInterval",
                  "type": "uint32"
                },
                {
                  "internalType": "uint32",
                  "name": "spendingInterval",
                  "type": "uint32"
                }
              ],
              "internalType": "struct SpendingManager.SpendingState",
              "name": "spendingState",
              "type": "tuple"
            },
            {
              "internalType": "address payable",
              "name": "recoveryAddress",
              "type": "address"
            },
            {
              "internalType": "bytes32",
              "name": "identificationHash",
              "type": "bytes32"
            },
            {
              "internalType": "contract IONEWallet[]",
              "name": "backlinkAddresses",
              "type": "address[]"
            },
            {
              "components": [
                {
                  "internalType": "bytes32",
                  "name": "root",
                  "type": "bytes32"
                },
                {
                  "internalType": "uint8",
                  "name": "height",
                  "type": "uint8"
                },
                {
                  "internalType": "uint8",
                  "name": "interval",
                  "type": "uint8"
                },
                {
                  "internalType": "uint32",
                  "name": "t0",
                  "type": "uint32"
                },
                {
                  "internalType": "uint32",
                  "name": "lifespan",
                  "type": "uint32"
                },
                {
                  "internalType": "uint8",
                  "name": "maxOperationsPerInterval",
                  "type": "uint8"
                }
              ],
              "internalType": "struct IONEWallet.CoreSetting[]",
              "name": "oldCores",
              "type": "tuple[]"
            },
            {
              "components": [
                {
                  "internalType": "bytes32",
                  "name": "root",
                  "type": "bytes32"
                },
                {
                  "internalType": "uint8",
                  "name": "height",
                  "type": "uint8"
                },
                {
                  "internalType": "uint8",
                  "name": "interval",
                  "type": "uint8"
                },
                {
                  "internalType": "uint32",
                  "name": "t0",
                  "type": "uint32"
                },
                {
                  "internalType": "uint32",
                  "name": "lifespan",
                  "type": "uint32"
                },
                {
                  "internalType": "uint8",
                  "name": "maxOperationsPerInterval",
                  "type": "uint8"
                }
              ],
              "internalType": "struct IONEWallet.CoreSetting[]",
              "name": "recoveryCores",
              "type": "tuple[]"
            }
          ],
          "internalType": "struct IONEWallet.InitParams",
          "name": "args",
          "type": "tuple"
        }
      ],
      "name": "deploy",
      "outputs": [
        {
          "internalType": "address",
          "name": "",
          "type": "address"
        }
      ],
      "stateMutability": "payable",
      "type": "function"
    },
    {
      "inputs": [
        {
          "internalType": "bytes32",
          "name": "identificationHash",
          "type": "bytes32"
        }
      ],
      "name": "predict",
      "outputs": [
        {
          "internalType": "address",
          "name": "",
          "type": "address"
        }
      ],
      "stateMutability": "view",
      "type": "function"
    },
    {
      "inputs": [
        {
          "internalType": "contract IONEWallet",
          "name": "addr",
          "type": "address"
        }
      ],
      "name": "verify",
      "outputs": [
        {
          "internalType": "bool",
          "name": "",
          "type": "bool"
        }
      ],
      "stateMutability": "view",
      "type": "function"
    }
  ],
  "bytecode": "0x6080604052600080546001600160a01b031916905534801561002057600080fd5b50604051610ce0380380610ce083398101604081905261003f91610064565b600080546001600160a01b0319166001600160a01b0392909216919091179055610092565b600060208284031215610075578081fd5b81516001600160a01b038116811461008b578182fd5b9392505050565b610c3f806100a16000396000f3fe60806040526004361061003f5760003560e01c80630e787cce1461004457806363a9c3d714610081578063c338cd7f146100b1578063c45a0155146100c4575b600080fd5b34801561005057600080fd5b5061006461005f36600461078a565b6100e4565b6040516001600160a01b0390911681526020015b60405180910390f35b34801561008d57600080fd5b506100a161009c36600461084a565b610202565b6040519015158152602001610078565b6100646100bf366004610866565b6103a1565b3480156100d057600080fd5b50600054610064906001600160a01b031681565b60008060009054906101000a90046001600160a01b03166001600160a01b03166322aa763373__ONEWalletCodeHelper___________________6324c12bf66040518163ffffffff1660e01b815260040160006040518083038186803b15801561014d57600080fd5b505af4158015610161573d6000803e3d6000fd5b505050506040513d6000823e601f3d908101601f1916820160405261018991908101906107ba565b6040516001600160e01b031960e084901b1681526101ac91908690600401610a25565b60206040518083038186803b1580156101c457600080fd5b505afa1580156101d8573d6000803e3d6000fd5b505050506040513d601f19601f820116820180604052508101906101fc9190610767565b92915050565b60008060008054906101000a90046001600160a01b03166001600160a01b03166322aa763373__ONEWalletCodeHelper___________________6324c12bf66040518163ffffffff1660e01b815260040160006040518083038186803b15801561026b57600080fd5b505af415801561027f573d6000803e3d6000fd5b505050506040513d6000823e601f3d908101601f191682016040526102a791908101906107ba565b856001600160a01b031663db582c7e6040518163ffffffff1660e01b815260040160206040518083038186803b1580156102e057600080fd5b505afa1580156102f4573d6000803e3d6000fd5b505050506040513d601f19601f8201168201806040525081019061031891906107a2565b6040516001600160e01b031960e085901b16815261033a929190600401610a25565b60206040518083038186803b15801561035257600080fd5b505afa158015610366573d6000803e3d6000fd5b505050506040513d601f19601f8201168201806040525081019061038a9190610767565b6001600160a01b0390811693169290921492915050565b60008060008054906101000a90046001600160a01b03166001600160a01b0316639c4ae2d03473__ONEWalletCodeHelper___________________6324c12bf66040518163ffffffff1660e01b815260040160006040518083038186803b15801561040b57600080fd5b505af415801561041f573d6000803e3d6000fd5b505050506040513d6000823e601f3d908101601f1916820160405261044791908101906107ba565b60608701516040516001600160e01b031960e086901b16815261046e929190600401610a25565b6020604051808303818588803b15801561048757600080fd5b505af115801561049b573d6000803e3d6000fd5b50505050506040513d601f19601f820116820180604052508101906104c09190610767565b90506001600160a01b0381166104d65792915050565b604051637df7026960e11b81526001600160a01b0382169063fbee04d290610502908690600401610a60565b600060405180830381600087803b15801561051c57600080fd5b505af1158015610530573d6000803e3d6000fd5b509295945050505050565b803561054681610bf1565b919050565b600082601f83011261055b578081fd5b8135602061057061056b83610b87565b610b56565b80838252828201915082860187848660051b890101111561058f578586fd5b855b858110156105b65781356105a481610bf1565b84529284019290840190600101610591565b5090979650505050505050565b600082601f8301126105d3578081fd5b813560206105e361056b83610b87565b8281528181019085830160c080860288018501891015610601578687fd5b865b86811015610627576106158a84610635565b85529385019391810191600101610603565b509198975050505050505050565b600060c08284031215610646578081fd5b60405160c0810181811067ffffffffffffffff8211171561066957610669610bdb565b6040528235815290508061067f60208401610756565b602082015261069060408401610756565b60408201526106a160608401610742565b60608201526106b260808401610742565b60808201526106c360a08401610756565b60a08201525092915050565b6000608082840312156106e0578081fd5b6040516080810181811067ffffffffffffffff8211171561070357610703610bdb565b8060405250809150823581526020830135602082015261072560408401610742565b604082015261073660608401610742565b60608201525092915050565b803563ffffffff8116811461054657600080fd5b803560ff8116811461054657600080fd5b600060208284031215610778578081fd5b815161078381610bf1565b9392505050565b60006020828403121561079b578081fd5b5035919050565b6000602082840312156107b3578081fd5b5051919050565b6000602082840312156107cb578081fd5b815167ffffffffffffffff808211156107e2578283fd5b818401915084601f8301126107f5578283fd5b81518181111561080757610807610bdb565b61081a601f8201601f1916602001610b56565b9150808252856020828501011115610830578384fd5b610841816020840160208601610bab565b50949350505050565b60006020828403121561085b578081fd5b813561078381610bf1565b600060208284031215610877578081fd5b813567ffffffffffffffff8082111561088e578283fd5b908301906101e082860312156108a2578283fd5b6108aa610b2d565b6108b48684610635565b81526108c38660c085016106cf565b60208201526108d5610140840161053b565b60408201526101608301356060820152610180830135828111156108f7578485fd5b6109038782860161054b565b6080830152506101a08301358281111561091b578485fd5b610927878286016105c3565b60a0830152506101c08301358281111561093f578485fd5b61094b878286016105c3565b60c08301525095945050505050565b6000815180845260208085019450808401835b838110156109925781516001600160a01b03168752958201959082019060010161096d565b509495945050505050565b6000815180845260208085019450808401835b83811015610992576109c38783516109d6565b60c09690960195908201906001016109b0565b8051825260ff602082015116602083015260ff6040820151166040830152606081015163ffffffff8082166060850152806080840151166080850152505060ff60a08201511660a08301525050565b6040815260008351806040840152610a44816060850160208801610bab565b602083019390935250601f91909101601f191601606001919050565b60208152610a726020820183516109d6565b602082810151805160e08401529081015161010083015260408082015163ffffffff908116610120850152606092830151166101408401528301516001600160a01b031661016083015282015161018082015260808201516101e06101a0830181905260009190610ae761020085018361095a565b915060a0850151601f1980868503016101c0870152610b06848361099d565b935060c0870151915080868503018387015250610b23838261099d565b9695505050505050565b60405160e0810167ffffffffffffffff81118282101715610b5057610b50610bdb565b60405290565b604051601f8201601f1916810167ffffffffffffffff81118282101715610b7f57610b7f610bdb565b604052919050565b600067ffffffffffffffff821115610ba157610ba1610bdb565b5060051b60200190565b60005b83811015610bc6578181015183820152602001610bae565b83811115610bd5576000848401525b50505050565b634e487b7160e01b600052604160045260246000fd5b6001600160a01b0381168114610c0657600080fd5b5056fea2646970667358221220a28ae070b16723e3735dac6c3345bd256b44fc83bd0c85d2f07949492a4fe9b764736f6c63430008040033",
  "immutableReferences": {},
  "source": "// SPDX-License-Identifier: Apache-2.0\npragma solidity ^0.8.4;\n\nimport \"./ONEWallet.sol\";\nimport \"./IONEWallet.sol\";\nimport \"./Factory.sol\";\n\nlibrary ONEWalletCodeHelper {\n    function code() pure public returns (bytes memory){\n        return type(ONEWallet).creationCode;\n    }\n}\n\ncontract ONEWalletFactoryHelper {\n    ONEWalletFactory public factory = ONEWalletFactory(address(0));\n    constructor(ONEWalletFactory factory_){\n        factory = factory_;\n    }\n\n    function deploy(IONEWallet.InitParams memory args) payable public returns (address){\n        // ONEWallet has no constructor argument since v15\n        address addr = factory.deploy{value : msg.value}(ONEWalletCodeHelper.code(), uint256(args.identificationHash));\n        if (addr == address(0)) {\n            return addr;\n        }\n        IONEWallet(addr).initialize(args);\n        return addr;\n    }\n\n    function predict(bytes32 identificationHash) public view returns (address){\n        return factory.predict(ONEWalletCodeHelper.code(), uint256(identificationHash));\n    }\n\n    function verify(IONEWallet addr) public view returns (bool){\n        address predictedAddress = factory.predict(ONEWalletCodeHelper.code(), uint256(addr.identificationHash()));\n        return predictedAddress == address(addr);\n    }\n}\n",
  "sourcePath": "/Users/polymorpher/git/one-wallet/code/contracts/FactoryHelper.sol",
  "compiler": {
    "name": "solc",
    "version": "0.8.4+commit.c7e474f2.Emscripten.clang"
  },
  "schemaVersion": "3.4.2",
  "updatedAt": "2021-11-13T13:41:38.029Z",
  "devdoc": {
    "kind": "dev",
    "methods": {},
    "version": 1
  },
  "userdoc": {
    "kind": "user",
    "methods": {},
    "version": 1
  }
}