{
  "contractName": "ONEWallet",
  "abi": [
    {
      "anonymous": false,
      "inputs": [
        {
          "indexed": false,
          "internalType": "address",
          "name": "from",
          "type": "address"
        }
      ],
      "name": "AutoRecoveryTriggered",
      "type": "event"
    },
    {
      "anonymous": false,
      "inputs": [
        {
          "indexed": false,
          "internalType": "address",
          "name": "from",
          "type": "address"
        },
        {
          "indexed": false,
          "internalType": "uint256",
          "name": "requiredTime",
          "type": "uint256"
        }
      ],
      "name": "AutoRecoveryTriggeredPrematurely",
      "type": "event"
    },
    {
      "anonymous": false,
      "inputs": [
        {
          "indexed": false,
          "internalType": "address",
          "name": "contractAddress",
          "type": "address"
        },
        {
          "indexed": false,
          "internalType": "uint256",
          "name": "amount",
          "type": "uint256"
        },
        {
          "indexed": false,
          "internalType": "bytes",
          "name": "data",
          "type": "bytes"
        },
        {
          "indexed": false,
          "internalType": "bytes",
          "name": "ret",
          "type": "bytes"
        }
      ],
      "name": "ExternalCallCompleted",
      "type": "event"
    },
    {
      "anonymous": false,
      "inputs": [
        {
          "indexed": false,
          "internalType": "address",
          "name": "contractAddress",
          "type": "address"
        },
        {
          "indexed": false,
          "internalType": "uint256",
          "name": "amount",
          "type": "uint256"
        },
        {
          "indexed": false,
          "internalType": "bytes",
          "name": "data",
          "type": "bytes"
        },
        {
          "indexed": false,
          "internalType": "bytes",
          "name": "ret",
          "type": "bytes"
        }
      ],
      "name": "ExternalCallFailed",
      "type": "event"
    },
    {
      "anonymous": false,
      "inputs": [
        {
          "indexed": false,
          "internalType": "address",
          "name": "dest",
          "type": "address"
        }
      ],
      "name": "ForwardAddressAlreadySet",
      "type": "event"
    },
    {
      "anonymous": false,
      "inputs": [
        {
          "indexed": false,
          "internalType": "address",
          "name": "dest",
          "type": "address"
        }
      ],
      "name": "ForwardAddressInvalid",
      "type": "event"
    },
    {
      "anonymous": false,
      "inputs": [
        {
          "indexed": false,
          "internalType": "address",
          "name": "dest",
          "type": "address"
        }
      ],
      "name": "ForwardAddressUpdated",
      "type": "event"
    },
    {
      "anonymous": false,
      "inputs": [
        {
          "indexed": false,
          "internalType": "bool",
          "name": "success",
          "type": "bool"
        }
      ],
      "name": "ForwardedBalance",
      "type": "event"
    },
    {
      "anonymous": false,
      "inputs": [
        {
          "indexed": false,
          "internalType": "enum Enums.TokenType",
          "name": "tokenType",
          "type": "uint8"
        },
        {
          "indexed": false,
          "internalType": "uint256",
          "name": "amount",
          "type": "uint256"
        },
        {
          "indexed": false,
          "internalType": "address",
          "name": "from",
          "type": "address"
        },
        {
          "indexed": false,
          "internalType": "address",
          "name": "tokenContract",
          "type": "address"
        },
        {
          "indexed": false,
          "internalType": "address",
          "name": "operator",
          "type": "address"
        },
        {
          "indexed": false,
          "internalType": "uint256",
          "name": "tokenId",
          "type": "uint256"
        },
        {
          "indexed": false,
          "internalType": "bytes",
          "name": "data",
          "type": "bytes"
        }
      ],
      "name": "ForwardedToken",
      "type": "event"
    },
    {
      "anonymous": false,
      "inputs": [],
      "name": "LastResortAddressNotSet",
      "type": "event"
    },
    {
      "anonymous": false,
      "inputs": [
        {
          "indexed": false,
          "internalType": "uint256",
          "name": "amount",
          "type": "uint256"
        },
        {
          "indexed": false,
          "internalType": "address",
          "name": "dest",
          "type": "address"
        }
      ],
      "name": "PaymentForwarded",
      "type": "event"
    },
    {
      "anonymous": false,
      "inputs": [
        {
          "indexed": false,
          "internalType": "uint256",
          "name": "amount",
          "type": "uint256"
        },
        {
          "indexed": false,
          "internalType": "address",
          "name": "from",
          "type": "address"
        }
      ],
      "name": "PaymentReceived",
      "type": "event"
    },
    {
      "anonymous": false,
      "inputs": [
        {
          "indexed": false,
          "internalType": "uint256",
          "name": "amount",
          "type": "uint256"
        },
        {
          "indexed": false,
          "internalType": "address",
          "name": "dest",
          "type": "address"
        }
      ],
      "name": "PaymentSent",
      "type": "event"
    },
    {
      "anonymous": false,
      "inputs": [
        {
          "indexed": false,
          "internalType": "enum Enums.TokenType",
          "name": "tokenType",
          "type": "uint8"
        },
        {
          "indexed": false,
          "internalType": "uint256",
          "name": "amount",
          "type": "uint256"
        },
        {
          "indexed": false,
          "internalType": "address",
          "name": "from",
          "type": "address"
        },
        {
          "indexed": false,
          "internalType": "address",
          "name": "tokenContract",
          "type": "address"
        },
        {
          "indexed": false,
          "internalType": "address",
          "name": "operator",
          "type": "address"
        },
        {
          "indexed": false,
          "internalType": "uint256",
          "name": "tokenId",
          "type": "uint256"
        },
        {
          "indexed": false,
          "internalType": "bytes",
          "name": "data",
          "type": "bytes"
        }
      ],
      "name": "ReceivedToken",
      "type": "event"
    },
    {
      "anonymous": false,
      "inputs": [
        {
          "indexed": false,
          "internalType": "address",
          "name": "dest",
          "type": "address"
        }
      ],
      "name": "RecoveryAddressUpdated",
      "type": "event"
    },
    {
      "anonymous": false,
      "inputs": [],
      "name": "RecoveryFailure",
      "type": "event"
    },
    {
      "anonymous": false,
      "inputs": [],
      "name": "RecoveryTriggered",
      "type": "event"
    },
    {
      "anonymous": false,
      "inputs": [],
      "name": "Retired",
      "type": "event"
    },
    {
      "anonymous": false,
      "inputs": [
        {
          "indexed": false,
          "internalType": "address",
          "name": "dest",
          "type": "address"
        },
        {
          "indexed": false,
          "internalType": "bytes",
          "name": "error",
          "type": "bytes"
        }
      ],
      "name": "TransferError",
      "type": "event"
    },
    {
      "inputs": [
        {
          "internalType": "bytes32",
          "name": "",
          "type": "bytes32"
        }
      ],
      "name": "findCommit",
      "outputs": [
        {
          "internalType": "bytes32",
          "name": "",
          "type": "bytes32"
        },
        {
          "internalType": "bytes32",
          "name": "",
          "type": "bytes32"
        },
        {
          "internalType": "uint32",
          "name": "",
          "type": "uint32"
        },
        {
          "internalType": "bool",
          "name": "",
          "type": "bool"
        }
      ],
      "stateMutability": "pure",
      "type": "function"
    },
    {
      "inputs": [],
      "name": "getCommits",
      "outputs": [
        {
          "internalType": "bytes32[]",
          "name": "",
          "type": "bytes32[]"
        },
        {
          "internalType": "bytes32[]",
          "name": "",
          "type": "bytes32[]"
        },
        {
          "internalType": "uint32[]",
          "name": "",
          "type": "uint32[]"
        },
        {
          "internalType": "bool[]",
          "name": "",
          "type": "bool[]"
        }
      ],
      "stateMutability": "pure",
      "type": "function"
    },
    {
      "inputs": [],
      "name": "getCurrentSpending",
      "outputs": [
        {
          "internalType": "uint256",
          "name": "",
          "type": "uint256"
        },
        {
          "internalType": "uint256",
          "name": "",
          "type": "uint256"
        }
      ],
      "stateMutability": "pure",
      "type": "function"
    },
    {
      "inputs": [],
      "name": "getCurrentSpendingState",
      "outputs": [
        {
          "internalType": "uint256",
          "name": "",
          "type": "uint256"
        },
        {
          "internalType": "uint256",
          "name": "",
          "type": "uint256"
        },
        {
          "internalType": "uint32",
          "name": "",
          "type": "uint32"
        },
        {
          "internalType": "uint32",
          "name": "",
          "type": "uint32"
        }
      ],
      "stateMutability": "pure",
      "type": "function"
    },
    {
      "inputs": [],
      "name": "identificationKey",
      "outputs": [
        {
          "internalType": "bytes",
          "name": "",
          "type": "bytes"
        }
      ],
      "stateMutability": "view",
      "type": "function"
    },
    {
      "inputs": [],
      "name": "lastOperationTime",
      "outputs": [
        {
          "internalType": "uint256",
          "name": "",
          "type": "uint256"
        }
      ],
      "stateMutability": "view",
      "type": "function"
    },
    {
      "inputs": [
        {
          "internalType": "address",
          "name": "operator",
          "type": "address"
        },
        {
          "internalType": "address",
          "name": "from",
          "type": "address"
        },
        {
          "internalType": "uint256[]",
          "name": "ids",
          "type": "uint256[]"
        },
        {
          "internalType": "uint256[]",
          "name": "values",
          "type": "uint256[]"
        },
        {
          "internalType": "bytes",
          "name": "data",
          "type": "bytes"
        }
      ],
      "name": "onERC1155BatchReceived",
      "outputs": [
        {
          "internalType": "bytes4",
          "name": "",
          "type": "bytes4"
        }
      ],
      "stateMutability": "nonpayable",
      "type": "function"
    },
    {
      "inputs": [
        {
          "internalType": "address",
          "name": "operator",
          "type": "address"
        },
        {
          "internalType": "address",
          "name": "from",
          "type": "address"
        },
        {
          "internalType": "uint256",
          "name": "id",
          "type": "uint256"
        },
        {
          "internalType": "uint256",
          "name": "value",
          "type": "uint256"
        },
        {
          "internalType": "bytes",
          "name": "data",
          "type": "bytes"
        }
      ],
      "name": "onERC1155Received",
      "outputs": [
        {
          "internalType": "bytes4",
          "name": "",
          "type": "bytes4"
        }
      ],
      "stateMutability": "nonpayable",
      "type": "function"
    },
    {
      "inputs": [
        {
          "internalType": "address",
          "name": "operator",
          "type": "address"
        },
        {
          "internalType": "address",
          "name": "from",
          "type": "address"
        },
        {
          "internalType": "uint256",
          "name": "tokenId",
          "type": "uint256"
        },
        {
          "internalType": "bytes",
          "name": "data",
          "type": "bytes"
        }
      ],
      "name": "onERC721Received",
      "outputs": [
        {
          "internalType": "bytes4",
          "name": "",
          "type": "bytes4"
        }
      ],
      "stateMutability": "nonpayable",
      "type": "function"
    },
    {
      "stateMutability": "payable",
      "type": "receive"
    },
    {
      "inputs": [
        {
          "components": [
            {
              "components": [
                {
                  "internalType": "bytes32",
                  "name": "root",
                  "type": "bytes32"
                },
                {
                  "internalType": "uint8",
                  "name": "height",
                  "type": "uint8"
                },
                {
                  "internalType": "uint8",
                  "name": "interval",
                  "type": "uint8"
                },
                {
                  "internalType": "uint32",
                  "name": "t0",
                  "type": "uint32"
                },
                {
                  "internalType": "uint32",
                  "name": "lifespan",
                  "type": "uint32"
                },
                {
                  "internalType": "uint8",
                  "name": "maxOperationsPerInterval",
                  "type": "uint8"
                }
              ],
              "internalType": "struct IONEWallet.CoreSetting",
              "name": "core",
              "type": "tuple"
            },
            {
              "components": [
                {
                  "internalType": "uint256",
                  "name": "spendingLimit",
                  "type": "uint256"
                },
                {
                  "internalType": "uint256",
                  "name": "spentAmount",
                  "type": "uint256"
                },
                {
                  "internalType": "uint32",
                  "name": "lastSpendingInterval",
                  "type": "uint32"
                },
                {
                  "internalType": "uint32",
                  "name": "spendingInterval",
                  "type": "uint32"
                },
                {
                  "internalType": "uint32",
                  "name": "lastLimitAdjustmentTime",
                  "type": "uint32"
                },
                {
                  "internalType": "uint256",
                  "name": "highestSpendingLimit",
                  "type": "uint256"
                }
              ],
              "internalType": "struct SpendingManager.SpendingState",
              "name": "spendingState",
              "type": "tuple"
            },
            {
              "internalType": "address payable",
              "name": "recoveryAddress",
              "type": "address"
            },
            {
              "internalType": "contract IONEWallet[]",
              "name": "backlinkAddresses",
              "type": "address[]"
            },
            {
              "components": [
                {
                  "internalType": "bytes32",
                  "name": "root",
                  "type": "bytes32"
                },
                {
                  "internalType": "uint8",
                  "name": "height",
                  "type": "uint8"
                },
                {
                  "internalType": "uint8",
                  "name": "interval",
                  "type": "uint8"
                },
                {
                  "internalType": "uint32",
                  "name": "t0",
                  "type": "uint32"
                },
                {
                  "internalType": "uint32",
                  "name": "lifespan",
                  "type": "uint32"
                },
                {
                  "internalType": "uint8",
                  "name": "maxOperationsPerInterval",
                  "type": "uint8"
                }
              ],
              "internalType": "struct IONEWallet.CoreSetting[]",
              "name": "oldCores",
              "type": "tuple[]"
            },
            {
              "components": [
                {
                  "internalType": "bytes32",
                  "name": "root",
                  "type": "bytes32"
                },
                {
                  "internalType": "uint8",
                  "name": "height",
                  "type": "uint8"
                },
                {
                  "internalType": "uint8",
                  "name": "interval",
                  "type": "uint8"
                },
                {
                  "internalType": "uint32",
                  "name": "t0",
                  "type": "uint32"
                },
                {
                  "internalType": "uint32",
                  "name": "lifespan",
                  "type": "uint32"
                },
                {
                  "internalType": "uint8",
                  "name": "maxOperationsPerInterval",
                  "type": "uint8"
                }
              ],
              "internalType": "struct IONEWallet.CoreSetting[]",
              "name": "innerCores",
              "type": "tuple[]"
            },
            {
              "internalType": "bytes",
              "name": "identificationKey",
              "type": "bytes"
            }
          ],
          "internalType": "struct IONEWallet.InitParams",
          "name": "initParams",
          "type": "tuple"
        }
      ],
      "name": "initialize",
      "outputs": [],
      "stateMutability": "nonpayable",
      "type": "function"
    },
    {
      "inputs": [],
      "name": "getForwardAddress",
      "outputs": [
        {
          "internalType": "address payable",
          "name": "",
          "type": "address"
        }
      ],
      "stateMutability": "view",
      "type": "function"
    },
    {
      "inputs": [],
      "name": "retire",
      "outputs": [
        {
          "internalType": "bool",
          "name": "",
          "type": "bool"
        }
      ],
      "stateMutability": "nonpayable",
      "type": "function"
    },
    {
      "inputs": [],
      "name": "getInfo",
      "outputs": [
        {
          "internalType": "bytes32",
          "name": "",
          "type": "bytes32"
        },
        {
          "internalType": "uint8",
          "name": "",
          "type": "uint8"
        },
        {
          "internalType": "uint8",
          "name": "",
          "type": "uint8"
        },
        {
          "internalType": "uint32",
          "name": "",
          "type": "uint32"
        },
        {
          "internalType": "uint32",
          "name": "",
          "type": "uint32"
        },
        {
          "internalType": "uint8",
          "name": "",
          "type": "uint8"
        },
        {
          "internalType": "address",
          "name": "",
          "type": "address"
        },
        {
          "internalType": "uint256",
          "name": "",
          "type": "uint256"
        }
      ],
      "stateMutability": "view",
      "type": "function"
    },
    {
      "inputs": [],
      "name": "getOldInfos",
      "outputs": [
        {
          "components": [
            {
              "internalType": "bytes32",
              "name": "root",
              "type": "bytes32"
            },
            {
              "internalType": "uint8",
              "name": "height",
              "type": "uint8"
            },
            {
              "internalType": "uint8",
              "name": "interval",
              "type": "uint8"
            },
            {
              "internalType": "uint32",
              "name": "t0",
              "type": "uint32"
            },
            {
              "internalType": "uint32",
              "name": "lifespan",
              "type": "uint32"
            },
            {
              "internalType": "uint8",
              "name": "maxOperationsPerInterval",
              "type": "uint8"
            }
          ],
          "internalType": "struct IONEWallet.CoreSetting[]",
          "name": "",
          "type": "tuple[]"
        }
      ],
      "stateMutability": "view",
      "type": "function"
    },
    {
      "inputs": [],
      "name": "getRootKey",
      "outputs": [
        {
          "internalType": "bytes32",
          "name": "",
          "type": "bytes32"
        }
      ],
      "stateMutability": "view",
      "type": "function"
    },
    {
      "inputs": [],
      "name": "getVersion",
      "outputs": [
        {
          "internalType": "uint32",
          "name": "",
          "type": "uint32"
        },
        {
          "internalType": "uint32",
          "name": "",
          "type": "uint32"
        }
      ],
      "stateMutability": "pure",
      "type": "function"
    },
    {
      "inputs": [],
      "name": "getSpendingState",
      "outputs": [
        {
          "components": [
            {
              "internalType": "uint256",
              "name": "spendingLimit",
              "type": "uint256"
            },
            {
              "internalType": "uint256",
              "name": "spentAmount",
              "type": "uint256"
            },
            {
              "internalType": "uint32",
              "name": "lastSpendingInterval",
              "type": "uint32"
            },
            {
              "internalType": "uint32",
              "name": "spendingInterval",
              "type": "uint32"
            },
            {
              "internalType": "uint32",
              "name": "lastLimitAdjustmentTime",
              "type": "uint32"
            },
            {
              "internalType": "uint256",
              "name": "highestSpendingLimit",
              "type": "uint256"
            }
          ],
          "internalType": "struct SpendingManager.SpendingState",
          "name": "",
          "type": "tuple"
        }
      ],
      "stateMutability": "view",
      "type": "function"
    },
    {
      "inputs": [],
      "name": "getNonce",
      "outputs": [
        {
          "internalType": "uint8",
          "name": "",
          "type": "uint8"
        }
      ],
      "stateMutability": "view",
      "type": "function"
    },
    {
      "inputs": [],
      "name": "getTrackedTokens",
      "outputs": [
        {
          "internalType": "enum Enums.TokenType[]",
          "name": "",
          "type": "uint8[]"
        },
        {
          "internalType": "address[]",
          "name": "",
          "type": "address[]"
        },
        {
          "internalType": "uint256[]",
          "name": "",
          "type": "uint256[]"
        }
      ],
      "stateMutability": "view",
      "type": "function"
    },
    {
      "inputs": [
        {
          "internalType": "enum Enums.TokenType",
          "name": "tokenType",
          "type": "uint8"
        },
        {
          "internalType": "address",
          "name": "contractAddress",
          "type": "address"
        },
        {
          "internalType": "uint256",
          "name": "tokenId",
          "type": "uint256"
        }
      ],
      "name": "getBalance",
      "outputs": [
        {
          "internalType": "uint256",
          "name": "",
          "type": "uint256"
        }
      ],
      "stateMutability": "view",
      "type": "function"
    },
    {
      "inputs": [],
      "name": "getAllCommits",
      "outputs": [
        {
          "internalType": "bytes32[]",
          "name": "",
          "type": "bytes32[]"
        },
        {
          "internalType": "bytes32[]",
          "name": "",
          "type": "bytes32[]"
        },
        {
          "internalType": "bytes32[]",
          "name": "",
          "type": "bytes32[]"
        },
        {
          "internalType": "uint32[]",
          "name": "",
          "type": "uint32[]"
        },
        {
          "internalType": "bool[]",
          "name": "",
          "type": "bool[]"
        }
      ],
      "stateMutability": "view",
      "type": "function"
    },
    {
      "inputs": [
        {
          "internalType": "bytes32",
          "name": "hash",
          "type": "bytes32"
        }
      ],
      "name": "lookupCommit",
      "outputs": [
        {
          "internalType": "bytes32[]",
          "name": "",
          "type": "bytes32[]"
        },
        {
          "internalType": "bytes32[]",
          "name": "",
          "type": "bytes32[]"
        },
        {
          "internalType": "bytes32[]",
          "name": "",
          "type": "bytes32[]"
        },
        {
          "internalType": "uint32[]",
          "name": "",
          "type": "uint32[]"
        },
        {
          "internalType": "bool[]",
          "name": "",
          "type": "bool[]"
        }
      ],
      "stateMutability": "view",
      "type": "function"
    },
    {
      "inputs": [
        {
          "internalType": "bytes32",
          "name": "hash",
          "type": "bytes32"
        },
        {
          "internalType": "bytes32",
          "name": "paramsHash",
          "type": "bytes32"
        },
        {
          "internalType": "bytes32",
          "name": "verificationHash",
          "type": "bytes32"
        }
      ],
      "name": "commit",
      "outputs": [],
      "stateMutability": "nonpayable",
      "type": "function"
    },
    {
      "inputs": [
        {
          "components": [
            {
              "internalType": "bytes32[]",
              "name": "neighbors",
              "type": "bytes32[]"
            },
            {
              "internalType": "uint32",
              "name": "indexWithNonce",
              "type": "uint32"
            },
            {
              "internalType": "bytes32",
              "name": "eotp",
              "type": "bytes32"
            }
          ],
          "internalType": "struct IONEWallet.AuthParams",
          "name": "auth",
          "type": "tuple"
        },
        {
          "components": [
            {
              "internalType": "enum Enums.OperationType",
              "name": "operationType",
              "type": "uint8"
            },
            {
              "internalType": "enum Enums.TokenType",
              "name": "tokenType",
              "type": "uint8"
            },
            {
              "internalType": "address",
              "name": "contractAddress",
              "type": "address"
            },
            {
              "internalType": "uint256",
              "name": "tokenId",
              "type": "uint256"
            },
            {
              "internalType": "address payable",
              "name": "dest",
              "type": "address"
            },
            {
              "internalType": "uint256",
              "name": "amount",
              "type": "uint256"
            },
            {
              "internalType": "bytes",
              "name": "data",
              "type": "bytes"
            }
          ],
          "internalType": "struct IONEWallet.OperationParams",
          "name": "op",
          "type": "tuple"
        }
      ],
      "name": "reveal",
      "outputs": [],
      "stateMutability": "nonpayable",
      "type": "function"
    },
    {
      "inputs": [
        {
          "internalType": "bytes32[]",
          "name": "",
          "type": "bytes32[]"
        },
        {
          "internalType": "uint32",
          "name": "",
          "type": "uint32"
        },
        {
          "internalType": "bytes32",
          "name": "",
          "type": "bytes32"
        },
        {
          "internalType": "enum Enums.OperationType",
          "name": "",
          "type": "uint8"
        },
        {
          "internalType": "enum Enums.TokenType",
          "name": "",
          "type": "uint8"
        },
        {
          "internalType": "address",
          "name": "",
          "type": "address"
        },
        {
          "internalType": "uint256",
          "name": "",
          "type": "uint256"
        },
        {
          "internalType": "address payable",
          "name": "",
          "type": "address"
        },
        {
          "internalType": "uint256",
          "name": "",
          "type": "uint256"
        },
        {
          "internalType": "bytes",
          "name": "",
          "type": "bytes"
        }
      ],
      "name": "reveal",
      "outputs": [],
      "stateMutability": "pure",
      "type": "function"
    },
    {
      "inputs": [],
      "name": "getBacklinks",
      "outputs": [
        {
          "internalType": "contract IONEWallet[]",
          "name": "",
          "type": "address[]"
        }
      ],
      "stateMutability": "view",
      "type": "function"
    },
    {
      "inputs": [
        {
          "internalType": "bytes4",
          "name": "interfaceId",
          "type": "bytes4"
        }
      ],
      "name": "supportsInterface",
      "outputs": [
        {
          "internalType": "bool",
          "name": "",
          "type": "bool"
        }
      ],
      "stateMutability": "pure",
      "type": "function"
    },
    {
      "inputs": [
        {
          "internalType": "bytes32",
          "name": "hash",
          "type": "bytes32"
        },
        {
          "internalType": "bytes",
          "name": "signatureBytes",
          "type": "bytes"
        }
      ],
      "name": "isValidSignature",
      "outputs": [
        {
          "internalType": "bytes4",
          "name": "",
          "type": "bytes4"
        }
      ],
      "stateMutability": "view",
      "type": "function"
    },
    {
      "inputs": [
        {
          "internalType": "uint32",
          "name": "start",
          "type": "uint32"
        },
        {
          "internalType": "uint32",
          "name": "end",
          "type": "uint32"
        }
      ],
      "name": "listSignatures",
      "outputs": [
        {
          "internalType": "bytes32[]",
          "name": "",
          "type": "bytes32[]"
        },
        {
          "internalType": "bytes32[]",
          "name": "",
          "type": "bytes32[]"
        },
        {
          "internalType": "uint32[]",
          "name": "",
          "type": "uint32[]"
        },
        {
          "internalType": "uint32[]",
          "name": "",
          "type": "uint32[]"
        }
      ],
      "stateMutability": "view",
      "type": "function"
    },
    {
      "inputs": [
        {
          "internalType": "bytes32",
          "name": "hash",
          "type": "bytes32"
        }
      ],
      "name": "lookupSignature",
      "outputs": [
        {
          "internalType": "bytes32",
          "name": "",
          "type": "bytes32"
        },
        {
          "internalType": "uint32",
          "name": "",
          "type": "uint32"
        },
        {
          "internalType": "uint32",
          "name": "",
          "type": "uint32"
        }
      ],
      "stateMutability": "view",
      "type": "function"
    }
  ],
  "bytecode": "0x60806040526016805460ff1916905534801561001a57600080fd5b506145a78061002a6000396000f3fe6080604052600436106101d15760003560e01c80635a9b0b89116100f7578063a6b920b611610095578063d087d28811610064578063d087d28814610883578063d87458a3146108aa578063e4e5b258146108ca578063f23a6e61146108ea57600080fd5b8063a6b920b614610806578063b1ccfccc14610826578063bc197c8114610848578063c34a6dad1461086857600080fd5b806380d10829116100d157806380d108291461076957806391df092514610789578063a17027e1146107cb578063a4874d77146107f157600080fd5b80635a9b0b89146106a3578063695def4c146107235780636ee89e6a1461074757600080fd5b80632293d3fb1161016f5780633f079ab81161013e5780633f079ab81461060957806341a6487814610629578063424c511014610651578063496018af1461068157600080fd5b80632293d3fb1461048a5780632f1f7520146104b4578063318c728c146104d9578063396ec5f4146105c857600080fd5b8063150b7a02116101ab578063150b7a02146103cd5780631626ba7e1461040657806316d43a97146104265780631cf4ea051461043c57600080fd5b806301ffc9a71461035357806304013239146103885780630d8e6e2c146103ab57600080fd5b3661034e5760165460ff166101e557600080fd5b600d546001600160a01b03161561026c57600654600d546001600160a01b03908116911614156102195761021761090a565b005b6006546001600160a01b031633141561026457670de0b6b3a764000034141561025c57600654610251906001600160a01b03166109a6565b610259610c5a565b50005b610251610d28565b61021761090a565b670de0b6b3a7640000341461027d57005b6006546001600160a01b0316331461029157005b3330141561029b57005b62127500600c546102ac919061432f565b42101561030a577fe58fb6bc612703a64f091af2ff6a6831eca838a0301129ab6879cab20d6d7c8c3362127500600c546102e6919061432f565b604080516001600160a01b03909316835260208301919091520160405180910390a1005b6040513381527f0cbe1fea4becf04af2176bbef0c9c53d439d30a05a197aacc38bb4a2873222e39060200160405180910390a1610345610d7e565b61021757600080fd5b600080fd5b34801561035f57600080fd5b5061037361036e366004613756565b610e70565b60405190151581526020015b60405180910390f35b34801561039457600080fd5b5061039d610e9b565b60405190815260200161037f565b3480156103b757600080fd5b5060408051600f8152600160208201520161037f565b3480156103d957600080fd5b506103ed6103e8366004613018565b610ee6565b6040516001600160e01b0319909116815260200161037f565b34801561041257600080fd5b506103ed6104213660046136d0565b61105f565b34801561043257600080fd5b5061039d600c5481565b34801561044857600080fd5b5061045c61045736600461368d565b6110f5565b60405161037f9493929190938452602084019290925263ffffffff1660408301521515606082015260800190565b34801561049657600080fd5b5061049f611100565b6040805192835260208301919091520161037f565b3480156104c057600080fd5b506104c9611108565b60405161037f9493929190613d94565b3480156104e557600080fd5b5061056e6040805160c081018252600080825260208201819052918101829052606081018290526080810182905260a0810191909152506040805160c08101825260085481526009546020820152600a5463ffffffff80821693830193909352640100000000810483166060830152600160401b90049091166080820152600b5460a082015290565b60405161037f9190600060c0820190508251825260208301516020830152604083015163ffffffff8082166040850152806060860151166060850152806080860151166080850152505060a083015160a083015292915050565b3480156105d457600080fd5b506105dd6110f5565b60408051948552602085019390935263ffffffff9182169284019290925216606082015260800161037f565b34801561061557600080fd5b506102176106243660046137ce565b611113565b34801561063557600080fd5b50600d546040516001600160a01b03909116815260200161037f565b34801561065d57600080fd5b5061067161066c3660046139bc565b6111d1565b60405161037f9493929190613de1565b34801561068d57600080fd5b50610696611285565b60405161037f9190613e2e565b3480156106af57600080fd5b506002546003546006546040805193845260ff808416602086015261010080850482169286019290925263ffffffff62010000850481166060870152600160301b8504166080860152600160501b90930490921660a08401526001600160a01b031660c0830152600060e08301520161037f565b34801561072f57600080fd5b506107386112e7565b60405161037f93929190613e7b565b34801561075357600080fd5b5061075c611380565b60405161037f9190613fd9565b34801561077557600080fd5b5061021761078436600461383b565b61140e565b34801561079557600080fd5b506107a96107a436600461368d565b611791565b6040805193845263ffffffff928316602085015291169082015260600161037f565b3480156107d757600080fd5b506107e061182f565b60405161037f959493929190613d33565b3480156107fd57600080fd5b506103736118d2565b34801561081257600080fd5b5061039d61082136600461378e565b61197c565b34801561083257600080fd5b5061083b611a4c565b60405161037f9190613f0c565b34801561085457600080fd5b506103ed610863366004612f5e565b611af9565b34801561087457600080fd5b5061021761034e3660046131f5565b34801561088f57600080fd5b50610898611c0b565b60405160ff909116815260200161037f565b3480156108b657600080fd5b506107e06108c536600461368d565b611ca7565b3480156108d657600080fd5b506102176108e53660046136a5565b611d52565b3480156108f657600080fd5b506103ed610905366004613088565b611dde565b600d546040516000916001600160a01b03169034908381818185875af1925050503d8060008114610957576040519150601f19603f3d011682016040523d82523d6000602084013e61095c565b606091505b505090508061096a57600080fd5b604080513481523360208201527f6e8641fc34fdcf9d67683d1a8ced72ff01d27ff86ff3b1d338fa6165e496c73f91015b60405180910390a150565b600d546001600160a01b03163014806109c657506001600160a01b038116155b15610a04576040516001600160a01b03821681527f81a6b37eeab97da1bb7ac3b3e34fcee45f445c8de943999917a6fe95ed7fa7879060200161099b565b600d80546001600160a01b0319166001600160a01b0383169081179091556040519081527fa706c3d6ff18ff7dfc1ee0a34bc34fe432c200d8d475bff3ed963eb31ae194689060200160405180910390a1600654610a6a906001600160a01b0316611f58565b610ad057600d54610a83906001600160a01b0316611f94565b6000610a8d610d7e565b90507f41af6efec37729ca1819094cce85d9ae325b936fda39ac98a58cfcb45d431b4b81604051610ac2911515815260200190565b60405180910390a150610be4565b60405163c9c80f8f60e01b81526008600482015260009073__SpendingManager_______________________9063c9c80f8f9060240160206040518083038186803b158015610b1e57600080fd5b505af4158015610b32573d6000803e3d6000fd5b505050506040513d601f19601f82011682018060405250810190610b569190613947565b600d54909150610b6f906001600160a01b031682612040565b5060405163aaf6047360e01b8152600060048201526001600160a01b038316602482015273__TokenTracker__________________________9063aaf604739060440160006040518083038186803b158015610bca57600080fd5b505af4158015610bde573d6000803e3d6000fd5b50505050505b604051639cacd87160e01b8152600e60048201526001600160a01b038216602482015273__WalletGraph___________________________90639cacd871906044015b60006040518083038186803b158015610c3f57600080fd5b505af4158015610c53573d6000803e3d6000fd5b5050505050565b600654600090610c72906001600160a01b0316611f58565b610ca5576040517fc27dbdcf29e2a161f0420d399444129801e578bafe157fef0370098459e082bf90600090a150600090565b6006546001600160a01b0316301415610cbe5750600190565b610cc6610d7e565b610cf9576040517fa3a244603d968c02ebd2017f990d4e077cf0381929976be2a0cb07076147a56f90600090a150600090565b6040517f94f696b15fed1e58be1975a224273b56878dda280cb878ec20eb56b6fea7313a90600090a150600190565b600d54600680546001600160a01b0319166001600160a01b0390921691821790556040519081527f83c14e1947c5a639434d6195a6e9d85ab3471a5049c66e0aa46b71e2c0a06dde9060200160405180910390a1565b60065460405160009182916001600160a01b039091169047908381818185875af1925050503d8060008114610dcf576040519150601f19603f3d011682016040523d82523d6000602084013e610dd4565b606091505b505090508015610e6b57600654600d80546001600160a01b0319166001600160a01b03909216918217905560405163aaf6047360e01b815260006004820152602481019190915273__TokenTracker__________________________9063aaf604739060440160006040518083038186803b158015610e5257600080fd5b505af4158015610e66573d6000803e3d6000fd5b505050505b919050565b60006001600160e01b03198216630b135d3f60e11b1480610e955750610e9582612263565b92915050565b60045460009015610edf576004600081548110610ec857634e487b7160e01b600052603260045260246000fd5b906000526020600020906002020160000154905090565b5060025490565b60007feb7a68d5a205eea79480f44587fe8146ae15b7e92582967fd1b1b119c9b60efa60018087338a898989604051610f26989796959493929190614014565b60405180910390a16000610f42600d546001600160a01b031690565b90506001600160a01b03811615610fdb5760405163c841a9db60e01b815273__TokenTracker__________________________9063c841a9db90610f9a9060009060019033908b90889084908d908d9060040161421d565b60006040518083038186803b158015610fb257600080fd5b505af4158015610fc6573d6000803e3d6000fd5b50630a85bd0160e11b94506110569350505050565b6040516304e9b2db60e31b815273__TokenTracker__________________________9063274d96d89061101a9060009060019033908b906004016141ee565b60006040518083038186803b15801561103257600080fd5b505af4158015611046573d6000803e3d6000fd5b50630a85bd0160e11b9450505050505b95945050505050565b604051634d94f52360e01b815260009073__SignatureManager______________________90634d94f5239061109e90601390879087906004016141cf565b60206040518083038186803b1580156110b657600080fd5b505af41580156110ca573d6000803e3d6000fd5b505050506040513d601f19601f820116820180604052508101906110ee9190613772565b9392505050565b600080600080600080fd5b600080600080fd5b606080606080600080fd5b60165460ff1661112257600080fd5b600d546001600160a01b031633146111bc5760065460405163f35664b160e01b815273__Reveal________________________________9163f35664b191611187916002916004916005916001600160a01b0390911690600f908a908a908601614072565b60006040518083038186803b15801561119f57600080fd5b505af41580156111b3573d6000803e3d6000fd5b505042600c5550505b6111cd6111c8826143a3565b6122b4565b5050565b604051630139109f60e31b81526013600482015263ffffffff80841660248301528216604482015260609081908190819073__SignatureManager______________________906309c884f89060640160006040518083038186803b15801561123957600080fd5b505af415801561124d573d6000803e3d6000fd5b505050506040513d6000823e601f3d908101601f1916820160405261127591908101906133a5565b9299919850965090945092505050565b6060600e8054806020026020016040519081016040528092919081815260200182805480156112dd57602002820191906000526020600020905b81546001600160a01b031681526001909101906020018083116112bf575b5050505050905090565b604051631d9037a160e11b8152600060048201526060908190819073__TokenTracker__________________________90633b206f429060240160006040518083038186803b15801561133957600080fd5b505af415801561134d573d6000803e3d6000fd5b505050506040513d6000823e601f3d908101601f19168201604052611375919081019061344c565b925092509250909192565b6007805461138d9061446a565b80601f01602080910402602001604051908101604052809291908181526020018280546113b99061446a565b80156114065780601f106113db57610100808354040283529160200191611406565b820191906000526020600020905b8154815290600101906020018083116113e957829003601f168201915b505050505081565b60165460ff161561141e57600080fd5b60005b8160800151518163ffffffff16101561152557600482608001518263ffffffff168151811061146057634e487b7160e01b600052603260045260246000fd5b60209081029190910181015182546001808201855560009485529383902082516002909202019081559181015191909201805460408401516060850151608086015160a09096015160ff95861661ffff1990941693909317610100928616929092029190911769ffffffffffffffff000019166201000063ffffffff9283160263ffffffff60301b191617600160301b91909516029390931760ff60501b1916600160501b92909316919091029190911790558061151d816144a5565b915050611421565b5060005b8160a00151518163ffffffff16101561162d5760058260a001518263ffffffff168151811061156857634e487b7160e01b600052603260045260246000fd5b60209081029190910181015182546001808201855560009485529383902082516002909202019081559181015191909201805460408401516060850151608086015160a09096015160ff95861661ffff1990941693909317610100928616929092029190911769ffffffffffffffff000019166201000063ffffffff9283160263ffffffff60301b191617600160301b91909516029390931760ff60501b1916600160501b929093169190910291909117905580611625816144a5565b915050611529565b5080518051600255602080820151600380546040808601516060808801516080808a015160a09a8b015160ff998a1661ffff1990981697909717610100958a16959095029490941769ffffffffffffffff000019166201000063ffffffff9384160263ffffffff60301b191617600160301b948316949094029390931760ff60501b1916600160501b9790951696909602939093179093558487015180516008558086015160095580820151600a8054838601519684015192881667ffffffffffffffff199091161764010000000096881696909602959095176bffffffff00000000000000001916600160401b9190961602949094179092559190930151600b5591830151600680546001600160a01b0319166001600160a01b0390921691909117905590820151805161176692600e920190612981565b5060c08101518051611780916007916020909101906129e6565b50506016805460ff19166001179055565b604051635107e51560e11b815260136004820152602481018290526000908190819073__SignatureManager______________________9063a20fca2a9060440160606040518083038186803b1580156117ea57600080fd5b505af41580156117fe573d6000803e3d6000fd5b505050506040513d601f19601f820116820180604052508101906118229190613714565b9250925092509193909250565b60405163732d1f0f60e01b8152600f6004820152606090819081908190819073__CommitManager_________________________9063732d1f0f9060240160006040518083038186803b15801561188557600080fd5b505af4158015611899573d6000803e3d6000fd5b505050506040513d6000823e601f3d908101601f191682016040526118c191908101906132da565b945094509450945094509091929394565b60035460009063ffffffff600160301b8204811691620100008104909116906119049060ff6101009091041642614347565b61190e919061437e565b63ffffffff161161191e57600080fd5b600654611933906001600160a01b0316611f58565b61193c57600080fd5b611944610d7e565b61194d57600080fd5b6040517fc15f68f0a72806ff3f8bf2435385a67c4c22413f1c7931ef7bcea718e6ffcf0390600090a150600190565b60008060008073__TokenTracker__________________________636489a8db8888886040518463ffffffff1660e01b81526004016119bd93929190613fec565b60006040518083038186803b1580156119d557600080fd5b505af41580156119e9573d6000803e3d6000fd5b505050506040513d6000823e601f3d908101601f19168201604052611a11919081019061395f565b925092509250818190611a405760405162461bcd60e51b8152600401611a379190613fd9565b60405180910390fd5b50919695505050505050565b60606004805480602002602001604051908101604052809291908181526020016000905b82821015611af05760008481526020908190206040805160c081018252600286029092018054835260019081015460ff80821685870152610100820481169385019390935263ffffffff62010000820481166060860152600160301b8204166080850152600160501b900490911660a08301529083529092019101611a70565b50505050905090565b6000805b63ffffffff8116871115611bf5573063f23a6e618b8b8b8b63ffffffff8716818110611b3957634e487b7160e01b600052603260045260246000fd5b905060200201358a8a8763ffffffff16818110611b6657634e487b7160e01b600052603260045260246000fd5b9050602002013589896040518763ffffffff1660e01b8152600401611b9096959493929190613c69565b602060405180830381600087803b158015611baa57600080fd5b505af1158015611bbe573d6000803e3d6000fd5b505050506040513d601f19601f82011682018060405250810190611be29190613772565b5080611bed816144a5565b915050611afd565b5063bc197c8160e01b9998505050505050505050565b600354604051631601f47b60e31b8152600f600482015261010090910460ff16602482015260009073__CommitManager_________________________9063b00fa3d89060440160206040518083038186803b158015611c6a57600080fd5b505af4158015611c7e573d6000803e3d6000fd5b505050506040513d601f19601f82011682018060405250810190611ca291906139e9565b905090565b6040516391a351d360e01b8152600f600482015260248101829052606090819081908190819073__CommitManager_________________________906391a351d39060440160006040518083038186803b158015611d0457600080fd5b505af4158015611d18573d6000803e3d6000fd5b505050506040513d6000823e601f3d908101601f19168201604052611d4091908101906132da565b939a9299509097509550909350915050565b60165460ff16611d6157600080fd5b604051632b6e663760e21b8152600f600482015260248101849052604481018390526064810182905273__CommitManager_________________________9063adb998dc9060840160006040518083038186803b158015611dc157600080fd5b505af4158015611dd5573d6000803e3d6000fd5b50505050505050565b60007feb7a68d5a205eea79480f44587fe8146ae15b7e92582967fd1b1b119c9b60efa60028588338b8a8989604051611e1e989796959493929190614014565b60405180910390a16000611e3a600d546001600160a01b031690565b90506001600160a01b03811615611ed35760405163c841a9db60e01b815273__TokenTracker__________________________9063c841a9db90611e929060009060029033908c9088908d908d908d9060040161421d565b60006040518083038186803b158015611eaa57600080fd5b505af4158015611ebe573d6000803e3d6000fd5b5063f23a6e6160e01b9450611f4e9350505050565b6040516304e9b2db60e31b815273__TokenTracker__________________________9063274d96d890611f129060009060029033908c906004016141ee565b60006040518083038186803b158015611f2a57600080fd5b505af4158015611f3e573d6000803e3d6000fd5b5063f23a6e6160e01b9450505050505b9695505050505050565b60006001600160a01b03821615801590610e9557506001600160a01b038216737534978f9fa903150ed429c486d1f42b7fdb7a61141592915050565b600654611fa9906001600160a01b0316611f58565b80611fbc57506001600160a01b03811630145b15611ff257604051600081527f83c14e1947c5a639434d6195a6e9d85ab3471a5049c66e0aa46b71e2c0a06dde9060200161099b565b600680546001600160a01b0319166001600160a01b0383169081179091556040519081527f83c14e1947c5a639434d6195a6e9d85ab3471a5049c66e0aa46b71e2c0a06dde9060200161099b565b60405163075f723760e11b8152600860048201526001600160a01b038316602482015260448101829052600090819073__SpendingManager_______________________90630ebee46e9060640160206040518083038186803b1580156120a657600080fd5b505af41580156120ba573d6000803e3d6000fd5b505050506040513d601f19601f820116820180604052508101906120de9190613673565b9050806120ef576000915050610e95565b60405163ddc7babd60e01b8152600860048201526024810184905273__SpendingManager_______________________9063ddc7babd9060440160006040518083038186803b15801561214157600080fd5b505af4158015612155573d6000803e3d6000fd5b50505050600080856001600160a01b03168560405160006040518083038185875af1925050503d80600081146121a7576040519150601f19603f3d011682016040523d82523d6000602084013e6121ac565b606091505b5091509150816122165784600860010160008282546121cb9190614367565b90915550506040517ff5c313ebe4b0c35fe244772061cea14ddbae7ed089b2850d6ee2235fd42847e4906122029088908490613c3d565b60405180910390a160009350505050610e95565b604080518681526001600160a01b03881660208201527f8f4636f285a9a17fe3479ab47bb7a5deadaf9b2295a16c3965f55fa48e542d1f910160405180910390a150600195945050505050565b60006001600160e01b031982166301ffc9a760e01b148061229457506001600160e01b0319821663f23a6e6160e01b145b80610e9557506001600160e01b03198216630a85bd0160e11b1492915050565b6004815160198111156122d757634e487b7160e01b600052602160045260246000fd5b14156122ef576111cd81608001518260a00151612040565b60068151601981111561231257634e487b7160e01b600052602160045260246000fd5b1415612320576111cd610c5a565b60058151601981111561234357634e487b7160e01b600052602160045260246000fd5b1415612359576123568160800151611f94565b50565b60088151601981111561237c57634e487b7160e01b600052602160045260246000fd5b141561238f5761235681608001516109a6565b6015815160198111156123b257634e487b7160e01b600052602160045260246000fd5b14156123e55760608101516123d85761235681604001518260a001518360c001516124d8565b6123568160c00151612732565b60078151601981111561240857634e487b7160e01b600052602160045260246000fd5b141561245f5760c0810151600d546040516316f5dbe960e31b815273__CoreManager___________________________9263b7aedf4892610c27926004926005926002926001600160a01b03909116908501613f9a565b60168151601981111561248257634e487b7160e01b600052602160045260246000fd5b1415612495576123568160c00151612904565b6040516338e617e360e21b815273__Executor______________________________9063e3985f8c90610c27908490600090600e9060139060089060040161412f565b60405163075f723760e11b8152600860048201526001600160a01b03841660248201526044810183905260009073__SpendingManager_______________________90630ebee46e9060640160206040518083038186803b15801561253c57600080fd5b505af4158015612550573d6000803e3d6000fd5b505050506040513d601f19601f820116820180604052508101906125749190613673565b9050806125bc577f4d62b9a6ffb55cee5d5dc75b67dc0013b2cce2fa73c7a715ad72dedc5ffdc60c8484846040516125ae93929190613cf4565b60405180910390a150505050565b60405163ddc7babd60e01b8152600860048201526024810184905273__SpendingManager_______________________9063ddc7babd9060440160006040518083038186803b15801561260e57600080fd5b505af4158015612622573d6000803e3d6000fd5b50505050600080856001600160a01b031685856040516126429190613c21565b60006040518083038185875af1925050503d806000811461267f576040519150601f19603f3d011682016040523d82523d6000602084013e612684565b606091505b509150915081156126d1577f594eb1d75e7963acdb8e3677a186a5ed35924ab37f2b20e78aea6516bbc9bd6e868686846040516126c49493929190613cb0565b60405180910390a161272a565b84600860010160008282546126e69190614367565b90915550506040517f4d62b9a6ffb55cee5d5dc75b67dc0013b2cce2fa73c7a715ad72dedc5ffdc60c90612721908890889088908690613cb0565b60405180910390a15b505050505050565b60008060008380602001905181019061274b9190613101565b9250925092506000805b83518163ffffffff1610156127b157838163ffffffff168151811061278a57634e487b7160e01b600052603260045260246000fd5b60200260200101518261279d919061432f565b9150806127a9816144a5565b915050612755565b5060405163075f723760e11b815260086004820152600060248201526044810182905273__SpendingManager_______________________90630ebee46e9060640160206040518083038186803b15801561280b57600080fd5b505af415801561281f573d6000803e3d6000fd5b505050506040513d601f19601f820116820180604052508101906128439190613673565b61284e575050505050565b60005b84518163ffffffff16101561272a576128f2858263ffffffff168151811061288957634e487b7160e01b600052603260045260246000fd5b6020026020010151858363ffffffff16815181106128b757634e487b7160e01b600052603260045260246000fd5b6020026020010151858463ffffffff16815181106128e557634e487b7160e01b600052603260045260246000fd5b60200260200101516124d8565b806128fc816144a5565b915050612851565b60008180602001905181019061291a9190613534565b805190915060005b8160ff168163ffffffff16101561297b57612969838263ffffffff168151811061295c57634e487b7160e01b600052603260045260246000fd5b60200260200101516122b4565b80612973816144a5565b915050612922565b50505050565b8280548282559060005260206000209081019282156129d6579160200282015b828111156129d657825182546001600160a01b0319166001600160a01b039091161782556020909201916001909101906129a1565b506129e2929150612a5a565b5090565b8280546129f29061446a565b90600052602060002090601f016020900481019282612a1457600085556129d6565b82601f10612a2d57805160ff19168380011785556129d6565b828001600101855582156129d6579182015b828111156129d6578251825591602001919060010190612a3f565b5b808211156129e25760008155600101612a5b565b6000612a82612a7d84614308565b6142b5565b9050828152838383011115612a9657600080fd5b6110ee83602083018461443e565b8035610e6b8161450b565b8051610e6b8161450b565b600082601f830112612aca578081fd5b81516020612ada612a7d836142e5565b80838252828201915082860187848660051b8901011115612af9578586fd5b855b85811015612b20578151612b0e8161450b565b84529284019290840190600101612afb565b5090979650505050505050565b600082601f830112612b3d578081fd5b81516020612b4d612a7d836142e5565b80838252828201915082860187848660051b8901011115612b6c578586fd5b855b85811015612b2057612b7f82612d75565b84529284019290840190600101612b6e565b60008083601f840112612ba2578182fd5b5081356001600160401b03811115612bb8578182fd5b6020830191508360208260051b8501011115612bd357600080fd5b9250929050565b600082601f830112612bea578081fd5b81516020612bfa612a7d836142e5565b80838252828201915082860187848660051b8901011115612c19578586fd5b855b85811015612b2057815184529284019290840190600101612c1b565b600082601f830112612c47578081fd5b81356020612c57612a7d836142e5565b80838252828201915082860187848660051b8901011115612c76578586fd5b855b85811015612b20578135612c8b8161450b565b84529284019290840190600101612c78565b600082601f830112612cad578081fd5b81356020612cbd612a7d836142e5565b8281528181019085830160c080860288018501891015612cdb578687fd5b865b86811015612d0157612cef8a84612e5b565b85529385019391810191600101612cdd565b509198975050505050505050565b600082601f830112612d1f578081fd5b81516020612d2f612a7d836142e5565b80838252828201915082860187848660051b8901011115612d4e578586fd5b855b85811015612b20578151612d6381614550565b84529284019290840190600101612d50565b80518015158114610e6b57600080fd5b60008083601f840112612d96578182fd5b5081356001600160401b03811115612dac578182fd5b602083019150836020828501011115612bd357600080fd5b600082601f830112612dd4578081fd5b8135612de2612a7d82614308565b818152846020838601011115612df6578283fd5b816020850160208301379081016020019190915292915050565b600082601f830112612e20578081fd5b6110ee83835160208501612a6f565b8035610e6b81614536565b8051610e6b81614536565b8035610e6b81614543565b8051610e6b81614543565b600060c08284031215612e6c578081fd5b612e7461426b565b9050813581526020820135612e8881614562565b60208201526040820135612e9b81614562565b60408201526060820135612eae81614550565b60608201526080820135612ec181614550565b608082015260a0820135612ed481614562565b60a082015292915050565b600060c08284031215612ef0578081fd5b612ef861426b565b905081358152602082013560208201526040820135612f1681614550565b60408201526060820135612f2981614550565b60608201526080820135612f3c81614550565b8060808301525060a082013560a082015292915050565b8035610e6b81614550565b60008060008060008060008060a0898b031215612f79578384fd5b8835612f848161450b565b97506020890135612f948161450b565b965060408901356001600160401b0380821115612faf578586fd5b612fbb8c838d01612b91565b909850965060608b0135915080821115612fd3578586fd5b612fdf8c838d01612b91565b909650945060808b0135915080821115612ff7578384fd5b506130048b828c01612d85565b999c989b5096995094979396929594505050565b60008060008060006080868803121561302f578283fd5b853561303a8161450b565b9450602086013561304a8161450b565b93506040860135925060608601356001600160401b0381111561306b578182fd5b61307788828901612d85565b969995985093965092949392505050565b60008060008060008060a087890312156130a0578384fd5b86356130ab8161450b565b955060208701356130bb8161450b565b9450604087013593506060870135925060808701356001600160401b038111156130e3578283fd5b6130ef89828a01612d85565b979a9699509497509295939492505050565b600080600060608486031215613115578081fd5b83516001600160401b038082111561312b578283fd5b61313787838801612aba565b945060209150818601518181111561314d578384fd5b61315988828901612bda565b94505060408601518181111561316d578384fd5b8601601f8101881361317d578384fd5b805161318b612a7d826142e5565b8082825285820191508584018b878560051b87010111156131aa578788fd5b875b848110156131e3578151878111156131c257898afd5b6131d08e8a838a0101612e10565b85525092870192908701906001016131ac565b50508096505050505050509250925092565b6000806000806000806000806000806000806101408d8f031215613217578586fd5b6001600160401b038d35111561322b578586fd5b6132388e8e358f01612b91565b909c509a5061324960208e01612f53565b995060408d0135985061325e60608e01612e2f565b975061326c60808e01612e45565b965061327a60a08e01612aa4565b955060c08d0135945061328f60e08e01612aa4565b93506101008d013592506001600160401b036101208e013511156132b1578081fd5b6132c28e6101208f01358f01612d85565b81935080925050509295989b509295989b509295989b565b600080600080600060a086880312156132f1578283fd5b85516001600160401b0380821115613307578485fd5b61331389838a01612bda565b96506020880151915080821115613328578485fd5b61333489838a01612bda565b95506040880151915080821115613349578485fd5b61335589838a01612bda565b9450606088015191508082111561336a578283fd5b61337689838a01612d0f565b9350608088015191508082111561338b578283fd5b5061339888828901612b2d565b9150509295509295909350565b600080600080608085870312156133ba578182fd5b84516001600160401b03808211156133d0578384fd5b6133dc88838901612bda565b955060208701519150808211156133f1578384fd5b6133fd88838901612bda565b94506040870151915080821115613412578384fd5b61341e88838901612d0f565b93506060870151915080821115613433578283fd5b5061344087828801612d0f565b91505092959194509250565b600080600060608486031215613460578081fd5b83516001600160401b0380821115613476578283fd5b818601915086601f830112613489578283fd5b81516020613499612a7d836142e5565b8083825282820191508286018b848660051b89010111156134b8578788fd5b8796505b848710156134e35780516134cf81614543565b8352600196909601959183019183016134bc565b50918901519197509093505050808211156134fc578283fd5b61350887838801612aba565b9350604086015191508082111561351d578283fd5b5061352a86828701612bda565b9150509250925092565b60006020808385031215613546578182fd5b82516001600160401b038082111561355c578384fd5b818501915085601f83011261356f578384fd5b815161357d612a7d826142e5565b80828252858201915085850189878560051b880101111561359c578788fd5b875b84811015613664578151868111156135b457898afd5b870160e0818d03601f19018113156135ca578a8bfd5b6135d2614293565b6135dd8b8401612e3a565b815260406135ec818501612e50565b8c83015260606135fd818601612aaf565b828401526080915081850151818401525060a061361b818601612aaf565b8284015260c091508185015181840152508284015192508983111561363e578c8dfd5b61364c8f8d85870101612e10565b9082015286525050928701929087019060010161359e565b50909998505050505050505050565b600060208284031215613684578081fd5b6110ee82612d75565b60006020828403121561369e578081fd5b5035919050565b6000806000606084860312156136b9578081fd5b505081359360208301359350604090920135919050565b600080604083850312156136e2578182fd5b8235915060208301356001600160401b038111156136fe578182fd5b61370a85828601612dc4565b9150509250929050565b600080600060608486031215613728578081fd5b83519250602084015161373a81614550565b604085015190925061374b81614550565b809150509250925092565b600060208284031215613767578081fd5b81356110ee81614520565b600060208284031215613783578081fd5b81516110ee81614520565b6000806000606084860312156137a2578081fd5b83356137ad81614543565b925060208401356137bd8161450b565b929592945050506040919091013590565b600080604083850312156137e0578182fd5b82356001600160401b03808211156137f6578384fd5b9084019060608287031215613809578384fd5b9092506020840135908082111561381e578283fd5b50830160e08186031215613830578182fd5b809150509250929050565b60006020828403121561384c578081fd5b81356001600160401b0380821115613862578283fd5b908301906102208286031215613876578283fd5b61387e614293565b6138888684612e5b565b81526138978660c08501612edf565b60208201526138a96101808401612aa4565b60408201526101a0830135828111156138c0578485fd5b6138cc87828601612c37565b6060830152506101c0830135828111156138e4578485fd5b6138f087828601612c9d565b6080830152506101e083013582811115613908578485fd5b61391487828601612c9d565b60a0830152506102008301358281111561392c578485fd5b61393887828601612dc4565b60c08301525095945050505050565b600060208284031215613958578081fd5b5051919050565b600080600060608486031215613973578081fd5b8351925061398360208501612d75565b915060408401516001600160401b0381111561399d578182fd5b8401601f810186136139ad578182fd5b61352a86825160208401612a6f565b600080604083850312156139ce578182fd5b82356139d981614550565b9150602083013561383081614550565b6000602082840312156139fa578081fd5b81516110ee81614562565b6000815180845260208085019450808401835b83811015613a36578151151587529582019590820190600101613a18565b509495945050505050565b81835260006001600160fb1b03831115613a59578081fd5b8260051b80836020870137939093016020019283525090919050565b6000815180845260208085019450808401835b83811015613a3657815187529582019590820190600101613a88565b6000815180845260208085019450808401835b83811015613a3657815163ffffffff1687529582019590820190600101613ab7565b81835281816020850137506000828201602090810191909152601f909101601f19169091010190565b60008151808452613b1a81602086016020860161443e565b601f01601f19169290920160200192915050565b601a8110613b3e57613b3e6144df565b9052565b60048110613b3e57613b3e6144df565b60008135613b5f81614536565b613b698482613b2e565b506020820135613b7881614543565b613b856020850182613b42565b506040820135613b948161450b565b6001600160a01b03908116604085015260608381013590850152608083013590613bbd8261450b565b16608084015260a0828101359084015260c082013536839003601e19018112613be4578182fd5b820180356001600160401b03811115613bfb578283fd5b803603841315613c09578283fd5b60e060c086015261105660e086018260208501613ad9565b60008251613c3381846020870161443e565b9190910192915050565b6001600160a01b0383168152604060208201819052600090613c6190830184613b02565b949350505050565b6001600160a01b03878116825286166020820152604081018590526060810184905260a060808201819052600090613ca49083018486613ad9565b98975050505050505050565b60018060a01b0385168152836020820152608060408201526000613cd76080830185613b02565b8281036060840152613ce98185613b02565b979650505050505050565b60018060a01b0384168152826020820152608060408201526000613d1b6080830184613b02565b82810360609093019290925281526020019392505050565b60a081526000613d4660a0830188613a75565b8281036020840152613d588188613a75565b90508281036040840152613d6c8187613a75565b90508281036060840152613d808186613aa4565b90508281036080840152613ca48185613a05565b608081526000613da76080830187613a75565b8281036020840152613db98187613a75565b90508281036040840152613dcd8186613aa4565b90508281036060840152613ce98185613a05565b608081526000613df46080830187613a75565b8281036020840152613e068187613a75565b90508281036040840152613e1a8186613aa4565b90508281036060840152613ce98185613aa4565b6020808252825182820181905260009190848201906040850190845b81811015613e6f5783516001600160a01b031683529284019291840191600101613e4a565b50909695505050505050565b606080825284519082018190526000906020906080840190828801845b82811015613ebb57613eab848351613b42565b9284019290840190600101613e98565b50505083810382850152855180825286830191830190845b81811015613ef85783516001600160a01b031683529284019291840191600101613ed3565b50508481036040860152613ca48187613a75565b602080825282518282018190526000919060409081850190868401855b82811015613f8d578151805185528681015160ff908116888701528682015181168787015260608083015163ffffffff908116918801919091526080808401519091169087015260a091820151169085015260c09093019290850190600101613f29565b5091979650505050505050565b85815284602082015283604082015260a060608201526000613fbf60a0830185613b02565b905060018060a01b03831660808301529695505050505050565b6020815260006110ee6020830184613b02565b60608101613ffa8286613b42565b6001600160a01b0393909316602082015260400152919050565b61401e818a613b42565b602081018890526001600160a01b03878116604083015286811660608301528516608082015260a0810184905260e060c082018190526000906140649083018486613ad9565b9a9950505050505050505050565b87815260208101879052604081018690526001600160a01b03851660608201526080810184905260e060a08201526000833536859003601e190181126140b6578182fd5b840180356001600160401b038111156140cd578283fd5b8060051b36038613156140de578283fd5b606060e08501526140f761014085018260208501613a41565b91505061410660208601612f53565b63ffffffff16610100840152604085013561012084015282810360c08401526140648185613b52565b60a0815261414160a082018751613b2e565b6000602087015161415560c0840182613b42565b50604087015160018060a01b0380821660e085015260608901516101008501528060808a015116610120850152505060a087015161014083015260c087015160e06101608401526141aa610180840182613b02565b9150508560208301528460408301528360608301528260808301529695505050505050565b8381528260208201526060604082015260006110566060830184613b02565b848152608081016142026020830186613b42565b6001600160a01b039390931660408201526060015292915050565b88815261422d6020820189613b42565b6001600160a01b038781166040830152606082018790528516608082015260a0810184905260e060c082018190526000906140649083018486613ad9565b60405160c081016001600160401b038111828210171561428d5761428d6144f5565b60405290565b60405160e081016001600160401b038111828210171561428d5761428d6144f5565b604051601f8201601f191681016001600160401b03811182821017156142dd576142dd6144f5565b604052919050565b60006001600160401b038211156142fe576142fe6144f5565b5060051b60200190565b60006001600160401b03821115614321576143216144f5565b50601f01601f191660200190565b60008219821115614342576143426144c9565b500190565b60008261436257634e487b7160e01b81526012600452602481fd5b500490565b600082821015614379576143796144c9565b500390565b600063ffffffff8381169083168181101561439b5761439b6144c9565b039392505050565b600060e082360312156143b4578081fd5b6143bc614293565b6143c583612e2f565b81526143d360208401612e45565b60208201526143e460408401612aa4565b6040820152606083013560608201526143ff60808401612aa4565b608082015260a083013560a082015260c08301356001600160401b03811115614426578283fd5b61443236828601612dc4565b60c08301525092915050565b60005b83811015614459578181015183820152602001614441565b8381111561297b5750506000910152565b600181811c9082168061447e57607f821691505b6020821081141561449f57634e487b7160e01b600052602260045260246000fd5b50919050565b600063ffffffff808316818114156144bf576144bf6144c9565b6001019392505050565b634e487b7160e01b600052601160045260246000fd5b634e487b7160e01b600052602160045260246000fd5b634e487b7160e01b600052604160045260246000fd5b6001600160a01b038116811461235657600080fd5b6001600160e01b03198116811461235657600080fd5b601a811061235657600080fd5b6004811061235657600080fd5b63ffffffff8116811461235657600080fd5b60ff8116811461235657600080fdfea264697066735822122095d31cf9705bc5754d6526581a712bd6119020ca2440e4a9437dcab8b039fa8864736f6c63430008040033",
  "immutableReferences": {},
  "source": "// SPDX-License-Identifier: Apache-2.0\npragma solidity ^0.8.4;\n\nimport \"./SpendingManager.sol\";\nimport \"./CommitManager.sol\";\nimport \"./TokenManager.sol\";\nimport \"./DomainManager.sol\";\nimport \"./SignatureManager.sol\";\nimport \"./Reveal.sol\";\nimport \"./WalletGraph.sol\";\nimport \"./Enums.sol\";\nimport \"./IONEWallet.sol\";\nimport \"./AbstractONEWallet.sol\";\nimport \"./CoreManager.sol\";\nimport \"./Executor.sol\";\nimport \"./Recovery.sol\";\nimport \"./Version.sol\";\n\ncontract ONEWallet is TokenManager, AbstractONEWallet {\n    using TokenTracker for TokenTracker.TokenTrackerState;\n    using WalletGraph for IONEWallet[];\n    using SignatureManager for SignatureManager.SignatureTracker;\n    using SpendingManager for SpendingManager.SpendingState;\n    using CommitManager for CommitManager.CommitState;\n    using Reveal for CoreSetting;\n\n    CoreSetting core;\n    CoreSetting[] oldCores;\n    CoreSetting[] innerCores;\n\n    /// global mutable variables\n    address payable recoveryAddress; // where money will be sent during a recovery process (or when the wallet is beyond its lifespan)\n    bytes public override identificationKey;\n\n    SpendingManager.SpendingState spendingState;\n\n    uint256 public override lastOperationTime; // in seconds; record the time for the last successful reveal\n    address payable forwardAddress; // a non-empty forward address assumes full control of this contract. A forward address can only be set upon a successful recovery or upgrade operation.\n    IONEWallet[] backlinkAddresses; // to be set in next version - these are addresses forwarding funds and tokens to this contract AND must have their forwardAddress updated if this contract's forwardAddress is set or updated. One example of such an address is a previous version of the wallet \"upgrading\" to a new version. See more at https://github.com/polymorpher/one-wallet/issues/78\n\n    /// commit management\n    CommitManager.CommitState commitState;\n    SignatureManager.SignatureTracker signatures;\n\n    bool initialized = false;\n\n    function initialize(InitParams memory initParams) override external\n    {\n        require(!initialized);\n        for (uint32 i = 0; i < initParams.oldCores.length; i++) {\n            oldCores.push(initParams.oldCores[i]);\n        }\n        for (uint32 i = 0; i < initParams.innerCores.length; i++) {\n            innerCores.push(initParams.innerCores[i]);\n        }\n        core = initParams.core;\n        spendingState = initParams.spendingState;\n        recoveryAddress = initParams.recoveryAddress;\n        backlinkAddresses = initParams.backlinkAddresses;\n        identificationKey = initParams.identificationKey;\n        initialized = true;\n    }\n\n    function _getForwardAddress() internal override view returns (address payable){\n        return forwardAddress;\n    }\n\n    function getForwardAddress() external override view returns (address payable){\n        return forwardAddress;\n    }\n\n    function _forwardPayment() internal {\n        (bool success,) = forwardAddress.call{value : msg.value}(\"\");\n        require(success);\n        emit PaymentForwarded(msg.value, msg.sender);\n    }\n\n    receive() external payable {\n        require(initialized);\n        if (forwardAddress != address(0)) {// this wallet already has a forward address set - standard recovery process should not apply\n            if (forwardAddress == recoveryAddress) {// in this case, funds should be forwarded to forwardAddress no matter what\n                _forwardPayment();\n                return;\n            }\n            if (msg.sender == recoveryAddress) {// this case requires special handling\n                if (msg.value == Recovery.AUTO_RECOVERY_TRIGGER_AMOUNT) {// in this case, send funds to recovery address and reclaim forwardAddress to recovery address\n                    _forward(recoveryAddress);\n                    _recover();\n                    return;\n                }\n                // any other amount is deemed to authorize withdrawal of all funds to forwardAddress\n                _overrideRecoveryAddress();\n                _recover();\n                return;\n            }\n            // if sender is anyone else (including self), simply forward the payment\n            _forwardPayment();\n            return;\n        }\n        if (msg.value != Recovery.AUTO_RECOVERY_TRIGGER_AMOUNT) {\n            return;\n        }\n        if (msg.sender != recoveryAddress) {\n            return;\n        }\n        if (msg.sender == address(this)) {\n            return;\n        }\n        if (block.timestamp < lastOperationTime + Recovery.AUTO_RECOVERY_MANDATORY_WAIT_TIME) {\n            emit AutoRecoveryTriggeredPrematurely(msg.sender, lastOperationTime + Recovery.AUTO_RECOVERY_MANDATORY_WAIT_TIME);\n            return;\n        }\n        emit AutoRecoveryTriggered(msg.sender);\n        require(_drain());\n    }\n\n    function retire() external override returns (bool)\n    {\n        require(uint32(block.timestamp / core.interval) - core.t0 > core.lifespan);\n        require(Recovery.isRecoveryAddressSet(recoveryAddress));\n        require(_drain());\n        emit Retired();\n        return true;\n    }\n\n    function getInfo() external override view returns (bytes32, uint8, uint8, uint32, uint32, uint8, address, uint256){\n        return (core.root, core.height, core.interval, core.t0, core.lifespan, core.maxOperationsPerInterval, recoveryAddress, 0);\n    }\n\n    function getOldInfos() external override view returns (CoreSetting[] memory){\n        return oldCores;\n    }\n\n    function getRootKey() external override view returns (bytes32){\n        if (oldCores.length > 0) {\n            return oldCores[0].root;\n        }\n        return core.root;\n    }\n\n    function getVersion() external override pure returns (uint32, uint32){\n        return (Version.majorVersion, Version.minorVersion);\n    }\n\n    function getSpendingState() external override view returns (SpendingManager.SpendingState memory){\n        return spendingState;\n    }\n\n    function getNonce() external override view returns (uint8){\n        return commitState.getNonce(core.interval);\n    }\n\n    function getTrackedTokens() external override view returns (Enums.TokenType[] memory, address[] memory, uint256[] memory){\n        return tokenTrackerState.getTrackedTokens();\n    }\n\n    function getBalance(Enums.TokenType tokenType, address contractAddress, uint256 tokenId) external override view returns (uint256){\n        (uint256 balance, bool success, string memory reason) = TokenTracker.getBalance(tokenType, contractAddress, tokenId);\n        require(success, reason);\n        return balance;\n    }\n\n    function getAllCommits() external override view returns (bytes32[] memory, bytes32[] memory, bytes32[] memory, uint32[] memory, bool[] memory){\n        return commitState.getAllCommits();\n    }\n\n\n    function lookupCommit(bytes32 hash) external override view returns (bytes32[] memory, bytes32[] memory, bytes32[] memory, uint32[] memory, bool[] memory){\n        return commitState.lookupCommit(hash);\n    }\n\n    function commit(bytes32 hash, bytes32 paramsHash, bytes32 verificationHash) external override {\n        require(initialized);\n        commitState.commit(hash, paramsHash, verificationHash);\n    }\n\n    /// require approval using recovery cores, unless recovery address is set\n    function _forward(address payable dest) internal {\n        if (address(forwardAddress) == address(this) || dest == address(0)) {\n            emit ForwardAddressInvalid(dest);\n            return;\n        }\n        // TODO: in the next version, add a flag in the parameter indicating whether the operation is from the forwardAddress. If the flag is set, skip the check below\n        //        if (forwardAddress != address(0)) {\n        //            if (!_isRecoveryAddressSet() || dest != recoveryAddress) {\n        //                emit ForwardAddressAlreadySet(dest);\n        //                return;\n        //            }\n        //        }\n        forwardAddress = dest;\n        emit ForwardAddressUpdated(dest);\n        if (!Recovery.isRecoveryAddressSet(recoveryAddress)) {\n            // Under this condition, the authentication would be done through recovery cores. Therefore, we can transfer all assets without violating the principal that no operation should spend more than what is specified in spend limit\n            _setRecoveryAddress(forwardAddress);\n            bool drainSuccess = _drain();\n            emit ForwardedBalance(drainSuccess);\n        } else {\n            // Under this condition, the authentication is done through regular cores (oldCores + core). Only assets within spend limit should be transferred. Transfer of the rest should be approved by recovery address (sending 0.1 ONE)\n            uint256 budget = spendingState.getRemainingAllowance();\n            _transfer(forwardAddress, budget);\n            tokenTrackerState.recoverAllTokens(dest);\n        }\n        backlinkAddresses.batchUpdateForwardAddress(dest);\n    }\n\n    /// This function sends all remaining funds and tokens in the wallet to `recoveryAddress`. The caller should verify that `recoveryAddress` is not null.\n    function _drain() internal returns (bool) {\n        // this may be triggered after revealing the proof, and we must prevent revert in all cases\n        (bool success,) = recoveryAddress.call{value : address(this).balance}(\"\");\n        if (success) {\n            forwardAddress = recoveryAddress;\n            tokenTrackerState.recoverAllTokens(recoveryAddress);\n        }\n        return success;\n    }\n\n    function _transfer(address payable dest, uint256 amount) internal returns (bool) {\n        bool canSpend = spendingState.canSpend(dest, amount);\n        if (!canSpend) {\n            return false;\n        }\n        spendingState.accountSpending(amount);\n        (bool success, bytes memory ret) = dest.call{value : amount}(\"\");\n        // we do not want to revert the whole transaction if this operation fails, since EOTP is already revealed\n        if (!success) {\n            spendingState.spentAmount -= amount;\n            emit TransferError(dest, ret);\n            return false;\n        }\n        emit PaymentSent(amount, dest);\n        return true;\n    }\n\n    /// To initiate recovery, client should submit leaf_{-1} as eotp, where leaf_{-1} is the last leaf in OTP Merkle Tree. Note that leaf_0 = hasher(hseed . nonce . OTP . randomness) where hasher is either sha256 or argon2, depending on client's security parameters. The definition of leaf_{-1} ensures attackers cannot use widespread miners to brute-force for seed or hseed, even if keccak256(leaf_{i}) for any i is known. It has been considered that leaf_0 should be used instead of leaf_{-1}, because leaf_0 is extremely unlikely to be used for any wallet operation. It is only used if the user performs any operation within the first 60 seconds of seed generation (when QR code is displayed). Regardless of which leaf is used to trigger recovery, this mechanism ensures hseed remains secret at the client. Even when the leaf becomes public (on blockchain), it is no longer useful because the wallet would already be deprecated (all assets transferred out). It can be used to repeatedly trigger recovery on this deprecated wallet, but that would cause no harm.\n    function _recover() internal returns (bool){\n        if (!Recovery.isRecoveryAddressSet(recoveryAddress)) {\n            emit LastResortAddressNotSet();\n            return false;\n        }\n        if (recoveryAddress == address(this)) {// this should not happen unless recoveryAddress is set at contract creation time, and is deliberately set to contract's own address\n            // nothing needs to be done;\n            return true;\n        }\n        if (!_drain()) {\n            emit RecoveryFailure();\n            return false;\n        }\n        emit RecoveryTriggered();\n        return true;\n    }\n\n    function _overrideRecoveryAddress() internal {\n        recoveryAddress = forwardAddress;\n        emit RecoveryAddressUpdated(recoveryAddress);\n    }\n\n    function _setRecoveryAddress(address payable recoveryAddress_) internal {\n        if (Recovery.isRecoveryAddressSet(recoveryAddress) || recoveryAddress_ == address(this)) {\n            emit RecoveryAddressUpdated(address(0));\n            return;\n        }\n        recoveryAddress = recoveryAddress_;\n        emit RecoveryAddressUpdated(recoveryAddress);\n    }\n\n    function _batch(bytes memory data) internal {\n        OperationParams[] memory batchParams = abi.decode(data, (OperationParams[]));\n        uint8 len = uint8(batchParams.length);\n        for (uint32 i = 0; i < len; i++) {\n            _execute(batchParams[i]);\n        }\n    }\n\n    function reveal(AuthParams calldata auth, OperationParams calldata op) external override {\n        require(initialized);\n        if (msg.sender != forwardAddress) {\n            core.authenticate(oldCores, innerCores, recoveryAddress, commitState, auth, op);\n            lastOperationTime = block.timestamp;\n        }\n        _execute(op);\n    }\n\n    function _execute(OperationParams memory op) internal {\n        // No revert should occur below this point\n        if (op.operationType == Enums.OperationType.TRANSFER) {\n            _transfer(op.dest, op.amount);\n        } else if (op.operationType == Enums.OperationType.RECOVER) {\n            _recover();\n        } else if (op.operationType == Enums.OperationType.SET_RECOVERY_ADDRESS) {\n            _setRecoveryAddress(op.dest);\n        } else if (op.operationType == Enums.OperationType.FORWARD) {\n            _forward(op.dest);\n        } else if (op.operationType == Enums.OperationType.CALL) {\n            if (op.tokenId == 0) {\n                _callContract(op.contractAddress, op.amount, op.data);\n            } else {\n                _multiCall(op.data);\n            }\n        } else if (op.operationType == Enums.OperationType.DISPLACE) {\n            CoreManager.displace(oldCores, innerCores, core, op.data, forwardAddress);\n        } else if (op.operationType == Enums.OperationType.BATCH) {\n            _batch(op.data);\n        } else {\n            Executor.execute(op, tokenTrackerState, backlinkAddresses, signatures, spendingState);\n        }\n    }\n\n    function getBacklinks() external override view returns (IONEWallet[] memory){\n        return backlinkAddresses;\n    }\n\n    function _callContract(address contractAddress, uint256 amount, bytes memory encodedWithSignature) internal {\n        bool canSpend = spendingState.canSpend(contractAddress, amount);\n        if (!canSpend) {\n            emit ExternalCallFailed(contractAddress, amount, encodedWithSignature, \"\");\n            return;\n        }\n        spendingState.accountSpending(amount);\n        (bool success, bytes memory ret) = contractAddress.call{value : amount}(encodedWithSignature);\n        if (success) {\n            emit ExternalCallCompleted(contractAddress, amount, encodedWithSignature, ret);\n        } else {\n            spendingState.spentAmount -= amount;\n            emit ExternalCallFailed(contractAddress, amount, encodedWithSignature, ret);\n        }\n    }\n\n    function _multiCall(bytes memory data) internal {\n        (address[] memory dest, uint256[] memory amounts, bytes[] memory encoded) = abi.decode(data, (address[], uint256[], bytes[]));\n        uint256 totalAmount = 0;\n        for (uint32 i = 0; i < amounts.length; i++) {\n            totalAmount += amounts[i];\n        }\n        if (!spendingState.canSpend(address(0), totalAmount)) {\n            return;\n        }\n        for (uint32 i = 0; i < dest.length; i++) {\n            _callContract(dest[i], amounts[i], encoded[i]);\n        }\n    }\n\n    function supportsInterface(bytes4 interfaceId) public override pure returns (bool) {\n        return interfaceId == this.isValidSignature.selector || TokenManager.supportsInterface(interfaceId);\n    }\n\n    function isValidSignature(bytes32 hash, bytes memory signatureBytes) override public view returns (bytes4){\n        return signatures.isValidSignature(hash, signatureBytes);\n    }\n\n    function listSignatures(uint32 start, uint32 end) external override view returns (bytes32[] memory, bytes32[] memory, uint32[] memory, uint32[] memory){\n        return signatures.list(start, end);\n    }\n\n    function lookupSignature(bytes32 hash) external override view returns (bytes32, uint32, uint32){\n        return signatures.lookup(hash);\n    }\n\n}\n",
  "sourcePath": "/Users/polymorpher/git/one-wallet/code/contracts/ONEWallet.sol",
  "compiler": {
    "name": "solc",
    "version": "0.8.4+commit.c7e474f2.Emscripten.clang"
  },
  "schemaVersion": "3.4.2",
  "updatedAt": "2021-11-15T08:53:03.282Z",
  "devdoc": {
    "kind": "dev",
    "methods": {
      "onERC1155BatchReceived(address,address,uint256[],uint256[],bytes)": {
        "details": "Handles the receipt of a multiple ERC1155 token types. This function is called at the end of a `safeBatchTransferFrom` after the balances have been updated. To accept the transfer(s), this must return `bytes4(keccak256(\"onERC1155BatchReceived(address,address,uint256[],uint256[],bytes)\"))` (i.e. 0xbc197c81, or its own function selector).",
        "params": {
          "data": "Additional data with no specified format",
          "from": "The address which previously owned the token",
          "ids": "An array containing ids of each token being transferred (order and length must match values array)",
          "operator": "The address which initiated the batch transfer (i.e. msg.sender)",
          "values": "An array containing amounts of each token being transferred (order and length must match ids array)"
        },
        "returns": {
          "_0": "`bytes4(keccak256(\"onERC1155BatchReceived(address,address,uint256[],uint256[],bytes)\"))` if transfer is allowed"
        }
      },
      "onERC1155Received(address,address,uint256,uint256,bytes)": {
        "details": "Handles the receipt of a single ERC1155 token type. This function is called at the end of a `safeTransferFrom` after the balance has been updated. To accept the transfer, this must return `bytes4(keccak256(\"onERC1155Received(address,address,uint256,uint256,bytes)\"))` (i.e. 0xf23a6e61, or its own function selector).",
        "params": {
          "data": "Additional data with no specified format",
          "from": "The address which previously owned the token",
          "id": "The ID of the token being transferred",
          "operator": "The address which initiated the transfer (i.e. msg.sender)",
          "value": "The amount of tokens being transferred"
        },
        "returns": {
          "_0": "`bytes4(keccak256(\"onERC1155Received(address,address,uint256,uint256,bytes)\"))` if transfer is allowed"
        }
      },
      "onERC721Received(address,address,uint256,bytes)": {
        "details": "Whenever an {IERC721} `tokenId` token is transferred to this contract via {IERC721-safeTransferFrom} by `operator` from `from`, this function is called. It must return its Solidity selector to confirm the token transfer. If any other value is returned or the interface is not implemented by the recipient, the transfer will be reverted. The selector can be obtained in Solidity with `IERC721.onERC721Received.selector`."
      }
    },
    "version": 1
  },
  "userdoc": {
    "kind": "user",
    "methods": {
      "findCommit(bytes32)": {
        "notice": "DEPRECATED"
      },
      "getCommits()": {
        "notice": "DEPRECATED"
      }
    },
    "version": 1
  }
}