{
  "contractName": "ONEWalletFactoryHelper",
  "abi": [
    {
      "inputs": [
        {
          "internalType": "contract ONEWalletFactory",
          "name": "factory_",
          "type": "address"
        }
      ],
      "stateMutability": "nonpayable",
      "type": "constructor"
    },
    {
      "inputs": [],
      "name": "factory",
      "outputs": [
        {
          "internalType": "contract ONEWalletFactory",
          "name": "",
          "type": "address"
        }
      ],
      "stateMutability": "view",
      "type": "function"
    },
    {
      "inputs": [],
      "name": "getVersion",
      "outputs": [
        {
          "internalType": "uint32",
          "name": "",
          "type": "uint32"
        },
        {
          "internalType": "uint32",
          "name": "",
          "type": "uint32"
        }
      ],
      "stateMutability": "pure",
      "type": "function"
    },
    {
      "inputs": [
        {
          "components": [
            {
              "components": [
                {
                  "internalType": "bytes32",
                  "name": "root",
                  "type": "bytes32"
                },
                {
                  "internalType": "uint8",
                  "name": "height",
                  "type": "uint8"
                },
                {
                  "internalType": "uint8",
                  "name": "interval",
                  "type": "uint8"
                },
                {
                  "internalType": "uint32",
                  "name": "t0",
                  "type": "uint32"
                },
                {
                  "internalType": "uint32",
                  "name": "lifespan",
                  "type": "uint32"
                },
                {
                  "internalType": "uint8",
                  "name": "maxOperationsPerInterval",
                  "type": "uint8"
                }
              ],
              "internalType": "struct IONEWallet.CoreSetting",
              "name": "core",
              "type": "tuple"
            },
            {
              "components": [
                {
                  "internalType": "uint256",
                  "name": "spendingLimit",
                  "type": "uint256"
                },
                {
                  "internalType": "uint256",
                  "name": "spentAmount",
                  "type": "uint256"
                },
                {
                  "internalType": "uint32",
                  "name": "lastSpendingInterval",
                  "type": "uint32"
                },
                {
                  "internalType": "uint32",
                  "name": "spendingInterval",
                  "type": "uint32"
                },
                {
                  "internalType": "uint32",
                  "name": "lastLimitAdjustmentTime",
                  "type": "uint32"
                },
                {
                  "internalType": "uint256",
                  "name": "initialSpendingLimit",
                  "type": "uint256"
                },
                {
                  "internalType": "uint256",
                  "name": "highestSpendingLimit",
                  "type": "uint256"
                }
              ],
              "internalType": "struct SpendingManager.SpendingState",
              "name": "spendingState",
              "type": "tuple"
            },
            {
              "internalType": "address payable",
              "name": "recoveryAddress",
              "type": "address"
            },
            {
              "internalType": "bytes32",
              "name": "identificationHash",
              "type": "bytes32"
            },
            {
              "internalType": "contract IONEWallet[]",
              "name": "backlinkAddresses",
              "type": "address[]"
            },
            {
              "components": [
                {
                  "internalType": "bytes32",
                  "name": "root",
                  "type": "bytes32"
                },
                {
                  "internalType": "uint8",
                  "name": "height",
                  "type": "uint8"
                },
                {
                  "internalType": "uint8",
                  "name": "interval",
                  "type": "uint8"
                },
                {
                  "internalType": "uint32",
                  "name": "t0",
                  "type": "uint32"
                },
                {
                  "internalType": "uint32",
                  "name": "lifespan",
                  "type": "uint32"
                },
                {
                  "internalType": "uint8",
                  "name": "maxOperationsPerInterval",
                  "type": "uint8"
                }
              ],
              "internalType": "struct IONEWallet.CoreSetting[]",
              "name": "oldCores",
              "type": "tuple[]"
            },
            {
              "components": [
                {
                  "internalType": "bytes32",
                  "name": "root",
                  "type": "bytes32"
                },
                {
                  "internalType": "uint8",
                  "name": "height",
                  "type": "uint8"
                },
                {
                  "internalType": "uint8",
                  "name": "interval",
                  "type": "uint8"
                },
                {
                  "internalType": "uint32",
                  "name": "t0",
                  "type": "uint32"
                },
                {
                  "internalType": "uint32",
                  "name": "lifespan",
                  "type": "uint32"
                },
                {
                  "internalType": "uint8",
                  "name": "maxOperationsPerInterval",
                  "type": "uint8"
                }
              ],
              "internalType": "struct IONEWallet.CoreSetting[]",
              "name": "innerCores",
              "type": "tuple[]"
            }
          ],
          "internalType": "struct IONEWallet.InitParams",
          "name": "args",
          "type": "tuple"
        }
      ],
      "name": "deploy",
      "outputs": [
        {
          "internalType": "address",
          "name": "",
          "type": "address"
        }
      ],
      "stateMutability": "payable",
      "type": "function"
    },
    {
      "inputs": [
        {
          "internalType": "bytes32",
          "name": "identificationHash",
          "type": "bytes32"
        }
      ],
      "name": "predict",
      "outputs": [
        {
          "internalType": "address",
          "name": "",
          "type": "address"
        }
      ],
      "stateMutability": "view",
      "type": "function"
    },
    {
      "inputs": [
        {
          "internalType": "contract IONEWallet",
          "name": "addr",
          "type": "address"
        }
      ],
      "name": "verify",
      "outputs": [
        {
          "internalType": "bool",
          "name": "",
          "type": "bool"
        }
      ],
      "stateMutability": "view",
      "type": "function"
    }
  ],
  "bytecode": "0x6080604052600080546001600160a01b031916905534801561002057600080fd5b50604051610d36380380610d3683398101604081905261003f91610064565b600080546001600160a01b0319166001600160a01b0392909216919091179055610092565b600060208284031215610075578081fd5b81516001600160a01b038116811461008b578182fd5b9392505050565b610c95806100a16000396000f3fe60806040526004361061004a5760003560e01c80630d8e6e2c1461004f5780630e787cce1461007657806315bfcdfd146100ae57806363a9c3d7146100c1578063c45a0155146100f1575b600080fd5b34801561005b57600080fd5b5060408051600f815260016020820152015b60405180910390f35b34801561008257600080fd5b506100966100913660046107ba565b610111565b6040516001600160a01b03909116815260200161006d565b6100966100bc366004610896565b61022f565b3480156100cd57600080fd5b506100e16100dc36600461087a565b6103c9565b604051901515815260200161006d565b3480156100fd57600080fd5b50600054610096906001600160a01b031681565b60008060009054906101000a90046001600160a01b03166001600160a01b03166322aa763373__ONEWalletCodeHelper___________________6324c12bf66040518163ffffffff1660e01b815260040160006040518083038186803b15801561017a57600080fd5b505af415801561018e573d6000803e3d6000fd5b505050506040513d6000823e601f3d908101601f191682016040526101b691908101906107ea565b6040516001600160e01b031960e084901b1681526101d991908690600401610a55565b60206040518083038186803b1580156101f157600080fd5b505afa158015610205573d6000803e3d6000fd5b505050506040513d601f19601f820116820180604052508101906102299190610797565b92915050565b60008060008054906101000a90046001600160a01b03166001600160a01b0316639c4ae2d03473__ONEWalletCodeHelper___________________6324c12bf66040518163ffffffff1660e01b815260040160006040518083038186803b15801561029957600080fd5b505af41580156102ad573d6000803e3d6000fd5b505050506040513d6000823e601f3d908101601f191682016040526102d591908101906107ea565b60608701516040516001600160e01b031960e086901b1681526102fc929190600401610a55565b6020604051808303818588803b15801561031557600080fd5b505af1158015610329573d6000803e3d6000fd5b50505050506040513d601f19601f8201168201806040525081019061034e9190610797565b90506001600160a01b0381166103645792915050565b6040516303a8fdfb60e61b81526001600160a01b0382169063ea3f7ec090610390908690600401610a90565b600060405180830381600087803b1580156103aa57600080fd5b505af11580156103be573d6000803e3d6000fd5b509295945050505050565b60008060008054906101000a90046001600160a01b03166001600160a01b03166322aa763373__ONEWalletCodeHelper___________________6324c12bf66040518163ffffffff1660e01b815260040160006040518083038186803b15801561043257600080fd5b505af4158015610446573d6000803e3d6000fd5b505050506040513d6000823e601f3d908101601f1916820160405261046e91908101906107ea565b856001600160a01b031663db582c7e6040518163ffffffff1660e01b815260040160206040518083038186803b1580156104a757600080fd5b505afa1580156104bb573d6000803e3d6000fd5b505050506040513d601f19601f820116820180604052508101906104df91906107d2565b6040516001600160e01b031960e085901b168152610501929190600401610a55565b60206040518083038186803b15801561051957600080fd5b505afa15801561052d573d6000803e3d6000fd5b505050506040513d601f19601f820116820180604052508101906105519190610797565b6001600160a01b0390811693169290921492915050565b803561057381610c47565b919050565b600082601f830112610588578081fd5b8135602061059d61059883610bdd565b610bac565b80838252828201915082860187848660051b89010111156105bc578586fd5b855b858110156105e35781356105d181610c47565b845292840192908401906001016105be565b5090979650505050505050565b600082601f830112610600578081fd5b8135602061061061059883610bdd565b8281528181019085830160c08086028801850189101561062e578687fd5b865b86811015610654576106428a84610662565b85529385019391810191600101610630565b509198975050505050505050565b600060c08284031215610673578081fd5b60405160c0810181811067ffffffffffffffff8211171561069657610696610c31565b604052823581529050806106ac60208401610786565b60208201526106bd60408401610786565b60408201526106ce60608401610772565b60608201526106df60808401610772565b60808201526106f060a08401610786565b60a08201525092915050565b600060e0828403121561070d578081fd5b610715610b83565b9050813581526020820135602082015261073160408301610772565b604082015261074260608301610772565b606082015261075360808301610772565b608082015260a082013560a082015260c082013560c082015292915050565b803563ffffffff8116811461057357600080fd5b803560ff8116811461057357600080fd5b6000602082840312156107a8578081fd5b81516107b381610c47565b9392505050565b6000602082840312156107cb578081fd5b5035919050565b6000602082840312156107e3578081fd5b5051919050565b6000602082840312156107fb578081fd5b815167ffffffffffffffff80821115610812578283fd5b818401915084601f830112610825578283fd5b81518181111561083757610837610c31565b61084a601f8201601f1916602001610bac565b9150808252856020828501011115610860578384fd5b610871816020840160208601610c01565b50949350505050565b60006020828403121561088b578081fd5b81356107b381610c47565b6000602082840312156108a7578081fd5b813567ffffffffffffffff808211156108be578283fd5b9083019061024082860312156108d2578283fd5b6108da610b83565b6108e48684610662565b81526108f38660c085016106fc565b60208201526109056101a08401610568565b60408201526101c083013560608201526101e083013582811115610927578485fd5b61093387828601610578565b6080830152506102008301358281111561094b578485fd5b610957878286016105f0565b60a0830152506102208301358281111561096f578485fd5b61097b878286016105f0565b60c08301525095945050505050565b6000815180845260208085019450808401835b838110156109c25781516001600160a01b03168752958201959082019060010161099d565b509495945050505050565b6000815180845260208085019450808401835b838110156109c2576109f3878351610a06565b60c09690960195908201906001016109e0565b8051825260ff602082015116602083015260ff6040820151166040830152606081015163ffffffff8082166060850152806080840151166080850152505060ff60a08201511660a08301525050565b6040815260008351806040840152610a74816060850160208801610c01565b602083019390935250601f91909101601f191601606001919050565b60208152610aa2602082018351610a06565b602082810151805160e084015290810151610100830152604081015163ffffffff9081166101208401526060820151811661014084015260808201511661016083015260a081015161018083015260c08101516101a08301526000905060408301516001600160a01b0381166101c08401525060608301516101e0830152608083015161024080610200850152610b3d61026085018361098a565b915060a0850151601f198086850301610220870152610b5c84836109cd565b935060c0870151915080868503018387015250610b7983826109cd565b9695505050505050565b60405160e0810167ffffffffffffffff81118282101715610ba657610ba6610c31565b60405290565b604051601f8201601f1916810167ffffffffffffffff81118282101715610bd557610bd5610c31565b604052919050565b600067ffffffffffffffff821115610bf757610bf7610c31565b5060051b60200190565b60005b83811015610c1c578181015183820152602001610c04565b83811115610c2b576000848401525b50505050565b634e487b7160e01b600052604160045260246000fd5b6001600160a01b0381168114610c5c57600080fd5b5056fea26469706673582212202d3b0ac85f4ce3efdcc3164e884e8349a0eebafd3b90becba6d2f6eadf179cc764736f6c63430008040033",
  "immutableReferences": {},
  "source": "// SPDX-License-Identifier: Apache-2.0\npragma solidity ^0.8.4;\n\nimport \"./ONEWallet.sol\";\nimport \"./IONEWallet.sol\";\nimport \"./Factory.sol\";\nimport \"./Version.sol\";\n\nlibrary ONEWalletCodeHelper {\n    function code() pure public returns (bytes memory){\n        return type(ONEWallet).creationCode;\n    }\n}\n\ncontract ONEWalletFactoryHelper {\n    ONEWalletFactory public factory = ONEWalletFactory(address(0));\n    constructor(ONEWalletFactory factory_){\n        factory = factory_;\n    }\n    function getVersion() public pure returns (uint32, uint32){\n        return (Version.majorVersion, Version.minorVersion);\n    }\n    function deploy(IONEWallet.InitParams memory args) payable public returns (address){\n        // ONEWallet has no constructor argument since v15\n        address addr = factory.deploy{value : msg.value}(ONEWalletCodeHelper.code(), uint256(args.identificationHash));\n        if (addr == address(0)) {\n            return addr;\n        }\n        IONEWallet(addr).initialize(args);\n        return addr;\n    }\n\n    function predict(bytes32 identificationHash) public view returns (address){\n        return factory.predict(ONEWalletCodeHelper.code(), uint256(identificationHash));\n    }\n\n    function verify(IONEWallet addr) public view returns (bool){\n        address predictedAddress = factory.predict(ONEWalletCodeHelper.code(), uint256(addr.identificationHash()));\n        return predictedAddress == address(addr);\n    }\n}\n",
  "sourcePath": "/Users/polymorpher/git/one-wallet/code/contracts/FactoryHelper.sol",
  "compiler": {
    "name": "solc",
    "version": "0.8.4+commit.c7e474f2.Emscripten.clang"
  },
  "schemaVersion": "3.4.2",
  "updatedAt": "2021-11-14T13:20:53.817Z",
  "devdoc": {
    "kind": "dev",
    "methods": {},
    "version": 1
  },
  "userdoc": {
    "kind": "user",
    "methods": {},
    "version": 1
  }
}