{
  "contractName": "ONEWalletCodeHelper",
  "abi": [
    {
      "inputs": [],
      "name": "code",
      "outputs": [
        {
          "internalType": "bytes",
          "name": "",
          "type": "bytes"
        }
      ],
      "stateMutability": "pure",
      "type": "function"
    }
  ],
  "bytecode": "0x61456d61003a600b82828239805160001a60731461002d57634e487b7160e01b600052600060045260246000fd5b30600052607381538281f3fe73000000000000000000000000000000000000000030146080604052600436106100355760003560e01c806324c12bf61461003a575b600080fd5b610042610058565b60405161004f919061008f565b60405180910390f35b60606040518060200161006a90610082565b601f1982820381018352601f90910116604052919050565b614455806100e383390190565b6000602080835283518082850152825b818110156100bb5785810183015185820160400152820161009f565b818111156100cc5783604083870101525b50601f01601f191692909201604001939250505056fe60806040526016805460ff1916905534801561001a57600080fd5b5061442b8061002a6000396000f3fe6080604052600436106101d15760003560e01c806358cab0c5116100f7578063b1ccfccc11610095578063d87458a311610064578063d87458a314610888578063db582c7e146108a8578063e4e5b258146108be578063f23a6e61146108de57600080fd5b8063b1ccfccc14610804578063bc197c8114610826578063c34a6dad14610846578063d087d2881461086157600080fd5b806391df0925116100d157806391df092514610767578063a17027e1146107a9578063a4874d77146107cf578063a6b920b6146107e457600080fd5b806358cab0c5146106a35780635a9b0b89146106c3578063695def4c1461074357600080fd5b80632293d3fb1161016f5780633f079ab81161013e5780633f079ab81461060957806341a6487814610629578063424c511014610651578063496018af1461068157600080fd5b80632293d3fb1461048a5780632f1f7520146104b4578063318c728c146104d9578063396ec5f4146105c857600080fd5b8063150b7a02116101ab578063150b7a02146103cd5780631626ba7e1461040657806316d43a97146104265780631cf4ea051461043c57600080fd5b806301ffc9a71461035357806304013239146103885780630d8e6e2c146103ab57600080fd5b3661034e5760165460ff166101e557600080fd5b600d546001600160a01b03161561026c57600654600d546001600160a01b0390811691161415610219576102176108fe565b005b6006546001600160a01b031633141561026457670de0b6b3a764000034141561025c57600654610251906001600160a01b031661099a565b610259610c4e565b50005b610251610d1c565b6102176108fe565b670de0b6b3a7640000341461027d57005b6006546001600160a01b0316331461029157005b3330141561029b57005b62127500600c546102ac91906141ee565b42101561030a577fe58fb6bc612703a64f091af2ff6a6831eca838a0301129ab6879cab20d6d7c8c3362127500600c546102e691906141ee565b604080516001600160a01b03909316835260208301919091520160405180910390a1005b6040513381527f0cbe1fea4becf04af2176bbef0c9c53d439d30a05a197aacc38bb4a2873222e39060200160405180910390a1610345610d72565b61021757600080fd5b600080fd5b34801561035f57600080fd5b5061037361036e366004613635565b610e64565b60405190151581526020015b60405180910390f35b34801561039457600080fd5b5061039d610e8f565b60405190815260200161037f565b3480156103b757600080fd5b5060408051600f8152600160208201520161037f565b3480156103d957600080fd5b506103ed6103e8366004612ef7565b610eda565b6040516001600160e01b0319909116815260200161037f565b34801561041257600080fd5b506103ed6104213660046135af565b611053565b34801561043257600080fd5b5061039d600c5481565b34801561044857600080fd5b5061045c61045736600461356c565b6110e9565b60405161037f9493929190938452602084019290925263ffffffff1660408301521515606082015260800190565b34801561049657600080fd5b5061049f6110f4565b6040805192835260208301919091520161037f565b3480156104c057600080fd5b506104c96110fc565b60405161037f9493929190613c5a565b3480156104e557600080fd5b5061056e6040805160c081018252600080825260208201819052918101829052606081018290526080810182905260a0810191909152506040805160c08101825260085481526009546020820152600a5463ffffffff80821693830193909352640100000000810483166060830152600160401b90049091166080820152600b5460a082015290565b60405161037f9190600060c0820190508251825260208301516020830152604083015163ffffffff8082166040850152806060860151166060850152806080860151166080850152505060a083015160a083015292915050565b3480156105d457600080fd5b506105dd6110e9565b60408051948552602085019390935263ffffffff9182169284019290925216606082015260800161037f565b34801561061557600080fd5b506102176106243660046136ad565b611107565b34801561063557600080fd5b50600d546040516001600160a01b03909116815260200161037f565b34801561065d57600080fd5b5061067161066c366004613882565b6111c5565b60405161037f9493929190613ca7565b34801561068d57600080fd5b50610696611279565b60405161037f9190613cf4565b3480156106af57600080fd5b506102176106be36600461371a565b6112db565b3480156106cf57600080fd5b506002546003546006546040805193845260ff808416602086015261010080850482169286019290925263ffffffff62010000850481166060870152600160301b8504166080860152600160501b90930490921660a08401526001600160a01b031660c0830152600060e08301520161037f565b34801561074f57600080fd5b5061075861164c565b60405161037f93929190613d41565b34801561077357600080fd5b5061078761078236600461356c565b6116e5565b6040805193845263ffffffff928316602085015291169082015260600161037f565b3480156107b557600080fd5b506107be611783565b60405161037f959493929190613bf9565b3480156107db57600080fd5b50610373611826565b3480156107f057600080fd5b5061039d6107ff36600461366d565b6118d0565b34801561081057600080fd5b506108196119a0565b60405161037f9190613dd2565b34801561083257600080fd5b506103ed610841366004612e3d565b611a4d565b34801561085257600080fd5b5061021761034e3660046130d4565b34801561086d57600080fd5b50610876611b5f565b60405160ff909116815260200161037f565b34801561089457600080fd5b506107be6108a336600461356c565b611bfb565b3480156108b457600080fd5b5061039d60075481565b3480156108ca57600080fd5b506102176108d9366004613584565b611ca6565b3480156108ea57600080fd5b506103ed6108f9366004612f67565b611d32565b600d546040516000916001600160a01b03169034908381818185875af1925050503d806000811461094b576040519150601f19603f3d011682016040523d82523d6000602084013e610950565b606091505b505090508061095e57600080fd5b604080513481523360208201527f6e8641fc34fdcf9d67683d1a8ced72ff01d27ff86ff3b1d338fa6165e496c73f91015b60405180910390a150565b600d546001600160a01b03163014806109ba57506001600160a01b038116155b156109f8576040516001600160a01b03821681527f81a6b37eeab97da1bb7ac3b3e34fcee45f445c8de943999917a6fe95ed7fa7879060200161098f565b600d80546001600160a01b0319166001600160a01b0383169081179091556040519081527fa706c3d6ff18ff7dfc1ee0a34bc34fe432c200d8d475bff3ed963eb31ae194689060200160405180910390a1600654610a5e906001600160a01b0316611eac565b610ac457600d54610a77906001600160a01b0316611ee8565b6000610a81610d72565b90507f41af6efec37729ca1819094cce85d9ae325b936fda39ac98a58cfcb45d431b4b81604051610ab6911515815260200190565b60405180910390a150610bd8565b60405163c9c80f8f60e01b81526008600482015260009073__SpendingManager_______________________9063c9c80f8f9060240160206040518083038186803b158015610b1257600080fd5b505af4158015610b26573d6000803e3d6000fd5b505050506040513d601f19601f82011682018060405250810190610b4a919061380d565b600d54909150610b63906001600160a01b031682611f94565b5060405163aaf6047360e01b8152600060048201526001600160a01b038316602482015273__TokenTracker__________________________9063aaf604739060440160006040518083038186803b158015610bbe57600080fd5b505af4158015610bd2573d6000803e3d6000fd5b50505050505b604051639cacd87160e01b8152600e60048201526001600160a01b038216602482015273__WalletGraph___________________________90639cacd871906044015b60006040518083038186803b158015610c3357600080fd5b505af4158015610c47573d6000803e3d6000fd5b5050505050565b600654600090610c66906001600160a01b0316611eac565b610c99576040517fc27dbdcf29e2a161f0420d399444129801e578bafe157fef0370098459e082bf90600090a150600090565b6006546001600160a01b0316301415610cb25750600190565b610cba610d72565b610ced576040517fa3a244603d968c02ebd2017f990d4e077cf0381929976be2a0cb07076147a56f90600090a150600090565b6040517f94f696b15fed1e58be1975a224273b56878dda280cb878ec20eb56b6fea7313a90600090a150600190565b600d54600680546001600160a01b0319166001600160a01b0390921691821790556040519081527f83c14e1947c5a639434d6195a6e9d85ab3471a5049c66e0aa46b71e2c0a06dde9060200160405180910390a1565b60065460405160009182916001600160a01b039091169047908381818185875af1925050503d8060008114610dc3576040519150601f19603f3d011682016040523d82523d6000602084013e610dc8565b606091505b505090508015610e5f57600654600d80546001600160a01b0319166001600160a01b03909216918217905560405163aaf6047360e01b815260006004820152602481019190915273__TokenTracker__________________________9063aaf604739060440160006040518083038186803b158015610e4657600080fd5b505af4158015610e5a573d6000803e3d6000fd5b505050505b919050565b60006001600160e01b03198216630b135d3f60e11b1480610e895750610e89826121b7565b92915050565b60045460009015610ed3576004600081548110610ebc57634e487b7160e01b600052603260045260246000fd5b906000526020600020906002020160000154905090565b5060025490565b60007feb7a68d5a205eea79480f44587fe8146ae15b7e92582967fd1b1b119c9b60efa60018087338a898989604051610f1a989796959493929190613ec0565b60405180910390a16000610f36600d546001600160a01b031690565b90506001600160a01b03811615610fcf5760405163c841a9db60e01b815273__TokenTracker__________________________9063c841a9db90610f8e9060009060019033908b90889084908d908d906004016140dc565b60006040518083038186803b158015610fa657600080fd5b505af4158015610fba573d6000803e3d6000fd5b50630a85bd0160e11b945061104a9350505050565b6040516304e9b2db60e31b815273__TokenTracker__________________________9063274d96d89061100e9060009060019033908b906004016140ad565b60006040518083038186803b15801561102657600080fd5b505af415801561103a573d6000803e3d6000fd5b50630a85bd0160e11b9450505050505b95945050505050565b604051634d94f52360e01b815260009073__SignatureManager______________________90634d94f52390611092906013908790879060040161408e565b60206040518083038186803b1580156110aa57600080fd5b505af41580156110be573d6000803e3d6000fd5b505050506040513d601f19601f820116820180604052508101906110e29190613651565b9392505050565b600080600080600080fd5b600080600080fd5b606080606080600080fd5b60165460ff1661111657600080fd5b600d546001600160a01b031633146111b05760065460405163f35664b160e01b815273__Reveal________________________________9163f35664b19161117b916002916004916005916001600160a01b0390911690600f908a908a908601613f31565b60006040518083038186803b15801561119357600080fd5b505af41580156111a7573d6000803e3d6000fd5b505042600c5550505b6111c16111bc82614262565b612208565b5050565b604051630139109f60e31b81526013600482015263ffffffff80841660248301528216604482015260609081908190819073__SignatureManager______________________906309c884f89060640160006040518083038186803b15801561122d57600080fd5b505af4158015611241573d6000803e3d6000fd5b505050506040513d6000823e601f3d908101601f191682016040526112699190810190613284565b9299919850965090945092505050565b6060600e8054806020026020016040519081016040528092919081815260200182805480156112d157602002820191906000526020600020905b81546001600160a01b031681526001909101906020018083116112b3575b5050505050905090565b60165460ff16156112eb57600080fd5b60005b8160a00151518163ffffffff1610156113f25760048260a001518263ffffffff168151811061132d57634e487b7160e01b600052603260045260246000fd5b60209081029190910181015182546001808201855560009485529383902082516002909202019081559181015191909201805460408401516060850151608086015160a09096015160ff95861661ffff1990941693909317610100928616929092029190911769ffffffffffffffff000019166201000063ffffffff9283160263ffffffff60301b191617600160301b91909516029390931760ff60501b1916600160501b9290931691909102919091179055806113ea81614329565b9150506112ee565b5060005b8160c00151518163ffffffff1610156114fa5760058260c001518263ffffffff168151811061143557634e487b7160e01b600052603260045260246000fd5b60209081029190910181015182546001808201855560009485529383902082516002909202019081559181015191909201805460408401516060850151608086015160a09096015160ff95861661ffff1990941693909317610100928616929092029190911769ffffffffffffffff000019166201000063ffffffff9283160263ffffffff60301b191617600160301b91909516029390931760ff60501b1916600160501b9290931691909102919091179055806114f281614329565b9150506113f6565b5080518051600255602080820151600380546040808601516060808801516080808a015160a09a8b015160ff998a1661ffff1990981697909717610100958a16959095029490941769ffffffffffffffff000019166201000063ffffffff9384160263ffffffff60301b191617600160301b948316949094029390931760ff60501b1916600160501b9790951696909602939093179093558487015180516008558086015160095580820151600a8054948301518387015192881667ffffffffffffffff199096169590951764010000000095881695909502949094176bffffffff00000000000000001916600160401b9190961602949094179091559190930151600b55830151600680546001600160a01b0319166001600160a01b0390921691909117905590820151805161163592600e9201906128d4565b50606001516007556016805460ff19166001179055565b604051631d9037a160e11b8152600060048201526060908190819073__TokenTracker__________________________90633b206f429060240160006040518083038186803b15801561169e57600080fd5b505af41580156116b2573d6000803e3d6000fd5b505050506040513d6000823e601f3d908101601f191682016040526116da919081019061332b565b925092509250909192565b604051635107e51560e11b815260136004820152602481018290526000908190819073__SignatureManager______________________9063a20fca2a9060440160606040518083038186803b15801561173e57600080fd5b505af4158015611752573d6000803e3d6000fd5b505050506040513d601f19601f8201168201806040525081019061177691906135f3565b9250925092509193909250565b60405163732d1f0f60e01b8152600f6004820152606090819081908190819073__CommitManager_________________________9063732d1f0f9060240160006040518083038186803b1580156117d957600080fd5b505af41580156117ed573d6000803e3d6000fd5b505050506040513d6000823e601f3d908101601f1916820160405261181591908101906131b9565b945094509450945094509091929394565b60035460009063ffffffff600160301b8204811691620100008104909116906118589060ff6101009091041642614206565b611862919061423d565b63ffffffff161161187257600080fd5b600654611887906001600160a01b0316611eac565b61189057600080fd5b611898610d72565b6118a157600080fd5b6040517fc15f68f0a72806ff3f8bf2435385a67c4c22413f1c7931ef7bcea718e6ffcf0390600090a150600190565b60008060008073__TokenTracker__________________________636489a8db8888886040518463ffffffff1660e01b815260040161191193929190613e98565b60006040518083038186803b15801561192957600080fd5b505af415801561193d573d6000803e3d6000fd5b505050506040513d6000823e601f3d908101601f191682016040526119659190810190613825565b9250925092508181906119945760405162461bcd60e51b815260040161198b9190613f1e565b60405180910390fd5b50919695505050505050565b60606004805480602002602001604051908101604052809291908181526020016000905b82821015611a445760008481526020908190206040805160c081018252600286029092018054835260019081015460ff80821685870152610100820481169385019390935263ffffffff62010000820481166060860152600160301b8204166080850152600160501b900490911660a083015290835290920191016119c4565b50505050905090565b6000805b63ffffffff8116871115611b49573063f23a6e618b8b8b8b63ffffffff8716818110611a8d57634e487b7160e01b600052603260045260246000fd5b905060200201358a8a8763ffffffff16818110611aba57634e487b7160e01b600052603260045260246000fd5b9050602002013589896040518763ffffffff1660e01b8152600401611ae496959493929190613b2f565b602060405180830381600087803b158015611afe57600080fd5b505af1158015611b12573d6000803e3d6000fd5b505050506040513d601f19601f82011682018060405250810190611b369190613651565b5080611b4181614329565b915050611a51565b5063bc197c8160e01b9998505050505050505050565b600354604051631601f47b60e31b8152600f600482015261010090910460ff16602482015260009073__CommitManager_________________________9063b00fa3d89060440160206040518083038186803b158015611bbe57600080fd5b505af4158015611bd2573d6000803e3d6000fd5b505050506040513d601f19601f82011682018060405250810190611bf691906138af565b905090565b6040516391a351d360e01b8152600f600482015260248101829052606090819081908190819073__CommitManager_________________________906391a351d39060440160006040518083038186803b158015611c5857600080fd5b505af4158015611c6c573d6000803e3d6000fd5b505050506040513d6000823e601f3d908101601f19168201604052611c9491908101906131b9565b939a9299509097509550909350915050565b60165460ff16611cb557600080fd5b604051632b6e663760e21b8152600f600482015260248101849052604481018390526064810182905273__CommitManager_________________________9063adb998dc9060840160006040518083038186803b158015611d1557600080fd5b505af4158015611d29573d6000803e3d6000fd5b50505050505050565b60007feb7a68d5a205eea79480f44587fe8146ae15b7e92582967fd1b1b119c9b60efa60028588338b8a8989604051611d72989796959493929190613ec0565b60405180910390a16000611d8e600d546001600160a01b031690565b90506001600160a01b03811615611e275760405163c841a9db60e01b815273__TokenTracker__________________________9063c841a9db90611de69060009060029033908c9088908d908d908d906004016140dc565b60006040518083038186803b158015611dfe57600080fd5b505af4158015611e12573d6000803e3d6000fd5b5063f23a6e6160e01b9450611ea29350505050565b6040516304e9b2db60e31b815273__TokenTracker__________________________9063274d96d890611e669060009060029033908c906004016140ad565b60006040518083038186803b158015611e7e57600080fd5b505af4158015611e92573d6000803e3d6000fd5b5063f23a6e6160e01b9450505050505b9695505050505050565b60006001600160a01b03821615801590610e8957506001600160a01b038216737534978f9fa903150ed429c486d1f42b7fdb7a61141592915050565b600654611efd906001600160a01b0316611eac565b80611f1057506001600160a01b03811630145b15611f4657604051600081527f83c14e1947c5a639434d6195a6e9d85ab3471a5049c66e0aa46b71e2c0a06dde9060200161098f565b600680546001600160a01b0319166001600160a01b0383169081179091556040519081527f83c14e1947c5a639434d6195a6e9d85ab3471a5049c66e0aa46b71e2c0a06dde9060200161098f565b60405163075f723760e11b8152600860048201526001600160a01b038316602482015260448101829052600090819073__SpendingManager_______________________90630ebee46e9060640160206040518083038186803b158015611ffa57600080fd5b505af415801561200e573d6000803e3d6000fd5b505050506040513d601f19601f820116820180604052508101906120329190613552565b905080612043576000915050610e89565b60405163ddc7babd60e01b8152600860048201526024810184905273__SpendingManager_______________________9063ddc7babd9060440160006040518083038186803b15801561209557600080fd5b505af41580156120a9573d6000803e3d6000fd5b50505050600080856001600160a01b03168560405160006040518083038185875af1925050503d80600081146120fb576040519150601f19603f3d011682016040523d82523d6000602084013e612100565b606091505b50915091508161216a57846008600101600082825461211f9190614226565b90915550506040517ff5c313ebe4b0c35fe244772061cea14ddbae7ed089b2850d6ee2235fd42847e4906121569088908490613b03565b60405180910390a160009350505050610e89565b604080518681526001600160a01b03881660208201527f8f4636f285a9a17fe3479ab47bb7a5deadaf9b2295a16c3965f55fa48e542d1f910160405180910390a150600195945050505050565b60006001600160e01b031982166301ffc9a760e01b14806121e857506001600160e01b0319821663f23a6e6160e01b145b80610e8957506001600160e01b03198216630a85bd0160e11b1492915050565b60048151601981111561222b57634e487b7160e01b600052602160045260246000fd5b1415612243576111c181608001518260a00151611f94565b60068151601981111561226657634e487b7160e01b600052602160045260246000fd5b1415612274576111c1610c4e565b60058151601981111561229757634e487b7160e01b600052602160045260246000fd5b14156122ad576122aa8160800151611ee8565b50565b6008815160198111156122d057634e487b7160e01b600052602160045260246000fd5b14156122e3576122aa816080015161099a565b60158151601981111561230657634e487b7160e01b600052602160045260246000fd5b141561233957606081015161232c576122aa81604001518260a001518360c0015161242b565b6122aa8160c00151612685565b60078151601981111561235c57634e487b7160e01b600052602160045260246000fd5b14156123b25760c0810151600d54604051637d80bb9960e11b815273__CoreManager___________________________9263fb01773292610c1b9260049260029290916001600160a01b03909116908401613e60565b6016815160198111156123d557634e487b7160e01b600052602160045260246000fd5b14156123e8576122aa8160c00151612857565b6040516338e617e360e21b815273__Executor______________________________9063e3985f8c90610c1b908490600090600e90601390600890600401613fee565b60405163075f723760e11b8152600860048201526001600160a01b03841660248201526044810183905260009073__SpendingManager_______________________90630ebee46e9060640160206040518083038186803b15801561248f57600080fd5b505af41580156124a3573d6000803e3d6000fd5b505050506040513d601f19601f820116820180604052508101906124c79190613552565b90508061250f577f4d62b9a6ffb55cee5d5dc75b67dc0013b2cce2fa73c7a715ad72dedc5ffdc60c84848460405161250193929190613bba565b60405180910390a150505050565b60405163ddc7babd60e01b8152600860048201526024810184905273__SpendingManager_______________________9063ddc7babd9060440160006040518083038186803b15801561256157600080fd5b505af4158015612575573d6000803e3d6000fd5b50505050600080856001600160a01b031685856040516125959190613ae7565b60006040518083038185875af1925050503d80600081146125d2576040519150601f19603f3d011682016040523d82523d6000602084013e6125d7565b606091505b50915091508115612624577f594eb1d75e7963acdb8e3677a186a5ed35924ab37f2b20e78aea6516bbc9bd6e868686846040516126179493929190613b76565b60405180910390a161267d565b84600860010160008282546126399190614226565b90915550506040517f4d62b9a6ffb55cee5d5dc75b67dc0013b2cce2fa73c7a715ad72dedc5ffdc60c90612674908890889088908690613b76565b60405180910390a15b505050505050565b60008060008380602001905181019061269e9190612fe0565b9250925092506000805b83518163ffffffff16101561270457838163ffffffff16815181106126dd57634e487b7160e01b600052603260045260246000fd5b6020026020010151826126f091906141ee565b9150806126fc81614329565b9150506126a8565b5060405163075f723760e11b815260086004820152600060248201526044810182905273__SpendingManager_______________________90630ebee46e9060640160206040518083038186803b15801561275e57600080fd5b505af4158015612772573d6000803e3d6000fd5b505050506040513d601f19601f820116820180604052508101906127969190613552565b6127a1575050505050565b60005b84518163ffffffff16101561267d57612845858263ffffffff16815181106127dc57634e487b7160e01b600052603260045260246000fd5b6020026020010151858363ffffffff168151811061280a57634e487b7160e01b600052603260045260246000fd5b6020026020010151858463ffffffff168151811061283857634e487b7160e01b600052603260045260246000fd5b602002602001015161242b565b8061284f81614329565b9150506127a4565b60008180602001905181019061286d9190613413565b805190915060005b8160ff168163ffffffff1610156128ce576128bc838263ffffffff16815181106128af57634e487b7160e01b600052603260045260246000fd5b6020026020010151612208565b806128c681614329565b915050612875565b50505050565b828054828255906000526020600020908101928215612929579160200282015b8281111561292957825182546001600160a01b0319166001600160a01b039091161782556020909201916001909101906128f4565b50612935929150612939565b5090565b5b80821115612935576000815560010161293a565b600061296161295c846141c7565b614174565b905082815283838301111561297557600080fd5b6110e28360208301846142fd565b8035610e5f8161438f565b8051610e5f8161438f565b600082601f8301126129a9578081fd5b815160206129b961295c836141a4565b80838252828201915082860187848660051b89010111156129d8578586fd5b855b858110156129ff5781516129ed8161438f565b845292840192908401906001016129da565b5090979650505050505050565b600082601f830112612a1c578081fd5b81516020612a2c61295c836141a4565b80838252828201915082860187848660051b8901011115612a4b578586fd5b855b858110156129ff57612a5e82612c54565b84529284019290840190600101612a4d565b60008083601f840112612a81578182fd5b5081356001600160401b03811115612a97578182fd5b6020830191508360208260051b8501011115612ab257600080fd5b9250929050565b600082601f830112612ac9578081fd5b81516020612ad961295c836141a4565b80838252828201915082860187848660051b8901011115612af8578586fd5b855b858110156129ff57815184529284019290840190600101612afa565b600082601f830112612b26578081fd5b81356020612b3661295c836141a4565b80838252828201915082860187848660051b8901011115612b55578586fd5b855b858110156129ff578135612b6a8161438f565b84529284019290840190600101612b57565b600082601f830112612b8c578081fd5b81356020612b9c61295c836141a4565b8281528181019085830160c080860288018501891015612bba578687fd5b865b86811015612be057612bce8a84612d3a565b85529385019391810191600101612bbc565b509198975050505050505050565b600082601f830112612bfe578081fd5b81516020612c0e61295c836141a4565b80838252828201915082860187848660051b8901011115612c2d578586fd5b855b858110156129ff578151612c42816143d4565b84529284019290840190600101612c2f565b80518015158114610e5f57600080fd5b60008083601f840112612c75578182fd5b5081356001600160401b03811115612c8b578182fd5b602083019150836020828501011115612ab257600080fd5b600082601f830112612cb3578081fd5b8135612cc161295c826141c7565b818152846020838601011115612cd5578283fd5b816020850160208301379081016020019190915292915050565b600082601f830112612cff578081fd5b6110e28383516020850161294e565b8035610e5f816143ba565b8051610e5f816143ba565b8035610e5f816143c7565b8051610e5f816143c7565b600060c08284031215612d4b578081fd5b612d5361412a565b9050813581526020820135612d67816143e6565b60208201526040820135612d7a816143e6565b60408201526060820135612d8d816143d4565b60608201526080820135612da0816143d4565b608082015260a0820135612db3816143e6565b60a082015292915050565b600060c08284031215612dcf578081fd5b612dd761412a565b905081358152602082013560208201526040820135612df5816143d4565b60408201526060820135612e08816143d4565b60608201526080820135612e1b816143d4565b8060808301525060a082013560a082015292915050565b8035610e5f816143d4565b60008060008060008060008060a0898b031215612e58578384fd5b8835612e638161438f565b97506020890135612e738161438f565b965060408901356001600160401b0380821115612e8e578586fd5b612e9a8c838d01612a70565b909850965060608b0135915080821115612eb2578586fd5b612ebe8c838d01612a70565b909650945060808b0135915080821115612ed6578384fd5b50612ee38b828c01612c64565b999c989b5096995094979396929594505050565b600080600080600060808688031215612f0e578283fd5b8535612f198161438f565b94506020860135612f298161438f565b93506040860135925060608601356001600160401b03811115612f4a578182fd5b612f5688828901612c64565b969995985093965092949392505050565b60008060008060008060a08789031215612f7f578384fd5b8635612f8a8161438f565b95506020870135612f9a8161438f565b9450604087013593506060870135925060808701356001600160401b03811115612fc2578283fd5b612fce89828a01612c64565b979a9699509497509295939492505050565b600080600060608486031215612ff4578081fd5b83516001600160401b038082111561300a578283fd5b61301687838801612999565b945060209150818601518181111561302c578384fd5b61303888828901612ab9565b94505060408601518181111561304c578384fd5b8601601f8101881361305c578384fd5b805161306a61295c826141a4565b8082825285820191508584018b878560051b8701011115613089578788fd5b875b848110156130c2578151878111156130a157898afd5b6130af8e8a838a0101612cef565b855250928701929087019060010161308b565b50508096505050505050509250925092565b6000806000806000806000806000806000806101408d8f0312156130f6578586fd5b6001600160401b038d35111561310a578586fd5b6131178e8e358f01612a70565b909c509a5061312860208e01612e32565b995060408d0135985061313d60608e01612d0e565b975061314b60808e01612d24565b965061315960a08e01612983565b955060c08d0135945061316e60e08e01612983565b93506101008d013592506001600160401b036101208e01351115613190578081fd5b6131a18e6101208f01358f01612c64565b81935080925050509295989b509295989b509295989b565b600080600080600060a086880312156131d0578283fd5b85516001600160401b03808211156131e6578485fd5b6131f289838a01612ab9565b96506020880151915080821115613207578485fd5b61321389838a01612ab9565b95506040880151915080821115613228578485fd5b61323489838a01612ab9565b94506060880151915080821115613249578283fd5b61325589838a01612bee565b9350608088015191508082111561326a578283fd5b5061327788828901612a0c565b9150509295509295909350565b60008060008060808587031215613299578182fd5b84516001600160401b03808211156132af578384fd5b6132bb88838901612ab9565b955060208701519150808211156132d0578384fd5b6132dc88838901612ab9565b945060408701519150808211156132f1578384fd5b6132fd88838901612bee565b93506060870151915080821115613312578283fd5b5061331f87828801612bee565b91505092959194509250565b60008060006060848603121561333f578081fd5b83516001600160401b0380821115613355578283fd5b818601915086601f830112613368578283fd5b8151602061337861295c836141a4565b8083825282820191508286018b848660051b8901011115613397578788fd5b8796505b848710156133c25780516133ae816143c7565b83526001969096019591830191830161339b565b50918901519197509093505050808211156133db578283fd5b6133e787838801612999565b935060408601519150808211156133fc578283fd5b5061340986828701612ab9565b9150509250925092565b60006020808385031215613425578182fd5b82516001600160401b038082111561343b578384fd5b818501915085601f83011261344e578384fd5b815161345c61295c826141a4565b80828252858201915085850189878560051b880101111561347b578788fd5b875b848110156135435781518681111561349357898afd5b870160e0818d03601f19018113156134a9578a8bfd5b6134b1614152565b6134bc8b8401612d19565b815260406134cb818501612d2f565b8c83015260606134dc81860161298e565b828401526080915081850151818401525060a06134fa81860161298e565b8284015260c091508185015181840152508284015192508983111561351d578c8dfd5b61352b8f8d85870101612cef565b9082015286525050928701929087019060010161347d565b50909998505050505050505050565b600060208284031215613563578081fd5b6110e282612c54565b60006020828403121561357d578081fd5b5035919050565b600080600060608486031215613598578081fd5b505081359360208301359350604090920135919050565b600080604083850312156135c1578182fd5b8235915060208301356001600160401b038111156135dd578182fd5b6135e985828601612ca3565b9150509250929050565b600080600060608486031215613607578081fd5b835192506020840151613619816143d4565b604085015190925061362a816143d4565b809150509250925092565b600060208284031215613646578081fd5b81356110e2816143a4565b600060208284031215613662578081fd5b81516110e2816143a4565b600080600060608486031215613681578081fd5b833561368c816143c7565b9250602084013561369c8161438f565b929592945050506040919091013590565b600080604083850312156136bf578182fd5b82356001600160401b03808211156136d5578384fd5b90840190606082870312156136e8578384fd5b909250602084013590808211156136fd578283fd5b50830160e0818603121561370f578182fd5b809150509250929050565b60006020828403121561372b578081fd5b81356001600160401b0380821115613741578283fd5b908301906102208286031215613755578283fd5b61375d614152565b6137678684612d3a565b81526137768660c08501612dbe565b60208201526137886101808401612983565b60408201526101a083013560608201526101c0830135828111156137aa578485fd5b6137b687828601612b16565b6080830152506101e0830135828111156137ce578485fd5b6137da87828601612b7c565b60a083015250610200830135828111156137f2578485fd5b6137fe87828601612b7c565b60c08301525095945050505050565b60006020828403121561381e578081fd5b5051919050565b600080600060608486031215613839578081fd5b8351925061384960208501612c54565b915060408401516001600160401b03811115613863578182fd5b8401601f81018613613873578182fd5b6134098682516020840161294e565b60008060408385031215613894578182fd5b823561389f816143d4565b9150602083013561370f816143d4565b6000602082840312156138c0578081fd5b81516110e2816143e6565b6000815180845260208085019450808401835b838110156138fc5781511515875295820195908201906001016138de565b509495945050505050565b81835260006001600160fb1b0383111561391f578081fd5b8260051b80836020870137939093016020019283525090919050565b6000815180845260208085019450808401835b838110156138fc5781518752958201959082019060010161394e565b6000815180845260208085019450808401835b838110156138fc57815163ffffffff168752958201959082019060010161397d565b81835281816020850137506000828201602090810191909152601f909101601f19169091010190565b600081518084526139e08160208601602086016142fd565b601f01601f19169290920160200192915050565b601a8110613a0457613a04614363565b9052565b60048110613a0457613a04614363565b60008135613a25816143ba565b613a2f84826139f4565b506020820135613a3e816143c7565b613a4b6020850182613a08565b506040820135613a5a8161438f565b6001600160a01b03908116604085015260608381013590850152608083013590613a838261438f565b16608084015260a0828101359084015260c082013536839003601e19018112613aaa578182fd5b820180356001600160401b03811115613ac1578283fd5b803603841315613acf578283fd5b60e060c086015261104a60e08601826020850161399f565b60008251613af98184602087016142fd565b9190910192915050565b6001600160a01b0383168152604060208201819052600090613b27908301846139c8565b949350505050565b6001600160a01b03878116825286166020820152604081018590526060810184905260a060808201819052600090613b6a908301848661399f565b98975050505050505050565b60018060a01b0385168152836020820152608060408201526000613b9d60808301856139c8565b8281036060840152613baf81856139c8565b979650505050505050565b60018060a01b0384168152826020820152608060408201526000613be160808301846139c8565b82810360609093019290925281526020019392505050565b60a081526000613c0c60a083018861393b565b8281036020840152613c1e818861393b565b90508281036040840152613c32818761393b565b90508281036060840152613c46818661396a565b90508281036080840152613b6a81856138cb565b608081526000613c6d608083018761393b565b8281036020840152613c7f818761393b565b90508281036040840152613c93818661396a565b90508281036060840152613baf81856138cb565b608081526000613cba608083018761393b565b8281036020840152613ccc818761393b565b90508281036040840152613ce0818661396a565b90508281036060840152613baf818561396a565b6020808252825182820181905260009190848201906040850190845b81811015613d355783516001600160a01b031683529284019291840191600101613d10565b50909695505050505050565b606080825284519082018190526000906020906080840190828801845b82811015613d8157613d71848351613a08565b9284019290840190600101613d5e565b50505083810382850152855180825286830191830190845b81811015613dbe5783516001600160a01b031683529284019291840191600101613d99565b50508481036040860152613b6a818761393b565b602080825282518282018190526000919060409081850190868401855b82811015613e53578151805185528681015160ff908116888701528682015181168787015260608083015163ffffffff908116918801919091526080808401519091169087015260a091820151169085015260c09093019290850190600101613def565b5091979650505050505050565b848152836020820152608060408201526000613e7f60808301856139c8565b905060018060a01b038316606083015295945050505050565b60608101613ea68286613a08565b6001600160a01b0393909316602082015260400152919050565b613eca818a613a08565b602081018890526001600160a01b03878116604083015286811660608301528516608082015260a0810184905260e060c08201819052600090613f10908301848661399f565b9a9950505050505050505050565b6020815260006110e260208301846139c8565b87815260208101879052604081018690526001600160a01b03851660608201526080810184905260e060a08201526000833536859003601e19018112613f75578182fd5b840180356001600160401b03811115613f8c578283fd5b8060051b3603861315613f9d578283fd5b606060e0850152613fb661014085018260208501613907565b915050613fc560208601612e32565b63ffffffff16610100840152604085013561012084015282810360c0840152613f108185613a18565b60a0815261400060a0820187516139f4565b6000602087015161401460c0840182613a08565b50604087015160018060a01b0380821660e085015260608901516101008501528060808a015116610120850152505060a087015161014083015260c087015160e06101608401526140696101808401826139c8565b9150508560208301528460408301528360608301528260808301529695505050505050565b83815282602082015260606040820152600061104a60608301846139c8565b848152608081016140c16020830186613a08565b6001600160a01b039390931660408201526060015292915050565b8881526140ec6020820189613a08565b6001600160a01b038781166040830152606082018790528516608082015260a0810184905260e060c08201819052600090613f10908301848661399f565b60405160c081016001600160401b038111828210171561414c5761414c614379565b60405290565b60405160e081016001600160401b038111828210171561414c5761414c614379565b604051601f8201601f191681016001600160401b038111828210171561419c5761419c614379565b604052919050565b60006001600160401b038211156141bd576141bd614379565b5060051b60200190565b60006001600160401b038211156141e0576141e0614379565b50601f01601f191660200190565b600082198211156142015761420161434d565b500190565b60008261422157634e487b7160e01b81526012600452602481fd5b500490565b6000828210156142385761423861434d565b500390565b600063ffffffff8381169083168181101561425a5761425a61434d565b039392505050565b600060e08236031215614273578081fd5b61427b614152565b61428483612d0e565b815261429260208401612d24565b60208201526142a360408401612983565b6040820152606083013560608201526142be60808401612983565b608082015260a083013560a082015260c08301356001600160401b038111156142e5578283fd5b6142f136828601612ca3565b60c08301525092915050565b60005b83811015614318578181015183820152602001614300565b838111156128ce5750506000910152565b600063ffffffff808316818114156143435761434361434d565b6001019392505050565b634e487b7160e01b600052601160045260246000fd5b634e487b7160e01b600052602160045260246000fd5b634e487b7160e01b600052604160045260246000fd5b6001600160a01b03811681146122aa57600080fd5b6001600160e01b0319811681146122aa57600080fd5b601a81106122aa57600080fd5b600481106122aa57600080fd5b63ffffffff811681146122aa57600080fd5b60ff811681146122aa57600080fdfea26469706673582212207ad3f00b01378b68d758e77524d08c819e6970ed5044ed369511f74835e82b1364736f6c63430008040033a2646970667358221220a938e3f5df80661bec1a87c47b3dfa83e1404bafaf251f892aa655e76196aad464736f6c63430008040033",
  "immutableReferences": {},
  "source": "// SPDX-License-Identifier: Apache-2.0\npragma solidity ^0.8.4;\n\nimport \"./ONEWallet.sol\";\nimport \"./IONEWallet.sol\";\nimport \"./Factory.sol\";\nimport \"./Version.sol\";\n\nlibrary ONEWalletCodeHelper {\n    function code() pure public returns (bytes memory){\n        return type(ONEWallet).creationCode;\n    }\n}\n\ncontract ONEWalletFactoryHelper {\n    ONEWalletFactory public factory = ONEWalletFactory(address(0));\n    constructor(ONEWalletFactory factory_){\n        factory = factory_;\n    }\n    function getVersion() public pure returns (uint32, uint32){\n        return (Version.majorVersion, Version.minorVersion);\n    }\n    function deploy(IONEWallet.InitParams memory args) payable public returns (address){\n        // ONEWallet has no constructor argument since v15\n        address addr = factory.deploy{value : msg.value}(ONEWalletCodeHelper.code(), uint256(args.identificationHash));\n        if (addr == address(0)) {\n            return addr;\n        }\n        IONEWallet(addr).initialize(args);\n        return addr;\n    }\n\n    function predict(bytes32 identificationHash) public view returns (address){\n        return factory.predict(ONEWalletCodeHelper.code(), uint256(identificationHash));\n    }\n\n    function verify(IONEWallet addr) public view returns (bool){\n        address predictedAddress = factory.predict(ONEWalletCodeHelper.code(), uint256(addr.identificationHash()));\n        return predictedAddress == address(addr);\n    }\n}\n",
  "sourcePath": "/Users/polymorpher/git/one-wallet/code/contracts/FactoryHelper.sol",
  "compiler": {
    "name": "solc",
    "version": "0.8.4+commit.c7e474f2.Emscripten.clang"
  },
  "schemaVersion": "3.4.2",
  "updatedAt": "2021-11-14T13:43:49.407Z",
  "devdoc": {
    "kind": "dev",
    "methods": {},
    "version": 1
  },
  "userdoc": {
    "kind": "user",
    "methods": {},
    "version": 1
  }
}