{
  "contractName": "ONEWallet",
  "abi": [
    {
      "inputs": [
        {
          "internalType": "bytes32",
          "name": "root_",
          "type": "bytes32"
        },
        {
          "internalType": "uint8",
          "name": "height_",
          "type": "uint8"
        },
        {
          "internalType": "uint8",
          "name": "interval_",
          "type": "uint8"
        },
        {
          "internalType": "uint32",
          "name": "t0_",
          "type": "uint32"
        },
        {
          "internalType": "uint32",
          "name": "lifespan_",
          "type": "uint32"
        },
        {
          "internalType": "uint8",
          "name": "maxOperationsPerInterval_",
          "type": "uint8"
        },
        {
          "internalType": "address payable",
          "name": "lastResortAddress_",
          "type": "address"
        },
        {
          "internalType": "uint256",
          "name": "dailyLimit_",
          "type": "uint256"
        }
      ],
      "stateMutability": "nonpayable",
      "type": "constructor"
    },
    {
      "anonymous": false,
      "inputs": [
        {
          "indexed": false,
          "internalType": "address",
          "name": "from",
          "type": "address"
        }
      ],
      "name": "AutoRecoveryTriggered",
      "type": "event"
    },
    {
      "anonymous": false,
      "inputs": [
        {
          "indexed": false,
          "internalType": "address",
          "name": "from",
          "type": "address"
        },
        {
          "indexed": false,
          "internalType": "uint256",
          "name": "requiredTime",
          "type": "uint256"
        }
      ],
      "name": "AutoRecoveryTriggeredPrematurely",
      "type": "event"
    },
    {
      "anonymous": false,
      "inputs": [
        {
          "indexed": false,
          "internalType": "address",
          "name": "subdomainRegistrar",
          "type": "address"
        },
        {
          "indexed": false,
          "internalType": "string",
          "name": "subdomain",
          "type": "string"
        },
        {
          "indexed": false,
          "internalType": "bytes32",
          "name": "domainLabel",
          "type": "bytes32"
        }
      ],
      "name": "DomainRegistered",
      "type": "event"
    },
    {
      "anonymous": false,
      "inputs": [
        {
          "indexed": false,
          "internalType": "string",
          "name": "reason",
          "type": "string"
        }
      ],
      "name": "DomainRegistrationFailed",
      "type": "event"
    },
    {
      "anonymous": false,
      "inputs": [
        {
          "indexed": false,
          "internalType": "uint256",
          "name": "amount",
          "type": "uint256"
        },
        {
          "indexed": false,
          "internalType": "uint256",
          "name": "limit",
          "type": "uint256"
        },
        {
          "indexed": false,
          "internalType": "uint256",
          "name": "current",
          "type": "uint256"
        },
        {
          "indexed": false,
          "internalType": "address",
          "name": "dest",
          "type": "address"
        }
      ],
      "name": "ExceedDailyLimit",
      "type": "event"
    },
    {
      "anonymous": false,
      "inputs": [
        {
          "indexed": false,
          "internalType": "enum TokenManager.TokenType",
          "name": "tokenType",
          "type": "uint8"
        },
        {
          "indexed": false,
          "internalType": "uint256",
          "name": "amount",
          "type": "uint256"
        },
        {
          "indexed": false,
          "internalType": "address",
          "name": "from",
          "type": "address"
        },
        {
          "indexed": false,
          "internalType": "address",
          "name": "tokenContract",
          "type": "address"
        },
        {
          "indexed": false,
          "internalType": "address",
          "name": "operator",
          "type": "address"
        },
        {
          "indexed": false,
          "internalType": "uint256",
          "name": "tokenId",
          "type": "uint256"
        },
        {
          "indexed": false,
          "internalType": "bytes",
          "name": "data",
          "type": "bytes"
        }
      ],
      "name": "ForwardedToken",
      "type": "event"
    },
    {
      "anonymous": false,
      "inputs": [
        {
          "indexed": false,
          "internalType": "uint256",
          "name": "amount",
          "type": "uint256"
        },
        {
          "indexed": false,
          "internalType": "uint256",
          "name": "balance",
          "type": "uint256"
        },
        {
          "indexed": false,
          "internalType": "address",
          "name": "dest",
          "type": "address"
        }
      ],
      "name": "InsufficientFund",
      "type": "event"
    },
    {
      "anonymous": false,
      "inputs": [
        {
          "indexed": false,
          "internalType": "string",
          "name": "fqdn",
          "type": "string"
        },
        {
          "indexed": false,
          "internalType": "uint32",
          "name": "subdomainLabelLength",
          "type": "uint32"
        }
      ],
      "name": "InvalidFQDN",
      "type": "event"
    },
    {
      "anonymous": false,
      "inputs": [],
      "name": "LastResortAddressNotSet",
      "type": "event"
    },
    {
      "anonymous": false,
      "inputs": [
        {
          "indexed": false,
          "internalType": "uint256",
          "name": "amount",
          "type": "uint256"
        },
        {
          "indexed": false,
          "internalType": "address",
          "name": "dest",
          "type": "address"
        }
      ],
      "name": "PaymentForwarded",
      "type": "event"
    },
    {
      "anonymous": false,
      "inputs": [
        {
          "indexed": false,
          "internalType": "uint256",
          "name": "amount",
          "type": "uint256"
        },
        {
          "indexed": false,
          "internalType": "address",
          "name": "from",
          "type": "address"
        }
      ],
      "name": "PaymentReceived",
      "type": "event"
    },
    {
      "anonymous": false,
      "inputs": [
        {
          "indexed": false,
          "internalType": "uint256",
          "name": "amount",
          "type": "uint256"
        },
        {
          "indexed": false,
          "internalType": "address",
          "name": "dest",
          "type": "address"
        }
      ],
      "name": "PaymentSent",
      "type": "event"
    },
    {
      "anonymous": false,
      "inputs": [
        {
          "indexed": false,
          "internalType": "enum TokenManager.TokenType",
          "name": "tokenType",
          "type": "uint8"
        },
        {
          "indexed": false,
          "internalType": "uint256",
          "name": "amount",
          "type": "uint256"
        },
        {
          "indexed": false,
          "internalType": "address",
          "name": "from",
          "type": "address"
        },
        {
          "indexed": false,
          "internalType": "address",
          "name": "tokenContract",
          "type": "address"
        },
        {
          "indexed": false,
          "internalType": "address",
          "name": "operator",
          "type": "address"
        },
        {
          "indexed": false,
          "internalType": "uint256",
          "name": "tokenId",
          "type": "uint256"
        },
        {
          "indexed": false,
          "internalType": "bytes",
          "name": "data",
          "type": "bytes"
        }
      ],
      "name": "ReceivedToken",
      "type": "event"
    },
    {
      "anonymous": false,
      "inputs": [],
      "name": "RecoveryFailure",
      "type": "event"
    },
    {
      "anonymous": false,
      "inputs": [
        {
          "indexed": false,
          "internalType": "address",
          "name": "reverseRegistrar",
          "type": "address"
        },
        {
          "indexed": false,
          "internalType": "bytes32",
          "name": "nodeHash",
          "type": "bytes32"
        }
      ],
      "name": "ReverseDomainClaimed",
      "type": "event"
    },
    {
      "anonymous": false,
      "inputs": [
        {
          "indexed": false,
          "internalType": "enum TokenManager.TokenType",
          "name": "tokenType",
          "type": "uint8"
        },
        {
          "indexed": false,
          "internalType": "address",
          "name": "contractAddress",
          "type": "address"
        },
        {
          "indexed": false,
          "internalType": "uint256",
          "name": "tokenId",
          "type": "uint256"
        }
      ],
      "name": "TokenNotFound",
      "type": "event"
    },
    {
      "anonymous": false,
      "inputs": [
        {
          "indexed": false,
          "internalType": "enum TokenManager.TokenType",
          "name": "tokenType",
          "type": "uint8"
        },
        {
          "indexed": false,
          "internalType": "address",
          "name": "contractAddress",
          "type": "address"
        },
        {
          "indexed": false,
          "internalType": "uint256",
          "name": "tokenId",
          "type": "uint256"
        },
        {
          "indexed": false,
          "internalType": "uint256",
          "name": "balance",
          "type": "uint256"
        }
      ],
      "name": "TokenRecovered",
      "type": "event"
    },
    {
      "anonymous": false,
      "inputs": [
        {
          "indexed": false,
          "internalType": "enum TokenManager.TokenType",
          "name": "tokenType",
          "type": "uint8"
        },
        {
          "indexed": false,
          "internalType": "address",
          "name": "contractAddress",
          "type": "address"
        },
        {
          "indexed": false,
          "internalType": "uint256",
          "name": "tokenId",
          "type": "uint256"
        }
      ],
      "name": "TokenTracked",
      "type": "event"
    },
    {
      "anonymous": false,
      "inputs": [
        {
          "indexed": false,
          "internalType": "enum TokenManager.TokenType",
          "name": "tokenType",
          "type": "uint8"
        },
        {
          "indexed": false,
          "internalType": "address",
          "name": "contractAddress",
          "type": "address"
        },
        {
          "indexed": false,
          "internalType": "uint256",
          "name": "tokenId",
          "type": "uint256"
        },
        {
          "indexed": false,
          "internalType": "address",
          "name": "dest",
          "type": "address"
        },
        {
          "indexed": false,
          "internalType": "uint256",
          "name": "amount",
          "type": "uint256"
        },
        {
          "indexed": false,
          "internalType": "string",
          "name": "reason",
          "type": "string"
        }
      ],
      "name": "TokenTransferError",
      "type": "event"
    },
    {
      "anonymous": false,
      "inputs": [
        {
          "indexed": false,
          "internalType": "enum TokenManager.TokenType",
          "name": "tokenType",
          "type": "uint8"
        },
        {
          "indexed": false,
          "internalType": "address",
          "name": "contractAddress",
          "type": "address"
        },
        {
          "indexed": false,
          "internalType": "uint256",
          "name": "tokenId",
          "type": "uint256"
        },
        {
          "indexed": false,
          "internalType": "address",
          "name": "dest",
          "type": "address"
        },
        {
          "indexed": false,
          "internalType": "uint256",
          "name": "amount",
          "type": "uint256"
        }
      ],
      "name": "TokenTransferFailed",
      "type": "event"
    },
    {
      "anonymous": false,
      "inputs": [
        {
          "indexed": false,
          "internalType": "enum TokenManager.TokenType",
          "name": "tokenType",
          "type": "uint8"
        },
        {
          "indexed": false,
          "internalType": "address",
          "name": "contractAddress",
          "type": "address"
        },
        {
          "indexed": false,
          "internalType": "uint256",
          "name": "tokenId",
          "type": "uint256"
        },
        {
          "indexed": false,
          "internalType": "address",
          "name": "dest",
          "type": "address"
        },
        {
          "indexed": false,
          "internalType": "uint256",
          "name": "amount",
          "type": "uint256"
        }
      ],
      "name": "TokenTransferSucceeded",
      "type": "event"
    },
    {
      "anonymous": false,
      "inputs": [
        {
          "indexed": false,
          "internalType": "enum TokenManager.TokenType",
          "name": "tokenType",
          "type": "uint8"
        },
        {
          "indexed": false,
          "internalType": "address",
          "name": "contractAddress",
          "type": "address"
        },
        {
          "indexed": false,
          "internalType": "uint256",
          "name": "tokenId",
          "type": "uint256"
        }
      ],
      "name": "TokenUntracked",
      "type": "event"
    },
    {
      "anonymous": false,
      "inputs": [
        {
          "indexed": false,
          "internalType": "address",
          "name": "dest",
          "type": "address"
        }
      ],
      "name": "UnknownTransferError",
      "type": "event"
    },
    {
      "inputs": [],
      "name": "getTrackedTokens",
      "outputs": [
        {
          "internalType": "enum TokenManager.TokenType[]",
          "name": "",
          "type": "uint8[]"
        },
        {
          "internalType": "address[]",
          "name": "",
          "type": "address[]"
        },
        {
          "internalType": "uint256[]",
          "name": "",
          "type": "uint256[]"
        }
      ],
      "stateMutability": "view",
      "type": "function"
    },
    {
      "inputs": [
        {
          "internalType": "address",
          "name": "operator",
          "type": "address"
        },
        {
          "internalType": "address",
          "name": "from",
          "type": "address"
        },
        {
          "internalType": "uint256[]",
          "name": "ids",
          "type": "uint256[]"
        },
        {
          "internalType": "uint256[]",
          "name": "values",
          "type": "uint256[]"
        },
        {
          "internalType": "bytes",
          "name": "data",
          "type": "bytes"
        }
      ],
      "name": "onERC1155BatchReceived",
      "outputs": [
        {
          "internalType": "bytes4",
          "name": "",
          "type": "bytes4"
        }
      ],
      "stateMutability": "nonpayable",
      "type": "function"
    },
    {
      "inputs": [
        {
          "internalType": "address",
          "name": "operator",
          "type": "address"
        },
        {
          "internalType": "address",
          "name": "from",
          "type": "address"
        },
        {
          "internalType": "uint256",
          "name": "id",
          "type": "uint256"
        },
        {
          "internalType": "uint256",
          "name": "value",
          "type": "uint256"
        },
        {
          "internalType": "bytes",
          "name": "data",
          "type": "bytes"
        }
      ],
      "name": "onERC1155Received",
      "outputs": [
        {
          "internalType": "bytes4",
          "name": "",
          "type": "bytes4"
        }
      ],
      "stateMutability": "nonpayable",
      "type": "function"
    },
    {
      "inputs": [
        {
          "internalType": "address",
          "name": "operator",
          "type": "address"
        },
        {
          "internalType": "address",
          "name": "from",
          "type": "address"
        },
        {
          "internalType": "uint256",
          "name": "tokenId",
          "type": "uint256"
        },
        {
          "internalType": "bytes",
          "name": "data",
          "type": "bytes"
        }
      ],
      "name": "onERC721Received",
      "outputs": [
        {
          "internalType": "bytes4",
          "name": "",
          "type": "bytes4"
        }
      ],
      "stateMutability": "nonpayable",
      "type": "function"
    },
    {
      "inputs": [
        {
          "internalType": "bytes4",
          "name": "interfaceID",
          "type": "bytes4"
        }
      ],
      "name": "supportsInterface",
      "outputs": [
        {
          "internalType": "bool",
          "name": "",
          "type": "bool"
        }
      ],
      "stateMutability": "pure",
      "type": "function"
    },
    {
      "stateMutability": "payable",
      "type": "receive"
    },
    {
      "inputs": [],
      "name": "retire",
      "outputs": [
        {
          "internalType": "bool",
          "name": "",
          "type": "bool"
        }
      ],
      "stateMutability": "nonpayable",
      "type": "function"
    },
    {
      "inputs": [],
      "name": "getInfo",
      "outputs": [
        {
          "internalType": "bytes32",
          "name": "",
          "type": "bytes32"
        },
        {
          "internalType": "uint8",
          "name": "",
          "type": "uint8"
        },
        {
          "internalType": "uint8",
          "name": "",
          "type": "uint8"
        },
        {
          "internalType": "uint32",
          "name": "",
          "type": "uint32"
        },
        {
          "internalType": "uint32",
          "name": "",
          "type": "uint32"
        },
        {
          "internalType": "uint8",
          "name": "",
          "type": "uint8"
        },
        {
          "internalType": "address",
          "name": "",
          "type": "address"
        },
        {
          "internalType": "uint256",
          "name": "",
          "type": "uint256"
        }
      ],
      "stateMutability": "view",
      "type": "function"
    },
    {
      "inputs": [],
      "name": "getVersion",
      "outputs": [
        {
          "internalType": "uint32",
          "name": "",
          "type": "uint32"
        },
        {
          "internalType": "uint32",
          "name": "",
          "type": "uint32"
        }
      ],
      "stateMutability": "pure",
      "type": "function"
    },
    {
      "inputs": [],
      "name": "getCurrentSpending",
      "outputs": [
        {
          "internalType": "uint256",
          "name": "",
          "type": "uint256"
        },
        {
          "internalType": "uint256",
          "name": "",
          "type": "uint256"
        }
      ],
      "stateMutability": "view",
      "type": "function"
    },
    {
      "inputs": [],
      "name": "getNonce",
      "outputs": [
        {
          "internalType": "uint8",
          "name": "",
          "type": "uint8"
        }
      ],
      "stateMutability": "view",
      "type": "function"
    },
    {
      "inputs": [],
      "name": "getCommits",
      "outputs": [
        {
          "internalType": "bytes32[]",
          "name": "",
          "type": "bytes32[]"
        },
        {
          "internalType": "bytes32[]",
          "name": "",
          "type": "bytes32[]"
        },
        {
          "internalType": "uint32[]",
          "name": "",
          "type": "uint32[]"
        },
        {
          "internalType": "bool[]",
          "name": "",
          "type": "bool[]"
        }
      ],
      "stateMutability": "pure",
      "type": "function"
    },
    {
      "inputs": [],
      "name": "getAllCommits",
      "outputs": [
        {
          "internalType": "bytes32[]",
          "name": "",
          "type": "bytes32[]"
        },
        {
          "internalType": "bytes32[]",
          "name": "",
          "type": "bytes32[]"
        },
        {
          "internalType": "bytes32[]",
          "name": "",
          "type": "bytes32[]"
        },
        {
          "internalType": "uint32[]",
          "name": "",
          "type": "uint32[]"
        },
        {
          "internalType": "bool[]",
          "name": "",
          "type": "bool[]"
        }
      ],
      "stateMutability": "view",
      "type": "function"
    },
    {
      "inputs": [
        {
          "internalType": "bytes32",
          "name": "",
          "type": "bytes32"
        }
      ],
      "name": "findCommit",
      "outputs": [
        {
          "internalType": "bytes32",
          "name": "",
          "type": "bytes32"
        },
        {
          "internalType": "bytes32",
          "name": "",
          "type": "bytes32"
        },
        {
          "internalType": "uint32",
          "name": "",
          "type": "uint32"
        },
        {
          "internalType": "bool",
          "name": "",
          "type": "bool"
        }
      ],
      "stateMutability": "pure",
      "type": "function"
    },
    {
      "inputs": [
        {
          "internalType": "bytes32",
          "name": "hash",
          "type": "bytes32"
        }
      ],
      "name": "lookupCommit",
      "outputs": [
        {
          "internalType": "bytes32[]",
          "name": "",
          "type": "bytes32[]"
        },
        {
          "internalType": "bytes32[]",
          "name": "",
          "type": "bytes32[]"
        },
        {
          "internalType": "bytes32[]",
          "name": "",
          "type": "bytes32[]"
        },
        {
          "internalType": "uint32[]",
          "name": "",
          "type": "uint32[]"
        },
        {
          "internalType": "bool[]",
          "name": "",
          "type": "bool[]"
        }
      ],
      "stateMutability": "view",
      "type": "function"
    },
    {
      "inputs": [
        {
          "internalType": "bytes32",
          "name": "hash",
          "type": "bytes32"
        },
        {
          "internalType": "bytes32",
          "name": "paramsHash",
          "type": "bytes32"
        },
        {
          "internalType": "bytes32",
          "name": "verificationHash",
          "type": "bytes32"
        }
      ],
      "name": "commit",
      "outputs": [],
      "stateMutability": "nonpayable",
      "type": "function"
    },
    {
      "inputs": [
        {
          "internalType": "bytes32[]",
          "name": "neighbors",
          "type": "bytes32[]"
        },
        {
          "internalType": "uint32",
          "name": "indexWithNonce",
          "type": "uint32"
        },
        {
          "internalType": "bytes32",
          "name": "eotp",
          "type": "bytes32"
        },
        {
          "internalType": "enum ONEWallet.OperationType",
          "name": "operationType",
          "type": "uint8"
        },
        {
          "internalType": "enum TokenManager.TokenType",
          "name": "tokenType",
          "type": "uint8"
        },
        {
          "internalType": "address",
          "name": "contractAddress",
          "type": "address"
        },
        {
          "internalType": "uint256",
          "name": "tokenId",
          "type": "uint256"
        },
        {
          "internalType": "address payable",
          "name": "dest",
          "type": "address"
        },
        {
          "internalType": "uint256",
          "name": "amount",
          "type": "uint256"
        },
        {
          "internalType": "bytes",
          "name": "data",
          "type": "bytes"
        }
      ],
      "name": "reveal",
      "outputs": [],
      "stateMutability": "nonpayable",
      "type": "function"
    }
  ],
  "bytecode": "0x6101206040523480156200001257600080fd5b50604051620061d1380380620061d1833981016040819052620000359162000122565b600288905560f887811b7fff0000000000000000000000000000000000000000000000000000000000000090811660805287821b811660a0526003805460e088811b6001600160e01b03191660c05263ffffffff8a166001600160c01b0319909216919091176401000000006001600160a01b038816021790915560048490559185901b169052620000c9600188620002dd565b620000d69060026200020f565b60e01b6001600160e01b0319166101005250620003199650505050505050565b805163ffffffff811681146200010b57600080fd5b919050565b805160ff811681146200010b57600080fd5b600080600080600080600080610100898b0312156200013f578384fd5b885197506200015160208a0162000110565b96506200016160408a0162000110565b95506200017160608a01620000f6565b94506200018160808a01620000f6565b93506200019160a08a0162000110565b60c08a01519093506001600160a01b0381168114620001ae578283fd5b8092505060e089015190509295985092959890939650565b600181815b8085111562000207578160001904821115620001eb57620001eb62000303565b80851615620001f957918102915b93841c9390800290620001cb565b509250929050565b60006200022060ff84168362000227565b9392505050565b6000826200023857506001620002d7565b816200024757506000620002d7565b81600181146200026057600281146200026b576200028b565b6001915050620002d7565b60ff8411156200027f576200027f62000303565b50506001821b620002d7565b5060208310610133831016604e8410600b8410161715620002b0575081810a620002d7565b620002bc8383620001c6565b8060001904821115620002d357620002d362000303565b0290505b92915050565b600060ff821660ff841680821015620002fa57620002fa62000303565b90039392505050565b634e487b7160e01b600052601160045260246000fd5b60805160f81c60a05160f81c60c05160e01c60e05160f81c6101005160e01c615e17620003ba600039600081816112cc01526124000152600081816104f00152818161285d015261288e0152600081816104c90152611047015260008181610492015281816110710152818161162d01528181612a2f01528181612d1701526141920152600081816104670152818161231101526124440152615e176000f3fe6080604052600436106100f75760003560e01c8063a17027e11161008a578063d087d28811610059578063d087d288146105d8578063d87458a3146105ff578063e4e5b2581461061f578063f23a6e611461063f57600080fd5b8063a17027e11461055d578063a4874d7714610583578063bc197c8114610598578063c34a6dad146105b857600080fd5b80632293d3fb116100c65780632293d3fb146103f65780632f1f7520146104235780635a9b0b8914610448578063695def4c1461053957600080fd5b806301ffc9a7146103185780630d8e6e2c1461034d578063150b7a021461036f5780631cf4ea05146103a857600080fd5b3661031357604080513481523360208201527fa26ab80e902f2055a125714fc6f2eb15df2a09c7fe39c7fc71204ffba72109db910160405180910390a16008546001600160a01b031615610228576008546040516000916001600160a01b03169034908381818185875af1925050503d8060008114610192576040519150601f19603f3d011682016040523d82523d6000602084013e610197565b606091505b50509050806101ed5760405162461bcd60e51b815260206004820152601760248201527f466f7277617264207061796d656e74206661696c75726500000000000000000060448201526064015b60405180910390fd5b604080513481523360208201527f6e8641fc34fdcf9d67683d1a8ced72ff01d27ff86ff3b1d338fa6165e496c73f910160405180910390a150005b670de0b6b3a7640000341461023957005b600354600160201b90046001600160a01b0316331461025457005b3330141561025e57005b6212750060075461026f9190615ad8565b4210156102cd577fe58fb6bc612703a64f091af2ff6a6831eca838a0301129ab6879cab20d6d7c8c33621275006007546102a99190615ad8565b604080516001600160a01b03909316835260208301919091520160405180910390a1005b6040513381527f0cbe1fea4becf04af2176bbef0c9c53d439d30a05a197aacc38bb4a2873222e39060200160405180910390a161030861065f565b61031157600080fd5b005b600080fd5b34801561032457600080fd5b506103386103333660046153ea565b6106fb565b60405190151581526020015b60405180910390f35b34801561035957600080fd5b5060408051600981526000602082015201610344565b34801561037b57600080fd5b5061038f61038a3660046150ef565b61074d565b6040516001600160e01b03199091168152602001610344565b3480156103b457600080fd5b506103c86103c336600461538f565b610831565b6040516103449493929190938452602084019290925263ffffffff1660408301521515606082015260800190565b34801561040257600080fd5b506005546006546040805192835263ffffffff909116602083015201610344565b34801561042f57600080fd5b5061043861086e565b604051610344949392919061575e565b34801561045457600080fd5b50600254600354600454604080519384527f000000000000000000000000000000000000000000000000000000000000000060ff90811660208601527f000000000000000000000000000000000000000000000000000000000000000081169185019190915263ffffffff80841660608601527f00000000000000000000000000000000000000000000000000000000000000001660808501527f00000000000000000000000000000000000000000000000000000000000000001660a0840152600160201b9091046001600160a01b031660c083015260e082015261010001610344565b34801561054557600080fd5b5061054e6108ab565b604051610344939291906157ab565b34801561056957600080fd5b50610572610b99565b6040516103449594939291906156fd565b34801561058f57600080fd5b5061033861103a565b3480156105a457600080fd5b5061038f6105b3366004615035565b611195565b3480156105c457600080fd5b506103116105d33660046151d8565b6112a7565b3480156105e457600080fd5b506105ed611618565b60405160ff9091168152602001610344565b34801561060b57600080fd5b5061057261061a36600461538f565b61167b565b34801561062b57600080fd5b5061031161063a3660046153bf565b6119e9565b34801561064b57600080fd5b5061038f61065a36600461515f565b611afb565b6003546040516000918291600160201b9091046001600160a01b03169047908381818185875af1925050503d80600081146106b6576040519150601f19603f3d011682016040523d82523d6000602084013e6106bb565b606091505b5050905080156106f65760035460088054600160201b9092046001600160a01b03166001600160a01b0319909216821790556106f690611bdf565b919050565b60006001600160e01b031982166301ffc9a760e01b148061072c57506001600160e01b0319821663f23a6e6160e01b145b8061074757506001600160e01b03198216630a85bd0160e11b145b92915050565b60007feb7a68d5a205eea79480f44587fe8146ae15b7e92582967fd1b1b119c9b60efa60018087338a89898960405161078d9897969594939291906159af565b60405180910390a160006107a96008546001600160a01b031690565b90506001600160a01b03811615610810576108006001338784600189898080601f016020809104026020016040519081016040528093929190818152602001838380828437600092019190915250611c4892505050565b50630a85bd0160e11b9050610828565b61081c60013387611fc5565b50630a85bd0160e11b90505b95945050505050565b60008060008060405162461bcd60e51b81526004016101e4906020808252600a908201526911195c1c9958d85d195960b21b604082015260600190565b60608060608060405162461bcd60e51b81526004016101e4906020808252600a908201526911195c1c9958d85d195960b21b604082015260600190565b606080606060006001805490506001600160401b038111156108dd57634e487b7160e01b600052604160045260246000fd5b604051908082528060200260200182016040528015610906578160200160208202803683370190505b506001549091506000906001600160401b0381111561093557634e487b7160e01b600052604160045260246000fd5b60405190808252806020026020018201604052801561095e578160200160208202803683370190505b506001549091506000906001600160401b0381111561098d57634e487b7160e01b600052604160045260246000fd5b6040519080825280602002602001820160405280156109b6578160200160208202803683370190505b50905060005b60015463ffffffff82161015610b8c5760018163ffffffff16815481106109f357634e487b7160e01b600052603260045260246000fd5b6000918252602090912060029091020154845160ff90911690859063ffffffff8416908110610a3257634e487b7160e01b600052603260045260246000fd5b60200260200101906003811115610a5957634e487b7160e01b600052602160045260246000fd5b90816003811115610a7a57634e487b7160e01b600052602160045260246000fd5b8152505060018163ffffffff1681548110610aa557634e487b7160e01b600052603260045260246000fd5b906000526020600020906002020160000160019054906101000a90046001600160a01b0316838263ffffffff1681518110610af057634e487b7160e01b600052603260045260246000fd5b60200260200101906001600160a01b031690816001600160a01b03168152505060018163ffffffff1681548110610b3757634e487b7160e01b600052603260045260246000fd5b906000526020600020906002020160010154828263ffffffff1681518110610b6f57634e487b7160e01b600052603260045260246000fd5b602090810291909101015280610b8481615c6c565b9150506109bc565b5091959094509092509050565b60608060608060606000805b600c5463ffffffff82161015610c23576000600d6000600c8463ffffffff1681548110610be257634e487b7160e01b600052603260045260246000fd5b906000526020600020015481526020019081526020016000209050808054905083610c0d9190615af0565b9250508080610c1b90615c6c565b915050610ba5565b5060008163ffffffff166001600160401b03811115610c5257634e487b7160e01b600052604160045260246000fd5b604051908082528060200260200182016040528015610c7b578160200160208202803683370190505b50905060008263ffffffff166001600160401b03811115610cac57634e487b7160e01b600052604160045260246000fd5b604051908082528060200260200182016040528015610cd5578160200160208202803683370190505b50905060008363ffffffff166001600160401b03811115610d0657634e487b7160e01b600052604160045260246000fd5b604051908082528060200260200182016040528015610d2f578160200160208202803683370190505b50905060008463ffffffff166001600160401b03811115610d6057634e487b7160e01b600052604160045260246000fd5b604051908082528060200260200182016040528015610d89578160200160208202803683370190505b50905060008563ffffffff166001600160401b03811115610dba57634e487b7160e01b600052604160045260246000fd5b604051908082528060200260200182016040528015610de3578160200160208202803683370190505b5090506000805b600c5463ffffffff82161015611027576000600d6000600c8463ffffffff1681548110610e2757634e487b7160e01b600052603260045260246000fd5b90600052602060002001548152602001908152602001600020905060005b815463ffffffff82161015611012576000828263ffffffff1681548110610e7c57634e487b7160e01b600052603260045260246000fd5b90600052602060002090600302019050600c8463ffffffff1681548110610eb357634e487b7160e01b600052603260045260246000fd5b90600052602060002001548a8663ffffffff1681518110610ee457634e487b7160e01b600052603260045260246000fd5b6020026020010181815250508060000154898663ffffffff1681518110610f1b57634e487b7160e01b600052603260045260246000fd5b6020026020010181815250508060010154888663ffffffff1681518110610f5257634e487b7160e01b600052603260045260246000fd5b60209081029190910101526002810154875163ffffffff918216918991908816908110610f8f57634e487b7160e01b600052603260045260246000fd5b602002602001019063ffffffff16908163ffffffff16815250508060020160049054906101000a900460ff16868663ffffffff1681518110610fe157634e487b7160e01b600052603260045260246000fd5b9115156020928302919091019091015284610ffb81615c6c565b95505050808061100a90615c6c565b915050610e45565b5050808061101f90615c6c565b915050610dea565b50949b939a509198509650945092505050565b60035460009063ffffffff7f00000000000000000000000000000000000000000000000000000000000000008116911661109760ff7f00000000000000000000000000000000000000000000000000000000000000001642615b18565b6110a19190615bb1565b63ffffffff16116110ea5760405162461bcd60e51b8152602060048201526013602482015272546f6f206561726c7920746f2072657469726560681b60448201526064016101e4565b600354600160201b90046001600160a01b03166111495760405162461bcd60e51b815260206004820152601e60248201527f4c617374207265736f72742061646472657373206973206e6f7420736574000060448201526064016101e4565b61115161065f565b61118f5760405162461bcd60e51b815260206004820152600f60248201526e149958dbdd995c9e4819985a5b1959608a1b60448201526064016101e4565b50600190565b6000805b63ffffffff8116871115611291573063f23a6e618b8b8b8b63ffffffff87168181106111d557634e487b7160e01b600052603260045260246000fd5b905060200201358a8a8763ffffffff1681811061120257634e487b7160e01b600052603260045260246000fd5b9050602002013589896040518763ffffffff1660e01b815260040161122c96959493929190615648565b602060405180830381600087803b15801561124657600080fd5b505af115801561125a573d6000803e3d6000fd5b505050506040513d601f19601f8201168201806040525081019061127e9190615406565b508061128981615c6c565b915050611199565b5063bc197c8160e01b9998505050505050505050565b6008546001600160a01b031633146113df576112c58c8c8c8c61230a565b6112f060017f0000000000000000000000000000000000000000000000000000000000000000615bb1565b63ffffffff168a63ffffffff16141561137e57600688600a81111561132557634e487b7160e01b600052602160045260246000fd5b1461137e5760405162461bcd60e51b815260206004820152602360248201527f4c617374206f7065726174696f6e20726573657276656420666f72207265636f6044820152623b32b960e91b60648201526084016101e4565b6000806113bb8e8e60008181106113a557634e487b7160e01b600052603260045260246000fd5b905060200201358d8d8d8d8d8d8d8d8d8d61263b565b9150915060006113ce838e848f8f612853565b90506113db83828d612c26565b5050505b600088600a81111561140157634e487b7160e01b600052602160045260246000fd5b141561142757801561141c576114178282612d7c565b61160a565b611417878787611fc5565b600188600a81111561144957634e487b7160e01b600052602160045260246000fd5b141561146a57801561146057611417878787612f0c565b611417828261355a565b600288600a81111561148c57634e487b7160e01b600052602160045260246000fd5b14156114d657611417878787878787878080601f016020809104026020016040519081016040528093929190818152602001838380828437600092019190915250611c4892505050565b600388600a8111156114f857634e487b7160e01b600052602160045260246000fd5b1415611508576114178282613630565b600488600a81111561152a57634e487b7160e01b600052602160045260246000fd5b14156115405761153a84846137f8565b5061160a565b600688600a81111561156257634e487b7160e01b600052602160045260246000fd5b14156115705761153a613a1a565b600588600a81111561159257634e487b7160e01b600052602160045260246000fd5b14156115a15761141784613a9e565b600a88600a8111156115c357634e487b7160e01b600052602160045260246000fd5b14156115d75761153a828285888a89613b36565b600988600a8111156115f957634e487b7160e01b600052602160045260246000fd5b141561160a5761160a848383613cdb565b505050505050505050505050565b600354600090819063ffffffff1661165360ff7f00000000000000000000000000000000000000000000000000000000000000001642615b2c565b61165d9190615bb1565b63ffffffff166000908152600a602052604090205460ff1692915050565b6000818152600d6020526040812080546060928392839283928392916001600160401b038111156116bc57634e487b7160e01b600052604160045260246000fd5b6040519080825280602002602001820160405280156116e5578160200160208202803683370190505b5082549091506000906001600160401b0381111561171357634e487b7160e01b600052604160045260246000fd5b60405190808252806020026020018201604052801561173c578160200160208202803683370190505b5083549091506000906001600160401b0381111561176a57634e487b7160e01b600052604160045260246000fd5b604051908082528060200260200182016040528015611793578160200160208202803683370190505b5084549091506000906001600160401b038111156117c157634e487b7160e01b600052604160045260246000fd5b6040519080825280602002602001820160405280156117ea578160200160208202803683370190505b5085549091506000906001600160401b0381111561181857634e487b7160e01b600052604160045260246000fd5b604051908082528060200260200182016040528015611841578160200160208202803683370190505b50905060005b865463ffffffff821610156119d5576000878263ffffffff168154811061187e57634e487b7160e01b600052603260045260246000fd5b906000526020600020906003020190508d878363ffffffff16815181106118b557634e487b7160e01b600052603260045260246000fd5b6020026020010181815250508060000154868363ffffffff16815181106118ec57634e487b7160e01b600052603260045260246000fd5b6020026020010181815250508060010154858363ffffffff168151811061192357634e487b7160e01b600052603260045260246000fd5b60209081029190910101526002810154845163ffffffff91821691869190851690811061196057634e487b7160e01b600052603260045260246000fd5b602002602001019063ffffffff16908163ffffffff16815250508060020160049054906101000a900460ff16838363ffffffff16815181106119b257634e487b7160e01b600052603260045260246000fd5b9115156020928302919091019091015250806119cd81615c6c565b915050611847565b50939b929a50909850965090945092505050565b6119f1613cf5565b604080516080810182528381526020810183905263ffffffff42169181019190915260006060820152600c54607811611a5f5760405162461bcd60e51b815260206004820152601060248201526f546f6f206d616e7920636f6d6d69747360801b60448201526064016101e4565b600c805460018181019092557fdf6966c971051c3d54ec59162606531493a51404a002842f56009d7e5cf4a8c7018590556000948552600d60209081526040808720805480850182559088529682902084516003909802019687559083015191860191909155810151600290940180546060909201511515600160201b0264ffffffffff1990921663ffffffff90951694909417179092555050565b60007feb7a68d5a205eea79480f44587fe8146ae15b7e92582967fd1b1b119c9b60efa60028588338b8a8989604051611b3b9897969594939291906159af565b60405180910390a16000611b576008546001600160a01b031690565b90506001600160a01b03811615611bbd57611bad60023388848989898080601f016020809104026020016040519081016040528093929190818152602001838380828437600092019190915250611c4892505050565b5063f23a6e6160e01b9050611bd5565b611bc960023388611fc5565b5063f23a6e6160e01b90505b9695505050505050565b60015460005b818163ffffffff161015611c4357611c318360018363ffffffff1681548110611c1e57634e487b7160e01b600052603260045260246000fd5b9060005260206000209060020201613fc9565b80611c3b81615c6c565b915050611be5565b505050565b6000866003811115611c6a57634e487b7160e01b600052602160045260246000fd5b1415611e225760405163a9059cbb60e01b81526001600160a01b0384811660048301526024820184905286169063a9059cbb90604401602060405180830381600087803b158015611cba57600080fd5b505af1925050508015611cea575060408051601f3d908101601f19168201909252611ce79181019061536f565b60015b611da357611cf6615d15565b806308c379a01415611d5d5750611d0b615d2d565b80611d165750611d5f565b7fb2c309e26e7b2de22ddccb000bdb486012c32f2d701ded2884bad91974065cba878787878786604051611d4f969594939291906158ee565b60405180910390a150611fbd565b505b7fb2c309e26e7b2de22ddccb000bdb486012c32f2d701ded2884bad91974065cba8686868686604051611d96959493929190615935565b60405180910390a1611fbd565b8015611deb57611db4878787611fc5565b7f1b7af2671454aac8f59a0b294dd30d582e2df89a6efef446afd125b268795b318787878787604051611d4f9594939291906158b3565b7f75a36803468aca74d964b22522480470a7a3f2121daa5994c2a937aec85d23298787878787604051611d4f9594939291906158b3565b6001866003811115611e4457634e487b7160e01b600052602160045260246000fd5b1415611eea57604051635c46a7ef60e11b81526001600160a01b0386169063b88d4fde90611e7c903090879089908790600401615615565b600060405180830381600087803b158015611e9657600080fd5b505af1925050508015611ea7575060015b611eb357611cf6615d15565b7f1b7af2671454aac8f59a0b294dd30d582e2df89a6efef446afd125b268795b318686868686604051611d969594939291906158b3565b6002866003811115611f0c57634e487b7160e01b600052602160045260246000fd5b1415611fbd57604051637921219560e11b81526001600160a01b0386169063f242432a90611f46903090879089908890889060040161568f565b600060405180830381600087803b158015611f6057600080fd5b505af1925050508015611f71575060015b611f7d57611cf6615d15565b7f1b7af2671454aac8f59a0b294dd30d582e2df89a6efef446afd125b268795b318686868686604051611fb49594939291906158b3565b60405180910390a15b505050505050565b6000836003811115611fe757634e487b7160e01b600052602160045260246000fd5b604080516020810192909252606085811b6001600160601b03191691830191909152810183905260800160408051601f198184030181529181528151602092830120600081815292839052912054909150156121c05760005b60008281526020819052604090205463ffffffff821610156121be576000828152602081905260408120805463ffffffff841690811061209057634e487b7160e01b600052603260045260246000fd5b906000526020600020015490508560038111156120bd57634e487b7160e01b600052602160045260246000fd5b600182815481106120de57634e487b7160e01b600052603260045260246000fd5b600091825260209091206002909102015460ff16600381111561211157634e487b7160e01b600052602160045260246000fd5b1461211c57506121ac565b836001828154811061213e57634e487b7160e01b600052603260045260246000fd5b9060005260206000209060020201600101541461215b57506121ac565b846001600160a01b03166001828154811061218657634e487b7160e01b600052603260045260246000fd5b600091825260209091206002909102015461010090046001600160a01b031614611fbd57505b806121b681615c6c565b915050612040565b505b600060405180606001604052808660038111156121ed57634e487b7160e01b600052602160045260246000fd5b81526001600160a01b038616602080830191909152604091820186905260008581528082529182206001805482548083018455928552928420909101919091558054808201825591819052825160029092027fb10e2d527612073b26eecdfd717e6a320cf44b4afac2b0732d9fcbe2b7fa0cf60180549394508493909291839160ff19169083600381111561229257634e487b7160e01b600052602160045260246000fd5b0217905550602082015181546001600160a01b0390911661010002610100600160a81b0319909116178155604091820151600190910155517f7e1890e95e59ca252ad98a9bbeeb8c7f6ce5269f06ecb4f0cb5ebcee5770c2a2906122fb9087908790879061588b565b60405180910390a15050505050565b61233560017f0000000000000000000000000000000000000000000000000000000000000000615bd6565b60ff1683146123865760405162461bcd60e51b815260206004820152601d60248201527f4e6f7420656e6f756768206e65696768626f72732070726f766964656400000060448201526064016101e4565b600060028260405160200161239d91815260200190565b60408051601f19818403018152908290526123b7916155f9565b602060405180830381855afa1580156123d4573d6000803e3d6000fd5b5050506040513d601f19601f820116820180604052508101906123f791906153a7565b905061242460017f0000000000000000000000000000000000000000000000000000000000000000615bb1565b63ffffffff168363ffffffff16141561243a5750805b60005b61246860017f0000000000000000000000000000000000000000000000000000000000000000615bd6565b60ff168160ff1610156125ec576001808516141561252857600286868360ff168181106124a557634e487b7160e01b600052603260045260246000fd5b90506020020135836040516020016124c7929190918252602082015260400190565b60408051601f19818403018152908290526124e1916155f9565b602060405180830381855afa1580156124fe573d6000803e3d6000fd5b5050506040513d601f19601f8201168201806040525081019061252191906153a7565b91506125cc565b60028287878460ff1681811061254e57634e487b7160e01b600052603260045260246000fd5b9050602002013560405160200161256f929190918252602082015260400190565b60408051601f1981840301815290829052612589916155f9565b602060405180830381855afa1580156125a6573d6000803e3d6000fd5b5050506040513d601f19601f820116820180604052508101906125c991906153a7565b91505b60018463ffffffff16901c935080806125e490615c90565b91505061243d565b5080600254146126335760405162461bcd60e51b8152602060048201526012602482015271141c9bdbd9881a5cc81a5b98dbdc9c9958dd60721b60448201526064016101e4565b505b50505050565b60008060008d8d60e01b6001600160e01b0319168d604051602001612673939291909283526020830191909152604082015260600190565b60408051601f1981840301815291905280516020909101209050600060048c600a8111156126b157634e487b7160e01b600052602160045260246000fd5b14156126f4576040805160608a811b6001600160601b0319166020830152918101899052015b60405160208183030381529060405280519060200120905061283f565b60068c600a81111561271657634e487b7160e01b600052602160045260246000fd5b141561273b57858560405161272c9291906155e9565b6040518091039020905061283f565b60058c600a81111561275d57634e487b7160e01b600052602160045260246000fd5b141561278157604080516001600160601b031960608b901b166020820152016126d7565b60008c600a8111156127a357634e487b7160e01b600052602160045260246000fd5b8c60038111156127c357634e487b7160e01b600052602160045260246000fd5b60001b8c60601b6001600160601b0319168c60001b8c60601b6001600160601b0319168c60001b8c8c6040516020016128039897969594939291906155ac565b60405160208183030381529060405290508060405160200161282591906155f9565b604051602081830303815290604052805190602001209150505b909e909d509b505050505050505050505050565b60008061288360ff7f00000000000000000000000000000000000000000000000000000000000000001687615b2c565b905060006128b460ff7f00000000000000000000000000000000000000000000000000000000000000001688615cb0565b6000898152600d602052604090208054919250906129065760405162461bcd60e51b815260206004820152600f60248201526e139bc818dbdb5b5a5d08199bdd5b99608a1b60448201526064016101e4565b60005b815463ffffffff82161015612beb576000828263ffffffff168154811061294057634e487b7160e01b600052603260045260246000fd5b906000526020600020906003020190506000816000015489604051602001612972929190918252602082015260400190565b6040516020818303038152906040528051906020012090508082600101541461299c575050612bd9565b81548a146129ec5760405162461bcd60e51b815260206004820152601760248201527f506172616d657465722068617368206d69736d6174636800000000000000000060448201526064016101e4565b600688600a811115612a0e57634e487b7160e01b600052602160045260246000fd5b14612b1d57600354600283015460009163ffffffff90811691612a569160ff7f0000000000000000000000000000000000000000000000000000000000000000169116615b2c565b612a609190615bb1565b90508663ffffffff168163ffffffff1614612abd5760405162461bcd60e51b815260206004820152601a60248201527f496e646578202d2074696d657374616d70206d69736d6174636800000000000060448201526064016101e4565b63ffffffff81166000908152600a602052604090205460ff908116908716811115612b1a5760405162461bcd60e51b815260206004820152600d60248201526c4e6f6e636520746f6f206c6f7760981b60448201526064016101e4565b50505b6002820154600160201b900460ff1615612b795760405162461bcd60e51b815260206004820152601860248201527f436f6d6d697420616c726561647920636f6d706c65746564000000000000000060448201526064016101e4565b6002820154612b8d9063ffffffff166140b9565b612bcb5760405162461bcd60e51b815260206004820152600f60248201526e52657665616c20746f6f206c61746560881b60448201526064016101e4565b829650505050505050610828565b80612be381615c6c565b915050612909565b5060405162461bcd60e51b815260206004820152600f60248201526e139bc81d985b1a590818dbdb5b5a5d608a1b60448201526064016101e4565b6000838152600d602052604090208054612c5057634e487b7160e01b600052600160045260246000fd5b805463ffffffff841610612c7457634e487b7160e01b600052600160045260246000fd5b6000818463ffffffff1681548110612c9c57634e487b7160e01b600052603260045260246000fd5b60009182526020909120600390910201600281015490915063ffffffff16612cd457634e487b7160e01b600052600160045260246000fd5b600683600a811115612cf657634e487b7160e01b600052602160045260246000fd5b14612d5d57600354600282015460009163ffffffff90811691612d3e9160ff7f0000000000000000000000000000000000000000000000000000000000000000169116615b2c565b612d489190615bb1565b9050612d53816140d4565b612d5b61417a565b505b600201805464ff000000001916600160201b1790555050426007555050565b6000612d89606083615b18565b905081612d97826060615b6e565b63ffffffff1614612dba5760405162461bcd60e51b81526004016101e490615a45565b60005b8163ffffffff168163ffffffff161015612635576000612e4d8585612de3856060615b6e565b63ffffffff1690612df5866060615b6e565b612e00906020615af0565b63ffffffff1692612e1393929190615ab0565b8080601f01602080910402602001604051908101604052809392919081815260200183838082843760009201919091525061442092505050565b6003811115612e6c57634e487b7160e01b600052602160045260246000fd5b90506000612ea88686612e80866060615b6e565b612e8b906020615af0565b63ffffffff1690612e9d876060615b6e565b612e00906034615af0565b60601c90506000612ee98787866060612ec19190615b6e565b612ecc906040615af0565b63ffffffff1690612ede886060615b6e565b612e00906060615af0565b9050612ef6838383611fc5565b5050508080612f0490615c6c565b915050612dbd565b6000836003811115612f2e57634e487b7160e01b600052602160045260246000fd5b604080516020810192909252606085811b6001600160601b03191691830191909152810183905260800160408051601f198184030181529181528151602092830120600081815292839052912054909150612f895750505050565b60005b60008281526020819052604090205463ffffffff82161015613518576000828152602081905260408120805463ffffffff8416908110612fdc57634e487b7160e01b600052603260045260246000fd5b9060005260206000200154905085600381111561300957634e487b7160e01b600052602160045260246000fd5b6001828154811061302a57634e487b7160e01b600052603260045260246000fd5b600091825260209091206002909102015460ff16600381111561305d57634e487b7160e01b600052602160045260246000fd5b146130685750613506565b836001828154811061308a57634e487b7160e01b600052603260045260246000fd5b906000526020600020906002020160010154146130a75750613506565b846001600160a01b0316600182815481106130d257634e487b7160e01b600052603260045260246000fd5b600091825260209091206002909102015461010090046001600160a01b0316146130fc5750613506565b6001805460009161310c91615b9a565b90506001818154811061312f57634e487b7160e01b600052603260045260246000fd5b90600052602060002090600202016001838154811061315e57634e487b7160e01b600052603260045260246000fd5b6000918252602090912082546002909202018054909160ff1690829060ff191660018360038111156131a057634e487b7160e01b600052602160045260246000fd5b021790555081548154610100600160a81b031916610100918290046001600160a01b031690910217815560019182015490820155805460009190849081106131f857634e487b7160e01b600052603260045260246000fd5b600091825260209091206002909102015460ff16600381111561322b57634e487b7160e01b600052602160045260246000fd5b600180548590811061324d57634e487b7160e01b600052603260045260246000fd5b906000526020600020906002020160000160019054906101000a90046001600160a01b031660601b6001600160601b031916600185815481106132a057634e487b7160e01b600052603260045260246000fd5b90600052602060002090600202016001015460001b6040516020016132d8939291909283526020830191909152604082015260600190565b604051602081830303815290604052805190602001209050600180548061330f57634e487b7160e01b600052603160045260246000fd5b60008281526020812060026000199093019283020180546001600160a81b031916815560010181905591555b60008281526020819052604090205463ffffffff821610156133f757826000808481526020019081526020016000208263ffffffff168154811061338f57634e487b7160e01b600052603260045260246000fd5b906000526020600020015414156133e557836000808481526020019081526020016000208263ffffffff16815481106133d857634e487b7160e01b600052603260045260246000fd5b6000918252602090912001555b806133ef81615c6c565b91505061333b565b506000858152602081905260409020805461341490600190615b9a565b8154811061343257634e487b7160e01b600052603260045260246000fd5b9060005260206000200154600080878152602001908152602001600020848154811061346e57634e487b7160e01b600052603260045260246000fd5b90600052602060002001819055506000808681526020019081526020016000208054806134ab57634e487b7160e01b600052603160045260246000fd5b600190038181906000526020600020016000905590557f166bc904e3b7f8699e175923a2635944dd9ac0dc817927aac60d854d23a82b9b8888886040516134f49392919061588b565b60405180910390a15050505050505050565b8061351081615c6c565b915050612f8c565b507ffc773cf3883ef83133327fbc62fe0a7c3c96add34a1781cae66ba5de7efa3f5f84848460405161354c9392919061588b565b60405180910390a150505050565b6000613567606083615b18565b905081613575826060615b6e565b63ffffffff16146135985760405162461bcd60e51b81526004016101e490615a45565b60005b8163ffffffff168163ffffffff1610156126355760006135c18585612de3856060615b6e565b60038111156135e057634e487b7160e01b600052602160045260246000fd5b905060006135f48686612e80866060615b6e565b60601c9050600061360d8787866060612ec19190615b6e565b905061361a838383612f0c565b505050808061362890615c6c565b91505061359b565b600061363d606083615b18565b90508161364b826060615b6e565b63ffffffff161461366e5760405162461bcd60e51b81526004016101e490615a45565b60008163ffffffff166001600160401b0381111561369c57634e487b7160e01b600052604160045260246000fd5b6040519080825280602002602001820160405280156136e757816020015b60408051606081018252600080825260208083018290529282015282526000199092019101816136ba5790505b50905060005b8263ffffffff168163ffffffff1610156137ee5760006137138686612de3856060615b6e565b600381111561373257634e487b7160e01b600052602160045260246000fd5b905060006137468787612e80866060615b6e565b60601c9050600061375f8888866060612ec19190615b6e565b60001c9050604051806060016040528084600381111561378f57634e487b7160e01b600052602160045260246000fd5b8152602001836001600160a01b0316815260200182815250858563ffffffff16815181106137cd57634e487b7160e01b600052603260045260246000fd5b602002602001018190525050505080806137e690615c6c565b9150506136ed565b50612635816144ac565b6000806138086201518042615b18565b60065490915063ffffffff908116908216111561383a5760006005556006805463ffffffff191663ffffffff83161790555b6004548360055461384b9190615ad8565b11156138b0576004546005546040805186815260208101939093528201526001600160a01b03851660608201527f705f289c5579ebb63d8c90ed39a42a76ded07641efe4f445a9a97d1e95c75c68906080015b60405180910390a16000915050610747565b8247101561390057604080518481524760208201526001600160a01b038616918101919091527fd90084f259c3c1dbd378c6c23cff1383005852e0d9829773e15afdbaf15fb7d89060600161389e565b82600560008282546139129190615ad8565b90915550506040516000906001600160a01b0386169085908381818185875af1925050503d8060008114613962576040519150601f19603f3d011682016040523d82523d6000602084013e613967565b606091505b50509050806139ce5783600560008282546139829190615b9a565b90915550506040516001600160a01b03861681527f2c7068ca7f82b1436494678e109b299bc751ccbb88d560f7c011b48dfdb2117b9060200160405180910390a1600092505050610747565b604080518581526001600160a01b03871660208201527f8f4636f285a9a17fe3479ab47bb7a5deadaf9b2295a16c3965f55fa48e542d1f910160405180910390a1506001949350505050565b600354600090600160201b90046001600160a01b0316613a63576040517fc27dbdcf29e2a161f0420d399444129801e578bafe157fef0370098459e082bf90600090a150600090565b613a6b61065f565b61118f576040517fa3a244603d968c02ebd2017f990d4e077cf0381929976be2a0cb07076147a56f90600090a150600090565b600354600160201b90046001600160a01b031615613b095760405162461bcd60e51b815260206004820152602260248201527f4c617374207265736f7274206164647265737320697320616c72656164792073604482015261195d60f21b60648201526084016101e4565b600380546001600160a01b03909216600160201b02640100000000600160c01b0319909216919091179055565b6000808080613b47898b018b614f99565b9250925092506000819050604081511115613ba2577f33557e0aaadebaec256dc2a717f4ebff50c8eb6bc8d70860d679d8151231b06e8289604051613b8d929190615a20565b60405180910390a16000945050505050611bd5565b8760ff1681511015613bdf577f33557e0aaadebaec256dc2a717f4ebff50c8eb6bc8d70860d679d8151231b06e8289604051613b8d929190615a20565b60008860ff166001600160401b03811115613c0a57634e487b7160e01b600052604160045260246000fd5b6040519080825280601f01601f191660200182016040528015613c34576020820181803683370190505b50905060005b8960ff16811015613cb957828181518110613c6557634e487b7160e01b600052603260045260246000fd5b602001015160f81c60f81b828281518110613c9057634e487b7160e01b600052603260045260246000fd5b60200101906001600160f81b031916908160001a90535080613cb181615c51565b915050613c3a565b5080613cca89878a8e858a8a614867565b9d9c50505050505050505050505050565b6000613ce9828401846152bd565b90506126358482614a79565b6000425b600c5463ffffffff83161015613dcb576000600c8363ffffffff1681548110613d3257634e487b7160e01b600052603260045260246000fd5b6000918252602080832090910154808352600d9091526040909120805491925090613d5e575050613db9565b600081600081548110613d8157634e487b7160e01b600052603260045260246000fd5b6000918252602090912060026003909202019081015490915063ffffffff603b1986018116911610613db557505050613dcb565b5050505b81613dc381615c6c565b925050613cf9565b63ffffffff8216613dda575050565b60005b8263ffffffff168163ffffffff161015613ed6576000600c8263ffffffff1681548110613e1a57634e487b7160e01b600052603260045260246000fd5b6000918252602080832090910154808352600d90915260408220909250905b815463ffffffff82161015613ea957818163ffffffff1681548110613e6e57634e487b7160e01b600052603260045260246000fd5b6000918252602082206003909102018181556001810191909155600201805464ffffffffff1916905580613ea181615c6c565b915050613e39565b506000828152600d60205260408120613ec191614d39565b50508080613ece90615c6c565b915050613ddd565b50600c54825b8163ffffffff168163ffffffff161015613f6957600c8163ffffffff1681548110613f1757634e487b7160e01b600052603260045260246000fd5b9060005260206000200154600c85830363ffffffff1681548110613f4b57634e487b7160e01b600052603260045260246000fd5b60009182526020909120015580613f6181615c6c565b915050613edc565b5060005b8363ffffffff168163ffffffff16101561263557600c805480613fa057634e487b7160e01b600052603160045260246000fd5b600190038181906000526020600020016000905590558080613fc190615c6c565b915050613f6d565b60018101548154604080516060810190915260ff82169161010090046001600160a01b03169060009061405f90868186600381111561401857634e487b7160e01b600052602160045260246000fd5b600381111561403757634e487b7160e01b600052602160045260246000fd5b8152815461010090046001600160a01b03166020820152600190910154604090910152614af5565b90508015611fbd57614084838386898560405180602001604052806000815250611c48565b7ff55f4f66ca397ce834b2245859167c6912466e110505839852dbb803c0c0465383838684604051611fb4949392919061597d565b6000603c6140c78342615bb1565b63ffffffff161092915050565b63ffffffff81166000908152600a602052604090205460ff168061414d57600b80546001810182556000919091527f0175b7a638427703f0dbe7bb9bbf987a2551717b34e79f33b5b1008d1fa01db96008820401805460079092166004026101000a63ffffffff81810219909316928516029190911790555b63ffffffff919091166000908152600a60205260409020805460ff1916600190920160ff16919091179055565b6000614187603c42615bb1565b905060006141b860ff7f00000000000000000000000000000000000000000000000000000000000000001683615b2c565b60035490915060009063ffffffff90811690831611156141e8576003546141e59063ffffffff1683615bb1565b90505b600b546000906001600160401b0381111561421357634e487b7160e01b600052604160045260246000fd5b60405190808252806020026020018201604052801561423c578160200160208202803683370190505b5090506000805b600b5460ff8216101561431f576000600b8260ff168154811061427657634e487b7160e01b600052603260045260246000fd5b6000918252602090912060088204015460079091166004026101000a900463ffffffff908116915085168110156142c95763ffffffff81166000908152600a60205260409020805460ff1916905561430c565b80848463ffffffff16815181106142f057634e487b7160e01b600052603260045260246000fd5b63ffffffff909216602092830291909101909101526001909201915b508061431781615c90565b915050614243565b5060008163ffffffff166001600160401b0381111561434e57634e487b7160e01b600052604160045260246000fd5b604051908082528060200260200182016040528015614377578160200160208202803683370190505b50905060005b8263ffffffff168160ff16101561440357838160ff16815181106143b157634e487b7160e01b600052603260045260246000fd5b6020026020010151828260ff16815181106143dc57634e487b7160e01b600052603260045260246000fd5b63ffffffff90921660209283029190910190910152806143fb81615c90565b91505061437d565b50805161441790600b906020840190614d5d565b50505050505050565b600081516000141561443457506000919050565b60208251111561447d5760405162461bcd60e51b8152602060048201526014602482015273696e70757420627974657320746f6f206c6f6e6760601b60448201526064016101e4565b6000808351602061448e9190615b9a565b614499906008615b4f565b60209490940151841c90931b9392505050565b60005b60015463ffffffff8216101561461f57600060018263ffffffff16815481106144e857634e487b7160e01b600052603260045260246000fd5b600091825260208220600290910201546001805460ff90921693509063ffffffff851690811061452857634e487b7160e01b600052603260045260246000fd5b906000526020600020906002020160000160019054906101000a90046001600160a01b03169050600060018463ffffffff168154811061457857634e487b7160e01b600052603260045260246000fd5b906000526020600020906002020160010154905060008360038111156145ae57634e487b7160e01b600052602160045260246000fd5b604080516020810192909252606085811b6001600160601b03191691830191909152810183905260800160408051601f19818403018152918152815160209283012060008181529283905290822090925061460891614e0c565b50505050808061461790615c6c565b9150506144af565b5061462c60016000614e2a565b60005b81518163ffffffff161015614863576000828263ffffffff168151811061466657634e487b7160e01b600052603260045260246000fd5b60200260200101516000015190506000838363ffffffff168151811061469c57634e487b7160e01b600052603260045260246000fd5b60200260200101516020015190506000848463ffffffff16815181106146d257634e487b7160e01b600052603260045260246000fd5b6020026020010151604001519050600083600381111561470257634e487b7160e01b600052602160045260246000fd5b604080516020810192909252606085811b6001600160601b0319169183019190915281018390526080016040516020818303038152906040528051906020012090506000604051806060016040528086600381111561477157634e487b7160e01b600052602160045260246000fd5b81526001600160a01b03861660208201526040018490526001805480820182556000829052825160029091027fb10e2d527612073b26eecdfd717e6a320cf44b4afac2b0732d9fcbe2b7fa0cf601805493945084939092839160ff1916908360038111156147ef57634e487b7160e01b600052602160045260246000fd5b021790555060208281015182546001600160a01b0390911661010002610100600160a81b03199091161782556040928301516001928301556000948552848152918420805491820181558452922063ffffffff87169201919091555083925061485b9150829050615c6c565b91505061462f565b5050565b6000806000896001600160a01b0316878688306301e133808d60405160240161489495949392919061583c565b60408051601f198184030181529181526020820180516001600160e01b031663181d0cbd60e31b179052516148c991906155f9565b60006040518083038185875af1925050503d8060008114614906576040519150601f19603f3d011682016040523d82523d6000602084013e61490b565b606091505b50915091508161496557600061492082614cea565b90507fedac64a16d9bb416358bfe2ceb65e292a47450bee7a8d453977a06396192ae77816040516149519190615a0d565b60405180910390a160009350505050614a6e565b7fe2146ad4f8d1f0486696cb31b3c3267fb5da9516562e0aca2973bb351685ffa78a8787604051614998939291906156c9565b60405180910390a160405163c47f002760e01b81526000906001600160a01b038b169063c47f0027906149cf908890600401615a0d565b602060405180830381600087803b1580156149e957600080fd5b505af11580156149fd573d6000803e3d6000fd5b505050506040513d601f19601f82011682018060405250810190614a2191906153a7565b604080516001600160a01b038d168152602081018390529192507f57053374860071bec1b41dd246b8c5f40a4f7a1134463286eb82058abee195e5910160405180910390a1600193505050505b979650505050505050565b60005b81518163ffffffff161015611c4357614ae3836001848463ffffffff1681518110614ab757634e487b7160e01b600052603260045260246000fd5b602002602001015163ffffffff1681548110611c1e57634e487b7160e01b600052603260045260246000fd5b80614aed81615c6c565b915050614a7c565b60008082516003811115614b1957634e487b7160e01b600052602160045260246000fd5b1415614b9d5760208201516040516370a0823160e01b81523060048201526001600160a01b03909116906370a08231906024015b60206040518083038186803b158015614b6557600080fd5b505afa158015614b79573d6000803e3d6000fd5b505050506040513d601f19601f8201168201806040525081019061074791906153a7565b600182516003811115614bc057634e487b7160e01b600052602160045260246000fd5b1415614c7c576000306001600160a01b031683602001516001600160a01b0316636352211e85604001516040518263ffffffff1660e01b8152600401614c0891815260200190565b60206040518083038186803b158015614c2057600080fd5b505afa158015614c34573d6000803e3d6000fd5b505050506040513d601f19601f82011682018060405250810190614c589190614f76565b6001600160a01b03161490508015614c735750600192915050565b50600092915050565b600282516003811115614c9f57634e487b7160e01b600052602160045260246000fd5b1415614ce25760208201516040808401519051627eeac760e11b815230600482015260248101919091526001600160a01b039091169062fdd58e90604401614b4d565b506000919050565b6060604482511015614d1f57505060408051808201909152600d81526c14da5b195b9d081c995d995c9d609a1b602082015290565b600482019150818060200190518101906107479190615422565b5080546000825560030290600052602060002090810190614d5a9190614e4b565b50565b82805482825590600052602060002090600701600890048101928215614dfc5791602002820160005b83821115614dca57835183826101000a81548163ffffffff021916908363ffffffff1602179055509260200192600401602081600301049283019260010302614d86565b8015614dfa5782816101000a81549063ffffffff0219169055600401602081600301049283019260010302614dca565b505b50614e08929150614e76565b5090565b5080546000825590600052602060002090810190614d5a9190614e76565b5080546000825560020290600052602060002090810190614d5a9190614e8b565b5b80821115614e08576000808255600182015560028101805464ffffffffff19169055600301614e4c565b5b80821115614e085760008155600101614e77565b5b80821115614e085780546001600160a81b031916815560006001820155600201614e8c565b80356106f681615db6565b60008083601f840112614ecd578182fd5b5081356001600160401b03811115614ee3578182fd5b6020830191508360208260051b8501011115614efe57600080fd5b9250929050565b60008083601f840112614f16578182fd5b5081356001600160401b03811115614f2c578182fd5b602083019150836020828501011115614efe57600080fd5b8035600b81106106f657600080fd5b8035600481106106f657600080fd5b803563ffffffff811681146106f657600080fd5b600060208284031215614f87578081fd5b8151614f9281615db6565b9392505050565b600080600060608486031215614fad578182fd5b8335614fb881615db6565b92506020840135915060408401356001600160401b03811115614fd9578182fd5b8401601f81018613614fe9578182fd5b8035614ff481615a89565b6040516150018282615c25565b828152886020848601011115615015578485fd5b826020850160208301378460208483010152809450505050509250925092565b60008060008060008060008060a0898b031215615050578384fd5b883561505b81615db6565b9750602089013561506b81615db6565b965060408901356001600160401b0380821115615086578586fd5b6150928c838d01614ebc565b909850965060608b01359150808211156150aa578586fd5b6150b68c838d01614ebc565b909650945060808b01359150808211156150ce578384fd5b506150db8b828c01614f05565b999c989b5096995094979396929594505050565b600080600080600060808688031215615106578081fd5b853561511181615db6565b9450602086013561512181615db6565b93506040860135925060608601356001600160401b03811115615142578182fd5b61514e88828901614f05565b969995985093965092949392505050565b60008060008060008060a08789031215615177578384fd5b863561518281615db6565b9550602087013561519281615db6565b9450604087013593506060870135925060808701356001600160401b038111156151ba578283fd5b6151c689828a01614f05565b979a9699509497509295939492505050565b6000806000806000806000806000806000806101408d8f0312156151fa578586fd5b6001600160401b038d35111561520e578586fd5b61521b8e8e358f01614ebc565b909c509a5061522c60208e01614f62565b995060408d0135985061524160608e01614f44565b975061524f60808e01614f53565b965061525d60a08e01614eb1565b955060c08d0135945061527260e08e01614eb1565b93506101008d013592506001600160401b036101208e01351115615294578081fd5b6152a58e6101208f01358f01614f05565b81935080925050509295989b509295989b509295989b565b600060208083850312156152cf578182fd5b82356001600160401b03808211156152e5578384fd5b818501915085601f8301126152f8578384fd5b81358181111561530a5761530a615cff565b8060051b915060405161531f85840182615c25565b81815284810184860184860187018a1015615338578788fd5b8795505b838610156153615761534d81614f62565b82526001959095019490860190860161533c565b509098975050505050505050565b600060208284031215615380578081fd5b81518015158114614f92578182fd5b6000602082840312156153a0578081fd5b5035919050565b6000602082840312156153b8578081fd5b5051919050565b6000806000606084860312156153d3578081fd5b505081359360208301359350604090920135919050565b6000602082840312156153fb578081fd5b8135614f9281615dcb565b600060208284031215615417578081fd5b8151614f9281615dcb565b600060208284031215615433578081fd5b81516001600160401b03811115615448578182fd5b8201601f81018413615458578182fd5b805161546381615a89565b6040516154708282615c25565b828152866020848601011115615484578485fd5b611bd5836020830160208701615bf9565b6000815180845260208085019450808401835b838110156154c65781511515875295820195908201906001016154a8565b509495945050505050565b6000815180845260208085019450808401835b838110156154c6578151875295820195908201906001016154e4565b6000815180845260208085019450808401835b838110156154c657815163ffffffff1687529582019590820190600101615513565b81835281816020850137506000828201602090810191909152601f909101601f19169091010190565b60008151808452615576816020860160208601615bf9565b601f01601f19169290920160200192915050565b600481106155a857634e487b7160e01b600052602160045260246000fd5b9052565b8881528760208201528660408201528560608201528460808201528360a0820152818360c08301376000910160c001908152979650505050505050565b8183823760009101908152919050565b6000825161560b818460208701615bf9565b9190910192915050565b6001600160a01b0385811682528416602082015260408101839052608060608201819052600090611bd59083018461555e565b6001600160a01b03878116825286166020820152604081018590526060810184905260a0608082018190526000906156839083018486615535565b98975050505050505050565b6001600160a01b03868116825285166020820152604081018490526060810183905260a060808201819052600090614a6e9083018461555e565b6001600160a01b03841681526060602082018190526000906156ed9083018561555e565b9050826040830152949350505050565b60a08152600061571060a08301886154d1565b828103602084015261572281886154d1565b9050828103604084015261573681876154d1565b9050828103606084015261574a8186615500565b905082810360808401526156838185615495565b60808152600061577160808301876154d1565b828103602084015261578381876154d1565b905082810360408401526157978186615500565b90508281036060840152614a6e8185615495565b606080825284519082018190526000906020906080840190828801845b828110156157eb576157db84835161558a565b92840192908401906001016157c8565b50505083810382850152855180825286830191830190845b818110156158285783516001600160a01b031683529284019291840191600101615803565b5050848103604086015261568381876154d1565b85815260c06020820152600061585560c083018761555e565b6001600160a01b039586166040840152606083019490945281840360808301528352921660a09092019190915260200192915050565b60608101615899828661558a565b6001600160a01b0393909316602082015260400152919050565b60a081016158c1828861558a565b6001600160a01b039586166020830152604082019490945291909316606082015260800191909152919050565b6158f8818861558a565b6001600160a01b03868116602083015260408201869052841660608201526080810183905260c060a082018190526000906156839083018461555e565b61593f818761558a565b6001600160a01b039485166020820152604081019390935292166060820152608081019190915260c060a0820181905260009082015260e001919050565b6080810161598b828761558a565b6001600160a01b039490941660208201526040810192909252606090910152919050565b6159b9818a61558a565b602081018890526001600160a01b03878116604083015286811660608301528516608082015260a0810184905260e060c082018190526000906159ff9083018486615535565b9a9950505050505050505050565b602081526000614f92602083018461555e565b604081526000615a33604083018561555e565b905060ff831660208301529392505050565b60208082526024908201527f64617461206d7573742068617665206c656e677468206d756c7469706c65207460408201526337901c9b60e11b606082015260800190565b60006001600160401b03821115615aa257615aa2615cff565b50601f01601f191660200190565b60008085851115615abf578182fd5b83861115615acb578182fd5b5050820193919092039150565b60008219821115615aeb57615aeb615cd3565b500190565b600063ffffffff808316818516808303821115615b0f57615b0f615cd3565b01949350505050565b600082615b2757615b27615ce9565b500490565b600063ffffffff80841680615b4357615b43615ce9565b92169190910492915050565b6000816000190483118215151615615b6957615b69615cd3565b500290565b600063ffffffff80831681851681830481118215151615615b9157615b91615cd3565b02949350505050565b600082821015615bac57615bac615cd3565b500390565b600063ffffffff83811690831681811015615bce57615bce615cd3565b039392505050565b600060ff821660ff841680821015615bf057615bf0615cd3565b90039392505050565b60005b83811015615c14578181015183820152602001615bfc565b838111156126355750506000910152565b601f8201601f191681016001600160401b0381118282101715615c4a57615c4a615cff565b6040525050565b6000600019821415615c6557615c65615cd3565b5060010190565b600063ffffffff80831681811415615c8657615c86615cd3565b6001019392505050565b600060ff821660ff811415615ca757615ca7615cd3565b60010192915050565b600063ffffffff80841680615cc757615cc7615ce9565b92169190910692915050565b634e487b7160e01b600052601160045260246000fd5b634e487b7160e01b600052601260045260246000fd5b634e487b7160e01b600052604160045260246000fd5b600060033d1115615d2a57600481823e5160e01c5b90565b600060443d1015615d3b5790565b6040516003193d81016004833e81513d6001600160401b038160248401118184111715615d6a57505050505090565b8285019150815181811115615d825750505050505090565b843d8701016020828501011115615d9c5750505050505090565b615dab60208286010187615c25565b509095945050505050565b6001600160a01b0381168114614d5a57600080fd5b6001600160e01b031981168114614d5a57600080fdfea264697066735822122026ffce23578d284510854e2d36b968e84c1e75a53417d24bd3837e2631cbbdbe64736f6c63430008040033",
  "immutableReferences": {
    "922": [
      {
        "length": 32,
        "start": 1127
      },
      {
        "length": 32,
        "start": 8977
      },
      {
        "length": 32,
        "start": 9284
      }
    ],
    "924": [
      {
        "length": 32,
        "start": 1170
      },
      {
        "length": 32,
        "start": 4209
      },
      {
        "length": 32,
        "start": 5677
      },
      {
        "length": 32,
        "start": 10799
      },
      {
        "length": 32,
        "start": 11543
      },
      {
        "length": 32,
        "start": 16786
      }
    ],
    "928": [
      {
        "length": 32,
        "start": 1225
      },
      {
        "length": 32,
        "start": 4167
      }
    ],
    "930": [
      {
        "length": 32,
        "start": 1264
      },
      {
        "length": 32,
        "start": 10333
      },
      {
        "length": 32,
        "start": 10382
      }
    ],
    "932": [
      {
        "length": 32,
        "start": 4812
      },
      {
        "length": 32,
        "start": 9216
      }
    ]
  },
  "source": "// SPDX-License-Identifier: Apache-2.0\npragma solidity ^0.8.4;\n\nimport \"./TokenManager.sol\";\nimport \"./DomainUser.sol\";\nimport \"@openzeppelin/contracts/token/ERC20/IERC20.sol\";\n\n\ncontract ONEWallet is TokenManager, DomainUser {\n    event InsufficientFund(uint256 amount, uint256 balance, address dest);\n    event ExceedDailyLimit(uint256 amount, uint256 limit, uint256 current, address dest);\n    event UnknownTransferError(address dest);\n    event LastResortAddressNotSet();\n    event PaymentReceived(uint256 amount, address from);\n    event PaymentSent(uint256 amount, address dest);\n    event PaymentForwarded(uint256 amount, address dest);\n    event AutoRecoveryTriggered(address from);\n    event AutoRecoveryTriggeredPrematurely(address from, uint256 requiredTime);\n    event RecoveryFailure();\n\n    /// In future versions, it is planned that we may allow the user to extend the wallet's life through a function call. When that is implemented, the following variables may no longer be immutable, with the exception of root which shall serve as an identifier of the wallet\n    bytes32 root; // Note: @ivan brought up a good point in reducing this to 16-bytes so hash of two consecutive nodes can be done in a single word (to save gas and reduce blockchain clutter). Let's not worry about that for now and re-evalaute this later.\n    uint8 immutable height; // including the root. e.g. for a tree with 4 leaves, the height is 3.\n    uint8 immutable interval; // otp interval in seconds, default is 30\n    uint32 t0; // starting time block (effectiveTime (in ms) / interval)\n    uint32 immutable lifespan;  // in number of block (e.g. 1 block per [interval] seconds)\n    uint8 immutable maxOperationsPerInterval; // number of transactions permitted per OTP interval. Each transaction shall have a unique nonce. The nonce is auto-incremented within each interval\n    uint32 immutable _numLeaves; // 2 ** (height - 1)\n\n    /// global mutable variables\n    address payable lastResortAddress; // where money will be sent during a recovery process (or when the wallet is beyond its lifespan)\n    uint256 dailyLimit; // uint128 is sufficient, but uint256 is more efficient since EVM works with 32-byte words.\n    uint256 spentToday; // note: instead of tracking the money spent for the last 24h, we are simply tracking money spent per 24h block based on UTC time. It is good enough for now, but we may want to change this later.\n    uint32 lastTransferDay;\n    uint256 lastOperationTime; // in seconds; record the time for the last successful reveal\n    address payable forwardAddress; // a non-empty forward address assumes full control of this contract. A forward address can only be set upon a successful recovery or upgrade operation.\n    address[] backlinkAddresses; // to be set in next version - these are addresses forwarding funds and tokens to this contract AND must have their forwardAddress updated if this contract's forwardAddress is set or updated. One example of such an address is a previous version of the wallet \"upgrading\" to a new version. See more at https://github.com/polymorpher/one-wallet/issues/78\n\n    /// nonce tracking\n    mapping(uint32 => uint8) nonces; // keys: otp index (=timestamp in seconds / interval - t0); values: the expected nonce for that otp interval. An reveal with a nonce less than the expected value will be rejected\n    uint32[] nonceTracker; // list of nonces keys that have a non-zero value. keys cannot possibly result a successful reveal (indices beyond REVEAL_MAX_DELAY old) are auto-deleted during a clean up procedure that is called every time the nonces are incremented for some key. For each deleted key, the corresponding key in nonces will also be deleted. So the size of nonceTracker and nonces are both bounded.\n\n    // constants\n    uint32 constant REVEAL_MAX_DELAY = 60;\n    uint32 constant SECONDS_PER_DAY = 86400;\n    uint256 constant AUTO_RECOVERY_TRIGGER_AMOUNT = 1 ether;\n    uint32 constant MAX_COMMIT_SIZE = 120;\n    uint256 constant AUTO_RECOVERY_MANDATORY_WAIT_TIME = 14 days;\n\n    uint32 constant majorVersion = 0x9; // a change would require client to migrate\n    uint32 constant minorVersion = 0x0; // a change would not require the client to migrate\n\n\n    enum OperationType {\n        TRACK, UNTRACK, TRANSFER_TOKEN, OVERRIDE_TRACK, TRANSFER, SET_RECOVERY_ADDRESS, RECOVER,\n        REPLACE, // reserved, not implemented yet. This is for replacing the root and set up new parameters (t0, lifespan)\n        FORWARD, // reserved, not implemented yet. This is for forwarding this contract to another contract and submitting all control to that control (daily limit would still be in effect)\n        RECOVER_SELECTED_TOKENS, BUY_DOMAIN\n    }\n    /// commit management\n    struct Commit {\n        bytes32 paramsHash;\n        bytes32 verificationHash;\n        uint32 timestamp;\n        bool completed;\n    }\n\n    bytes32[] commits; // self-clean on commit (auto delete commits that are beyond REVEAL_MAX_DELAY), so it's bounded by the number of commits an attacker can spam within REVEAL_MAX_DELAY time in the worst case, which is not too bad.\n    mapping(bytes32 => Commit[]) commitLocker;\n\n\n    constructor(bytes32 root_, uint8 height_, uint8 interval_, uint32 t0_, uint32 lifespan_, uint8 maxOperationsPerInterval_,\n        address payable lastResortAddress_, uint256 dailyLimit_)\n    {\n        root = root_;\n        height = height_;\n        interval = interval_;\n        t0 = t0_;\n        lifespan = lifespan_;\n        lastResortAddress = lastResortAddress_;\n        dailyLimit = dailyLimit_;\n        maxOperationsPerInterval = maxOperationsPerInterval_;\n        _numLeaves = uint32(2 ** (height_ - 1));\n    }\n\n    function _getForwardAddress() internal override view returns (address payable){\n        return forwardAddress;\n    }\n\n    receive() external payable {\n        emit PaymentReceived(msg.value, msg.sender);\n        if (forwardAddress != address(0)) {\n            (bool success,) = forwardAddress.call{value : msg.value}(\"\");\n            if (!success) {\n                revert(\"Forward payment failure\");\n            }\n            emit PaymentForwarded(msg.value, msg.sender);\n            return;\n        }\n        if (msg.value != AUTO_RECOVERY_TRIGGER_AMOUNT) {\n            return;\n        }\n        if (msg.sender != lastResortAddress) {\n            return;\n        }\n        if (msg.sender == address(this)) {\n            return;\n        }\n        if (block.timestamp < lastOperationTime + AUTO_RECOVERY_MANDATORY_WAIT_TIME) {\n            emit AutoRecoveryTriggeredPrematurely(msg.sender, lastOperationTime + AUTO_RECOVERY_MANDATORY_WAIT_TIME);\n            return;\n        }\n        emit AutoRecoveryTriggered(msg.sender);\n        require(_drain());\n    }\n\n    function retire() external returns (bool)\n    {\n        require(uint32(block.timestamp / interval) - t0 > lifespan, \"Too early to retire\");\n        require(lastResortAddress != address(0), \"Last resort address is not set\");\n        require(_drain(), \"Recovery failed\");\n        return true;\n    }\n\n    function getInfo() external view returns (bytes32, uint8, uint8, uint32, uint32, uint8, address, uint256)\n    {\n        return (root, height, interval, t0, lifespan, maxOperationsPerInterval, lastResortAddress, dailyLimit);\n    }\n\n    function getVersion() external pure returns (uint32, uint32)\n    {\n        return (majorVersion, minorVersion);\n    }\n\n    function getCurrentSpending() external view returns (uint256, uint256)\n    {\n        return (spentToday, lastTransferDay);\n    }\n\n    function getNonce() external view returns (uint8)\n    {\n        uint32 index = uint32(block.timestamp) / interval - t0;\n        return nonces[index];\n    }\n\n    function getCommits() external pure returns (bytes32[] memory, bytes32[] memory, uint32[] memory, bool[] memory){\n        revert(\"Deprecated\");\n    }\n\n    function getAllCommits() external view returns (bytes32[] memory, bytes32[] memory, bytes32[] memory, uint32[] memory, bool[] memory)\n    {\n        uint32 numCommits = 0;\n        for (uint32 i = 0; i < commits.length; i++) {\n            Commit[] storage cc = commitLocker[commits[i]];\n            numCommits += uint32(cc.length);\n        }\n        bytes32[] memory hashes = new bytes32[](numCommits);\n        bytes32[] memory paramHashes = new bytes32[](numCommits);\n        bytes32[] memory verificationHashes = new bytes32[](numCommits);\n        uint32[] memory timestamps = new uint32[](numCommits);\n        bool[] memory completed = new bool[](numCommits);\n        uint32 index = 0;\n        for (uint32 i = 0; i < commits.length; i++) {\n            Commit[] storage cc = commitLocker[commits[i]];\n            for (uint32 j = 0; j < cc.length; j++) {\n                Commit storage c = cc[j];\n                hashes[index] = commits[i];\n                paramHashes[index] = c.paramsHash;\n                verificationHashes[index] = c.verificationHash;\n                timestamps[index] = c.timestamp;\n                completed[index] = c.completed;\n                index++;\n            }\n        }\n        return (hashes, paramHashes, verificationHashes, timestamps, completed);\n    }\n\n    function findCommit(bytes32 /*hash*/) external pure returns (bytes32, bytes32, uint32, bool){\n        revert(\"Deprecated\");\n    }\n\n    function lookupCommit(bytes32 hash) external view returns (bytes32[] memory, bytes32[] memory, bytes32[] memory, uint32[] memory, bool[] memory){\n        Commit[] storage cc = commitLocker[hash];\n        bytes32[] memory hashes = new bytes32[](cc.length);\n        bytes32[] memory paramHashes = new bytes32[](cc.length);\n        bytes32[] memory verificationHashes = new bytes32[](cc.length);\n        uint32[] memory timestamps = new uint32[](cc.length);\n        bool[] memory completed = new bool[](cc.length);\n        for (uint32 i = 0; i < cc.length; i++) {\n            Commit storage c = cc[i];\n            hashes[i] = hash;\n            paramHashes[i] = c.paramsHash;\n            verificationHashes[i] = c.verificationHash;\n            timestamps[i] = c.timestamp;\n            completed[i] = c.completed;\n        }\n        return (hashes, paramHashes, verificationHashes, timestamps, completed);\n    }\n\n    function commit(bytes32 hash, bytes32 paramsHash, bytes32 verificationHash) external {\n        _cleanupCommits();\n        Commit memory nc = Commit(paramsHash, verificationHash, uint32(block.timestamp), false);\n        require(commits.length < MAX_COMMIT_SIZE, \"Too many commits\");\n        commits.push(hash);\n        commitLocker[hash].push(nc);\n    }\n\n    /// This function sends all remaining funds of the wallet to `lastResortAddress`. The caller should verify that `lastResortAddress` is not null.\n    /// TODO: also transfer all tracked ERC20, 721, 1155 tokens to `lastResortAddress`\n    function _drain() internal returns (bool) {\n        // this may be triggered after revealing the proof, and we must prevent revert in all cases\n        (bool success,) = lastResortAddress.call{value : address(this).balance}(\"\");\n        if (success) {\n            forwardAddress = lastResortAddress;\n            TokenManager._recoverAllTokens(lastResortAddress);\n        }\n        return success;\n    }\n\n    function _transfer(address payable dest, uint256 amount) internal returns (bool) {\n        uint32 day = uint32(block.timestamp / SECONDS_PER_DAY);\n        if (day > lastTransferDay) {\n            spentToday = 0;\n            lastTransferDay = day;\n        }\n        if (spentToday + amount > dailyLimit) {\n            emit ExceedDailyLimit(amount, dailyLimit, spentToday, dest);\n            return false;\n        }\n        if (address(this).balance < amount) {\n            emit InsufficientFund(amount, address(this).balance, dest);\n            return false;\n        }\n        spentToday += amount;\n        (bool success,) = dest.call{value : amount}(\"\");\n        // we do not want to revert the whole transaction if this operation fails, since EOTP is already revealed\n        if (!success) {\n            spentToday -= amount;\n            emit UnknownTransferError(dest);\n            return false;\n        }\n\n        emit PaymentSent(amount, dest);\n        return true;\n    }\n\n    function _recover() internal returns (bool){\n        if (lastResortAddress == address(0)) {\n            emit LastResortAddressNotSet();\n            return false;\n        }\n        if (!_drain()) {\n            emit RecoveryFailure();\n            return false;\n        }\n        return true;\n    }\n\n    function _setRecoveryAddress(address payable lastResortAddress_) internal {\n        require(lastResortAddress == address(0), \"Last resort address is already set\");\n        lastResortAddress = lastResortAddress_;\n    }\n\n    /// Provides commitHash, paramsHash, and verificationHash given the parameters\n    function _getRevealHash(bytes32 neighbor, uint32 indexWithNonce, bytes32 eotp,\n        OperationType operationType, TokenType tokenType, address contractAddress, uint256 tokenId, address dest, uint256 amount, bytes calldata data) pure internal returns (bytes32, bytes32) {\n        bytes32 hash = keccak256(bytes.concat(neighbor, bytes32(bytes4(indexWithNonce)), eotp));\n        bytes32 paramsHash = bytes32(0);\n        if (operationType == OperationType.TRANSFER) {\n            paramsHash = keccak256(bytes.concat(bytes32(bytes20(address(dest))), bytes32(amount)));\n        } else if (operationType == OperationType.RECOVER) {\n            paramsHash = keccak256(data);\n        } else if (operationType == OperationType.SET_RECOVERY_ADDRESS) {\n            paramsHash = keccak256(bytes.concat(bytes32(bytes20(address(dest)))));\n        } else {\n            bytes memory packed = bytes.concat(\n                bytes32(uint256(operationType)),\n                bytes32(uint256(tokenType)),\n                bytes32(bytes20(contractAddress)),\n                bytes32(tokenId),\n                bytes32(bytes20(dest)),\n                bytes32(amount),\n                data\n            );\n            paramsHash = keccak256(bytes.concat(packed));\n        }\n        return (hash, paramsHash);\n    }\n\n\n    function reveal(bytes32[] calldata neighbors, uint32 indexWithNonce, bytes32 eotp,\n        OperationType operationType, TokenType tokenType, address contractAddress, uint256 tokenId, address payable dest, uint256 amount, bytes calldata data)\n    external {\n        if (msg.sender != forwardAddress) {\n            _isCorrectProof(neighbors, indexWithNonce, eotp);\n            if (indexWithNonce == _numLeaves - 1) {\n                require(operationType == OperationType.RECOVER, \"Last operation reserved for recover\");\n            }\n            (bytes32 commitHash, bytes32 paramsHash) = _getRevealHash(neighbors[0], indexWithNonce, eotp,\n                operationType, tokenType, contractAddress, tokenId, dest, amount, data);\n            uint32 commitIndex = _verifyReveal(commitHash, indexWithNonce, paramsHash, eotp, operationType);\n            _completeReveal(commitHash, commitIndex, operationType);\n        }\n        // No revert should occur below this point\n        if (operationType == OperationType.TRACK) {\n            if (data.length > 0) {\n                TokenManager._multiTrack(data);\n            } else {\n                TokenManager._trackToken(tokenType, contractAddress, tokenId);\n            }\n        } else if (operationType == OperationType.UNTRACK) {\n            if (data.length > 0) {\n                TokenManager._untrackToken(tokenType, contractAddress, tokenId);\n            } else {\n                TokenManager._multiUntrack(data);\n            }\n        } else if (operationType == OperationType.TRANSFER_TOKEN) {\n            TokenManager._transferToken(tokenType, contractAddress, tokenId, dest, amount, data);\n        } else if (operationType == OperationType.OVERRIDE_TRACK) {\n            TokenManager._overrideTrackWithBytes(data);\n        } else if (operationType == OperationType.TRANSFER) {\n            _transfer(dest, amount);\n        } else if (operationType == OperationType.RECOVER) {\n            _recover();\n        } else if (operationType == OperationType.SET_RECOVERY_ADDRESS) {\n            _setRecoveryAddress(dest);\n        } else if (operationType == OperationType.BUY_DOMAIN) {\n            DomainUser._buyDomainEncoded(data, amount, uint8(tokenId), contractAddress, dest);\n        } else if (operationType == OperationType.RECOVER_SELECTED_TOKENS) {\n            TokenManager._recoverSelectedTokensEncoded(dest, data);\n        }\n    }\n\n    /// This is just a wrapper around a modifier previously called `isCorrectProof`, to avoid \"Stack too deep\" error. Duh.\n    function _isCorrectProof(bytes32[] calldata neighbors, uint32 position, bytes32 eotp) view internal {\n        require(neighbors.length == height - 1, \"Not enough neighbors provided\");\n        bytes32 h = sha256(bytes.concat(eotp));\n        if (position == _numLeaves - 1) {\n            // special case: recover only\n            h = eotp;\n        }\n        for (uint8 i = 0; i < height - 1; i++) {\n            if ((position & 0x01) == 0x01) {\n                h = sha256(bytes.concat(neighbors[i], h));\n            } else {\n                h = sha256(bytes.concat(h, neighbors[i]));\n            }\n            position >>= 1;\n        }\n        require(root == h, \"Proof is incorrect\");\n        return;\n    }\n\n    /// Remove old commits from storage, where the commit's timestamp is older than block.timestamp - REVEAL_MAX_DELAY. The purpose is to remove dangling data from blockchain, and prevent commits grow unbounded. This is executed at commit time. The committer pays for the gas of this cleanup. Therefore, any attacker who intend to spam commits would be disincentivized. The attacker would not succeed in preventing any normal operation by the user.\n    function _cleanupCommits() internal {\n        uint32 timelyIndex = 0;\n        uint32 bt = uint32(block.timestamp);\n        // go through past commits chronologically, starting from the oldest, and find the first commit that is not older than block.timestamp - REVEAL_MAX_DELAY.\n        for (; timelyIndex < commits.length; timelyIndex++) {\n            bytes32 hash = commits[timelyIndex];\n            Commit[] storage cc = commitLocker[hash];\n            // We may skip because the commit is already cleaned up and is considered \"untimely\".\n            if (cc.length == 0) {\n                continue;\n            }\n            // We take the first entry in `cc` as the timestamp for all commits under commit hash `hash`, because the first entry represents the oldest commit and only commit if an attacker is not attacking this wallet. If an attacker is front-running commits, the first entry may be from the attacker, but its timestamp should be identical to the user's commit (or close enough to the user's commit, if network is a bit congested)\n            Commit storage c = cc[0];\n        unchecked {\n            if (c.timestamp >= bt - REVEAL_MAX_DELAY) {\n                break;\n            }\n        }\n        }\n        // Now `timelyIndex` holds the index of the first commit that is timely. All commits at an index less than `timelyIndex` must be deleted;\n        if (timelyIndex == 0) {\n            // no commit is older than block.timestamp - REVEAL_MAX_DELAY. Nothing needs to be cleaned up\n            return;\n        }\n        // Delete Commit instances for commits that are are older than block.timestamp - REVEAL_MAX_DELAY\n        for (uint32 i = 0; i < timelyIndex; i++) {\n            bytes32 hash = commits[i];\n            Commit[] storage cc = commitLocker[hash];\n            for (uint32 j = 0; j < cc.length; j++) {\n                delete cc[j];\n            }\n            delete commitLocker[hash];\n        }\n        // Shift all commit hashes up by `timelyIndex` positions, and discard `commitIndex` number of hashes at the end of the array\n        // This process erases old commits\n        uint32 len = uint32(commits.length);\n        for (uint32 i = timelyIndex; i < len; i++) {\n        unchecked{\n            commits[i - timelyIndex] = commits[i];\n        }\n        }\n        for (uint32 i = 0; i < timelyIndex; i++) {\n            commits.pop();\n        }\n        // TODO (@polymorpher): upgrade the above code after solidity implements proper support for struct-array memory-storage copy operation.\n    }\n\n    function _isRevealTimely(uint32 commitTime) view internal returns (bool)\n    {\n        return uint32(block.timestamp) - commitTime < REVEAL_MAX_DELAY;\n    }\n\n    /// This function verifies that the first valid entry with respect to the given `eotp` in `commitLocker[hash]` matches the provided `paramsHash` and `verificationHash`. An entry is valid with respect to `eotp` iff `h3(entry.paramsHash . eotp)` equals `entry.verificationHash`\n    function _verifyReveal(bytes32 hash, uint32 indexWithNonce, bytes32 paramsHash, bytes32 eotp, OperationType operationType) view internal returns (uint32)\n    {\n        uint32 index = indexWithNonce / maxOperationsPerInterval;\n        uint8 nonce = uint8(indexWithNonce % maxOperationsPerInterval);\n        Commit[] storage cc = commitLocker[hash];\n        require(cc.length > 0, \"No commit found\");\n        for (uint32 i = 0; i < cc.length; i++) {\n            Commit storage c = cc[i];\n            bytes32 expectedVerificationHash = keccak256(bytes.concat(c.paramsHash, eotp));\n            if (c.verificationHash != expectedVerificationHash) {\n                // Invalid entry. Ignore\n                continue;\n            }\n            require(c.paramsHash == paramsHash, \"Parameter hash mismatch\");\n            if (operationType != OperationType.RECOVER) {\n                uint32 counter = c.timestamp / interval - t0;\n                require(counter == index, \"Index - timestamp mismatch\");\n                uint8 expectedNonce = nonces[counter];\n                require(nonce >= expectedNonce, \"Nonce too low\");\n            }\n            require(!c.completed, \"Commit already completed\");\n            // This normally should not happen, but when the network is congested (regardless of whether due to an attacker's malicious acts or not), the legitimate reveal may become untimely. This may happen before the old commit is cleaned up by another fresh commit. We enforce this restriction so that the attacker would not have a lot of time to reverse-engineer a single EOTP or leaf using an old commit.\n            require(_isRevealTimely(c.timestamp), \"Reveal too late\");\n            return i;\n        }\n        revert(\"No valid commit\");\n    }\n\n    function _completeReveal(bytes32 commitHash, uint32 commitIndex, OperationType operationType) internal {\n        Commit[] storage cc = commitLocker[commitHash];\n        assert(cc.length > 0);\n        assert(cc.length > commitIndex);\n        Commit storage c = cc[commitIndex];\n        assert(c.timestamp > 0);\n        if (operationType != OperationType.RECOVER) {\n            uint32 index = uint32(c.timestamp) / interval - t0;\n            _incrementNonce(index);\n            _cleanupNonces();\n        }\n        c.completed = true;\n        lastOperationTime = block.timestamp;\n    }\n\n    /// This function removes all tracked nonce values correspond to interval blocks that are older than block.timestamp - REVEAL_MAX_DELAY. In doing so, extraneous data in the blockchain is removed, and both nonces and nonceTracker are bounded in size.\n    function _cleanupNonces() internal {\n        uint32 tMin = uint32(block.timestamp) - REVEAL_MAX_DELAY;\n        uint32 indexMinUnadjusted = tMin / interval;\n        uint32 indexMin = 0;\n        if (indexMinUnadjusted > t0) {\n            indexMin = indexMinUnadjusted - t0;\n        }\n        uint32[] memory nonZeroNonces = new uint32[](nonceTracker.length);\n        uint32 numValidIndices = 0;\n        for (uint8 i = 0; i < nonceTracker.length; i++) {\n            uint32 index = nonceTracker[i];\n            if (index < indexMin) {\n                delete nonces[index];\n            } else {\n                nonZeroNonces[numValidIndices] = index;\n            unchecked {\n                numValidIndices++;\n            }\n            }\n        }\n        // TODO (@polymorpher): This can be later made more efficient by inline assembly. https://ethereum.stackexchange.com/questions/51891/how-to-pop-from-decrease-the-length-of-a-memory-array-in-solidity\n        uint32[] memory reducedArray = new uint32[](numValidIndices);\n        for (uint8 i = 0; i < numValidIndices; i++) {\n            reducedArray[i] = nonZeroNonces[i];\n        }\n        nonceTracker = reducedArray;\n    }\n\n    function _incrementNonce(uint32 index) internal {\n        uint8 v = nonces[index];\n        if (v == 0) {\n            nonceTracker.push(index);\n        }\n    unchecked{\n        nonces[index] = v + 1;\n    }\n    }\n}\n",
  "sourcePath": "/Users/polymorpher/git/one-wallet/code/contracts/ONEWallet.sol",
  "compiler": {
    "name": "solc",
    "version": "0.8.4+commit.c7e474f2.Emscripten.clang"
  },
  "schemaVersion": "3.4.2",
  "updatedAt": "2021-08-17T19:42:25.569Z",
  "devdoc": {
    "kind": "dev",
    "methods": {
      "onERC1155BatchReceived(address,address,uint256[],uint256[],bytes)": {
        "details": "Handles the receipt of a multiple ERC1155 token types. This function is called at the end of a `safeBatchTransferFrom` after the balances have been updated. To accept the transfer(s), this must return `bytes4(keccak256(\"onERC1155BatchReceived(address,address,uint256[],uint256[],bytes)\"))` (i.e. 0xbc197c81, or its own function selector).",
        "params": {
          "data": "Additional data with no specified format",
          "from": "The address which previously owned the token",
          "ids": "An array containing ids of each token being transferred (order and length must match values array)",
          "operator": "The address which initiated the batch transfer (i.e. msg.sender)",
          "values": "An array containing amounts of each token being transferred (order and length must match ids array)"
        },
        "returns": {
          "_0": "`bytes4(keccak256(\"onERC1155BatchReceived(address,address,uint256[],uint256[],bytes)\"))` if transfer is allowed"
        }
      },
      "onERC1155Received(address,address,uint256,uint256,bytes)": {
        "details": "Handles the receipt of a single ERC1155 token type. This function is called at the end of a `safeTransferFrom` after the balance has been updated. To accept the transfer, this must return `bytes4(keccak256(\"onERC1155Received(address,address,uint256,uint256,bytes)\"))` (i.e. 0xf23a6e61, or its own function selector).",
        "params": {
          "data": "Additional data with no specified format",
          "from": "The address which previously owned the token",
          "id": "The ID of the token being transferred",
          "operator": "The address which initiated the transfer (i.e. msg.sender)",
          "value": "The amount of tokens being transferred"
        },
        "returns": {
          "_0": "`bytes4(keccak256(\"onERC1155Received(address,address,uint256,uint256,bytes)\"))` if transfer is allowed"
        }
      },
      "onERC721Received(address,address,uint256,bytes)": {
        "details": "Whenever an {IERC721} `tokenId` token is transferred to this contract via {IERC721-safeTransferFrom} by `operator` from `from`, this function is called. It must return its Solidity selector to confirm the token transfer. If any other value is returned or the interface is not implemented by the recipient, the transfer will be reverted. The selector can be obtained in Solidity with `IERC721.onERC721Received.selector`."
      }
    },
    "version": 1
  },
  "userdoc": {
    "kind": "user",
    "methods": {},
    "version": 1
  }
}