{
  "contractName": "ONEWalletFactoryHelper",
  "abi": [
    {
      "inputs": [
        {
          "internalType": "contract ONEWalletFactory",
          "name": "factory_",
          "type": "address"
        }
      ],
      "stateMutability": "nonpayable",
      "type": "constructor"
    },
    {
      "inputs": [],
      "name": "factory",
      "outputs": [
        {
          "internalType": "contract ONEWalletFactory",
          "name": "",
          "type": "address"
        }
      ],
      "stateMutability": "view",
      "type": "function"
    },
    {
      "inputs": [],
      "name": "getVersion",
      "outputs": [
        {
          "internalType": "uint32",
          "name": "",
          "type": "uint32"
        },
        {
          "internalType": "uint32",
          "name": "",
          "type": "uint32"
        }
      ],
      "stateMutability": "pure",
      "type": "function"
    },
    {
      "inputs": [
        {
          "components": [
            {
              "components": [
                {
                  "internalType": "bytes32",
                  "name": "root",
                  "type": "bytes32"
                },
                {
                  "internalType": "uint8",
                  "name": "height",
                  "type": "uint8"
                },
                {
                  "internalType": "uint8",
                  "name": "interval",
                  "type": "uint8"
                },
                {
                  "internalType": "uint32",
                  "name": "t0",
                  "type": "uint32"
                },
                {
                  "internalType": "uint32",
                  "name": "lifespan",
                  "type": "uint32"
                },
                {
                  "internalType": "uint8",
                  "name": "maxOperationsPerInterval",
                  "type": "uint8"
                }
              ],
              "internalType": "struct IONEWallet.CoreSetting",
              "name": "core",
              "type": "tuple"
            },
            {
              "components": [
                {
                  "internalType": "uint256",
                  "name": "spendingLimit",
                  "type": "uint256"
                },
                {
                  "internalType": "uint256",
                  "name": "spentAmount",
                  "type": "uint256"
                },
                {
                  "internalType": "uint32",
                  "name": "lastSpendingInterval",
                  "type": "uint32"
                },
                {
                  "internalType": "uint32",
                  "name": "spendingInterval",
                  "type": "uint32"
                }
              ],
              "internalType": "struct SpendingManager.SpendingState",
              "name": "spendingState",
              "type": "tuple"
            },
            {
              "internalType": "address payable",
              "name": "recoveryAddress",
              "type": "address"
            },
            {
              "internalType": "bytes32",
              "name": "identificationHash",
              "type": "bytes32"
            },
            {
              "internalType": "contract IONEWallet[]",
              "name": "backlinkAddresses",
              "type": "address[]"
            },
            {
              "components": [
                {
                  "internalType": "bytes32",
                  "name": "root",
                  "type": "bytes32"
                },
                {
                  "internalType": "uint8",
                  "name": "height",
                  "type": "uint8"
                },
                {
                  "internalType": "uint8",
                  "name": "interval",
                  "type": "uint8"
                },
                {
                  "internalType": "uint32",
                  "name": "t0",
                  "type": "uint32"
                },
                {
                  "internalType": "uint32",
                  "name": "lifespan",
                  "type": "uint32"
                },
                {
                  "internalType": "uint8",
                  "name": "maxOperationsPerInterval",
                  "type": "uint8"
                }
              ],
              "internalType": "struct IONEWallet.CoreSetting[]",
              "name": "oldCores",
              "type": "tuple[]"
            },
            {
              "components": [
                {
                  "internalType": "bytes32",
                  "name": "root",
                  "type": "bytes32"
                },
                {
                  "internalType": "uint8",
                  "name": "height",
                  "type": "uint8"
                },
                {
                  "internalType": "uint8",
                  "name": "interval",
                  "type": "uint8"
                },
                {
                  "internalType": "uint32",
                  "name": "t0",
                  "type": "uint32"
                },
                {
                  "internalType": "uint32",
                  "name": "lifespan",
                  "type": "uint32"
                },
                {
                  "internalType": "uint8",
                  "name": "maxOperationsPerInterval",
                  "type": "uint8"
                }
              ],
              "internalType": "struct IONEWallet.CoreSetting[]",
              "name": "recoveryCores",
              "type": "tuple[]"
            }
          ],
          "internalType": "struct IONEWallet.InitParams",
          "name": "args",
          "type": "tuple"
        }
      ],
      "name": "deploy",
      "outputs": [
        {
          "internalType": "address",
          "name": "",
          "type": "address"
        }
      ],
      "stateMutability": "payable",
      "type": "function"
    },
    {
      "inputs": [
        {
          "internalType": "bytes32",
          "name": "identificationHash",
          "type": "bytes32"
        }
      ],
      "name": "predict",
      "outputs": [
        {
          "internalType": "address",
          "name": "",
          "type": "address"
        }
      ],
      "stateMutability": "view",
      "type": "function"
    },
    {
      "inputs": [
        {
          "internalType": "contract IONEWallet",
          "name": "addr",
          "type": "address"
        }
      ],
      "name": "verify",
      "outputs": [
        {
          "internalType": "bool",
          "name": "",
          "type": "bool"
        }
      ],
      "stateMutability": "view",
      "type": "function"
    }
  ],
  "bytecode": "0x6080604052600080546001600160a01b031916905534801561002057600080fd5b50604051610d0d380380610d0d83398101604081905261003f91610064565b600080546001600160a01b0319166001600160a01b0392909216919091179055610092565b600060208284031215610075578081fd5b81516001600160a01b038116811461008b578182fd5b9392505050565b610c6c806100a16000396000f3fe60806040526004361061004a5760003560e01c80630d8e6e2c1461004f5780630e787cce1461007657806363a9c3d7146100ae578063c338cd7f146100de578063c45a0155146100f1575b600080fd5b34801561005b57600080fd5b5060408051600f815260016020820152015b60405180910390f35b34801561008257600080fd5b506100966100913660046107b7565b610111565b6040516001600160a01b03909116815260200161006d565b3480156100ba57600080fd5b506100ce6100c9366004610877565b61022f565b604051901515815260200161006d565b6100966100ec366004610893565b6103ce565b3480156100fd57600080fd5b50600054610096906001600160a01b031681565b60008060009054906101000a90046001600160a01b03166001600160a01b03166322aa763373__ONEWalletCodeHelper___________________6324c12bf66040518163ffffffff1660e01b815260040160006040518083038186803b15801561017a57600080fd5b505af415801561018e573d6000803e3d6000fd5b505050506040513d6000823e601f3d908101601f191682016040526101b691908101906107e7565b6040516001600160e01b031960e084901b1681526101d991908690600401610a52565b60206040518083038186803b1580156101f157600080fd5b505afa158015610205573d6000803e3d6000fd5b505050506040513d601f19601f820116820180604052508101906102299190610794565b92915050565b60008060008054906101000a90046001600160a01b03166001600160a01b03166322aa763373__ONEWalletCodeHelper___________________6324c12bf66040518163ffffffff1660e01b815260040160006040518083038186803b15801561029857600080fd5b505af41580156102ac573d6000803e3d6000fd5b505050506040513d6000823e601f3d908101601f191682016040526102d491908101906107e7565b856001600160a01b031663db582c7e6040518163ffffffff1660e01b815260040160206040518083038186803b15801561030d57600080fd5b505afa158015610321573d6000803e3d6000fd5b505050506040513d601f19601f8201168201806040525081019061034591906107cf565b6040516001600160e01b031960e085901b168152610367929190600401610a52565b60206040518083038186803b15801561037f57600080fd5b505afa158015610393573d6000803e3d6000fd5b505050506040513d601f19601f820116820180604052508101906103b79190610794565b6001600160a01b0390811693169290921492915050565b60008060008054906101000a90046001600160a01b03166001600160a01b0316639c4ae2d03473__ONEWalletCodeHelper___________________6324c12bf66040518163ffffffff1660e01b815260040160006040518083038186803b15801561043857600080fd5b505af415801561044c573d6000803e3d6000fd5b505050506040513d6000823e601f3d908101601f1916820160405261047491908101906107e7565b60608701516040516001600160e01b031960e086901b16815261049b929190600401610a52565b6020604051808303818588803b1580156104b457600080fd5b505af11580156104c8573d6000803e3d6000fd5b50505050506040513d601f19601f820116820180604052508101906104ed9190610794565b90506001600160a01b0381166105035792915050565b604051637df7026960e11b81526001600160a01b0382169063fbee04d29061052f908690600401610a8d565b600060405180830381600087803b15801561054957600080fd5b505af115801561055d573d6000803e3d6000fd5b509295945050505050565b803561057381610c1e565b919050565b600082601f830112610588578081fd5b8135602061059d61059883610bb4565b610b83565b80838252828201915082860187848660051b89010111156105bc578586fd5b855b858110156105e35781356105d181610c1e565b845292840192908401906001016105be565b5090979650505050505050565b600082601f830112610600578081fd5b8135602061061061059883610bb4565b8281528181019085830160c08086028801850189101561062e578687fd5b865b86811015610654576106428a84610662565b85529385019391810191600101610630565b509198975050505050505050565b600060c08284031215610673578081fd5b60405160c0810181811067ffffffffffffffff8211171561069657610696610c08565b604052823581529050806106ac60208401610783565b60208201526106bd60408401610783565b60408201526106ce6060840161076f565b60608201526106df6080840161076f565b60808201526106f060a08401610783565b60a08201525092915050565b60006080828403121561070d578081fd5b6040516080810181811067ffffffffffffffff8211171561073057610730610c08565b806040525080915082358152602083013560208201526107526040840161076f565b60408201526107636060840161076f565b60608201525092915050565b803563ffffffff8116811461057357600080fd5b803560ff8116811461057357600080fd5b6000602082840312156107a5578081fd5b81516107b081610c1e565b9392505050565b6000602082840312156107c8578081fd5b5035919050565b6000602082840312156107e0578081fd5b5051919050565b6000602082840312156107f8578081fd5b815167ffffffffffffffff8082111561080f578283fd5b818401915084601f830112610822578283fd5b81518181111561083457610834610c08565b610847601f8201601f1916602001610b83565b915080825285602082850101111561085d578384fd5b61086e816020840160208601610bd8565b50949350505050565b600060208284031215610888578081fd5b81356107b081610c1e565b6000602082840312156108a4578081fd5b813567ffffffffffffffff808211156108bb578283fd5b908301906101e082860312156108cf578283fd5b6108d7610b5a565b6108e18684610662565b81526108f08660c085016106fc565b60208201526109026101408401610568565b6040820152610160830135606082015261018083013582811115610924578485fd5b61093087828601610578565b6080830152506101a083013582811115610948578485fd5b610954878286016105f0565b60a0830152506101c08301358281111561096c578485fd5b610978878286016105f0565b60c08301525095945050505050565b6000815180845260208085019450808401835b838110156109bf5781516001600160a01b03168752958201959082019060010161099a565b509495945050505050565b6000815180845260208085019450808401835b838110156109bf576109f0878351610a03565b60c09690960195908201906001016109dd565b8051825260ff602082015116602083015260ff6040820151166040830152606081015163ffffffff8082166060850152806080840151166080850152505060ff60a08201511660a08301525050565b6040815260008351806040840152610a71816060850160208801610bd8565b602083019390935250601f91909101601f191601606001919050565b60208152610a9f602082018351610a03565b602082810151805160e08401529081015161010083015260408082015163ffffffff908116610120850152606092830151166101408401528301516001600160a01b031661016083015282015161018082015260808201516101e06101a0830181905260009190610b14610200850183610987565b915060a0850151601f1980868503016101c0870152610b3384836109ca565b935060c0870151915080868503018387015250610b5083826109ca565b9695505050505050565b60405160e0810167ffffffffffffffff81118282101715610b7d57610b7d610c08565b60405290565b604051601f8201601f1916810167ffffffffffffffff81118282101715610bac57610bac610c08565b604052919050565b600067ffffffffffffffff821115610bce57610bce610c08565b5060051b60200190565b60005b83811015610bf3578181015183820152602001610bdb565b83811115610c02576000848401525b50505050565b634e487b7160e01b600052604160045260246000fd5b6001600160a01b0381168114610c3357600080fd5b5056fea2646970667358221220c01fa283d6c3bc4ed667d2418bdbeb96e2c854e63f3ab395eab1b72963fba9ed64736f6c63430008040033",
  "immutableReferences": {},
  "source": "// SPDX-License-Identifier: Apache-2.0\npragma solidity ^0.8.4;\n\nimport \"./ONEWallet.sol\";\nimport \"./IONEWallet.sol\";\nimport \"./Factory.sol\";\nimport \"./Version.sol\";\n\nlibrary ONEWalletCodeHelper {\n    function code() pure public returns (bytes memory){\n        return type(ONEWallet).creationCode;\n    }\n}\n\ncontract ONEWalletFactoryHelper {\n    ONEWalletFactory public factory = ONEWalletFactory(address(0));\n    constructor(ONEWalletFactory factory_){\n        factory = factory_;\n    }\n    function getVersion() public pure returns (uint32, uint32){\n        return (Version.majorVersion, Version.minorVersion);\n    }\n    function deploy(IONEWallet.InitParams memory args) payable public returns (address){\n        // ONEWallet has no constructor argument since v15\n        address addr = factory.deploy{value : msg.value}(ONEWalletCodeHelper.code(), uint256(args.identificationHash));\n        if (addr == address(0)) {\n            return addr;\n        }\n        IONEWallet(addr).initialize(args);\n        return addr;\n    }\n\n    function predict(bytes32 identificationHash) public view returns (address){\n        return factory.predict(ONEWalletCodeHelper.code(), uint256(identificationHash));\n    }\n\n    function verify(IONEWallet addr) public view returns (bool){\n        address predictedAddress = factory.predict(ONEWalletCodeHelper.code(), uint256(addr.identificationHash()));\n        return predictedAddress == address(addr);\n    }\n}\n",
  "sourcePath": "/Users/polymorpher/git/one-wallet/code/contracts/FactoryHelper.sol",
  "compiler": {
    "name": "solc",
    "version": "0.8.4+commit.c7e474f2.Emscripten.clang"
  },
  "schemaVersion": "3.4.2",
  "updatedAt": "2021-11-14T03:36:13.730Z",
  "devdoc": {
    "kind": "dev",
    "methods": {},
    "version": 1
  },
  "userdoc": {
    "kind": "user",
    "methods": {},
    "version": 1
  }
}