{
  "contractName": "ONEWallet",
  "abi": [
    {
      "inputs": [
        {
          "internalType": "bytes32",
          "name": "root_",
          "type": "bytes32"
        },
        {
          "internalType": "uint8",
          "name": "height_",
          "type": "uint8"
        },
        {
          "internalType": "uint8",
          "name": "interval_",
          "type": "uint8"
        },
        {
          "internalType": "uint32",
          "name": "t0_",
          "type": "uint32"
        },
        {
          "internalType": "uint32",
          "name": "lifespan_",
          "type": "uint32"
        },
        {
          "internalType": "uint8",
          "name": "maxOperationsPerInterval_",
          "type": "uint8"
        },
        {
          "internalType": "address payable",
          "name": "lastResortAddress_",
          "type": "address"
        },
        {
          "internalType": "uint256",
          "name": "dailyLimit_",
          "type": "uint256"
        }
      ],
      "stateMutability": "nonpayable",
      "type": "constructor"
    },
    {
      "anonymous": false,
      "inputs": [
        {
          "indexed": false,
          "internalType": "bytes",
          "name": "data",
          "type": "bytes"
        },
        {
          "indexed": false,
          "internalType": "bytes32",
          "name": "hash",
          "type": "bytes32"
        }
      ],
      "name": "CheckingCommit",
      "type": "event"
    },
    {
      "stateMutability": "payable",
      "type": "receive"
    },
    {
      "inputs": [],
      "name": "retire",
      "outputs": [
        {
          "internalType": "bool",
          "name": "",
          "type": "bool"
        }
      ],
      "stateMutability": "nonpayable",
      "type": "function"
    },
    {
      "inputs": [
        {
          "internalType": "address payable",
          "name": "lastResortAddress_",
          "type": "address"
        }
      ],
      "name": "setLastResortAddressIfNull",
      "outputs": [],
      "stateMutability": "nonpayable",
      "type": "function"
    },
    {
      "inputs": [],
      "name": "getNonce",
      "outputs": [
        {
          "internalType": "uint8",
          "name": "",
          "type": "uint8"
        }
      ],
      "stateMutability": "view",
      "type": "function"
    },
    {
      "inputs": [
        {
          "internalType": "bytes32",
          "name": "hash",
          "type": "bytes32"
        }
      ],
      "name": "commit",
      "outputs": [],
      "stateMutability": "nonpayable",
      "type": "function"
    },
    {
      "inputs": [
        {
          "internalType": "bytes32[]",
          "name": "neighbors",
          "type": "bytes32[]"
        },
        {
          "internalType": "uint32",
          "name": "indexWithNonce",
          "type": "uint32"
        },
        {
          "internalType": "bytes32",
          "name": "eotp",
          "type": "bytes32"
        },
        {
          "internalType": "address payable",
          "name": "dest",
          "type": "address"
        },
        {
          "internalType": "uint256",
          "name": "amount",
          "type": "uint256"
        }
      ],
      "name": "revealTransfer",
      "outputs": [
        {
          "internalType": "bool",
          "name": "",
          "type": "bool"
        }
      ],
      "stateMutability": "nonpayable",
      "type": "function"
    },
    {
      "inputs": [
        {
          "internalType": "bytes32[]",
          "name": "neighbors",
          "type": "bytes32[]"
        },
        {
          "internalType": "uint32",
          "name": "indexWithNonce",
          "type": "uint32"
        },
        {
          "internalType": "bytes32",
          "name": "eotp",
          "type": "bytes32"
        }
      ],
      "name": "revealRecovery",
      "outputs": [
        {
          "internalType": "bool",
          "name": "",
          "type": "bool"
        }
      ],
      "stateMutability": "nonpayable",
      "type": "function"
    }
  ],
  "bytecode": "0x60806040523480156200001157600080fd5b5060405162002c6338038062002c63833981810160405281019062000037919062000178565b8760008190555086600160006101000a81548160ff021916908360ff160217905550856001806101000a81548160ff021916908360ff16021790555084600160026101000a81548163ffffffff021916908363ffffffff160217905550816001600b6101000a81548173ffffffffffffffffffffffffffffffffffffffff021916908373ffffffffffffffffffffffffffffffffffffffff16021790555080600281905550826001600a6101000a81548160ff021916908360ff160217905550505050505050505062000322565b6000815190506200011681620002a0565b92915050565b6000815190506200012d81620002ba565b92915050565b6000815190506200014481620002d4565b92915050565b6000815190506200015b81620002ee565b92915050565b600081519050620001728162000308565b92915050565b600080600080600080600080610100898b0312156200019657600080fd5b6000620001a68b828c016200011c565b9850506020620001b98b828c0162000161565b9750506040620001cc8b828c0162000161565b9650506060620001df8b828c016200014a565b9550506080620001f28b828c016200014a565b94505060a0620002058b828c0162000161565b93505060c0620002188b828c0162000105565b92505060e06200022b8b828c0162000133565b9150509295985092959890939650565b6000620002488262000259565b9050919050565b6000819050919050565b600073ffffffffffffffffffffffffffffffffffffffff82169050919050565b6000819050919050565b600063ffffffff82169050919050565b600060ff82169050919050565b620002ab816200023b565b8114620002b757600080fd5b50565b620002c5816200024f565b8114620002d157600080fd5b50565b620002df8162000279565b8114620002eb57600080fd5b50565b620002f98162000283565b81146200030557600080fd5b50565b620003138162000293565b81146200031f57600080fd5b50565b61293180620003326000396000f3fe6080604052600436106100595760003560e01c806317317a031461006557806333a23e8c146100a2578063a4874d77146100df578063c41e73f21461010a578063d087d28814610133578063f14fcbc81461015e57610060565b3661006057005b600080fd5b34801561007157600080fd5b5061008c60048036038101906100879190611c33565b610187565b60405161009991906120cf565b60405180910390f35b3480156100ae57600080fd5b506100c960048036038101906100c49190611c9f565b6105b7565b6040516100d691906120cf565b60405180910390f35b3480156100eb57600080fd5b506100f4610ad9565b60405161010191906120cf565b60405180910390f35b34801561011657600080fd5b50610131600480360381019061012c9190611c0a565b610c12565b005b34801561013f57600080fd5b50610148610ce7565b604051610155919061229a565b60405180910390f35b34801561016a57600080fd5b5061018560048036038101906101809190611d31565b610d58565b005b60008484848460018060009054906101000a900460ff166101a89190612444565b60ff1684849050146101ef576040517f08c379a00000000000000000000000000000000000000000000000000000000081526004016101e6906121fa565b60405180910390fd5b60006002826040516020016102049190611fd5565b60405160208183030381529060405260405161022091906120b8565b602060405180830381855afa15801561023d573d6000803e3d6000fd5b5050506040513d601f19601f820116820180604052508101906102609190611d5a565b905060005b60018060009054906101000a900460ff166102809190612444565b60ff168160ff16101561042e57600180851663ffffffff16141561035857600286868360ff168181106102dc577f4e487b7100000000000000000000000000000000000000000000000000000000600052603260045260246000fd5b90506020020135836040516020016102f5929190611ff0565b60405160208183030381529060405260405161031191906120b8565b602060405180830381855afa15801561032e573d6000803e3d6000fd5b5050506040513d601f19601f820116820180604052508101906103519190611d5a565b915061040e565b60028287878460ff16818110610397577f4e487b7100000000000000000000000000000000000000000000000000000000600052603260045260246000fd5b905060200201356040516020016103af929190611ff0565b6040516020818303038152906040526040516103cb91906120b8565b602060405180830381855afa1580156103e8573d6000803e3d6000fd5b5050506040513d601f19601f8201168201806040525081019061040b9190611d5a565b91505b60018463ffffffff16901c9350808061042690612547565b915050610265565b508060005414610473576040517f08c379a000000000000000000000000000000000000000000000000000000000815260040161046a9061219a565b60405180910390fd5b60008a8a60008181106104af577f4e487b7100000000000000000000000000000000000000000000000000000000600052603260045260246000fd5b905060200201358960e01b7bffffffffffffffffffffffffffffffffffffffffffffffffffffffff1916896040516020016104ec9392919061201c565b604051602081830303815290604052905060008160405160200161051091906120b8565b604051602081830303815290604052805190602001209050610532818b610e70565b61053b816110a5565b600073ffffffffffffffffffffffffffffffffffffffff166001600b9054906101000a900473ffffffffffffffffffffffffffffffffffffffff1673ffffffffffffffffffffffffffffffffffffffff16141561059d576000975050506105aa565b6105a56111ed565b975050505b5050505050949350505050565b60008686868660018060009054906101000a900460ff166105d89190612444565b60ff16848490501461061f576040517f08c379a0000000000000000000000000000000000000000000000000000000008152600401610616906121fa565b60405180910390fd5b60006002826040516020016106349190611fd5565b60405160208183030381529060405260405161065091906120b8565b602060405180830381855afa15801561066d573d6000803e3d6000fd5b5050506040513d601f19601f820116820180604052508101906106909190611d5a565b905060005b60018060009054906101000a900460ff166106b09190612444565b60ff168160ff16101561085e57600180851663ffffffff16141561078857600286868360ff1681811061070c577f4e487b7100000000000000000000000000000000000000000000000000000000600052603260045260246000fd5b9050602002013583604051602001610725929190611ff0565b60405160208183030381529060405260405161074191906120b8565b602060405180830381855afa15801561075e573d6000803e3d6000fd5b5050506040513d601f19601f820116820180604052508101906107819190611d5a565b915061083e565b60028287878460ff168181106107c7577f4e487b7100000000000000000000000000000000000000000000000000000000600052603260045260246000fd5b905060200201356040516020016107df929190611ff0565b6040516020818303038152906040526040516107fb91906120b8565b602060405180830381855afa158015610818573d6000803e3d6000fd5b5050506040513d601f19601f8201168201806040525081019061083b9190611d5a565b91505b60018463ffffffff16901c9350808061085690612547565b915050610695565b5080600054146108a3576040517f08c379a000000000000000000000000000000000000000000000000000000000815260040161089a9061219a565b60405180910390fd5b60008c8c60008181106108df577f4e487b7100000000000000000000000000000000000000000000000000000000600052603260045260246000fd5b905060200201358b60e01b7bffffffffffffffffffffffffffffffffffffffffffffffffffffffff19168b8b60601b6bffffffffffffffffffffffff19168b60001b604051602001610935959493929190612059565b604051602081830303815290604052905060008160405160200161095991906120b8565b6040516020818303038152906040528051906020012090507fe4839681e6faccf66299705e88405c975380900f848f13fe954072382534039c82826040516109a29291906120ea565b60405180910390a16109b4818d610e70565b6109bd816110a5565b60006201518063ffffffff16426109d4919061237a565b9050600460009054906101000a900463ffffffff1663ffffffff168163ffffffff161115610a2657600060038190555080600460006101000a81548163ffffffff021916908363ffffffff1602179055505b6002548a600354610a3791906122ed565b1115610a495760009850505050610aca565b89471015610a5d5760009850505050610aca565b60008b73ffffffffffffffffffffffffffffffffffffffff166108fc8c9081150290604051600060405180830381858888f19350505050905080610aa8576000995050505050610aca565b8a60036000828254610aba91906122ed565b9250508190555060019950505050505b50505050509695505050505050565b6000600160069054906101000a900463ffffffff1663ffffffff16600160029054906101000a900463ffffffff1660018054906101000a900460ff1660ff1642610b23919061237a565b610b2d9190612410565b63ffffffff1611610b73576040517f08c379a0000000000000000000000000000000000000000000000000000000008152600401610b6a9061213a565b60405180910390fd5b600073ffffffffffffffffffffffffffffffffffffffff166001600b9054906101000a900473ffffffffffffffffffffffffffffffffffffffff1673ffffffffffffffffffffffffffffffffffffffff161415610c05576040517f08c379a0000000000000000000000000000000000000000000000000000000008152600401610bfc9061211a565b60405180910390fd5b610c0d6111ed565b905090565b600073ffffffffffffffffffffffffffffffffffffffff166001600b9054906101000a900473ffffffffffffffffffffffffffffffffffffffff1673ffffffffffffffffffffffffffffffffffffffff1614610ca3576040517f08c379a0000000000000000000000000000000000000000000000000000000008152600401610c9a9061225a565b60405180910390fd5b806001600b6101000a81548173ffffffffffffffffffffffffffffffffffffffff021916908373ffffffffffffffffffffffffffffffffffffffff16021790555050565b600080600160029054906101000a900463ffffffff1660018054906101000a900460ff1660ff1642610d1991906123ab565b610d239190612410565b9050600560008263ffffffff1663ffffffff16815260200190815260200160002060009054906101000a900460ff1691505090565b610d6061124b565b600080610d6c83611525565b9150915060008263ffffffff16148015610d84575080155b610dc3576040517f08c379a0000000000000000000000000000000000000000000000000000000008152600401610dba9061227a565b60405180910390fd5b600060405180606001604052808581526020014263ffffffff16815260200160001515815250905060078190806001815401808255809150506001900390600052602060002090600202016000909190919091506000820151816000015560208201518160010160006101000a81548163ffffffff021916908363ffffffff16021790555060408201518160010160046101000a81548160ff021916908315150217905550505050505050565b60006001600a9054906101000a900460ff1660ff1682610e9091906123ab565b905060006001600a9054906101000a900460ff1660ff1683610eb2919061257b565b9050600080610ec086611525565b9150915060008263ffffffff1611610f0d576040517f08c379a0000000000000000000000000000000000000000000000000000000008152600401610f04906121ba565b60405180910390fd5b6000600160029054906101000a900463ffffffff1660018054906101000a900460ff1660ff1684610f3e91906123ab565b610f489190612410565b90508463ffffffff168163ffffffff1614610f98576040517f08c379a0000000000000000000000000000000000000000000000000000000008152600401610f8f9061215a565b60405180910390fd5b6000600560008363ffffffff1663ffffffff16815260200190815260200160002060009054906101000a900460ff1690508060ff168560ff161015611012576040517f08c379a00000000000000000000000000000000000000000000000000000000081526004016110099061223a565b60405180910390fd5b8215611053576040517f08c379a000000000000000000000000000000000000000000000000000000000815260040161104a9061217a565b60405180910390fd5b61105c84611605565b61109b576040517f08c379a0000000000000000000000000000000000000000000000000000000008152600401611092906121da565b60405180910390fd5b5050505050505050565b60005b6007805490508160ff1610156111ae57600060078260ff16815481106110f7577f4e487b7100000000000000000000000000000000000000000000000000000000600052603260045260246000fd5b90600052602060002090600202019050828160000154141561119a5760018160010160046101000a81548160ff0219169083151502179055506000600160029054906101000a900463ffffffff1660018054906101000a900460ff1660ff168360010160009054906101000a900463ffffffff1661117591906123ab565b61117f9190612410565b905061118a81611629565b6111926116fd565b5050506111ea565b5080806111a690612547565b9150506110a8565b506040517f08c379a00000000000000000000000000000000000000000000000000000000081526004016111e19061221a565b60405180910390fd5b50565b60006001600b9054906101000a900473ffffffffffffffffffffffffffffffffffffffff1673ffffffffffffffffffffffffffffffffffffffff166108fc479081150290604051600060405180830381858888f19350505050905090565b60008042905060005b6007805490508163ffffffff16101561130957600060078263ffffffff16815481106112a9577f4e487b7100000000000000000000000000000000000000000000000000000000600052603260045260246000fd5b90600052602060002090600202019050603c836112c69190612410565b63ffffffff168160010160009054906101000a900463ffffffff1663ffffffff16106112f55781935050611309565b5080806113019061251a565b915050611254565b5060008263ffffffff161415611320575050611523565b6000600780549050905060008390505b8163ffffffff168163ffffffff16101561146f5760078163ffffffff1681548110611384577f4e487b7100000000000000000000000000000000000000000000000000000000600052603260045260246000fd5b9060005260206000209060020201600785836113a09190612410565b63ffffffff16815481106113dd577f4e487b7100000000000000000000000000000000000000000000000000000000600052603260045260246000fd5b9060005260206000209060020201600082015481600001556001820160009054906101000a900463ffffffff168160010160006101000a81548163ffffffff021916908363ffffffff1602179055506001820160049054906101000a900460ff168160010160046101000a81548160ff02191690831515021790555090505080806114679061251a565b915050611330565b5060005b8363ffffffff168163ffffffff16101561151e5760078054806114bf577f4e487b7100000000000000000000000000000000000000000000000000000000600052603160045260246000fd5b60019003818190600052602060002090600202016000808201600090556001820160006101000a81549063ffffffff02191690556001820160046101000a81549060ff02191690555050905580806115169061251a565b915050611473565b505050505b565b600080600083141561153d5760008091509150611600565b60005b6007805490508163ffffffff1610156115f757600060078263ffffffff1681548110611595577f4e487b7100000000000000000000000000000000000000000000000000000000600052603260045260246000fd5b9060005260206000209060020201905084816000015414156115e3578060010160009054906101000a900463ffffffff168160010160049054906101000a900460ff16935093505050611600565b5080806115ef9061251a565b915050611540565b50600080915091505b915091565b6000603c63ffffffff168263ffffffff164261162191906123dc565b109050919050565b6000600560008363ffffffff1663ffffffff16815260200190815260200160002060009054906101000a900460ff16905060008160ff1614156116b55760068290806001815401808255809150506001900390600052602060002090600891828204019190066004029091909190916101000a81548163ffffffff021916908363ffffffff1602179055505b6001816116c29190612343565b600560008463ffffffff1663ffffffff16815260200190815260200160002060006101000a81548160ff021916908360ff1602179055505050565b6000603c4261170c9190612410565b9050600060018054906101000a900460ff1660ff168261172c91906123ab565b90506000600160029054906101000a900463ffffffff1663ffffffff168263ffffffff16111561177757600160029054906101000a900463ffffffff16826117749190612410565b90505b600060068054905067ffffffffffffffff8111156117be577f4e487b7100000000000000000000000000000000000000000000000000000000600052604160045260246000fd5b6040519080825280602002602001820160405280156117ec5781602001602082028036833780820191505090505b5090506000805b6006805490508160ff16101561192f57600060068260ff1681548110611842577f4e487b7100000000000000000000000000000000000000000000000000000000600052603260045260246000fd5b90600052602060002090600891828204019190066004029054906101000a900463ffffffff1690508463ffffffff168163ffffffff1610156118b257600560008263ffffffff1663ffffffff16815260200190815260200160002060006101000a81549060ff021916905561191b565b80848463ffffffff16815181106118f2577f4e487b7100000000000000000000000000000000000000000000000000000000600052603260045260246000fd5b602002602001019063ffffffff16908163ffffffff168152505082806119179061251a565b9350505b50808061192790612547565b9150506117f3565b5060008163ffffffff1667ffffffffffffffff811115611978577f4e487b7100000000000000000000000000000000000000000000000000000000600052604160045260246000fd5b6040519080825280602002602001820160405280156119a65781602001602082028036833780820191505090505b50905060005b8263ffffffff168160ff161015611a6a57838160ff16815181106119f9577f4e487b7100000000000000000000000000000000000000000000000000000000600052603260045260246000fd5b6020026020010151828260ff1681518110611a3d577f4e487b7100000000000000000000000000000000000000000000000000000000600052603260045260246000fd5b602002602001019063ffffffff16908163ffffffff16815250508080611a6290612547565b9150506119ac565b508060069080519060200190611a81929190611a8a565b50505050505050565b82805482825590600052602060002090600701600890048101928215611b295791602002820160005b83821115611af757835183826101000a81548163ffffffff021916908363ffffffff1602179055509260200192600401602081600301049283019260010302611ab3565b8015611b275782816101000a81549063ffffffff0219169055600401602081600301049283019260010302611af7565b505b509050611b369190611b3a565b5090565b5b80821115611b53576000816000905550600101611b3b565b5090565b600081359050611b668161289f565b92915050565b60008083601f840112611b7e57600080fd5b8235905067ffffffffffffffff811115611b9757600080fd5b602083019150836020820283011115611baf57600080fd5b9250929050565b600081359050611bc5816128b6565b92915050565b600081519050611bda816128b6565b92915050565b600081359050611bef816128cd565b92915050565b600081359050611c04816128e4565b92915050565b600060208284031215611c1c57600080fd5b6000611c2a84828501611b57565b91505092915050565b60008060008060608587031215611c4957600080fd5b600085013567ffffffffffffffff811115611c6357600080fd5b611c6f87828801611b6c565b94509450506020611c8287828801611bf5565b9250506040611c9387828801611bb6565b91505092959194509250565b60008060008060008060a08789031215611cb857600080fd5b600087013567ffffffffffffffff811115611cd257600080fd5b611cde89828a01611b6c565b96509650506020611cf189828a01611bf5565b9450506040611d0289828a01611bb6565b9350506060611d1389828a01611b57565b9250506080611d2489828a01611be0565b9150509295509295509295565b600060208284031215611d4357600080fd5b6000611d5184828501611bb6565b91505092915050565b600060208284031215611d6c57600080fd5b6000611d7a84828501611bcb565b91505092915050565b611d8c8161248a565b82525050565b611d9b81612496565b82525050565b611db2611dad82612496565b612571565b82525050565b6000611dc3826122b5565b611dcd81856122c0565b9350611ddd8185602086016124e7565b611de68161260a565b840191505092915050565b6000611dfc826122b5565b611e0681856122d1565b9350611e168185602086016124e7565b80840191505092915050565b6000611e2f601e836122dc565b9150611e3a8261261b565b602082019050919050565b6000611e526013836122dc565b9150611e5d82612644565b602082019050919050565b6000611e756031836122dc565b9150611e808261266d565b604082019050919050565b6000611e98601b836122dc565b9150611ea3826126bc565b602082019050919050565b6000611ebb6012836122dc565b9150611ec6826126e5565b602082019050919050565b6000611ede6027836122dc565b9150611ee98261270e565b604082019050919050565b6000611f016024836122dc565b9150611f0c8261275d565b604082019050919050565b6000611f24601d836122dc565b9150611f2f826127ac565b602082019050919050565b6000611f476013836122dc565b9150611f52826127d5565b602082019050919050565b6000611f6a6010836122dc565b9150611f75826127fe565b602082019050919050565b6000611f8d6022836122dc565b9150611f9882612827565b604082019050919050565b6000611fb06015836122dc565b9150611fbb82612876565b602082019050919050565b611fcf816124da565b82525050565b6000611fe18284611da1565b60208201915081905092915050565b6000611ffc8285611da1565b60208201915061200c8284611da1565b6020820191508190509392505050565b60006120288286611da1565b6020820191506120388285611da1565b6020820191506120488284611da1565b602082019150819050949350505050565b60006120658288611da1565b6020820191506120758287611da1565b6020820191506120858286611da1565b6020820191506120958285611da1565b6020820191506120a58284611da1565b6020820191508190509695505050505050565b60006120c48284611df1565b915081905092915050565b60006020820190506120e46000830184611d83565b92915050565b600060408201905081810360008301526121048185611db8565b90506121136020830184611d92565b9392505050565b6000602082019050818103600083015261213381611e22565b9050919050565b6000602082019050818103600083015261215381611e45565b9050919050565b6000602082019050818103600083015261217381611e68565b9050919050565b6000602082019050818103600083015261219381611e8b565b9050919050565b600060208201905081810360008301526121b381611eae565b9050919050565b600060208201905081810360008301526121d381611ed1565b9050919050565b600060208201905081810360008301526121f381611ef4565b9050919050565b6000602082019050818103600083015261221381611f17565b9050919050565b6000602082019050818103600083015261223381611f3a565b9050919050565b6000602082019050818103600083015261225381611f5d565b9050919050565b6000602082019050818103600083015261227381611f80565b9050919050565b6000602082019050818103600083015261229381611fa3565b9050919050565b60006020820190506122af6000830184611fc6565b92915050565b600081519050919050565b600082825260208201905092915050565b600081905092915050565b600082825260208201905092915050565b60006122f8826124c0565b9150612303836124c0565b9250827fffffffffffffffffffffffffffffffffffffffffffffffffffffffffffffffff03821115612338576123376125ac565b5b828201905092915050565b600061234e826124da565b9150612359836124da565b92508260ff0382111561236f5761236e6125ac565b5b828201905092915050565b6000612385826124c0565b9150612390836124c0565b9250826123a05761239f6125db565b5b828204905092915050565b60006123b6826124ca565b91506123c1836124ca565b9250826123d1576123d06125db565b5b828204905092915050565b60006123e7826124c0565b91506123f2836124c0565b925082821015612405576124046125ac565b5b828203905092915050565b600061241b826124ca565b9150612426836124ca565b925082821015612439576124386125ac565b5b828203905092915050565b600061244f826124da565b915061245a836124da565b92508282101561246d5761246c6125ac565b5b828203905092915050565b6000612483826124a0565b9050919050565b60008115159050919050565b6000819050919050565b600073ffffffffffffffffffffffffffffffffffffffff82169050919050565b6000819050919050565b600063ffffffff82169050919050565b600060ff82169050919050565b60005b838110156125055780820151818401526020810190506124ea565b83811115612514576000848401525b50505050565b6000612525826124ca565b915063ffffffff82141561253c5761253b6125ac565b5b600182019050919050565b6000612552826124da565b915060ff821415612566576125656125ac565b5b600182019050919050565b6000819050919050565b6000612586826124ca565b9150612591836124ca565b9250826125a1576125a06125db565b5b828206905092915050565b7f4e487b7100000000000000000000000000000000000000000000000000000000600052601160045260246000fd5b7f4e487b7100000000000000000000000000000000000000000000000000000000600052601260045260246000fd5b6000601f19601f8301169050919050565b7f4c617374207265736f72742061646472657373206973206e6f74207365740000600082015250565b7f546f6f206561726c7920746f2072657469726500000000000000000000000000600082015250565b7f50726f766964656420696e64657820646f6573206e6f74206d6174636820636f60008201527f6d6d69747465642074696d657374616d70000000000000000000000000000000602082015250565b7f436f6d6d697420697320616c726561647920636f6d706c657465640000000000600082015250565b7f50726f6f6620697320696e636f72726563740000000000000000000000000000600082015250565b7f43616e6e6f742066696e6420636f6d6d697420666f722074686973207472616e60008201527f73616374696f6e00000000000000000000000000000000000000000000000000602082015250565b7f52657665616c20697320746f6f206c6174652e20506c656173652072652d636f60008201527f6d6d697400000000000000000000000000000000000000000000000000000000602082015250565b7f4e6f7420656e6f756768206e65696768626f72732070726f7669646564000000600082015250565b7f496e76616c696420636f6d6d6974206861736800000000000000000000000000600082015250565b7f4e6f6e636520697320746f6f206c6f7700000000000000000000000000000000600082015250565b7f4c617374207265736f7274206164647265737320697320616c7265616479207360008201527f6574000000000000000000000000000000000000000000000000000000000000602082015250565b7f436f6d6d697420616c7265616479206578697374730000000000000000000000600082015250565b6128a881612478565b81146128b357600080fd5b50565b6128bf81612496565b81146128ca57600080fd5b50565b6128d6816124c0565b81146128e157600080fd5b50565b6128ed816124ca565b81146128f857600080fd5b5056fea264697066735822122037b9f22107228ffc63b843df0101875ac191ceef10926bbc7c3967c2b46c374364736f6c63430008040033",
  "immutableReferences": {},
  "source": "// SPDX-License-Identifier: Apache-2.0\npragma solidity ^0.8.4;\n\ncontract ONEWallet {\n    event CheckingCommit(bytes data, bytes32 hash);\n    bytes32 root; // Note: @ivan brought up a good point in reducing this to 16-bytes so hash of two consecutive nodes can be done in a single word (to save gas and reduce blockchain clutter). Let's not worry about that for now and re-evalaute this later.\n    uint8 height; // including the root. e.g. for a tree with 4 leaves, the height is 3.\n    uint8 interval; // otp interval in seconds, default is 30\n    uint32 t0; // starting time block (effectiveTime (in ms) / interval)\n    uint32 lifespan;  // in number of block (e.g. 1 block per [interval] seconds)\n    uint8 maxOperationsPerInterval; // number of transactions permitted per OTP interval. Each transaction shall have a unique nonce. The nonce is auto-incremented within each interval\n\n    // global mutable\n    address payable lastResortAddress; // where money will be sent during a recovery process (or when the wallet is beyond its lifespan)\n    uint256 dailyLimit; // uint128 is sufficient, but uint256 is more efficient since EVM works with 32-byte words.\n    uint256 spentToday; // note: instead of tracking the money spent for the last 24h, we are simply tracking money spent per 24h block based on UTC time. It is good enough for now, but we may want to change this later.\n    uint32 lastTransferDay;\n\n    mapping(uint32 => uint8) nonces; // keys: otp index (=timestamp in seconds / interval - t0); values: the expected nonce for that otp interval. An reveal with a nonce less than the expected value will be rejected\n    uint32[] nonceTracker; // list of nonces keys that have a non-zero value. keys cannot possibly result a successful reveal (indices beyond REVEAL_MAX_DELAY old) are auto-deleted during a clean up procedure that is called every time the nonces are incremented for some key. For each deleted key, the corresponding key in nonces will also be deleted. So the size of nonceTracker and nonces are both bounded.\n\n    struct Commit {\n        bytes32 hash;\n        uint32 timestamp;\n        bool completed;\n    }\n\n    uint32 constant REVEAL_MAX_DELAY = 60;\n    uint32 constant SECONDS_PER_DAY = 86400;\n\n    //    bool commitLocked; // not necessary at this time\n    Commit[] commits; // self-clean on commit (auto delete commits that are beyond REVEAL_MAX_DELAY), so it's bounded by the number of commits an attacker can spam within REVEAL_MAX_DELAY time in the worst case, which is not too bad.\n\n    uint256[64] ______gap; // reserved space for future upgrade\n\n    constructor(bytes32 root_, uint8 height_, uint8 interval_, uint32 t0_, uint32 lifespan_, uint8 maxOperationsPerInterval_,\n        address payable lastResortAddress_, uint256 dailyLimit_)\n    {\n        root = root_;\n        height = height_;\n        interval = interval_;\n        t0 = t0_;\n        lifespan_ = lifespan_;\n        lastResortAddress = lastResortAddress_;\n        dailyLimit = dailyLimit_;\n        maxOperationsPerInterval = maxOperationsPerInterval_;\n    }\n\n    receive() external payable {}\n\n    function retire() external returns (bool)\n    {\n        require(uint32(block.timestamp / interval) - t0 > lifespan, \"Too early to retire\");\n        require(lastResortAddress != address(0), \"Last resort address is not set\");\n        return _drain();\n    }\n\n    function setLastResortAddressIfNull(address payable lastResortAddress_) external\n    {\n        require(lastResortAddress == address(0), \"Last resort address is already set\");\n        lastResortAddress = lastResortAddress_;\n    }\n\n    function getNonce() public view returns (uint8)\n    {\n        uint32 index = uint32(block.timestamp) / interval - t0;\n        return nonces[index];\n    }\n\n    function commit(bytes32 hash) external\n    {\n        //        require(!commitLocked, \"Cleanup in progress. Queue is temporarily locked. Please resubmit.\");\n        _cleanupCommits();\n        (uint32 ct, bool completed) = _findCommit(hash);\n        require(ct == 0 && !completed, \"Commit already exists\");\n        Commit memory nc = Commit(hash, uint32(block.timestamp), false);\n        commits.push(nc);\n    }\n\n    function revealTransfer(bytes32[] calldata neighbors, uint32 indexWithNonce, bytes32 eotp, address payable dest, uint256 amount) external\n    isCorrectProof(neighbors, indexWithNonce, eotp)\n    returns (bool)\n    {\n        //        bytes memory packedNeighbors = _pack(neighbors);\n        bytes memory packed = bytes.concat(neighbors[0],\n            bytes32(bytes4(indexWithNonce)), eotp, bytes32(bytes20(address(dest))), bytes32(amount));\n        bytes32 commitHash = keccak256(bytes.concat(packed));\n        emit CheckingCommit(packed, commitHash);\n        _revealPreCheck(commitHash, indexWithNonce);\n        _completeReveal(commitHash);\n        uint32 day = uint32(block.timestamp / SECONDS_PER_DAY);\n        if (day > lastTransferDay) {\n            spentToday = 0;\n            lastTransferDay = day;\n        }\n        if (spentToday + amount > dailyLimit) {\n            return false;\n        }\n        if (address(this).balance < amount) {\n            return false;\n        }\n        bool success = dest.send(amount);\n        // we do not want to revert the whole transaction if this operation fails, since EOTP is already revealed\n        if (!success) {\n            return false;\n        }\n        spentToday += amount;\n        return true;\n    }\n\n    function revealRecovery(bytes32[] calldata neighbors, uint32 indexWithNonce, bytes32 eotp) external\n    isCorrectProof(neighbors, indexWithNonce, eotp)\n    returns (bool)\n    {\n        //        bytes memory packedNeighbors = _pack(neighbors);\n        bytes memory packed = bytes.concat(\n            neighbors[0],\n            bytes32(bytes4(indexWithNonce)),\n            eotp\n        );\n        bytes32 commitHash = keccak256(bytes.concat(packed));\n        _revealPreCheck(commitHash, indexWithNonce);\n        _completeReveal(commitHash);\n        if (lastResortAddress == address(0)) {\n            return false;\n        }\n        return _drain();\n    }\n\n    function _drain() internal returns (bool) {\n        return lastResortAddress.send(address(this).balance);\n    }\n\n    // not used at this time\n    //    modifier isValidIndex(uint32 index)\n    //    {\n    //        uint32 counter = uint32(block.timestamp) / interval - t0;\n    //        require(counter == index, \"Code has incorrect timestamp\");\n    //        _;\n    //    }\n\n    modifier isCorrectProof(bytes32[] calldata neighbors, uint32 index, bytes32 eotp)\n    {\n        require(neighbors.length == height - 1, \"Not enough neighbors provided\");\n        bytes32 h = sha256(bytes.concat(eotp));\n        for (uint8 i = 0; i < height - 1; i++) {\n            if ((index & 0x01) == 0x01) {\n                h = sha256(bytes.concat(neighbors[i], h));\n                //                h = sha256(abi.encoderPacked(neighbors[i], h));\n            } else {\n                h = sha256(bytes.concat(h, neighbors[i]));\n                //                h = sha256(abi.encoderPacked(h, neighbors[i]));\n            }\n            index >>= 1;\n        }\n        require(root == h, \"Proof is incorrect\");\n        _;\n    }\n\n    function _findCommit(bytes32 hash) view internal returns (uint32, bool)\n    {\n        if (hash == \"\") {\n            return (0, false);\n        }\n        for (uint32 i = 0; i < commits.length; i++) {\n            Commit storage c = commits[i];\n            if (c.hash == hash) {\n                return (c.timestamp, c.completed);\n            }\n        }\n        return (0, false);\n    }\n\n    // simple mechanism to prevent commits grow unbounded, if an attacker decides to spam commits (at their own expense)\n    function _cleanupCommits() internal\n    {\n        //        commitLocked = true;\n        uint32 commitIndex = 0;\n        uint32 bt = uint32(block.timestamp);\n        for (uint32 i = 0; i < commits.length; i++) {\n            Commit storage c = commits[i];\n            if (c.timestamp >= bt - REVEAL_MAX_DELAY) {\n                commitIndex = i;\n                break;\n            }\n        }\n        if (commitIndex == 0) {\n            return;\n        }\n        uint32 len = uint32(commits.length);\n\n        //        TODO (@polymorpher): replace below code with the commented out version, after solidity implements proper support for struct-array memory-storage copy operation\n        for (uint32 i = commitIndex; i < len; i++) {\n            commits[i - commitIndex] = commits[i];\n        }\n        for (uint32 i = 0; i < commitIndex; i++) {\n            commits.pop();\n        }\n        //        TODO (@polymorpher): Can't use below code because: std::exception::what: Copying of type struct ONEWallet.Commit memory[] memory to storage not yet supported.\n        //        Commit[] memory remainingCommits = new Commit[](len - commitIndex);\n        //        for (uint8 i = 0; i < remainingCommits.length; i++) {\n        //            remainingCommits[i] = commits[commitIndex + i];\n        //        }\n        //        commits = remainingCommits;\n\n        //        commitLocked = false;\n    }\n\n    function _isRevealTimely(uint32 commitTime) view internal returns (bool)\n    {\n        return block.timestamp - commitTime < REVEAL_MAX_DELAY;\n    }\n\n    function _revealPreCheck(bytes32 hash, uint32 indexWithNonce) view internal\n    {\n        uint32 index = indexWithNonce / maxOperationsPerInterval;\n        uint8 nonce = uint8(indexWithNonce % maxOperationsPerInterval);\n        (uint32 ct, bool completed) = _findCommit(hash);\n        require(ct > 0, \"Cannot find commit for this transaction\");\n        uint32 counter = ct / interval - t0;\n        require(counter == index, \"Provided index does not match committed timestamp\");\n        uint8 expectedNonce = nonces[counter];\n        require(nonce >= expectedNonce, \"Nonce is too low\");\n        require(!completed, \"Commit is already completed\");\n        // this should not happen (since old commit should be cleaned up already)\n        require(_isRevealTimely(ct), \"Reveal is too late. Please re-commit\");\n    }\n\n    function _completeReveal(bytes32 hash) internal {\n        for (uint8 i = 0; i < commits.length; i++) {\n            Commit storage c = commits[i];\n            if (c.hash == hash) {\n                c.completed = true;\n                uint32 index = uint32(c.timestamp) / interval - t0;\n                _incrementNonce(index);\n                _cleanupNonces();\n                return;\n            }\n        }\n        revert(\"Invalid commit hash\");\n    }\n\n    function _cleanupNonces() internal {\n        uint32 tMin = uint32(block.timestamp) - REVEAL_MAX_DELAY;\n        uint32 indexMinUnadjusted = tMin / interval;\n        uint32 indexMin = 0;\n        if (indexMinUnadjusted > t0) {\n            indexMin = indexMinUnadjusted - t0;\n        }\n        uint32[] memory nonZeroNonces = new uint32[](nonceTracker.length);\n        uint32 numValidIndices = 0;\n        for (uint8 i = 0; i < nonceTracker.length; i++) {\n            uint32 index = nonceTracker[i];\n            if (index < indexMin) {\n                delete nonces[index];\n            } else {\n                nonZeroNonces[numValidIndices] = index;\n                numValidIndices++;\n\n            }\n        }\n        // TODO (@polymorpher): this is so stupid. Replace this with inline assembly later. https://ethereum.stackexchange.com/questions/51891/how-to-pop-from-decrease-the-length-of-a-memory-array-in-solidity\n        uint32[] memory reducedArray = new uint32[](numValidIndices);\n        for (uint8 i = 0; i < numValidIndices; i++) {\n            reducedArray[i] = nonZeroNonces[i];\n        }\n        nonceTracker = reducedArray;\n    }\n\n    function _incrementNonce(uint32 index) internal {\n        uint8 v = nonces[index];\n        if (v == 0) {\n            nonceTracker.push(index);\n        }\n        nonces[index] = v + 1;\n    }\n\n    // not used at this time\n    // same output as abi.encodePacked(x), but the behavior of abi.encodePacked is sort of uncertain\n    //    function _pack(bytes32[] calldata x) pure internal returns (bytes memory)\n    //    {\n    //        // TODO (@polymorpher): use assembly mstore and mload to do this, similar to _asByte32 below\n    //        bytes memory r = new bytes(x.length * 32);\n    //        for (uint8 i = 0; i < x.length; i++) {\n    //            for (uint8 j = 0; j < 32; j++) {\n    //                r[i * 32 + j] = x[i][j];\n    //            }\n    //        }\n    //        return r;\n    //    }\n\n    // not used at this time\n    //    function _asByte32(bytes memory b) pure internal returns (bytes32){\n    //        if (b.length == 0) {\n    //            return bytes32(0x0);\n    //        }\n    //        require(b.length <= 32, \"input bytes are too long for _asByte32\");\n    //        byte32 r;\n    //        uint8 len = (32 - b.length) * 8;\n    //        assembly{\n    //            r := mload(add(b, 32))\n    //            r := shr(len, r)\n    //            r := shl(len, r)\n    //        }\n    //        return r;\n    //    }\n}\n",
  "sourcePath": "/Users/polymorpher/git/one-wallet/code/contracts/ONEWallet.sol",
  "compiler": {
    "name": "solc",
    "version": "0.8.4+commit.c7e474f2.Emscripten.clang"
  },
  "schemaVersion": "3.4.1",
  "updatedAt": "2021-06-13T05:21:09.408Z",
  "devdoc": {
    "kind": "dev",
    "methods": {},
    "version": 1
  },
  "userdoc": {
    "kind": "user",
    "methods": {},
    "version": 1
  }
}