{
  "contractName": "ONEWallet",
  "abi": [
    {
      "inputs": [
        {
          "internalType": "bytes32",
          "name": "root_",
          "type": "bytes32"
        },
        {
          "internalType": "uint8",
          "name": "height_",
          "type": "uint8"
        },
        {
          "internalType": "uint8",
          "name": "interval_",
          "type": "uint8"
        },
        {
          "internalType": "uint32",
          "name": "t0_",
          "type": "uint32"
        },
        {
          "internalType": "uint32",
          "name": "lifespan_",
          "type": "uint32"
        },
        {
          "internalType": "uint8",
          "name": "maxOperationsPerInterval_",
          "type": "uint8"
        },
        {
          "internalType": "address payable",
          "name": "lastResortAddress_",
          "type": "address"
        },
        {
          "internalType": "uint256",
          "name": "dailyLimit_",
          "type": "uint256"
        }
      ],
      "stateMutability": "nonpayable",
      "type": "constructor"
    },
    {
      "anonymous": false,
      "inputs": [
        {
          "indexed": false,
          "internalType": "address",
          "name": "from",
          "type": "address"
        }
      ],
      "name": "AutoRecoveryTriggered",
      "type": "event"
    },
    {
      "anonymous": false,
      "inputs": [
        {
          "indexed": false,
          "internalType": "uint256",
          "name": "amount",
          "type": "uint256"
        },
        {
          "indexed": false,
          "internalType": "uint256",
          "name": "limit",
          "type": "uint256"
        },
        {
          "indexed": false,
          "internalType": "uint256",
          "name": "current",
          "type": "uint256"
        },
        {
          "indexed": false,
          "internalType": "address",
          "name": "dest",
          "type": "address"
        }
      ],
      "name": "ExceedDailyLimit",
      "type": "event"
    },
    {
      "anonymous": false,
      "inputs": [
        {
          "indexed": false,
          "internalType": "uint256",
          "name": "amount",
          "type": "uint256"
        },
        {
          "indexed": false,
          "internalType": "uint256",
          "name": "balance",
          "type": "uint256"
        },
        {
          "indexed": false,
          "internalType": "address",
          "name": "dest",
          "type": "address"
        }
      ],
      "name": "InsufficientFund",
      "type": "event"
    },
    {
      "anonymous": false,
      "inputs": [],
      "name": "LastResortAddressNotSet",
      "type": "event"
    },
    {
      "anonymous": false,
      "inputs": [
        {
          "indexed": false,
          "internalType": "uint256",
          "name": "amount",
          "type": "uint256"
        },
        {
          "indexed": false,
          "internalType": "address",
          "name": "from",
          "type": "address"
        }
      ],
      "name": "PaymentReceived",
      "type": "event"
    },
    {
      "anonymous": false,
      "inputs": [
        {
          "indexed": false,
          "internalType": "uint256",
          "name": "amount",
          "type": "uint256"
        },
        {
          "indexed": false,
          "internalType": "address",
          "name": "dest",
          "type": "address"
        }
      ],
      "name": "PaymentSent",
      "type": "event"
    },
    {
      "anonymous": false,
      "inputs": [
        {
          "indexed": false,
          "internalType": "enum ONEWallet.TokenType",
          "name": "tokenType",
          "type": "uint8"
        },
        {
          "indexed": false,
          "internalType": "uint256",
          "name": "amount",
          "type": "uint256"
        },
        {
          "indexed": false,
          "internalType": "address",
          "name": "from",
          "type": "address"
        },
        {
          "indexed": false,
          "internalType": "address",
          "name": "tokenContract",
          "type": "address"
        },
        {
          "indexed": false,
          "internalType": "address",
          "name": "operator",
          "type": "address"
        },
        {
          "indexed": false,
          "internalType": "uint256",
          "name": "tokenId",
          "type": "uint256"
        },
        {
          "indexed": false,
          "internalType": "bytes",
          "name": "data",
          "type": "bytes"
        }
      ],
      "name": "ReceivedToken",
      "type": "event"
    },
    {
      "anonymous": false,
      "inputs": [],
      "name": "RecoveryFailure",
      "type": "event"
    },
    {
      "anonymous": false,
      "inputs": [
        {
          "indexed": false,
          "internalType": "enum ONEWallet.TokenType",
          "name": "tokenType",
          "type": "uint8"
        },
        {
          "indexed": false,
          "internalType": "address",
          "name": "contractAddress",
          "type": "address"
        },
        {
          "indexed": false,
          "internalType": "uint256",
          "name": "tokenId",
          "type": "uint256"
        }
      ],
      "name": "TokenNotFound",
      "type": "event"
    },
    {
      "anonymous": false,
      "inputs": [
        {
          "indexed": false,
          "internalType": "enum ONEWallet.TokenType",
          "name": "tokenType",
          "type": "uint8"
        },
        {
          "indexed": false,
          "internalType": "address",
          "name": "contractAddress",
          "type": "address"
        },
        {
          "indexed": false,
          "internalType": "uint256",
          "name": "tokenId",
          "type": "uint256"
        }
      ],
      "name": "TokenTracked",
      "type": "event"
    },
    {
      "anonymous": false,
      "inputs": [
        {
          "indexed": false,
          "internalType": "enum ONEWallet.TokenType",
          "name": "tokenType",
          "type": "uint8"
        },
        {
          "indexed": false,
          "internalType": "address",
          "name": "contractAddress",
          "type": "address"
        },
        {
          "indexed": false,
          "internalType": "uint256",
          "name": "tokenId",
          "type": "uint256"
        },
        {
          "indexed": false,
          "internalType": "address",
          "name": "dest",
          "type": "address"
        },
        {
          "indexed": false,
          "internalType": "uint256",
          "name": "amount",
          "type": "uint256"
        },
        {
          "indexed": false,
          "internalType": "string",
          "name": "reason",
          "type": "string"
        }
      ],
      "name": "TokenTransferError",
      "type": "event"
    },
    {
      "anonymous": false,
      "inputs": [
        {
          "indexed": false,
          "internalType": "enum ONEWallet.TokenType",
          "name": "tokenType",
          "type": "uint8"
        },
        {
          "indexed": false,
          "internalType": "address",
          "name": "contractAddress",
          "type": "address"
        },
        {
          "indexed": false,
          "internalType": "uint256",
          "name": "tokenId",
          "type": "uint256"
        },
        {
          "indexed": false,
          "internalType": "address",
          "name": "dest",
          "type": "address"
        },
        {
          "indexed": false,
          "internalType": "uint256",
          "name": "amount",
          "type": "uint256"
        }
      ],
      "name": "TokenTransferFailed",
      "type": "event"
    },
    {
      "anonymous": false,
      "inputs": [
        {
          "indexed": false,
          "internalType": "enum ONEWallet.TokenType",
          "name": "tokenType",
          "type": "uint8"
        },
        {
          "indexed": false,
          "internalType": "address",
          "name": "contractAddress",
          "type": "address"
        },
        {
          "indexed": false,
          "internalType": "uint256",
          "name": "tokenId",
          "type": "uint256"
        },
        {
          "indexed": false,
          "internalType": "address",
          "name": "dest",
          "type": "address"
        },
        {
          "indexed": false,
          "internalType": "uint256",
          "name": "amount",
          "type": "uint256"
        }
      ],
      "name": "TokenTransferSucceeded",
      "type": "event"
    },
    {
      "anonymous": false,
      "inputs": [
        {
          "indexed": false,
          "internalType": "enum ONEWallet.TokenType",
          "name": "tokenType",
          "type": "uint8"
        },
        {
          "indexed": false,
          "internalType": "address",
          "name": "contractAddress",
          "type": "address"
        },
        {
          "indexed": false,
          "internalType": "uint256",
          "name": "tokenId",
          "type": "uint256"
        }
      ],
      "name": "TokenUntracked",
      "type": "event"
    },
    {
      "anonymous": false,
      "inputs": [
        {
          "indexed": false,
          "internalType": "address",
          "name": "dest",
          "type": "address"
        }
      ],
      "name": "UnknownTransferError",
      "type": "event"
    },
    {
      "stateMutability": "payable",
      "type": "receive"
    },
    {
      "inputs": [
        {
          "internalType": "address",
          "name": "operator",
          "type": "address"
        },
        {
          "internalType": "address",
          "name": "from",
          "type": "address"
        },
        {
          "internalType": "uint256",
          "name": "id",
          "type": "uint256"
        },
        {
          "internalType": "uint256",
          "name": "value",
          "type": "uint256"
        },
        {
          "internalType": "bytes",
          "name": "data",
          "type": "bytes"
        }
      ],
      "name": "onERC1155Received",
      "outputs": [
        {
          "internalType": "bytes4",
          "name": "",
          "type": "bytes4"
        }
      ],
      "stateMutability": "nonpayable",
      "type": "function"
    },
    {
      "inputs": [
        {
          "internalType": "address",
          "name": "operator",
          "type": "address"
        },
        {
          "internalType": "address",
          "name": "from",
          "type": "address"
        },
        {
          "internalType": "uint256[]",
          "name": "ids",
          "type": "uint256[]"
        },
        {
          "internalType": "uint256[]",
          "name": "values",
          "type": "uint256[]"
        },
        {
          "internalType": "bytes",
          "name": "data",
          "type": "bytes"
        }
      ],
      "name": "onERC1155BatchReceived",
      "outputs": [
        {
          "internalType": "bytes4",
          "name": "",
          "type": "bytes4"
        }
      ],
      "stateMutability": "nonpayable",
      "type": "function"
    },
    {
      "inputs": [
        {
          "internalType": "bytes4",
          "name": "interfaceID",
          "type": "bytes4"
        }
      ],
      "name": "supportsInterface",
      "outputs": [
        {
          "internalType": "bool",
          "name": "",
          "type": "bool"
        }
      ],
      "stateMutability": "pure",
      "type": "function"
    },
    {
      "inputs": [
        {
          "internalType": "address",
          "name": "operator",
          "type": "address"
        },
        {
          "internalType": "address",
          "name": "from",
          "type": "address"
        },
        {
          "internalType": "uint256",
          "name": "tokenId",
          "type": "uint256"
        },
        {
          "internalType": "bytes",
          "name": "data",
          "type": "bytes"
        }
      ],
      "name": "onERC721Received",
      "outputs": [
        {
          "internalType": "bytes4",
          "name": "",
          "type": "bytes4"
        }
      ],
      "stateMutability": "nonpayable",
      "type": "function"
    },
    {
      "inputs": [],
      "name": "retire",
      "outputs": [
        {
          "internalType": "bool",
          "name": "",
          "type": "bool"
        }
      ],
      "stateMutability": "nonpayable",
      "type": "function"
    },
    {
      "inputs": [],
      "name": "getInfo",
      "outputs": [
        {
          "internalType": "bytes32",
          "name": "",
          "type": "bytes32"
        },
        {
          "internalType": "uint8",
          "name": "",
          "type": "uint8"
        },
        {
          "internalType": "uint8",
          "name": "",
          "type": "uint8"
        },
        {
          "internalType": "uint32",
          "name": "",
          "type": "uint32"
        },
        {
          "internalType": "uint32",
          "name": "",
          "type": "uint32"
        },
        {
          "internalType": "uint8",
          "name": "",
          "type": "uint8"
        },
        {
          "internalType": "address",
          "name": "",
          "type": "address"
        },
        {
          "internalType": "uint256",
          "name": "",
          "type": "uint256"
        }
      ],
      "stateMutability": "view",
      "type": "function"
    },
    {
      "inputs": [],
      "name": "getVersion",
      "outputs": [
        {
          "internalType": "uint32",
          "name": "",
          "type": "uint32"
        },
        {
          "internalType": "uint32",
          "name": "",
          "type": "uint32"
        }
      ],
      "stateMutability": "pure",
      "type": "function"
    },
    {
      "inputs": [],
      "name": "getCurrentSpending",
      "outputs": [
        {
          "internalType": "uint256",
          "name": "",
          "type": "uint256"
        },
        {
          "internalType": "uint256",
          "name": "",
          "type": "uint256"
        }
      ],
      "stateMutability": "view",
      "type": "function"
    },
    {
      "inputs": [],
      "name": "getNonce",
      "outputs": [
        {
          "internalType": "uint8",
          "name": "",
          "type": "uint8"
        }
      ],
      "stateMutability": "view",
      "type": "function"
    },
    {
      "inputs": [],
      "name": "getCommits",
      "outputs": [
        {
          "internalType": "bytes32[]",
          "name": "",
          "type": "bytes32[]"
        },
        {
          "internalType": "bytes32[]",
          "name": "",
          "type": "bytes32[]"
        },
        {
          "internalType": "uint32[]",
          "name": "",
          "type": "uint32[]"
        },
        {
          "internalType": "bool[]",
          "name": "",
          "type": "bool[]"
        }
      ],
      "stateMutability": "view",
      "type": "function"
    },
    {
      "inputs": [
        {
          "internalType": "bytes32",
          "name": "hash",
          "type": "bytes32"
        }
      ],
      "name": "commit",
      "outputs": [],
      "stateMutability": "nonpayable",
      "type": "function"
    },
    {
      "inputs": [
        {
          "internalType": "bytes32[]",
          "name": "neighbors",
          "type": "bytes32[]"
        },
        {
          "internalType": "uint32",
          "name": "indexWithNonce",
          "type": "uint32"
        },
        {
          "internalType": "bytes32",
          "name": "eotp",
          "type": "bytes32"
        },
        {
          "internalType": "address payable",
          "name": "dest",
          "type": "address"
        },
        {
          "internalType": "uint256",
          "name": "amount",
          "type": "uint256"
        }
      ],
      "name": "revealTransfer",
      "outputs": [
        {
          "internalType": "bool",
          "name": "",
          "type": "bool"
        }
      ],
      "stateMutability": "nonpayable",
      "type": "function"
    },
    {
      "inputs": [
        {
          "internalType": "bytes32[]",
          "name": "neighbors",
          "type": "bytes32[]"
        },
        {
          "internalType": "uint32",
          "name": "indexWithNonce",
          "type": "uint32"
        },
        {
          "internalType": "bytes32",
          "name": "eotp",
          "type": "bytes32"
        }
      ],
      "name": "revealRecovery",
      "outputs": [
        {
          "internalType": "bool",
          "name": "",
          "type": "bool"
        }
      ],
      "stateMutability": "nonpayable",
      "type": "function"
    },
    {
      "inputs": [
        {
          "internalType": "bytes32[]",
          "name": "neighbors",
          "type": "bytes32[]"
        },
        {
          "internalType": "uint32",
          "name": "indexWithNonce",
          "type": "uint32"
        },
        {
          "internalType": "bytes32",
          "name": "eotp",
          "type": "bytes32"
        },
        {
          "internalType": "address payable",
          "name": "lastResortAddress_",
          "type": "address"
        }
      ],
      "name": "revealSetLastResortAddress",
      "outputs": [],
      "stateMutability": "nonpayable",
      "type": "function"
    },
    {
      "inputs": [
        {
          "internalType": "bytes32[]",
          "name": "neighbors",
          "type": "bytes32[]"
        },
        {
          "internalType": "uint32",
          "name": "indexWithNonce",
          "type": "uint32"
        },
        {
          "internalType": "bytes32",
          "name": "eotp",
          "type": "bytes32"
        },
        {
          "internalType": "enum ONEWallet.OperationType",
          "name": "operationType",
          "type": "uint8"
        },
        {
          "internalType": "enum ONEWallet.TokenType",
          "name": "tokenType",
          "type": "uint8"
        },
        {
          "internalType": "address",
          "name": "contractAddress",
          "type": "address"
        },
        {
          "internalType": "uint256",
          "name": "tokenId",
          "type": "uint256"
        },
        {
          "internalType": "address",
          "name": "dest",
          "type": "address"
        },
        {
          "internalType": "uint256",
          "name": "amount",
          "type": "uint256"
        },
        {
          "internalType": "bytes",
          "name": "data",
          "type": "bytes"
        }
      ],
      "name": "revealTokenOperation",
      "outputs": [],
      "stateMutability": "nonpayable",
      "type": "function"
    }
  ],
  "bytecode": "0x60806040523480156200001157600080fd5b5060405162003d6338038062003d63833981016040819052620000349162000111565b6000979097556001805460029890985560ff9283166a01000000000000000000000260ff60501b196001600160a01b039093166b0100000000000000000000000292909216600160501b600160f81b031963ffffffff95861666010000000000000263ffffffff60301b199790961662010000029690961662010000600160501b03199785166101000261ffff19909a169890941697909717979097179490941617171691909117179055620001b5565b805163ffffffff81168114620000fa57600080fd5b919050565b805160ff81168114620000fa57600080fd5b600080600080600080600080610100898b0312156200012e578384fd5b885197506200014060208a01620000ff565b96506200015060408a01620000ff565b95506200016060608a01620000e5565b94506200017060808a01620000e5565b93506200018060a08a01620000ff565b60c08a01519093506001600160a01b03811681146200019d578283fd5b8092505060e089015190509295985092959890939650565b613b9e80620001c56000396000f3fe6080604052600436106100ec5760003560e01c80635a9b0b891161008a578063de4242e011610059578063de4242e0146103fb578063dfdfc4ba1461041b578063f14fcbc81461043b578063f23a6e611461045b57600080fd5b80635a9b0b89146102e5578063a4874d771461039f578063bc197c81146103b4578063d087d288146103d457600080fd5b806317317a03116100c657806317317a03146102535780632293d3fb146102735780632f1f7520146102a057806333a23e8c146102c557600080fd5b806301ffc9a7146101c35780630d8e6e2c146101f8578063150b7a021461021a57600080fd5b366101be57604080513481523360208201527fa26ab80e902f2055a125714fc6f2eb15df2a09c7fe39c7fc71204ffba72109db910160405180910390a1670de0b6b3a7640000341461013a57005b600154600160581b90046001600160a01b0316331461015557005b600154600160581b90046001600160a01b031661016e57005b3330141561017857005b6040513381527f0cbe1fea4becf04af2176bbef0c9c53d439d30a05a197aacc38bb4a2873222e39060200160405180910390a16101b361047b565b6101bc57600080fd5b005b600080fd5b3480156101cf57600080fd5b506101e36101de36600461350a565b6104e0565b60405190151581526020015b60405180910390f35b34801561020457600080fd5b50604080516005815260016020820152016101ef565b34801561022657600080fd5b5061023a6102353660046131b0565b610532565b6040516001600160e01b031990911681526020016101ef565b34801561025f57600080fd5b506101e361026e366004613299565b610598565b34801561027f57600080fd5b506003546004546040805192835263ffffffff9091166020830152016101ef565b3480156102ac57600080fd5b506102b56106eb565b6040516101ef94939291906136ce565b3480156102d157600080fd5b506101e36102e0366004613362565b6109f5565b3480156102f157600080fd5b50610349600054600154600254919260ff80831693610100840482169362010000810463ffffffff908116946601000000000000830490911693600160501b83041692600160581b9092046001600160a01b03169190565b6040805198895260ff97881660208a01529587169588019590955263ffffffff9384166060880152919092166080860152921660a08401526001600160a01b0390911660c083015260e0820152610100016101ef565b3480156103ab57600080fd5b506101e3610cd9565b3480156103c057600080fd5b5061023a6103cf3660046130f6565b610e11565b3480156103e057600080fd5b506103e9610f23565b60405160ff90911681526020016101ef565b34801561040757600080fd5b506101bc6104163660046133da565b610f72565b34801561042757600080fd5b506101bc6104363660046132f2565b61107c565b34801561044757600080fd5b506101bc6104563660046134da565b6111fe565b34801561046757600080fd5b5061023a610476366004613220565b61137a565b6001546040516000918291600160581b9091046001600160a01b03169047908381818185875af1925050503d80600081146104d2576040519150601f19603f3d011682016040523d82523d6000602084013e6104d7565b606091505b50909392505050565b60006001600160e01b031982166301ffc9a760e01b148061051157506001600160e01b0319821663f23a6e6160e01b145b8061052c57506001600160e01b03198216630a85bd0160e11b145b92915050565b60007feb7a68d5a205eea79480f44587fe8146ae15b7e92582967fd1b1b119c9b60efa60018087338a898989604051610572989796959493929190613867565b60405180910390a1610586600133866113e1565b50630a85bd0160e11b95945050505050565b60006105a68585858561177e565b6000858560008181106105c957634e487b7160e01b600052603260045260246000fd5b905060200201358460e01b6001600160e01b03191684604051602001610602939291909283526020830191909152604082015260600190565b604051602081830303815290604052905060008160405160200161062691906135f3565b6040516020818303038152906040528051906020012090506106488186611a3a565b61065181611ca8565b600154600160581b90046001600160a01b031661069c576040517fc27dbdcf29e2a161f0420d399444129801e578bafe157fef0370098459e082bf90600090a16000925050506106e3565b6106a461047b565b6106dc576040517fa3a244603d968c02ebd2017f990d4e077cf0381929976be2a0cb07076147a56f90600090a16000925050506106e3565b6001925050505b949350505050565b60608060608060006007805490506001600160401b0381111561071e57634e487b7160e01b600052604160045260246000fd5b604051908082528060200260200182016040528015610747578160200160208202803683370190505b506007549091506000906001600160401b0381111561077657634e487b7160e01b600052604160045260246000fd5b60405190808252806020026020018201604052801561079f578160200160208202803683370190505b506007549091506000906001600160401b038111156107ce57634e487b7160e01b600052604160045260246000fd5b6040519080825280602002602001820160405280156107f7578160200160208202803683370190505b506007549091506000906001600160401b0381111561082657634e487b7160e01b600052604160045260246000fd5b60405190808252806020026020018201604052801561084f578160200160208202803683370190505b50905060005b60075463ffffffff821610156109e75760078163ffffffff168154811061088c57634e487b7160e01b600052603260045260246000fd5b906000526020600020906002020160000154848263ffffffff16815181106108c457634e487b7160e01b600052603260045260246000fd5b60200260200101818152505060078163ffffffff16815481106108f757634e487b7160e01b600052603260045260246000fd5b906000526020600020906002020160010160009054906101000a900463ffffffff16838263ffffffff168151811061093f57634e487b7160e01b600052603260045260246000fd5b602002602001019063ffffffff16908163ffffffff168152505060078163ffffffff168154811061098057634e487b7160e01b600052603260045260246000fd5b906000526020600020906002020160010160049054906101000a900460ff16828263ffffffff16815181106109c557634e487b7160e01b600052603260045260246000fd5b91151560209283029190910190910152806109df816139f0565b915050610855565b509197929650945092509050565b6000610a038787878761177e565b600087876000818110610a2657634e487b7160e01b600052603260045260246000fd5b604080516020928302909401359184019190915260e089901b6001600160e01b0319169083015250606080820187905285901b6001600160601b031916608082015260a0810184905260c0016040516020818303038152906040529050600081604051602001610a9691906135f3565b604051602081830303815290604052805190602001209050610ab88188611a3a565b610ac181611ca8565b6000610ad06201518042613902565b60045490915063ffffffff9081169082161115610b025760006003556004805463ffffffff191663ffffffff83161790555b60025485600354610b1391906138c5565b1115610b7a576002546003546040805188815260208101939093528201526001600160a01b03871660608201527f705f289c5579ebb63d8c90ed39a42a76ded07641efe4f445a9a97d1e95c75c68906080015b60405180910390a160009350505050610ccf565b84471015610bca57604080518681524760208201526001600160a01b038816918101919091527fd90084f259c3c1dbd378c6c23cff1383005852e0d9829773e15afdbaf15fb7d890606001610b66565b6000866001600160a01b03168660405160006040518083038185875af1925050503d8060008114610c17576040519150601f19603f3d011682016040523d82523d6000602084013e610c1c565b606091505b5050905080610c6e576040516001600160a01b03881681527f2c7068ca7f82b1436494678e109b299bc751ccbb88d560f7c011b48dfdb2117b9060200160405180910390a16000945050505050610ccf565b8560036000828254610c8091906138c5565b9091555050604080518781526001600160a01b03891660208201527f8f4636f285a9a17fe3479ab47bb7a5deadaf9b2295a16c3965f55fa48e542d1f910160405180910390a160019450505050505b9695505050505050565b60015460009063ffffffff6601000000000000820481169162010000810490911690610d0e9060ff6101009091041642613902565b610d189190613950565b63ffffffff1611610d665760405162461bcd60e51b8152602060048201526013602482015272546f6f206561726c7920746f2072657469726560681b60448201526064015b60405180910390fd5b600154600160581b90046001600160a01b0316610dc55760405162461bcd60e51b815260206004820152601e60248201527f4c617374207265736f72742061646472657373206973206e6f742073657400006044820152606401610d5d565b610dcd61047b565b610e0b5760405162461bcd60e51b815260206004820152600f60248201526e149958dbdd995c9e4819985a5b1959608a1b6044820152606401610d5d565b50600190565b6000805b63ffffffff8116871115610f0d573063f23a6e618b8b8b8b63ffffffff8716818110610e5157634e487b7160e01b600052603260045260246000fd5b905060200201358a8a8763ffffffff16818110610e7e57634e487b7160e01b600052603260045260246000fd5b9050602002013589896040518763ffffffff1660e01b8152600401610ea896959493929190613642565b602060405180830381600087803b158015610ec257600080fd5b505af1158015610ed6573d6000803e3d6000fd5b505050506040513d601f19601f82011682018060405250810190610efa9190613526565b5080610f05816139f0565b915050610e15565b5063bc197c8160e01b9998505050505050505050565b600154600090819062010000810463ffffffff1690610f4a90610100900460ff1642613916565b610f549190613950565b63ffffffff1660009081526005602052604090205460ff1692915050565b610f7e8b8b8b8b61177e565b6000610fb88c8c6000818110610fa457634e487b7160e01b600052603260045260246000fd5b905060200201358b8b8b8b8b8b8b8b611daa565b9050610fc4818b611a3a565b610fcd81611ca8565b6000886002811115610fef57634e487b7160e01b600052602160045260246000fd5b1415611005576110008787876113e1565b61106e565b600188600281111561102757634e487b7160e01b600052602160045260246000fd5b141561103857611000878787611ea2565b600288600281111561105a57634e487b7160e01b600052602160045260246000fd5b141561106e5761106e878787878787612588565b505050505050505050505050565b6110888585858561177e565b600154600160581b90046001600160a01b0316156110f35760405162461bcd60e51b815260206004820152602260248201527f4c617374207265736f7274206164647265737320697320616c72656164792073604482015261195d60f21b6064820152608401610d5d565b60008585600081811061111657634e487b7160e01b600052603260045260246000fd5b905060200201358460e01b6001600160e01b031916848460601b6bffffffffffffffffffffffff1916604051602001611168949392919093845260208401929092526040830152606082015260800190565b604051602081830303815290604052905060008160405160200161118c91906135f3565b6040516020818303038152906040528051906020012090506111ae8186611a3a565b6111b781611ca8565b5050600180546001600160a01b03909216600160581b027fff0000000000000000000000000000000000000000ffffffffffffffffffffff90921691909117905550505050565b6112066128f9565b60008061121283612af1565b915091508163ffffffff16600014801561122a575080155b61126e5760405162461bcd60e51b8152602060048201526015602482015274436f6d6d697420616c72656164792065786973747360581b6044820152606401610d5d565b6040805160608101825284815263ffffffff421660208201526000918101919091526007546078116112e25760405162461bcd60e51b815260206004820152601c60248201527f546f6f206d616e7920636f6d6d697473206172652070656e64696e67000000006044820152606401610d5d565b6007805460018101825560009190915281517fa66cc928b5edb82af9bd49922954155ab7b0942694bea4ce44661d9a8736c68860029092029182015560208201517fa66cc928b5edb82af9bd49922954155ab7b0942694bea4ce44661d9a8736c689909101805460409093015163ffffffff90921664ffffffffff199093169290921764010000000091151591909102179055505050565b60007feb7a68d5a205eea79480f44587fe8146ae15b7e92582967fd1b1b119c9b60efa60028588338b8a89896040516113ba989796959493929190613867565b60405180910390a16113ce600233876113e1565b5063f23a6e6160e01b9695505050505050565b6000600284600281111561140557634e487b7160e01b600052602160045260246000fd5b604080516020810192909252606086811b6001600160601b03191691830191909152810184905260800160408051601f1981840301815290829052611449916135f3565b602060405180830381855afa158015611466573d6000803e3d6000fd5b5050506040513d601f19601f8201168201806040525081019061148991906134f2565b6000818152600860205260409020549091501561162e5760005b60008281526008602052604090205463ffffffff8216101561162c576000828152600860205260408120805463ffffffff84169081106114f357634e487b7160e01b600052603260045260246000fd5b9060005260206000200154905085600281111561152057634e487b7160e01b600052602160045260246000fd5b6009828154811061154157634e487b7160e01b600052603260045260246000fd5b600091825260209091206002918202015460ff169081111561157357634e487b7160e01b600052602160045260246000fd5b1461157e575061161a565b83600982815481106115a057634e487b7160e01b600052603260045260246000fd5b906000526020600020906002020160010154146115bd575061161a565b846001600160a01b0316600982815481106115e857634e487b7160e01b600052603260045260246000fd5b600091825260209091206002909102015461010090046001600160a01b031614611612575061161a565b505050505050565b80611624816139f0565b9150506114a3565b505b6000604051806060016040528086600281111561165b57634e487b7160e01b600052602160045260246000fd5b81526001600160a01b038616602080830191909152604091820186905260008581526008825291822060098054825460018181018555938652938520909301929092558154808201835591909252825160029182027f6e1540171b6c0c960b71a7020d9f60077f6af931a8bbf590da0223dacf75c7af018054949550859490939192849260ff199092169190849081111561170657634e487b7160e01b600052602160045260246000fd5b0217905550602082015181546001600160a01b0390911661010002610100600160a81b0319909116178155604091820151600190910155517f7e1890e95e59ca252ad98a9bbeeb8c7f6ce5269f06ecb4f0cb5ebcee5770c2a29061176f90879087908790613775565b60405180910390a15050505050565b6001805461178f919060ff16613975565b60ff1683146117e05760405162461bcd60e51b815260206004820152601d60248201527f4e6f7420656e6f756768206e65696768626f72732070726f76696465640000006044820152606401610d5d565b60006002826040516020016117f791815260200190565b60408051601f1981840301815290829052611811916135f3565b602060405180830381855afa15801561182e573d6000803e3d6000fd5b5050506040513d601f19601f8201168201806040525081019061185191906134f2565b905060005b60018054611867919060ff16613975565b60ff168160ff1610156119eb576001808516141561192757600286868360ff168181106118a457634e487b7160e01b600052603260045260246000fd5b90506020020135836040516020016118c6929190918252602082015260400190565b60408051601f19818403018152908290526118e0916135f3565b602060405180830381855afa1580156118fd573d6000803e3d6000fd5b5050506040513d601f19601f8201168201806040525081019061192091906134f2565b91506119cb565b60028287878460ff1681811061194d57634e487b7160e01b600052603260045260246000fd5b9050602002013560405160200161196e929190918252602082015260400190565b60408051601f1981840301815290829052611988916135f3565b602060405180830381855afa1580156119a5573d6000803e3d6000fd5b5050506040513d601f19601f820116820180604052508101906119c891906134f2565b91505b60018463ffffffff16901c935080806119e390613a14565b915050611856565b508060005414611a325760405162461bcd60e51b8152602060048201526012602482015271141c9bdbd9881a5cc81a5b98dbdc9c9958dd60721b6044820152606401610d5d565b505b50505050565b600154600090611a5490600160501b900460ff1683613916565b600154909150600090611a7190600160501b900460ff1684613a34565b9050600080611a7f86612af1565b9150915060008263ffffffff1611611ae95760405162461bcd60e51b815260206004820152602760248201527f43616e6e6f742066696e6420636f6d6d697420666f722074686973207472616e60448201526639b0b1ba34b7b760c91b6064820152608401610d5d565b60015460009062010000810463ffffffff1690611b0e90610100900460ff1685613916565b611b189190613950565b90508463ffffffff168163ffffffff1614611b8f5760405162461bcd60e51b815260206004820152603160248201527f50726f766964656420696e64657820646f6573206e6f74206d6174636820636f60448201527006d6d69747465642074696d657374616d7607c1b6064820152608401610d5d565b63ffffffff811660009081526005602052604090205460ff908116908516811115611bef5760405162461bcd60e51b815260206004820152601060248201526f4e6f6e636520697320746f6f206c6f7760801b6044820152606401610d5d565b8215611c3d5760405162461bcd60e51b815260206004820152601b60248201527f436f6d6d697420697320616c726561647920636f6d706c6574656400000000006044820152606401610d5d565b611c4684612b9b565b611c9e5760405162461bcd60e51b8152602060048201526024808201527f52657665616c20697320746f6f206c6174652e20506c656173652072652d636f6044820152631b5b5a5d60e21b6064820152608401610d5d565b5050505050505050565b60005b60075460ff82161015611d6b57600060078260ff1681548110611cde57634e487b7160e01b600052603260045260246000fd5b906000526020600020906002020190508281600001541415611d58576001818101805464ff0000000019811664010000000017909155905460009163ffffffff620100008304811692611d3b9261010090910460ff169116613916565b611d459190613950565b9050611d5081612bb6565b611a34612c66565b5080611d6381613a14565b915050611cab565b5060405162461bcd60e51b8152602060048201526013602482015272092dcecc2d8d2c840c6dedadad2e840d0c2e6d606b1b6044820152606401610d5d565b6000808a8a60e01b6001600160e01b0319168a8a6002811115611ddd57634e487b7160e01b600052602160045260246000fd5b8a6002811115611dfd57634e487b7160e01b600052602160045260246000fd5b604080516020810196909652850193909352606080850192909252608084015260a08301919091526001600160601b031988821b811660c084015260e083018890529086901b166101008201526101208101849052610140016040516020818303038152906040529050600081604051602001611e7a91906135f3565b60408051808303601f1901815291905280516020909101209c9b505050505050505050505050565b60006002846002811115611ec657634e487b7160e01b600052602160045260246000fd5b604080516020810192909252606086811b6001600160601b03191691830191909152810184905260800160408051601f1981840301815290829052611f0a916135f3565b602060405180830381855afa158015611f27573d6000803e3d6000fd5b5050506040513d601f19601f82011682018060405250810190611f4a91906134f2565b600081815260086020526040902054909150611f665750505050565b60005b60008281526008602052604090205463ffffffff82161015612546576000828152600860205260408120805463ffffffff8416908110611fb957634e487b7160e01b600052603260045260246000fd5b90600052602060002001549050856002811115611fe657634e487b7160e01b600052602160045260246000fd5b6009828154811061200757634e487b7160e01b600052603260045260246000fd5b600091825260209091206002918202015460ff169081111561203957634e487b7160e01b600052602160045260246000fd5b146120445750612534565b836009828154811061206657634e487b7160e01b600052603260045260246000fd5b906000526020600020906002020160010154146120835750612534565b846001600160a01b0316600982815481106120ae57634e487b7160e01b600052603260045260246000fd5b600091825260209091206002909102015461010090046001600160a01b0316146120d85750612534565b6009546000906120ea90600190613939565b90506009818154811061210d57634e487b7160e01b600052603260045260246000fd5b90600052602060002090600202016009838154811061213c57634e487b7160e01b600052603260045260246000fd5b60009182526020909120825460029283029091018054909260ff90921691839160ff191690600190849081111561218357634e487b7160e01b600052602160045260246000fd5b021790555081548154610100600160a81b031916610100918290046001600160a01b031690910217815560019182015491015560098054600091600291859081106121de57634e487b7160e01b600052603260045260246000fd5b600091825260209091206002918202015460ff169081111561221057634e487b7160e01b600052602160045260246000fd5b600980548690811061223257634e487b7160e01b600052603260045260246000fd5b906000526020600020906002020160000160019054906101000a90046001600160a01b031660601b6bffffffffffffffffffffffff19166009868154811061228a57634e487b7160e01b600052603260045260246000fd5b90600052602060002090600202016001015460001b6040516020016122c2939291909283526020830191909152604082015260600190565b60408051601f19818403018152908290526122dc916135f3565b602060405180830381855afa1580156122f9573d6000803e3d6000fd5b5050506040513d601f19601f8201168201806040525081019061231c91906134f2565b9050600980548061233d57634e487b7160e01b600052603160045260246000fd5b60008281526020812060026000199093019283020180546001600160a81b031916815560010181905591555b60008281526008602052604090205463ffffffff82161015612423576000828152600860205260409020805484919063ffffffff84169081106123bc57634e487b7160e01b600052603260045260246000fd5b90600052602060002001541415612411576000828152600860205260409020805485919063ffffffff841690811061240457634e487b7160e01b600052603260045260246000fd5b6000918252602090912001555b8061241b816139f0565b915050612369565b506000858152600860205260409020805461244090600190613939565b8154811061245e57634e487b7160e01b600052603260045260246000fd5b906000526020600020015460086000878152602001908152602001600020848154811061249b57634e487b7160e01b600052603260045260246000fd5b9060005260206000200181905550600860008681526020019081526020016000208054806124d957634e487b7160e01b600052603160045260246000fd5b600190038181906000526020600020016000905590557f166bc904e3b7f8699e175923a2635944dd9ac0dc817927aac60d854d23a82b9b88888860405161252293929190613775565b60405180910390a15050505050505050565b8061253e816139f0565b915050611f69565b507ffc773cf3883ef83133327fbc62fe0a7c3c96add34a1781cae66ba5de7efa3f5f84848460405161257a93929190613775565b60405180910390a150505050565b60008660028111156125aa57634e487b7160e01b600052602160045260246000fd5b14156127575760405163a9059cbb60e01b81526001600160a01b0384811660048301526024820184905286169063a9059cbb90604401602060405180830381600087803b1580156125fa57600080fd5b505af192505050801561262a575060408051601f3d908101601f19168201909252612627918101906134b3565b60015b6126e357612636613a99565b806308c379a0141561269d575061264b613ab1565b80612656575061269f565b7fb2c309e26e7b2de22ddccb000bdb486012c32f2d701ded2884bad91974065cba87878787878660405161268f969594939291906137d8565b60405180910390a150611612565b505b7fb2c309e26e7b2de22ddccb000bdb486012c32f2d701ded2884bad91974065cba86868686866040516126d695949392919061381f565b60405180910390a1611612565b8015612720577f1b7af2671454aac8f59a0b294dd30d582e2df89a6efef446afd125b268795b31878787878760405161268f95949392919061379d565b7f75a36803468aca74d964b22522480470a7a3f2121daa5994c2a937aec85d2329878787878760405161268f95949392919061379d565b600186600281111561277957634e487b7160e01b600052602160045260246000fd5b141561281f57604051635c46a7ef60e11b81526001600160a01b0386169063b88d4fde906127b190309087908990879060040161360f565b600060405180830381600087803b1580156127cb57600080fd5b505af19250505080156127dc575060015b6127e857612636613a99565b7f1b7af2671454aac8f59a0b294dd30d582e2df89a6efef446afd125b268795b3186868686866040516126d695949392919061379d565b600286600281111561284157634e487b7160e01b600052602160045260246000fd5b141561161257604051637921219560e11b81526001600160a01b0386169063f242432a9061287b9030908790899088908890600401613689565b600060405180830381600087803b15801561289557600080fd5b505af19250505080156128a6575060015b6128b257612636613a99565b7f1b7af2671454aac8f59a0b294dd30d582e2df89a6efef446afd125b268795b3186868686866040516128e995949392919061379d565b60405180910390a1505050505050565b600042815b60075463ffffffff8216101561298457600060078263ffffffff168154811061293757634e487b7160e01b600052603260045260246000fd5b90600052602060002090600202019050603c836129549190613950565b600182015463ffffffff9182169116106129715781935050612984565b508061297c816139f0565b9150506128fe565b5063ffffffff8216612994575050565b600754825b8163ffffffff168163ffffffff161015612a7f5760078163ffffffff16815481106129d457634e487b7160e01b600052603260045260246000fd5b9060005260206000209060020201600785836129f09190613950565b63ffffffff1681548110612a1457634e487b7160e01b600052603260045260246000fd5b6000918252602090912082546002909202019081556001918201805492909101805463ffffffff19811663ffffffff9094169384178255915460ff640100000000918290041615150264ffffffffff1990921690921717905580612a77816139f0565b915050612999565b5060005b8363ffffffff168163ffffffff161015611a34576007805480612ab657634e487b7160e01b600052603160045260246000fd5b600082815260208120600260001990930192830201908155600101805464ffffffffff19169055905580612ae9816139f0565b915050612a83565b60008082612b0457506000928392509050565b60005b60075463ffffffff82161015612b8f57600060078263ffffffff1681548110612b4057634e487b7160e01b600052603260045260246000fd5b906000526020600020906002020190508481600001541415612b7c576001015463ffffffff81169564010000000090910460ff16945092505050565b5080612b87816139f0565b915050612b07565b50600093849350915050565b6000603c612baf63ffffffff841642613939565b1092915050565b63ffffffff811660009081526005602052604090205460ff1680612c2f57600680546001810182556000919091527ff652222313e28459528d920b65115c16c04f3efc82aaedc97be59f3f377c0d3f6008820401805460079092166004026101000a63ffffffff81810219909316928516029190911790555b612c3a8160016138dd565b63ffffffff929092166000908152600560205260409020805460ff191660ff9093169290921790915550565b6000612c73603c42613950565b600154909150600090612c8e90610100900460ff1683613916565b60015490915060009063ffffffff6201000090910481169083161115612cca57600154612cc79062010000900463ffffffff1683613950565b90505b6006546000906001600160401b03811115612cf557634e487b7160e01b600052604160045260246000fd5b604051908082528060200260200182016040528015612d1e578160200160208202803683370190505b5090506000805b60065460ff82161015612e0857600060068260ff1681548110612d5857634e487b7160e01b600052603260045260246000fd5b6000918252602090912060088204015460079091166004026101000a900463ffffffff90811691508516811015612dab5763ffffffff81166000908152600560205260409020805460ff19169055612df5565b80848463ffffffff1681518110612dd257634e487b7160e01b600052603260045260246000fd5b63ffffffff9092166020928302919091019091015282612df1816139f0565b9350505b5080612e0081613a14565b915050612d25565b5060008163ffffffff166001600160401b03811115612e3757634e487b7160e01b600052604160045260246000fd5b604051908082528060200260200182016040528015612e60578160200160208202803683370190505b50905060005b8263ffffffff168160ff161015612eec57838160ff1681518110612e9a57634e487b7160e01b600052603260045260246000fd5b6020026020010151828260ff1681518110612ec557634e487b7160e01b600052603260045260246000fd5b63ffffffff9092166020928302919091019091015280612ee481613a14565b915050612e66565b508051612f00906006906020840190612f09565b50505050505050565b82805482825590600052602060002090600701600890048101928215612fa85791602002820160005b83821115612f7657835183826101000a81548163ffffffff021916908363ffffffff1602179055509260200192600401602081600301049283019260010302612f32565b8015612fa65782816101000a81549063ffffffff0219169055600401602081600301049283019260010302612f76565b505b50612fb4929150612fb8565b5090565b5b80821115612fb45760008155600101612fb9565b8035612fd881613b3a565b919050565b60008083601f840112612fee578081fd5b5081356001600160401b03811115613004578182fd5b6020830191508360208260051b850101111561301f57600080fd5b9250929050565b60008083601f840112613037578182fd5b5081356001600160401b0381111561304d578182fd5b60208301915083602082850101111561301f57600080fd5b600082601f830112613075578081fd5b81356001600160401b0381111561308e5761308e613a83565b6040516130a5601f8301601f1916602001826139c4565b8181528460208386010111156130b9578283fd5b816020850160208301379081016020019190915292915050565b803560038110612fd857600080fd5b803563ffffffff81168114612fd857600080fd5b60008060008060008060008060a0898b031215613111578384fd5b883561311c81613b3a565b9750602089013561312c81613b3a565b965060408901356001600160401b0380821115613147578586fd5b6131538c838d01612fdd565b909850965060608b013591508082111561316b578586fd5b6131778c838d01612fdd565b909650945060808b013591508082111561318f578384fd5b5061319c8b828c01613026565b999c989b5096995094979396929594505050565b6000806000806000608086880312156131c7578081fd5b85356131d281613b3a565b945060208601356131e281613b3a565b93506040860135925060608601356001600160401b03811115613203578182fd5b61320f88828901613026565b969995985093965092949392505050565b60008060008060008060a08789031215613238578182fd5b863561324381613b3a565b9550602087013561325381613b3a565b9450604087013593506060870135925060808701356001600160401b0381111561327b578283fd5b61328789828a01613026565b979a9699509497509295939492505050565b600080600080606085870312156132ae578384fd5b84356001600160401b038111156132c3578485fd5b6132cf87828801612fdd565b90955093506132e29050602086016130e2565b9396929550929360400135925050565b600080600080600060808688031215613309578081fd5b85356001600160401b0381111561331e578182fd5b61332a88828901612fdd565b909650945061333d9050602087016130e2565b925060408601359150606086013561335481613b3a565b809150509295509295909350565b60008060008060008060a0878903121561337a578384fd5b86356001600160401b0381111561338f578485fd5b61339b89828a01612fdd565b90975095506133ae9050602088016130e2565b93506040870135925060608701356133c581613b3a565b80925050608087013590509295509295509295565b60008060008060008060008060008060006101408c8e0312156133fb578485fd5b6001600160401b03808d351115613410578586fd5b61341d8e8e358f01612fdd565b909c509a5061342e60208e016130e2565b995060408d0135985061344360608e016130d3565b975061345160808e016130d3565b965061345f60a08e01612fcd565b955060c08d0135945061347460e08e01612fcd565b93506101008d01359250806101208e0135111561348f578182fd5b506134a18d6101208e01358e01613065565b90509295989b509295989b9093969950565b6000602082840312156134c4578081fd5b815180151581146134d3578182fd5b9392505050565b6000602082840312156134eb578081fd5b5035919050565b600060208284031215613503578081fd5b5051919050565b60006020828403121561351b578081fd5b81356134d381613b52565b600060208284031215613537578081fd5b81516134d381613b52565b6000815180845260208085019450808401835b8381101561357157815187529582019590820190600101613555565b509495945050505050565b81835281816020850137506000828201602090810191909152601f909101601f19169091010190565b600081518084526135bd816020860160208601613998565b601f01601f19169290920160200192915050565b600381106135ef57634e487b7160e01b600052602160045260246000fd5b9052565b60008251613605818460208701613998565b9190910192915050565b6001600160a01b0385811682528416602082015260408101839052608060608201819052600090610ccf908301846135a5565b6001600160a01b03878116825286166020820152604081018590526060810184905260a06080820181905260009061367d908301848661357c565b98975050505050505050565b6001600160a01b03868116825285166020820152604081018490526060810183905260a0608082018190526000906136c3908301846135a5565b979650505050505050565b6080815260006136e16080830187613542565b6020838203818501526136f48288613542565b84810360408601528651808252828801935090820190845b8181101561372e57845163ffffffff168352938301939183019160010161370c565b505084810360608601528551808252908201925081860190845b81811015613766578251151585529383019391830191600101613748565b50929998505050505050505050565b6060810161378382866135d1565b6001600160a01b0393909316602082015260400152919050565b60a081016137ab82886135d1565b6001600160a01b039586166020830152604082019490945291909316606082015260800191909152919050565b6137e281886135d1565b6001600160a01b03868116602083015260408201869052841660608201526080810183905260c060a0820181905260009061367d908301846135a5565b61382981876135d1565b6001600160a01b039485166020820152604081019390935292166060820152608081019190915260c060a0820181905260009082015260e001919050565b613871818a6135d1565b602081018890526001600160a01b03878116604083015286811660608301528516608082015260a0810184905260e060c082018190526000906138b7908301848661357c565b9a9950505050505050505050565b600082198211156138d8576138d8613a57565b500190565b600060ff821660ff84168060ff038211156138fa576138fa613a57565b019392505050565b60008261391157613911613a6d565b500490565b600063ffffffff8084168061392d5761392d613a6d565b92169190910492915050565b60008282101561394b5761394b613a57565b500390565b600063ffffffff8381169083168181101561396d5761396d613a57565b039392505050565b600060ff821660ff84168082101561398f5761398f613a57565b90039392505050565b60005b838110156139b357818101518382015260200161399b565b83811115611a345750506000910152565b601f8201601f191681016001600160401b03811182821017156139e9576139e9613a83565b6040525050565b600063ffffffff80831681811415613a0a57613a0a613a57565b6001019392505050565b600060ff821660ff811415613a2b57613a2b613a57565b60010192915050565b600063ffffffff80841680613a4b57613a4b613a6d565b92169190910692915050565b634e487b7160e01b600052601160045260246000fd5b634e487b7160e01b600052601260045260246000fd5b634e487b7160e01b600052604160045260246000fd5b600060033d1115613aae57600481823e5160e01c5b90565b600060443d1015613abf5790565b6040516003193d81016004833e81513d6001600160401b038160248401118184111715613aee57505050505090565b8285019150815181811115613b065750505050505090565b843d8701016020828501011115613b205750505050505090565b613b2f602082860101876139c4565b509095945050505050565b6001600160a01b0381168114613b4f57600080fd5b50565b6001600160e01b031981168114613b4f57600080fdfea2646970667358221220e0f4264c78d93bffbb5acf3339822e322da08e6cc5dd63e20dc9e16603f3b87b64736f6c63430008040033",
  "immutableReferences": {},
  "source": "// SPDX-License-Identifier: Apache-2.0\npragma solidity ^0.8.4;\n\nimport \"@openzeppelin/contracts/token/ERC721/IERC721Receiver.sol\";\nimport \"@openzeppelin/contracts/token/ERC721/IERC721.sol\";\nimport \"@openzeppelin/contracts/token/ERC1155/IERC1155Receiver.sol\";\nimport \"@openzeppelin/contracts/token/ERC1155/IERC1155.sol\";\nimport \"@openzeppelin/contracts/token/ERC20/IERC20.sol\";\n\ncontract ONEWallet is IERC721Receiver, IERC1155Receiver {\n    //  This event is for debugging - should not be used in production\n    //    event CheckingCommit(bytes data, bytes32 hash);\n    event InsufficientFund(uint256 amount, uint256 balance, address dest);\n    event ExceedDailyLimit(uint256 amount, uint256 limit, uint256 current, address dest);\n    event UnknownTransferError(address dest);\n    event LastResortAddressNotSet();\n    event PaymentReceived(uint256 amount, address from);\n    event PaymentSent(uint256 amount, address dest);\n    event AutoRecoveryTriggered(address from);\n    event RecoveryFailure();\n\n    bytes32 root; // Note: @ivan brought up a good point in reducing this to 16-bytes so hash of two consecutive nodes can be done in a single word (to save gas and reduce blockchain clutter). Let's not worry about that for now and re-evalaute this later.\n    uint8 height; // including the root. e.g. for a tree with 4 leaves, the height is 3.\n    uint8 interval; // otp interval in seconds, default is 30\n    uint32 t0; // starting time block (effectiveTime (in ms) / interval)\n    uint32 lifespan;  // in number of block (e.g. 1 block per [interval] seconds)\n    uint8 maxOperationsPerInterval; // number of transactions permitted per OTP interval. Each transaction shall have a unique nonce. The nonce is auto-incremented within each interval\n\n    // global mutable\n    address payable lastResortAddress; // where money will be sent during a recovery process (or when the wallet is beyond its lifespan)\n    uint256 dailyLimit; // uint128 is sufficient, but uint256 is more efficient since EVM works with 32-byte words.\n    uint256 spentToday; // note: instead of tracking the money spent for the last 24h, we are simply tracking money spent per 24h block based on UTC time. It is good enough for now, but we may want to change this later.\n    uint32 lastTransferDay;\n\n    mapping(uint32 => uint8) nonces; // keys: otp index (=timestamp in seconds / interval - t0); values: the expected nonce for that otp interval. An reveal with a nonce less than the expected value will be rejected\n    uint32[] nonceTracker; // list of nonces keys that have a non-zero value. keys cannot possibly result a successful reveal (indices beyond REVEAL_MAX_DELAY old) are auto-deleted during a clean up procedure that is called every time the nonces are incremented for some key. For each deleted key, the corresponding key in nonces will also be deleted. So the size of nonceTracker and nonces are both bounded.\n\n    struct Commit {\n        bytes32 hash;\n        uint32 timestamp;\n        bool completed;\n    }\n\n    uint32 constant REVEAL_MAX_DELAY = 60;\n    uint32 constant SECONDS_PER_DAY = 86400;\n    uint256 constant AUTO_RECOVERY_TRIGGER_AMOUNT = 1 ether;\n    uint32 constant MAX_COMMIT_SIZE = 120;\n\n    uint32 constant majorVersion = 0x5; // a change would require client to migrate\n    uint32 constant minorVersion = 0x1; // a change would not require the client to migrate\n\n    //    bool commitLocked; // not necessary at this time\n    Commit[] commits; // self-clean on commit (auto delete commits that are beyond REVEAL_MAX_DELAY), so it's bounded by the number of commits an attacker can spam within REVEAL_MAX_DELAY time in the worst case, which is not too bad.\n\n    //\n    enum OperationType {\n        TRACK, UNTRACK, TRANSFER_TOKEN\n        //        , TRANSFER, SET_RECOVERY_ADDRESS, RECOVER\n    }\n    enum TokenType{\n        ERC20, ERC721, ERC1155\n    }\n    event ReceivedToken(TokenType tokenType, uint256 amount, address from, address tokenContract, address operator, uint256 tokenId, bytes data);\n    event TokenTracked(TokenType tokenType, address contractAddress, uint256 tokenId);\n    event TokenUntracked(TokenType tokenType, address contractAddress, uint256 tokenId);\n    event TokenNotFound(TokenType tokenType, address contractAddress, uint256 tokenId);\n    event TokenTransferFailed(TokenType tokenType, address contractAddress, uint256 tokenId, address dest, uint256 amount);\n    event TokenTransferError(TokenType tokenType, address contractAddress, uint256 tokenId, address dest, uint256 amount, string reason);\n    event TokenTransferSucceeded(TokenType tokenType, address contractAddress, uint256 tokenId, address dest, uint256 amount);\n\n    // We track tokens in the contract instead of at the client so users can immediately get a record of what tokens they own when they restore their wallet at a new client\n    // The tracking of ERC721 and ERC1155 are automatically established upon a token is transferred to this wallet. The tracking of ERC20 needs to be manually established by the client.\n    // The gas cost of tracking and untracking operations are of constant complexity. The gas cost is paid by the transferer in the case of automatically established tracking, and paid by the user in the case of manual tracking.\n    struct TrackedToken {\n        TokenType tokenType;\n        address contractAddress;\n        uint256 tokenId; // only valid for ERC721 and ERC1155\n    }\n\n    mapping(bytes32 => uint256[]) trackedTokenPositions; // sha256(bytes.concat(byte32(uint(tokenType)), bytes32(contractAddress), bytes32(tokenId)) => positions in trackedTokens. Positions should be of length 1 except in very rare occasion of collision\n    TrackedToken[] trackedTokens;\n\n    constructor(bytes32 root_, uint8 height_, uint8 interval_, uint32 t0_, uint32 lifespan_, uint8 maxOperationsPerInterval_,\n        address payable lastResortAddress_, uint256 dailyLimit_)\n    {\n        root = root_;\n        height = height_;\n        interval = interval_;\n        t0 = t0_;\n        lifespan = lifespan_;\n        lastResortAddress = lastResortAddress_;\n        dailyLimit = dailyLimit_;\n        maxOperationsPerInterval = maxOperationsPerInterval_;\n    }\n\n    receive() external payable {\n        emit PaymentReceived(msg.value, msg.sender);\n        if (msg.value != AUTO_RECOVERY_TRIGGER_AMOUNT) {\n            return;\n        }\n        if (msg.sender != lastResortAddress) {\n            return;\n        }\n        if (lastResortAddress == address(0)) {\n            return;\n        }\n        if (msg.sender == address(this)) {\n            return;\n        }\n        emit AutoRecoveryTriggered(msg.sender);\n        require(_drain());\n    }\n\n    function onERC1155Received(\n        address operator,\n        address from,\n        uint256 id,\n        uint256 value,\n        bytes calldata data\n    ) external override returns (bytes4){\n        emit ReceivedToken(TokenType.ERC1155, value, from, msg.sender, operator, id, data);\n        _trackToken(TokenType.ERC1155, msg.sender, id);\n        return this.onERC1155Received.selector;\n    }\n\n    function onERC1155BatchReceived(address operator, address from, uint256[] calldata ids, uint256[] calldata values, bytes calldata data) external override returns (bytes4){\n        for (uint32 i = 0; i < ids.length; i++) {\n            this.onERC1155Received(operator, from, ids[i], values[i], data);\n        }\n        return this.onERC1155BatchReceived.selector;\n    }\n\n    function supportsInterface(bytes4 interfaceID) external override pure returns (bool) {\n        return interfaceID == this.supportsInterface.selector ||\n        interfaceID == this.onERC1155Received.selector ||\n        interfaceID == this.onERC721Received.selector;\n    }\n\n    // identical to ERC1155, except tracked only on ERC721 related data structures\n    function onERC721Received(\n        address operator,\n        address from,\n        uint256 tokenId,\n        bytes calldata data\n    ) external override returns (bytes4){\n        emit ReceivedToken(TokenType.ERC721, 1, from, msg.sender, operator, tokenId, data);\n        _trackToken(TokenType.ERC721, msg.sender, tokenId);\n        return this.onERC721Received.selector;\n    }\n\n    function retire() external returns (bool)\n    {\n        require(uint32(block.timestamp / interval) - t0 > lifespan, \"Too early to retire\");\n        require(lastResortAddress != address(0), \"Last resort address is not set\");\n        require(_drain(), \"Recovery failed\");\n        return true;\n    }\n\n    function getInfo() external view returns (bytes32, uint8, uint8, uint32, uint32, uint8, address, uint256)\n    {\n        return (root, height, interval, t0, lifespan, maxOperationsPerInterval, lastResortAddress, dailyLimit);\n    }\n\n    function getVersion() external pure returns (uint32, uint32)\n    {\n        return (majorVersion, minorVersion);\n    }\n\n    function getCurrentSpending() external view returns (uint256, uint256)\n    {\n        return (spentToday, lastTransferDay);\n    }\n\n    function getNonce() external view returns (uint8)\n    {\n        uint32 index = uint32(block.timestamp) / interval - t0;\n        return nonces[index];\n    }\n\n    function getCommits() external view returns (bytes32[] memory, bytes32[] memory, uint32[] memory, bool[] memory)\n    {\n        // will be used in the next version\n        bytes32[] memory args = new bytes32[](commits.length);\n\n        bytes32[] memory hashes = new bytes32[](commits.length);\n        uint32[] memory timestamps = new uint32[](commits.length);\n        bool[] memory completed = new bool[](commits.length);\n        for (uint32 i = 0; i < commits.length; i++) {\n            hashes[i] = commits[i].hash;\n            timestamps[i] = commits[i].timestamp;\n            completed[i] = commits[i].completed;\n        }\n        return (hashes, args, timestamps, completed);\n    }\n\n    function commit(bytes32 hash) external\n    {\n        _cleanupCommits();\n        (uint32 ct, bool completed) = _findCommit(hash);\n        require(ct == 0 && !completed, \"Commit already exists\");\n        Commit memory nc = Commit(hash, uint32(block.timestamp), false);\n        require(commits.length < MAX_COMMIT_SIZE, \"Too many commits are pending\");\n        commits.push(nc);\n    }\n\n    function revealTransfer(bytes32[] calldata neighbors, uint32 indexWithNonce, bytes32 eotp, address payable dest, uint256 amount) external\n    returns (bool)\n    {\n        _isCorrectProof(neighbors, indexWithNonce, eotp);\n        //        bytes memory packedNeighbors = _pack(neighbors);\n        bytes memory packed = bytes.concat(neighbors[0],\n            bytes32(bytes4(indexWithNonce)), eotp, bytes32(bytes20(address(dest))), bytes32(amount));\n        bytes32 commitHash = keccak256(bytes.concat(packed));\n        //        emit CheckingCommit(packed, commitHash);\n        _revealPreCheck(commitHash, indexWithNonce);\n        _completeReveal(commitHash);\n        uint32 day = uint32(block.timestamp / SECONDS_PER_DAY);\n        if (day > lastTransferDay) {\n            spentToday = 0;\n            lastTransferDay = day;\n        }\n        if (spentToday + amount > dailyLimit) {\n            emit ExceedDailyLimit(amount, dailyLimit, spentToday, dest);\n            return false;\n        }\n        if (address(this).balance < amount) {\n            emit InsufficientFund(amount, address(this).balance, dest);\n            return false;\n        }\n        (bool success,) = dest.call{value : amount}(\"\");\n        // we do not want to revert the whole transaction if this operation fails, since EOTP is already revealed\n        if (!success) {\n            emit UnknownTransferError(dest);\n            return false;\n        }\n        spentToday += amount;\n        emit PaymentSent(amount, dest);\n        return true;\n    }\n\n    function revealRecovery(bytes32[] calldata neighbors, uint32 indexWithNonce, bytes32 eotp) external\n    returns (bool)\n    {\n        _isCorrectProof(neighbors, indexWithNonce, eotp);\n        bytes memory packed = bytes.concat(\n            neighbors[0],\n            bytes32(bytes4(indexWithNonce)),\n            eotp\n        );\n        bytes32 commitHash = keccak256(bytes.concat(packed));\n        _revealPreCheck(commitHash, indexWithNonce);\n        _completeReveal(commitHash);\n        if (lastResortAddress == address(0)) {\n            emit LastResortAddressNotSet();\n            return false;\n        }\n        if (!_drain()) {\n            emit RecoveryFailure();\n            return false;\n        }\n        return true;\n    }\n\n    function revealSetLastResortAddress(bytes32[] calldata neighbors, uint32 indexWithNonce, bytes32 eotp, address payable lastResortAddress_)\n    external\n    {\n        _isCorrectProof(neighbors, indexWithNonce, eotp);\n        require(lastResortAddress == address(0), \"Last resort address is already set\");\n        bytes memory packed = bytes.concat(\n            neighbors[0],\n            bytes32(bytes4(indexWithNonce)),\n            eotp,\n            bytes32(bytes20(address(lastResortAddress_)))\n        );\n        bytes32 commitHash = keccak256(bytes.concat(packed));\n        _revealPreCheck(commitHash, indexWithNonce);\n        _completeReveal(commitHash);\n        lastResortAddress = lastResortAddress_;\n    }\n\n    function _trackToken(TokenType tokenType, address contractAddress, uint256 tokenId) internal {\n        bytes32 key = sha256(bytes.concat(bytes32(uint256(tokenType)), bytes32(bytes20(contractAddress)), bytes32(tokenId)));\n        if (trackedTokenPositions[key].length > 0) {\n            for (uint32 i = 0; i < trackedTokenPositions[key].length; i++) {\n                uint256 j = trackedTokenPositions[key][i];\n                if (trackedTokens[j].tokenType != tokenType) continue;\n                if (trackedTokens[j].tokenId != tokenId) continue;\n                if (trackedTokens[j].contractAddress != contractAddress) continue;\n                // we found a token that is already tracked and is identical to the requested token\n                return;\n            }\n        }\n        TrackedToken memory tt = TrackedToken(tokenType, contractAddress, tokenId);\n        trackedTokenPositions[key].push(trackedTokens.length);\n        trackedTokens.push(tt);\n        emit TokenTracked(tokenType, contractAddress, tokenId);\n    }\n\n    function _untrackToken(TokenType tokenType, address contractAddress, uint256 tokenId) internal {\n        bytes32 key = sha256(bytes.concat(bytes32(uint256(tokenType)), bytes32(bytes20(contractAddress)), bytes32(tokenId)));\n        if (trackedTokenPositions[key].length == 0) {\n            return;\n        }\n        for (uint32 i = 0; i < trackedTokenPositions[key].length; i++) {\n            uint256 j = trackedTokenPositions[key][i];\n            if (trackedTokens[j].tokenType != tokenType) continue;\n            if (trackedTokens[j].tokenId != tokenId) continue;\n            if (trackedTokens[j].contractAddress != contractAddress) continue;\n            // found our token\n            uint256 swappedPosition = trackedTokens.length - 1;\n            trackedTokens[j] = trackedTokens[swappedPosition];\n            bytes32 swappedKey = sha256(bytes.concat(bytes32(uint256(trackedTokens[j].tokenType)), bytes32(bytes20(trackedTokens[j].contractAddress)), bytes32(trackedTokens[j].tokenId)));\n            trackedTokens.pop();\n            for (uint32 k = 0; k < trackedTokenPositions[swappedKey].length; k++) {\n                if (trackedTokenPositions[swappedKey][k] == swappedPosition) {\n                    trackedTokenPositions[swappedKey][k] = j;\n                }\n            }\n            trackedTokenPositions[key][j] = trackedTokenPositions[key][trackedTokenPositions[key].length - 1];\n            trackedTokenPositions[key].pop();\n            emit TokenUntracked(tokenType, contractAddress, tokenId);\n            return;\n        }\n        emit TokenNotFound(tokenType, contractAddress, tokenId);\n    }\n\n    function _transferToken(TokenType tokenType, address contractAddress, uint256 tokenId, address dest, uint256 amount, bytes memory data) internal {\n        if (tokenType == TokenType.ERC20) {\n            try IERC20(contractAddress).transfer(dest, amount) returns (bool success){\n                if (success) {\n                    emit TokenTransferSucceeded(tokenType, contractAddress, tokenId, dest, amount);\n                    return;\n                }\n                emit TokenTransferFailed(tokenType, contractAddress, tokenId, dest, amount);\n            } catch Error(string memory reason){\n                emit TokenTransferError(tokenType, contractAddress, tokenId, dest, amount, reason);\n            } catch {\n                emit TokenTransferError(tokenType, contractAddress, tokenId, dest, amount, \"\");\n            }\n        } else if (tokenType == TokenType.ERC721) {\n            try IERC721(contractAddress).safeTransferFrom(address(this), dest, tokenId, data){\n                emit TokenTransferSucceeded(tokenType, contractAddress, tokenId, dest, amount);\n            } catch Error(string memory reason){\n                emit TokenTransferError(tokenType, contractAddress, tokenId, dest, amount, reason);\n            } catch {\n                emit TokenTransferError(tokenType, contractAddress, tokenId, dest, amount, \"\");\n            }\n        } else if (tokenType == TokenType.ERC1155) {\n            try IERC1155(contractAddress).safeTransferFrom(address(this), dest, tokenId, amount, data) {\n                emit TokenTransferSucceeded(tokenType, contractAddress, tokenId, dest, amount);\n            } catch Error(string memory reason){\n                emit TokenTransferError(tokenType, contractAddress, tokenId, dest, amount, reason);\n            } catch {\n                emit TokenTransferError(tokenType, contractAddress, tokenId, dest, amount, \"\");\n            }\n        }\n    }\n\n    function _revealTokenOperationPack(bytes32 neighbor, uint32 indexWithNonce, bytes32 eotp,\n        OperationType operationType, TokenType tokenType, address contractAddress, uint256 tokenId, address dest, uint256 amount) pure internal returns (bytes32) {\n        bytes memory packed = bytes.concat(\n            neighbor,\n            bytes32(bytes4(indexWithNonce)),\n            eotp,\n            bytes32(uint256(operationType)),\n            bytes32(uint256(tokenType)),\n            bytes32(bytes20(contractAddress)),\n            bytes32(tokenId),\n            bytes32(bytes20(dest)),\n            bytes32(amount)\n        // data is considered \"additional information\" or \"notes to the transaction\" thus is not included\n        );\n        bytes32 commitHash = keccak256(bytes.concat(packed));\n        return commitHash;\n    }\n\n    function revealTokenOperation(bytes32[] calldata neighbors, uint32 indexWithNonce, bytes32 eotp,\n        OperationType operationType, TokenType tokenType, address contractAddress, uint256 tokenId, address dest, uint256 amount, bytes memory data)\n    external {\n        _isCorrectProof(neighbors, indexWithNonce, eotp);\n        bytes32 commitHash = _revealTokenOperationPack(\n            neighbors[0],\n            indexWithNonce,\n            eotp,\n            operationType,\n            tokenType,\n            contractAddress,\n            tokenId,\n            dest,\n            amount\n        );\n        _revealPreCheck(commitHash, indexWithNonce);\n        _completeReveal(commitHash);\n        if (operationType == OperationType.TRACK) {\n            _trackToken(tokenType, contractAddress, tokenId);\n        } else if (operationType == OperationType.UNTRACK) {\n            _untrackToken(tokenType, contractAddress, tokenId);\n        } else if (operationType == OperationType.TRANSFER_TOKEN) {\n            _transferToken(tokenType, contractAddress, tokenId, dest, amount, data);\n        }\n    }\n\n    function _drain() internal returns (bool) {\n        // this may be triggered after revealing the proof, and we must prevent revert in all cases\n        (bool success,) = lastResortAddress.call{value : address(this).balance}(\"\");\n        return success;\n    }\n\n    function _isCorrectProof(bytes32[] calldata neighbors, uint32 position, bytes32 eotp) view internal {\n        require(neighbors.length == height - 1, \"Not enough neighbors provided\");\n        bytes32 h = sha256(bytes.concat(eotp));\n        for (uint8 i = 0; i < height - 1; i++) {\n            if ((position & 0x01) == 0x01) {\n                h = sha256(bytes.concat(neighbors[i], h));\n            } else {\n                h = sha256(bytes.concat(h, neighbors[i]));\n            }\n            position >>= 1;\n        }\n        require(root == h, \"Proof is incorrect\");\n        return; // just a wrapper around the old isCorrectProof modifier to avoid \"Stack too deep\" error. Duh.\n    }\n\n    function _findCommit(bytes32 hash) view internal returns (uint32, bool)\n    {\n        if (hash == \"\") {\n            return (0, false);\n        }\n        for (uint32 i = 0; i < commits.length; i++) {\n            Commit storage c = commits[i];\n            if (c.hash == hash) {\n                return (c.timestamp, c.completed);\n            }\n        }\n        return (0, false);\n    }\n\n    // simple mechanism to prevent commits grow unbounded, if an attacker decides to spam commits (at their own expense)\n    function _cleanupCommits() internal\n    {\n        //        commitLocked = true;\n        uint32 commitIndex = 0;\n        uint32 bt = uint32(block.timestamp);\n        for (uint32 i = 0; i < commits.length; i++) {\n            Commit storage c = commits[i];\n            if (c.timestamp >= bt - REVEAL_MAX_DELAY) {\n                commitIndex = i;\n                break;\n            }\n        }\n        if (commitIndex == 0) {\n            return;\n        }\n        uint32 len = uint32(commits.length);\n\n        //        TODO (@polymorpher): replace below code with the commented out version, after solidity implements proper support for struct-array memory-storage copy operation\n        for (uint32 i = commitIndex; i < len; i++) {\n            commits[i - commitIndex] = commits[i];\n        }\n        for (uint32 i = 0; i < commitIndex; i++) {\n            commits.pop();\n        }\n        //        TODO (@polymorpher): Can't use below code because: std::exception::what: Copying of type struct ONEWallet.Commit memory[] memory to storage not yet supported.\n        //        Commit[] memory remainingCommits = new Commit[](len - commitIndex);\n        //        for (uint8 i = 0; i < remainingCommits.length; i++) {\n        //            remainingCommits[i] = commits[commitIndex + i];\n        //        }\n        //        commits = remainingCommits;\n\n        //        commitLocked = false;\n    }\n\n    function _isRevealTimely(uint32 commitTime) view internal returns (bool)\n    {\n        return block.timestamp - commitTime < REVEAL_MAX_DELAY;\n    }\n\n    function _revealPreCheck(bytes32 hash, uint32 indexWithNonce) view internal\n    {\n        uint32 index = indexWithNonce / maxOperationsPerInterval;\n        uint8 nonce = uint8(indexWithNonce % maxOperationsPerInterval);\n        (uint32 ct, bool completed) = _findCommit(hash);\n        require(ct > 0, \"Cannot find commit for this transaction\");\n        uint32 counter = ct / interval - t0;\n        require(counter == index, \"Provided index does not match committed timestamp\");\n        uint8 expectedNonce = nonces[counter];\n        require(nonce >= expectedNonce, \"Nonce is too low\");\n        require(!completed, \"Commit is already completed\");\n        // this should not happen (since old commit should be cleaned up already)\n        require(_isRevealTimely(ct), \"Reveal is too late. Please re-commit\");\n    }\n\n    function _completeReveal(bytes32 hash) internal {\n        for (uint8 i = 0; i < commits.length; i++) {\n            Commit storage c = commits[i];\n            if (c.hash == hash) {\n                c.completed = true;\n                uint32 index = uint32(c.timestamp) / interval - t0;\n                _incrementNonce(index);\n                _cleanupNonces();\n                return;\n            }\n        }\n        revert(\"Invalid commit hash\");\n    }\n\n    function _cleanupNonces() internal {\n        uint32 tMin = uint32(block.timestamp) - REVEAL_MAX_DELAY;\n        uint32 indexMinUnadjusted = tMin / interval;\n        uint32 indexMin = 0;\n        if (indexMinUnadjusted > t0) {\n            indexMin = indexMinUnadjusted - t0;\n        }\n        uint32[] memory nonZeroNonces = new uint32[](nonceTracker.length);\n        uint32 numValidIndices = 0;\n        for (uint8 i = 0; i < nonceTracker.length; i++) {\n            uint32 index = nonceTracker[i];\n            if (index < indexMin) {\n                delete nonces[index];\n            } else {\n                nonZeroNonces[numValidIndices] = index;\n                numValidIndices++;\n\n            }\n        }\n        // TODO (@polymorpher): this is so stupid. Replace this with inline assembly later. https://ethereum.stackexchange.com/questions/51891/how-to-pop-from-decrease-the-length-of-a-memory-array-in-solidity\n        uint32[] memory reducedArray = new uint32[](numValidIndices);\n        for (uint8 i = 0; i < numValidIndices; i++) {\n            reducedArray[i] = nonZeroNonces[i];\n        }\n        nonceTracker = reducedArray;\n    }\n\n    function _incrementNonce(uint32 index) internal {\n        uint8 v = nonces[index];\n        if (v == 0) {\n            nonceTracker.push(index);\n        }\n        nonces[index] = v + 1;\n    }\n}\n",
  "sourcePath": "/Users/polymorpher/git/one-wallet/code/contracts/ONEWallet.sol",
  "compiler": {
    "name": "solc",
    "version": "0.8.4+commit.c7e474f2.Emscripten.clang"
  },
  "schemaVersion": "3.4.1",
  "updatedAt": "2021-07-15T08:45:14.418Z",
  "devdoc": {
    "kind": "dev",
    "methods": {
      "onERC1155BatchReceived(address,address,uint256[],uint256[],bytes)": {
        "details": "Handles the receipt of a multiple ERC1155 token types. This function is called at the end of a `safeBatchTransferFrom` after the balances have been updated. To accept the transfer(s), this must return `bytes4(keccak256(\"onERC1155BatchReceived(address,address,uint256[],uint256[],bytes)\"))` (i.e. 0xbc197c81, or its own function selector).",
        "params": {
          "data": "Additional data with no specified format",
          "from": "The address which previously owned the token",
          "ids": "An array containing ids of each token being transferred (order and length must match values array)",
          "operator": "The address which initiated the batch transfer (i.e. msg.sender)",
          "values": "An array containing amounts of each token being transferred (order and length must match ids array)"
        },
        "returns": {
          "_0": "`bytes4(keccak256(\"onERC1155BatchReceived(address,address,uint256[],uint256[],bytes)\"))` if transfer is allowed"
        }
      },
      "onERC1155Received(address,address,uint256,uint256,bytes)": {
        "details": "Handles the receipt of a single ERC1155 token type. This function is called at the end of a `safeTransferFrom` after the balance has been updated. To accept the transfer, this must return `bytes4(keccak256(\"onERC1155Received(address,address,uint256,uint256,bytes)\"))` (i.e. 0xf23a6e61, or its own function selector).",
        "params": {
          "data": "Additional data with no specified format",
          "from": "The address which previously owned the token",
          "id": "The ID of the token being transferred",
          "operator": "The address which initiated the transfer (i.e. msg.sender)",
          "value": "The amount of tokens being transferred"
        },
        "returns": {
          "_0": "`bytes4(keccak256(\"onERC1155Received(address,address,uint256,uint256,bytes)\"))` if transfer is allowed"
        }
      },
      "onERC721Received(address,address,uint256,bytes)": {
        "details": "Whenever an {IERC721} `tokenId` token is transferred to this contract via {IERC721-safeTransferFrom} by `operator` from `from`, this function is called. It must return its Solidity selector to confirm the token transfer. If any other value is returned or the interface is not implemented by the recipient, the transfer will be reverted. The selector can be obtained in Solidity with `IERC721.onERC721Received.selector`."
      }
    },
    "version": 1
  },
  "userdoc": {
    "kind": "user",
    "methods": {},
    "version": 1
  }
}