{
  "contractName": "ONEWalletFactory",
  "abi": [
    {
      "anonymous": false,
      "inputs": [
        {
          "indexed": false,
          "internalType": "uint256",
          "name": "salt",
          "type": "uint256"
        },
        {
          "indexed": false,
          "internalType": "bytes32",
          "name": "codeHash",
          "type": "bytes32"
        }
      ],
      "name": "ONEWalletDeployFailed",
      "type": "event"
    },
    {
      "anonymous": false,
      "inputs": [
        {
          "indexed": false,
          "internalType": "address",
          "name": "addr",
          "type": "address"
        },
        {
          "indexed": false,
          "internalType": "uint256",
          "name": "salt",
          "type": "uint256"
        },
        {
          "indexed": false,
          "internalType": "bytes32",
          "name": "codeHash",
          "type": "bytes32"
        }
      ],
      "name": "ONEWalletDeploySuccess",
      "type": "event"
    },
    {
      "inputs": [
        {
          "internalType": "bytes",
          "name": "code",
          "type": "bytes"
        },
        {
          "internalType": "uint256",
          "name": "salt",
          "type": "uint256"
        }
      ],
      "name": "predict",
      "outputs": [
        {
          "internalType": "address",
          "name": "",
          "type": "address"
        }
      ],
      "stateMutability": "view",
      "type": "function"
    },
    {
      "inputs": [
        {
          "internalType": "bytes",
          "name": "code",
          "type": "bytes"
        },
        {
          "internalType": "uint256",
          "name": "salt",
          "type": "uint256"
        }
      ],
      "name": "deploy",
      "outputs": [
        {
          "internalType": "address",
          "name": "",
          "type": "address"
        }
      ],
      "stateMutability": "payable",
      "type": "function"
    }
  ],
  "bytecode": "0x608060405234801561001057600080fd5b50610293806100206000396000f3fe6080604052600436106100295760003560e01c806322aa76331461002e5780639c4ae2d01461006a575b600080fd5b34801561003a57600080fd5b5061004e610049366004610195565b61007d565b6040516001600160a01b03909116815260200160405180910390f35b61004e610078366004610195565b6100dc565b8151602080840191909120604080516001600160f81b0319818501523060601b6bffffffffffffffffffffffff191660218201526035810185905260558082019390935281518082039093018352607501905280519101205b92915050565b815160208301818120600092839285919034f591506001600160a01b0382166101435760408051858152602081018390527f8feaa68665fa641a48ca9da94d8a44c0d2605c2a18066654801679551ab03fe5910160405180910390a16000925050506100d6565b604080516001600160a01b0384168152602081018690529081018290527fbbfe2306f6111c06403cdf36cf7df46751a594b54d6da11bcca906ad8c9a711f9060600160405180910390a1509392505050565b600080604083850312156101a7578182fd5b823567ffffffffffffffff808211156101be578384fd5b818501915085601f8301126101d1578384fd5b8135818111156101e3576101e3610247565b604051601f8201601f19908116603f0116810190838211818310171561020b5761020b610247565b81604052828152886020848701011115610223578687fd5b82602086016020830137918201602090810196909652509694909301359450505050565b634e487b7160e01b600052604160045260246000fdfea264697066735822122092b988ae59fbc12f1375e581c2f883a15cc57ca3bdb167001461ce8166092ebf64736f6c63430008040033",
  "immutableReferences": {},
  "source": "// SPDX-License-Identifier: Apache-2.0\npragma solidity ^0.8.4;\n\n/// This factory is expected to be deployed only once. Its deployed address will be used by clients to infer expected address of their 1wallet (given seed) and verify the address is as expected (thus validating the implementation)\ncontract ONEWalletFactory {\n    event ONEWalletDeployFailed(uint256 salt, bytes32 codeHash);\n    event ONEWalletDeploySuccess(address addr, uint256 salt, bytes32 codeHash);\n\n    /// This method may be called by ONEWalletFactoryHelper to verify an address is created using 1wallet code, and by clients who do not want to compute the address by themselves.\n    function predict(bytes memory code, uint256 salt) view public returns (address){\n        bytes memory data = bytes.concat(bytes1(0xff), bytes20(address(this)), bytes32(salt), keccak256(code));\n        bytes32 hash = keccak256(data);\n        return address(uint160(uint256(hash)));\n    }\n\n    /// an alternative is to use create3 mechanisms (and library) in https://github.com/0xsequence/create3, which allows the address of the contract to be independent to its code. This is achieved by deploying (via CREATE2) a proxy contract with fixed content and to have the proxy contract pointing to the actual implementation contract (which its address does depend on the bytecode). This approach has two downsides: (1) unlike CREATE2, the client would not be able to verify the contract does contain the intended code simply by verifying the address is as expected. (2) the use of proxy and fallback mechanisms make debugging harder and may introduce unexpected behaviors\n    function deploy(bytes memory code, uint256 salt) public payable returns (address){\n        address ret;\n        bytes32 codeHash = keccak256(code);\n        assembly{\n            ret := create2(callvalue(), add(0x20, code), mload(code), salt)\n        }\n        if (ret == address(0)) {\n            emit ONEWalletDeployFailed(salt, codeHash);\n            return address(0);\n        }\n        emit ONEWalletDeploySuccess(ret, salt, codeHash);\n        return ret;\n    }\n}\n",
  "sourcePath": "/Users/polymorpher/git/one-wallet/code/contracts/Factory.sol",
  "compiler": {
    "name": "solc",
    "version": "0.8.4+commit.c7e474f2.Emscripten.clang"
  },
  "schemaVersion": "3.4.2",
  "updatedAt": "2021-11-13T13:01:48.279Z",
  "devdoc": {
    "kind": "dev",
    "methods": {},
    "version": 1
  },
  "userdoc": {
    "kind": "user",
    "methods": {
      "deploy(bytes,uint256)": {
        "notice": "an alternative is to use create3 mechanisms (and library) in https://github.com/0xsequence/create3, which allows the address of the contract to be independent to its code. This is achieved by deploying (via CREATE2) a proxy contract with fixed content and to have the proxy contract pointing to the actual implementation contract (which its address does depend on the bytecode). This approach has two downsides: (1) unlike CREATE2, the client would not be able to verify the contract does contain the intended code simply by verifying the address is as expected. (2) the use of proxy and fallback mechanisms make debugging harder and may introduce unexpected behaviors"
      },
      "predict(bytes,uint256)": {
        "notice": "This method may be called by ONEWalletFactoryHelper to verify an address is created using 1wallet code, and by clients who do not want to compute the address by themselves."
      }
    },
    "notice": "This factory is expected to be deployed only once. Its deployed address will be used by clients to infer expected address of their 1wallet (given seed) and verify the address is as expected (thus validating the implementation)",
    "version": 1
  }
}