{
  "contractName": "ONEWalletFactoryHelper",
  "abi": [
    {
      "inputs": [
        {
          "internalType": "contract ONEWalletFactory",
          "name": "factory_",
          "type": "address"
        }
      ],
      "stateMutability": "nonpayable",
      "type": "constructor"
    },
    {
      "anonymous": false,
      "inputs": [
        {
          "indexed": false,
          "internalType": "uint256",
          "name": "salt",
          "type": "uint256"
        },
        {
          "indexed": false,
          "internalType": "bytes32",
          "name": "codeHash",
          "type": "bytes32"
        }
      ],
      "name": "ONEWalletDeployFailed",
      "type": "event"
    },
    {
      "anonymous": false,
      "inputs": [
        {
          "indexed": false,
          "internalType": "address",
          "name": "addr",
          "type": "address"
        },
        {
          "indexed": false,
          "internalType": "uint256",
          "name": "salt",
          "type": "uint256"
        },
        {
          "indexed": false,
          "internalType": "bytes32",
          "name": "codeHash",
          "type": "bytes32"
        }
      ],
      "name": "ONEWalletDeploySuccess",
      "type": "event"
    },
    {
      "inputs": [],
      "name": "factory",
      "outputs": [
        {
          "internalType": "contract ONEWalletFactory",
          "name": "",
          "type": "address"
        }
      ],
      "stateMutability": "view",
      "type": "function"
    },
    {
      "inputs": [],
      "name": "getVersion",
      "outputs": [
        {
          "internalType": "uint32",
          "name": "",
          "type": "uint32"
        },
        {
          "internalType": "uint32",
          "name": "",
          "type": "uint32"
        }
      ],
      "stateMutability": "pure",
      "type": "function"
    },
    {
      "inputs": [
        {
          "components": [
            {
              "components": [
                {
                  "internalType": "bytes32",
                  "name": "root",
                  "type": "bytes32"
                },
                {
                  "internalType": "uint8",
                  "name": "height",
                  "type": "uint8"
                },
                {
                  "internalType": "uint8",
                  "name": "interval",
                  "type": "uint8"
                },
                {
                  "internalType": "uint32",
                  "name": "t0",
                  "type": "uint32"
                },
                {
                  "internalType": "uint32",
                  "name": "lifespan",
                  "type": "uint32"
                },
                {
                  "internalType": "uint8",
                  "name": "maxOperationsPerInterval",
                  "type": "uint8"
                }
              ],
              "internalType": "struct IONEWallet.CoreSetting",
              "name": "core",
              "type": "tuple"
            },
            {
              "components": [
                {
                  "internalType": "uint256",
                  "name": "spendingLimit",
                  "type": "uint256"
                },
                {
                  "internalType": "uint256",
                  "name": "spentAmount",
                  "type": "uint256"
                },
                {
                  "internalType": "uint32",
                  "name": "lastSpendingInterval",
                  "type": "uint32"
                },
                {
                  "internalType": "uint32",
                  "name": "spendingInterval",
                  "type": "uint32"
                },
                {
                  "internalType": "uint32",
                  "name": "lastLimitAdjustmentTime",
                  "type": "uint32"
                },
                {
                  "internalType": "uint256",
                  "name": "highestSpendingLimit",
                  "type": "uint256"
                }
              ],
              "internalType": "struct SpendingManager.SpendingState",
              "name": "spendingState",
              "type": "tuple"
            },
            {
              "internalType": "address payable",
              "name": "recoveryAddress",
              "type": "address"
            },
            {
              "internalType": "contract IONEWallet[]",
              "name": "backlinkAddresses",
              "type": "address[]"
            },
            {
              "components": [
                {
                  "internalType": "bytes32",
                  "name": "root",
                  "type": "bytes32"
                },
                {
                  "internalType": "uint8",
                  "name": "height",
                  "type": "uint8"
                },
                {
                  "internalType": "uint8",
                  "name": "interval",
                  "type": "uint8"
                },
                {
                  "internalType": "uint32",
                  "name": "t0",
                  "type": "uint32"
                },
                {
                  "internalType": "uint32",
                  "name": "lifespan",
                  "type": "uint32"
                },
                {
                  "internalType": "uint8",
                  "name": "maxOperationsPerInterval",
                  "type": "uint8"
                }
              ],
              "internalType": "struct IONEWallet.CoreSetting[]",
              "name": "oldCores",
              "type": "tuple[]"
            },
            {
              "components": [
                {
                  "internalType": "bytes32",
                  "name": "root",
                  "type": "bytes32"
                },
                {
                  "internalType": "uint8",
                  "name": "height",
                  "type": "uint8"
                },
                {
                  "internalType": "uint8",
                  "name": "interval",
                  "type": "uint8"
                },
                {
                  "internalType": "uint32",
                  "name": "t0",
                  "type": "uint32"
                },
                {
                  "internalType": "uint32",
                  "name": "lifespan",
                  "type": "uint32"
                },
                {
                  "internalType": "uint8",
                  "name": "maxOperationsPerInterval",
                  "type": "uint8"
                }
              ],
              "internalType": "struct IONEWallet.CoreSetting[]",
              "name": "innerCores",
              "type": "tuple[]"
            },
            {
              "internalType": "bytes[]",
              "name": "identificationKeys",
              "type": "bytes[]"
            }
          ],
          "internalType": "struct IONEWallet.InitParams",
          "name": "args",
          "type": "tuple"
        }
      ],
      "name": "deploy",
      "outputs": [
        {
          "internalType": "address",
          "name": "",
          "type": "address"
        }
      ],
      "stateMutability": "payable",
      "type": "function"
    },
    {
      "inputs": [
        {
          "internalType": "bytes",
          "name": "identificationKey",
          "type": "bytes"
        }
      ],
      "name": "predict",
      "outputs": [
        {
          "internalType": "address",
          "name": "",
          "type": "address"
        }
      ],
      "stateMutability": "view",
      "type": "function"
    },
    {
      "inputs": [],
      "name": "getCode",
      "outputs": [
        {
          "internalType": "bytes",
          "name": "",
          "type": "bytes"
        }
      ],
      "stateMutability": "pure",
      "type": "function"
    },
    {
      "inputs": [
        {
          "internalType": "contract IONEWallet",
          "name": "addr",
          "type": "address"
        }
      ],
      "name": "verify",
      "outputs": [
        {
          "internalType": "bool",
          "name": "",
          "type": "bool"
        }
      ],
      "stateMutability": "view",
      "type": "function"
    }
  ],
  "bytecode": "0x6080604052600080546001600160a01b031916905534801561002057600080fd5b5060405161118038038061118083398101604081905261003f91610064565b600080546001600160a01b0319166001600160a01b0392909216919091179055610092565b600060208284031215610075578081fd5b81516001600160a01b038116811461008b578182fd5b9392505050565b6110df806100a16000396000f3fe6080604052600436106100555760003560e01c80630d8e6e2c1461005a57806363a9c3d714610081578063a64139fa146100b1578063c45a0155146100e9578063ea87963414610109578063f31e87d91461012b575b600080fd5b34801561006657600080fd5b5060408051600f815260016020820152015b60405180910390f35b34801561008d57600080fd5b506100a161009c366004610be7565b61013e565b6040519015158152602001610078565b3480156100bd57600080fd5b506100d16100cc366004610b39565b6102e6565b6040516001600160a01b039091168152602001610078565b3480156100f557600080fd5b506000546100d1906001600160a01b031681565b34801561011557600080fd5b5061011e610409565b6040516100789190610e5b565b6100d1610139366004610c03565b610490565b60008060008054906101000a90046001600160a01b03166001600160a01b031663b505d0e9846001600160a01b0316636ee89e6a6040518163ffffffff1660e01b815260040160006040518083038186803b15801561019c57600080fd5b505afa1580156101b0573d6000803e3d6000fd5b505050506040513d6000823e601f3d908101601f191682016040526101d89190810190610b74565b8051906020012060001c73__ONEWalletCodeHelper___________________6324c12bf66040518163ffffffff1660e01b815260040160006040518083038186803b15801561022657600080fd5b505af415801561023a573d6000803e3d6000fd5b505050506040513d6000823e601f3d908101601f191682016040526102629190810190610b74565b6040518363ffffffff1660e01b815260040161027f929190610f69565b60206040518083038186803b15801561029757600080fd5b505afa1580156102ab573d6000803e3d6000fd5b505050506040513d601f19601f820116820180604052508101906102cf9190610af6565b6001600160a01b0390811693169290921492915050565b60008060009054906101000a90046001600160a01b03166001600160a01b031663b505d0e9838051906020012060001c73__ONEWalletCodeHelper___________________6324c12bf66040518163ffffffff1660e01b815260040160006040518083038186803b15801561035a57600080fd5b505af415801561036e573d6000803e3d6000fd5b505050506040513d6000823e601f3d908101601f191682016040526103969190810190610b74565b6040518363ffffffff1660e01b81526004016103b3929190610f69565b60206040518083038186803b1580156103cb57600080fd5b505afa1580156103df573d6000803e3d6000fd5b505050506040513d601f19601f820116820180604052508101906104039190610af6565b92915050565b606073__ONEWalletCodeHelper___________________6324c12bf66040518163ffffffff1660e01b815260040160006040518083038186803b15801561044f57600080fd5b505af4158015610463573d6000803e3d6000fd5b505050506040513d6000823e601f3d908101601f1916820160405261048b9190810190610b74565b905090565b60008073__ONEWalletCodeHelper___________________6324c12bf66040518163ffffffff1660e01b815260040160006040518083038186803b1580156104d757600080fd5b505af41580156104eb573d6000803e3d6000fd5b505050506040513d6000823e601f3d908101601f191682016040526105139190810190610b74565b905060008180519060200120905060008460c0015160008151811061054857634e487b7160e01b600052603260045260246000fd5b60209081029190910181015180519101206000805460405163b505d0e960e01b815292935090916001600160a01b039091169063b505d0e9906105919085908890600401610f69565b60206040518083038186803b1580156105a957600080fd5b505afa1580156105bd573d6000803e3d6000fd5b505050506040513d601f19601f820116820180604052508101906105e19190610af6565b600054604051639538c4b360e01b81526001600160a01b038084166004830152929350911690639538c4b39060240160206040518083038186803b15801561062857600080fd5b505afa15801561063c573d6000803e3d6000fd5b505050506040513d601f19601f820116820180604052508101906106609190610b19565b156106a45760405162461bcd60e51b815260206004820152601060248201526f185b1c9958591e4819195c1b1bde595960821b604482015260640160405180910390fd5b600080546040516361ff715f60e01b81526001600160a01b03909116906361ff715f9034906106d99087908a90600401610f69565b6020604051808303818588803b1580156106f257600080fd5b505af1158015610706573d6000803e3d6000fd5b50505050506040513d601f19601f8201168201806040525081019061072b9190610af6565b90506001600160a01b03811661077f5760408051848152602081018690527f8feaa68665fa641a48ca9da94d8a44c0d2605c2a18066654801679551ab03fe591015b60405180910390a19695505050505050565b6040516313cfd45b60e21b81526001600160a01b03821690634f3f516c906107ab908a90600401610e6e565b600060405180830381600087803b1580156107c557600080fd5b505af11580156107d9573d6000803e3d6000fd5b5050604080516001600160a01b0385168152602081018790529081018790527fbbfe2306f6111c06403cdf36cf7df46751a594b54d6da11bcca906ad8c9a711f9250606001905061076d565b803561083081611091565b919050565b600082601f830112610845578081fd5b8135602061085a61085583610fff565b610fce565b80838252828201915082860187848660051b8901011115610879578586fd5b855b858110156108ba57813567ffffffffffffffff811115610899578788fd5b6108a78a87838c010161099f565b855250928401929084019060010161087b565b5090979650505050505050565b600082601f8301126108d7578081fd5b813560206108e761085583610fff565b80838252828201915082860187848660051b8901011115610906578586fd5b855b858110156108ba57813561091b81611091565b84529284019290840190600101610908565b600082601f83011261093d578081fd5b8135602061094d61085583610fff565b8281528181019085830160c08086028801850189101561096b578687fd5b865b868110156109915761097f8a846109eb565b8552938501939181019160010161096d565b509198975050505050505050565b600082601f8301126109af578081fd5b81356109bd61085582611023565b8181528460208386010111156109d1578283fd5b816020850160208301379081016020019190915292915050565b600060c082840312156109fc578081fd5b610a04610f82565b905081358152610a1660208301610ae5565b6020820152610a2760408301610ae5565b6040820152610a3860608301610ad1565b6060820152610a4960808301610ad1565b6080820152610a5a60a08301610ae5565b60a082015292915050565b600060c08284031215610a76578081fd5b610a7e610f82565b90508135815260208201356020820152610a9a60408301610ad1565b6040820152610aab60608301610ad1565b6060820152610abc60808301610ad1565b608082015260a082013560a082015292915050565b803563ffffffff8116811461083057600080fd5b803560ff8116811461083057600080fd5b600060208284031215610b07578081fd5b8151610b1281611091565b9392505050565b600060208284031215610b2a578081fd5b81518015158114610b12578182fd5b600060208284031215610b4a578081fd5b813567ffffffffffffffff811115610b60578182fd5b610b6c8482850161099f565b949350505050565b600060208284031215610b85578081fd5b815167ffffffffffffffff811115610b9b578182fd5b8201601f81018413610bab578182fd5b8051610bb961085582611023565b818152856020838501011115610bcd578384fd5b610bde82602083016020860161104b565b95945050505050565b600060208284031215610bf8578081fd5b8135610b1281611091565b600060208284031215610c14578081fd5b813567ffffffffffffffff80821115610c2b578283fd5b908301906102208286031215610c3f578283fd5b610c47610fab565b610c5186846109eb565b8152610c608660c08501610a65565b6020820152610c726101808401610825565b60408201526101a083013582811115610c89578485fd5b610c95878286016108c7565b6060830152506101c083013582811115610cad578485fd5b610cb98782860161092d565b6080830152506101e083013582811115610cd1578485fd5b610cdd8782860161092d565b60a08301525061020083013582811115610cf5578485fd5b610d0187828601610835565b60c08301525095945050505050565b600081518084526020808501808196508360051b81019150828601855b85811015610d57578284038952610d45848351610de0565b98850198935090840190600101610d2d565b5091979650505050505050565b6000815180845260208085019450808401835b83811015610d9c5781516001600160a01b031687529582019590820190600101610d77565b509495945050505050565b6000815180845260208085019450808401835b83811015610d9c57610dcd878351610e0c565b60c0969096019590820190600101610dba565b60008151808452610df881602086016020860161104b565b601f01601f19169290920160200192915050565b8051825260ff602082015116602083015260ff6040820151166040830152606081015163ffffffff8082166060850152806080840151166080850152505060ff60a08201511660a08301525050565b602081526000610b126020830184610de0565b60208152610e80602082018351610e0c565b602082810151805160e084015290810151610100830152604081015163ffffffff9081166101208401526060820151811661014084015260808201511661016083015260a08101516101808301526000905060408301516001600160a01b0381166101a0840152506060830151610220806101c0850152610f05610240850183610d64565b91506080850151601f1980868503016101e0870152610f248483610da7565b935060a087015191508086850301610200870152610f428483610da7565b935060c0870151915080868503018387015250610f5f8382610d10565b9695505050505050565b828152604060208201526000610b6c6040830184610de0565b60405160c0810167ffffffffffffffff81118282101715610fa557610fa561107b565b60405290565b60405160e0810167ffffffffffffffff81118282101715610fa557610fa561107b565b604051601f8201601f1916810167ffffffffffffffff81118282101715610ff757610ff761107b565b604052919050565b600067ffffffffffffffff8211156110195761101961107b565b5060051b60200190565b600067ffffffffffffffff82111561103d5761103d61107b565b50601f01601f191660200190565b60005b8381101561106657818101518382015260200161104e565b83811115611075576000848401525b50505050565b634e487b7160e01b600052604160045260246000fd5b6001600160a01b03811681146110a657600080fd5b5056fea26469706673582212206ca5f77fba7b5fb2270ee8e2d73c8019c0f574ed3e3bfac2eec7bf332696c2ac64736f6c63430008040033",
  "immutableReferences": {},
  "source": "// SPDX-License-Identifier: Apache-2.0\npragma solidity ^0.8.4;\n\nimport \"./ONEWallet.sol\";\nimport \"./IONEWallet.sol\";\nimport \"./Factory.sol\";\nimport \"./Version.sol\";\n\nlibrary ONEWalletCodeHelper {\n    function code() pure public returns (bytes memory){\n        return type(ONEWallet).creationCode;\n    }\n}\n\ninterface IONEWalletFactoryHelper{\n    event ONEWalletDeployFailed(uint256 salt, bytes32 codeHash);\n    event ONEWalletDeploySuccess(address addr, uint256 salt, bytes32 codeHash);\n    function getVersion() external pure returns (uint32, uint32);\n    function deploy(IONEWallet.InitParams memory args) payable external returns (address);\n    function predict(bytes memory identificationKey) external view returns (address);\n    function getCode() external pure returns (bytes memory);\n    function verify(IONEWallet addr) external view returns (bool);\n}\n\ncontract ONEWalletFactoryHelper is IONEWalletFactoryHelper {\n    ONEWalletFactory public factory = ONEWalletFactory(address(0));\n    constructor(ONEWalletFactory factory_){\n        factory = factory_;\n    }\n    function getVersion() override public pure returns (uint32, uint32){\n        return (Version.majorVersion, Version.minorVersion);\n    }\n\n    function deploy(IONEWallet.InitParams memory args) payable override public returns (address){\n        // ONEWallet has no constructor argument since v15\n        bytes memory code = ONEWalletCodeHelper.code();\n        bytes32 codeHash = keccak256(code);\n        uint256 salt = uint256(keccak256(args.identificationKeys[0]));\n        address expected = factory.predict(salt, code);\n        require(!factory.hasCode(expected), \"already deployed\");\n        address addr = factory.deploy{value : msg.value}(salt, code);\n        if (addr == address(0)) {\n            emit ONEWalletDeployFailed(salt, codeHash);\n            return addr;\n        }\n        IONEWallet(addr).initialize(args);\n        emit ONEWalletDeploySuccess(addr, salt, codeHash);\n        return addr;\n    }\n\n    function predict(bytes memory identificationKey) override public view returns (address){\n        return factory.predict(uint256(keccak256(identificationKey)), ONEWalletCodeHelper.code());\n    }\n\n    function getCode() override public pure returns (bytes memory){\n        return ONEWalletCodeHelper.code();\n    }\n\n    function verify(IONEWallet addr) override public view returns (bool){\n        address predictedAddress = factory.predict(uint256(keccak256(addr.identificationKey())), ONEWalletCodeHelper.code());\n        return predictedAddress == address(addr);\n    }\n}\n",
  "sourcePath": "/Users/john/one-wallet/one-wallet/code/contracts/FactoryHelper.sol",
  "compiler": {
    "name": "solc",
    "version": "0.8.4+commit.c7e474f2.Emscripten.clang"
  },
  "schemaVersion": "3.4.3",
  "updatedAt": "2022-03-08T00:51:56.861Z",
  "devdoc": {
    "kind": "dev",
    "methods": {},
    "version": 1
  },
  "userdoc": {
    "kind": "user",
    "methods": {},
    "version": 1
  }
}