{
  "contractName": "ONEWalletCodeHelper",
  "abi": [
    {
      "inputs": [],
      "name": "code",
      "outputs": [
        {
          "internalType": "bytes",
          "name": "",
          "type": "bytes"
        }
      ],
      "stateMutability": "pure",
      "type": "function"
    }
  ],
  "bytecode": "0x614aef61003a600b82828239805160001a60731461002d57634e487b7160e01b600052600060045260246000fd5b30600052607381538281f3fe73000000000000000000000000000000000000000030146080604052600436106100355760003560e01c806324c12bf61461003a575b600080fd5b610042610058565b60405161004f919061008f565b60405180910390f35b60606040518060200161006a90610082565b601f1982820381018352601f90910116604052919050565b6149d7806100e383390190565b6000602080835283518082850152825b818110156100bb5785810183015185820160400152820161009f565b818111156100cc5783604083870101525b50601f01601f191692909201604001939250505056fe60806040526015805460ff1916905534801561001a57600080fd5b506149ad8061002a6000396000f3fe6080604052600436106101c65760003560e01c80635a9b0b89116100f7578063bc197c8111610095578063db582c7e11610064578063db582c7e1461078e578063e4e5b258146107a4578063f23a6e61146107c4578063fbee04d2146107e457600080fd5b8063bc197c811461070c578063c34a6dad1461072c578063d087d28814610747578063d87458a31461076e57600080fd5b8063a17027e1116100d1578063a17027e11461068f578063a4874d77146106b5578063a6b920b6146106ca578063b1ccfccc146106ea57600080fd5b80635a9b0b89146105a9578063695def4c1461062957806391df09251461064d57600080fd5b80632293d3fb116101645780633f079ab81161013e5780633f079ab81461050f57806341a648781461052f578063424c511014610557578063496018af1461058757600080fd5b80632293d3fb1461047f5780632f1f7520146104a9578063396ec5f4146104ce57600080fd5b8063150b7a02116101a0578063150b7a02146103c25780631626ba7e146103fb57806316d43a971461041b5780631cf4ea051461043157600080fd5b806301ffc9a714610348578063040132391461037d5780630d8e6e2c146103a057600080fd5b366103435760155460ff166101da57600080fd5b600c546001600160a01b03161561026157600654600c546001600160a01b039081169116141561020e5761020c610804565b005b6006546001600160a01b031633141561025957670de0b6b3a764000034141561025157600654610246906001600160a01b03166108a0565b61024e610dd6565b50005b610246610e96565b61020c610804565b670de0b6b3a7640000341461027257005b6006546001600160a01b0316331461028657005b3330141561029057005b62127500600b546102a191906146a3565b4210156102ff577fe58fb6bc612703a64f091af2ff6a6831eca838a0301129ab6879cab20d6d7c8c3362127500600b546102db91906146a3565b604080516001600160a01b03909316835260208301919091520160405180910390a1005b6040513381527f0cbe1fea4becf04af2176bbef0c9c53d439d30a05a197aacc38bb4a2873222e39060200160405180910390a161033a610eec565b61020c57600080fd5b600080fd5b34801561035457600080fd5b50610368610363366004613a3d565b610fde565b60405190151581526020015b60405180910390f35b34801561038957600080fd5b50610392611009565b604051908152602001610374565b3480156103ac57600080fd5b5060408051600f81526001602082015201610374565b3480156103ce57600080fd5b506103e26103dd3660046133e4565b611054565b6040516001600160e01b03199091168152602001610374565b34801561040757600080fd5b506103e26104163660046139b7565b6111cd565b34801561042757600080fd5b50610392600b5481565b34801561043d57600080fd5b5061045161044c366004613974565b611263565b6040516103749493929190938452602084019290925263ffffffff1660408301521515606082015260800190565b34801561048b57600080fd5b5061049461126e565b60408051928352602083019190915201610374565b3480156104b557600080fd5b506104be611276565b60405161037494939291906140d8565b3480156104da57600080fd5b506104e3611281565b60408051948552602085019390935263ffffffff91821692840192909252166060820152608001610374565b34801561051b57600080fd5b5061020c61052a366004613ab5565b61131b565b34801561053b57600080fd5b50600c546040516001600160a01b039091168152602001610374565b34801561056357600080fd5b50610577610572366004613cd4565b6113c3565b6040516103749493929190614125565b34801561059357600080fd5b5061059c611477565b6040516103749190614172565b3480156105b557600080fd5b506002546003546006546040805193845260ff808416602086015261010080850482169286019290925263ffffffff62010000850481166060870152600160301b8504166080860152600160501b90930490921660a08401526001600160a01b031660c0830152600060e083015201610374565b34801561063557600080fd5b5061063e6114d9565b604051610374939291906141bf565b34801561065957600080fd5b5061066d610668366004613974565b6114f1565b6040805193845263ffffffff9283166020850152911690820152606001610374565b34801561069b57600080fd5b506106a461158f565b604051610374959493929190614077565b3480156106c157600080fd5b50610368611632565b3480156106d657600080fd5b506103926106e5366004613a75565b6116cf565b3480156106f657600080fd5b506106ff61179f565b6040516103749190614250565b34801561071857600080fd5b506103e261072736600461332a565b61184c565b34801561073857600080fd5b5061020c6103433660046135bf565b34801561075357600080fd5b5061075c61195e565b60405160ff9091168152602001610374565b34801561077a57600080fd5b506106a4610789366004613974565b6119fa565b34801561079a57600080fd5b5061039260075481565b3480156107b057600080fd5b5061020c6107bf36600461398c565b611aa5565b3480156107d057600080fd5b506103e26107df366004613454565b611b31565b3480156107f057600080fd5b5061020c6107ff366004613b22565b611cab565b600c546040516000916001600160a01b03169034908381818185875af1925050503d8060008114610851576040519150601f19603f3d011682016040523d82523d6000602084013e610856565b606091505b505090508061086457600080fd5b604080513481523360208201527f6e8641fc34fdcf9d67683d1a8ced72ff01d27ff86ff3b1d338fa6165e496c73f91015b60405180910390a150565b600c546001600160a01b03163014806108c057506001600160a01b038116155b156108fe576040516001600160a01b03821681527f81a6b37eeab97da1bb7ac3b3e34fcee45f445c8de943999917a6fe95ed7fa78790602001610895565b600c80546001600160a01b0319166001600160a01b0383169081179091556040519081527fa706c3d6ff18ff7dfc1ee0a34bc34fe432c200d8d475bff3ed963eb31ae194689060200160405180910390a1610957611ff2565b6109bd57600c54610970906001600160a01b0316612032565b600061097a610eec565b90507f41af6efec37729ca1819094cce85d9ae325b936fda39ac98a58cfcb45d431b4b816040516109af911515815260200190565b60405180910390a150610ad1565b60405163c9c80f8f60e01b81526008600482015260009073__SpendingManager_______________________9063c9c80f8f9060240160206040518083038186803b158015610a0b57600080fd5b505af4158015610a1f573d6000803e3d6000fd5b505050506040513d601f19601f82011682018060405250810190610a439190613c15565b600c54909150610a5c906001600160a01b0316826120d1565b5060405163aaf6047360e01b8152600060048201526001600160a01b038316602482015273__TokenTracker__________________________9063aaf604739060440160006040518083038186803b158015610ab757600080fd5b505af4158015610acb573d6000803e3d6000fd5b50505050505b60005b600d5463ffffffff82161015610dd257600d8163ffffffff1681548110610b0b57634e487b7160e01b600052603260045260246000fd5b60009182526020822001546040805160608101848152608082019092526001600160a01b0390921692633f079ab892918291508152600060208201819052604091820152805160e0810190915280600881526020016003815260200160006001600160a01b0316815260200160008152602001866001600160a01b0316815260200160008152602001604051806020016040528060008152508152506040518363ffffffff1660e01b8152600401610bc49291906143af565b600060405180830381600087803b158015610bde57600080fd5b505af1925050508015610bef575060015b610d3657610bfb614870565b806308c379a01415610c975750610c10614888565b80610c1b5750610c99565b7f715c45452623d11a5ed1d0c584f847a04b7c6976e89dbc7d688d04111c6360a483600d8463ffffffff1681548110610c6457634e487b7160e01b600052603260045260246000fd5b600091825260209091200154604051610c8992916001600160a01b0316908590613f55565b60405180910390a150610dc0565b505b7f715c45452623d11a5ed1d0c584f847a04b7c6976e89dbc7d688d04111c6360a482600d8363ffffffff1681548110610ce257634e487b7160e01b600052603260045260246000fd5b600091825260209091200154604051610d2992916001600160a01b0316906001600160a01b0392831681529116602082015260606040820181905260009082015260800190565b60405180910390a1610dc0565b7f8a4422a136194cc130dcd4364dcf372109adf78d6c712f2637dcb9054651f3c882600d8363ffffffff1681548110610d7f57634e487b7160e01b600052603260045260246000fd5b600091825260209091200154604051610db792916001600160a01b0316906001600160a01b0392831681529116602082015260400190565b60405180910390a15b80610dca8161480a565b915050610ad4565b5050565b6000610de0611ff2565b610e13576040517fc27dbdcf29e2a161f0420d399444129801e578bafe157fef0370098459e082bf90600090a150600090565b6006546001600160a01b0316301415610e2c5750600190565b610e34610eec565b610e67576040517fa3a244603d968c02ebd2017f990d4e077cf0381929976be2a0cb07076147a56f90600090a150600090565b6040517f94f696b15fed1e58be1975a224273b56878dda280cb878ec20eb56b6fea7313a90600090a150600190565b600c54600680546001600160a01b0319166001600160a01b0390921691821790556040519081527f83c14e1947c5a639434d6195a6e9d85ab3471a5049c66e0aa46b71e2c0a06dde9060200160405180910390a1565b60065460405160009182916001600160a01b039091169047908381818185875af1925050503d8060008114610f3d576040519150601f19603f3d011682016040523d82523d6000602084013e610f42565b606091505b505090508015610fd957600654600c80546001600160a01b0319166001600160a01b03909216918217905560405163aaf6047360e01b815260006004820152602481019190915273__TokenTracker__________________________9063aaf604739060440160006040518083038186803b158015610fc057600080fd5b505af4158015610fd4573d6000803e3d6000fd5b505050505b919050565b60006001600160e01b03198216630b135d3f60e11b14806110035750611003826122f4565b92915050565b6004546000901561104d57600460008154811061103657634e487b7160e01b600052603260045260246000fd5b906000526020600020906002020160000154905090565b5060025490565b60007feb7a68d5a205eea79480f44587fe8146ae15b7e92582967fd1b1b119c9b60efa60018087338a89898960405161109498979695949392919061433e565b60405180910390a160006110b0600c546001600160a01b031690565b90506001600160a01b038116156111495760405163c841a9db60e01b815273__TokenTracker__________________________9063c841a9db906111089060009060019033908b90889084908d908d906004016145e3565b60006040518083038186803b15801561112057600080fd5b505af4158015611134573d6000803e3d6000fd5b50630a85bd0160e11b94506111c49350505050565b6040516304e9b2db60e31b815273__TokenTracker__________________________9063274d96d8906111889060009060019033908b906004016145b4565b60006040518083038186803b1580156111a057600080fd5b505af41580156111b4573d6000803e3d6000fd5b50630a85bd0160e11b9450505050505b95945050505050565b604051634d94f52360e01b815260009073__SignatureManager______________________90634d94f5239061120c9060129087908790600401614595565b60206040518083038186803b15801561122457600080fd5b505af4158015611238573d6000803e3d6000fd5b505050506040513d601f19601f8201168201806040525081019061125c9190613a59565b9392505050565b600080600080600080fd5b600080600080fd5b606080606080600080fd5b6040516302db916b60e11b81526008600482015260009081908190819073__SpendingManager_______________________906305b722d69060240160806040518083038186803b1580156112d557600080fd5b505af41580156112e9573d6000803e3d6000fd5b505050506040513d601f19601f8201168201806040525081019061130d9190613c8a565b935093509350935090919293565b60155460ff1661132a57600080fd5b600c546001600160a01b031633146113b25760405163e1c517a760e01b815273__Reveal________________________________9063e1c517a79061137d90600290600490600e9088908890840161445c565b60006040518083038186803b15801561139557600080fd5b505af41580156113a9573d6000803e3d6000fd5b505042600b5550505b610dd26113be82614717565b612345565b604051630139109f60e31b81526012600482015263ffffffff80841660248301528216604482015260609081908190819073__SignatureManager______________________906309c884f89060640160006040518083038186803b15801561142b57600080fd5b505af415801561143f573d6000803e3d6000fd5b505050506040513d6000823e601f3d908101601f19168201604052611467919081019061376f565b9299919850965090945092505050565b6060600d8054806020026020016040519081016040528092919081815260200182805480156114cf57602002820191906000526020600020905b81546001600160a01b031681526001909101906020018083116114b1575b5050505050905090565b60608060606114e6612598565b925092509250909192565b604051635107e51560e11b815260126004820152602481018290526000908190819073__SignatureManager______________________9063a20fca2a9060440160606040518083038186803b15801561154a57600080fd5b505af415801561155e573d6000803e3d6000fd5b505050506040513d601f19601f8201168201806040525081019061158291906139fb565b9250925092509193909250565b60405163732d1f0f60e01b8152600e6004820152606090819081908190819073__CommitManager_________________________9063732d1f0f9060240160006040518083038186803b1580156115e557600080fd5b505af41580156115f9573d6000803e3d6000fd5b505050506040513d6000823e601f3d908101601f1916820160405261162191908101906136a4565b945094509450945094509091929394565b60035460009063ffffffff600160301b8204811691620100008104909116906116649060ff61010090910416426146bb565b61166e91906146f2565b63ffffffff161161167e57600080fd5b611686611ff2565b61168f57600080fd5b611697610eec565b6116a057600080fd5b6040517fc15f68f0a72806ff3f8bf2435385a67c4c22413f1c7931ef7bcea718e6ffcf0390600090a150600190565b60008060008073__TokenTracker__________________________636489a8db8888886040518463ffffffff1660e01b815260040161171093929190614316565b60006040518083038186803b15801561172857600080fd5b505af415801561173c573d6000803e3d6000fd5b505050506040513d6000823e601f3d908101601f191682016040526117649190810190613c2d565b9250925092508181906117935760405162461bcd60e51b815260040161178a919061439c565b60405180910390fd5b50919695505050505050565b60606004805480602002602001604051908101604052809291908181526020016000905b828210156118435760008481526020908190206040805160c081018252600286029092018054835260019081015460ff80821685870152610100820481169385019390935263ffffffff62010000820481166060860152600160301b8204166080850152600160501b900490911660a083015290835290920191016117c3565b50505050905090565b6000805b63ffffffff8116871115611948573063f23a6e618b8b8b8b63ffffffff871681811061188c57634e487b7160e01b600052603260045260246000fd5b905060200201358a8a8763ffffffff168181106118b957634e487b7160e01b600052603260045260246000fd5b9050602002013589896040518763ffffffff1660e01b81526004016118e396959493929190613fad565b602060405180830381600087803b1580156118fd57600080fd5b505af1158015611911573d6000803e3d6000fd5b505050506040513d601f19601f820116820180604052508101906119359190613a59565b50806119408161480a565b915050611850565b5063bc197c8160e01b9998505050505050505050565b600354604051631601f47b60e31b8152600e600482015261010090910460ff16602482015260009073__CommitManager_________________________9063b00fa3d89060440160206040518083038186803b1580156119bd57600080fd5b505af41580156119d1573d6000803e3d6000fd5b505050506040513d601f19601f820116820180604052508101906119f59190613d01565b905090565b6040516391a351d360e01b8152600e600482015260248101829052606090819081908190819073__CommitManager_________________________906391a351d39060440160006040518083038186803b158015611a5757600080fd5b505af4158015611a6b573d6000803e3d6000fd5b505050506040513d6000823e601f3d908101601f19168201604052611a9391908101906136a4565b939a9299509097509550909350915050565b60155460ff16611ab457600080fd5b604051632b6e663760e21b8152600e600482015260248101849052604481018390526064810182905273__CommitManager_________________________9063adb998dc9060840160006040518083038186803b158015611b1457600080fd5b505af4158015611b28573d6000803e3d6000fd5b50505050505050565b60007feb7a68d5a205eea79480f44587fe8146ae15b7e92582967fd1b1b119c9b60efa60028588338b8a8989604051611b7198979695949392919061433e565b60405180910390a16000611b8d600c546001600160a01b031690565b90506001600160a01b03811615611c265760405163c841a9db60e01b815273__TokenTracker__________________________9063c841a9db90611be59060009060029033908c9088908d908d908d906004016145e3565b60006040518083038186803b158015611bfd57600080fd5b505af4158015611c11573d6000803e3d6000fd5b5063f23a6e6160e01b9450611ca19350505050565b6040516304e9b2db60e31b815273__TokenTracker__________________________9063274d96d890611c659060009060029033908c906004016145b4565b60006040518083038186803b158015611c7d57600080fd5b505af4158015611c91573d6000803e3d6000fd5b5063f23a6e6160e01b9450505050505b9695505050505050565b60155460ff1615611cbb57600080fd5b60005b8160a00151518163ffffffff161015611dc25760048260a001518263ffffffff1681518110611cfd57634e487b7160e01b600052603260045260246000fd5b60209081029190910181015182546001808201855560009485529383902082516002909202019081559181015191909201805460408401516060850151608086015160a09096015160ff95861661ffff1990941693909317610100928616929092029190911769ffffffffffffffff000019166201000063ffffffff9283160263ffffffff60301b191617600160301b91909516029390931760ff60501b1916600160501b929093169190910291909117905580611dba8161480a565b915050611cbe565b5060005b8160c00151518163ffffffff161015611eca5760058260c001518263ffffffff1681518110611e0557634e487b7160e01b600052603260045260246000fd5b60209081029190910181015182546001808201855560009485529383902082516002909202019081559181015191909201805460408401516060850151608086015160a09096015160ff95861661ffff1990941693909317610100928616929092029190911769ffffffffffffffff000019166201000063ffffffff9283160263ffffffff60301b191617600160301b91909516029390931760ff60501b1916600160501b929093169190910291909117905580611ec28161480a565b915050611dc6565b5080518051600255602080820151600380546040808601516060808801516080808a015160a0909a015160ff908116600160501b0260ff60501b1963ffffffff9c8d16600160301b0263ffffffff60301b19958e1662010000029590951669ffffffffffffffff0000199784166101000261ffff19909a1693909b16929092179790971794909416979097171791909116929092179092558386015180516008558085015160095580830151600a8054929093015187166401000000000267ffffffffffffffff199092169616959095179490941790935591830151600680546001600160a01b039092166001600160a01b0319909216919091179055908201518051611fdb92600d920190612d26565b50606001516007556015805460ff19166001179055565b6006546000906001600160a01b0316158015906119f557506006546001600160a01b0316737534978f9fa903150ed429c486d1f42b7fdb7a611415905090565b61203a611ff2565b8061204d57506001600160a01b03811630145b1561208357604051600081527f83c14e1947c5a639434d6195a6e9d85ab3471a5049c66e0aa46b71e2c0a06dde90602001610895565b600680546001600160a01b0319166001600160a01b0383169081179091556040519081527f83c14e1947c5a639434d6195a6e9d85ab3471a5049c66e0aa46b71e2c0a06dde90602001610895565b60405163075f723760e11b8152600860048201526001600160a01b038316602482015260448101829052600090819073__SpendingManager_______________________90630ebee46e9060640160206040518083038186803b15801561213757600080fd5b505af415801561214b573d6000803e3d6000fd5b505050506040513d601f19601f8201168201806040525081019061216f919061395a565b905080612180576000915050611003565b60405163ddc7babd60e01b8152600860048201526024810184905273__SpendingManager_______________________9063ddc7babd9060440160006040518083038186803b1580156121d257600080fd5b505af41580156121e6573d6000803e3d6000fd5b50505050600080856001600160a01b03168560405160006040518083038185875af1925050503d8060008114612238576040519150601f19603f3d011682016040523d82523d6000602084013e61223d565b606091505b5091509150816122a757846008600101600082825461225c91906146db565b90915550506040517ff5c313ebe4b0c35fe244772061cea14ddbae7ed089b2850d6ee2235fd42847e4906122939088908490613f81565b60405180910390a160009350505050611003565b604080518681526001600160a01b03881660208201527f8f4636f285a9a17fe3479ab47bb7a5deadaf9b2295a16c3965f55fa48e542d1f910160405180910390a150600195945050505050565b60006001600160e01b031982166301ffc9a760e01b148061232557506001600160e01b0319821663f23a6e6160e01b145b8061100357506001600160e01b03198216630a85bd0160e11b1492915050565b60048151601681111561236857634e487b7160e01b600052602160045260246000fd5b141561238057610dd281608001518260a001516120d1565b6006815160168111156123a357634e487b7160e01b600052602160045260246000fd5b14156123b157610dd2610dd6565b6005815160168111156123d457634e487b7160e01b600052602160045260246000fd5b14156123ea576123e78160800151612032565b50565b60088151601681111561240d57634e487b7160e01b600052602160045260246000fd5b1415612420576123e781608001516108a0565b60158151601681111561244357634e487b7160e01b600052602160045260246000fd5b1415612476576060810151612469576123e781604001518260a001518360c0015161287d565b6123e78160c00151612ad7565b60078151601681111561249957634e487b7160e01b600052602160045260246000fd5b14156125225760c0810151600c54604051637d80bb9960e11b815273__CoreManager___________________________9263fb017732926124ef9260049260029290916001600160a01b039091169084016142de565b60006040518083038186803b15801561250757600080fd5b505af415801561251b573d6000803e3d6000fd5b5050505050565b60168151601681111561254557634e487b7160e01b600052602160045260246000fd5b1415612558576123e78160c00151612ca9565b6040516340df783160e11b815273__Executor______________________________906381bef062906124ef908490600090600d906012906004016144fe565b6000805460609182918291906001600160401b038111156125c957634e487b7160e01b600052604160045260246000fd5b6040519080825280602002602001820160405280156125f2578160200160208202803683370190505b5060008054919250906001600160401b0381111561262057634e487b7160e01b600052604160045260246000fd5b604051908082528060200260200182016040528015612649578160200160208202803683370190505b5060008054919250906001600160401b0381111561267757634e487b7160e01b600052604160045260246000fd5b6040519080825280602002602001820160405280156126a0578160200160208202803683370190505b50905060005b60005463ffffffff82161015612870576000805463ffffffff83169081106126de57634e487b7160e01b600052603260045260246000fd5b6000918252602090912060029091020154845160ff90911690859063ffffffff841690811061271d57634e487b7160e01b600052603260045260246000fd5b6020026020010190600381111561274457634e487b7160e01b600052602160045260246000fd5b9081600381111561276557634e487b7160e01b600052602160045260246000fd5b9052506000805463ffffffff831690811061279057634e487b7160e01b600052603260045260246000fd5b906000526020600020906002020160000160019054906101000a90046001600160a01b0316838263ffffffff16815181106127db57634e487b7160e01b600052603260045260246000fd5b6001600160a01b03909216602092830291909101909101526000805463ffffffff831690811061281b57634e487b7160e01b600052603260045260246000fd5b906000526020600020906002020160010154828263ffffffff168151811061285357634e487b7160e01b600052603260045260246000fd5b6020908102919091010152806128688161480a565b9150506126a6565b5091959094509092509050565b60405163075f723760e11b8152600860048201526001600160a01b03841660248201526044810183905260009073__SpendingManager_______________________90630ebee46e9060640160206040518083038186803b1580156128e157600080fd5b505af41580156128f5573d6000803e3d6000fd5b505050506040513d601f19601f82011682018060405250810190612919919061395a565b905080612961577f4d62b9a6ffb55cee5d5dc75b67dc0013b2cce2fa73c7a715ad72dedc5ffdc60c84848460405161295393929190614038565b60405180910390a150505050565b60405163ddc7babd60e01b8152600860048201526024810184905273__SpendingManager_______________________9063ddc7babd9060440160006040518083038186803b1580156129b357600080fd5b505af41580156129c7573d6000803e3d6000fd5b50505050600080856001600160a01b031685856040516129e79190613f39565b60006040518083038185875af1925050503d8060008114612a24576040519150601f19603f3d011682016040523d82523d6000602084013e612a29565b606091505b50915091508115612a76577f594eb1d75e7963acdb8e3677a186a5ed35924ab37f2b20e78aea6516bbc9bd6e86868684604051612a699493929190613ff4565b60405180910390a1612acf565b8460086001016000828254612a8b91906146db565b90915550506040517f4d62b9a6ffb55cee5d5dc75b67dc0013b2cce2fa73c7a715ad72dedc5ffdc60c90612ac6908890889088908690613ff4565b60405180910390a15b505050505050565b600080600083806020019051810190612af091906134cd565b9250925092506000805b83518163ffffffff161015612b5657838163ffffffff1681518110612b2f57634e487b7160e01b600052603260045260246000fd5b602002602001015182612b4291906146a3565b915080612b4e8161480a565b915050612afa565b5060405163075f723760e11b815260086004820152600060248201526044810182905273__SpendingManager_______________________90630ebee46e9060640160206040518083038186803b158015612bb057600080fd5b505af4158015612bc4573d6000803e3d6000fd5b505050506040513d601f19601f82011682018060405250810190612be8919061395a565b612bf3575050505050565b60005b84518163ffffffff161015612acf57612c97858263ffffffff1681518110612c2e57634e487b7160e01b600052603260045260246000fd5b6020026020010151858363ffffffff1681518110612c5c57634e487b7160e01b600052603260045260246000fd5b6020026020010151858463ffffffff1681518110612c8a57634e487b7160e01b600052603260045260246000fd5b602002602001015161287d565b80612ca18161480a565b915050612bf6565b600081806020019051810190612cbf9190613816565b805190915060005b8160ff168163ffffffff161015612d2057612d0e838263ffffffff1681518110612d0157634e487b7160e01b600052603260045260246000fd5b6020026020010151612345565b80612d188161480a565b915050612cc7565b50505050565b828054828255906000526020600020908101928215612d7b579160200282015b82811115612d7b57825182546001600160a01b0319166001600160a01b03909116178255602090920191600190910190612d46565b50612d87929150612d8b565b5090565b5b80821115612d875760008155600101612d8c565b6000612dab8361467c565b604051612db882826147de565b809250848152858585011115612dcd57600080fd5b612ddb8560208301866147b2565b50509392505050565b8035610fd981614911565b8051610fd981614911565b600082601f830112612e0a578081fd5b81516020612e1782614659565b604051612e2482826147de565b8381528281019150858301600585901b87018401881015612e43578586fd5b855b85811015612e6857612e568261310b565b84529284019290840190600101612e45565b5090979650505050505050565b60008083601f840112612e86578182fd5b5081356001600160401b03811115612e9c578182fd5b6020830191508360208260051b8501011115612eb757600080fd5b9250929050565b600082601f830112612ece578081fd5b81516020612edb82614659565b604051612ee882826147de565b8381528281019150858301600585901b87018401881015612f07578586fd5b855b85811015612e6857815184529284019290840190600101612f09565b600082601f830112612f35578081fd5b81516020612f4282614659565b604051612f4f82826147de565b8381528281019150858301600585901b87018401881015612f6e578586fd5b855b85811015612e685781516001600160401b03811115612f8d578788fd5b612f9b8a87838c01016131b1565b8552509284019290840190600101612f70565b600082601f830112612fbe578081fd5b81356020612fcb82614659565b604051612fd882826147de565b8381528281019150858301600585901b87018401881015612ff7578586fd5b855b85811015612e6857813561300c81614911565b84529284019290840190600101612ff9565b600082601f83011261302e578081fd5b8135602061303b82614659565b60405161304882826147de565b838152828101915085830160c080860288018501891015613067578687fd5b865b8681101561308d5761307b8a846131fc565b85529385019391810191600101613069565b509198975050505050505050565b600082601f8301126130ab578081fd5b815160206130b882614659565b6040516130c582826147de565b8381528281019150858301600585901b870184018810156130e4578586fd5b855b85811015612e685781516130f981614956565b845292840192908401906001016130e6565b80518015158114610fd957600080fd5b60008083601f84011261312c578182fd5b5081356001600160401b03811115613142578182fd5b602083019150836020828501011115612eb757600080fd5b600082601f83011261316a578081fd5b81356131758161467c565b60405161318282826147de565b828152856020848701011115613196578384fd5b82602086016020830137918201602001929092529392505050565b600082601f8301126131c1578081fd5b61125c83835160208501612da0565b8035610fd98161493c565b8051610fd98161493c565b8035610fd981614949565b8051610fd981614949565b600060c0828403121561320d578081fd5b60405160c081018181106001600160401b038211171561322f5761322f61485a565b60405282358152905080602083013561324781614968565b6020820152604083013561325a81614968565b6040820152606083013561326d81614956565b6060820152608083013561328081614956565b608082015261329160a0840161331f565b60a08201525092915050565b6000608082840312156132ae578081fd5b604051608081018181106001600160401b03821117156132d0576132d061485a565b8060405250809150823581526020830135602082015260408301356132f481614956565b6040820152606083013561330781614956565b6060919091015292915050565b8035610fd981614956565b8035610fd981614968565b60008060008060008060008060a0898b031215613345578384fd5b883561335081614911565b9750602089013561336081614911565b965060408901356001600160401b038082111561337b578586fd5b6133878c838d01612e75565b909850965060608b013591508082111561339f578586fd5b6133ab8c838d01612e75565b909650945060808b01359150808211156133c3578384fd5b506133d08b828c0161311b565b999c989b5096995094979396929594505050565b6000806000806000608086880312156133fb578283fd5b853561340681614911565b9450602086013561341681614911565b93506040860135925060608601356001600160401b03811115613437578182fd5b6134438882890161311b565b969995985093965092949392505050565b60008060008060008060a0878903121561346c578384fd5b863561347781614911565b9550602087013561348781614911565b9450604087013593506060870135925060808701356001600160401b038111156134af578283fd5b6134bb89828a0161311b565b979a9699509497509295939492505050565b6000806000606084860312156134e1578081fd5b83516001600160401b03808211156134f7578283fd5b818601915086601f83011261350a578283fd5b8151602061351782614659565b60405161352482826147de565b8381528281019150858301600585901b870184018c1015613543578788fd5b8796505b8487101561356e57805161355a81614911565b835260019690960195918301918301613547565b5091890151919750909350505080821115613587578283fd5b61359387838801612ebe565b935060408601519150808211156135a8578283fd5b506135b586828701612f25565b9150509250925092565b6000806000806000806000806000806000806101408d8f0312156135e1578586fd5b6001600160401b038d3511156135f5578586fd5b6136028e8e358f01612e75565b909c509a5061361360208e01613314565b995060408d0135985061362860608e016131d0565b975061363660808e016131e6565b965061364460a08e01612de4565b955060c08d0135945061365960e08e01612de4565b93506101008d013592506001600160401b036101208e0135111561367b578081fd5b61368c8e6101208f01358f0161311b565b81935080925050509295989b509295989b509295989b565b600080600080600060a086880312156136bb578283fd5b85516001600160401b03808211156136d1578485fd5b6136dd89838a01612ebe565b965060208801519150808211156136f2578485fd5b6136fe89838a01612ebe565b95506040880151915080821115613713578485fd5b61371f89838a01612ebe565b94506060880151915080821115613734578283fd5b61374089838a0161309b565b93506080880151915080821115613755578283fd5b5061376288828901612dfa565b9150509295509295909350565b60008060008060808587031215613784578182fd5b84516001600160401b038082111561379a578384fd5b6137a688838901612ebe565b955060208701519150808211156137bb578384fd5b6137c788838901612ebe565b945060408701519150808211156137dc578384fd5b6137e88883890161309b565b935060608701519150808211156137fd578283fd5b5061380a8782880161309b565b91505092959194509250565b60006020808385031215613828578182fd5b82516001600160401b038082111561383e578384fd5b818501915085601f830112613851578384fd5b815161385c81614659565b60405161386982826147de565b8281528581019150848601600584901b860187018a1015613888578788fd5b875b8481101561394b578151868111156138a057898afd5b870160e0818d03601f19018113156138b6578a8bfd5b6138be614631565b6138c98b84016131db565b81526138d7604084016131f1565b8b82015260606138e8818501612def565b60408301526080808501518284015260a09150613906828601612def565b9083015260c084015190820152908201519088821115613924578b8cfd5b6139328e8c848601016131b1565b60c082015286525050928701929087019060010161388a565b50909998505050505050505050565b60006020828403121561396b578081fd5b61125c8261310b565b600060208284031215613985578081fd5b5035919050565b6000806000606084860312156139a0578081fd5b505081359360208301359350604090920135919050565b600080604083850312156139c9578182fd5b8235915060208301356001600160401b038111156139e5578182fd5b6139f18582860161315a565b9150509250929050565b600080600060608486031215613a0f578081fd5b835192506020840151613a2181614956565b6040850151909250613a3281614956565b809150509250925092565b600060208284031215613a4e578081fd5b813561125c81614926565b600060208284031215613a6a578081fd5b815161125c81614926565b600080600060608486031215613a89578081fd5b8335613a9481614949565b92506020840135613aa481614911565b929592945050506040919091013590565b60008060408385031215613ac7578182fd5b82356001600160401b0380821115613add578384fd5b9084019060608287031215613af0578384fd5b90925060208401359080821115613b05578283fd5b50830160e08186031215613b17578182fd5b809150509250929050565b600060208284031215613b33578081fd5b81356001600160401b0380821115613b49578283fd5b908301906101e08286031215613b5d578283fd5b613b65614631565b613b6f86846131fc565b8152613b7e8660c0850161329d565b6020820152613b906101408401612de4565b6040820152610160830135606082015261018083013582811115613bb2578485fd5b613bbe87828601612fae565b6080830152506101a083013582811115613bd6578485fd5b613be28782860161301e565b60a0830152506101c083013582811115613bfa578485fd5b613c068782860161301e565b60c08301525095945050505050565b600060208284031215613c26578081fd5b5051919050565b600080600060608486031215613c41578081fd5b83519250613c516020850161310b565b915060408401516001600160401b03811115613c6b578182fd5b8401601f81018613613c7b578182fd5b6135b586825160208401612da0565b60008060008060808587031215613c9f578182fd5b84519350602085015192506040850151613cb881614956565b6060860151909250613cc981614956565b939692955090935050565b60008060408385031215613ce6578182fd5b8235613cf181614956565b91506020830135613b1781614956565b600060208284031215613d12578081fd5b815161125c81614968565b6000815180845260208085019450808401835b83811015613d4e578151151587529582019590820190600101613d30565b509495945050505050565b81835260006001600160fb1b03831115613d71578081fd5b8260051b80836020870137939093016020019283525090919050565b6000815180845260208085019450808401835b83811015613d4e57815187529582019590820190600101613da0565b6000815180845260208085019450808401835b83811015613d4e57815163ffffffff1687529582019590820190600101613dcf565b81835281816020850137506000828201602090810191909152601f909101601f19169091010190565b60008151808452613e328160208601602086016147b2565b601f01601f19169290920160200192915050565b60178110613e5657613e56614844565b9052565b60048110613e5657613e56614844565b60008135613e778161493c565b613e818482613e46565b506020820135613e9081614949565b613e9d6020850182613e5a565b506040820135613eac81614911565b6001600160a01b03908116604085015260608381013590850152608083013590613ed582614911565b16608084015260a0828101359084015260c082013536839003601e19018112613efc578182fd5b820180356001600160401b03811115613f13578283fd5b803603841315613f21578283fd5b60e060c08601526111c460e086018260208501613df1565b60008251613f4b8184602087016147b2565b9190910192915050565b6001600160a01b038481168252831660208201526060604082018190526000906111c490830184613e1a565b6001600160a01b0383168152604060208201819052600090613fa590830184613e1a565b949350505050565b6001600160a01b03878116825286166020820152604081018590526060810184905260a060808201819052600090613fe89083018486613df1565b98975050505050505050565b60018060a01b038516815283602082015260806040820152600061401b6080830185613e1a565b828103606084015261402d8185613e1a565b979650505050505050565b60018060a01b038416815282602082015260806040820152600061405f6080830184613e1a565b82810360609093019290925281526020019392505050565b60a08152600061408a60a0830188613d8d565b828103602084015261409c8188613d8d565b905082810360408401526140b08187613d8d565b905082810360608401526140c48186613dbc565b90508281036080840152613fe88185613d1d565b6080815260006140eb6080830187613d8d565b82810360208401526140fd8187613d8d565b905082810360408401526141118186613dbc565b9050828103606084015261402d8185613d1d565b6080815260006141386080830187613d8d565b828103602084015261414a8187613d8d565b9050828103604084015261415e8186613dbc565b9050828103606084015261402d8185613dbc565b6020808252825182820181905260009190848201906040850190845b818110156141b35783516001600160a01b03168352928401929184019160010161418e565b50909695505050505050565b606080825284519082018190526000906020906080840190828801845b828110156141ff576141ef848351613e5a565b92840192908401906001016141dc565b50505083810382850152855180825286830191830190845b8181101561423c5783516001600160a01b031683529284019291840191600101614217565b50508481036040860152613fe88187613d8d565b602080825282518282018190526000919060409081850190868401855b828110156142d1578151805185528681015160ff908116888701528682015181168787015260608083015163ffffffff908116918801919091526080808401519091169087015260a091820151169085015260c0909301929085019060010161426d565b5091979650505050505050565b8481528360208201526080604082015260006142fd6080830185613e1a565b905060018060a01b038316606083015295945050505050565b606081016143248286613e5a565b6001600160a01b0393909316602082015260400152919050565b614348818a613e5a565b602081018890526001600160a01b03878116604083015286811660608301528516608082015260a0810184905260e060c0820181905260009061438e9083018486613df1565b9a9950505050505050505050565b60208152600061125c6020830184613e1a565b6040815260008351606060408401526143cb60a0840182613d8d565b905063ffffffff60208601511660608401526040850151608084015282810360208401526143fa818551613e46565b602084015161440c6020830182613e5a565b50604084015160018060a01b03808216604084015260608601516060840152806080870151166080840152505060a084015160a082015260c084015160e060c0830152611ca160e0830182613e1a565b85815284602082015283604082015260a0606082015260008335601e19853603018112614487578182fd5b840180356001600160401b0381111561449e578283fd5b8060051b36038613156144af578283fd5b606060a08501526144c861010085018260208501613d59565b9150506144d760208601613314565b63ffffffff1660c0840152604085013560e08401528281036080840152613fe88185613e6a565b60808152614510608082018651613e46565b6000602086015161452460a0840182613e5a565b50604086015160018060a01b0380821660c0850152606088015160e085015280608089015116610100850152505060a086015161012083015260c086015160e0610140840152614578610160840182613e1a565b602084019690965250506040810192909252606090910152919050565b8381528260208201526060604082015260006111c46060830184613e1a565b848152608081016145c86020830186613e5a565b6001600160a01b039390931660408201526060015292915050565b8881526145f36020820189613e5a565b6001600160a01b038781166040830152606082018790528516608082015260a0810184905260e060c0820181905260009061438e9083018486613df1565b60405160e081016001600160401b03811182821017156146535761465361485a565b60405290565b60006001600160401b038211156146725761467261485a565b5060051b60200190565b60006001600160401b038211156146955761469561485a565b50601f01601f191660200190565b600082198211156146b6576146b661482e565b500190565b6000826146d657634e487b7160e01b81526012600452602481fd5b500490565b6000828210156146ed576146ed61482e565b500390565b600063ffffffff8381169083168181101561470f5761470f61482e565b039392505050565b600060e08236031215614728578081fd5b614730614631565b614739836131d0565b8152614747602084016131e6565b602082015261475860408401612de4565b60408201526060830135606082015261477360808401612de4565b608082015260a083013560a082015260c08301356001600160401b0381111561479a578283fd5b6147a63682860161315a565b60c08301525092915050565b60005b838110156147cd5781810151838201526020016147b5565b83811115612d205750506000910152565b601f8201601f191681016001600160401b03811182821017156148035761480361485a565b6040525050565b600063ffffffff808316818114156148245761482461482e565b6001019392505050565b634e487b7160e01b600052601160045260246000fd5b634e487b7160e01b600052602160045260246000fd5b634e487b7160e01b600052604160045260246000fd5b600060033d111561488557600481823e5160e01c5b90565b600060443d10156148965790565b6040516003193d81016004833e81513d6001600160401b0381602484011181841117156148c557505050505090565b82850191508151818111156148dd5750505050505090565b843d87010160208285010111156148f75750505050505090565b614906602082860101876147de565b509095945050505050565b6001600160a01b03811681146123e757600080fd5b6001600160e01b0319811681146123e757600080fd5b601781106123e757600080fd5b600481106123e757600080fd5b63ffffffff811681146123e757600080fd5b60ff811681146123e757600080fdfea2646970667358221220dc0223fb40b725cdfd5773078d8ef14542f910b1159e2096785ca3d03bb0024464736f6c63430008040033a2646970667358221220b76624c292eb22133241b2c418258769d754559da703d8f76b8681ba74a02f8064736f6c63430008040033",
  "immutableReferences": {},
  "source": "// SPDX-License-Identifier: Apache-2.0\npragma solidity ^0.8.4;\n\nimport \"./ONEWallet.sol\";\nimport \"./IONEWallet.sol\";\nimport \"./Factory.sol\";\n\nlibrary ONEWalletCodeHelper {\n    function code() pure public returns (bytes memory){\n        return type(ONEWallet).creationCode;\n    }\n}\n\ncontract ONEWalletFactoryHelper {\n    ONEWalletFactory public factory = ONEWalletFactory(address(0));\n    constructor(ONEWalletFactory factory_){\n        factory = factory_;\n    }\n\n    function deploy(IONEWallet.InitParams memory args) payable public returns (address){\n        // ONEWallet has no constructor argument since v15\n        address addr = factory.deploy{value : msg.value}(ONEWalletCodeHelper.code(), uint256(args.identificationHash));\n        if (addr == address(0)) {\n            return addr;\n        }\n        IONEWallet(addr).initialize(args);\n        return addr;\n    }\n\n    function predict(bytes32 identificationHash) public view returns (address){\n        return factory.predict(ONEWalletCodeHelper.code(), uint256(identificationHash));\n    }\n\n    function verify(IONEWallet addr) public view returns (bool){\n        address predictedAddress = factory.predict(ONEWalletCodeHelper.code(), uint256(addr.identificationHash()));\n        return predictedAddress == address(addr);\n    }\n}\n",
  "sourcePath": "/Users/polymorpher/git/one-wallet/code/contracts/FactoryHelper.sol",
  "compiler": {
    "name": "solc",
    "version": "0.8.4+commit.c7e474f2.Emscripten.clang"
  },
  "schemaVersion": "3.4.2",
  "updatedAt": "2021-11-13T14:38:44.879Z",
  "devdoc": {
    "kind": "dev",
    "methods": {},
    "version": 1
  },
  "userdoc": {
    "kind": "user",
    "methods": {},
    "version": 1
  }
}