{
  "contractName": "ONEWallet",
  "abi": [
    {
      "inputs": [
        {
          "internalType": "bytes32",
          "name": "root_",
          "type": "bytes32"
        },
        {
          "internalType": "uint8",
          "name": "height_",
          "type": "uint8"
        },
        {
          "internalType": "uint8",
          "name": "interval_",
          "type": "uint8"
        },
        {
          "internalType": "uint32",
          "name": "t0_",
          "type": "uint32"
        },
        {
          "internalType": "uint32",
          "name": "lifespan_",
          "type": "uint32"
        },
        {
          "internalType": "uint8",
          "name": "maxOperationsPerInterval_",
          "type": "uint8"
        },
        {
          "internalType": "address payable",
          "name": "lastResortAddress_",
          "type": "address"
        },
        {
          "internalType": "uint256",
          "name": "dailyLimit_",
          "type": "uint256"
        }
      ],
      "stateMutability": "nonpayable",
      "type": "constructor"
    },
    {
      "anonymous": false,
      "inputs": [
        {
          "indexed": false,
          "internalType": "address",
          "name": "from",
          "type": "address"
        }
      ],
      "name": "AutoRecoveryTriggered",
      "type": "event"
    },
    {
      "anonymous": false,
      "inputs": [
        {
          "indexed": false,
          "internalType": "address",
          "name": "from",
          "type": "address"
        },
        {
          "indexed": false,
          "internalType": "uint256",
          "name": "requiredTime",
          "type": "uint256"
        }
      ],
      "name": "AutoRecoveryTriggeredPrematurely",
      "type": "event"
    },
    {
      "anonymous": false,
      "inputs": [
        {
          "indexed": false,
          "internalType": "address",
          "name": "dest",
          "type": "address"
        },
        {
          "indexed": false,
          "internalType": "address",
          "name": "backlink",
          "type": "address"
        },
        {
          "indexed": false,
          "internalType": "string",
          "name": "error",
          "type": "string"
        }
      ],
      "name": "BackLinkUpdateError",
      "type": "event"
    },
    {
      "anonymous": false,
      "inputs": [
        {
          "indexed": false,
          "internalType": "address",
          "name": "dest",
          "type": "address"
        },
        {
          "indexed": false,
          "internalType": "address",
          "name": "backlink",
          "type": "address"
        }
      ],
      "name": "BackLinkUpdated",
      "type": "event"
    },
    {
      "anonymous": false,
      "inputs": [
        {
          "indexed": false,
          "internalType": "address",
          "name": "subdomainRegistrar",
          "type": "address"
        },
        {
          "indexed": false,
          "internalType": "string",
          "name": "subdomain",
          "type": "string"
        },
        {
          "indexed": false,
          "internalType": "bytes32",
          "name": "domainLabel",
          "type": "bytes32"
        }
      ],
      "name": "DomainRegistered",
      "type": "event"
    },
    {
      "anonymous": false,
      "inputs": [
        {
          "indexed": false,
          "internalType": "string",
          "name": "reason",
          "type": "string"
        }
      ],
      "name": "DomainRegistrationFailed",
      "type": "event"
    },
    {
      "anonymous": false,
      "inputs": [
        {
          "indexed": false,
          "internalType": "uint256",
          "name": "amount",
          "type": "uint256"
        },
        {
          "indexed": false,
          "internalType": "uint256",
          "name": "limit",
          "type": "uint256"
        },
        {
          "indexed": false,
          "internalType": "uint256",
          "name": "current",
          "type": "uint256"
        },
        {
          "indexed": false,
          "internalType": "address",
          "name": "dest",
          "type": "address"
        }
      ],
      "name": "ExceedDailyLimit",
      "type": "event"
    },
    {
      "anonymous": false,
      "inputs": [
        {
          "indexed": false,
          "internalType": "address",
          "name": "dest",
          "type": "address"
        }
      ],
      "name": "ForwardAddressAlreadySet",
      "type": "event"
    },
    {
      "anonymous": false,
      "inputs": [
        {
          "indexed": false,
          "internalType": "address",
          "name": "dest",
          "type": "address"
        }
      ],
      "name": "ForwardAddressInvalid",
      "type": "event"
    },
    {
      "anonymous": false,
      "inputs": [
        {
          "indexed": false,
          "internalType": "address",
          "name": "dest",
          "type": "address"
        }
      ],
      "name": "ForwardAddressUpdated",
      "type": "event"
    },
    {
      "anonymous": false,
      "inputs": [
        {
          "indexed": false,
          "internalType": "enum TokenType",
          "name": "tokenType",
          "type": "uint8"
        },
        {
          "indexed": false,
          "internalType": "uint256",
          "name": "amount",
          "type": "uint256"
        },
        {
          "indexed": false,
          "internalType": "address",
          "name": "from",
          "type": "address"
        },
        {
          "indexed": false,
          "internalType": "address",
          "name": "tokenContract",
          "type": "address"
        },
        {
          "indexed": false,
          "internalType": "address",
          "name": "operator",
          "type": "address"
        },
        {
          "indexed": false,
          "internalType": "uint256",
          "name": "tokenId",
          "type": "uint256"
        },
        {
          "indexed": false,
          "internalType": "bytes",
          "name": "data",
          "type": "bytes"
        }
      ],
      "name": "ForwardedToken",
      "type": "event"
    },
    {
      "anonymous": false,
      "inputs": [
        {
          "indexed": false,
          "internalType": "uint256",
          "name": "amount",
          "type": "uint256"
        },
        {
          "indexed": false,
          "internalType": "uint256",
          "name": "balance",
          "type": "uint256"
        },
        {
          "indexed": false,
          "internalType": "address",
          "name": "dest",
          "type": "address"
        }
      ],
      "name": "InsufficientFund",
      "type": "event"
    },
    {
      "anonymous": false,
      "inputs": [
        {
          "indexed": false,
          "internalType": "string",
          "name": "fqdn",
          "type": "string"
        },
        {
          "indexed": false,
          "internalType": "uint32",
          "name": "subdomainLabelLength",
          "type": "uint32"
        }
      ],
      "name": "InvalidFQDN",
      "type": "event"
    },
    {
      "anonymous": false,
      "inputs": [],
      "name": "LastResortAddressNotSet",
      "type": "event"
    },
    {
      "anonymous": false,
      "inputs": [
        {
          "indexed": false,
          "internalType": "uint256",
          "name": "amount",
          "type": "uint256"
        },
        {
          "indexed": false,
          "internalType": "address",
          "name": "dest",
          "type": "address"
        }
      ],
      "name": "PaymentForwarded",
      "type": "event"
    },
    {
      "anonymous": false,
      "inputs": [
        {
          "indexed": false,
          "internalType": "uint256",
          "name": "amount",
          "type": "uint256"
        },
        {
          "indexed": false,
          "internalType": "address",
          "name": "from",
          "type": "address"
        }
      ],
      "name": "PaymentReceived",
      "type": "event"
    },
    {
      "anonymous": false,
      "inputs": [
        {
          "indexed": false,
          "internalType": "uint256",
          "name": "amount",
          "type": "uint256"
        },
        {
          "indexed": false,
          "internalType": "address",
          "name": "dest",
          "type": "address"
        }
      ],
      "name": "PaymentSent",
      "type": "event"
    },
    {
      "anonymous": false,
      "inputs": [
        {
          "indexed": false,
          "internalType": "enum TokenType",
          "name": "tokenType",
          "type": "uint8"
        },
        {
          "indexed": false,
          "internalType": "uint256",
          "name": "amount",
          "type": "uint256"
        },
        {
          "indexed": false,
          "internalType": "address",
          "name": "from",
          "type": "address"
        },
        {
          "indexed": false,
          "internalType": "address",
          "name": "tokenContract",
          "type": "address"
        },
        {
          "indexed": false,
          "internalType": "address",
          "name": "operator",
          "type": "address"
        },
        {
          "indexed": false,
          "internalType": "uint256",
          "name": "tokenId",
          "type": "uint256"
        },
        {
          "indexed": false,
          "internalType": "bytes",
          "name": "data",
          "type": "bytes"
        }
      ],
      "name": "ReceivedToken",
      "type": "event"
    },
    {
      "anonymous": false,
      "inputs": [
        {
          "indexed": false,
          "internalType": "address",
          "name": "dest",
          "type": "address"
        }
      ],
      "name": "RecoveryAddressUpdated",
      "type": "event"
    },
    {
      "anonymous": false,
      "inputs": [],
      "name": "RecoveryFailure",
      "type": "event"
    },
    {
      "anonymous": false,
      "inputs": [
        {
          "indexed": false,
          "internalType": "address",
          "name": "reverseRegistrar",
          "type": "address"
        },
        {
          "indexed": false,
          "internalType": "bytes32",
          "name": "nodeHash",
          "type": "bytes32"
        }
      ],
      "name": "ReverseDomainClaimed",
      "type": "event"
    },
    {
      "anonymous": false,
      "inputs": [
        {
          "indexed": false,
          "internalType": "enum TokenType",
          "name": "tokenType",
          "type": "uint8"
        },
        {
          "indexed": false,
          "internalType": "address",
          "name": "contractAddress",
          "type": "address"
        },
        {
          "indexed": false,
          "internalType": "uint256",
          "name": "tokenId",
          "type": "uint256"
        }
      ],
      "name": "TokenNotFound",
      "type": "event"
    },
    {
      "anonymous": false,
      "inputs": [
        {
          "indexed": false,
          "internalType": "enum TokenType",
          "name": "tokenType",
          "type": "uint8"
        },
        {
          "indexed": false,
          "internalType": "address",
          "name": "contractAddress",
          "type": "address"
        },
        {
          "indexed": false,
          "internalType": "uint256",
          "name": "tokenId",
          "type": "uint256"
        },
        {
          "indexed": false,
          "internalType": "uint256",
          "name": "balance",
          "type": "uint256"
        }
      ],
      "name": "TokenRecovered",
      "type": "event"
    },
    {
      "anonymous": false,
      "inputs": [
        {
          "indexed": false,
          "internalType": "enum TokenType",
          "name": "tokenType",
          "type": "uint8"
        },
        {
          "indexed": false,
          "internalType": "address",
          "name": "contractAddress",
          "type": "address"
        },
        {
          "indexed": false,
          "internalType": "uint256",
          "name": "tokenId",
          "type": "uint256"
        }
      ],
      "name": "TokenTracked",
      "type": "event"
    },
    {
      "anonymous": false,
      "inputs": [
        {
          "indexed": false,
          "internalType": "enum TokenType",
          "name": "tokenType",
          "type": "uint8"
        },
        {
          "indexed": false,
          "internalType": "address",
          "name": "contractAddress",
          "type": "address"
        },
        {
          "indexed": false,
          "internalType": "uint256",
          "name": "tokenId",
          "type": "uint256"
        },
        {
          "indexed": false,
          "internalType": "address",
          "name": "dest",
          "type": "address"
        },
        {
          "indexed": false,
          "internalType": "uint256",
          "name": "amount",
          "type": "uint256"
        },
        {
          "indexed": false,
          "internalType": "string",
          "name": "reason",
          "type": "string"
        }
      ],
      "name": "TokenTransferError",
      "type": "event"
    },
    {
      "anonymous": false,
      "inputs": [
        {
          "indexed": false,
          "internalType": "enum TokenType",
          "name": "tokenType",
          "type": "uint8"
        },
        {
          "indexed": false,
          "internalType": "address",
          "name": "contractAddress",
          "type": "address"
        },
        {
          "indexed": false,
          "internalType": "uint256",
          "name": "tokenId",
          "type": "uint256"
        },
        {
          "indexed": false,
          "internalType": "address",
          "name": "dest",
          "type": "address"
        },
        {
          "indexed": false,
          "internalType": "uint256",
          "name": "amount",
          "type": "uint256"
        }
      ],
      "name": "TokenTransferFailed",
      "type": "event"
    },
    {
      "anonymous": false,
      "inputs": [
        {
          "indexed": false,
          "internalType": "enum TokenType",
          "name": "tokenType",
          "type": "uint8"
        },
        {
          "indexed": false,
          "internalType": "address",
          "name": "contractAddress",
          "type": "address"
        },
        {
          "indexed": false,
          "internalType": "uint256",
          "name": "tokenId",
          "type": "uint256"
        },
        {
          "indexed": false,
          "internalType": "address",
          "name": "dest",
          "type": "address"
        },
        {
          "indexed": false,
          "internalType": "uint256",
          "name": "amount",
          "type": "uint256"
        }
      ],
      "name": "TokenTransferSucceeded",
      "type": "event"
    },
    {
      "anonymous": false,
      "inputs": [
        {
          "indexed": false,
          "internalType": "enum TokenType",
          "name": "tokenType",
          "type": "uint8"
        },
        {
          "indexed": false,
          "internalType": "address",
          "name": "contractAddress",
          "type": "address"
        },
        {
          "indexed": false,
          "internalType": "uint256",
          "name": "tokenId",
          "type": "uint256"
        }
      ],
      "name": "TokenUntracked",
      "type": "event"
    },
    {
      "anonymous": false,
      "inputs": [
        {
          "indexed": false,
          "internalType": "address",
          "name": "dest",
          "type": "address"
        }
      ],
      "name": "UnknownTransferError",
      "type": "event"
    },
    {
      "inputs": [],
      "name": "getTrackedTokens",
      "outputs": [
        {
          "internalType": "enum TokenType[]",
          "name": "",
          "type": "uint8[]"
        },
        {
          "internalType": "address[]",
          "name": "",
          "type": "address[]"
        },
        {
          "internalType": "uint256[]",
          "name": "",
          "type": "uint256[]"
        }
      ],
      "stateMutability": "view",
      "type": "function"
    },
    {
      "inputs": [
        {
          "internalType": "address",
          "name": "operator",
          "type": "address"
        },
        {
          "internalType": "address",
          "name": "from",
          "type": "address"
        },
        {
          "internalType": "uint256[]",
          "name": "ids",
          "type": "uint256[]"
        },
        {
          "internalType": "uint256[]",
          "name": "values",
          "type": "uint256[]"
        },
        {
          "internalType": "bytes",
          "name": "data",
          "type": "bytes"
        }
      ],
      "name": "onERC1155BatchReceived",
      "outputs": [
        {
          "internalType": "bytes4",
          "name": "",
          "type": "bytes4"
        }
      ],
      "stateMutability": "nonpayable",
      "type": "function"
    },
    {
      "inputs": [
        {
          "internalType": "address",
          "name": "operator",
          "type": "address"
        },
        {
          "internalType": "address",
          "name": "from",
          "type": "address"
        },
        {
          "internalType": "uint256",
          "name": "id",
          "type": "uint256"
        },
        {
          "internalType": "uint256",
          "name": "value",
          "type": "uint256"
        },
        {
          "internalType": "bytes",
          "name": "data",
          "type": "bytes"
        }
      ],
      "name": "onERC1155Received",
      "outputs": [
        {
          "internalType": "bytes4",
          "name": "",
          "type": "bytes4"
        }
      ],
      "stateMutability": "nonpayable",
      "type": "function"
    },
    {
      "inputs": [
        {
          "internalType": "address",
          "name": "operator",
          "type": "address"
        },
        {
          "internalType": "address",
          "name": "from",
          "type": "address"
        },
        {
          "internalType": "uint256",
          "name": "tokenId",
          "type": "uint256"
        },
        {
          "internalType": "bytes",
          "name": "data",
          "type": "bytes"
        }
      ],
      "name": "onERC721Received",
      "outputs": [
        {
          "internalType": "bytes4",
          "name": "",
          "type": "bytes4"
        }
      ],
      "stateMutability": "nonpayable",
      "type": "function"
    },
    {
      "inputs": [
        {
          "internalType": "bytes4",
          "name": "interfaceID",
          "type": "bytes4"
        }
      ],
      "name": "supportsInterface",
      "outputs": [
        {
          "internalType": "bool",
          "name": "",
          "type": "bool"
        }
      ],
      "stateMutability": "pure",
      "type": "function"
    },
    {
      "stateMutability": "payable",
      "type": "receive"
    },
    {
      "inputs": [],
      "name": "getForwardAddress",
      "outputs": [
        {
          "internalType": "address payable",
          "name": "",
          "type": "address"
        }
      ],
      "stateMutability": "view",
      "type": "function"
    },
    {
      "inputs": [],
      "name": "retire",
      "outputs": [
        {
          "internalType": "bool",
          "name": "",
          "type": "bool"
        }
      ],
      "stateMutability": "nonpayable",
      "type": "function"
    },
    {
      "inputs": [],
      "name": "getInfo",
      "outputs": [
        {
          "internalType": "bytes32",
          "name": "",
          "type": "bytes32"
        },
        {
          "internalType": "uint8",
          "name": "",
          "type": "uint8"
        },
        {
          "internalType": "uint8",
          "name": "",
          "type": "uint8"
        },
        {
          "internalType": "uint32",
          "name": "",
          "type": "uint32"
        },
        {
          "internalType": "uint32",
          "name": "",
          "type": "uint32"
        },
        {
          "internalType": "uint8",
          "name": "",
          "type": "uint8"
        },
        {
          "internalType": "address",
          "name": "",
          "type": "address"
        },
        {
          "internalType": "uint256",
          "name": "",
          "type": "uint256"
        }
      ],
      "stateMutability": "view",
      "type": "function"
    },
    {
      "inputs": [],
      "name": "getVersion",
      "outputs": [
        {
          "internalType": "uint32",
          "name": "",
          "type": "uint32"
        },
        {
          "internalType": "uint32",
          "name": "",
          "type": "uint32"
        }
      ],
      "stateMutability": "pure",
      "type": "function"
    },
    {
      "inputs": [],
      "name": "getCurrentSpending",
      "outputs": [
        {
          "internalType": "uint256",
          "name": "",
          "type": "uint256"
        },
        {
          "internalType": "uint256",
          "name": "",
          "type": "uint256"
        }
      ],
      "stateMutability": "view",
      "type": "function"
    },
    {
      "inputs": [],
      "name": "getNonce",
      "outputs": [
        {
          "internalType": "uint8",
          "name": "",
          "type": "uint8"
        }
      ],
      "stateMutability": "view",
      "type": "function"
    },
    {
      "inputs": [],
      "name": "getCommits",
      "outputs": [
        {
          "internalType": "bytes32[]",
          "name": "",
          "type": "bytes32[]"
        },
        {
          "internalType": "bytes32[]",
          "name": "",
          "type": "bytes32[]"
        },
        {
          "internalType": "uint32[]",
          "name": "",
          "type": "uint32[]"
        },
        {
          "internalType": "bool[]",
          "name": "",
          "type": "bool[]"
        }
      ],
      "stateMutability": "pure",
      "type": "function"
    },
    {
      "inputs": [],
      "name": "getAllCommits",
      "outputs": [
        {
          "internalType": "bytes32[]",
          "name": "",
          "type": "bytes32[]"
        },
        {
          "internalType": "bytes32[]",
          "name": "",
          "type": "bytes32[]"
        },
        {
          "internalType": "bytes32[]",
          "name": "",
          "type": "bytes32[]"
        },
        {
          "internalType": "uint32[]",
          "name": "",
          "type": "uint32[]"
        },
        {
          "internalType": "bool[]",
          "name": "",
          "type": "bool[]"
        }
      ],
      "stateMutability": "view",
      "type": "function"
    },
    {
      "inputs": [
        {
          "internalType": "bytes32",
          "name": "",
          "type": "bytes32"
        }
      ],
      "name": "findCommit",
      "outputs": [
        {
          "internalType": "bytes32",
          "name": "",
          "type": "bytes32"
        },
        {
          "internalType": "bytes32",
          "name": "",
          "type": "bytes32"
        },
        {
          "internalType": "uint32",
          "name": "",
          "type": "uint32"
        },
        {
          "internalType": "bool",
          "name": "",
          "type": "bool"
        }
      ],
      "stateMutability": "pure",
      "type": "function"
    },
    {
      "inputs": [
        {
          "internalType": "bytes32",
          "name": "hash",
          "type": "bytes32"
        }
      ],
      "name": "lookupCommit",
      "outputs": [
        {
          "internalType": "bytes32[]",
          "name": "",
          "type": "bytes32[]"
        },
        {
          "internalType": "bytes32[]",
          "name": "",
          "type": "bytes32[]"
        },
        {
          "internalType": "bytes32[]",
          "name": "",
          "type": "bytes32[]"
        },
        {
          "internalType": "uint32[]",
          "name": "",
          "type": "uint32[]"
        },
        {
          "internalType": "bool[]",
          "name": "",
          "type": "bool[]"
        }
      ],
      "stateMutability": "view",
      "type": "function"
    },
    {
      "inputs": [
        {
          "internalType": "bytes32",
          "name": "hash",
          "type": "bytes32"
        },
        {
          "internalType": "bytes32",
          "name": "paramsHash",
          "type": "bytes32"
        },
        {
          "internalType": "bytes32",
          "name": "verificationHash",
          "type": "bytes32"
        }
      ],
      "name": "commit",
      "outputs": [],
      "stateMutability": "nonpayable",
      "type": "function"
    },
    {
      "inputs": [
        {
          "internalType": "bytes32[]",
          "name": "neighbors",
          "type": "bytes32[]"
        },
        {
          "internalType": "uint32",
          "name": "indexWithNonce",
          "type": "uint32"
        },
        {
          "internalType": "bytes32",
          "name": "eotp",
          "type": "bytes32"
        },
        {
          "internalType": "enum OperationType",
          "name": "operationType",
          "type": "uint8"
        },
        {
          "internalType": "enum TokenType",
          "name": "tokenType",
          "type": "uint8"
        },
        {
          "internalType": "address",
          "name": "contractAddress",
          "type": "address"
        },
        {
          "internalType": "uint256",
          "name": "tokenId",
          "type": "uint256"
        },
        {
          "internalType": "address payable",
          "name": "dest",
          "type": "address"
        },
        {
          "internalType": "uint256",
          "name": "amount",
          "type": "uint256"
        },
        {
          "internalType": "bytes",
          "name": "data",
          "type": "bytes"
        }
      ],
      "name": "reveal",
      "outputs": [],
      "stateMutability": "nonpayable",
      "type": "function"
    }
  ],
  "bytecode": "0x60806040523480156200001157600080fd5b506040516200632c3803806200632c833981016040819052620000349162000140565b600288905560038054600480546001600160a01b0319166001600160a01b038616179055600583905560ff89811661ffff1990921691909117610100898316021762010000600160501b0319166201000063ffffffff8981169190910263ffffffff60301b1916919091176601000000000000918816919091021760ff60501b19166a010000000000000000000091861691909102179055620000d9600188620002fb565b620000e69060026200022d565b6003600b6101000a81548163ffffffff021916908363ffffffff160217905550505050505050505062000337565b805163ffffffff811681146200012957600080fd5b919050565b805160ff811681146200012957600080fd5b600080600080600080600080610100898b0312156200015d578384fd5b885197506200016f60208a016200012e565b96506200017f60408a016200012e565b95506200018f60608a0162000114565b94506200019f60808a0162000114565b9350620001af60a08a016200012e565b60c08a01519093506001600160a01b0381168114620001cc578283fd5b8092505060e089015190509295985092959890939650565b600181815b808511156200022557816000190482111562000209576200020962000321565b808516156200021757918102915b93841c9390800290620001e9565b509250929050565b60006200023e60ff84168362000245565b9392505050565b6000826200025657506001620002f5565b816200026557506000620002f5565b81600181146200027e57600281146200028957620002a9565b6001915050620002f5565b60ff8411156200029d576200029d62000321565b50506001821b620002f5565b5060208310610133831016604e8410600b8410161715620002ce575081810a620002f5565b620002da8383620001e4565b8060001904821115620002f157620002f162000321565b0290505b92915050565b600060ff821660ff84168082101562000318576200031862000321565b90039392505050565b634e487b7160e01b600052601160045260246000fd5b615fe580620003476000396000f3fe6080604052600436106101025760003560e01c8063695def4c11610095578063c34a6dad11610064578063c34a6dad1461050a578063d087d2881461052a578063d87458a314610551578063e4e5b25814610571578063f23a6e611461059157600080fd5b8063695def4c1461048b578063a17027e1146104af578063a4874d77146104d5578063bc197c81146104ea57600080fd5b80632293d3fb116100d15780632293d3fb1461038b5780632f1f7520146103b857806341a64878146103dd5780635a9b0b891461040557600080fd5b806301ffc9a7146102ad5780630d8e6e2c146102e2578063150b7a02146103045780631cf4ea051461033d57600080fd5b366102a857604080513481523360208201527fa26ab80e902f2055a125714fc6f2eb15df2a09c7fe39c7fc71204ffba72109db910160405180910390a16009546001600160a01b0316156101c6576004546009546001600160a01b0390811691161415610173576101716105b1565b005b6004546001600160a01b03163314156101be57670de0b6b3a76400003414156101a15761019e610686565b50005b6009546101b6906001600160a01b0316610722565b61019e610686565b6101716105b1565b670de0b6b3a764000034146101d757005b6004546001600160a01b031633146101eb57005b333014156101f557005b621275006008546102069190615cdb565b421015610264577fe58fb6bc612703a64f091af2ff6a6831eca838a0301129ab6879cab20d6d7c8c33621275006008546102409190615cdb565b604080516001600160a01b03909316835260208301919091520160405180910390a1005b6040513381527f0cbe1fea4becf04af2176bbef0c9c53d439d30a05a197aacc38bb4a2873222e39060200160405180910390a161029f610801565b61017157600080fd5b600080fd5b3480156102b957600080fd5b506102cd6102c8366004615594565b610890565b60405190151581526020015b60405180910390f35b3480156102ee57600080fd5b50604080516009815260006020820152016102d9565b34801561031057600080fd5b5061032461031f3660046151ba565b6108e2565b6040516001600160e01b031990911681526020016102d9565b34801561034957600080fd5b5061035d610358366004615539565b6109c6565b6040516102d99493929190938452602084019290925263ffffffff1660408301521515606082015260800190565b34801561039757600080fd5b506006546007546040805192835263ffffffff9091166020830152016102d9565b3480156103c457600080fd5b506103cd6109d1565b6040516102d99493929190615926565b3480156103e957600080fd5b506009546040516001600160a01b0390911681526020016102d9565b34801561041157600080fd5b506002546003546004546005546040805194855260ff808516602087015261010080860482169287019290925263ffffffff6201000086048116606088015266010000000000008604166080870152600160501b90940490931660a08501526001600160a01b0390911660c084015260e0830152016102d9565b34801561049757600080fd5b506104a06109dc565b6040516102d9939291906159f7565b3480156104bb57600080fd5b506104c4610cca565b6040516102d99594939291906158c5565b3480156104e157600080fd5b506102cd61116b565b3480156104f657600080fd5b50610324610505366004615100565b61127a565b34801561051657600080fd5b506101716105253660046152a3565b61138c565b34801561053657600080fd5b5061053f6116fe565b60405160ff90911681526020016102d9565b34801561055d57600080fd5b506104c461056c366004615539565b611751565b34801561057d57600080fd5b5061017161058c366004615569565b611abf565b34801561059d57600080fd5b506103246105ac36600461522a565b611bca565b6009546040516000916001600160a01b03169034908381818185875af1925050503d80600081146105fe576040519150601f19603f3d011682016040523d82523d6000602084013e610603565b606091505b505090508061064a5760405162461bcd60e51b815260206004820152600e60248201526d119bdc9dd85c990819985a5b195960921b60448201526064015b60405180910390fd5b604080513481523360208201527f6e8641fc34fdcf9d67683d1a8ced72ff01d27ff86ff3b1d338fa6165e496c73f91015b60405180910390a150565b6004546000906001600160a01b03166106c8576040517fc27dbdcf29e2a161f0420d399444129801e578bafe157fef0370098459e082bf90600090a150600090565b6004546001600160a01b03163014156106e15750600190565b6106e9610801565b61071c576040517fa3a244603d968c02ebd2017f990d4e077cf0381929976be2a0cb07076147a56f90600090a150600090565b50600190565b6004546001600160a01b0316156107695760405162461bcd60e51b815260206004820152600b60248201526a105b1c9958591e481cd95d60aa1b6044820152606401610641565b6001600160a01b0381163014156107b35760405162461bcd60e51b815260206004820152600e60248201526d21b0b73737ba1031329039b2b63360911b6044820152606401610641565b600480546001600160a01b0319166001600160a01b0383169081179091556040519081527f83c14e1947c5a639434d6195a6e9d85ab3471a5049c66e0aa46b71e2c0a06dde9060200161067b565b60045460405160009182916001600160a01b039091169047908381818185875af1925050503d8060008114610852576040519150601f19603f3d011682016040523d82523d6000602084013e610857565b606091505b50509050801561088b57600454600980546001600160a01b0319166001600160a01b03909216918217905561088b90611cae565b919050565b60006001600160e01b031982166301ffc9a760e01b14806108c157506001600160e01b0319821663f23a6e6160e01b145b806108dc57506001600160e01b03198216630a85bd0160e11b145b92915050565b60007feb7a68d5a205eea79480f44587fe8146ae15b7e92582967fd1b1b119c9b60efa60018087338a898989604051610922989796959493929190615bfb565b60405180910390a1600061093e6009546001600160a01b031690565b90506001600160a01b038116156109a5576109956001338784600189898080601f016020809104026020016040519081016040528093929190818152602001838380828437600092019190915250611d1592505050565b50630a85bd0160e11b90506109bd565b6109b160013387612092565b50630a85bd0160e11b90505b95945050505050565b600080600080600080fd5b606080606080600080fd5b606080606060006001805490506001600160401b03811115610a0e57634e487b7160e01b600052604160045260246000fd5b604051908082528060200260200182016040528015610a37578160200160208202803683370190505b506001549091506000906001600160401b03811115610a6657634e487b7160e01b600052604160045260246000fd5b604051908082528060200260200182016040528015610a8f578160200160208202803683370190505b506001549091506000906001600160401b03811115610abe57634e487b7160e01b600052604160045260246000fd5b604051908082528060200260200182016040528015610ae7578160200160208202803683370190505b50905060005b60015463ffffffff82161015610cbd5760018163ffffffff1681548110610b2457634e487b7160e01b600052603260045260246000fd5b6000918252602090912060029091020154845160ff90911690859063ffffffff8416908110610b6357634e487b7160e01b600052603260045260246000fd5b60200260200101906003811115610b8a57634e487b7160e01b600052602160045260246000fd5b90816003811115610bab57634e487b7160e01b600052602160045260246000fd5b8152505060018163ffffffff1681548110610bd657634e487b7160e01b600052603260045260246000fd5b906000526020600020906002020160000160019054906101000a90046001600160a01b0316838263ffffffff1681518110610c2157634e487b7160e01b600052603260045260246000fd5b60200260200101906001600160a01b031690816001600160a01b03168152505060018163ffffffff1681548110610c6857634e487b7160e01b600052603260045260246000fd5b906000526020600020906002020160010154828263ffffffff1681518110610ca057634e487b7160e01b600052603260045260246000fd5b602090810291909101015280610cb581615e24565b915050610aed565b5091959094509092509050565b60608060608060606000805b600d5463ffffffff82161015610d54576000600e6000600d8463ffffffff1681548110610d1357634e487b7160e01b600052603260045260246000fd5b906000526020600020015481526020019081526020016000209050808054905083610d3e9190615cf3565b9250508080610d4c90615e24565b915050610cd6565b5060008163ffffffff166001600160401b03811115610d8357634e487b7160e01b600052604160045260246000fd5b604051908082528060200260200182016040528015610dac578160200160208202803683370190505b50905060008263ffffffff166001600160401b03811115610ddd57634e487b7160e01b600052604160045260246000fd5b604051908082528060200260200182016040528015610e06578160200160208202803683370190505b50905060008363ffffffff166001600160401b03811115610e3757634e487b7160e01b600052604160045260246000fd5b604051908082528060200260200182016040528015610e60578160200160208202803683370190505b50905060008463ffffffff166001600160401b03811115610e9157634e487b7160e01b600052604160045260246000fd5b604051908082528060200260200182016040528015610eba578160200160208202803683370190505b50905060008563ffffffff166001600160401b03811115610eeb57634e487b7160e01b600052604160045260246000fd5b604051908082528060200260200182016040528015610f14578160200160208202803683370190505b5090506000805b600d5463ffffffff82161015611158576000600e6000600d8463ffffffff1681548110610f5857634e487b7160e01b600052603260045260246000fd5b90600052602060002001548152602001908152602001600020905060005b815463ffffffff82161015611143576000828263ffffffff1681548110610fad57634e487b7160e01b600052603260045260246000fd5b90600052602060002090600302019050600d8463ffffffff1681548110610fe457634e487b7160e01b600052603260045260246000fd5b90600052602060002001548a8663ffffffff168151811061101557634e487b7160e01b600052603260045260246000fd5b6020026020010181815250508060000154898663ffffffff168151811061104c57634e487b7160e01b600052603260045260246000fd5b6020026020010181815250508060010154888663ffffffff168151811061108357634e487b7160e01b600052603260045260246000fd5b60209081029190910101526002810154875163ffffffff9182169189919088169081106110c057634e487b7160e01b600052603260045260246000fd5b602002602001019063ffffffff16908163ffffffff16815250508060020160049054906101000a900460ff16868663ffffffff168151811061111257634e487b7160e01b600052603260045260246000fd5b911515602092830291909101909101528461112c81615e24565b95505050808061113b90615e24565b915050610f76565b5050808061115090615e24565b915050610f1b565b50949b939a509198509650945092505050565b60035460009063ffffffff66010000000000008204811691620100008104909116906111a09060ff6101009091041642615d1b565b6111aa9190615d69565b63ffffffff16116111e95760405162461bcd60e51b8152602060048201526009602482015268546f6f206561726c7960b81b6044820152606401610641565b6004546001600160a01b03166112345760405162461bcd60e51b815260206004820152601060248201526f149958dbdd995c9e481b9bdd081cd95d60821b6044820152606401610641565b61123c610801565b61071c5760405162461bcd60e51b815260206004820152600f60248201526e149958dbdd995c9e4819985a5b1959608a1b6044820152606401610641565b6000805b63ffffffff8116871115611376573063f23a6e618b8b8b8b63ffffffff87168181106112ba57634e487b7160e01b600052603260045260246000fd5b905060200201358a8a8763ffffffff168181106112e757634e487b7160e01b600052603260045260246000fd5b9050602002013589896040518763ffffffff1660e01b815260040161131196959493929190615810565b602060405180830381600087803b15801561132b57600080fd5b505af115801561133f573d6000803e3d6000fd5b505050506040513d601f19601f8201168201806040525081019061136391906155b0565b508061136e81615e24565b91505061127e565b5063bc197c8160e01b9998505050505050505050565b6009546001600160a01b03163314611494576113aa8c8c8c8c6123ba565b6003546113c690600190600160581b900463ffffffff16615d69565b63ffffffff168a63ffffffff16141561143357600688600a8111156113fb57634e487b7160e01b600052602160045260246000fd5b146114335760405162461bcd60e51b815260206004820152600860248201526714995cd95c9d995960c21b6044820152606401610641565b6000806114708e8e600081811061145a57634e487b7160e01b600052603260045260246000fd5b905060200201358d8d8d8d8d8d8d8d8d8d61269b565b915091506000611483838e848f8f612880565b905061149083828d612beb565b5050505b600088600a8111156114b657634e487b7160e01b600052602160045260246000fd5b14156114dc5780156114d1576114cc8282612d2c565b6116f0565b6114cc878787612092565b600188600a8111156114fe57634e487b7160e01b600052602160045260246000fd5b141561151f578015611515576114cc878787612e17565b6114cc828261345c565b600288600a81111561154157634e487b7160e01b600052602160045260246000fd5b141561158b576114cc878787878787878080601f016020809104026020016040519081016040528093929190818152602001838380828437600092019190915250611d1592505050565b600388600a8111156115ad57634e487b7160e01b600052602160045260246000fd5b14156115bd576114cc8282613547565b600488600a8111156115df57634e487b7160e01b600052602160045260246000fd5b14156115f5576115ef848461371d565b506116f0565b600688600a81111561161757634e487b7160e01b600052602160045260246000fd5b1415611625576115ef610686565b600588600a81111561164757634e487b7160e01b600052602160045260246000fd5b1415611656576114cc84610722565b600a88600a81111561167857634e487b7160e01b600052602160045260246000fd5b141561168c576115ef828285888a8961393f565b600988600a8111156116ae57634e487b7160e01b600052602160045260246000fd5b14156116bf576114cc848383613ab5565b600888600a8111156116e157634e487b7160e01b600052602160045260246000fd5b14156116f0576116f084613b41565b505050505050505050505050565b600354600090600b90829062010000810463ffffffff169061172890610100900460ff1642615d2f565b6117329190615d69565b63ffffffff16815260208101919091526040016000205460ff16919050565b6000818152600e6020526040812080546060928392839283928392916001600160401b0381111561179257634e487b7160e01b600052604160045260246000fd5b6040519080825280602002602001820160405280156117bb578160200160208202803683370190505b5082549091506000906001600160401b038111156117e957634e487b7160e01b600052604160045260246000fd5b604051908082528060200260200182016040528015611812578160200160208202803683370190505b5083549091506000906001600160401b0381111561184057634e487b7160e01b600052604160045260246000fd5b604051908082528060200260200182016040528015611869578160200160208202803683370190505b5084549091506000906001600160401b0381111561189757634e487b7160e01b600052604160045260246000fd5b6040519080825280602002602001820160405280156118c0578160200160208202803683370190505b5085549091506000906001600160401b038111156118ee57634e487b7160e01b600052604160045260246000fd5b604051908082528060200260200182016040528015611917578160200160208202803683370190505b50905060005b865463ffffffff82161015611aab576000878263ffffffff168154811061195457634e487b7160e01b600052603260045260246000fd5b906000526020600020906003020190508d878363ffffffff168151811061198b57634e487b7160e01b600052603260045260246000fd5b6020026020010181815250508060000154868363ffffffff16815181106119c257634e487b7160e01b600052603260045260246000fd5b6020026020010181815250508060010154858363ffffffff16815181106119f957634e487b7160e01b600052603260045260246000fd5b60209081029190910101526002810154845163ffffffff918216918691908516908110611a3657634e487b7160e01b600052603260045260246000fd5b602002602001019063ffffffff16908163ffffffff16815250508060020160049054906101000a900460ff16838363ffffffff1681518110611a8857634e487b7160e01b600052603260045260246000fd5b911515602092830291909101909101525080611aa381615e24565b91505061191d565b50939b929a50909850965090945092505050565b611ac7613ef2565b604080516080810182528381526020810183905263ffffffff42169181019190915260006060820152600d54607811611b2d5760405162461bcd60e51b8152602060048201526008602482015267546f6f206d616e7960c01b6044820152606401610641565b600d805460018181019092557fd7b6990105719101dabeb77144f2a3385c8033acd3af97e9423a695e81ad1eb5018590556000948552600e602090815260408087208054808501825590885296829020845160039098020196875590830151918601919091558101516002909401805460609092015115156401000000000264ffffffffff1990921663ffffffff90951694909417179092555050565b60007feb7a68d5a205eea79480f44587fe8146ae15b7e92582967fd1b1b119c9b60efa60028588338b8a8989604051611c0a989796959493929190615bfb565b60405180910390a16000611c266009546001600160a01b031690565b90506001600160a01b03811615611c8c57611c7c60023388848989898080601f016020809104026020016040519081016040528093929190818152602001838380828437600092019190915250611d1592505050565b5063f23a6e6160e01b9050611ca4565b611c9860023388612092565b5063f23a6e6160e01b90505b9695505050505050565b60005b60015463ffffffff82161015611d1157611cff8260018363ffffffff1681548110611cec57634e487b7160e01b600052603260045260246000fd5b90600052602060002090600202016141c6565b80611d0981615e24565b915050611cb1565b5050565b6000866003811115611d3757634e487b7160e01b600052602160045260246000fd5b1415611eef5760405163a9059cbb60e01b81526001600160a01b0384811660048301526024820184905286169063a9059cbb90604401602060405180830381600087803b158015611d8757600080fd5b505af1925050508015611db7575060408051601f3d908101601f19168201909252611db491810190615519565b60015b611e7057611dc3615ee3565b806308c379a01415611e2a5750611dd8615efb565b80611de35750611e2c565b7fb2c309e26e7b2de22ddccb000bdb486012c32f2d701ded2884bad91974065cba878787878786604051611e1c96959493929190615b3a565b60405180910390a15061208a565b505b7fb2c309e26e7b2de22ddccb000bdb486012c32f2d701ded2884bad91974065cba8686868686604051611e63959493929190615b81565b60405180910390a161208a565b8015611eb857611e81878787612092565b7f1b7af2671454aac8f59a0b294dd30d582e2df89a6efef446afd125b268795b318787878787604051611e1c959493929190615aff565b7f75a36803468aca74d964b22522480470a7a3f2121daa5994c2a937aec85d23298787878787604051611e1c959493929190615aff565b6001866003811115611f1157634e487b7160e01b600052602160045260246000fd5b1415611fb757604051635c46a7ef60e11b81526001600160a01b0386169063b88d4fde90611f499030908790899087906004016157dd565b600060405180830381600087803b158015611f6357600080fd5b505af1925050508015611f74575060015b611f8057611dc3615ee3565b7f1b7af2671454aac8f59a0b294dd30d582e2df89a6efef446afd125b268795b318686868686604051611e63959493929190615aff565b6002866003811115611fd957634e487b7160e01b600052602160045260246000fd5b141561208a57604051637921219560e11b81526001600160a01b0386169063f242432a906120139030908790899088908890600401615857565b600060405180830381600087803b15801561202d57600080fd5b505af192505050801561203e575060015b61204a57611dc3615ee3565b7f1b7af2671454aac8f59a0b294dd30d582e2df89a6efef446afd125b268795b318686868686604051612081959493929190615aff565b60405180910390a15b505050505050565b60008360038111156120b457634e487b7160e01b600052602160045260246000fd5b604080516020810192909252606085811b6001600160601b03191691830191909152810183905260800160408051601f1981840301815291815281516020928301206000818152928390529120549091501561228d5760005b60008281526020819052604090205463ffffffff8216101561228b576000828152602081905260408120805463ffffffff841690811061215d57634e487b7160e01b600052603260045260246000fd5b9060005260206000200154905085600381111561218a57634e487b7160e01b600052602160045260246000fd5b600182815481106121ab57634e487b7160e01b600052603260045260246000fd5b600091825260209091206002909102015460ff1660038111156121de57634e487b7160e01b600052602160045260246000fd5b146121e95750612279565b836001828154811061220b57634e487b7160e01b600052603260045260246000fd5b906000526020600020906002020160010154146122285750612279565b846001600160a01b03166001828154811061225357634e487b7160e01b600052603260045260246000fd5b600091825260209091206002909102015461010090046001600160a01b03161461208a57505b8061228381615e24565b91505061210d565b505b6000818152602081815260408083206001805482548083018455928652939094200191909155805160608101909152808660038111156122dd57634e487b7160e01b600052602160045260246000fd5b81526001600160a01b038616602080830191909152604090910185905282546001818101855560009485529190932082516002909402018054929390929091839160ff19169083600381111561234357634e487b7160e01b600052602160045260246000fd5b0217905550602082015181546001600160a01b0390911661010002610100600160a81b0319909116178155604091820151600190910155517f7e1890e95e59ca252ad98a9bbeeb8c7f6ce5269f06ecb4f0cb5ebcee5770c2a2906123ac90869086908690615ad7565b60405180910390a150505050565b6003546123cc9060019060ff16615d8e565b60ff16831461240d5760405162461bcd60e51b815260206004820152600d60248201526c426164206e65696768626f727360981b6044820152606401610641565b600060028260405160200161242491815260200190565b60408051601f198184030181529082905261243e91615795565b602060405180830381855afa15801561245b573d6000803e3d6000fd5b5050506040513d601f19601f8201168201806040525081019061247e9190615551565b60035490915061249d90600190600160581b900463ffffffff16615d69565b63ffffffff168363ffffffff1614156124b35750805b60005b6003546124c89060019060ff16615d8e565b60ff168160ff16101561264c576001808516141561258857600286868360ff1681811061250557634e487b7160e01b600052603260045260246000fd5b9050602002013583604051602001612527929190918252602082015260400190565b60408051601f198184030181529082905261254191615795565b602060405180830381855afa15801561255e573d6000803e3d6000fd5b5050506040513d601f19601f820116820180604052508101906125819190615551565b915061262c565b60028287878460ff168181106125ae57634e487b7160e01b600052603260045260246000fd5b905060200201356040516020016125cf929190918252602082015260400190565b60408051601f19818403018152908290526125e991615795565b602060405180830381855afa158015612606573d6000803e3d6000fd5b5050506040513d601f19601f820116820180604052508101906126299190615551565b91505b60018463ffffffff16901c9350808061264490615e48565b9150506124b6565b5080600254146126935760405162461bcd60e51b8152602060048201526012602482015271141c9bdbd9881a5cc81a5b98dbdc9c9958dd60721b6044820152606401610641565b505b50505050565b60008060008d8d60e01b6001600160e01b0319168d6040516020016126d3939291909283526020830191909152604082015260600190565b60408051601f1981840301815291905280516020909101209050600060048c600a81111561271157634e487b7160e01b600052602160045260246000fd5b1415612754576040805160608a811b6001600160601b0319166020830152918101899052015b60405160208183030381529060405280519060200120905061286c565b60068c600a81111561277657634e487b7160e01b600052602160045260246000fd5b141561279b57858560405161278c929190615785565b6040518091039020905061286c565b60058c600a8111156127bd57634e487b7160e01b600052602160045260246000fd5b14156127e157604080516001600160601b031960608b901b16602082015201612737565b8b600a81111561280157634e487b7160e01b600052602160045260246000fd5b8b600381111561282157634e487b7160e01b600052602160045260246000fd5b6040516128539291906001600160601b031960608f811b8216928f92918f901b909116908d908d908d90602001615748565b6040516020818303038152906040528051906020012090505b909e909d509b505050505050505050505050565b600354600090819061289c90600160501b900460ff1687615d2f565b6003549091506000906128b990600160501b900460ff1688615e68565b6000898152600e6020526040902080549192509061290b5760405162461bcd60e51b815260206004820152600f60248201526e139bc818dbdb5b5a5d08199bdd5b99608a1b6044820152606401610641565b60005b815463ffffffff82161015612bb6576000828263ffffffff168154811061294557634e487b7160e01b600052603260045260246000fd5b906000526020600020906003020190506000816000015489604051602001612977929190918252602082015260400190565b604051602081830303815290604052805190602001209050808260010154146129a1575050612ba4565b81548a146129e25760405162461bcd60e51b815260206004820152600e60248201526d0a0c2e4c2da40dad2e6dac2e8c6d60931b6044820152606401610641565b600688600a811115612a0457634e487b7160e01b600052602160045260246000fd5b14612aed57600354600283015460009163ffffffff620100008204811692612a369260ff610100909104169116615d2f565b612a409190615d69565b90508663ffffffff168163ffffffff1614612a8d5760405162461bcd60e51b815260206004820152600d60248201526c0a8d2daca40dad2e6dac2e8c6d609b1b6044820152606401610641565b63ffffffff81166000908152600b602052604090205460ff908116908716811115612aea5760405162461bcd60e51b815260206004820152600d60248201526c4e6f6e636520746f6f206c6f7760981b6044820152606401610641565b50505b6002820154640100000000900460ff1615612b405760405162461bcd60e51b8152602060048201526013602482015272436f6d6d697420616c726561647920646f6e6560681b6044820152606401610641565b6002820154603c90612b589063ffffffff1642615d69565b63ffffffff1610612b965760405162461bcd60e51b8152602060048201526008602482015267546f6f206c61746560c01b6044820152606401610641565b8296505050505050506109bd565b80612bae81615e24565b91505061290e565b5060405162461bcd60e51b8152602060048201526009602482015268139bc818dbdb5b5a5d60ba1b6044820152606401610641565b6000838152600e602052604090208054612c1557634e487b7160e01b600052600160045260246000fd5b805463ffffffff841610612c3957634e487b7160e01b600052600160045260246000fd5b6000818463ffffffff1681548110612c6157634e487b7160e01b600052603260045260246000fd5b60009182526020909120600390910201600281015490915063ffffffff16612c9957634e487b7160e01b600052600160045260246000fd5b600683600a811115612cbb57634e487b7160e01b600052602160045260246000fd5b14612d0c57600354600282015460009163ffffffff620100008204811692612ced9260ff610100909104169116615d2f565b612cf79190615d69565b9050612d028161426b565b612d0a614311565b505b600201805464ff0000000019166401000000001790555050426008555050565b60008080612d3c84860186615388565b92509250925060005b83518163ffffffff16101561208a57612e05848263ffffffff1681518110612d7d57634e487b7160e01b600052603260045260246000fd5b60200260200101516003811115612da457634e487b7160e01b600052602160045260246000fd5b848363ffffffff1681518110612dca57634e487b7160e01b600052603260045260246000fd5b6020026020010151848463ffffffff1681518110612df857634e487b7160e01b600052603260045260246000fd5b6020026020010151612092565b80612e0f81615e24565b915050612d45565b6000836003811115612e3957634e487b7160e01b600052602160045260246000fd5b604080516020810192909252606085811b6001600160601b03191691830191909152810183905260800160408051601f198184030181529181528151602092830120600081815292839052912054909150612e945750505050565b60005b60008281526020819052604090205463ffffffff82161015613428576000828152602081905260408120805463ffffffff8416908110612ee757634e487b7160e01b600052603260045260246000fd5b90600052602060002001549050856003811115612f1457634e487b7160e01b600052602160045260246000fd5b60018281548110612f3557634e487b7160e01b600052603260045260246000fd5b600091825260209091206002909102015460ff166003811115612f6857634e487b7160e01b600052602160045260246000fd5b14612f735750613416565b8360018281548110612f9557634e487b7160e01b600052603260045260246000fd5b90600052602060002090600202016001015414612fb25750613416565b846001600160a01b031660018281548110612fdd57634e487b7160e01b600052603260045260246000fd5b600091825260209091206002909102015461010090046001600160a01b0316146130075750613416565b6001805460009161301791615d52565b90506001818154811061303a57634e487b7160e01b600052603260045260246000fd5b90600052602060002090600202016001838154811061306957634e487b7160e01b600052603260045260246000fd5b6000918252602090912082546002909202018054909160ff1690829060ff191660018360038111156130ab57634e487b7160e01b600052602160045260246000fd5b021790555081548154610100600160a81b031916610100918290046001600160a01b0316909102178155600191820154908201558054600091908490811061310357634e487b7160e01b600052603260045260246000fd5b600091825260209091206002909102015460ff16600381111561313657634e487b7160e01b600052602160045260246000fd5b600180548590811061315857634e487b7160e01b600052603260045260246000fd5b906000526020600020906002020160000160019054906101000a90046001600160a01b031660601b6bffffffffffffffffffffffff1916600185815481106131b057634e487b7160e01b600052603260045260246000fd5b90600052602060002090600202016001015460001b6040516020016131e8939291909283526020830191909152604082015260600190565b604051602081830303815290604052805190602001209050600180548061321f57634e487b7160e01b600052603160045260246000fd5b60008281526020812060026000199093019283020180546001600160a81b031916815560010181905591555b60008281526020819052604090205463ffffffff8216101561330757826000808481526020019081526020016000208263ffffffff168154811061329f57634e487b7160e01b600052603260045260246000fd5b906000526020600020015414156132f557836000808481526020019081526020016000208263ffffffff16815481106132e857634e487b7160e01b600052603260045260246000fd5b6000918252602090912001555b806132ff81615e24565b91505061324b565b506000858152602081905260409020805461332490600190615d52565b8154811061334257634e487b7160e01b600052603260045260246000fd5b9060005260206000200154600080878152602001908152602001600020848154811061337e57634e487b7160e01b600052603260045260246000fd5b90600052602060002001819055506000808681526020019081526020016000208054806133bb57634e487b7160e01b600052603160045260246000fd5b600190038181906000526020600020016000905590557f166bc904e3b7f8699e175923a2635944dd9ac0dc817927aac60d854d23a82b9b88888860405161340493929190615ad7565b60405180910390a15050505050505050565b8061342081615e24565b915050612e97565b507ffc773cf3883ef83133327fbc62fe0a7c3c96add34a1781cae66ba5de7efa3f5f8484846040516123ac93929190615ad7565b6000808061346c84860186615388565b92509250925060005b83518163ffffffff16101561208a57613535848263ffffffff16815181106134ad57634e487b7160e01b600052603260045260246000fd5b602002602001015160038111156134d457634e487b7160e01b600052602160045260246000fd5b848363ffffffff16815181106134fa57634e487b7160e01b600052603260045260246000fd5b6020026020010151848463ffffffff168151811061352857634e487b7160e01b600052603260045260246000fd5b6020026020010151612e17565b8061353f81615e24565b915050613475565b6000808061355784860186615388565b925092509250600083516001600160401b0381111561358657634e487b7160e01b600052604160045260246000fd5b6040519080825280602002602001820160405280156135d157816020015b60408051606081018252600080825260208083018290529282015282526000199092019101816135a45790505b50905060005b84518163ffffffff161015613713576040518060600160405280868363ffffffff168151811061361757634e487b7160e01b600052603260045260246000fd5b6020026020010151600381111561363e57634e487b7160e01b600052602160045260246000fd5b600381111561365d57634e487b7160e01b600052602160045260246000fd5b8152602001858363ffffffff168151811061368857634e487b7160e01b600052603260045260246000fd5b60200260200101516001600160a01b03168152602001848363ffffffff16815181106136c457634e487b7160e01b600052603260045260246000fd5b6020026020010151815250828263ffffffff16815181106136f557634e487b7160e01b600052603260045260246000fd5b6020026020010181905250808061370b90615e24565b9150506135d7565b5061208a816145ad565b60008061372d6201518042615d1b565b60075490915063ffffffff908116908216111561375f5760006006556007805463ffffffff191663ffffffff83161790555b600554836006546137709190615cdb565b11156137d5576005546006546040805186815260208101939093528201526001600160a01b03851660608201527f705f289c5579ebb63d8c90ed39a42a76ded07641efe4f445a9a97d1e95c75c68906080015b60405180910390a160009150506108dc565b8247101561382557604080518481524760208201526001600160a01b038616918101919091527fd90084f259c3c1dbd378c6c23cff1383005852e0d9829773e15afdbaf15fb7d8906060016137c3565b82600660008282546138379190615cdb565b90915550506040516000906001600160a01b0386169085908381818185875af1925050503d8060008114613887576040519150601f19603f3d011682016040523d82523d6000602084013e61388c565b606091505b50509050806138f35783600660008282546138a79190615d52565b90915550506040516001600160a01b03861681527f2c7068ca7f82b1436494678e109b299bc751ccbb88d560f7c011b48dfdb2117b9060200160405180910390a16000925050506108dc565b604080518581526001600160a01b03871660208201527f8f4636f285a9a17fe3479ab47bb7a5deadaf9b2295a16c3965f55fa48e542d1f910160405180910390a1506001949350505050565b6000808080613950898b018b615064565b925092509250600081905060408151118061396e57508760ff168151105b156139b9577f33557e0aaadebaec256dc2a717f4ebff50c8eb6bc8d70860d679d8151231b06e82896040516139a4929190615c6c565b60405180910390a16000945050505050611ca4565b60008860ff166001600160401b038111156139e457634e487b7160e01b600052604160045260246000fd5b6040519080825280601f01601f191660200182016040528015613a0e576020820181803683370190505b50905060005b8960ff16811015613a9357828181518110613a3f57634e487b7160e01b600052603260045260246000fd5b602001015160f81c60f81b828281518110613a6a57634e487b7160e01b600052603260045260246000fd5b60200101906001600160f81b031916908160001a90535080613a8b81615e09565b915050613a14565b5080613aa489878a8e858a8a614947565b9d9c50505050505050505050505050565b6000613ac382840184615476565b905060005b81518163ffffffff16101561269357613b2f856001848463ffffffff1681518110613b0357634e487b7160e01b600052603260045260246000fd5b602002602001015163ffffffff1681548110611cec57634e487b7160e01b600052603260045260246000fd5b80613b3981615e24565b915050613ac8565b6009546001600160a01b031615613b8b576040516001600160a01b03821681527f30e39ae08ad33094d62d7c365acaf3ad9d0fcd9e149f2c269d225838032dafd99060200161067b565b6009546001600160a01b0316301415613bd7576040516001600160a01b03821681527f81a6b37eeab97da1bb7ac3b3e34fcee45f445c8de943999917a6fe95ed7fa7879060200161067b565b600980546001600160a01b0319166001600160a01b0383169081179091556040519081527fa706c3d6ff18ff7dfc1ee0a34bc34fe432c200d8d475bff3ed963eb31ae194689060200160405180910390a16004546001600160a01b0316613c4d57600954613c4d906001600160a01b0316610722565b60005b600a5463ffffffff82161015611d1157600a8163ffffffff1681548110613c8757634e487b7160e01b600052603260045260246000fd5b600091825260208083209190910154604080518481528082018252928301848152905163c34a6dad60e01b81526001600160a01b039092169363c34a6dad93613ce49390928291600891600391849182918d918391600401615973565b600060405180830381600087803b158015613cfe57600080fd5b505af1925050508015613d0f575060015b613e5657613d1b615ee3565b806308c379a01415613db75750613d30615efb565b80613d3b5750613db9565b7f715c45452623d11a5ed1d0c584f847a04b7c6976e89dbc7d688d04111c6360a483600a8463ffffffff1681548110613d8457634e487b7160e01b600052603260045260246000fd5b600091825260209091200154604051613da992916001600160a01b03169085906157b1565b60405180910390a150613ee0565b505b7f715c45452623d11a5ed1d0c584f847a04b7c6976e89dbc7d688d04111c6360a482600a8363ffffffff1681548110613e0257634e487b7160e01b600052603260045260246000fd5b600091825260209091200154604051613e4992916001600160a01b0316906001600160a01b0392831681529116602082015260606040820181905260009082015260800190565b60405180910390a1613ee0565b7f8a4422a136194cc130dcd4364dcf372109adf78d6c712f2637dcb9054651f3c882600a8363ffffffff1681548110613e9f57634e487b7160e01b600052603260045260246000fd5b600091825260209091200154604051613ed792916001600160a01b0316906001600160a01b0392831681529116602082015260400190565b60405180910390a15b80613eea81615e24565b915050613c50565b6000425b600d5463ffffffff83161015613fc8576000600d8363ffffffff1681548110613f2f57634e487b7160e01b600052603260045260246000fd5b6000918252602080832090910154808352600e9091526040909120805491925090613f5b575050613fb6565b600081600081548110613f7e57634e487b7160e01b600052603260045260246000fd5b6000918252602090912060026003909202019081015490915063ffffffff603b1986018116911610613fb257505050613fc8565b5050505b81613fc081615e24565b925050613ef6565b63ffffffff8216613fd7575050565b60005b8263ffffffff168163ffffffff1610156140d3576000600d8263ffffffff168154811061401757634e487b7160e01b600052603260045260246000fd5b6000918252602080832090910154808352600e90915260408220909250905b815463ffffffff821610156140a657818163ffffffff168154811061406b57634e487b7160e01b600052603260045260246000fd5b6000918252602082206003909102018181556001810191909155600201805464ffffffffff191690558061409e81615e24565b915050614036565b506000828152600e602052604081206140be91614d90565b505080806140cb90615e24565b915050613fda565b50600d54825b8163ffffffff168163ffffffff16101561416657600d8163ffffffff168154811061411457634e487b7160e01b600052603260045260246000fd5b9060005260206000200154600d85830363ffffffff168154811061414857634e487b7160e01b600052603260045260246000fd5b6000918252602090912001558061415e81615e24565b9150506140d9565b5060005b8363ffffffff168163ffffffff16101561269557600d80548061419d57634e487b7160e01b600052603160045260246000fd5b6001900381819060005260206000200160009055905580806141be90615e24565b91505061416a565b60006141d182614b59565b9050801561426657815460018301546040805160208101909152600081526142119260ff8116926101009091046001600160a01b03169187908690611d15565b815460018301546040517ff55f4f66ca397ce834b2245859167c6912466e110505839852dbb803c0c046539261425d9260ff8216926101009092046001600160a01b0316918690615bc9565b60405180910390a15b505050565b63ffffffff81166000908152600b602052604090205460ff16806142e457600c80546001810182556000919091527fdf6966c971051c3d54ec59162606531493a51404a002842f56009d7e5cf4a8c76008820401805460079092166004026101000a63ffffffff81810219909316928516029190911790555b63ffffffff919091166000908152600b60205260409020805460ff1916600190920160ff16919091179055565b600061431e603c42615d69565b60035490915060009061433990610100900460ff1683615d2f565b60035490915060009063ffffffff6201000090910481169083161115614375576003546143729062010000900463ffffffff1683615d69565b90505b600c546000906001600160401b038111156143a057634e487b7160e01b600052604160045260246000fd5b6040519080825280602002602001820160405280156143c9578160200160208202803683370190505b5090506000805b600c5460ff821610156144ac576000600c8260ff168154811061440357634e487b7160e01b600052603260045260246000fd5b6000918252602090912060088204015460079091166004026101000a900463ffffffff908116915085168110156144565763ffffffff81166000908152600b60205260409020805460ff19169055614499565b80848463ffffffff168151811061447d57634e487b7160e01b600052603260045260246000fd5b63ffffffff909216602092830291909101909101526001909201915b50806144a481615e48565b9150506143d0565b5060008163ffffffff166001600160401b038111156144db57634e487b7160e01b600052604160045260246000fd5b604051908082528060200260200182016040528015614504578160200160208202803683370190505b50905060005b8263ffffffff168160ff16101561459057838160ff168151811061453e57634e487b7160e01b600052603260045260246000fd5b6020026020010151828260ff168151811061456957634e487b7160e01b600052603260045260246000fd5b63ffffffff909216602092830291909101909101528061458881615e48565b91505061450a565b5080516145a490600c906020840190614db4565b50505050505050565b60005b60015463ffffffff8216101561472057600060018263ffffffff16815481106145e957634e487b7160e01b600052603260045260246000fd5b600091825260208220600290910201546001805460ff90921693509063ffffffff851690811061462957634e487b7160e01b600052603260045260246000fd5b906000526020600020906002020160000160019054906101000a90046001600160a01b03169050600060018463ffffffff168154811061467957634e487b7160e01b600052603260045260246000fd5b906000526020600020906002020160010154905060008360038111156146af57634e487b7160e01b600052602160045260246000fd5b604080516020810192909252606085811b6001600160601b03191691830191909152810183905260800160408051601f19818403018152918152815160209283012060008181529283905290822090925061470991614e63565b50505050808061471890615e24565b9150506145b0565b5061472d60016000614e81565b60005b81518163ffffffff161015611d11576000828263ffffffff168151811061476757634e487b7160e01b600052603260045260246000fd5b60200260200101516000015190506000838363ffffffff168151811061479d57634e487b7160e01b600052603260045260246000fd5b60200260200101516020015190506000848463ffffffff16815181106147d357634e487b7160e01b600052603260045260246000fd5b6020026020010151604001519050600083600381111561480357634e487b7160e01b600052602160045260246000fd5b604080516020810192909252606085811b6001600160601b0319169183019190915281018390526080016040516020818303038152906040528051906020012090506001604051806060016040528086600381111561487257634e487b7160e01b600052602160045260246000fd5b81526001600160a01b038616602080830191909152604090910185905282546001818101855560009485529190932082516002909402018054929390929091839160ff1916908360038111156148d857634e487b7160e01b600052602160045260246000fd5b021790555060208281015182546001600160a01b0390911661010002610100600160a81b03199091161782556040928301516001928301556000938452838152918320805491820181558352912063ffffffff86169101555082915061493f905081615e24565b915050614730565b6000806000896001600160a01b0316878688306301e133808d604051602401614974959493929190615a88565b60408051601f198184030181529181526020820180516001600160e01b031663181d0cbd60e31b179052516149a99190615795565b60006040518083038185875af1925050503d80600081146149e6576040519150601f19603f3d011682016040523d82523d6000602084013e6149eb565b606091505b509150915081614a45576000614a0082614d56565b90507fedac64a16d9bb416358bfe2ceb65e292a47450bee7a8d453977a06396192ae7781604051614a319190615c59565b60405180910390a160009350505050614b4e565b7fe2146ad4f8d1f0486696cb31b3c3267fb5da9516562e0aca2973bb351685ffa78a8787604051614a7893929190615891565b60405180910390a160405163c47f002760e01b81526000906001600160a01b038b169063c47f002790614aaf908890600401615c59565b602060405180830381600087803b158015614ac957600080fd5b505af1158015614add573d6000803e3d6000fd5b505050506040513d601f19601f82011682018060405250810190614b019190615551565b604080516001600160a01b038d168152602081018390529192507f57053374860071bec1b41dd246b8c5f40a4f7a1134463286eb82058abee195e5910160405180910390a1600193505050505b979650505050505050565b600080825460ff166003811115614b8057634e487b7160e01b600052602160045260246000fd5b1415614c055781546040516370a0823160e01b81523060048201526101009091046001600160a01b0316906370a08231906024015b60206040518083038186803b158015614bcd57600080fd5b505afa158015614be1573d6000803e3d6000fd5b505050506040513d601f19601f820116820180604052508101906108dc9190615551565b6001825460ff166003811115614c2b57634e487b7160e01b600052602160045260246000fd5b1415614ce457815460018301546040516331a9108f60e11b815260009230926101009091046001600160a01b031691636352211e91614c709160040190815260200190565b60206040518083038186803b158015614c8857600080fd5b505afa158015614c9c573d6000803e3d6000fd5b505050506040513d601f19601f82011682018060405250810190614cc09190615041565b6001600160a01b03161490508015614cdb5750600192915050565b50600092915050565b6002825460ff166003811115614d0a57634e487b7160e01b600052602160045260246000fd5b1415614d4e5781546001830154604051627eeac760e11b815230600482015260248101919091526101009091046001600160a01b03169062fdd58e90604401614bb5565b506000919050565b6060604482511015614d7657505060408051602081019091526000815290565b600482019150818060200190518101906108dc91906155cc565b5080546000825560030290600052602060002090810190614db19190614ea2565b50565b82805482825590600052602060002090600701600890048101928215614e535791602002820160005b83821115614e2157835183826101000a81548163ffffffff021916908363ffffffff1602179055509260200192600401602081600301049283019260010302614ddd565b8015614e515782816101000a81549063ffffffff0219169055600401602081600301049283019260010302614e21565b505b50614e5f929150614ecd565b5090565b5080546000825590600052602060002090810190614db19190614ecd565b5080546000825560020290600052602060002090810190614db19190614ee2565b5b80821115614e5f576000808255600182015560028101805464ffffffffff19169055600301614ea3565b5b80821115614e5f5760008155600101614ece565b5b80821115614e5f5780546001600160a81b031916815560006001820155600201614ee3565b803561088b81615f84565b60008083601f840112614f24578182fd5b5081356001600160401b03811115614f3a578182fd5b6020830191508360208260051b8501011115614f5557600080fd5b9250929050565b600082601f830112614f6c578081fd5b81356020614f7982615c91565b604051614f868282615ddd565b8381528281019150858301600585901b87018401881015614fa5578586fd5b855b85811015614fc357813584529284019290840190600101614fa7565b5090979650505050505050565b60008083601f840112614fe1578182fd5b5081356001600160401b03811115614ff7578182fd5b602083019150836020828501011115614f5557600080fd5b8035600b811061088b57600080fd5b80356004811061088b57600080fd5b803563ffffffff8116811461088b57600080fd5b600060208284031215615052578081fd5b815161505d81615f84565b9392505050565b600080600060608486031215615078578182fd5b833561508381615f84565b92506020840135915060408401356001600160401b038111156150a4578182fd5b8401601f810186136150b4578182fd5b80356150bf81615cb4565b6040516150cc8282615ddd565b8281528860208486010111156150e0578485fd5b826020850160208301378460208483010152809450505050509250925092565b60008060008060008060008060a0898b03121561511b578586fd5b883561512681615f84565b9750602089013561513681615f84565b965060408901356001600160401b0380821115615151578788fd5b61515d8c838d01614f13565b909850965060608b0135915080821115615175578586fd5b6151818c838d01614f13565b909650945060808b0135915080821115615199578384fd5b506151a68b828c01614fd0565b999c989b5096995094979396929594505050565b6000806000806000608086880312156151d1578283fd5b85356151dc81615f84565b945060208601356151ec81615f84565b93506040860135925060608601356001600160401b0381111561520d578182fd5b61521988828901614fd0565b969995985093965092949392505050565b60008060008060008060a08789031215615242578384fd5b863561524d81615f84565b9550602087013561525d81615f84565b9450604087013593506060870135925060808701356001600160401b03811115615285578283fd5b61529189828a01614fd0565b979a9699509497509295939492505050565b6000806000806000806000806000806000806101408d8f0312156152c5578586fd5b6001600160401b038d3511156152d9578586fd5b6152e68e8e358f01614f13565b909c509a506152f760208e0161502d565b995060408d0135985061530c60608e0161500f565b975061531a60808e0161501e565b965061532860a08e01614f08565b955060c08d0135945061533d60e08e01614f08565b93506101008d013592506001600160401b036101208e0135111561535f578081fd5b6153708e6101208f01358f01614fd0565b81935080925050509295989b509295989b509295989b565b60008060006060848603121561539c578081fd5b83356001600160401b03808211156153b2578283fd5b6153be87838801614f5c565b94506020915081860135818111156153d4578384fd5b8601601f810188136153e4578384fd5b80356153ef81615c91565b6040516153fc8282615ddd565b8281528581019150838601600584901b850187018c101561541b578788fd5b8794505b8385101561544657803561543281615f84565b83526001949094019391860191860161541f565b509650505050604086013591508082111561545f578283fd5b5061546c86828701614f5c565b9150509250925092565b60006020808385031215615488578182fd5b82356001600160401b0381111561549d578283fd5b8301601f810185136154ad578283fd5b80356154b881615c91565b6040516154c58282615ddd565b8281528481019150838501600584901b850186018910156154e4578687fd5b8694505b8385101561550d576154f98161502d565b8352600194909401939185019185016154e8565b50979650505050505050565b60006020828403121561552a578081fd5b8151801515811461505d578182fd5b60006020828403121561554a578081fd5b5035919050565b600060208284031215615562578081fd5b5051919050565b60008060006060848603121561557d578081fd5b505081359360208301359350604090920135919050565b6000602082840312156155a5578081fd5b813561505d81615f99565b6000602082840312156155c1578081fd5b815161505d81615f99565b6000602082840312156155dd578081fd5b81516001600160401b038111156155f2578182fd5b8201601f81018413615602578182fd5b805161560d81615cb4565b60405161561a8282615ddd565b82815286602084860101111561562e578485fd5b611ca4836020830160208701615db1565b6000815180845260208085019450808401835b83811015615670578151151587529582019590820190600101615652565b509495945050505050565b6000815180845260208085019450808401835b838110156156705781518752958201959082019060010161568e565b6000815180845260208085019450808401835b8381101561567057815163ffffffff16875295820195908201906001016156bd565b81835281816020850137506000828201602090810191909152601f909101601f19169091010190565b60008151808452615720816020860160208601615db1565b601f01601f19169290920160200192915050565b6004811061574457615744615eb7565b9052565b8881528760208201528660408201528560608201528460808201528360a0820152818360c08301376000910160c001908152979650505050505050565b8183823760009101908152919050565b600082516157a7818460208701615db1565b9190910192915050565b6001600160a01b038481168252831660208201526060604082018190526000906109bd90830184615708565b6001600160a01b0385811682528416602082015260408101839052608060608201819052600090611ca490830184615708565b6001600160a01b03878116825286166020820152604081018590526060810184905260a06080820181905260009061584b90830184866156df565b98975050505050505050565b6001600160a01b03868116825285166020820152604081018490526060810183905260a060808201819052600090614b4e90830184615708565b6001600160a01b03841681526060602082018190526000906158b590830185615708565b9050826040830152949350505050565b60a0815260006158d860a083018861567b565b82810360208401526158ea818861567b565b905082810360408401526158fe818761567b565b9050828103606084015261591281866156aa565b9050828103608084015261584b818561563f565b608081526000615939608083018761567b565b828103602084015261594b818761567b565b9050828103604084015261595f81866156aa565b90508281036060840152614b4e818561563f565b60006101408083526159878184018e61567b565b905063ffffffff8c1660208401528a6040840152600b8a106159ab576159ab615eb7565b8960608401526159be608084018a615734565b6001600160a01b0388811660a085015260c08401889052861660e08401526101008301859052828103610120840152613aa48185615708565b606080825284519082018190526000906020906080840190828801845b82811015615a3757615a27848351615734565b9284019290840190600101615a14565b50505083810382850152855180825286830191830190845b81811015615a745783516001600160a01b031683529284019291840191600101615a4f565b5050848103604086015261584b818761567b565b85815260c060208201526000615aa160c0830187615708565b6001600160a01b039586166040840152606083019490945281840360808301528352921660a09092019190915260200192915050565b60608101615ae58286615734565b6001600160a01b0393909316602082015260400152919050565b60a08101615b0d8288615734565b6001600160a01b039586166020830152604082019490945291909316606082015260800191909152919050565b615b448188615734565b6001600160a01b03868116602083015260408201869052841660608201526080810183905260c060a0820181905260009061584b90830184615708565b615b8b8187615734565b6001600160a01b039485166020820152604081019390935292166060820152608081019190915260c060a0820181905260009082015260e001919050565b60808101615bd78287615734565b6001600160a01b039490941660208201526040810192909252606090910152919050565b615c05818a615734565b602081018890526001600160a01b03878116604083015286811660608301528516608082015260a0810184905260e060c08201819052600090615c4b90830184866156df565b9a9950505050505050505050565b60208152600061505d6020830184615708565b604081526000615c7f6040830185615708565b905060ff831660208301529392505050565b60006001600160401b03821115615caa57615caa615ecd565b5060051b60200190565b60006001600160401b03821115615ccd57615ccd615ecd565b50601f01601f191660200190565b60008219821115615cee57615cee615e8b565b500190565b600063ffffffff808316818516808303821115615d1257615d12615e8b565b01949350505050565b600082615d2a57615d2a615ea1565b500490565b600063ffffffff80841680615d4657615d46615ea1565b92169190910492915050565b600082821015615d6457615d64615e8b565b500390565b600063ffffffff83811690831681811015615d8657615d86615e8b565b039392505050565b600060ff821660ff841680821015615da857615da8615e8b565b90039392505050565b60005b83811015615dcc578181015183820152602001615db4565b838111156126955750506000910152565b601f8201601f191681016001600160401b0381118282101715615e0257615e02615ecd565b6040525050565b6000600019821415615e1d57615e1d615e8b565b5060010190565b600063ffffffff80831681811415615e3e57615e3e615e8b565b6001019392505050565b600060ff821660ff811415615e5f57615e5f615e8b565b60010192915050565b600063ffffffff80841680615e7f57615e7f615ea1565b92169190910692915050565b634e487b7160e01b600052601160045260246000fd5b634e487b7160e01b600052601260045260246000fd5b634e487b7160e01b600052602160045260246000fd5b634e487b7160e01b600052604160045260246000fd5b600060033d1115615ef857600481823e5160e01c5b90565b600060443d1015615f095790565b6040516003193d81016004833e81513d6001600160401b038160248401118184111715615f3857505050505090565b8285019150815181811115615f505750505050505090565b843d8701016020828501011115615f6a5750505050505090565b615f7960208286010187615ddd565b509095945050505050565b6001600160a01b0381168114614db157600080fd5b6001600160e01b031981168114614db157600080fdfea2646970667358221220e4aed9954e585f56e1f1dc4b9167cda899c6f91c54214aae3ccd6db83648806664736f6c63430008040033",
  "immutableReferences": {},
  "source": "// SPDX-License-Identifier: Apache-2.0\npragma solidity ^0.8.4;\n\nimport \"./TokenManager.sol\";\nimport \"./DomainUser.sol\";\nimport \"./Enums.sol\";\nimport \"./IONEWallet.sol\";\n\ncontract ONEWallet is TokenManager, DomainUser, IONEWallet {\n\n    /// Some variables can be immutable, but doing so would increase contract size. We are at threshold at the moment (~24KiB) so until we separate the contracts, we will do everything to minimize contract size\n    bytes32 root; // Note: @ivan brought up a good point in reducing this to 16-bytes so hash of two consecutive nodes can be done in a single word (to save gas and reduce blockchain clutter). Let's not worry about that for now and re-evalaute this later.\n    uint8 height; // including the root. e.g. for a tree with 4 leaves, the height is 3.\n    uint8 interval; // otp interval in seconds, default is 30\n    uint32 t0; // starting time block (effectiveTime (in ms) / interval)\n    uint32 lifespan;  // in number of block (e.g. 1 block per [interval] seconds)\n    uint8  maxOperationsPerInterval; // number of transactions permitted per OTP interval. Each transaction shall have a unique nonce. The nonce is auto-incremented within each interval\n    uint32 _numLeaves; // 2 ** (height - 1)\n\n    /// global mutable variables\n    address payable lastResortAddress; // where money will be sent during a recovery process (or when the wallet is beyond its lifespan)\n    uint256 dailyLimit; // uint128 is sufficient, but uint256 is more efficient since EVM works with 32-byte words.\n    uint256 spentToday; // note: instead of tracking the money spent for the last 24h, we are simply tracking money spent per 24h block based on UTC time. It is good enough for now, but we may want to change this later.\n    uint32 lastTransferDay;\n    uint256 lastOperationTime; // in seconds; record the time for the last successful reveal\n    address payable forwardAddress; // a non-empty forward address assumes full control of this contract. A forward address can only be set upon a successful recovery or upgrade operation.\n    IONEWallet[] backlinkAddresses; // to be set in next version - these are addresses forwarding funds and tokens to this contract AND must have their forwardAddress updated if this contract's forwardAddress is set or updated. One example of such an address is a previous version of the wallet \"upgrading\" to a new version. See more at https://github.com/polymorpher/one-wallet/issues/78\n\n    /// nonce tracking\n    mapping(uint32 => uint8) nonces; // keys: otp index (=timestamp in seconds / interval - t0); values: the expected nonce for that otp interval. An reveal with a nonce less than the expected value will be rejected\n    uint32[] nonceTracker; // list of nonces keys that have a non-zero value. keys cannot possibly result a successful reveal (indices beyond REVEAL_MAX_DELAY old) are auto-deleted during a clean up procedure that is called every time the nonces are incremented for some key. For each deleted key, the corresponding key in nonces will also be deleted. So the size of nonceTracker and nonces are both bounded.\n\n    // constants\n    uint32 constant REVEAL_MAX_DELAY = 60;\n    uint32 constant SECONDS_PER_DAY = 86400;\n    uint256 constant AUTO_RECOVERY_TRIGGER_AMOUNT = 1 ether;\n    uint32 constant MAX_COMMIT_SIZE = 120;\n    uint256 constant AUTO_RECOVERY_MANDATORY_WAIT_TIME = 14 days;\n\n    uint32 constant majorVersion = 0x9; // a change would require client to migrate\n    uint32 constant minorVersion = 0x0; // a change would not require the client to migrate\n\n    /// commit management\n    struct Commit {\n        bytes32 paramsHash;\n        bytes32 verificationHash;\n        uint32 timestamp;\n        bool completed;\n    }\n\n    bytes32[] commits; // self-clean on commit (auto delete commits that are beyond REVEAL_MAX_DELAY), so it's bounded by the number of commits an attacker can spam within REVEAL_MAX_DELAY time in the worst case, which is not too bad.\n    mapping(bytes32 => Commit[]) commitLocker;\n\n\n    constructor(bytes32 root_, uint8 height_, uint8 interval_, uint32 t0_, uint32 lifespan_, uint8 maxOperationsPerInterval_,\n        address payable lastResortAddress_, uint256 dailyLimit_)\n    {\n        root = root_;\n        height = height_;\n        interval = interval_;\n        t0 = t0_;\n        lifespan = lifespan_;\n        lastResortAddress = lastResortAddress_;\n        dailyLimit = dailyLimit_;\n        maxOperationsPerInterval = maxOperationsPerInterval_;\n        _numLeaves = uint32(2 ** (height_ - 1));\n    }\n\n    function _getForwardAddress() internal override view returns (address payable){\n        return forwardAddress;\n    }\n\n    function getForwardAddress() external override view returns (address payable){\n        return forwardAddress;\n    }\n\n    function _forwardPayment() internal {\n        (bool success,) = forwardAddress.call{value : msg.value}(\"\");\n        require(success, \"Forward failed\");\n        emit PaymentForwarded(msg.value, msg.sender);\n    }\n\n    receive() external payable {\n        emit PaymentReceived(msg.value, msg.sender);\n\n        if (forwardAddress != address(0)) {// this wallet already has a forward address set - standard recovery process should not apply\n            if (forwardAddress == lastResortAddress) {// in this case, funds should be forwarded to forwardAddress no matter what\n                _forwardPayment();\n                return;\n            }\n            if (msg.sender == lastResortAddress) {// this case requires special handling\n                if (msg.value == AUTO_RECOVERY_TRIGGER_AMOUNT) {// in this case, send funds to recovery address\n                    _recover();\n                    return;\n                }\n                // any other amount is deemed to authorize withdrawal of all funds to forwardAddress\n                _setRecoveryAddress(forwardAddress);\n                _recover();\n                return;\n            }\n            // if sender is anyone else (including self), simply forward the payment\n            _forwardPayment();\n            return;\n        }\n        if (msg.value != AUTO_RECOVERY_TRIGGER_AMOUNT) {\n            return;\n        }\n        if (msg.sender != lastResortAddress) {\n            return;\n        }\n        if (msg.sender == address(this)) {\n            return;\n        }\n        if (block.timestamp < lastOperationTime + AUTO_RECOVERY_MANDATORY_WAIT_TIME) {\n            emit AutoRecoveryTriggeredPrematurely(msg.sender, lastOperationTime + AUTO_RECOVERY_MANDATORY_WAIT_TIME);\n            return;\n        }\n        emit AutoRecoveryTriggered(msg.sender);\n        require(_drain());\n    }\n\n    function retire() external override returns (bool)\n    {\n        require(uint32(block.timestamp / interval) - t0 > lifespan, \"Too early\");\n        require(lastResortAddress != address(0), \"Recovery not set\");\n        require(_drain(), \"Recovery failed\");\n        return true;\n    }\n\n    function getInfo() external override view returns (bytes32, uint8, uint8, uint32, uint32, uint8, address, uint256){\n        return (root, height, interval, t0, lifespan, maxOperationsPerInterval, lastResortAddress, dailyLimit);\n    }\n\n    function getVersion() external override pure returns (uint32, uint32){\n        return (majorVersion, minorVersion);\n    }\n\n    function getCurrentSpending() external override view returns (uint256, uint256){\n        return (spentToday, lastTransferDay);\n    }\n\n    function getNonce() external override view returns (uint8){\n        return nonces[uint32(block.timestamp) / interval - t0];\n    }\n\n    function getCommits() external override pure returns (bytes32[] memory, bytes32[] memory, uint32[] memory, bool[] memory){\n        revert();\n    }\n\n    function getAllCommits() external override view returns (bytes32[] memory, bytes32[] memory, bytes32[] memory, uint32[] memory, bool[] memory){\n        uint32 numCommits = 0;\n        for (uint32 i = 0; i < commits.length; i++) {\n            Commit[] storage cc = commitLocker[commits[i]];\n            numCommits += uint32(cc.length);\n        }\n        bytes32[] memory hashes = new bytes32[](numCommits);\n        bytes32[] memory paramHashes = new bytes32[](numCommits);\n        bytes32[] memory verificationHashes = new bytes32[](numCommits);\n        uint32[] memory timestamps = new uint32[](numCommits);\n        bool[] memory completed = new bool[](numCommits);\n        uint32 index = 0;\n        for (uint32 i = 0; i < commits.length; i++) {\n            Commit[] storage cc = commitLocker[commits[i]];\n            for (uint32 j = 0; j < cc.length; j++) {\n                Commit storage c = cc[j];\n                hashes[index] = commits[i];\n                paramHashes[index] = c.paramsHash;\n                verificationHashes[index] = c.verificationHash;\n                timestamps[index] = c.timestamp;\n                completed[index] = c.completed;\n                index++;\n            }\n        }\n        return (hashes, paramHashes, verificationHashes, timestamps, completed);\n    }\n\n    function findCommit(bytes32 /*hash*/) external override pure returns (bytes32, bytes32, uint32, bool){\n        revert();\n    }\n\n    function lookupCommit(bytes32 hash) external override view returns (bytes32[] memory, bytes32[] memory, bytes32[] memory, uint32[] memory, bool[] memory){\n        Commit[] storage cc = commitLocker[hash];\n        bytes32[] memory hashes = new bytes32[](cc.length);\n        bytes32[] memory paramHashes = new bytes32[](cc.length);\n        bytes32[] memory verificationHashes = new bytes32[](cc.length);\n        uint32[] memory timestamps = new uint32[](cc.length);\n        bool[] memory completed = new bool[](cc.length);\n        for (uint32 i = 0; i < cc.length; i++) {\n            Commit storage c = cc[i];\n            hashes[i] = hash;\n            paramHashes[i] = c.paramsHash;\n            verificationHashes[i] = c.verificationHash;\n            timestamps[i] = c.timestamp;\n            completed[i] = c.completed;\n        }\n        return (hashes, paramHashes, verificationHashes, timestamps, completed);\n    }\n\n    function commit(bytes32 hash, bytes32 paramsHash, bytes32 verificationHash) external override {\n        _cleanupCommits();\n        Commit memory nc = Commit(paramsHash, verificationHash, uint32(block.timestamp), false);\n        require(commits.length < MAX_COMMIT_SIZE, \"Too many\");\n        commits.push(hash);\n        commitLocker[hash].push(nc);\n    }\n\n    function _forward(address payable dest) internal {\n        if (address(forwardAddress) != address(0)) {\n            emit ForwardAddressAlreadySet(dest);\n            return;\n        }\n        if (address(forwardAddress) == address(this)) {\n            emit ForwardAddressInvalid(dest);\n            return;\n        }\n        forwardAddress = dest;\n        emit ForwardAddressUpdated(dest);\n        if (lastResortAddress == address(0)) {\n            _setRecoveryAddress(forwardAddress);\n        }\n        for (uint32 i = 0; i < backlinkAddresses.length; i++) {\n            try backlinkAddresses[i].reveal(new bytes32[](0), 0, bytes32(0), OperationType.FORWARD, TokenType.NONE, address(0), 0, dest, 0, bytes(\"\")){\n                emit BackLinkUpdated(dest, address(backlinkAddresses[i]));\n            } catch Error(string memory reason){\n                emit BackLinkUpdateError(dest, address(backlinkAddresses[i]), reason);\n            } catch {\n                emit BackLinkUpdateError(dest, address(backlinkAddresses[i]), \"\");\n            }\n        }\n    }\n\n    /// This function sends all remaining funds and tokens in the wallet to `lastResortAddress`. The caller should verify that `lastResortAddress` is not null.\n    function _drain() internal returns (bool) {\n        // this may be triggered after revealing the proof, and we must prevent revert in all cases\n        (bool success,) = lastResortAddress.call{value : address(this).balance}(\"\");\n        if (success) {\n            forwardAddress = lastResortAddress;\n            TokenManager._recoverAllTokens(lastResortAddress);\n        }\n        return success;\n    }\n\n    function _transfer(address payable dest, uint256 amount) internal returns (bool) {\n        uint32 day = uint32(block.timestamp / SECONDS_PER_DAY);\n        if (day > lastTransferDay) {\n            spentToday = 0;\n            lastTransferDay = day;\n        }\n        if (spentToday + amount > dailyLimit) {\n            emit ExceedDailyLimit(amount, dailyLimit, spentToday, dest);\n            return false;\n        }\n        if (address(this).balance < amount) {\n            emit InsufficientFund(amount, address(this).balance, dest);\n            return false;\n        }\n        spentToday += amount;\n        (bool success,) = dest.call{value : amount}(\"\");\n        // we do not want to revert the whole transaction if this operation fails, since EOTP is already revealed\n        if (!success) {\n            spentToday -= amount;\n            emit UnknownTransferError(dest);\n            return false;\n        }\n\n        emit PaymentSent(amount, dest);\n        return true;\n    }\n\n    function _recover() internal returns (bool){\n        if (lastResortAddress == address(0)) {\n            emit LastResortAddressNotSet();\n            return false;\n        }\n        if (lastResortAddress == address(this)) {// this should not happen unless lastResortAddress is set at contract creation time, and is deliberately set to contract's own address\n            // nothing needs to be done;\n            return true;\n        }\n        if (!_drain()) {\n            emit RecoveryFailure();\n            return false;\n        }\n        return true;\n    }\n\n    function _setRecoveryAddress(address payable lastResortAddress_) internal {\n        require(lastResortAddress == address(0), \"Already set\");\n        require(lastResortAddress_ != address(this), \"Cannot be self\");\n        lastResortAddress = lastResortAddress_;\n        emit RecoveryAddressUpdated(lastResortAddress);\n    }\n\n    /// Provides commitHash, paramsHash, and verificationHash given the parameters\n    function _getRevealHash(bytes32 neighbor, uint32 indexWithNonce, bytes32 eotp,\n        OperationType operationType, TokenType tokenType, address contractAddress, uint256 tokenId, address dest, uint256 amount, bytes calldata data) pure internal returns (bytes32, bytes32) {\n        bytes32 hash = keccak256(bytes.concat(neighbor, bytes32(bytes4(indexWithNonce)), eotp));\n        bytes32 paramsHash = bytes32(0);\n        if (operationType == OperationType.TRANSFER) {\n            paramsHash = keccak256(bytes.concat(bytes32(bytes20(address(dest))), bytes32(amount)));\n        } else if (operationType == OperationType.RECOVER) {\n            paramsHash = keccak256(data);\n        } else if (operationType == OperationType.SET_RECOVERY_ADDRESS) {\n            paramsHash = keccak256(bytes.concat(bytes32(bytes20(address(dest)))));\n        } else {\n            paramsHash = keccak256(bytes.concat(\n                    bytes32(uint256(operationType)),\n                    bytes32(uint256(tokenType)),\n                    bytes32(bytes20(contractAddress)),\n                    bytes32(tokenId),\n                    bytes32(bytes20(dest)),\n                    bytes32(amount),\n                    data\n                ));\n        }\n        return (hash, paramsHash);\n    }\n\n\n    function reveal(bytes32[] calldata neighbors, uint32 indexWithNonce, bytes32 eotp,\n        OperationType operationType, TokenType tokenType, address contractAddress, uint256 tokenId, address payable dest, uint256 amount, bytes calldata data)\n    external override {\n        if (msg.sender != forwardAddress) {\n            _isCorrectProof(neighbors, indexWithNonce, eotp);\n            if (indexWithNonce == _numLeaves - 1) {\n                require(operationType == OperationType.RECOVER, \"Reserved\");\n            }\n            (bytes32 commitHash, bytes32 paramsHash) = _getRevealHash(neighbors[0], indexWithNonce, eotp,\n                operationType, tokenType, contractAddress, tokenId, dest, amount, data);\n            uint32 commitIndex = _verifyReveal(commitHash, indexWithNonce, paramsHash, eotp, operationType);\n            _completeReveal(commitHash, commitIndex, operationType);\n        }\n        // No revert should occur below this point\n        if (operationType == OperationType.TRACK) {\n            if (data.length > 0) {\n                TokenManager._multiTrack(data);\n            } else {\n                TokenManager._trackToken(tokenType, contractAddress, tokenId);\n            }\n        } else if (operationType == OperationType.UNTRACK) {\n            if (data.length > 0) {\n                TokenManager._untrackToken(tokenType, contractAddress, tokenId);\n            } else {\n                TokenManager._multiUntrack(data);\n            }\n        } else if (operationType == OperationType.TRANSFER_TOKEN) {\n            TokenManager._transferToken(tokenType, contractAddress, tokenId, dest, amount, data);\n        } else if (operationType == OperationType.OVERRIDE_TRACK) {\n            TokenManager._overrideTrackWithBytes(data);\n        } else if (operationType == OperationType.TRANSFER) {\n            _transfer(dest, amount);\n        } else if (operationType == OperationType.RECOVER) {\n            _recover();\n        } else if (operationType == OperationType.SET_RECOVERY_ADDRESS) {\n            _setRecoveryAddress(dest);\n        } else if (operationType == OperationType.BUY_DOMAIN) {\n            DomainUser._buyDomainEncoded(data, amount, uint8(tokenId), contractAddress, dest);\n        } else if (operationType == OperationType.RECOVER_SELECTED_TOKENS) {\n            TokenManager._recoverSelectedTokensEncoded(dest, data);\n        } else if (operationType == OperationType.FORWARD) {\n            _forward(dest);\n        }\n    }\n\n    /// This is just a wrapper around a modifier previously called `isCorrectProof`, to avoid \"Stack too deep\" error. Duh.\n    function _isCorrectProof(bytes32[] calldata neighbors, uint32 position, bytes32 eotp) view internal {\n        require(neighbors.length == height - 1, \"Bad neighbors\");\n        bytes32 h = sha256(bytes.concat(eotp));\n        if (position == _numLeaves - 1) {\n            // special case: recover only\n            h = eotp;\n        }\n        for (uint8 i = 0; i < height - 1; i++) {\n            if ((position & 0x01) == 0x01) {\n                h = sha256(bytes.concat(neighbors[i], h));\n            } else {\n                h = sha256(bytes.concat(h, neighbors[i]));\n            }\n            position >>= 1;\n        }\n        require(root == h, \"Proof is incorrect\");\n        return;\n    }\n\n    /// Remove old commits from storage, where the commit's timestamp is older than block.timestamp - REVEAL_MAX_DELAY. The purpose is to remove dangling data from blockchain, and prevent commits grow unbounded. This is executed at commit time. The committer pays for the gas of this cleanup. Therefore, any attacker who intend to spam commits would be disincentivized. The attacker would not succeed in preventing any normal operation by the user.\n    function _cleanupCommits() internal {\n        uint32 timelyIndex = 0;\n        uint32 bt = uint32(block.timestamp);\n        // go through past commits chronologically, starting from the oldest, and find the first commit that is not older than block.timestamp - REVEAL_MAX_DELAY.\n        for (; timelyIndex < commits.length; timelyIndex++) {\n            bytes32 hash = commits[timelyIndex];\n            Commit[] storage cc = commitLocker[hash];\n            // We may skip because the commit is already cleaned up and is considered \"untimely\".\n            if (cc.length == 0) {\n                continue;\n            }\n            // We take the first entry in `cc` as the timestamp for all commits under commit hash `hash`, because the first entry represents the oldest commit and only commit if an attacker is not attacking this wallet. If an attacker is front-running commits, the first entry may be from the attacker, but its timestamp should be identical to the user's commit (or close enough to the user's commit, if network is a bit congested)\n            Commit storage c = cc[0];\n        unchecked {\n            if (c.timestamp >= bt - REVEAL_MAX_DELAY) {\n                break;\n            }\n        }\n        }\n        // Now `timelyIndex` holds the index of the first commit that is timely. All commits at an index less than `timelyIndex` must be deleted;\n        if (timelyIndex == 0) {\n            // no commit is older than block.timestamp - REVEAL_MAX_DELAY. Nothing needs to be cleaned up\n            return;\n        }\n        // Delete Commit instances for commits that are are older than block.timestamp - REVEAL_MAX_DELAY\n        for (uint32 i = 0; i < timelyIndex; i++) {\n            bytes32 hash = commits[i];\n            Commit[] storage cc = commitLocker[hash];\n            for (uint32 j = 0; j < cc.length; j++) {\n                delete cc[j];\n            }\n            delete commitLocker[hash];\n        }\n        // Shift all commit hashes up by `timelyIndex` positions, and discard `commitIndex` number of hashes at the end of the array\n        // This process erases old commits\n        uint32 len = uint32(commits.length);\n        for (uint32 i = timelyIndex; i < len; i++) {\n        unchecked{\n            commits[i - timelyIndex] = commits[i];\n        }\n        }\n        for (uint32 i = 0; i < timelyIndex; i++) {\n            commits.pop();\n        }\n        // TODO (@polymorpher): upgrade the above code after solidity implements proper support for struct-array memory-storage copy operation.\n    }\n\n    /// This function verifies that the first valid entry with respect to the given `eotp` in `commitLocker[hash]` matches the provided `paramsHash` and `verificationHash`. An entry is valid with respect to `eotp` iff `h3(entry.paramsHash . eotp)` equals `entry.verificationHash`\n    function _verifyReveal(bytes32 hash, uint32 indexWithNonce, bytes32 paramsHash, bytes32 eotp, OperationType operationType) view internal returns (uint32)\n    {\n        uint32 index = indexWithNonce / maxOperationsPerInterval;\n        uint8 nonce = uint8(indexWithNonce % maxOperationsPerInterval);\n        Commit[] storage cc = commitLocker[hash];\n        require(cc.length > 0, \"No commit found\");\n        for (uint32 i = 0; i < cc.length; i++) {\n            Commit storage c = cc[i];\n            bytes32 expectedVerificationHash = keccak256(bytes.concat(c.paramsHash, eotp));\n            if (c.verificationHash != expectedVerificationHash) {\n                // Invalid entry. Ignore\n                continue;\n            }\n            require(c.paramsHash == paramsHash, \"Param mismatch\");\n            if (operationType != OperationType.RECOVER) {\n                uint32 counter = c.timestamp / interval - t0;\n                require(counter == index, \"Time mismatch\");\n                uint8 expectedNonce = nonces[counter];\n                require(nonce >= expectedNonce, \"Nonce too low\");\n            }\n            require(!c.completed, \"Commit already done\");\n            // This normally should not happen, but when the network is congested (regardless of whether due to an attacker's malicious acts or not), the legitimate reveal may become untimely. This may happen before the old commit is cleaned up by another fresh commit. We enforce this restriction so that the attacker would not have a lot of time to reverse-engineer a single EOTP or leaf using an old commit.\n            require(uint32(block.timestamp) - c.timestamp < REVEAL_MAX_DELAY, \"Too late\");\n            return i;\n        }\n        revert(\"No commit\");\n    }\n\n    function _completeReveal(bytes32 commitHash, uint32 commitIndex, OperationType operationType) internal {\n        Commit[] storage cc = commitLocker[commitHash];\n        assert(cc.length > 0);\n        assert(cc.length > commitIndex);\n        Commit storage c = cc[commitIndex];\n        assert(c.timestamp > 0);\n        if (operationType != OperationType.RECOVER) {\n            uint32 index = uint32(c.timestamp) / interval - t0;\n            _incrementNonce(index);\n            _cleanupNonces();\n        }\n        c.completed = true;\n        lastOperationTime = block.timestamp;\n    }\n\n    /// This function removes all tracked nonce values correspond to interval blocks that are older than block.timestamp - REVEAL_MAX_DELAY. In doing so, extraneous data in the blockchain is removed, and both nonces and nonceTracker are bounded in size.\n    function _cleanupNonces() internal {\n        uint32 tMin = uint32(block.timestamp) - REVEAL_MAX_DELAY;\n        uint32 indexMinUnadjusted = tMin / interval;\n        uint32 indexMin = 0;\n        if (indexMinUnadjusted > t0) {\n            indexMin = indexMinUnadjusted - t0;\n        }\n        uint32[] memory nonZeroNonces = new uint32[](nonceTracker.length);\n        uint32 numValidIndices = 0;\n        for (uint8 i = 0; i < nonceTracker.length; i++) {\n            uint32 index = nonceTracker[i];\n            if (index < indexMin) {\n                delete nonces[index];\n            } else {\n                nonZeroNonces[numValidIndices] = index;\n            unchecked {\n                numValidIndices++;\n            }\n            }\n        }\n        // TODO (@polymorpher): This can be later made more efficient by inline assembly. https://ethereum.stackexchange.com/questions/51891/how-to-pop-from-decrease-the-length-of-a-memory-array-in-solidity\n        uint32[] memory reducedArray = new uint32[](numValidIndices);\n        for (uint8 i = 0; i < numValidIndices; i++) {\n            reducedArray[i] = nonZeroNonces[i];\n        }\n        nonceTracker = reducedArray;\n    }\n\n    function _incrementNonce(uint32 index) internal {\n        uint8 v = nonces[index];\n        if (v == 0) {\n            nonceTracker.push(index);\n        }\n    unchecked{\n        nonces[index] = v + 1;\n    }\n    }\n}\n",
  "sourcePath": "/Users/polymorpher/git/one-wallet/code/contracts/ONEWallet.sol",
  "compiler": {
    "name": "solc",
    "version": "0.8.4+commit.c7e474f2.Emscripten.clang"
  },
  "schemaVersion": "3.4.2",
  "updatedAt": "2021-08-18T03:47:49.658Z",
  "devdoc": {
    "kind": "dev",
    "methods": {
      "onERC1155BatchReceived(address,address,uint256[],uint256[],bytes)": {
        "details": "Handles the receipt of a multiple ERC1155 token types. This function is called at the end of a `safeBatchTransferFrom` after the balances have been updated. To accept the transfer(s), this must return `bytes4(keccak256(\"onERC1155BatchReceived(address,address,uint256[],uint256[],bytes)\"))` (i.e. 0xbc197c81, or its own function selector).",
        "params": {
          "data": "Additional data with no specified format",
          "from": "The address which previously owned the token",
          "ids": "An array containing ids of each token being transferred (order and length must match values array)",
          "operator": "The address which initiated the batch transfer (i.e. msg.sender)",
          "values": "An array containing amounts of each token being transferred (order and length must match ids array)"
        },
        "returns": {
          "_0": "`bytes4(keccak256(\"onERC1155BatchReceived(address,address,uint256[],uint256[],bytes)\"))` if transfer is allowed"
        }
      },
      "onERC1155Received(address,address,uint256,uint256,bytes)": {
        "details": "Handles the receipt of a single ERC1155 token type. This function is called at the end of a `safeTransferFrom` after the balance has been updated. To accept the transfer, this must return `bytes4(keccak256(\"onERC1155Received(address,address,uint256,uint256,bytes)\"))` (i.e. 0xf23a6e61, or its own function selector).",
        "params": {
          "data": "Additional data with no specified format",
          "from": "The address which previously owned the token",
          "id": "The ID of the token being transferred",
          "operator": "The address which initiated the transfer (i.e. msg.sender)",
          "value": "The amount of tokens being transferred"
        },
        "returns": {
          "_0": "`bytes4(keccak256(\"onERC1155Received(address,address,uint256,uint256,bytes)\"))` if transfer is allowed"
        }
      },
      "onERC721Received(address,address,uint256,bytes)": {
        "details": "Whenever an {IERC721} `tokenId` token is transferred to this contract via {IERC721-safeTransferFrom} by `operator` from `from`, this function is called. It must return its Solidity selector to confirm the token transfer. If any other value is returned or the interface is not implemented by the recipient, the transfer will be reverted. The selector can be obtained in Solidity with `IERC721.onERC721Received.selector`."
      }
    },
    "version": 1
  },
  "userdoc": {
    "kind": "user",
    "methods": {
      "getCommits()": {
        "notice": "DEPRECATED"
      }
    },
    "version": 1
  }
}