{
  "contractName": "ONEWallet",
  "abi": [
    {
      "anonymous": false,
      "inputs": [
        {
          "indexed": false,
          "internalType": "address",
          "name": "from",
          "type": "address"
        }
      ],
      "name": "AutoRecoveryTriggered",
      "type": "event"
    },
    {
      "anonymous": false,
      "inputs": [
        {
          "indexed": false,
          "internalType": "address",
          "name": "from",
          "type": "address"
        },
        {
          "indexed": false,
          "internalType": "uint256",
          "name": "requiredTime",
          "type": "uint256"
        }
      ],
      "name": "AutoRecoveryTriggeredPrematurely",
      "type": "event"
    },
    {
      "anonymous": false,
      "inputs": [
        {
          "indexed": false,
          "internalType": "address",
          "name": "contractAddress",
          "type": "address"
        },
        {
          "indexed": false,
          "internalType": "uint256",
          "name": "amount",
          "type": "uint256"
        },
        {
          "indexed": false,
          "internalType": "bytes",
          "name": "data",
          "type": "bytes"
        },
        {
          "indexed": false,
          "internalType": "bytes",
          "name": "ret",
          "type": "bytes"
        }
      ],
      "name": "ExternalCallCompleted",
      "type": "event"
    },
    {
      "anonymous": false,
      "inputs": [
        {
          "indexed": false,
          "internalType": "address",
          "name": "contractAddress",
          "type": "address"
        },
        {
          "indexed": false,
          "internalType": "uint256",
          "name": "amount",
          "type": "uint256"
        },
        {
          "indexed": false,
          "internalType": "bytes",
          "name": "data",
          "type": "bytes"
        },
        {
          "indexed": false,
          "internalType": "bytes",
          "name": "ret",
          "type": "bytes"
        }
      ],
      "name": "ExternalCallFailed",
      "type": "event"
    },
    {
      "anonymous": false,
      "inputs": [
        {
          "indexed": false,
          "internalType": "address",
          "name": "dest",
          "type": "address"
        }
      ],
      "name": "ForwardAddressAlreadySet",
      "type": "event"
    },
    {
      "anonymous": false,
      "inputs": [
        {
          "indexed": false,
          "internalType": "address",
          "name": "dest",
          "type": "address"
        }
      ],
      "name": "ForwardAddressInvalid",
      "type": "event"
    },
    {
      "anonymous": false,
      "inputs": [
        {
          "indexed": false,
          "internalType": "address",
          "name": "dest",
          "type": "address"
        }
      ],
      "name": "ForwardAddressUpdated",
      "type": "event"
    },
    {
      "anonymous": false,
      "inputs": [
        {
          "indexed": false,
          "internalType": "bool",
          "name": "success",
          "type": "bool"
        }
      ],
      "name": "ForwardedBalance",
      "type": "event"
    },
    {
      "anonymous": false,
      "inputs": [
        {
          "indexed": false,
          "internalType": "enum Enums.TokenType",
          "name": "tokenType",
          "type": "uint8"
        },
        {
          "indexed": false,
          "internalType": "uint256",
          "name": "amount",
          "type": "uint256"
        },
        {
          "indexed": false,
          "internalType": "address",
          "name": "from",
          "type": "address"
        },
        {
          "indexed": false,
          "internalType": "address",
          "name": "tokenContract",
          "type": "address"
        },
        {
          "indexed": false,
          "internalType": "address",
          "name": "operator",
          "type": "address"
        },
        {
          "indexed": false,
          "internalType": "uint256",
          "name": "tokenId",
          "type": "uint256"
        },
        {
          "indexed": false,
          "internalType": "bytes",
          "name": "data",
          "type": "bytes"
        }
      ],
      "name": "ForwardedToken",
      "type": "event"
    },
    {
      "anonymous": false,
      "inputs": [],
      "name": "LastResortAddressNotSet",
      "type": "event"
    },
    {
      "anonymous": false,
      "inputs": [
        {
          "indexed": false,
          "internalType": "uint256",
          "name": "amount",
          "type": "uint256"
        },
        {
          "indexed": false,
          "internalType": "address",
          "name": "dest",
          "type": "address"
        }
      ],
      "name": "PaymentForwarded",
      "type": "event"
    },
    {
      "anonymous": false,
      "inputs": [
        {
          "indexed": false,
          "internalType": "uint256",
          "name": "amount",
          "type": "uint256"
        },
        {
          "indexed": false,
          "internalType": "address",
          "name": "from",
          "type": "address"
        }
      ],
      "name": "PaymentReceived",
      "type": "event"
    },
    {
      "anonymous": false,
      "inputs": [
        {
          "indexed": false,
          "internalType": "uint256",
          "name": "amount",
          "type": "uint256"
        },
        {
          "indexed": false,
          "internalType": "address",
          "name": "dest",
          "type": "address"
        }
      ],
      "name": "PaymentSent",
      "type": "event"
    },
    {
      "anonymous": false,
      "inputs": [
        {
          "indexed": false,
          "internalType": "enum Enums.TokenType",
          "name": "tokenType",
          "type": "uint8"
        },
        {
          "indexed": false,
          "internalType": "uint256",
          "name": "amount",
          "type": "uint256"
        },
        {
          "indexed": false,
          "internalType": "address",
          "name": "from",
          "type": "address"
        },
        {
          "indexed": false,
          "internalType": "address",
          "name": "tokenContract",
          "type": "address"
        },
        {
          "indexed": false,
          "internalType": "address",
          "name": "operator",
          "type": "address"
        },
        {
          "indexed": false,
          "internalType": "uint256",
          "name": "tokenId",
          "type": "uint256"
        },
        {
          "indexed": false,
          "internalType": "bytes",
          "name": "data",
          "type": "bytes"
        }
      ],
      "name": "ReceivedToken",
      "type": "event"
    },
    {
      "anonymous": false,
      "inputs": [
        {
          "indexed": false,
          "internalType": "address",
          "name": "dest",
          "type": "address"
        }
      ],
      "name": "RecoveryAddressUpdated",
      "type": "event"
    },
    {
      "anonymous": false,
      "inputs": [],
      "name": "RecoveryFailure",
      "type": "event"
    },
    {
      "anonymous": false,
      "inputs": [],
      "name": "RecoveryTriggered",
      "type": "event"
    },
    {
      "anonymous": false,
      "inputs": [],
      "name": "Retired",
      "type": "event"
    },
    {
      "anonymous": false,
      "inputs": [
        {
          "indexed": false,
          "internalType": "address",
          "name": "dest",
          "type": "address"
        },
        {
          "indexed": false,
          "internalType": "bytes",
          "name": "error",
          "type": "bytes"
        }
      ],
      "name": "TransferError",
      "type": "event"
    },
    {
      "inputs": [
        {
          "internalType": "bytes32",
          "name": "",
          "type": "bytes32"
        }
      ],
      "name": "findCommit",
      "outputs": [
        {
          "internalType": "bytes32",
          "name": "",
          "type": "bytes32"
        },
        {
          "internalType": "bytes32",
          "name": "",
          "type": "bytes32"
        },
        {
          "internalType": "uint32",
          "name": "",
          "type": "uint32"
        },
        {
          "internalType": "bool",
          "name": "",
          "type": "bool"
        }
      ],
      "stateMutability": "pure",
      "type": "function"
    },
    {
      "inputs": [],
      "name": "getCommits",
      "outputs": [
        {
          "internalType": "bytes32[]",
          "name": "",
          "type": "bytes32[]"
        },
        {
          "internalType": "bytes32[]",
          "name": "",
          "type": "bytes32[]"
        },
        {
          "internalType": "uint32[]",
          "name": "",
          "type": "uint32[]"
        },
        {
          "internalType": "bool[]",
          "name": "",
          "type": "bool[]"
        }
      ],
      "stateMutability": "pure",
      "type": "function"
    },
    {
      "inputs": [],
      "name": "getCurrentSpending",
      "outputs": [
        {
          "internalType": "uint256",
          "name": "",
          "type": "uint256"
        },
        {
          "internalType": "uint256",
          "name": "",
          "type": "uint256"
        }
      ],
      "stateMutability": "pure",
      "type": "function"
    },
    {
      "inputs": [],
      "name": "getCurrentSpendingState",
      "outputs": [
        {
          "internalType": "uint256",
          "name": "",
          "type": "uint256"
        },
        {
          "internalType": "uint256",
          "name": "",
          "type": "uint256"
        },
        {
          "internalType": "uint32",
          "name": "",
          "type": "uint32"
        },
        {
          "internalType": "uint32",
          "name": "",
          "type": "uint32"
        }
      ],
      "stateMutability": "pure",
      "type": "function"
    },
    {
      "inputs": [],
      "name": "lastOperationTime",
      "outputs": [
        {
          "internalType": "uint256",
          "name": "",
          "type": "uint256"
        }
      ],
      "stateMutability": "view",
      "type": "function"
    },
    {
      "inputs": [
        {
          "internalType": "address",
          "name": "operator",
          "type": "address"
        },
        {
          "internalType": "address",
          "name": "from",
          "type": "address"
        },
        {
          "internalType": "uint256[]",
          "name": "ids",
          "type": "uint256[]"
        },
        {
          "internalType": "uint256[]",
          "name": "values",
          "type": "uint256[]"
        },
        {
          "internalType": "bytes",
          "name": "data",
          "type": "bytes"
        }
      ],
      "name": "onERC1155BatchReceived",
      "outputs": [
        {
          "internalType": "bytes4",
          "name": "",
          "type": "bytes4"
        }
      ],
      "stateMutability": "nonpayable",
      "type": "function"
    },
    {
      "inputs": [
        {
          "internalType": "address",
          "name": "operator",
          "type": "address"
        },
        {
          "internalType": "address",
          "name": "from",
          "type": "address"
        },
        {
          "internalType": "uint256",
          "name": "id",
          "type": "uint256"
        },
        {
          "internalType": "uint256",
          "name": "value",
          "type": "uint256"
        },
        {
          "internalType": "bytes",
          "name": "data",
          "type": "bytes"
        }
      ],
      "name": "onERC1155Received",
      "outputs": [
        {
          "internalType": "bytes4",
          "name": "",
          "type": "bytes4"
        }
      ],
      "stateMutability": "nonpayable",
      "type": "function"
    },
    {
      "inputs": [
        {
          "internalType": "address",
          "name": "operator",
          "type": "address"
        },
        {
          "internalType": "address",
          "name": "from",
          "type": "address"
        },
        {
          "internalType": "uint256",
          "name": "tokenId",
          "type": "uint256"
        },
        {
          "internalType": "bytes",
          "name": "data",
          "type": "bytes"
        }
      ],
      "name": "onERC721Received",
      "outputs": [
        {
          "internalType": "bytes4",
          "name": "",
          "type": "bytes4"
        }
      ],
      "stateMutability": "nonpayable",
      "type": "function"
    },
    {
      "stateMutability": "payable",
      "type": "receive"
    },
    {
      "inputs": [
        {
          "components": [
            {
              "components": [
                {
                  "internalType": "bytes32",
                  "name": "root",
                  "type": "bytes32"
                },
                {
                  "internalType": "uint8",
                  "name": "height",
                  "type": "uint8"
                },
                {
                  "internalType": "uint8",
                  "name": "interval",
                  "type": "uint8"
                },
                {
                  "internalType": "uint32",
                  "name": "t0",
                  "type": "uint32"
                },
                {
                  "internalType": "uint32",
                  "name": "lifespan",
                  "type": "uint32"
                },
                {
                  "internalType": "uint8",
                  "name": "maxOperationsPerInterval",
                  "type": "uint8"
                }
              ],
              "internalType": "struct IONEWallet.CoreSetting",
              "name": "core",
              "type": "tuple"
            },
            {
              "components": [
                {
                  "internalType": "uint256",
                  "name": "spendingLimit",
                  "type": "uint256"
                },
                {
                  "internalType": "uint256",
                  "name": "spentAmount",
                  "type": "uint256"
                },
                {
                  "internalType": "uint32",
                  "name": "lastSpendingInterval",
                  "type": "uint32"
                },
                {
                  "internalType": "uint32",
                  "name": "spendingInterval",
                  "type": "uint32"
                },
                {
                  "internalType": "uint32",
                  "name": "lastLimitAdjustmentTime",
                  "type": "uint32"
                },
                {
                  "internalType": "uint256",
                  "name": "highestSpendingLimit",
                  "type": "uint256"
                }
              ],
              "internalType": "struct SpendingManager.SpendingState",
              "name": "spendingState",
              "type": "tuple"
            },
            {
              "internalType": "address payable",
              "name": "recoveryAddress",
              "type": "address"
            },
            {
              "internalType": "contract IONEWallet[]",
              "name": "backlinkAddresses",
              "type": "address[]"
            },
            {
              "components": [
                {
                  "internalType": "bytes32",
                  "name": "root",
                  "type": "bytes32"
                },
                {
                  "internalType": "uint8",
                  "name": "height",
                  "type": "uint8"
                },
                {
                  "internalType": "uint8",
                  "name": "interval",
                  "type": "uint8"
                },
                {
                  "internalType": "uint32",
                  "name": "t0",
                  "type": "uint32"
                },
                {
                  "internalType": "uint32",
                  "name": "lifespan",
                  "type": "uint32"
                },
                {
                  "internalType": "uint8",
                  "name": "maxOperationsPerInterval",
                  "type": "uint8"
                }
              ],
              "internalType": "struct IONEWallet.CoreSetting[]",
              "name": "oldCores",
              "type": "tuple[]"
            },
            {
              "components": [
                {
                  "internalType": "bytes32",
                  "name": "root",
                  "type": "bytes32"
                },
                {
                  "internalType": "uint8",
                  "name": "height",
                  "type": "uint8"
                },
                {
                  "internalType": "uint8",
                  "name": "interval",
                  "type": "uint8"
                },
                {
                  "internalType": "uint32",
                  "name": "t0",
                  "type": "uint32"
                },
                {
                  "internalType": "uint32",
                  "name": "lifespan",
                  "type": "uint32"
                },
                {
                  "internalType": "uint8",
                  "name": "maxOperationsPerInterval",
                  "type": "uint8"
                }
              ],
              "internalType": "struct IONEWallet.CoreSetting[]",
              "name": "innerCores",
              "type": "tuple[]"
            },
            {
              "internalType": "bytes[]",
              "name": "identificationKeys",
              "type": "bytes[]"
            }
          ],
          "internalType": "struct IONEWallet.InitParams",
          "name": "initParams",
          "type": "tuple"
        }
      ],
      "name": "initialize",
      "outputs": [],
      "stateMutability": "nonpayable",
      "type": "function"
    },
    {
      "inputs": [],
      "name": "identificationKey",
      "outputs": [
        {
          "internalType": "bytes",
          "name": "",
          "type": "bytes"
        }
      ],
      "stateMutability": "view",
      "type": "function"
    },
    {
      "inputs": [],
      "name": "getIdentificationKeys",
      "outputs": [
        {
          "internalType": "bytes[]",
          "name": "",
          "type": "bytes[]"
        }
      ],
      "stateMutability": "view",
      "type": "function"
    },
    {
      "inputs": [],
      "name": "getForwardAddress",
      "outputs": [
        {
          "internalType": "address payable",
          "name": "",
          "type": "address"
        }
      ],
      "stateMutability": "view",
      "type": "function"
    },
    {
      "inputs": [],
      "name": "retire",
      "outputs": [
        {
          "internalType": "bool",
          "name": "",
          "type": "bool"
        }
      ],
      "stateMutability": "nonpayable",
      "type": "function"
    },
    {
      "inputs": [],
      "name": "getInfo",
      "outputs": [
        {
          "internalType": "bytes32",
          "name": "",
          "type": "bytes32"
        },
        {
          "internalType": "uint8",
          "name": "",
          "type": "uint8"
        },
        {
          "internalType": "uint8",
          "name": "",
          "type": "uint8"
        },
        {
          "internalType": "uint32",
          "name": "",
          "type": "uint32"
        },
        {
          "internalType": "uint32",
          "name": "",
          "type": "uint32"
        },
        {
          "internalType": "uint8",
          "name": "",
          "type": "uint8"
        },
        {
          "internalType": "address",
          "name": "",
          "type": "address"
        },
        {
          "internalType": "uint256",
          "name": "",
          "type": "uint256"
        }
      ],
      "stateMutability": "view",
      "type": "function"
    },
    {
      "inputs": [],
      "name": "getOldInfos",
      "outputs": [
        {
          "components": [
            {
              "internalType": "bytes32",
              "name": "root",
              "type": "bytes32"
            },
            {
              "internalType": "uint8",
              "name": "height",
              "type": "uint8"
            },
            {
              "internalType": "uint8",
              "name": "interval",
              "type": "uint8"
            },
            {
              "internalType": "uint32",
              "name": "t0",
              "type": "uint32"
            },
            {
              "internalType": "uint32",
              "name": "lifespan",
              "type": "uint32"
            },
            {
              "internalType": "uint8",
              "name": "maxOperationsPerInterval",
              "type": "uint8"
            }
          ],
          "internalType": "struct IONEWallet.CoreSetting[]",
          "name": "",
          "type": "tuple[]"
        }
      ],
      "stateMutability": "view",
      "type": "function"
    },
    {
      "inputs": [],
      "name": "getInnerCores",
      "outputs": [
        {
          "components": [
            {
              "internalType": "bytes32",
              "name": "root",
              "type": "bytes32"
            },
            {
              "internalType": "uint8",
              "name": "height",
              "type": "uint8"
            },
            {
              "internalType": "uint8",
              "name": "interval",
              "type": "uint8"
            },
            {
              "internalType": "uint32",
              "name": "t0",
              "type": "uint32"
            },
            {
              "internalType": "uint32",
              "name": "lifespan",
              "type": "uint32"
            },
            {
              "internalType": "uint8",
              "name": "maxOperationsPerInterval",
              "type": "uint8"
            }
          ],
          "internalType": "struct IONEWallet.CoreSetting[]",
          "name": "",
          "type": "tuple[]"
        }
      ],
      "stateMutability": "view",
      "type": "function"
    },
    {
      "inputs": [],
      "name": "getRootKey",
      "outputs": [
        {
          "internalType": "bytes32",
          "name": "",
          "type": "bytes32"
        }
      ],
      "stateMutability": "view",
      "type": "function"
    },
    {
      "inputs": [],
      "name": "getVersion",
      "outputs": [
        {
          "internalType": "uint32",
          "name": "",
          "type": "uint32"
        },
        {
          "internalType": "uint32",
          "name": "",
          "type": "uint32"
        }
      ],
      "stateMutability": "pure",
      "type": "function"
    },
    {
      "inputs": [],
      "name": "getSpendingState",
      "outputs": [
        {
          "components": [
            {
              "internalType": "uint256",
              "name": "spendingLimit",
              "type": "uint256"
            },
            {
              "internalType": "uint256",
              "name": "spentAmount",
              "type": "uint256"
            },
            {
              "internalType": "uint32",
              "name": "lastSpendingInterval",
              "type": "uint32"
            },
            {
              "internalType": "uint32",
              "name": "spendingInterval",
              "type": "uint32"
            },
            {
              "internalType": "uint32",
              "name": "lastLimitAdjustmentTime",
              "type": "uint32"
            },
            {
              "internalType": "uint256",
              "name": "highestSpendingLimit",
              "type": "uint256"
            }
          ],
          "internalType": "struct SpendingManager.SpendingState",
          "name": "",
          "type": "tuple"
        }
      ],
      "stateMutability": "view",
      "type": "function"
    },
    {
      "inputs": [],
      "name": "getNonce",
      "outputs": [
        {
          "internalType": "uint8",
          "name": "",
          "type": "uint8"
        }
      ],
      "stateMutability": "view",
      "type": "function"
    },
    {
      "inputs": [],
      "name": "getTrackedTokens",
      "outputs": [
        {
          "internalType": "enum Enums.TokenType[]",
          "name": "",
          "type": "uint8[]"
        },
        {
          "internalType": "address[]",
          "name": "",
          "type": "address[]"
        },
        {
          "internalType": "uint256[]",
          "name": "",
          "type": "uint256[]"
        }
      ],
      "stateMutability": "view",
      "type": "function"
    },
    {
      "inputs": [
        {
          "internalType": "enum Enums.TokenType",
          "name": "tokenType",
          "type": "uint8"
        },
        {
          "internalType": "address",
          "name": "contractAddress",
          "type": "address"
        },
        {
          "internalType": "uint256",
          "name": "tokenId",
          "type": "uint256"
        }
      ],
      "name": "getBalance",
      "outputs": [
        {
          "internalType": "uint256",
          "name": "",
          "type": "uint256"
        }
      ],
      "stateMutability": "view",
      "type": "function"
    },
    {
      "inputs": [],
      "name": "getAllCommits",
      "outputs": [
        {
          "internalType": "bytes32[]",
          "name": "",
          "type": "bytes32[]"
        },
        {
          "internalType": "bytes32[]",
          "name": "",
          "type": "bytes32[]"
        },
        {
          "internalType": "bytes32[]",
          "name": "",
          "type": "bytes32[]"
        },
        {
          "internalType": "uint32[]",
          "name": "",
          "type": "uint32[]"
        },
        {
          "internalType": "bool[]",
          "name": "",
          "type": "bool[]"
        }
      ],
      "stateMutability": "view",
      "type": "function"
    },
    {
      "inputs": [
        {
          "internalType": "bytes32",
          "name": "hash",
          "type": "bytes32"
        }
      ],
      "name": "lookupCommit",
      "outputs": [
        {
          "internalType": "bytes32[]",
          "name": "",
          "type": "bytes32[]"
        },
        {
          "internalType": "bytes32[]",
          "name": "",
          "type": "bytes32[]"
        },
        {
          "internalType": "bytes32[]",
          "name": "",
          "type": "bytes32[]"
        },
        {
          "internalType": "uint32[]",
          "name": "",
          "type": "uint32[]"
        },
        {
          "internalType": "bool[]",
          "name": "",
          "type": "bool[]"
        }
      ],
      "stateMutability": "view",
      "type": "function"
    },
    {
      "inputs": [
        {
          "internalType": "bytes32",
          "name": "hash",
          "type": "bytes32"
        },
        {
          "internalType": "bytes32",
          "name": "paramsHash",
          "type": "bytes32"
        },
        {
          "internalType": "bytes32",
          "name": "verificationHash",
          "type": "bytes32"
        }
      ],
      "name": "commit",
      "outputs": [],
      "stateMutability": "nonpayable",
      "type": "function"
    },
    {
      "inputs": [
        {
          "components": [
            {
              "internalType": "bytes32[]",
              "name": "neighbors",
              "type": "bytes32[]"
            },
            {
              "internalType": "uint32",
              "name": "indexWithNonce",
              "type": "uint32"
            },
            {
              "internalType": "bytes32",
              "name": "eotp",
              "type": "bytes32"
            }
          ],
          "internalType": "struct IONEWallet.AuthParams",
          "name": "auth",
          "type": "tuple"
        },
        {
          "components": [
            {
              "internalType": "enum Enums.OperationType",
              "name": "operationType",
              "type": "uint8"
            },
            {
              "internalType": "enum Enums.TokenType",
              "name": "tokenType",
              "type": "uint8"
            },
            {
              "internalType": "address",
              "name": "contractAddress",
              "type": "address"
            },
            {
              "internalType": "uint256",
              "name": "tokenId",
              "type": "uint256"
            },
            {
              "internalType": "address payable",
              "name": "dest",
              "type": "address"
            },
            {
              "internalType": "uint256",
              "name": "amount",
              "type": "uint256"
            },
            {
              "internalType": "bytes",
              "name": "data",
              "type": "bytes"
            }
          ],
          "internalType": "struct IONEWallet.OperationParams",
          "name": "op",
          "type": "tuple"
        }
      ],
      "name": "reveal",
      "outputs": [],
      "stateMutability": "nonpayable",
      "type": "function"
    },
    {
      "inputs": [
        {
          "internalType": "bytes32[]",
          "name": "",
          "type": "bytes32[]"
        },
        {
          "internalType": "uint32",
          "name": "",
          "type": "uint32"
        },
        {
          "internalType": "bytes32",
          "name": "",
          "type": "bytes32"
        },
        {
          "internalType": "enum Enums.OperationType",
          "name": "",
          "type": "uint8"
        },
        {
          "internalType": "enum Enums.TokenType",
          "name": "",
          "type": "uint8"
        },
        {
          "internalType": "address",
          "name": "",
          "type": "address"
        },
        {
          "internalType": "uint256",
          "name": "",
          "type": "uint256"
        },
        {
          "internalType": "address payable",
          "name": "",
          "type": "address"
        },
        {
          "internalType": "uint256",
          "name": "",
          "type": "uint256"
        },
        {
          "internalType": "bytes",
          "name": "",
          "type": "bytes"
        }
      ],
      "name": "reveal",
      "outputs": [],
      "stateMutability": "pure",
      "type": "function"
    },
    {
      "inputs": [],
      "name": "getBacklinks",
      "outputs": [
        {
          "internalType": "contract IONEWallet[]",
          "name": "",
          "type": "address[]"
        }
      ],
      "stateMutability": "view",
      "type": "function"
    },
    {
      "inputs": [
        {
          "internalType": "bytes4",
          "name": "interfaceId",
          "type": "bytes4"
        }
      ],
      "name": "supportsInterface",
      "outputs": [
        {
          "internalType": "bool",
          "name": "",
          "type": "bool"
        }
      ],
      "stateMutability": "pure",
      "type": "function"
    },
    {
      "inputs": [
        {
          "internalType": "bytes32",
          "name": "hash",
          "type": "bytes32"
        },
        {
          "internalType": "bytes",
          "name": "signatureBytes",
          "type": "bytes"
        }
      ],
      "name": "isValidSignature",
      "outputs": [
        {
          "internalType": "bytes4",
          "name": "",
          "type": "bytes4"
        }
      ],
      "stateMutability": "view",
      "type": "function"
    },
    {
      "inputs": [
        {
          "internalType": "uint32",
          "name": "start",
          "type": "uint32"
        },
        {
          "internalType": "uint32",
          "name": "end",
          "type": "uint32"
        }
      ],
      "name": "listSignatures",
      "outputs": [
        {
          "internalType": "bytes32[]",
          "name": "",
          "type": "bytes32[]"
        },
        {
          "internalType": "bytes32[]",
          "name": "",
          "type": "bytes32[]"
        },
        {
          "internalType": "uint32[]",
          "name": "",
          "type": "uint32[]"
        },
        {
          "internalType": "uint32[]",
          "name": "",
          "type": "uint32[]"
        }
      ],
      "stateMutability": "view",
      "type": "function"
    },
    {
      "inputs": [
        {
          "internalType": "bytes32",
          "name": "hash",
          "type": "bytes32"
        }
      ],
      "name": "lookupSignature",
      "outputs": [
        {
          "internalType": "bytes32",
          "name": "",
          "type": "bytes32"
        },
        {
          "internalType": "uint32",
          "name": "",
          "type": "uint32"
        },
        {
          "internalType": "uint32",
          "name": "",
          "type": "uint32"
        }
      ],
      "stateMutability": "view",
      "type": "function"
    }
  ],
  "bytecode": "0x60806040526016805460ff1916905534801561001a57600080fd5b506149248061002a6000396000f3fe6080604052600436106101e75760003560e01c806355fd057911610102578063b1ccfccc11610095578063d087d28811610064578063d087d288146108d0578063d87458a3146108f7578063e4e5b25814610917578063f23a6e611461093757600080fd5b8063b1ccfccc1461085e578063bc197c8114610880578063bddb5406146108a0578063c34a6dad146108b557600080fd5b806391df0925116100d157806391df0925146107c1578063a17027e114610803578063a4874d7714610829578063a6b920b61461083e57600080fd5b806355fd0579146106d95780635a9b0b89146106fb578063695def4c1461077b5780636ee89e6a1461079f57600080fd5b80632f1f75201161017a57806341a648781161014957806341a648781461063f578063424c511014610667578063496018af146106975780634f3f516c146106b957600080fd5b80632f1f7520146104ca578063318c728c146104ef578063396ec5f4146105de5780633f079ab81461061f57600080fd5b80631626ba7e116101b65780631626ba7e1461041c57806316d43a971461043c5780631cf4ea05146104525780632293d3fb146104a057600080fd5b806301ffc9a714610369578063040132391461039e5780630d8e6e2c146103c1578063150b7a02146103e357600080fd5b366103645760165460ff166101fb57600080fd5b600d546001600160a01b03161561028257600654600d546001600160a01b039081169116141561022f5761022d610957565b005b6006546001600160a01b031633141561027a57670de0b6b3a764000034141561027257600654610267906001600160a01b03166109f3565b61026f610ca7565b50005b610267610d75565b61022d610957565b670de0b6b3a7640000341461029357005b6006546001600160a01b031633146102a757005b333014156102b157005b62127500600c546102c291906146ac565b421015610320577fe58fb6bc612703a64f091af2ff6a6831eca838a0301129ab6879cab20d6d7c8c3362127500600c546102fc91906146ac565b604080516001600160a01b03909316835260208301919091520160405180910390a1005b6040513381527f0cbe1fea4becf04af2176bbef0c9c53d439d30a05a197aacc38bb4a2873222e39060200160405180910390a161035b610dcb565b61022d57600080fd5b600080fd5b34801561037557600080fd5b50610389610384366004613a6b565b610ebd565b60405190151581526020015b60405180910390f35b3480156103aa57600080fd5b506103b3610ee8565b604051908152602001610395565b3480156103cd57600080fd5b5060408051600f81526001602082015201610395565b3480156103ef57600080fd5b506104036103fe36600461332d565b610f33565b6040516001600160e01b03199091168152602001610395565b34801561042857600080fd5b506104036104373660046139e5565b6110ac565b34801561044857600080fd5b506103b3600c5481565b34801561045e57600080fd5b5061047261046d3660046139a2565b611142565b6040516103959493929190938452602084019290925263ffffffff1660408301521515606082015260800190565b3480156104ac57600080fd5b506104b561114d565b60408051928352602083019190915201610395565b3480156104d657600080fd5b506104df611155565b60405161039594939291906140a9565b3480156104fb57600080fd5b506105846040805160c081018252600080825260208201819052918101829052606081018290526080810182905260a0810191909152506040805160c08101825260085481526009546020820152600a5463ffffffff80821693830193909352640100000000810483166060830152600160401b90049091166080820152600b5460a082015290565b6040516103959190600060c0820190508251825260208301516020830152604083015163ffffffff8082166040850152806060860151166060850152806080860151166080850152505060a083015160a083015292915050565b3480156105ea57600080fd5b506105f3611142565b60408051948552602085019390935263ffffffff91821692840192909252166060820152608001610395565b34801561062b57600080fd5b5061022d61063a366004613ae3565b611160565b34801561064b57600080fd5b50600d546040516001600160a01b039091168152602001610395565b34801561067357600080fd5b50610687610682366004613cd1565b61121e565b60405161039594939291906140f6565b3480156106a357600080fd5b506106ac6112d2565b60405161039591906141a4565b3480156106c557600080fd5b5061022d6106d4366004613b50565b611334565b3480156106e557600080fd5b506106ee6116b7565b6040516103959190614143565b34801561070757600080fd5b506002546003546006546040805193845260ff808416602086015261010080850482169286019290925263ffffffff62010000850481166060870152600160301b8504166080860152600160501b90930490921660a08401526001600160a01b031660c0830152600060e083015201610395565b34801561078757600080fd5b50610790611790565b604051610395939291906141f1565b3480156107ab57600080fd5b506107b4611829565b6040516103959190614356565b3480156107cd57600080fd5b506107e16107dc3660046139a2565b6118dc565b6040805193845263ffffffff9283166020850152911690820152606001610395565b34801561080f57600080fd5b5061081861197a565b604051610395959493929190614048565b34801561083557600080fd5b50610389611a1d565b34801561084a57600080fd5b506103b3610859366004613aa3565b611ac7565b34801561086a57600080fd5b50610873611b97565b6040516103959190614282565b34801561088c57600080fd5b5061040361089b366004613273565b611c3b565b3480156108ac57600080fd5b50610873611d4d565b3480156108c157600080fd5b5061022d61036436600461350a565b3480156108dc57600080fd5b506108e5611df0565b60405160ff9091168152602001610395565b34801561090357600080fd5b506108186109123660046139a2565b611e8c565b34801561092357600080fd5b5061022d6109323660046139ba565b611f37565b34801561094357600080fd5b5061040361095236600461339d565b611fc3565b600d546040516000916001600160a01b03169034908381818185875af1925050503d80600081146109a4576040519150601f19603f3d011682016040523d82523d6000602084013e6109a9565b606091505b50509050806109b757600080fd5b604080513481523360208201527f6e8641fc34fdcf9d67683d1a8ced72ff01d27ff86ff3b1d338fa6165e496c73f91015b60405180910390a150565b600d546001600160a01b0316301480610a1357506001600160a01b038116155b15610a51576040516001600160a01b03821681527f81a6b37eeab97da1bb7ac3b3e34fcee45f445c8de943999917a6fe95ed7fa787906020016109e8565b600d80546001600160a01b0319166001600160a01b0383169081179091556040519081527fa706c3d6ff18ff7dfc1ee0a34bc34fe432c200d8d475bff3ed963eb31ae194689060200160405180910390a1600654610ab7906001600160a01b031661213d565b610b1d57600d54610ad0906001600160a01b0316612179565b6000610ada610dcb565b90507f41af6efec37729ca1819094cce85d9ae325b936fda39ac98a58cfcb45d431b4b81604051610b0f911515815260200190565b60405180910390a150610c31565b60405163c9c80f8f60e01b81526008600482015260009073__SpendingManager_______________________9063c9c80f8f9060240160206040518083038186803b158015610b6b57600080fd5b505af4158015610b7f573d6000803e3d6000fd5b505050506040513d601f19601f82011682018060405250810190610ba39190613c5c565b600d54909150610bbc906001600160a01b031682612225565b5060405163aaf6047360e01b8152600060048201526001600160a01b038316602482015273__TokenTracker__________________________9063aaf604739060440160006040518083038186803b158015610c1757600080fd5b505af4158015610c2b573d6000803e3d6000fd5b50505050505b604051639cacd87160e01b8152600e60048201526001600160a01b038216602482015273__WalletGraph___________________________90639cacd871906044015b60006040518083038186803b158015610c8c57600080fd5b505af4158015610ca0573d6000803e3d6000fd5b5050505050565b600654600090610cbf906001600160a01b031661213d565b610cf2576040517fc27dbdcf29e2a161f0420d399444129801e578bafe157fef0370098459e082bf90600090a150600090565b6006546001600160a01b0316301415610d0b5750600190565b610d13610dcb565b610d46576040517fa3a244603d968c02ebd2017f990d4e077cf0381929976be2a0cb07076147a56f90600090a150600090565b6040517f94f696b15fed1e58be1975a224273b56878dda280cb878ec20eb56b6fea7313a90600090a150600190565b600d54600680546001600160a01b0319166001600160a01b0390921691821790556040519081527f83c14e1947c5a639434d6195a6e9d85ab3471a5049c66e0aa46b71e2c0a06dde9060200160405180910390a1565b60065460405160009182916001600160a01b039091169047908381818185875af1925050503d8060008114610e1c576040519150601f19603f3d011682016040523d82523d6000602084013e610e21565b606091505b505090508015610eb857600654600d80546001600160a01b0319166001600160a01b03909216918217905560405163aaf6047360e01b815260006004820152602481019190915273__TokenTracker__________________________9063aaf604739060440160006040518083038186803b158015610e9f57600080fd5b505af4158015610eb3573d6000803e3d6000fd5b505050505b919050565b60006001600160e01b03198216630b135d3f60e11b1480610ee25750610ee282612448565b92915050565b60045460009015610f2c576004600081548110610f1557634e487b7160e01b600052603260045260246000fd5b906000526020600020906002020160000154905090565b5060025490565b60007feb7a68d5a205eea79480f44587fe8146ae15b7e92582967fd1b1b119c9b60efa60018087338a898989604051610f73989796959493929190614391565b60405180910390a16000610f8f600d546001600160a01b031690565b90506001600160a01b038116156110285760405163c841a9db60e01b815273__TokenTracker__________________________9063c841a9db90610fe79060009060019033908b90889084908d908d9060040161459a565b60006040518083038186803b158015610fff57600080fd5b505af4158015611013573d6000803e3d6000fd5b50630a85bd0160e11b94506110a39350505050565b6040516304e9b2db60e31b815273__TokenTracker__________________________9063274d96d8906110679060009060019033908b9060040161456b565b60006040518083038186803b15801561107f57600080fd5b505af4158015611093573d6000803e3d6000fd5b50630a85bd0160e11b9450505050505b95945050505050565b604051634d94f52360e01b815260009073__SignatureManager______________________90634d94f523906110eb906013908790879060040161454c565b60206040518083038186803b15801561110357600080fd5b505af4158015611117573d6000803e3d6000fd5b505050506040513d601f19601f8201168201806040525081019061113b9190613a87565b9392505050565b600080600080600080fd5b600080600080fd5b606080606080600080fd5b60165460ff1661116f57600080fd5b600d546001600160a01b031633146112095760065460405163f35664b160e01b815273__Reveal________________________________9163f35664b1916111d4916002916004916005916001600160a01b0390911690600f908a908a9086016143ef565b60006040518083038186803b1580156111ec57600080fd5b505af4158015611200573d6000803e3d6000fd5b505042600c5550505b61121a61121582614720565b612499565b5050565b604051630139109f60e31b81526013600482015263ffffffff80841660248301528216604482015260609081908190819073__SignatureManager______________________906309c884f89060640160006040518083038186803b15801561128657600080fd5b505af415801561129a573d6000803e3d6000fd5b505050506040513d6000823e601f3d908101601f191682016040526112c291908101906136ba565b9299919850965090945092505050565b6060600e80548060200260200160405190810160405280929190818152602001828054801561132a57602002820191906000526020600020905b81546001600160a01b0316815260019091019060200180831161130c575b5050505050905090565b60165460ff161561134457600080fd5b60005b8160800151518163ffffffff16101561144b57600482608001518263ffffffff168151811061138657634e487b7160e01b600052603260045260246000fd5b60209081029190910181015182546001808201855560009485529383902082516002909202019081559181015191909201805460408401516060850151608086015160a09096015160ff95861661ffff1990941693909317610100928616929092029190911769ffffffffffffffff000019166201000063ffffffff9283160263ffffffff60301b191617600160301b91909516029390931760ff60501b1916600160501b92909316919091029190911790558061144381614822565b915050611347565b5060005b8160a00151518163ffffffff1610156115535760058260a001518263ffffffff168151811061148e57634e487b7160e01b600052603260045260246000fd5b60209081029190910181015182546001808201855560009485529383902082516002909202019081559181015191909201805460408401516060850151608086015160a09096015160ff95861661ffff1990941693909317610100928616929092029190911769ffffffffffffffff000019166201000063ffffffff9283160263ffffffff60301b191617600160301b91909516029390931760ff60501b1916600160501b92909316919091029190911790558061154b81614822565b91505061144f565b5080518051600255602080820151600380546040808601516060808801516080808a015160a09a8b015160ff998a1661ffff1990981697909717610100958a16959095029490941769ffffffffffffffff000019166201000063ffffffff9384160263ffffffff60301b191617600160301b948316949094029390931760ff60501b1916600160501b9790951696909602939093179093558487015180516008558086015160095580820151600a8054838601519684015192881667ffffffffffffffff199091161764010000000096881696909602959095176bffffffff00000000000000001916600160401b9190961602949094179092559190930151600b5591830151600680546001600160a01b0319166001600160a01b0390921691909117905590820151805161168c92600e920190612b67565b5060c081015180516116a691600791602090910190612bcc565b50506016805460ff19166001179055565b60606007805480602002602001604051908101604052809291908181526020016000905b828210156117875783829060005260206000200180546116fa906147e7565b80601f0160208091040260200160405190810160405280929190818152602001828054611726906147e7565b80156117735780601f1061174857610100808354040283529160200191611773565b820191906000526020600020905b81548152906001019060200180831161175657829003601f168201915b5050505050815260200190600101906116db565b50505050905090565b604051631d9037a160e11b8152600060048201526060908190819073__TokenTracker__________________________90633b206f429060240160006040518083038186803b1580156117e257600080fd5b505af41580156117f6573d6000803e3d6000fd5b505050506040513d6000823e601f3d908101601f1916820160405261181e9190810190613761565b925092509250909192565b6060600760008154811061184d57634e487b7160e01b600052603260045260246000fd5b906000526020600020018054611862906147e7565b80601f016020809104026020016040519081016040528092919081815260200182805461188e906147e7565b801561132a5780601f106118b05761010080835404028352916020019161132a565b820191906000526020600020905b8154815290600101906020018083116118be57509395945050505050565b604051635107e51560e11b815260136004820152602481018290526000908190819073__SignatureManager______________________9063a20fca2a9060440160606040518083038186803b15801561193557600080fd5b505af4158015611949573d6000803e3d6000fd5b505050506040513d601f19601f8201168201806040525081019061196d9190613a29565b9250925092509193909250565b60405163732d1f0f60e01b8152600f6004820152606090819081908190819073__CommitManager_________________________9063732d1f0f9060240160006040518083038186803b1580156119d057600080fd5b505af41580156119e4573d6000803e3d6000fd5b505050506040513d6000823e601f3d908101601f19168201604052611a0c91908101906135ef565b945094509450945094509091929394565b60035460009063ffffffff600160301b820481169162010000810490911690611a4f9060ff61010090910416426146c4565b611a5991906146fb565b63ffffffff1611611a6957600080fd5b600654611a7e906001600160a01b031661213d565b611a8757600080fd5b611a8f610dcb565b611a9857600080fd5b6040517fc15f68f0a72806ff3f8bf2435385a67c4c22413f1c7931ef7bcea718e6ffcf0390600090a150600190565b60008060008073__TokenTracker__________________________636489a8db8888886040518463ffffffff1660e01b8152600401611b0893929190614369565b60006040518083038186803b158015611b2057600080fd5b505af4158015611b34573d6000803e3d6000fd5b505050506040513d6000823e601f3d908101601f19168201604052611b5c9190810190613c74565b925092509250818190611b8b5760405162461bcd60e51b8152600401611b829190614356565b60405180910390fd5b50919695505050505050565b60606004805480602002602001604051908101604052809291908181526020016000905b828210156117875760008481526020908190206040805160c081018252600286029092018054835260019081015460ff80821685870152610100820481169385019390935263ffffffff62010000820481166060860152600160301b8204166080850152600160501b900490911660a08301529083529092019101611bbb565b6000805b63ffffffff8116871115611d37573063f23a6e618b8b8b8b63ffffffff8716818110611c7b57634e487b7160e01b600052603260045260246000fd5b905060200201358a8a8763ffffffff16818110611ca857634e487b7160e01b600052603260045260246000fd5b9050602002013589896040518763ffffffff1660e01b8152600401611cd296959493929190613f7e565b602060405180830381600087803b158015611cec57600080fd5b505af1158015611d00573d6000803e3d6000fd5b505050506040513d601f19601f82011682018060405250810190611d249190613a87565b5080611d2f81614822565b915050611c3f565b5063bc197c8160e01b9998505050505050505050565b6060600580548060200260200160405190810160405280929190818152602001600090828210156117875760008481526020908190206040805160c081018252600286029092018054835260019081015460ff80821685870152610100820481169385019390935263ffffffff62010000820481166060860152600160301b8204166080850152600160501b900490911660a08301529083529092019101611bbb565b600354604051631601f47b60e31b8152600f600482015261010090910460ff16602482015260009073__CommitManager_________________________9063b00fa3d89060440160206040518083038186803b158015611e4f57600080fd5b505af4158015611e63573d6000803e3d6000fd5b505050506040513d601f19601f82011682018060405250810190611e879190613cfe565b905090565b6040516391a351d360e01b8152600f600482015260248101829052606090819081908190819073__CommitManager_________________________906391a351d39060440160006040518083038186803b158015611ee957600080fd5b505af4158015611efd573d6000803e3d6000fd5b505050506040513d6000823e601f3d908101601f19168201604052611f2591908101906135ef565b939a9299509097509550909350915050565b60165460ff16611f4657600080fd5b604051632b6e663760e21b8152600f600482015260248101849052604481018390526064810182905273__CommitManager_________________________9063adb998dc9060840160006040518083038186803b158015611fa657600080fd5b505af4158015611fba573d6000803e3d6000fd5b50505050505050565b60007feb7a68d5a205eea79480f44587fe8146ae15b7e92582967fd1b1b119c9b60efa60028588338b8a8989604051612003989796959493929190614391565b60405180910390a1600061201f600d546001600160a01b031690565b90506001600160a01b038116156120b85760405163c841a9db60e01b815273__TokenTracker__________________________9063c841a9db906120779060009060029033908c9088908d908d908d9060040161459a565b60006040518083038186803b15801561208f57600080fd5b505af41580156120a3573d6000803e3d6000fd5b5063f23a6e6160e01b94506121339350505050565b6040516304e9b2db60e31b815273__TokenTracker__________________________9063274d96d8906120f79060009060029033908c9060040161456b565b60006040518083038186803b15801561210f57600080fd5b505af4158015612123573d6000803e3d6000fd5b5063f23a6e6160e01b9450505050505b9695505050505050565b60006001600160a01b03821615801590610ee257506001600160a01b038216737534978f9fa903150ed429c486d1f42b7fdb7a61141592915050565b60065461218e906001600160a01b031661213d565b806121a157506001600160a01b03811630145b156121d757604051600081527f83c14e1947c5a639434d6195a6e9d85ab3471a5049c66e0aa46b71e2c0a06dde906020016109e8565b600680546001600160a01b0319166001600160a01b0383169081179091556040519081527f83c14e1947c5a639434d6195a6e9d85ab3471a5049c66e0aa46b71e2c0a06dde906020016109e8565b60405163075f723760e11b8152600860048201526001600160a01b038316602482015260448101829052600090819073__SpendingManager_______________________90630ebee46e9060640160206040518083038186803b15801561228b57600080fd5b505af415801561229f573d6000803e3d6000fd5b505050506040513d601f19601f820116820180604052508101906122c39190613988565b9050806122d4576000915050610ee2565b60405163ddc7babd60e01b8152600860048201526024810184905273__SpendingManager_______________________9063ddc7babd9060440160006040518083038186803b15801561232657600080fd5b505af415801561233a573d6000803e3d6000fd5b50505050600080856001600160a01b03168560405160006040518083038185875af1925050503d806000811461238c576040519150601f19603f3d011682016040523d82523d6000602084013e612391565b606091505b5091509150816123fb5784600860010160008282546123b091906146e4565b90915550506040517ff5c313ebe4b0c35fe244772061cea14ddbae7ed089b2850d6ee2235fd42847e4906123e79088908490613f52565b60405180910390a160009350505050610ee2565b604080518681526001600160a01b03881660208201527f8f4636f285a9a17fe3479ab47bb7a5deadaf9b2295a16c3965f55fa48e542d1f910160405180910390a150600195945050505050565b60006001600160e01b031982166301ffc9a760e01b148061247957506001600160e01b0319821663f23a6e6160e01b145b80610ee257506001600160e01b03198216630a85bd0160e11b1492915050565b6004815160198111156124bc57634e487b7160e01b600052602160045260246000fd5b14156124d45761121a81608001518260a00151612225565b6006815160198111156124f757634e487b7160e01b600052602160045260246000fd5b14156125055761121a610ca7565b60058151601981111561252857634e487b7160e01b600052602160045260246000fd5b141561253e5761253b8160800151612179565b50565b60088151601981111561256157634e487b7160e01b600052602160045260246000fd5b14156125745761253b81608001516109f3565b60158151601981111561259757634e487b7160e01b600052602160045260246000fd5b14156125ca5760608101516125bd5761253b81604001518260a001518360c001516126be565b61253b8160c00151612918565b6007815160198111156125ed57634e487b7160e01b600052602160045260246000fd5b14156126455760c0810151600d5460405162dcdcfb60e51b815273__CoreManager___________________________92631b9b9f6092610c7492600492600592600292600792916001600160a01b0316908601614310565b60168151601981111561266857634e487b7160e01b600052602160045260246000fd5b141561267b5761253b8160c00151612aea565b6040516338e617e360e21b815273__Executor______________________________9063e3985f8c90610c74908490600090600e906013906008906004016144ac565b60405163075f723760e11b8152600860048201526001600160a01b03841660248201526044810183905260009073__SpendingManager_______________________90630ebee46e9060640160206040518083038186803b15801561272257600080fd5b505af4158015612736573d6000803e3d6000fd5b505050506040513d601f19601f8201168201806040525081019061275a9190613988565b9050806127a2577f4d62b9a6ffb55cee5d5dc75b67dc0013b2cce2fa73c7a715ad72dedc5ffdc60c84848460405161279493929190614009565b60405180910390a150505050565b60405163ddc7babd60e01b8152600860048201526024810184905273__SpendingManager_______________________9063ddc7babd9060440160006040518083038186803b1580156127f457600080fd5b505af4158015612808573d6000803e3d6000fd5b50505050600080856001600160a01b031685856040516128289190613f36565b60006040518083038185875af1925050503d8060008114612865576040519150601f19603f3d011682016040523d82523d6000602084013e61286a565b606091505b509150915081156128b7577f594eb1d75e7963acdb8e3677a186a5ed35924ab37f2b20e78aea6516bbc9bd6e868686846040516128aa9493929190613fc5565b60405180910390a1612910565b84600860010160008282546128cc91906146e4565b90915550506040517f4d62b9a6ffb55cee5d5dc75b67dc0013b2cce2fa73c7a715ad72dedc5ffdc60c90612907908890889088908690613fc5565b60405180910390a15b505050505050565b6000806000838060200190518101906129319190613416565b9250925092506000805b83518163ffffffff16101561299757838163ffffffff168151811061297057634e487b7160e01b600052603260045260246000fd5b60200260200101518261298391906146ac565b91508061298f81614822565b91505061293b565b5060405163075f723760e11b815260086004820152600060248201526044810182905273__SpendingManager_______________________90630ebee46e9060640160206040518083038186803b1580156129f157600080fd5b505af4158015612a05573d6000803e3d6000fd5b505050506040513d601f19601f82011682018060405250810190612a299190613988565b612a34575050505050565b60005b84518163ffffffff16101561291057612ad8858263ffffffff1681518110612a6f57634e487b7160e01b600052603260045260246000fd5b6020026020010151858363ffffffff1681518110612a9d57634e487b7160e01b600052603260045260246000fd5b6020026020010151858463ffffffff1681518110612acb57634e487b7160e01b600052603260045260246000fd5b60200260200101516126be565b80612ae281614822565b915050612a37565b600081806020019051810190612b009190613849565b805190915060005b8160ff168163ffffffff161015612b6157612b4f838263ffffffff1681518110612b4257634e487b7160e01b600052603260045260246000fd5b6020026020010151612499565b80612b5981614822565b915050612b08565b50505050565b828054828255906000526020600020908101928215612bbc579160200282015b82811115612bbc57825182546001600160a01b0319166001600160a01b03909116178255602090920191600190910190612b87565b50612bc8929150612c25565b5090565b828054828255906000526020600020908101928215612c19579160200282015b82811115612c195782518051612c09918491602090910190612c3a565b5091602001919060010190612bec565b50612bc8929150612cae565b5b80821115612bc85760008155600101612c26565b828054612c46906147e7565b90600052602060002090601f016020900481019282612c685760008555612bbc565b82601f10612c8157805160ff1916838001178555612bbc565b82800160010185558215612bbc579182015b82811115612bbc578251825591602001919060010190612c93565b80821115612bc8576000612cc28282612ccb565b50600101612cae565b508054612cd7906147e7565b6000825580601f10612ce7575050565b601f01602090049060005260206000209081019061253b9190612c25565b6000612d18612d1384614685565b614632565b9050828152838383011115612d2c57600080fd5b61113b8360208301846147bb565b8035610eb881614888565b8051610eb881614888565b600082601f830112612d60578081fd5b81516020612d70612d1383614662565b80838252828201915082860187848660051b8901011115612d8f578586fd5b855b85811015612db6578151612da481614888565b84529284019290840190600101612d91565b5090979650505050505050565b600082601f830112612dd3578081fd5b81516020612de3612d1383614662565b80838252828201915082860187848660051b8901011115612e02578586fd5b855b85811015612db657612e158261308a565b84529284019290840190600101612e04565b60008083601f840112612e38578182fd5b5081356001600160401b03811115612e4e578182fd5b6020830191508360208260051b8501011115612e6957600080fd5b9250929050565b600082601f830112612e80578081fd5b81516020612e90612d1383614662565b80838252828201915082860187848660051b8901011115612eaf578586fd5b855b85811015612db657815184529284019290840190600101612eb1565b600082601f830112612edd578081fd5b81356020612eed612d1383614662565b80838252828201915082860187848660051b8901011115612f0c578586fd5b855b85811015612db65781356001600160401b03811115612f2b578788fd5b612f398a87838c01016130d9565b8552509284019290840190600101612f0e565b600082601f830112612f5c578081fd5b81356020612f6c612d1383614662565b80838252828201915082860187848660051b8901011115612f8b578586fd5b855b85811015612db6578135612fa081614888565b84529284019290840190600101612f8d565b600082601f830112612fc2578081fd5b81356020612fd2612d1383614662565b8281528181019085830160c080860288018501891015612ff0578687fd5b865b86811015613016576130048a84613170565b85529385019391810191600101612ff2565b509198975050505050505050565b600082601f830112613034578081fd5b81516020613044612d1383614662565b80838252828201915082860187848660051b8901011115613063578586fd5b855b85811015612db6578151613078816148cd565b84529284019290840190600101613065565b80518015158114610eb857600080fd5b60008083601f8401126130ab578182fd5b5081356001600160401b038111156130c1578182fd5b602083019150836020828501011115612e6957600080fd5b600082601f8301126130e9578081fd5b81356130f7612d1382614685565b81815284602083860101111561310b578283fd5b816020850160208301379081016020019190915292915050565b600082601f830112613135578081fd5b61113b83835160208501612d05565b8035610eb8816148b3565b8051610eb8816148b3565b8035610eb8816148c0565b8051610eb8816148c0565b600060c08284031215613181578081fd5b6131896145e8565b905081358152602082013561319d816148df565b602082015260408201356131b0816148df565b604082015260608201356131c3816148cd565b606082015260808201356131d6816148cd565b608082015260a08201356131e9816148df565b60a082015292915050565b600060c08284031215613205578081fd5b61320d6145e8565b90508135815260208201356020820152604082013561322b816148cd565b6040820152606082013561323e816148cd565b60608201526080820135613251816148cd565b8060808301525060a082013560a082015292915050565b8035610eb8816148cd565b60008060008060008060008060a0898b03121561328e578384fd5b883561329981614888565b975060208901356132a981614888565b965060408901356001600160401b03808211156132c4578586fd5b6132d08c838d01612e27565b909850965060608b01359150808211156132e8578586fd5b6132f48c838d01612e27565b909650945060808b013591508082111561330c578384fd5b506133198b828c0161309a565b999c989b5096995094979396929594505050565b600080600080600060808688031215613344578283fd5b853561334f81614888565b9450602086013561335f81614888565b93506040860135925060608601356001600160401b03811115613380578182fd5b61338c8882890161309a565b969995985093965092949392505050565b60008060008060008060a087890312156133b5578384fd5b86356133c081614888565b955060208701356133d081614888565b9450604087013593506060870135925060808701356001600160401b038111156133f8578283fd5b61340489828a0161309a565b979a9699509497509295939492505050565b60008060006060848603121561342a578081fd5b83516001600160401b0380821115613440578283fd5b61344c87838801612d50565b9450602091508186015181811115613462578384fd5b61346e88828901612e70565b945050604086015181811115613482578384fd5b8601601f81018813613492578384fd5b80516134a0612d1382614662565b8082825285820191508584018b878560051b87010111156134bf578788fd5b875b848110156134f8578151878111156134d757898afd5b6134e58e8a838a0101613125565b85525092870192908701906001016134c1565b50508096505050505050509250925092565b6000806000806000806000806000806000806101408d8f03121561352c578586fd5b6001600160401b038d351115613540578586fd5b61354d8e8e358f01612e27565b909c509a5061355e60208e01613268565b995060408d0135985061357360608e01613144565b975061358160808e0161315a565b965061358f60a08e01612d3a565b955060c08d013594506135a460e08e01612d3a565b93506101008d013592506001600160401b036101208e013511156135c6578081fd5b6135d78e6101208f01358f0161309a565b81935080925050509295989b509295989b509295989b565b600080600080600060a08688031215613606578283fd5b85516001600160401b038082111561361c578485fd5b61362889838a01612e70565b9650602088015191508082111561363d578485fd5b61364989838a01612e70565b9550604088015191508082111561365e578485fd5b61366a89838a01612e70565b9450606088015191508082111561367f578283fd5b61368b89838a01613024565b935060808801519150808211156136a0578283fd5b506136ad88828901612dc3565b9150509295509295909350565b600080600080608085870312156136cf578182fd5b84516001600160401b03808211156136e5578384fd5b6136f188838901612e70565b95506020870151915080821115613706578384fd5b61371288838901612e70565b94506040870151915080821115613727578384fd5b61373388838901613024565b93506060870151915080821115613748578283fd5b5061375587828801613024565b91505092959194509250565b600080600060608486031215613775578081fd5b83516001600160401b038082111561378b578283fd5b818601915086601f83011261379e578283fd5b815160206137ae612d1383614662565b8083825282820191508286018b848660051b89010111156137cd578788fd5b8796505b848710156137f85780516137e4816148c0565b8352600196909601959183019183016137d1565b5091890151919750909350505080821115613811578283fd5b61381d87838801612d50565b93506040860151915080821115613832578283fd5b5061383f86828701612e70565b9150509250925092565b6000602080838503121561385b578182fd5b82516001600160401b0380821115613871578384fd5b818501915085601f830112613884578384fd5b8151613892612d1382614662565b80828252858201915085850189878560051b88010111156138b1578788fd5b875b84811015613979578151868111156138c957898afd5b870160e0818d03601f19018113156138df578a8bfd5b6138e7614610565b6138f28b840161314f565b81526040613901818501613165565b8c8301526060613912818601612d45565b828401526080915081850151818401525060a0613930818601612d45565b8284015260c0915081850151818401525082840151925089831115613953578c8dfd5b6139618f8d85870101613125565b908201528652505092870192908701906001016138b3565b50909998505050505050505050565b600060208284031215613999578081fd5b61113b8261308a565b6000602082840312156139b3578081fd5b5035919050565b6000806000606084860312156139ce578081fd5b505081359360208301359350604090920135919050565b600080604083850312156139f7578182fd5b8235915060208301356001600160401b03811115613a13578182fd5b613a1f858286016130d9565b9150509250929050565b600080600060608486031215613a3d578081fd5b835192506020840151613a4f816148cd565b6040850151909250613a60816148cd565b809150509250925092565b600060208284031215613a7c578081fd5b813561113b8161489d565b600060208284031215613a98578081fd5b815161113b8161489d565b600080600060608486031215613ab7578081fd5b8335613ac2816148c0565b92506020840135613ad281614888565b929592945050506040919091013590565b60008060408385031215613af5578182fd5b82356001600160401b0380821115613b0b578384fd5b9084019060608287031215613b1e578384fd5b90925060208401359080821115613b33578283fd5b50830160e08186031215613b45578182fd5b809150509250929050565b600060208284031215613b61578081fd5b81356001600160401b0380821115613b77578283fd5b908301906102208286031215613b8b578283fd5b613b93614610565b613b9d8684613170565b8152613bac8660c085016131f4565b6020820152613bbe6101808401612d3a565b60408201526101a083013582811115613bd5578485fd5b613be187828601612f4c565b6060830152506101c083013582811115613bf9578485fd5b613c0587828601612fb2565b6080830152506101e083013582811115613c1d578485fd5b613c2987828601612fb2565b60a08301525061020083013582811115613c41578485fd5b613c4d87828601612ecd565b60c08301525095945050505050565b600060208284031215613c6d578081fd5b5051919050565b600080600060608486031215613c88578081fd5b83519250613c986020850161308a565b915060408401516001600160401b03811115613cb2578182fd5b8401601f81018613613cc2578182fd5b61383f86825160208401612d05565b60008060408385031215613ce3578182fd5b8235613cee816148cd565b91506020830135613b45816148cd565b600060208284031215613d0f578081fd5b815161113b816148df565b6000815180845260208085019450808401835b83811015613d4b578151151587529582019590820190600101613d2d565b509495945050505050565b81835260006001600160fb1b03831115613d6e578081fd5b8260051b80836020870137939093016020019283525090919050565b6000815180845260208085019450808401835b83811015613d4b57815187529582019590820190600101613d9d565b6000815180845260208085019450808401835b83811015613d4b57815163ffffffff1687529582019590820190600101613dcc565b81835281816020850137506000828201602090810191909152601f909101601f19169091010190565b60008151808452613e2f8160208601602086016147bb565b601f01601f19169290920160200192915050565b601a8110613e5357613e5361485c565b9052565b60048110613e5357613e5361485c565b60008135613e74816148b3565b613e7e8482613e43565b506020820135613e8d816148c0565b613e9a6020850182613e57565b506040820135613ea981614888565b6001600160a01b03908116604085015260608381013590850152608083013590613ed282614888565b16608084015260a0828101359084015260c082013536839003601e19018112613ef9578182fd5b820180356001600160401b03811115613f10578283fd5b803603841315613f1e578283fd5b60e060c08601526110a360e086018260208501613dee565b60008251613f488184602087016147bb565b9190910192915050565b6001600160a01b0383168152604060208201819052600090613f7690830184613e17565b949350505050565b6001600160a01b03878116825286166020820152604081018590526060810184905260a060808201819052600090613fb99083018486613dee565b98975050505050505050565b60018060a01b0385168152836020820152608060408201526000613fec6080830185613e17565b8281036060840152613ffe8185613e17565b979650505050505050565b60018060a01b03841681528260208201526080604082015260006140306080830184613e17565b82810360609093019290925281526020019392505050565b60a08152600061405b60a0830188613d8a565b828103602084015261406d8188613d8a565b905082810360408401526140818187613d8a565b905082810360608401526140958186613db9565b90508281036080840152613fb98185613d1a565b6080815260006140bc6080830187613d8a565b82810360208401526140ce8187613d8a565b905082810360408401526140e28186613db9565b90508281036060840152613ffe8185613d1a565b6080815260006141096080830187613d8a565b828103602084015261411b8187613d8a565b9050828103604084015261412f8186613db9565b90508281036060840152613ffe8185613db9565b6000602080830181845280855180835260408601915060408160051b8701019250838701855b8281101561419757603f19888603018452614185858351613e17565b94509285019290850190600101614169565b5092979650505050505050565b6020808252825182820181905260009190848201906040850190845b818110156141e55783516001600160a01b0316835292840192918401916001016141c0565b50909695505050505050565b606080825284519082018190526000906020906080840190828801845b8281101561423157614221848351613e57565b928401929084019060010161420e565b50505083810382850152855180825286830191830190845b8181101561426e5783516001600160a01b031683529284019291840191600101614249565b50508481036040860152613fb98187613d8a565b602080825282518282018190526000919060409081850190868401855b82811015614303578151805185528681015160ff908116888701528682015181168787015260608083015163ffffffff908116918801919091526080808401519091169087015260a091820151169085015260c0909301929085019060010161429f565b5091979650505050505050565b86815285602082015284604082015283606082015260c06080820152600061433b60c0830185613e17565b905060018060a01b03831660a0830152979650505050505050565b60208152600061113b6020830184613e17565b606081016143778286613e57565b6001600160a01b0393909316602082015260400152919050565b61439b818a613e57565b602081018890526001600160a01b03878116604083015286811660608301528516608082015260a0810184905260e060c082018190526000906143e19083018486613dee565b9a9950505050505050505050565b87815260208101879052604081018690526001600160a01b03851660608201526080810184905260e060a08201526000833536859003601e19018112614433578182fd5b840180356001600160401b0381111561444a578283fd5b8060051b360386131561445b578283fd5b606060e085015261447461014085018260208501613d56565b91505061448360208601613268565b63ffffffff16610100840152604085013561012084015282810360c08401526143e18185613e67565b60a081526144be60a082018751613e43565b600060208701516144d260c0840182613e57565b50604087015160018060a01b0380821660e085015260608901516101008501528060808a015116610120850152505060a087015161014083015260c087015160e0610160840152614527610180840182613e17565b9150508560208301528460408301528360608301528260808301529695505050505050565b8381528260208201526060604082015260006110a36060830184613e17565b8481526080810161457f6020830186613e57565b6001600160a01b039390931660408201526060015292915050565b8881526145aa6020820189613e57565b6001600160a01b038781166040830152606082018790528516608082015260a0810184905260e060c082018190526000906143e19083018486613dee565b60405160c081016001600160401b038111828210171561460a5761460a614872565b60405290565b60405160e081016001600160401b038111828210171561460a5761460a614872565b604051601f8201601f191681016001600160401b038111828210171561465a5761465a614872565b604052919050565b60006001600160401b0382111561467b5761467b614872565b5060051b60200190565b60006001600160401b0382111561469e5761469e614872565b50601f01601f191660200190565b600082198211156146bf576146bf614846565b500190565b6000826146df57634e487b7160e01b81526012600452602481fd5b500490565b6000828210156146f6576146f6614846565b500390565b600063ffffffff8381169083168181101561471857614718614846565b039392505050565b600060e08236031215614731578081fd5b614739614610565b61474283613144565b81526147506020840161315a565b602082015261476160408401612d3a565b60408201526060830135606082015261477c60808401612d3a565b608082015260a083013560a082015260c08301356001600160401b038111156147a3578283fd5b6147af368286016130d9565b60c08301525092915050565b60005b838110156147d65781810151838201526020016147be565b83811115612b615750506000910152565b600181811c908216806147fb57607f821691505b6020821081141561481c57634e487b7160e01b600052602260045260246000fd5b50919050565b600063ffffffff8083168181141561483c5761483c614846565b6001019392505050565b634e487b7160e01b600052601160045260246000fd5b634e487b7160e01b600052602160045260246000fd5b634e487b7160e01b600052604160045260246000fd5b6001600160a01b038116811461253b57600080fd5b6001600160e01b03198116811461253b57600080fd5b601a811061253b57600080fd5b6004811061253b57600080fd5b63ffffffff8116811461253b57600080fd5b60ff8116811461253b57600080fdfea26469706673582212202b24e4d5a828c62c1552628b16cea9445a82729bdf0e7c125f44e68dfc4e9cd564736f6c63430008040033",
  "immutableReferences": {},
  "source": "// SPDX-License-Identifier: Apache-2.0\npragma solidity ^0.8.4;\n\nimport \"./SpendingManager.sol\";\nimport \"./CommitManager.sol\";\nimport \"./TokenManager.sol\";\nimport \"./DomainManager.sol\";\nimport \"./SignatureManager.sol\";\nimport \"./Reveal.sol\";\nimport \"./WalletGraph.sol\";\nimport \"./Enums.sol\";\nimport \"./IONEWallet.sol\";\nimport \"./AbstractONEWallet.sol\";\nimport \"./CoreManager.sol\";\nimport \"./Executor.sol\";\nimport \"./Recovery.sol\";\nimport \"./Version.sol\";\n\ncontract ONEWallet is TokenManager, AbstractONEWallet {\n    using TokenTracker for TokenTracker.TokenTrackerState;\n    using WalletGraph for IONEWallet[];\n    using SignatureManager for SignatureManager.SignatureTracker;\n    using SpendingManager for SpendingManager.SpendingState;\n    using CommitManager for CommitManager.CommitState;\n    using Reveal for CoreSetting;\n\n    CoreSetting core;\n    CoreSetting[] oldCores;\n    CoreSetting[] innerCores;\n\n    /// global mutable variables\n    address payable recoveryAddress; // where money will be sent during a recovery process (or when the wallet is beyond its lifespan)\n    bytes[] identificationKeys;\n\n    SpendingManager.SpendingState spendingState;\n\n    uint256 public override lastOperationTime; // in seconds; record the time for the last successful reveal\n    address payable forwardAddress; // a non-empty forward address assumes full control of this contract. A forward address can only be set upon a successful recovery or upgrade operation.\n    IONEWallet[] backlinkAddresses; // to be set in next version - these are addresses forwarding funds and tokens to this contract AND must have their forwardAddress updated if this contract's forwardAddress is set or updated. One example of such an address is a previous version of the wallet \"upgrading\" to a new version. See more at https://github.com/polymorpher/one-wallet/issues/78\n\n    /// commit management\n    CommitManager.CommitState commitState;\n    SignatureManager.SignatureTracker signatures;\n\n    bool initialized = false;\n\n    function initialize(InitParams memory initParams) override external\n    {\n        require(!initialized);\n        for (uint32 i = 0; i < initParams.oldCores.length; i++) {\n            oldCores.push(initParams.oldCores[i]);\n        }\n        for (uint32 i = 0; i < initParams.innerCores.length; i++) {\n            innerCores.push(initParams.innerCores[i]);\n        }\n        core = initParams.core;\n        spendingState = initParams.spendingState;\n        recoveryAddress = initParams.recoveryAddress;\n        backlinkAddresses = initParams.backlinkAddresses;\n        identificationKeys = initParams.identificationKeys;\n        initialized = true;\n    }\n\n    function identificationKey() external override view returns (bytes memory){\n        return identificationKeys[0];\n    }\n\n    function getIdentificationKeys() external override view returns (bytes[] memory){\n        return identificationKeys;\n    }\n\n    function _getForwardAddress() internal override view returns (address payable){\n        return forwardAddress;\n    }\n\n    function getForwardAddress() external override view returns (address payable){\n        return forwardAddress;\n    }\n\n    function _forwardPayment() internal {\n        (bool success,) = forwardAddress.call{value : msg.value}(\"\");\n        require(success);\n        emit PaymentForwarded(msg.value, msg.sender);\n    }\n\n    receive() external payable {\n        require(initialized);\n        if (forwardAddress != address(0)) {// this wallet already has a forward address set - standard recovery process should not apply\n            if (forwardAddress == recoveryAddress) {// in this case, funds should be forwarded to forwardAddress no matter what\n                _forwardPayment();\n                return;\n            }\n            if (msg.sender == recoveryAddress) {// this case requires special handling\n                if (msg.value == Recovery.AUTO_RECOVERY_TRIGGER_AMOUNT) {// in this case, send funds to recovery address and reclaim forwardAddress to recovery address\n                    _forward(recoveryAddress);\n                    _recover();\n                    return;\n                }\n                // any other amount is deemed to authorize withdrawal of all funds to forwardAddress\n                _overrideRecoveryAddress();\n                _recover();\n                return;\n            }\n            // if sender is anyone else (including self), simply forward the payment\n            _forwardPayment();\n            return;\n        }\n        if (msg.value != Recovery.AUTO_RECOVERY_TRIGGER_AMOUNT) {\n            return;\n        }\n        if (msg.sender != recoveryAddress) {\n            return;\n        }\n        if (msg.sender == address(this)) {\n            return;\n        }\n        if (block.timestamp < lastOperationTime + Recovery.AUTO_RECOVERY_MANDATORY_WAIT_TIME) {\n            emit AutoRecoveryTriggeredPrematurely(msg.sender, lastOperationTime + Recovery.AUTO_RECOVERY_MANDATORY_WAIT_TIME);\n            return;\n        }\n        emit AutoRecoveryTriggered(msg.sender);\n        require(_drain());\n    }\n\n    function retire() external override returns (bool)\n    {\n        require(uint32(block.timestamp / core.interval) - core.t0 > core.lifespan);\n        require(Recovery.isRecoveryAddressSet(recoveryAddress));\n        require(_drain());\n        emit Retired();\n        return true;\n    }\n\n    function getInfo() external override view returns (bytes32, uint8, uint8, uint32, uint32, uint8, address, uint256){\n        return (core.root, core.height, core.interval, core.t0, core.lifespan, core.maxOperationsPerInterval, recoveryAddress, 0);\n    }\n\n    function getOldInfos() external override view returns (CoreSetting[] memory){\n        return oldCores;\n    }\n\n    function getInnerCores() external override view returns (CoreSetting[] memory){\n        return innerCores;\n    }\n\n    function getRootKey() external override view returns (bytes32){\n        if (oldCores.length > 0) {\n            return oldCores[0].root;\n        }\n        return core.root;\n    }\n\n    function getVersion() external override pure returns (uint32, uint32){\n        return (Version.majorVersion, Version.minorVersion);\n    }\n\n    function getSpendingState() external override view returns (SpendingManager.SpendingState memory){\n        return spendingState;\n    }\n\n    function getNonce() external override view returns (uint8){\n        return commitState.getNonce(core.interval);\n    }\n\n    function getTrackedTokens() external override view returns (Enums.TokenType[] memory, address[] memory, uint256[] memory){\n        return tokenTrackerState.getTrackedTokens();\n    }\n\n    function getBalance(Enums.TokenType tokenType, address contractAddress, uint256 tokenId) external override view returns (uint256){\n        (uint256 balance, bool success, string memory reason) = TokenTracker.getBalance(tokenType, contractAddress, tokenId);\n        require(success, reason);\n        return balance;\n    }\n\n    function getAllCommits() external override view returns (bytes32[] memory, bytes32[] memory, bytes32[] memory, uint32[] memory, bool[] memory){\n        return commitState.getAllCommits();\n    }\n\n\n    function lookupCommit(bytes32 hash) external override view returns (bytes32[] memory, bytes32[] memory, bytes32[] memory, uint32[] memory, bool[] memory){\n        return commitState.lookupCommit(hash);\n    }\n\n    function commit(bytes32 hash, bytes32 paramsHash, bytes32 verificationHash) external override {\n        require(initialized);\n        commitState.commit(hash, paramsHash, verificationHash);\n    }\n\n    /// require approval using recovery cores, unless recovery address is set\n    function _forward(address payable dest) internal {\n        if (address(forwardAddress) == address(this) || dest == address(0)) {\n            emit ForwardAddressInvalid(dest);\n            return;\n        }\n        // TODO: in the next version, add a flag in the parameter indicating whether the operation is from the forwardAddress. If the flag is set, skip the check below\n        //        if (forwardAddress != address(0)) {\n        //            if (!_isRecoveryAddressSet() || dest != recoveryAddress) {\n        //                emit ForwardAddressAlreadySet(dest);\n        //                return;\n        //            }\n        //        }\n        forwardAddress = dest;\n        emit ForwardAddressUpdated(dest);\n        if (!Recovery.isRecoveryAddressSet(recoveryAddress)) {\n            // Under this condition, the authentication would be done through recovery cores. Therefore, we can transfer all assets without violating the principal that no operation should spend more than what is specified in spend limit\n            _setRecoveryAddress(forwardAddress);\n            bool drainSuccess = _drain();\n            emit ForwardedBalance(drainSuccess);\n        } else {\n            // Under this condition, the authentication is done through regular cores (oldCores + core). Only assets within spend limit should be transferred. Transfer of the rest should be approved by recovery address (sending 0.1 ONE)\n            uint256 budget = spendingState.getRemainingAllowance();\n            _transfer(forwardAddress, budget);\n            tokenTrackerState.recoverAllTokens(dest);\n        }\n        backlinkAddresses.batchUpdateForwardAddress(dest);\n    }\n\n    /// This function sends all remaining funds and tokens in the wallet to `recoveryAddress`. The caller should verify that `recoveryAddress` is not null.\n    function _drain() internal returns (bool) {\n        // this may be triggered after revealing the proof, and we must prevent revert in all cases\n        (bool success,) = recoveryAddress.call{value : address(this).balance}(\"\");\n        if (success) {\n            forwardAddress = recoveryAddress;\n            tokenTrackerState.recoverAllTokens(recoveryAddress);\n        }\n        return success;\n    }\n\n    function _transfer(address payable dest, uint256 amount) internal returns (bool) {\n        bool canSpend = spendingState.canSpend(dest, amount);\n        if (!canSpend) {\n            return false;\n        }\n        spendingState.accountSpending(amount);\n        (bool success, bytes memory ret) = dest.call{value : amount}(\"\");\n        // we do not want to revert the whole transaction if this operation fails, since EOTP is already revealed\n        if (!success) {\n            spendingState.spentAmount -= amount;\n            emit TransferError(dest, ret);\n            return false;\n        }\n        emit PaymentSent(amount, dest);\n        return true;\n    }\n\n    /// To initiate recovery, client should submit leaf_{-1} as eotp, where leaf_{-1} is the last leaf in OTP Merkle Tree. Note that leaf_0 = hasher(hseed . nonce . OTP . randomness) where hasher is either sha256 or argon2, depending on client's security parameters. The definition of leaf_{-1} ensures attackers cannot use widespread miners to brute-force for seed or hseed, even if keccak256(leaf_{i}) for any i is known. It has been considered that leaf_0 should be used instead of leaf_{-1}, because leaf_0 is extremely unlikely to be used for any wallet operation. It is only used if the user performs any operation within the first 60 seconds of seed generation (when QR code is displayed). Regardless of which leaf is used to trigger recovery, this mechanism ensures hseed remains secret at the client. Even when the leaf becomes public (on blockchain), it is no longer useful because the wallet would already be deprecated (all assets transferred out). It can be used to repeatedly trigger recovery on this deprecated wallet, but that would cause no harm.\n    function _recover() internal returns (bool){\n        if (!Recovery.isRecoveryAddressSet(recoveryAddress)) {\n            emit LastResortAddressNotSet();\n            return false;\n        }\n        if (recoveryAddress == address(this)) {// this should not happen unless recoveryAddress is set at contract creation time, and is deliberately set to contract's own address\n            // nothing needs to be done;\n            return true;\n        }\n        if (!_drain()) {\n            emit RecoveryFailure();\n            return false;\n        }\n        emit RecoveryTriggered();\n        return true;\n    }\n\n    function _overrideRecoveryAddress() internal {\n        recoveryAddress = forwardAddress;\n        emit RecoveryAddressUpdated(recoveryAddress);\n    }\n\n    function _setRecoveryAddress(address payable recoveryAddress_) internal {\n        if (Recovery.isRecoveryAddressSet(recoveryAddress) || recoveryAddress_ == address(this)) {\n            emit RecoveryAddressUpdated(address(0));\n            return;\n        }\n        recoveryAddress = recoveryAddress_;\n        emit RecoveryAddressUpdated(recoveryAddress);\n    }\n\n    function _batch(bytes memory data) internal {\n        OperationParams[] memory batchParams = abi.decode(data, (OperationParams[]));\n        uint8 len = uint8(batchParams.length);\n        for (uint32 i = 0; i < len; i++) {\n            _execute(batchParams[i]);\n        }\n    }\n\n    function reveal(AuthParams calldata auth, OperationParams calldata op) external override {\n        require(initialized);\n        if (msg.sender != forwardAddress) {\n            core.authenticate(oldCores, innerCores, recoveryAddress, commitState, auth, op);\n            lastOperationTime = block.timestamp;\n        }\n        _execute(op);\n    }\n\n    function _execute(OperationParams memory op) internal {\n        // No revert should occur below this point\n        if (op.operationType == Enums.OperationType.TRANSFER) {\n            _transfer(op.dest, op.amount);\n        } else if (op.operationType == Enums.OperationType.RECOVER) {\n            _recover();\n        } else if (op.operationType == Enums.OperationType.SET_RECOVERY_ADDRESS) {\n            _setRecoveryAddress(op.dest);\n        } else if (op.operationType == Enums.OperationType.FORWARD) {\n            _forward(op.dest);\n        } else if (op.operationType == Enums.OperationType.CALL) {\n            if (op.tokenId == 0) {\n                _callContract(op.contractAddress, op.amount, op.data);\n            } else {\n                _multiCall(op.data);\n            }\n        } else if (op.operationType == Enums.OperationType.DISPLACE) {\n            CoreManager.displace(oldCores, innerCores, core, identificationKeys, op.data, forwardAddress);\n        } else if (op.operationType == Enums.OperationType.BATCH) {\n            _batch(op.data);\n        } else {\n            Executor.execute(op, tokenTrackerState, backlinkAddresses, signatures, spendingState);\n        }\n    }\n\n    function getBacklinks() external override view returns (IONEWallet[] memory){\n        return backlinkAddresses;\n    }\n\n    function _callContract(address contractAddress, uint256 amount, bytes memory encodedWithSignature) internal {\n        bool canSpend = spendingState.canSpend(contractAddress, amount);\n        if (!canSpend) {\n            emit ExternalCallFailed(contractAddress, amount, encodedWithSignature, \"\");\n            return;\n        }\n        spendingState.accountSpending(amount);\n        (bool success, bytes memory ret) = contractAddress.call{value : amount}(encodedWithSignature);\n        if (success) {\n            emit ExternalCallCompleted(contractAddress, amount, encodedWithSignature, ret);\n        } else {\n            spendingState.spentAmount -= amount;\n            emit ExternalCallFailed(contractAddress, amount, encodedWithSignature, ret);\n        }\n    }\n\n    function _multiCall(bytes memory data) internal {\n        (address[] memory dest, uint256[] memory amounts, bytes[] memory encoded) = abi.decode(data, (address[], uint256[], bytes[]));\n        uint256 totalAmount = 0;\n        for (uint32 i = 0; i < amounts.length; i++) {\n            totalAmount += amounts[i];\n        }\n        if (!spendingState.canSpend(address(0), totalAmount)) {\n            return;\n        }\n        for (uint32 i = 0; i < dest.length; i++) {\n            _callContract(dest[i], amounts[i], encoded[i]);\n        }\n    }\n\n    function supportsInterface(bytes4 interfaceId) public override pure returns (bool) {\n        return interfaceId == this.isValidSignature.selector || TokenManager.supportsInterface(interfaceId);\n    }\n\n    function isValidSignature(bytes32 hash, bytes memory signatureBytes) override public view returns (bytes4){\n        return signatures.isValidSignature(hash, signatureBytes);\n    }\n\n    function listSignatures(uint32 start, uint32 end) external override view returns (bytes32[] memory, bytes32[] memory, uint32[] memory, uint32[] memory){\n        return signatures.list(start, end);\n    }\n\n    function lookupSignature(bytes32 hash) external override view returns (bytes32, uint32, uint32){\n        return signatures.lookup(hash);\n    }\n\n}\n",
  "sourcePath": "/Users/john/one-wallet/one-wallet/code/contracts/ONEWallet.sol",
  "compiler": {
    "name": "solc",
    "version": "0.8.4+commit.c7e474f2.Emscripten.clang"
  },
  "schemaVersion": "3.4.3",
  "updatedAt": "2022-03-08T00:51:56.900Z",
  "devdoc": {
    "kind": "dev",
    "methods": {
      "onERC1155BatchReceived(address,address,uint256[],uint256[],bytes)": {
        "details": "Handles the receipt of a multiple ERC1155 token types. This function is called at the end of a `safeBatchTransferFrom` after the balances have been updated. To accept the transfer(s), this must return `bytes4(keccak256(\"onERC1155BatchReceived(address,address,uint256[],uint256[],bytes)\"))` (i.e. 0xbc197c81, or its own function selector).",
        "params": {
          "data": "Additional data with no specified format",
          "from": "The address which previously owned the token",
          "ids": "An array containing ids of each token being transferred (order and length must match values array)",
          "operator": "The address which initiated the batch transfer (i.e. msg.sender)",
          "values": "An array containing amounts of each token being transferred (order and length must match ids array)"
        },
        "returns": {
          "_0": "`bytes4(keccak256(\"onERC1155BatchReceived(address,address,uint256[],uint256[],bytes)\"))` if transfer is allowed"
        }
      },
      "onERC1155Received(address,address,uint256,uint256,bytes)": {
        "details": "Handles the receipt of a single ERC1155 token type. This function is called at the end of a `safeTransferFrom` after the balance has been updated. To accept the transfer, this must return `bytes4(keccak256(\"onERC1155Received(address,address,uint256,uint256,bytes)\"))` (i.e. 0xf23a6e61, or its own function selector).",
        "params": {
          "data": "Additional data with no specified format",
          "from": "The address which previously owned the token",
          "id": "The ID of the token being transferred",
          "operator": "The address which initiated the transfer (i.e. msg.sender)",
          "value": "The amount of tokens being transferred"
        },
        "returns": {
          "_0": "`bytes4(keccak256(\"onERC1155Received(address,address,uint256,uint256,bytes)\"))` if transfer is allowed"
        }
      },
      "onERC721Received(address,address,uint256,bytes)": {
        "details": "Whenever an {IERC721} `tokenId` token is transferred to this contract via {IERC721-safeTransferFrom} by `operator` from `from`, this function is called. It must return its Solidity selector to confirm the token transfer. If any other value is returned or the interface is not implemented by the recipient, the transfer will be reverted. The selector can be obtained in Solidity with `IERC721.onERC721Received.selector`."
      }
    },
    "version": 1
  },
  "userdoc": {
    "kind": "user",
    "methods": {
      "findCommit(bytes32)": {
        "notice": "DEPRECATED"
      },
      "getCommits()": {
        "notice": "DEPRECATED"
      }
    },
    "version": 1
  }
}