{
  "contractName": "ONEWallet",
  "abi": [
    {
      "anonymous": false,
      "inputs": [
        {
          "indexed": false,
          "internalType": "address",
          "name": "from",
          "type": "address"
        }
      ],
      "name": "AutoRecoveryTriggered",
      "type": "event"
    },
    {
      "anonymous": false,
      "inputs": [
        {
          "indexed": false,
          "internalType": "address",
          "name": "from",
          "type": "address"
        },
        {
          "indexed": false,
          "internalType": "uint256",
          "name": "requiredTime",
          "type": "uint256"
        }
      ],
      "name": "AutoRecoveryTriggeredPrematurely",
      "type": "event"
    },
    {
      "anonymous": false,
      "inputs": [
        {
          "indexed": false,
          "internalType": "address",
          "name": "contractAddress",
          "type": "address"
        },
        {
          "indexed": false,
          "internalType": "uint256",
          "name": "amount",
          "type": "uint256"
        },
        {
          "indexed": false,
          "internalType": "bytes",
          "name": "data",
          "type": "bytes"
        },
        {
          "indexed": false,
          "internalType": "bytes",
          "name": "ret",
          "type": "bytes"
        }
      ],
      "name": "ExternalCallCompleted",
      "type": "event"
    },
    {
      "anonymous": false,
      "inputs": [
        {
          "indexed": false,
          "internalType": "address",
          "name": "contractAddress",
          "type": "address"
        },
        {
          "indexed": false,
          "internalType": "uint256",
          "name": "amount",
          "type": "uint256"
        },
        {
          "indexed": false,
          "internalType": "bytes",
          "name": "data",
          "type": "bytes"
        },
        {
          "indexed": false,
          "internalType": "bytes",
          "name": "ret",
          "type": "bytes"
        }
      ],
      "name": "ExternalCallFailed",
      "type": "event"
    },
    {
      "anonymous": false,
      "inputs": [
        {
          "indexed": false,
          "internalType": "address",
          "name": "dest",
          "type": "address"
        }
      ],
      "name": "ForwardAddressAlreadySet",
      "type": "event"
    },
    {
      "anonymous": false,
      "inputs": [
        {
          "indexed": false,
          "internalType": "address",
          "name": "dest",
          "type": "address"
        }
      ],
      "name": "ForwardAddressInvalid",
      "type": "event"
    },
    {
      "anonymous": false,
      "inputs": [
        {
          "indexed": false,
          "internalType": "address",
          "name": "dest",
          "type": "address"
        }
      ],
      "name": "ForwardAddressUpdated",
      "type": "event"
    },
    {
      "anonymous": false,
      "inputs": [
        {
          "indexed": false,
          "internalType": "bool",
          "name": "success",
          "type": "bool"
        }
      ],
      "name": "ForwardedBalance",
      "type": "event"
    },
    {
      "anonymous": false,
      "inputs": [
        {
          "indexed": false,
          "internalType": "enum Enums.TokenType",
          "name": "tokenType",
          "type": "uint8"
        },
        {
          "indexed": false,
          "internalType": "uint256",
          "name": "amount",
          "type": "uint256"
        },
        {
          "indexed": false,
          "internalType": "address",
          "name": "from",
          "type": "address"
        },
        {
          "indexed": false,
          "internalType": "address",
          "name": "tokenContract",
          "type": "address"
        },
        {
          "indexed": false,
          "internalType": "address",
          "name": "operator",
          "type": "address"
        },
        {
          "indexed": false,
          "internalType": "uint256",
          "name": "tokenId",
          "type": "uint256"
        },
        {
          "indexed": false,
          "internalType": "bytes",
          "name": "data",
          "type": "bytes"
        }
      ],
      "name": "ForwardedToken",
      "type": "event"
    },
    {
      "anonymous": false,
      "inputs": [],
      "name": "LastResortAddressNotSet",
      "type": "event"
    },
    {
      "anonymous": false,
      "inputs": [
        {
          "indexed": false,
          "internalType": "uint256",
          "name": "amount",
          "type": "uint256"
        },
        {
          "indexed": false,
          "internalType": "address",
          "name": "dest",
          "type": "address"
        }
      ],
      "name": "PaymentForwarded",
      "type": "event"
    },
    {
      "anonymous": false,
      "inputs": [
        {
          "indexed": false,
          "internalType": "uint256",
          "name": "amount",
          "type": "uint256"
        },
        {
          "indexed": false,
          "internalType": "address",
          "name": "from",
          "type": "address"
        }
      ],
      "name": "PaymentReceived",
      "type": "event"
    },
    {
      "anonymous": false,
      "inputs": [
        {
          "indexed": false,
          "internalType": "uint256",
          "name": "amount",
          "type": "uint256"
        },
        {
          "indexed": false,
          "internalType": "address",
          "name": "dest",
          "type": "address"
        }
      ],
      "name": "PaymentSent",
      "type": "event"
    },
    {
      "anonymous": false,
      "inputs": [
        {
          "indexed": false,
          "internalType": "enum Enums.TokenType",
          "name": "tokenType",
          "type": "uint8"
        },
        {
          "indexed": false,
          "internalType": "uint256",
          "name": "amount",
          "type": "uint256"
        },
        {
          "indexed": false,
          "internalType": "address",
          "name": "from",
          "type": "address"
        },
        {
          "indexed": false,
          "internalType": "address",
          "name": "tokenContract",
          "type": "address"
        },
        {
          "indexed": false,
          "internalType": "address",
          "name": "operator",
          "type": "address"
        },
        {
          "indexed": false,
          "internalType": "uint256",
          "name": "tokenId",
          "type": "uint256"
        },
        {
          "indexed": false,
          "internalType": "bytes",
          "name": "data",
          "type": "bytes"
        }
      ],
      "name": "ReceivedToken",
      "type": "event"
    },
    {
      "anonymous": false,
      "inputs": [
        {
          "indexed": false,
          "internalType": "address",
          "name": "dest",
          "type": "address"
        }
      ],
      "name": "RecoveryAddressUpdated",
      "type": "event"
    },
    {
      "anonymous": false,
      "inputs": [],
      "name": "RecoveryFailure",
      "type": "event"
    },
    {
      "anonymous": false,
      "inputs": [],
      "name": "RecoveryTriggered",
      "type": "event"
    },
    {
      "anonymous": false,
      "inputs": [],
      "name": "Retired",
      "type": "event"
    },
    {
      "anonymous": false,
      "inputs": [
        {
          "indexed": false,
          "internalType": "address",
          "name": "dest",
          "type": "address"
        },
        {
          "indexed": false,
          "internalType": "bytes",
          "name": "error",
          "type": "bytes"
        }
      ],
      "name": "TransferError",
      "type": "event"
    },
    {
      "inputs": [
        {
          "internalType": "bytes32",
          "name": "",
          "type": "bytes32"
        }
      ],
      "name": "findCommit",
      "outputs": [
        {
          "internalType": "bytes32",
          "name": "",
          "type": "bytes32"
        },
        {
          "internalType": "bytes32",
          "name": "",
          "type": "bytes32"
        },
        {
          "internalType": "uint32",
          "name": "",
          "type": "uint32"
        },
        {
          "internalType": "bool",
          "name": "",
          "type": "bool"
        }
      ],
      "stateMutability": "pure",
      "type": "function"
    },
    {
      "inputs": [],
      "name": "getCommits",
      "outputs": [
        {
          "internalType": "bytes32[]",
          "name": "",
          "type": "bytes32[]"
        },
        {
          "internalType": "bytes32[]",
          "name": "",
          "type": "bytes32[]"
        },
        {
          "internalType": "uint32[]",
          "name": "",
          "type": "uint32[]"
        },
        {
          "internalType": "bool[]",
          "name": "",
          "type": "bool[]"
        }
      ],
      "stateMutability": "pure",
      "type": "function"
    },
    {
      "inputs": [],
      "name": "getCurrentSpending",
      "outputs": [
        {
          "internalType": "uint256",
          "name": "",
          "type": "uint256"
        },
        {
          "internalType": "uint256",
          "name": "",
          "type": "uint256"
        }
      ],
      "stateMutability": "pure",
      "type": "function"
    },
    {
      "inputs": [],
      "name": "getCurrentSpendingState",
      "outputs": [
        {
          "internalType": "uint256",
          "name": "",
          "type": "uint256"
        },
        {
          "internalType": "uint256",
          "name": "",
          "type": "uint256"
        },
        {
          "internalType": "uint32",
          "name": "",
          "type": "uint32"
        },
        {
          "internalType": "uint32",
          "name": "",
          "type": "uint32"
        }
      ],
      "stateMutability": "pure",
      "type": "function"
    },
    {
      "inputs": [],
      "name": "lastOperationTime",
      "outputs": [
        {
          "internalType": "uint256",
          "name": "",
          "type": "uint256"
        }
      ],
      "stateMutability": "view",
      "type": "function"
    },
    {
      "inputs": [
        {
          "internalType": "address",
          "name": "operator",
          "type": "address"
        },
        {
          "internalType": "address",
          "name": "from",
          "type": "address"
        },
        {
          "internalType": "uint256[]",
          "name": "ids",
          "type": "uint256[]"
        },
        {
          "internalType": "uint256[]",
          "name": "values",
          "type": "uint256[]"
        },
        {
          "internalType": "bytes",
          "name": "data",
          "type": "bytes"
        }
      ],
      "name": "onERC1155BatchReceived",
      "outputs": [
        {
          "internalType": "bytes4",
          "name": "",
          "type": "bytes4"
        }
      ],
      "stateMutability": "nonpayable",
      "type": "function"
    },
    {
      "inputs": [
        {
          "internalType": "address",
          "name": "operator",
          "type": "address"
        },
        {
          "internalType": "address",
          "name": "from",
          "type": "address"
        },
        {
          "internalType": "uint256",
          "name": "id",
          "type": "uint256"
        },
        {
          "internalType": "uint256",
          "name": "value",
          "type": "uint256"
        },
        {
          "internalType": "bytes",
          "name": "data",
          "type": "bytes"
        }
      ],
      "name": "onERC1155Received",
      "outputs": [
        {
          "internalType": "bytes4",
          "name": "",
          "type": "bytes4"
        }
      ],
      "stateMutability": "nonpayable",
      "type": "function"
    },
    {
      "inputs": [
        {
          "internalType": "address",
          "name": "operator",
          "type": "address"
        },
        {
          "internalType": "address",
          "name": "from",
          "type": "address"
        },
        {
          "internalType": "uint256",
          "name": "tokenId",
          "type": "uint256"
        },
        {
          "internalType": "bytes",
          "name": "data",
          "type": "bytes"
        }
      ],
      "name": "onERC721Received",
      "outputs": [
        {
          "internalType": "bytes4",
          "name": "",
          "type": "bytes4"
        }
      ],
      "stateMutability": "nonpayable",
      "type": "function"
    },
    {
      "stateMutability": "payable",
      "type": "receive"
    },
    {
      "inputs": [
        {
          "components": [
            {
              "components": [
                {
                  "internalType": "bytes32",
                  "name": "root",
                  "type": "bytes32"
                },
                {
                  "internalType": "uint8",
                  "name": "height",
                  "type": "uint8"
                },
                {
                  "internalType": "uint8",
                  "name": "interval",
                  "type": "uint8"
                },
                {
                  "internalType": "uint32",
                  "name": "t0",
                  "type": "uint32"
                },
                {
                  "internalType": "uint32",
                  "name": "lifespan",
                  "type": "uint32"
                },
                {
                  "internalType": "uint8",
                  "name": "maxOperationsPerInterval",
                  "type": "uint8"
                }
              ],
              "internalType": "struct IONEWallet.CoreSetting",
              "name": "core",
              "type": "tuple"
            },
            {
              "components": [
                {
                  "internalType": "uint256",
                  "name": "spendingLimit",
                  "type": "uint256"
                },
                {
                  "internalType": "uint256",
                  "name": "spentAmount",
                  "type": "uint256"
                },
                {
                  "internalType": "uint32",
                  "name": "lastSpendingInterval",
                  "type": "uint32"
                },
                {
                  "internalType": "uint32",
                  "name": "spendingInterval",
                  "type": "uint32"
                },
                {
                  "internalType": "uint32",
                  "name": "lastLimitAdjustmentTime",
                  "type": "uint32"
                },
                {
                  "internalType": "uint256",
                  "name": "highestSpendingLimit",
                  "type": "uint256"
                }
              ],
              "internalType": "struct SpendingManager.SpendingState",
              "name": "spendingState",
              "type": "tuple"
            },
            {
              "internalType": "address payable",
              "name": "recoveryAddress",
              "type": "address"
            },
            {
              "internalType": "contract IONEWallet[]",
              "name": "backlinkAddresses",
              "type": "address[]"
            },
            {
              "components": [
                {
                  "internalType": "bytes32",
                  "name": "root",
                  "type": "bytes32"
                },
                {
                  "internalType": "uint8",
                  "name": "height",
                  "type": "uint8"
                },
                {
                  "internalType": "uint8",
                  "name": "interval",
                  "type": "uint8"
                },
                {
                  "internalType": "uint32",
                  "name": "t0",
                  "type": "uint32"
                },
                {
                  "internalType": "uint32",
                  "name": "lifespan",
                  "type": "uint32"
                },
                {
                  "internalType": "uint8",
                  "name": "maxOperationsPerInterval",
                  "type": "uint8"
                }
              ],
              "internalType": "struct IONEWallet.CoreSetting[]",
              "name": "oldCores",
              "type": "tuple[]"
            },
            {
              "components": [
                {
                  "internalType": "bytes32",
                  "name": "root",
                  "type": "bytes32"
                },
                {
                  "internalType": "uint8",
                  "name": "height",
                  "type": "uint8"
                },
                {
                  "internalType": "uint8",
                  "name": "interval",
                  "type": "uint8"
                },
                {
                  "internalType": "uint32",
                  "name": "t0",
                  "type": "uint32"
                },
                {
                  "internalType": "uint32",
                  "name": "lifespan",
                  "type": "uint32"
                },
                {
                  "internalType": "uint8",
                  "name": "maxOperationsPerInterval",
                  "type": "uint8"
                }
              ],
              "internalType": "struct IONEWallet.CoreSetting[]",
              "name": "innerCores",
              "type": "tuple[]"
            },
            {
              "internalType": "bytes[]",
              "name": "identificationKeys",
              "type": "bytes[]"
            }
          ],
          "internalType": "struct IONEWallet.InitParams",
          "name": "initParams",
          "type": "tuple"
        }
      ],
      "name": "initialize",
      "outputs": [],
      "stateMutability": "nonpayable",
      "type": "function"
    },
    {
      "inputs": [],
      "name": "identificationKey",
      "outputs": [
        {
          "internalType": "bytes",
          "name": "",
          "type": "bytes"
        }
      ],
      "stateMutability": "view",
      "type": "function"
    },
    {
      "inputs": [],
      "name": "getIdentificationKeys",
      "outputs": [
        {
          "internalType": "bytes[]",
          "name": "",
          "type": "bytes[]"
        }
      ],
      "stateMutability": "view",
      "type": "function"
    },
    {
      "inputs": [],
      "name": "getForwardAddress",
      "outputs": [
        {
          "internalType": "address payable",
          "name": "",
          "type": "address"
        }
      ],
      "stateMutability": "view",
      "type": "function"
    },
    {
      "inputs": [],
      "name": "retire",
      "outputs": [
        {
          "internalType": "bool",
          "name": "",
          "type": "bool"
        }
      ],
      "stateMutability": "nonpayable",
      "type": "function"
    },
    {
      "inputs": [],
      "name": "getInfo",
      "outputs": [
        {
          "internalType": "bytes32",
          "name": "",
          "type": "bytes32"
        },
        {
          "internalType": "uint8",
          "name": "",
          "type": "uint8"
        },
        {
          "internalType": "uint8",
          "name": "",
          "type": "uint8"
        },
        {
          "internalType": "uint32",
          "name": "",
          "type": "uint32"
        },
        {
          "internalType": "uint32",
          "name": "",
          "type": "uint32"
        },
        {
          "internalType": "uint8",
          "name": "",
          "type": "uint8"
        },
        {
          "internalType": "address",
          "name": "",
          "type": "address"
        },
        {
          "internalType": "uint256",
          "name": "",
          "type": "uint256"
        }
      ],
      "stateMutability": "view",
      "type": "function"
    },
    {
      "inputs": [],
      "name": "getOldInfos",
      "outputs": [
        {
          "components": [
            {
              "internalType": "bytes32",
              "name": "root",
              "type": "bytes32"
            },
            {
              "internalType": "uint8",
              "name": "height",
              "type": "uint8"
            },
            {
              "internalType": "uint8",
              "name": "interval",
              "type": "uint8"
            },
            {
              "internalType": "uint32",
              "name": "t0",
              "type": "uint32"
            },
            {
              "internalType": "uint32",
              "name": "lifespan",
              "type": "uint32"
            },
            {
              "internalType": "uint8",
              "name": "maxOperationsPerInterval",
              "type": "uint8"
            }
          ],
          "internalType": "struct IONEWallet.CoreSetting[]",
          "name": "",
          "type": "tuple[]"
        }
      ],
      "stateMutability": "view",
      "type": "function"
    },
    {
      "inputs": [],
      "name": "getRootKey",
      "outputs": [
        {
          "internalType": "bytes32",
          "name": "",
          "type": "bytes32"
        }
      ],
      "stateMutability": "view",
      "type": "function"
    },
    {
      "inputs": [],
      "name": "getVersion",
      "outputs": [
        {
          "internalType": "uint32",
          "name": "",
          "type": "uint32"
        },
        {
          "internalType": "uint32",
          "name": "",
          "type": "uint32"
        }
      ],
      "stateMutability": "pure",
      "type": "function"
    },
    {
      "inputs": [],
      "name": "getSpendingState",
      "outputs": [
        {
          "components": [
            {
              "internalType": "uint256",
              "name": "spendingLimit",
              "type": "uint256"
            },
            {
              "internalType": "uint256",
              "name": "spentAmount",
              "type": "uint256"
            },
            {
              "internalType": "uint32",
              "name": "lastSpendingInterval",
              "type": "uint32"
            },
            {
              "internalType": "uint32",
              "name": "spendingInterval",
              "type": "uint32"
            },
            {
              "internalType": "uint32",
              "name": "lastLimitAdjustmentTime",
              "type": "uint32"
            },
            {
              "internalType": "uint256",
              "name": "highestSpendingLimit",
              "type": "uint256"
            }
          ],
          "internalType": "struct SpendingManager.SpendingState",
          "name": "",
          "type": "tuple"
        }
      ],
      "stateMutability": "view",
      "type": "function"
    },
    {
      "inputs": [],
      "name": "getNonce",
      "outputs": [
        {
          "internalType": "uint8",
          "name": "",
          "type": "uint8"
        }
      ],
      "stateMutability": "view",
      "type": "function"
    },
    {
      "inputs": [],
      "name": "getTrackedTokens",
      "outputs": [
        {
          "internalType": "enum Enums.TokenType[]",
          "name": "",
          "type": "uint8[]"
        },
        {
          "internalType": "address[]",
          "name": "",
          "type": "address[]"
        },
        {
          "internalType": "uint256[]",
          "name": "",
          "type": "uint256[]"
        }
      ],
      "stateMutability": "view",
      "type": "function"
    },
    {
      "inputs": [
        {
          "internalType": "enum Enums.TokenType",
          "name": "tokenType",
          "type": "uint8"
        },
        {
          "internalType": "address",
          "name": "contractAddress",
          "type": "address"
        },
        {
          "internalType": "uint256",
          "name": "tokenId",
          "type": "uint256"
        }
      ],
      "name": "getBalance",
      "outputs": [
        {
          "internalType": "uint256",
          "name": "",
          "type": "uint256"
        }
      ],
      "stateMutability": "view",
      "type": "function"
    },
    {
      "inputs": [],
      "name": "getAllCommits",
      "outputs": [
        {
          "internalType": "bytes32[]",
          "name": "",
          "type": "bytes32[]"
        },
        {
          "internalType": "bytes32[]",
          "name": "",
          "type": "bytes32[]"
        },
        {
          "internalType": "bytes32[]",
          "name": "",
          "type": "bytes32[]"
        },
        {
          "internalType": "uint32[]",
          "name": "",
          "type": "uint32[]"
        },
        {
          "internalType": "bool[]",
          "name": "",
          "type": "bool[]"
        }
      ],
      "stateMutability": "view",
      "type": "function"
    },
    {
      "inputs": [
        {
          "internalType": "bytes32",
          "name": "hash",
          "type": "bytes32"
        }
      ],
      "name": "lookupCommit",
      "outputs": [
        {
          "internalType": "bytes32[]",
          "name": "",
          "type": "bytes32[]"
        },
        {
          "internalType": "bytes32[]",
          "name": "",
          "type": "bytes32[]"
        },
        {
          "internalType": "bytes32[]",
          "name": "",
          "type": "bytes32[]"
        },
        {
          "internalType": "uint32[]",
          "name": "",
          "type": "uint32[]"
        },
        {
          "internalType": "bool[]",
          "name": "",
          "type": "bool[]"
        }
      ],
      "stateMutability": "view",
      "type": "function"
    },
    {
      "inputs": [
        {
          "internalType": "bytes32",
          "name": "hash",
          "type": "bytes32"
        },
        {
          "internalType": "bytes32",
          "name": "paramsHash",
          "type": "bytes32"
        },
        {
          "internalType": "bytes32",
          "name": "verificationHash",
          "type": "bytes32"
        }
      ],
      "name": "commit",
      "outputs": [],
      "stateMutability": "nonpayable",
      "type": "function"
    },
    {
      "inputs": [
        {
          "components": [
            {
              "internalType": "bytes32[]",
              "name": "neighbors",
              "type": "bytes32[]"
            },
            {
              "internalType": "uint32",
              "name": "indexWithNonce",
              "type": "uint32"
            },
            {
              "internalType": "bytes32",
              "name": "eotp",
              "type": "bytes32"
            }
          ],
          "internalType": "struct IONEWallet.AuthParams",
          "name": "auth",
          "type": "tuple"
        },
        {
          "components": [
            {
              "internalType": "enum Enums.OperationType",
              "name": "operationType",
              "type": "uint8"
            },
            {
              "internalType": "enum Enums.TokenType",
              "name": "tokenType",
              "type": "uint8"
            },
            {
              "internalType": "address",
              "name": "contractAddress",
              "type": "address"
            },
            {
              "internalType": "uint256",
              "name": "tokenId",
              "type": "uint256"
            },
            {
              "internalType": "address payable",
              "name": "dest",
              "type": "address"
            },
            {
              "internalType": "uint256",
              "name": "amount",
              "type": "uint256"
            },
            {
              "internalType": "bytes",
              "name": "data",
              "type": "bytes"
            }
          ],
          "internalType": "struct IONEWallet.OperationParams",
          "name": "op",
          "type": "tuple"
        }
      ],
      "name": "reveal",
      "outputs": [],
      "stateMutability": "nonpayable",
      "type": "function"
    },
    {
      "inputs": [
        {
          "internalType": "bytes32[]",
          "name": "",
          "type": "bytes32[]"
        },
        {
          "internalType": "uint32",
          "name": "",
          "type": "uint32"
        },
        {
          "internalType": "bytes32",
          "name": "",
          "type": "bytes32"
        },
        {
          "internalType": "enum Enums.OperationType",
          "name": "",
          "type": "uint8"
        },
        {
          "internalType": "enum Enums.TokenType",
          "name": "",
          "type": "uint8"
        },
        {
          "internalType": "address",
          "name": "",
          "type": "address"
        },
        {
          "internalType": "uint256",
          "name": "",
          "type": "uint256"
        },
        {
          "internalType": "address payable",
          "name": "",
          "type": "address"
        },
        {
          "internalType": "uint256",
          "name": "",
          "type": "uint256"
        },
        {
          "internalType": "bytes",
          "name": "",
          "type": "bytes"
        }
      ],
      "name": "reveal",
      "outputs": [],
      "stateMutability": "pure",
      "type": "function"
    },
    {
      "inputs": [],
      "name": "getBacklinks",
      "outputs": [
        {
          "internalType": "contract IONEWallet[]",
          "name": "",
          "type": "address[]"
        }
      ],
      "stateMutability": "view",
      "type": "function"
    },
    {
      "inputs": [
        {
          "internalType": "bytes4",
          "name": "interfaceId",
          "type": "bytes4"
        }
      ],
      "name": "supportsInterface",
      "outputs": [
        {
          "internalType": "bool",
          "name": "",
          "type": "bool"
        }
      ],
      "stateMutability": "pure",
      "type": "function"
    },
    {
      "inputs": [
        {
          "internalType": "bytes32",
          "name": "hash",
          "type": "bytes32"
        },
        {
          "internalType": "bytes",
          "name": "signatureBytes",
          "type": "bytes"
        }
      ],
      "name": "isValidSignature",
      "outputs": [
        {
          "internalType": "bytes4",
          "name": "",
          "type": "bytes4"
        }
      ],
      "stateMutability": "view",
      "type": "function"
    },
    {
      "inputs": [
        {
          "internalType": "uint32",
          "name": "start",
          "type": "uint32"
        },
        {
          "internalType": "uint32",
          "name": "end",
          "type": "uint32"
        }
      ],
      "name": "listSignatures",
      "outputs": [
        {
          "internalType": "bytes32[]",
          "name": "",
          "type": "bytes32[]"
        },
        {
          "internalType": "bytes32[]",
          "name": "",
          "type": "bytes32[]"
        },
        {
          "internalType": "uint32[]",
          "name": "",
          "type": "uint32[]"
        },
        {
          "internalType": "uint32[]",
          "name": "",
          "type": "uint32[]"
        }
      ],
      "stateMutability": "view",
      "type": "function"
    },
    {
      "inputs": [
        {
          "internalType": "bytes32",
          "name": "hash",
          "type": "bytes32"
        }
      ],
      "name": "lookupSignature",
      "outputs": [
        {
          "internalType": "bytes32",
          "name": "",
          "type": "bytes32"
        },
        {
          "internalType": "uint32",
          "name": "",
          "type": "uint32"
        },
        {
          "internalType": "uint32",
          "name": "",
          "type": "uint32"
        }
      ],
      "stateMutability": "view",
      "type": "function"
    }
  ],
  "bytecode": "0x60806040526016805460ff1916905534801561001a57600080fd5b506148618061002a6000396000f3fe6080604052600436106101dc5760003560e01c80634f3f516c11610102578063a6b920b611610095578063d087d28811610064578063d087d288146108b0578063d87458a3146108d7578063e4e5b258146108f7578063f23a6e611461091757600080fd5b8063a6b920b614610833578063b1ccfccc14610853578063bc197c8114610875578063c34a6dad1461089557600080fd5b80636ee89e6a116100d15780636ee89e6a1461079457806391df0925146107b6578063a17027e1146107f8578063a4874d771461081e57600080fd5b80634f3f516c146106ae57806355fd0579146106ce5780635a9b0b89146106f0578063695def4c1461077057600080fd5b80632293d3fb1161017a5780633f079ab8116101495780633f079ab81461061457806341a6487814610634578063424c51101461065c578063496018af1461068c57600080fd5b80632293d3fb146104955780632f1f7520146104bf578063318c728c146104e4578063396ec5f4146105d357600080fd5b8063150b7a02116101b6578063150b7a02146103d85780631626ba7e1461041157806316d43a97146104315780631cf4ea051461044757600080fd5b806301ffc9a71461035e57806304013239146103935780630d8e6e2c146103b657600080fd5b366103595760165460ff166101f057600080fd5b600d546001600160a01b03161561027757600654600d546001600160a01b039081169116141561022457610222610937565b005b6006546001600160a01b031633141561026f57670de0b6b3a76400003414156102675760065461025c906001600160a01b03166109d3565b610264610c87565b50005b61025c610d55565b610222610937565b670de0b6b3a7640000341461028857005b6006546001600160a01b0316331461029c57005b333014156102a657005b62127500600c546102b791906145e9565b421015610315577fe58fb6bc612703a64f091af2ff6a6831eca838a0301129ab6879cab20d6d7c8c3362127500600c546102f191906145e9565b604080516001600160a01b03909316835260208301919091520160405180910390a1005b6040513381527f0cbe1fea4becf04af2176bbef0c9c53d439d30a05a197aacc38bb4a2873222e39060200160405180910390a1610350610dab565b61022257600080fd5b600080fd5b34801561036a57600080fd5b5061037e6103793660046139a8565b610e9d565b60405190151581526020015b60405180910390f35b34801561039f57600080fd5b506103a8610ec8565b60405190815260200161038a565b3480156103c257600080fd5b5060408051600f8152600160208201520161038a565b3480156103e457600080fd5b506103f86103f336600461326a565b610f13565b6040516001600160e01b0319909116815260200161038a565b34801561041d57600080fd5b506103f861042c366004613922565b61108c565b34801561043d57600080fd5b506103a8600c5481565b34801561045357600080fd5b506104676104623660046138df565b611122565b60405161038a9493929190938452602084019290925263ffffffff1660408301521515606082015260800190565b3480156104a157600080fd5b506104aa61112d565b6040805192835260208301919091520161038a565b3480156104cb57600080fd5b506104d4611135565b60405161038a9493929190613fe6565b3480156104f057600080fd5b506105796040805160c081018252600080825260208201819052918101829052606081018290526080810182905260a0810191909152506040805160c08101825260085481526009546020820152600a5463ffffffff80821693830193909352640100000000810483166060830152600160401b90049091166080820152600b5460a082015290565b60405161038a9190600060c0820190508251825260208301516020830152604083015163ffffffff8082166040850152806060860151166060850152806080860151166080850152505060a083015160a083015292915050565b3480156105df57600080fd5b506105e8611122565b60408051948552602085019390935263ffffffff9182169284019290925216606082015260800161038a565b34801561062057600080fd5b5061022261062f366004613a20565b611140565b34801561064057600080fd5b50600d546040516001600160a01b03909116815260200161038a565b34801561066857600080fd5b5061067c610677366004613c0e565b6111fe565b60405161038a9493929190614033565b34801561069857600080fd5b506106a16112b2565b60405161038a91906140e1565b3480156106ba57600080fd5b506102226106c9366004613a8d565b611314565b3480156106da57600080fd5b506106e3611697565b60405161038a9190614080565b3480156106fc57600080fd5b506002546003546006546040805193845260ff808416602086015261010080850482169286019290925263ffffffff62010000850481166060870152600160301b8504166080860152600160501b90930490921660a08401526001600160a01b031660c0830152600060e08301520161038a565b34801561077c57600080fd5b50610785611770565b60405161038a9392919061412e565b3480156107a057600080fd5b506107a9611809565b60405161038a9190614293565b3480156107c257600080fd5b506107d66107d13660046138df565b6118bc565b6040805193845263ffffffff928316602085015291169082015260600161038a565b34801561080457600080fd5b5061080d61195a565b60405161038a959493929190613f85565b34801561082a57600080fd5b5061037e6119fd565b34801561083f57600080fd5b506103a861084e3660046139e0565b611aa7565b34801561085f57600080fd5b50610868611b77565b60405161038a91906141bf565b34801561088157600080fd5b506103f86108903660046131b0565b611c1b565b3480156108a157600080fd5b50610222610359366004613447565b3480156108bc57600080fd5b506108c5611d2d565b60405160ff909116815260200161038a565b3480156108e357600080fd5b5061080d6108f23660046138df565b611dc9565b34801561090357600080fd5b506102226109123660046138f7565b611e74565b34801561092357600080fd5b506103f86109323660046132da565b611f00565b600d546040516000916001600160a01b03169034908381818185875af1925050503d8060008114610984576040519150601f19603f3d011682016040523d82523d6000602084013e610989565b606091505b505090508061099757600080fd5b604080513481523360208201527f6e8641fc34fdcf9d67683d1a8ced72ff01d27ff86ff3b1d338fa6165e496c73f91015b60405180910390a150565b600d546001600160a01b03163014806109f357506001600160a01b038116155b15610a31576040516001600160a01b03821681527f81a6b37eeab97da1bb7ac3b3e34fcee45f445c8de943999917a6fe95ed7fa787906020016109c8565b600d80546001600160a01b0319166001600160a01b0383169081179091556040519081527fa706c3d6ff18ff7dfc1ee0a34bc34fe432c200d8d475bff3ed963eb31ae194689060200160405180910390a1600654610a97906001600160a01b031661207a565b610afd57600d54610ab0906001600160a01b03166120b6565b6000610aba610dab565b90507f41af6efec37729ca1819094cce85d9ae325b936fda39ac98a58cfcb45d431b4b81604051610aef911515815260200190565b60405180910390a150610c11565b60405163c9c80f8f60e01b81526008600482015260009073__SpendingManager_______________________9063c9c80f8f9060240160206040518083038186803b158015610b4b57600080fd5b505af4158015610b5f573d6000803e3d6000fd5b505050506040513d601f19601f82011682018060405250810190610b839190613b99565b600d54909150610b9c906001600160a01b031682612162565b5060405163aaf6047360e01b8152600060048201526001600160a01b038316602482015273__TokenTracker__________________________9063aaf604739060440160006040518083038186803b158015610bf757600080fd5b505af4158015610c0b573d6000803e3d6000fd5b50505050505b604051639cacd87160e01b8152600e60048201526001600160a01b038216602482015273__WalletGraph___________________________90639cacd871906044015b60006040518083038186803b158015610c6c57600080fd5b505af4158015610c80573d6000803e3d6000fd5b5050505050565b600654600090610c9f906001600160a01b031661207a565b610cd2576040517fc27dbdcf29e2a161f0420d399444129801e578bafe157fef0370098459e082bf90600090a150600090565b6006546001600160a01b0316301415610ceb5750600190565b610cf3610dab565b610d26576040517fa3a244603d968c02ebd2017f990d4e077cf0381929976be2a0cb07076147a56f90600090a150600090565b6040517f94f696b15fed1e58be1975a224273b56878dda280cb878ec20eb56b6fea7313a90600090a150600190565b600d54600680546001600160a01b0319166001600160a01b0390921691821790556040519081527f83c14e1947c5a639434d6195a6e9d85ab3471a5049c66e0aa46b71e2c0a06dde9060200160405180910390a1565b60065460405160009182916001600160a01b039091169047908381818185875af1925050503d8060008114610dfc576040519150601f19603f3d011682016040523d82523d6000602084013e610e01565b606091505b505090508015610e9857600654600d80546001600160a01b0319166001600160a01b03909216918217905560405163aaf6047360e01b815260006004820152602481019190915273__TokenTracker__________________________9063aaf604739060440160006040518083038186803b158015610e7f57600080fd5b505af4158015610e93573d6000803e3d6000fd5b505050505b919050565b60006001600160e01b03198216630b135d3f60e11b1480610ec25750610ec282612385565b92915050565b60045460009015610f0c576004600081548110610ef557634e487b7160e01b600052603260045260246000fd5b906000526020600020906002020160000154905090565b5060025490565b60007feb7a68d5a205eea79480f44587fe8146ae15b7e92582967fd1b1b119c9b60efa60018087338a898989604051610f539897969594939291906142ce565b60405180910390a16000610f6f600d546001600160a01b031690565b90506001600160a01b038116156110085760405163c841a9db60e01b815273__TokenTracker__________________________9063c841a9db90610fc79060009060019033908b90889084908d908d906004016144d7565b60006040518083038186803b158015610fdf57600080fd5b505af4158015610ff3573d6000803e3d6000fd5b50630a85bd0160e11b94506110839350505050565b6040516304e9b2db60e31b815273__TokenTracker__________________________9063274d96d8906110479060009060019033908b906004016144a8565b60006040518083038186803b15801561105f57600080fd5b505af4158015611073573d6000803e3d6000fd5b50630a85bd0160e11b9450505050505b95945050505050565b604051634d94f52360e01b815260009073__SignatureManager______________________90634d94f523906110cb9060139087908790600401614489565b60206040518083038186803b1580156110e357600080fd5b505af41580156110f7573d6000803e3d6000fd5b505050506040513d601f19601f8201168201806040525081019061111b91906139c4565b9392505050565b600080600080600080fd5b600080600080fd5b606080606080600080fd5b60165460ff1661114f57600080fd5b600d546001600160a01b031633146111e95760065460405163f35664b160e01b815273__Reveal________________________________9163f35664b1916111b4916002916004916005916001600160a01b0390911690600f908a908a90860161432c565b60006040518083038186803b1580156111cc57600080fd5b505af41580156111e0573d6000803e3d6000fd5b505042600c5550505b6111fa6111f58261465d565b6123d6565b5050565b604051630139109f60e31b81526013600482015263ffffffff80841660248301528216604482015260609081908190819073__SignatureManager______________________906309c884f89060640160006040518083038186803b15801561126657600080fd5b505af415801561127a573d6000803e3d6000fd5b505050506040513d6000823e601f3d908101601f191682016040526112a291908101906135f7565b9299919850965090945092505050565b6060600e80548060200260200160405190810160405280929190818152602001828054801561130a57602002820191906000526020600020905b81546001600160a01b031681526001909101906020018083116112ec575b5050505050905090565b60165460ff161561132457600080fd5b60005b8160800151518163ffffffff16101561142b57600482608001518263ffffffff168151811061136657634e487b7160e01b600052603260045260246000fd5b60209081029190910181015182546001808201855560009485529383902082516002909202019081559181015191909201805460408401516060850151608086015160a09096015160ff95861661ffff1990941693909317610100928616929092029190911769ffffffffffffffff000019166201000063ffffffff9283160263ffffffff60301b191617600160301b91909516029390931760ff60501b1916600160501b9290931691909102919091179055806114238161475f565b915050611327565b5060005b8160a00151518163ffffffff1610156115335760058260a001518263ffffffff168151811061146e57634e487b7160e01b600052603260045260246000fd5b60209081029190910181015182546001808201855560009485529383902082516002909202019081559181015191909201805460408401516060850151608086015160a09096015160ff95861661ffff1990941693909317610100928616929092029190911769ffffffffffffffff000019166201000063ffffffff9283160263ffffffff60301b191617600160301b91909516029390931760ff60501b1916600160501b92909316919091029190911790558061152b8161475f565b91505061142f565b5080518051600255602080820151600380546040808601516060808801516080808a015160a09a8b015160ff998a1661ffff1990981697909717610100958a16959095029490941769ffffffffffffffff000019166201000063ffffffff9384160263ffffffff60301b191617600160301b948316949094029390931760ff60501b1916600160501b9790951696909602939093179093558487015180516008558086015160095580820151600a8054838601519684015192881667ffffffffffffffff199091161764010000000096881696909602959095176bffffffff00000000000000001916600160401b9190961602949094179092559190930151600b5591830151600680546001600160a01b0319166001600160a01b0390921691909117905590820151805161166c92600e920190612aa4565b5060c0810151805161168691600791602090910190612b09565b50506016805460ff19166001179055565b60606007805480602002602001604051908101604052809291908181526020016000905b828210156117675783829060005260206000200180546116da90614724565b80601f016020809104026020016040519081016040528092919081815260200182805461170690614724565b80156117535780601f1061172857610100808354040283529160200191611753565b820191906000526020600020905b81548152906001019060200180831161173657829003601f168201915b5050505050815260200190600101906116bb565b50505050905090565b604051631d9037a160e11b8152600060048201526060908190819073__TokenTracker__________________________90633b206f429060240160006040518083038186803b1580156117c257600080fd5b505af41580156117d6573d6000803e3d6000fd5b505050506040513d6000823e601f3d908101601f191682016040526117fe919081019061369e565b925092509250909192565b6060600760008154811061182d57634e487b7160e01b600052603260045260246000fd5b90600052602060002001805461184290614724565b80601f016020809104026020016040519081016040528092919081815260200182805461186e90614724565b801561130a5780601f106118905761010080835404028352916020019161130a565b820191906000526020600020905b81548152906001019060200180831161189e57509395945050505050565b604051635107e51560e11b815260136004820152602481018290526000908190819073__SignatureManager______________________9063a20fca2a9060440160606040518083038186803b15801561191557600080fd5b505af4158015611929573d6000803e3d6000fd5b505050506040513d601f19601f8201168201806040525081019061194d9190613966565b9250925092509193909250565b60405163732d1f0f60e01b8152600f6004820152606090819081908190819073__CommitManager_________________________9063732d1f0f9060240160006040518083038186803b1580156119b057600080fd5b505af41580156119c4573d6000803e3d6000fd5b505050506040513d6000823e601f3d908101601f191682016040526119ec919081019061352c565b945094509450945094509091929394565b60035460009063ffffffff600160301b820481169162010000810490911690611a2f9060ff6101009091041642614601565b611a399190614638565b63ffffffff1611611a4957600080fd5b600654611a5e906001600160a01b031661207a565b611a6757600080fd5b611a6f610dab565b611a7857600080fd5b6040517fc15f68f0a72806ff3f8bf2435385a67c4c22413f1c7931ef7bcea718e6ffcf0390600090a150600190565b60008060008073__TokenTracker__________________________636489a8db8888886040518463ffffffff1660e01b8152600401611ae8939291906142a6565b60006040518083038186803b158015611b0057600080fd5b505af4158015611b14573d6000803e3d6000fd5b505050506040513d6000823e601f3d908101601f19168201604052611b3c9190810190613bb1565b925092509250818190611b6b5760405162461bcd60e51b8152600401611b629190614293565b60405180910390fd5b50919695505050505050565b60606004805480602002602001604051908101604052809291908181526020016000905b828210156117675760008481526020908190206040805160c081018252600286029092018054835260019081015460ff80821685870152610100820481169385019390935263ffffffff62010000820481166060860152600160301b8204166080850152600160501b900490911660a08301529083529092019101611b9b565b6000805b63ffffffff8116871115611d17573063f23a6e618b8b8b8b63ffffffff8716818110611c5b57634e487b7160e01b600052603260045260246000fd5b905060200201358a8a8763ffffffff16818110611c8857634e487b7160e01b600052603260045260246000fd5b9050602002013589896040518763ffffffff1660e01b8152600401611cb296959493929190613ebb565b602060405180830381600087803b158015611ccc57600080fd5b505af1158015611ce0573d6000803e3d6000fd5b505050506040513d601f19601f82011682018060405250810190611d0491906139c4565b5080611d0f8161475f565b915050611c1f565b5063bc197c8160e01b9998505050505050505050565b600354604051631601f47b60e31b8152600f600482015261010090910460ff16602482015260009073__CommitManager_________________________9063b00fa3d89060440160206040518083038186803b158015611d8c57600080fd5b505af4158015611da0573d6000803e3d6000fd5b505050506040513d601f19601f82011682018060405250810190611dc49190613c3b565b905090565b6040516391a351d360e01b8152600f600482015260248101829052606090819081908190819073__CommitManager_________________________906391a351d39060440160006040518083038186803b158015611e2657600080fd5b505af4158015611e3a573d6000803e3d6000fd5b505050506040513d6000823e601f3d908101601f19168201604052611e62919081019061352c565b939a9299509097509550909350915050565b60165460ff16611e8357600080fd5b604051632b6e663760e21b8152600f600482015260248101849052604481018390526064810182905273__CommitManager_________________________9063adb998dc9060840160006040518083038186803b158015611ee357600080fd5b505af4158015611ef7573d6000803e3d6000fd5b50505050505050565b60007feb7a68d5a205eea79480f44587fe8146ae15b7e92582967fd1b1b119c9b60efa60028588338b8a8989604051611f409897969594939291906142ce565b60405180910390a16000611f5c600d546001600160a01b031690565b90506001600160a01b03811615611ff55760405163c841a9db60e01b815273__TokenTracker__________________________9063c841a9db90611fb49060009060029033908c9088908d908d908d906004016144d7565b60006040518083038186803b158015611fcc57600080fd5b505af4158015611fe0573d6000803e3d6000fd5b5063f23a6e6160e01b94506120709350505050565b6040516304e9b2db60e31b815273__TokenTracker__________________________9063274d96d8906120349060009060029033908c906004016144a8565b60006040518083038186803b15801561204c57600080fd5b505af4158015612060573d6000803e3d6000fd5b5063f23a6e6160e01b9450505050505b9695505050505050565b60006001600160a01b03821615801590610ec257506001600160a01b038216737534978f9fa903150ed429c486d1f42b7fdb7a61141592915050565b6006546120cb906001600160a01b031661207a565b806120de57506001600160a01b03811630145b1561211457604051600081527f83c14e1947c5a639434d6195a6e9d85ab3471a5049c66e0aa46b71e2c0a06dde906020016109c8565b600680546001600160a01b0319166001600160a01b0383169081179091556040519081527f83c14e1947c5a639434d6195a6e9d85ab3471a5049c66e0aa46b71e2c0a06dde906020016109c8565b60405163075f723760e11b8152600860048201526001600160a01b038316602482015260448101829052600090819073__SpendingManager_______________________90630ebee46e9060640160206040518083038186803b1580156121c857600080fd5b505af41580156121dc573d6000803e3d6000fd5b505050506040513d601f19601f8201168201806040525081019061220091906138c5565b905080612211576000915050610ec2565b60405163ddc7babd60e01b8152600860048201526024810184905273__SpendingManager_______________________9063ddc7babd9060440160006040518083038186803b15801561226357600080fd5b505af4158015612277573d6000803e3d6000fd5b50505050600080856001600160a01b03168560405160006040518083038185875af1925050503d80600081146122c9576040519150601f19603f3d011682016040523d82523d6000602084013e6122ce565b606091505b5091509150816123385784600860010160008282546122ed9190614621565b90915550506040517ff5c313ebe4b0c35fe244772061cea14ddbae7ed089b2850d6ee2235fd42847e4906123249088908490613e8f565b60405180910390a160009350505050610ec2565b604080518681526001600160a01b03881660208201527f8f4636f285a9a17fe3479ab47bb7a5deadaf9b2295a16c3965f55fa48e542d1f910160405180910390a150600195945050505050565b60006001600160e01b031982166301ffc9a760e01b14806123b657506001600160e01b0319821663f23a6e6160e01b145b80610ec257506001600160e01b03198216630a85bd0160e11b1492915050565b6004815160198111156123f957634e487b7160e01b600052602160045260246000fd5b1415612411576111fa81608001518260a00151612162565b60068151601981111561243457634e487b7160e01b600052602160045260246000fd5b1415612442576111fa610c87565b60058151601981111561246557634e487b7160e01b600052602160045260246000fd5b141561247b5761247881608001516120b6565b50565b60088151601981111561249e57634e487b7160e01b600052602160045260246000fd5b14156124b15761247881608001516109d3565b6015815160198111156124d457634e487b7160e01b600052602160045260246000fd5b14156125075760608101516124fa5761247881604001518260a001518360c001516125fb565b6124788160c00151612855565b60078151601981111561252a57634e487b7160e01b600052602160045260246000fd5b14156125825760c0810151600d5460405162dcdcfb60e51b815273__CoreManager___________________________92631b9b9f6092610c5492600492600592600292600792916001600160a01b031690860161424d565b6016815160198111156125a557634e487b7160e01b600052602160045260246000fd5b14156125b8576124788160c00151612a27565b6040516338e617e360e21b815273__Executor______________________________9063e3985f8c90610c54908490600090600e906013906008906004016143e9565b60405163075f723760e11b8152600860048201526001600160a01b03841660248201526044810183905260009073__SpendingManager_______________________90630ebee46e9060640160206040518083038186803b15801561265f57600080fd5b505af4158015612673573d6000803e3d6000fd5b505050506040513d601f19601f8201168201806040525081019061269791906138c5565b9050806126df577f4d62b9a6ffb55cee5d5dc75b67dc0013b2cce2fa73c7a715ad72dedc5ffdc60c8484846040516126d193929190613f46565b60405180910390a150505050565b60405163ddc7babd60e01b8152600860048201526024810184905273__SpendingManager_______________________9063ddc7babd9060440160006040518083038186803b15801561273157600080fd5b505af4158015612745573d6000803e3d6000fd5b50505050600080856001600160a01b031685856040516127659190613e73565b60006040518083038185875af1925050503d80600081146127a2576040519150601f19603f3d011682016040523d82523d6000602084013e6127a7565b606091505b509150915081156127f4577f594eb1d75e7963acdb8e3677a186a5ed35924ab37f2b20e78aea6516bbc9bd6e868686846040516127e79493929190613f02565b60405180910390a161284d565b84600860010160008282546128099190614621565b90915550506040517f4d62b9a6ffb55cee5d5dc75b67dc0013b2cce2fa73c7a715ad72dedc5ffdc60c90612844908890889088908690613f02565b60405180910390a15b505050505050565b60008060008380602001905181019061286e9190613353565b9250925092506000805b83518163ffffffff1610156128d457838163ffffffff16815181106128ad57634e487b7160e01b600052603260045260246000fd5b6020026020010151826128c091906145e9565b9150806128cc8161475f565b915050612878565b5060405163075f723760e11b815260086004820152600060248201526044810182905273__SpendingManager_______________________90630ebee46e9060640160206040518083038186803b15801561292e57600080fd5b505af4158015612942573d6000803e3d6000fd5b505050506040513d601f19601f8201168201806040525081019061296691906138c5565b612971575050505050565b60005b84518163ffffffff16101561284d57612a15858263ffffffff16815181106129ac57634e487b7160e01b600052603260045260246000fd5b6020026020010151858363ffffffff16815181106129da57634e487b7160e01b600052603260045260246000fd5b6020026020010151858463ffffffff1681518110612a0857634e487b7160e01b600052603260045260246000fd5b60200260200101516125fb565b80612a1f8161475f565b915050612974565b600081806020019051810190612a3d9190613786565b805190915060005b8160ff168163ffffffff161015612a9e57612a8c838263ffffffff1681518110612a7f57634e487b7160e01b600052603260045260246000fd5b60200260200101516123d6565b80612a968161475f565b915050612a45565b50505050565b828054828255906000526020600020908101928215612af9579160200282015b82811115612af957825182546001600160a01b0319166001600160a01b03909116178255602090920191600190910190612ac4565b50612b05929150612b62565b5090565b828054828255906000526020600020908101928215612b56579160200282015b82811115612b565782518051612b46918491602090910190612b77565b5091602001919060010190612b29565b50612b05929150612beb565b5b80821115612b055760008155600101612b63565b828054612b8390614724565b90600052602060002090601f016020900481019282612ba55760008555612af9565b82601f10612bbe57805160ff1916838001178555612af9565b82800160010185558215612af9579182015b82811115612af9578251825591602001919060010190612bd0565b80821115612b05576000612bff8282612c08565b50600101612beb565b508054612c1490614724565b6000825580601f10612c24575050565b601f0160209004906000526020600020908101906124789190612b62565b6000612c55612c50846145c2565b61456f565b9050828152838383011115612c6957600080fd5b61111b8360208301846146f8565b8035610e98816147c5565b8051610e98816147c5565b600082601f830112612c9d578081fd5b81516020612cad612c508361459f565b80838252828201915082860187848660051b8901011115612ccc578586fd5b855b85811015612cf3578151612ce1816147c5565b84529284019290840190600101612cce565b5090979650505050505050565b600082601f830112612d10578081fd5b81516020612d20612c508361459f565b80838252828201915082860187848660051b8901011115612d3f578586fd5b855b85811015612cf357612d5282612fc7565b84529284019290840190600101612d41565b60008083601f840112612d75578182fd5b5081356001600160401b03811115612d8b578182fd5b6020830191508360208260051b8501011115612da657600080fd5b9250929050565b600082601f830112612dbd578081fd5b81516020612dcd612c508361459f565b80838252828201915082860187848660051b8901011115612dec578586fd5b855b85811015612cf357815184529284019290840190600101612dee565b600082601f830112612e1a578081fd5b81356020612e2a612c508361459f565b80838252828201915082860187848660051b8901011115612e49578586fd5b855b85811015612cf35781356001600160401b03811115612e68578788fd5b612e768a87838c0101613016565b8552509284019290840190600101612e4b565b600082601f830112612e99578081fd5b81356020612ea9612c508361459f565b80838252828201915082860187848660051b8901011115612ec8578586fd5b855b85811015612cf3578135612edd816147c5565b84529284019290840190600101612eca565b600082601f830112612eff578081fd5b81356020612f0f612c508361459f565b8281528181019085830160c080860288018501891015612f2d578687fd5b865b86811015612f5357612f418a846130ad565b85529385019391810191600101612f2f565b509198975050505050505050565b600082601f830112612f71578081fd5b81516020612f81612c508361459f565b80838252828201915082860187848660051b8901011115612fa0578586fd5b855b85811015612cf3578151612fb58161480a565b84529284019290840190600101612fa2565b80518015158114610e9857600080fd5b60008083601f840112612fe8578182fd5b5081356001600160401b03811115612ffe578182fd5b602083019150836020828501011115612da657600080fd5b600082601f830112613026578081fd5b8135613034612c50826145c2565b818152846020838601011115613048578283fd5b816020850160208301379081016020019190915292915050565b600082601f830112613072578081fd5b61111b83835160208501612c42565b8035610e98816147f0565b8051610e98816147f0565b8035610e98816147fd565b8051610e98816147fd565b600060c082840312156130be578081fd5b6130c6614525565b90508135815260208201356130da8161481c565b602082015260408201356130ed8161481c565b604082015260608201356131008161480a565b606082015260808201356131138161480a565b608082015260a08201356131268161481c565b60a082015292915050565b600060c08284031215613142578081fd5b61314a614525565b9050813581526020820135602082015260408201356131688161480a565b6040820152606082013561317b8161480a565b6060820152608082013561318e8161480a565b8060808301525060a082013560a082015292915050565b8035610e988161480a565b60008060008060008060008060a0898b0312156131cb578384fd5b88356131d6816147c5565b975060208901356131e6816147c5565b965060408901356001600160401b0380821115613201578586fd5b61320d8c838d01612d64565b909850965060608b0135915080821115613225578586fd5b6132318c838d01612d64565b909650945060808b0135915080821115613249578384fd5b506132568b828c01612fd7565b999c989b5096995094979396929594505050565b600080600080600060808688031215613281578283fd5b853561328c816147c5565b9450602086013561329c816147c5565b93506040860135925060608601356001600160401b038111156132bd578182fd5b6132c988828901612fd7565b969995985093965092949392505050565b60008060008060008060a087890312156132f2578384fd5b86356132fd816147c5565b9550602087013561330d816147c5565b9450604087013593506060870135925060808701356001600160401b03811115613335578283fd5b61334189828a01612fd7565b979a9699509497509295939492505050565b600080600060608486031215613367578081fd5b83516001600160401b038082111561337d578283fd5b61338987838801612c8d565b945060209150818601518181111561339f578384fd5b6133ab88828901612dad565b9450506040860151818111156133bf578384fd5b8601601f810188136133cf578384fd5b80516133dd612c508261459f565b8082825285820191508584018b878560051b87010111156133fc578788fd5b875b848110156134355781518781111561341457898afd5b6134228e8a838a0101613062565b85525092870192908701906001016133fe565b50508096505050505050509250925092565b6000806000806000806000806000806000806101408d8f031215613469578586fd5b6001600160401b038d35111561347d578586fd5b61348a8e8e358f01612d64565b909c509a5061349b60208e016131a5565b995060408d013598506134b060608e01613081565b97506134be60808e01613097565b96506134cc60a08e01612c77565b955060c08d013594506134e160e08e01612c77565b93506101008d013592506001600160401b036101208e01351115613503578081fd5b6135148e6101208f01358f01612fd7565b81935080925050509295989b509295989b509295989b565b600080600080600060a08688031215613543578283fd5b85516001600160401b0380821115613559578485fd5b61356589838a01612dad565b9650602088015191508082111561357a578485fd5b61358689838a01612dad565b9550604088015191508082111561359b578485fd5b6135a789838a01612dad565b945060608801519150808211156135bc578283fd5b6135c889838a01612f61565b935060808801519150808211156135dd578283fd5b506135ea88828901612d00565b9150509295509295909350565b6000806000806080858703121561360c578182fd5b84516001600160401b0380821115613622578384fd5b61362e88838901612dad565b95506020870151915080821115613643578384fd5b61364f88838901612dad565b94506040870151915080821115613664578384fd5b61367088838901612f61565b93506060870151915080821115613685578283fd5b5061369287828801612f61565b91505092959194509250565b6000806000606084860312156136b2578081fd5b83516001600160401b03808211156136c8578283fd5b818601915086601f8301126136db578283fd5b815160206136eb612c508361459f565b8083825282820191508286018b848660051b890101111561370a578788fd5b8796505b84871015613735578051613721816147fd565b83526001969096019591830191830161370e565b509189015191975090935050508082111561374e578283fd5b61375a87838801612c8d565b9350604086015191508082111561376f578283fd5b5061377c86828701612dad565b9150509250925092565b60006020808385031215613798578182fd5b82516001600160401b03808211156137ae578384fd5b818501915085601f8301126137c1578384fd5b81516137cf612c508261459f565b80828252858201915085850189878560051b88010111156137ee578788fd5b875b848110156138b65781518681111561380657898afd5b870160e0818d03601f190181131561381c578a8bfd5b61382461454d565b61382f8b840161308c565b8152604061383e8185016130a2565b8c830152606061384f818601612c82565b828401526080915081850151818401525060a061386d818601612c82565b8284015260c0915081850151818401525082840151925089831115613890578c8dfd5b61389e8f8d85870101613062565b908201528652505092870192908701906001016137f0565b50909998505050505050505050565b6000602082840312156138d6578081fd5b61111b82612fc7565b6000602082840312156138f0578081fd5b5035919050565b60008060006060848603121561390b578081fd5b505081359360208301359350604090920135919050565b60008060408385031215613934578182fd5b8235915060208301356001600160401b03811115613950578182fd5b61395c85828601613016565b9150509250929050565b60008060006060848603121561397a578081fd5b83519250602084015161398c8161480a565b604085015190925061399d8161480a565b809150509250925092565b6000602082840312156139b9578081fd5b813561111b816147da565b6000602082840312156139d5578081fd5b815161111b816147da565b6000806000606084860312156139f4578081fd5b83356139ff816147fd565b92506020840135613a0f816147c5565b929592945050506040919091013590565b60008060408385031215613a32578182fd5b82356001600160401b0380821115613a48578384fd5b9084019060608287031215613a5b578384fd5b90925060208401359080821115613a70578283fd5b50830160e08186031215613a82578182fd5b809150509250929050565b600060208284031215613a9e578081fd5b81356001600160401b0380821115613ab4578283fd5b908301906102208286031215613ac8578283fd5b613ad061454d565b613ada86846130ad565b8152613ae98660c08501613131565b6020820152613afb6101808401612c77565b60408201526101a083013582811115613b12578485fd5b613b1e87828601612e89565b6060830152506101c083013582811115613b36578485fd5b613b4287828601612eef565b6080830152506101e083013582811115613b5a578485fd5b613b6687828601612eef565b60a08301525061020083013582811115613b7e578485fd5b613b8a87828601612e0a565b60c08301525095945050505050565b600060208284031215613baa578081fd5b5051919050565b600080600060608486031215613bc5578081fd5b83519250613bd560208501612fc7565b915060408401516001600160401b03811115613bef578182fd5b8401601f81018613613bff578182fd5b61377c86825160208401612c42565b60008060408385031215613c20578182fd5b8235613c2b8161480a565b91506020830135613a828161480a565b600060208284031215613c4c578081fd5b815161111b8161481c565b6000815180845260208085019450808401835b83811015613c88578151151587529582019590820190600101613c6a565b509495945050505050565b81835260006001600160fb1b03831115613cab578081fd5b8260051b80836020870137939093016020019283525090919050565b6000815180845260208085019450808401835b83811015613c8857815187529582019590820190600101613cda565b6000815180845260208085019450808401835b83811015613c8857815163ffffffff1687529582019590820190600101613d09565b81835281816020850137506000828201602090810191909152601f909101601f19169091010190565b60008151808452613d6c8160208601602086016146f8565b601f01601f19169290920160200192915050565b601a8110613d9057613d90614799565b9052565b60048110613d9057613d90614799565b60008135613db1816147f0565b613dbb8482613d80565b506020820135613dca816147fd565b613dd76020850182613d94565b506040820135613de6816147c5565b6001600160a01b03908116604085015260608381013590850152608083013590613e0f826147c5565b16608084015260a0828101359084015260c082013536839003601e19018112613e36578182fd5b820180356001600160401b03811115613e4d578283fd5b803603841315613e5b578283fd5b60e060c086015261108360e086018260208501613d2b565b60008251613e858184602087016146f8565b9190910192915050565b6001600160a01b0383168152604060208201819052600090613eb390830184613d54565b949350505050565b6001600160a01b03878116825286166020820152604081018590526060810184905260a060808201819052600090613ef69083018486613d2b565b98975050505050505050565b60018060a01b0385168152836020820152608060408201526000613f296080830185613d54565b8281036060840152613f3b8185613d54565b979650505050505050565b60018060a01b0384168152826020820152608060408201526000613f6d6080830184613d54565b82810360609093019290925281526020019392505050565b60a081526000613f9860a0830188613cc7565b8281036020840152613faa8188613cc7565b90508281036040840152613fbe8187613cc7565b90508281036060840152613fd28186613cf6565b90508281036080840152613ef68185613c57565b608081526000613ff96080830187613cc7565b828103602084015261400b8187613cc7565b9050828103604084015261401f8186613cf6565b90508281036060840152613f3b8185613c57565b6080815260006140466080830187613cc7565b82810360208401526140588187613cc7565b9050828103604084015261406c8186613cf6565b90508281036060840152613f3b8185613cf6565b6000602080830181845280855180835260408601915060408160051b8701019250838701855b828110156140d457603f198886030184526140c2858351613d54565b945092850192908501906001016140a6565b5092979650505050505050565b6020808252825182820181905260009190848201906040850190845b818110156141225783516001600160a01b0316835292840192918401916001016140fd565b50909695505050505050565b606080825284519082018190526000906020906080840190828801845b8281101561416e5761415e848351613d94565b928401929084019060010161414b565b50505083810382850152855180825286830191830190845b818110156141ab5783516001600160a01b031683529284019291840191600101614186565b50508481036040860152613ef68187613cc7565b602080825282518282018190526000919060409081850190868401855b82811015614240578151805185528681015160ff908116888701528682015181168787015260608083015163ffffffff908116918801919091526080808401519091169087015260a091820151169085015260c090930192908501906001016141dc565b5091979650505050505050565b86815285602082015284604082015283606082015260c06080820152600061427860c0830185613d54565b905060018060a01b03831660a0830152979650505050505050565b60208152600061111b6020830184613d54565b606081016142b48286613d94565b6001600160a01b0393909316602082015260400152919050565b6142d8818a613d94565b602081018890526001600160a01b03878116604083015286811660608301528516608082015260a0810184905260e060c0820181905260009061431e9083018486613d2b565b9a9950505050505050505050565b87815260208101879052604081018690526001600160a01b03851660608201526080810184905260e060a08201526000833536859003601e19018112614370578182fd5b840180356001600160401b03811115614387578283fd5b8060051b3603861315614398578283fd5b606060e08501526143b161014085018260208501613c93565b9150506143c0602086016131a5565b63ffffffff16610100840152604085013561012084015282810360c084015261431e8185613da4565b60a081526143fb60a082018751613d80565b6000602087015161440f60c0840182613d94565b50604087015160018060a01b0380821660e085015260608901516101008501528060808a015116610120850152505060a087015161014083015260c087015160e0610160840152614464610180840182613d54565b9150508560208301528460408301528360608301528260808301529695505050505050565b8381528260208201526060604082015260006110836060830184613d54565b848152608081016144bc6020830186613d94565b6001600160a01b039390931660408201526060015292915050565b8881526144e76020820189613d94565b6001600160a01b038781166040830152606082018790528516608082015260a0810184905260e060c0820181905260009061431e9083018486613d2b565b60405160c081016001600160401b0381118282101715614547576145476147af565b60405290565b60405160e081016001600160401b0381118282101715614547576145476147af565b604051601f8201601f191681016001600160401b0381118282101715614597576145976147af565b604052919050565b60006001600160401b038211156145b8576145b86147af565b5060051b60200190565b60006001600160401b038211156145db576145db6147af565b50601f01601f191660200190565b600082198211156145fc576145fc614783565b500190565b60008261461c57634e487b7160e01b81526012600452602481fd5b500490565b60008282101561463357614633614783565b500390565b600063ffffffff8381169083168181101561465557614655614783565b039392505050565b600060e0823603121561466e578081fd5b61467661454d565b61467f83613081565b815261468d60208401613097565b602082015261469e60408401612c77565b6040820152606083013560608201526146b960808401612c77565b608082015260a083013560a082015260c08301356001600160401b038111156146e0578283fd5b6146ec36828601613016565b60c08301525092915050565b60005b838110156147135781810151838201526020016146fb565b83811115612a9e5750506000910152565b600181811c9082168061473857607f821691505b6020821081141561475957634e487b7160e01b600052602260045260246000fd5b50919050565b600063ffffffff8083168181141561477957614779614783565b6001019392505050565b634e487b7160e01b600052601160045260246000fd5b634e487b7160e01b600052602160045260246000fd5b634e487b7160e01b600052604160045260246000fd5b6001600160a01b038116811461247857600080fd5b6001600160e01b03198116811461247857600080fd5b601a811061247857600080fd5b6004811061247857600080fd5b63ffffffff8116811461247857600080fd5b60ff8116811461247857600080fdfea2646970667358221220973581daf4cf0746dd68a79060e85d1b2b6329f22e45630a02f7fbfdc32e21be64736f6c63430008040033",
  "immutableReferences": {},
  "source": "// SPDX-License-Identifier: Apache-2.0\npragma solidity ^0.8.4;\n\nimport \"./SpendingManager.sol\";\nimport \"./CommitManager.sol\";\nimport \"./TokenManager.sol\";\nimport \"./DomainManager.sol\";\nimport \"./SignatureManager.sol\";\nimport \"./Reveal.sol\";\nimport \"./WalletGraph.sol\";\nimport \"./Enums.sol\";\nimport \"./IONEWallet.sol\";\nimport \"./AbstractONEWallet.sol\";\nimport \"./CoreManager.sol\";\nimport \"./Executor.sol\";\nimport \"./Recovery.sol\";\nimport \"./Version.sol\";\n\ncontract ONEWallet is TokenManager, AbstractONEWallet {\n    using TokenTracker for TokenTracker.TokenTrackerState;\n    using WalletGraph for IONEWallet[];\n    using SignatureManager for SignatureManager.SignatureTracker;\n    using SpendingManager for SpendingManager.SpendingState;\n    using CommitManager for CommitManager.CommitState;\n    using Reveal for CoreSetting;\n\n    CoreSetting core;\n    CoreSetting[] oldCores;\n    CoreSetting[] innerCores;\n\n    /// global mutable variables\n    address payable recoveryAddress; // where money will be sent during a recovery process (or when the wallet is beyond its lifespan)\n    bytes[] identificationKeys;\n\n    SpendingManager.SpendingState spendingState;\n\n    uint256 public override lastOperationTime; // in seconds; record the time for the last successful reveal\n    address payable forwardAddress; // a non-empty forward address assumes full control of this contract. A forward address can only be set upon a successful recovery or upgrade operation.\n    IONEWallet[] backlinkAddresses; // to be set in next version - these are addresses forwarding funds and tokens to this contract AND must have their forwardAddress updated if this contract's forwardAddress is set or updated. One example of such an address is a previous version of the wallet \"upgrading\" to a new version. See more at https://github.com/polymorpher/one-wallet/issues/78\n\n    /// commit management\n    CommitManager.CommitState commitState;\n    SignatureManager.SignatureTracker signatures;\n\n    bool initialized = false;\n\n    function initialize(InitParams memory initParams) override external\n    {\n        require(!initialized);\n        for (uint32 i = 0; i < initParams.oldCores.length; i++) {\n            oldCores.push(initParams.oldCores[i]);\n        }\n        for (uint32 i = 0; i < initParams.innerCores.length; i++) {\n            innerCores.push(initParams.innerCores[i]);\n        }\n        core = initParams.core;\n        spendingState = initParams.spendingState;\n        recoveryAddress = initParams.recoveryAddress;\n        backlinkAddresses = initParams.backlinkAddresses;\n        identificationKeys = initParams.identificationKeys;\n        initialized = true;\n    }\n\n    function identificationKey() external override view returns (bytes memory){\n        return identificationKeys[0];\n    }\n\n    function getIdentificationKeys() external override view returns (bytes[] memory){\n        return identificationKeys;\n    }\n\n    function _getForwardAddress() internal override view returns (address payable){\n        return forwardAddress;\n    }\n\n    function getForwardAddress() external override view returns (address payable){\n        return forwardAddress;\n    }\n\n    function _forwardPayment() internal {\n        (bool success,) = forwardAddress.call{value : msg.value}(\"\");\n        require(success);\n        emit PaymentForwarded(msg.value, msg.sender);\n    }\n\n    receive() external payable {\n        require(initialized);\n        if (forwardAddress != address(0)) {// this wallet already has a forward address set - standard recovery process should not apply\n            if (forwardAddress == recoveryAddress) {// in this case, funds should be forwarded to forwardAddress no matter what\n                _forwardPayment();\n                return;\n            }\n            if (msg.sender == recoveryAddress) {// this case requires special handling\n                if (msg.value == Recovery.AUTO_RECOVERY_TRIGGER_AMOUNT) {// in this case, send funds to recovery address and reclaim forwardAddress to recovery address\n                    _forward(recoveryAddress);\n                    _recover();\n                    return;\n                }\n                // any other amount is deemed to authorize withdrawal of all funds to forwardAddress\n                _overrideRecoveryAddress();\n                _recover();\n                return;\n            }\n            // if sender is anyone else (including self), simply forward the payment\n            _forwardPayment();\n            return;\n        }\n        if (msg.value != Recovery.AUTO_RECOVERY_TRIGGER_AMOUNT) {\n            return;\n        }\n        if (msg.sender != recoveryAddress) {\n            return;\n        }\n        if (msg.sender == address(this)) {\n            return;\n        }\n        if (block.timestamp < lastOperationTime + Recovery.AUTO_RECOVERY_MANDATORY_WAIT_TIME) {\n            emit AutoRecoveryTriggeredPrematurely(msg.sender, lastOperationTime + Recovery.AUTO_RECOVERY_MANDATORY_WAIT_TIME);\n            return;\n        }\n        emit AutoRecoveryTriggered(msg.sender);\n        require(_drain());\n    }\n\n    function retire() external override returns (bool)\n    {\n        require(uint32(block.timestamp / core.interval) - core.t0 > core.lifespan);\n        require(Recovery.isRecoveryAddressSet(recoveryAddress));\n        require(_drain());\n        emit Retired();\n        return true;\n    }\n\n    function getInfo() external override view returns (bytes32, uint8, uint8, uint32, uint32, uint8, address, uint256){\n        return (core.root, core.height, core.interval, core.t0, core.lifespan, core.maxOperationsPerInterval, recoveryAddress, 0);\n    }\n\n    function getOldInfos() external override view returns (CoreSetting[] memory){\n        return oldCores;\n    }\n\n    function getRootKey() external override view returns (bytes32){\n        if (oldCores.length > 0) {\n            return oldCores[0].root;\n        }\n        return core.root;\n    }\n\n    function getVersion() external override pure returns (uint32, uint32){\n        return (Version.majorVersion, Version.minorVersion);\n    }\n\n    function getSpendingState() external override view returns (SpendingManager.SpendingState memory){\n        return spendingState;\n    }\n\n    function getNonce() external override view returns (uint8){\n        return commitState.getNonce(core.interval);\n    }\n\n    function getTrackedTokens() external override view returns (Enums.TokenType[] memory, address[] memory, uint256[] memory){\n        return tokenTrackerState.getTrackedTokens();\n    }\n\n    function getBalance(Enums.TokenType tokenType, address contractAddress, uint256 tokenId) external override view returns (uint256){\n        (uint256 balance, bool success, string memory reason) = TokenTracker.getBalance(tokenType, contractAddress, tokenId);\n        require(success, reason);\n        return balance;\n    }\n\n    function getAllCommits() external override view returns (bytes32[] memory, bytes32[] memory, bytes32[] memory, uint32[] memory, bool[] memory){\n        return commitState.getAllCommits();\n    }\n\n\n    function lookupCommit(bytes32 hash) external override view returns (bytes32[] memory, bytes32[] memory, bytes32[] memory, uint32[] memory, bool[] memory){\n        return commitState.lookupCommit(hash);\n    }\n\n    function commit(bytes32 hash, bytes32 paramsHash, bytes32 verificationHash) external override {\n        require(initialized);\n        commitState.commit(hash, paramsHash, verificationHash);\n    }\n\n    /// require approval using recovery cores, unless recovery address is set\n    function _forward(address payable dest) internal {\n        if (address(forwardAddress) == address(this) || dest == address(0)) {\n            emit ForwardAddressInvalid(dest);\n            return;\n        }\n        // TODO: in the next version, add a flag in the parameter indicating whether the operation is from the forwardAddress. If the flag is set, skip the check below\n        //        if (forwardAddress != address(0)) {\n        //            if (!_isRecoveryAddressSet() || dest != recoveryAddress) {\n        //                emit ForwardAddressAlreadySet(dest);\n        //                return;\n        //            }\n        //        }\n        forwardAddress = dest;\n        emit ForwardAddressUpdated(dest);\n        if (!Recovery.isRecoveryAddressSet(recoveryAddress)) {\n            // Under this condition, the authentication would be done through recovery cores. Therefore, we can transfer all assets without violating the principal that no operation should spend more than what is specified in spend limit\n            _setRecoveryAddress(forwardAddress);\n            bool drainSuccess = _drain();\n            emit ForwardedBalance(drainSuccess);\n        } else {\n            // Under this condition, the authentication is done through regular cores (oldCores + core). Only assets within spend limit should be transferred. Transfer of the rest should be approved by recovery address (sending 0.1 ONE)\n            uint256 budget = spendingState.getRemainingAllowance();\n            _transfer(forwardAddress, budget);\n            tokenTrackerState.recoverAllTokens(dest);\n        }\n        backlinkAddresses.batchUpdateForwardAddress(dest);\n    }\n\n    /// This function sends all remaining funds and tokens in the wallet to `recoveryAddress`. The caller should verify that `recoveryAddress` is not null.\n    function _drain() internal returns (bool) {\n        // this may be triggered after revealing the proof, and we must prevent revert in all cases\n        (bool success,) = recoveryAddress.call{value : address(this).balance}(\"\");\n        if (success) {\n            forwardAddress = recoveryAddress;\n            tokenTrackerState.recoverAllTokens(recoveryAddress);\n        }\n        return success;\n    }\n\n    function _transfer(address payable dest, uint256 amount) internal returns (bool) {\n        bool canSpend = spendingState.canSpend(dest, amount);\n        if (!canSpend) {\n            return false;\n        }\n        spendingState.accountSpending(amount);\n        (bool success, bytes memory ret) = dest.call{value : amount}(\"\");\n        // we do not want to revert the whole transaction if this operation fails, since EOTP is already revealed\n        if (!success) {\n            spendingState.spentAmount -= amount;\n            emit TransferError(dest, ret);\n            return false;\n        }\n        emit PaymentSent(amount, dest);\n        return true;\n    }\n\n    /// To initiate recovery, client should submit leaf_{-1} as eotp, where leaf_{-1} is the last leaf in OTP Merkle Tree. Note that leaf_0 = hasher(hseed . nonce . OTP . randomness) where hasher is either sha256 or argon2, depending on client's security parameters. The definition of leaf_{-1} ensures attackers cannot use widespread miners to brute-force for seed or hseed, even if keccak256(leaf_{i}) for any i is known. It has been considered that leaf_0 should be used instead of leaf_{-1}, because leaf_0 is extremely unlikely to be used for any wallet operation. It is only used if the user performs any operation within the first 60 seconds of seed generation (when QR code is displayed). Regardless of which leaf is used to trigger recovery, this mechanism ensures hseed remains secret at the client. Even when the leaf becomes public (on blockchain), it is no longer useful because the wallet would already be deprecated (all assets transferred out). It can be used to repeatedly trigger recovery on this deprecated wallet, but that would cause no harm.\n    function _recover() internal returns (bool){\n        if (!Recovery.isRecoveryAddressSet(recoveryAddress)) {\n            emit LastResortAddressNotSet();\n            return false;\n        }\n        if (recoveryAddress == address(this)) {// this should not happen unless recoveryAddress is set at contract creation time, and is deliberately set to contract's own address\n            // nothing needs to be done;\n            return true;\n        }\n        if (!_drain()) {\n            emit RecoveryFailure();\n            return false;\n        }\n        emit RecoveryTriggered();\n        return true;\n    }\n\n    function _overrideRecoveryAddress() internal {\n        recoveryAddress = forwardAddress;\n        emit RecoveryAddressUpdated(recoveryAddress);\n    }\n\n    function _setRecoveryAddress(address payable recoveryAddress_) internal {\n        if (Recovery.isRecoveryAddressSet(recoveryAddress) || recoveryAddress_ == address(this)) {\n            emit RecoveryAddressUpdated(address(0));\n            return;\n        }\n        recoveryAddress = recoveryAddress_;\n        emit RecoveryAddressUpdated(recoveryAddress);\n    }\n\n    function _batch(bytes memory data) internal {\n        OperationParams[] memory batchParams = abi.decode(data, (OperationParams[]));\n        uint8 len = uint8(batchParams.length);\n        for (uint32 i = 0; i < len; i++) {\n            _execute(batchParams[i]);\n        }\n    }\n\n    function reveal(AuthParams calldata auth, OperationParams calldata op) external override {\n        require(initialized);\n        if (msg.sender != forwardAddress) {\n            core.authenticate(oldCores, innerCores, recoveryAddress, commitState, auth, op);\n            lastOperationTime = block.timestamp;\n        }\n        _execute(op);\n    }\n\n    function _execute(OperationParams memory op) internal {\n        // No revert should occur below this point\n        if (op.operationType == Enums.OperationType.TRANSFER) {\n            _transfer(op.dest, op.amount);\n        } else if (op.operationType == Enums.OperationType.RECOVER) {\n            _recover();\n        } else if (op.operationType == Enums.OperationType.SET_RECOVERY_ADDRESS) {\n            _setRecoveryAddress(op.dest);\n        } else if (op.operationType == Enums.OperationType.FORWARD) {\n            _forward(op.dest);\n        } else if (op.operationType == Enums.OperationType.CALL) {\n            if (op.tokenId == 0) {\n                _callContract(op.contractAddress, op.amount, op.data);\n            } else {\n                _multiCall(op.data);\n            }\n        } else if (op.operationType == Enums.OperationType.DISPLACE) {\n            CoreManager.displace(oldCores, innerCores, core, identificationKeys, op.data, forwardAddress);\n        } else if (op.operationType == Enums.OperationType.BATCH) {\n            _batch(op.data);\n        } else {\n            Executor.execute(op, tokenTrackerState, backlinkAddresses, signatures, spendingState);\n        }\n    }\n\n    function getBacklinks() external override view returns (IONEWallet[] memory){\n        return backlinkAddresses;\n    }\n\n    function _callContract(address contractAddress, uint256 amount, bytes memory encodedWithSignature) internal {\n        bool canSpend = spendingState.canSpend(contractAddress, amount);\n        if (!canSpend) {\n            emit ExternalCallFailed(contractAddress, amount, encodedWithSignature, \"\");\n            return;\n        }\n        spendingState.accountSpending(amount);\n        (bool success, bytes memory ret) = contractAddress.call{value : amount}(encodedWithSignature);\n        if (success) {\n            emit ExternalCallCompleted(contractAddress, amount, encodedWithSignature, ret);\n        } else {\n            spendingState.spentAmount -= amount;\n            emit ExternalCallFailed(contractAddress, amount, encodedWithSignature, ret);\n        }\n    }\n\n    function _multiCall(bytes memory data) internal {\n        (address[] memory dest, uint256[] memory amounts, bytes[] memory encoded) = abi.decode(data, (address[], uint256[], bytes[]));\n        uint256 totalAmount = 0;\n        for (uint32 i = 0; i < amounts.length; i++) {\n            totalAmount += amounts[i];\n        }\n        if (!spendingState.canSpend(address(0), totalAmount)) {\n            return;\n        }\n        for (uint32 i = 0; i < dest.length; i++) {\n            _callContract(dest[i], amounts[i], encoded[i]);\n        }\n    }\n\n    function supportsInterface(bytes4 interfaceId) public override pure returns (bool) {\n        return interfaceId == this.isValidSignature.selector || TokenManager.supportsInterface(interfaceId);\n    }\n\n    function isValidSignature(bytes32 hash, bytes memory signatureBytes) override public view returns (bytes4){\n        return signatures.isValidSignature(hash, signatureBytes);\n    }\n\n    function listSignatures(uint32 start, uint32 end) external override view returns (bytes32[] memory, bytes32[] memory, uint32[] memory, uint32[] memory){\n        return signatures.list(start, end);\n    }\n\n    function lookupSignature(bytes32 hash) external override view returns (bytes32, uint32, uint32){\n        return signatures.lookup(hash);\n    }\n\n}\n",
  "sourcePath": "/Users/polymorpher/git/one-wallet/code/contracts/ONEWallet.sol",
  "compiler": {
    "name": "solc",
    "version": "0.8.4+commit.c7e474f2.Emscripten.clang"
  },
  "schemaVersion": "3.4.2",
  "updatedAt": "2021-11-15T14:41:12.656Z",
  "devdoc": {
    "kind": "dev",
    "methods": {
      "onERC1155BatchReceived(address,address,uint256[],uint256[],bytes)": {
        "details": "Handles the receipt of a multiple ERC1155 token types. This function is called at the end of a `safeBatchTransferFrom` after the balances have been updated. To accept the transfer(s), this must return `bytes4(keccak256(\"onERC1155BatchReceived(address,address,uint256[],uint256[],bytes)\"))` (i.e. 0xbc197c81, or its own function selector).",
        "params": {
          "data": "Additional data with no specified format",
          "from": "The address which previously owned the token",
          "ids": "An array containing ids of each token being transferred (order and length must match values array)",
          "operator": "The address which initiated the batch transfer (i.e. msg.sender)",
          "values": "An array containing amounts of each token being transferred (order and length must match ids array)"
        },
        "returns": {
          "_0": "`bytes4(keccak256(\"onERC1155BatchReceived(address,address,uint256[],uint256[],bytes)\"))` if transfer is allowed"
        }
      },
      "onERC1155Received(address,address,uint256,uint256,bytes)": {
        "details": "Handles the receipt of a single ERC1155 token type. This function is called at the end of a `safeTransferFrom` after the balance has been updated. To accept the transfer, this must return `bytes4(keccak256(\"onERC1155Received(address,address,uint256,uint256,bytes)\"))` (i.e. 0xf23a6e61, or its own function selector).",
        "params": {
          "data": "Additional data with no specified format",
          "from": "The address which previously owned the token",
          "id": "The ID of the token being transferred",
          "operator": "The address which initiated the transfer (i.e. msg.sender)",
          "value": "The amount of tokens being transferred"
        },
        "returns": {
          "_0": "`bytes4(keccak256(\"onERC1155Received(address,address,uint256,uint256,bytes)\"))` if transfer is allowed"
        }
      },
      "onERC721Received(address,address,uint256,bytes)": {
        "details": "Whenever an {IERC721} `tokenId` token is transferred to this contract via {IERC721-safeTransferFrom} by `operator` from `from`, this function is called. It must return its Solidity selector to confirm the token transfer. If any other value is returned or the interface is not implemented by the recipient, the transfer will be reverted. The selector can be obtained in Solidity with `IERC721.onERC721Received.selector`."
      }
    },
    "version": 1
  },
  "userdoc": {
    "kind": "user",
    "methods": {
      "findCommit(bytes32)": {
        "notice": "DEPRECATED"
      },
      "getCommits()": {
        "notice": "DEPRECATED"
      }
    },
    "version": 1
  }
}