{
  "contractName": "ONEWallet",
  "abi": [
    {
      "anonymous": false,
      "inputs": [
        {
          "indexed": false,
          "internalType": "address",
          "name": "from",
          "type": "address"
        }
      ],
      "name": "AutoRecoveryTriggered",
      "type": "event"
    },
    {
      "anonymous": false,
      "inputs": [
        {
          "indexed": false,
          "internalType": "address",
          "name": "from",
          "type": "address"
        },
        {
          "indexed": false,
          "internalType": "uint256",
          "name": "requiredTime",
          "type": "uint256"
        }
      ],
      "name": "AutoRecoveryTriggeredPrematurely",
      "type": "event"
    },
    {
      "anonymous": false,
      "inputs": [
        {
          "indexed": false,
          "internalType": "address",
          "name": "contractAddress",
          "type": "address"
        },
        {
          "indexed": false,
          "internalType": "uint256",
          "name": "amount",
          "type": "uint256"
        },
        {
          "indexed": false,
          "internalType": "bytes",
          "name": "data",
          "type": "bytes"
        },
        {
          "indexed": false,
          "internalType": "bytes",
          "name": "ret",
          "type": "bytes"
        }
      ],
      "name": "ExternalCallCompleted",
      "type": "event"
    },
    {
      "anonymous": false,
      "inputs": [
        {
          "indexed": false,
          "internalType": "address",
          "name": "contractAddress",
          "type": "address"
        },
        {
          "indexed": false,
          "internalType": "uint256",
          "name": "amount",
          "type": "uint256"
        },
        {
          "indexed": false,
          "internalType": "bytes",
          "name": "data",
          "type": "bytes"
        },
        {
          "indexed": false,
          "internalType": "bytes",
          "name": "ret",
          "type": "bytes"
        }
      ],
      "name": "ExternalCallFailed",
      "type": "event"
    },
    {
      "anonymous": false,
      "inputs": [
        {
          "indexed": false,
          "internalType": "address",
          "name": "dest",
          "type": "address"
        }
      ],
      "name": "ForwardAddressAlreadySet",
      "type": "event"
    },
    {
      "anonymous": false,
      "inputs": [
        {
          "indexed": false,
          "internalType": "address",
          "name": "dest",
          "type": "address"
        }
      ],
      "name": "ForwardAddressInvalid",
      "type": "event"
    },
    {
      "anonymous": false,
      "inputs": [
        {
          "indexed": false,
          "internalType": "address",
          "name": "dest",
          "type": "address"
        }
      ],
      "name": "ForwardAddressUpdated",
      "type": "event"
    },
    {
      "anonymous": false,
      "inputs": [
        {
          "indexed": false,
          "internalType": "bool",
          "name": "success",
          "type": "bool"
        }
      ],
      "name": "ForwardedBalance",
      "type": "event"
    },
    {
      "anonymous": false,
      "inputs": [
        {
          "indexed": false,
          "internalType": "enum Enums.TokenType",
          "name": "tokenType",
          "type": "uint8"
        },
        {
          "indexed": false,
          "internalType": "uint256",
          "name": "amount",
          "type": "uint256"
        },
        {
          "indexed": false,
          "internalType": "address",
          "name": "from",
          "type": "address"
        },
        {
          "indexed": false,
          "internalType": "address",
          "name": "tokenContract",
          "type": "address"
        },
        {
          "indexed": false,
          "internalType": "address",
          "name": "operator",
          "type": "address"
        },
        {
          "indexed": false,
          "internalType": "uint256",
          "name": "tokenId",
          "type": "uint256"
        },
        {
          "indexed": false,
          "internalType": "bytes",
          "name": "data",
          "type": "bytes"
        }
      ],
      "name": "ForwardedToken",
      "type": "event"
    },
    {
      "anonymous": false,
      "inputs": [],
      "name": "LastResortAddressNotSet",
      "type": "event"
    },
    {
      "anonymous": false,
      "inputs": [
        {
          "indexed": false,
          "internalType": "uint256",
          "name": "amount",
          "type": "uint256"
        },
        {
          "indexed": false,
          "internalType": "address",
          "name": "dest",
          "type": "address"
        }
      ],
      "name": "PaymentForwarded",
      "type": "event"
    },
    {
      "anonymous": false,
      "inputs": [
        {
          "indexed": false,
          "internalType": "uint256",
          "name": "amount",
          "type": "uint256"
        },
        {
          "indexed": false,
          "internalType": "address",
          "name": "from",
          "type": "address"
        }
      ],
      "name": "PaymentReceived",
      "type": "event"
    },
    {
      "anonymous": false,
      "inputs": [
        {
          "indexed": false,
          "internalType": "uint256",
          "name": "amount",
          "type": "uint256"
        },
        {
          "indexed": false,
          "internalType": "address",
          "name": "dest",
          "type": "address"
        }
      ],
      "name": "PaymentSent",
      "type": "event"
    },
    {
      "anonymous": false,
      "inputs": [
        {
          "indexed": false,
          "internalType": "enum Enums.TokenType",
          "name": "tokenType",
          "type": "uint8"
        },
        {
          "indexed": false,
          "internalType": "uint256",
          "name": "amount",
          "type": "uint256"
        },
        {
          "indexed": false,
          "internalType": "address",
          "name": "from",
          "type": "address"
        },
        {
          "indexed": false,
          "internalType": "address",
          "name": "tokenContract",
          "type": "address"
        },
        {
          "indexed": false,
          "internalType": "address",
          "name": "operator",
          "type": "address"
        },
        {
          "indexed": false,
          "internalType": "uint256",
          "name": "tokenId",
          "type": "uint256"
        },
        {
          "indexed": false,
          "internalType": "bytes",
          "name": "data",
          "type": "bytes"
        }
      ],
      "name": "ReceivedToken",
      "type": "event"
    },
    {
      "anonymous": false,
      "inputs": [
        {
          "indexed": false,
          "internalType": "address",
          "name": "dest",
          "type": "address"
        }
      ],
      "name": "RecoveryAddressUpdated",
      "type": "event"
    },
    {
      "anonymous": false,
      "inputs": [],
      "name": "RecoveryFailure",
      "type": "event"
    },
    {
      "anonymous": false,
      "inputs": [],
      "name": "RecoveryTriggered",
      "type": "event"
    },
    {
      "anonymous": false,
      "inputs": [],
      "name": "Retired",
      "type": "event"
    },
    {
      "anonymous": false,
      "inputs": [
        {
          "indexed": false,
          "internalType": "address",
          "name": "dest",
          "type": "address"
        },
        {
          "indexed": false,
          "internalType": "bytes",
          "name": "error",
          "type": "bytes"
        }
      ],
      "name": "TransferError",
      "type": "event"
    },
    {
      "inputs": [
        {
          "internalType": "bytes32",
          "name": "",
          "type": "bytes32"
        }
      ],
      "name": "findCommit",
      "outputs": [
        {
          "internalType": "bytes32",
          "name": "",
          "type": "bytes32"
        },
        {
          "internalType": "bytes32",
          "name": "",
          "type": "bytes32"
        },
        {
          "internalType": "uint32",
          "name": "",
          "type": "uint32"
        },
        {
          "internalType": "bool",
          "name": "",
          "type": "bool"
        }
      ],
      "stateMutability": "pure",
      "type": "function"
    },
    {
      "inputs": [],
      "name": "getCommits",
      "outputs": [
        {
          "internalType": "bytes32[]",
          "name": "",
          "type": "bytes32[]"
        },
        {
          "internalType": "bytes32[]",
          "name": "",
          "type": "bytes32[]"
        },
        {
          "internalType": "uint32[]",
          "name": "",
          "type": "uint32[]"
        },
        {
          "internalType": "bool[]",
          "name": "",
          "type": "bool[]"
        }
      ],
      "stateMutability": "pure",
      "type": "function"
    },
    {
      "inputs": [],
      "name": "getCurrentSpending",
      "outputs": [
        {
          "internalType": "uint256",
          "name": "",
          "type": "uint256"
        },
        {
          "internalType": "uint256",
          "name": "",
          "type": "uint256"
        }
      ],
      "stateMutability": "pure",
      "type": "function"
    },
    {
      "inputs": [],
      "name": "getCurrentSpendingState",
      "outputs": [
        {
          "internalType": "uint256",
          "name": "",
          "type": "uint256"
        },
        {
          "internalType": "uint256",
          "name": "",
          "type": "uint256"
        },
        {
          "internalType": "uint32",
          "name": "",
          "type": "uint32"
        },
        {
          "internalType": "uint32",
          "name": "",
          "type": "uint32"
        }
      ],
      "stateMutability": "pure",
      "type": "function"
    },
    {
      "inputs": [],
      "name": "identificationHash",
      "outputs": [
        {
          "internalType": "bytes32",
          "name": "",
          "type": "bytes32"
        }
      ],
      "stateMutability": "view",
      "type": "function"
    },
    {
      "inputs": [],
      "name": "lastOperationTime",
      "outputs": [
        {
          "internalType": "uint256",
          "name": "",
          "type": "uint256"
        }
      ],
      "stateMutability": "view",
      "type": "function"
    },
    {
      "inputs": [
        {
          "internalType": "address",
          "name": "operator",
          "type": "address"
        },
        {
          "internalType": "address",
          "name": "from",
          "type": "address"
        },
        {
          "internalType": "uint256[]",
          "name": "ids",
          "type": "uint256[]"
        },
        {
          "internalType": "uint256[]",
          "name": "values",
          "type": "uint256[]"
        },
        {
          "internalType": "bytes",
          "name": "data",
          "type": "bytes"
        }
      ],
      "name": "onERC1155BatchReceived",
      "outputs": [
        {
          "internalType": "bytes4",
          "name": "",
          "type": "bytes4"
        }
      ],
      "stateMutability": "nonpayable",
      "type": "function"
    },
    {
      "inputs": [
        {
          "internalType": "address",
          "name": "operator",
          "type": "address"
        },
        {
          "internalType": "address",
          "name": "from",
          "type": "address"
        },
        {
          "internalType": "uint256",
          "name": "id",
          "type": "uint256"
        },
        {
          "internalType": "uint256",
          "name": "value",
          "type": "uint256"
        },
        {
          "internalType": "bytes",
          "name": "data",
          "type": "bytes"
        }
      ],
      "name": "onERC1155Received",
      "outputs": [
        {
          "internalType": "bytes4",
          "name": "",
          "type": "bytes4"
        }
      ],
      "stateMutability": "nonpayable",
      "type": "function"
    },
    {
      "inputs": [
        {
          "internalType": "address",
          "name": "operator",
          "type": "address"
        },
        {
          "internalType": "address",
          "name": "from",
          "type": "address"
        },
        {
          "internalType": "uint256",
          "name": "tokenId",
          "type": "uint256"
        },
        {
          "internalType": "bytes",
          "name": "data",
          "type": "bytes"
        }
      ],
      "name": "onERC721Received",
      "outputs": [
        {
          "internalType": "bytes4",
          "name": "",
          "type": "bytes4"
        }
      ],
      "stateMutability": "nonpayable",
      "type": "function"
    },
    {
      "stateMutability": "payable",
      "type": "receive"
    },
    {
      "inputs": [
        {
          "components": [
            {
              "components": [
                {
                  "internalType": "bytes32",
                  "name": "root",
                  "type": "bytes32"
                },
                {
                  "internalType": "uint8",
                  "name": "height",
                  "type": "uint8"
                },
                {
                  "internalType": "uint8",
                  "name": "interval",
                  "type": "uint8"
                },
                {
                  "internalType": "uint32",
                  "name": "t0",
                  "type": "uint32"
                },
                {
                  "internalType": "uint32",
                  "name": "lifespan",
                  "type": "uint32"
                },
                {
                  "internalType": "uint8",
                  "name": "maxOperationsPerInterval",
                  "type": "uint8"
                }
              ],
              "internalType": "struct IONEWallet.CoreSetting",
              "name": "core",
              "type": "tuple"
            },
            {
              "components": [
                {
                  "internalType": "uint256",
                  "name": "spendingLimit",
                  "type": "uint256"
                },
                {
                  "internalType": "uint256",
                  "name": "spentAmount",
                  "type": "uint256"
                },
                {
                  "internalType": "uint32",
                  "name": "lastSpendingInterval",
                  "type": "uint32"
                },
                {
                  "internalType": "uint32",
                  "name": "spendingInterval",
                  "type": "uint32"
                },
                {
                  "internalType": "uint32",
                  "name": "lastLimitAdjustmentTime",
                  "type": "uint32"
                },
                {
                  "internalType": "uint256",
                  "name": "initialSpendingLimit",
                  "type": "uint256"
                },
                {
                  "internalType": "uint256",
                  "name": "highestSpendingLimit",
                  "type": "uint256"
                }
              ],
              "internalType": "struct SpendingManager.SpendingState",
              "name": "spendingState",
              "type": "tuple"
            },
            {
              "internalType": "address payable",
              "name": "recoveryAddress",
              "type": "address"
            },
            {
              "internalType": "bytes32",
              "name": "identificationHash",
              "type": "bytes32"
            },
            {
              "internalType": "contract IONEWallet[]",
              "name": "backlinkAddresses",
              "type": "address[]"
            },
            {
              "components": [
                {
                  "internalType": "bytes32",
                  "name": "root",
                  "type": "bytes32"
                },
                {
                  "internalType": "uint8",
                  "name": "height",
                  "type": "uint8"
                },
                {
                  "internalType": "uint8",
                  "name": "interval",
                  "type": "uint8"
                },
                {
                  "internalType": "uint32",
                  "name": "t0",
                  "type": "uint32"
                },
                {
                  "internalType": "uint32",
                  "name": "lifespan",
                  "type": "uint32"
                },
                {
                  "internalType": "uint8",
                  "name": "maxOperationsPerInterval",
                  "type": "uint8"
                }
              ],
              "internalType": "struct IONEWallet.CoreSetting[]",
              "name": "oldCores",
              "type": "tuple[]"
            },
            {
              "components": [
                {
                  "internalType": "bytes32",
                  "name": "root",
                  "type": "bytes32"
                },
                {
                  "internalType": "uint8",
                  "name": "height",
                  "type": "uint8"
                },
                {
                  "internalType": "uint8",
                  "name": "interval",
                  "type": "uint8"
                },
                {
                  "internalType": "uint32",
                  "name": "t0",
                  "type": "uint32"
                },
                {
                  "internalType": "uint32",
                  "name": "lifespan",
                  "type": "uint32"
                },
                {
                  "internalType": "uint8",
                  "name": "maxOperationsPerInterval",
                  "type": "uint8"
                }
              ],
              "internalType": "struct IONEWallet.CoreSetting[]",
              "name": "innerCores",
              "type": "tuple[]"
            }
          ],
          "internalType": "struct IONEWallet.InitParams",
          "name": "initParams",
          "type": "tuple"
        }
      ],
      "name": "initialize",
      "outputs": [],
      "stateMutability": "nonpayable",
      "type": "function"
    },
    {
      "inputs": [],
      "name": "getForwardAddress",
      "outputs": [
        {
          "internalType": "address payable",
          "name": "",
          "type": "address"
        }
      ],
      "stateMutability": "view",
      "type": "function"
    },
    {
      "inputs": [],
      "name": "retire",
      "outputs": [
        {
          "internalType": "bool",
          "name": "",
          "type": "bool"
        }
      ],
      "stateMutability": "nonpayable",
      "type": "function"
    },
    {
      "inputs": [],
      "name": "getInfo",
      "outputs": [
        {
          "internalType": "bytes32",
          "name": "",
          "type": "bytes32"
        },
        {
          "internalType": "uint8",
          "name": "",
          "type": "uint8"
        },
        {
          "internalType": "uint8",
          "name": "",
          "type": "uint8"
        },
        {
          "internalType": "uint32",
          "name": "",
          "type": "uint32"
        },
        {
          "internalType": "uint32",
          "name": "",
          "type": "uint32"
        },
        {
          "internalType": "uint8",
          "name": "",
          "type": "uint8"
        },
        {
          "internalType": "address",
          "name": "",
          "type": "address"
        },
        {
          "internalType": "uint256",
          "name": "",
          "type": "uint256"
        }
      ],
      "stateMutability": "view",
      "type": "function"
    },
    {
      "inputs": [],
      "name": "getOldInfos",
      "outputs": [
        {
          "components": [
            {
              "internalType": "bytes32",
              "name": "root",
              "type": "bytes32"
            },
            {
              "internalType": "uint8",
              "name": "height",
              "type": "uint8"
            },
            {
              "internalType": "uint8",
              "name": "interval",
              "type": "uint8"
            },
            {
              "internalType": "uint32",
              "name": "t0",
              "type": "uint32"
            },
            {
              "internalType": "uint32",
              "name": "lifespan",
              "type": "uint32"
            },
            {
              "internalType": "uint8",
              "name": "maxOperationsPerInterval",
              "type": "uint8"
            }
          ],
          "internalType": "struct IONEWallet.CoreSetting[]",
          "name": "",
          "type": "tuple[]"
        }
      ],
      "stateMutability": "view",
      "type": "function"
    },
    {
      "inputs": [],
      "name": "getRootKey",
      "outputs": [
        {
          "internalType": "bytes32",
          "name": "",
          "type": "bytes32"
        }
      ],
      "stateMutability": "view",
      "type": "function"
    },
    {
      "inputs": [],
      "name": "getVersion",
      "outputs": [
        {
          "internalType": "uint32",
          "name": "",
          "type": "uint32"
        },
        {
          "internalType": "uint32",
          "name": "",
          "type": "uint32"
        }
      ],
      "stateMutability": "pure",
      "type": "function"
    },
    {
      "inputs": [],
      "name": "getSpendingState",
      "outputs": [
        {
          "components": [
            {
              "internalType": "uint256",
              "name": "spendingLimit",
              "type": "uint256"
            },
            {
              "internalType": "uint256",
              "name": "spentAmount",
              "type": "uint256"
            },
            {
              "internalType": "uint32",
              "name": "lastSpendingInterval",
              "type": "uint32"
            },
            {
              "internalType": "uint32",
              "name": "spendingInterval",
              "type": "uint32"
            },
            {
              "internalType": "uint32",
              "name": "lastLimitAdjustmentTime",
              "type": "uint32"
            },
            {
              "internalType": "uint256",
              "name": "initialSpendingLimit",
              "type": "uint256"
            },
            {
              "internalType": "uint256",
              "name": "highestSpendingLimit",
              "type": "uint256"
            }
          ],
          "internalType": "struct SpendingManager.SpendingState",
          "name": "",
          "type": "tuple"
        }
      ],
      "stateMutability": "view",
      "type": "function"
    },
    {
      "inputs": [],
      "name": "getNonce",
      "outputs": [
        {
          "internalType": "uint8",
          "name": "",
          "type": "uint8"
        }
      ],
      "stateMutability": "view",
      "type": "function"
    },
    {
      "inputs": [],
      "name": "getTrackedTokens",
      "outputs": [
        {
          "internalType": "enum Enums.TokenType[]",
          "name": "",
          "type": "uint8[]"
        },
        {
          "internalType": "address[]",
          "name": "",
          "type": "address[]"
        },
        {
          "internalType": "uint256[]",
          "name": "",
          "type": "uint256[]"
        }
      ],
      "stateMutability": "view",
      "type": "function"
    },
    {
      "inputs": [
        {
          "internalType": "enum Enums.TokenType",
          "name": "tokenType",
          "type": "uint8"
        },
        {
          "internalType": "address",
          "name": "contractAddress",
          "type": "address"
        },
        {
          "internalType": "uint256",
          "name": "tokenId",
          "type": "uint256"
        }
      ],
      "name": "getBalance",
      "outputs": [
        {
          "internalType": "uint256",
          "name": "",
          "type": "uint256"
        }
      ],
      "stateMutability": "view",
      "type": "function"
    },
    {
      "inputs": [],
      "name": "getAllCommits",
      "outputs": [
        {
          "internalType": "bytes32[]",
          "name": "",
          "type": "bytes32[]"
        },
        {
          "internalType": "bytes32[]",
          "name": "",
          "type": "bytes32[]"
        },
        {
          "internalType": "bytes32[]",
          "name": "",
          "type": "bytes32[]"
        },
        {
          "internalType": "uint32[]",
          "name": "",
          "type": "uint32[]"
        },
        {
          "internalType": "bool[]",
          "name": "",
          "type": "bool[]"
        }
      ],
      "stateMutability": "view",
      "type": "function"
    },
    {
      "inputs": [
        {
          "internalType": "bytes32",
          "name": "hash",
          "type": "bytes32"
        }
      ],
      "name": "lookupCommit",
      "outputs": [
        {
          "internalType": "bytes32[]",
          "name": "",
          "type": "bytes32[]"
        },
        {
          "internalType": "bytes32[]",
          "name": "",
          "type": "bytes32[]"
        },
        {
          "internalType": "bytes32[]",
          "name": "",
          "type": "bytes32[]"
        },
        {
          "internalType": "uint32[]",
          "name": "",
          "type": "uint32[]"
        },
        {
          "internalType": "bool[]",
          "name": "",
          "type": "bool[]"
        }
      ],
      "stateMutability": "view",
      "type": "function"
    },
    {
      "inputs": [
        {
          "internalType": "bytes32",
          "name": "hash",
          "type": "bytes32"
        },
        {
          "internalType": "bytes32",
          "name": "paramsHash",
          "type": "bytes32"
        },
        {
          "internalType": "bytes32",
          "name": "verificationHash",
          "type": "bytes32"
        }
      ],
      "name": "commit",
      "outputs": [],
      "stateMutability": "nonpayable",
      "type": "function"
    },
    {
      "inputs": [
        {
          "components": [
            {
              "internalType": "bytes32[]",
              "name": "neighbors",
              "type": "bytes32[]"
            },
            {
              "internalType": "uint32",
              "name": "indexWithNonce",
              "type": "uint32"
            },
            {
              "internalType": "bytes32",
              "name": "eotp",
              "type": "bytes32"
            }
          ],
          "internalType": "struct IONEWallet.AuthParams",
          "name": "auth",
          "type": "tuple"
        },
        {
          "components": [
            {
              "internalType": "enum Enums.OperationType",
              "name": "operationType",
              "type": "uint8"
            },
            {
              "internalType": "enum Enums.TokenType",
              "name": "tokenType",
              "type": "uint8"
            },
            {
              "internalType": "address",
              "name": "contractAddress",
              "type": "address"
            },
            {
              "internalType": "uint256",
              "name": "tokenId",
              "type": "uint256"
            },
            {
              "internalType": "address payable",
              "name": "dest",
              "type": "address"
            },
            {
              "internalType": "uint256",
              "name": "amount",
              "type": "uint256"
            },
            {
              "internalType": "bytes",
              "name": "data",
              "type": "bytes"
            }
          ],
          "internalType": "struct IONEWallet.OperationParams",
          "name": "op",
          "type": "tuple"
        }
      ],
      "name": "reveal",
      "outputs": [],
      "stateMutability": "nonpayable",
      "type": "function"
    },
    {
      "inputs": [
        {
          "internalType": "bytes32[]",
          "name": "",
          "type": "bytes32[]"
        },
        {
          "internalType": "uint32",
          "name": "",
          "type": "uint32"
        },
        {
          "internalType": "bytes32",
          "name": "",
          "type": "bytes32"
        },
        {
          "internalType": "enum Enums.OperationType",
          "name": "",
          "type": "uint8"
        },
        {
          "internalType": "enum Enums.TokenType",
          "name": "",
          "type": "uint8"
        },
        {
          "internalType": "address",
          "name": "",
          "type": "address"
        },
        {
          "internalType": "uint256",
          "name": "",
          "type": "uint256"
        },
        {
          "internalType": "address payable",
          "name": "",
          "type": "address"
        },
        {
          "internalType": "uint256",
          "name": "",
          "type": "uint256"
        },
        {
          "internalType": "bytes",
          "name": "",
          "type": "bytes"
        }
      ],
      "name": "reveal",
      "outputs": [],
      "stateMutability": "pure",
      "type": "function"
    },
    {
      "inputs": [],
      "name": "getBacklinks",
      "outputs": [
        {
          "internalType": "contract IONEWallet[]",
          "name": "",
          "type": "address[]"
        }
      ],
      "stateMutability": "view",
      "type": "function"
    },
    {
      "inputs": [
        {
          "internalType": "bytes4",
          "name": "interfaceId",
          "type": "bytes4"
        }
      ],
      "name": "supportsInterface",
      "outputs": [
        {
          "internalType": "bool",
          "name": "",
          "type": "bool"
        }
      ],
      "stateMutability": "pure",
      "type": "function"
    },
    {
      "inputs": [
        {
          "internalType": "bytes32",
          "name": "hash",
          "type": "bytes32"
        },
        {
          "internalType": "bytes",
          "name": "signatureBytes",
          "type": "bytes"
        }
      ],
      "name": "isValidSignature",
      "outputs": [
        {
          "internalType": "bytes4",
          "name": "",
          "type": "bytes4"
        }
      ],
      "stateMutability": "view",
      "type": "function"
    },
    {
      "inputs": [
        {
          "internalType": "uint32",
          "name": "start",
          "type": "uint32"
        },
        {
          "internalType": "uint32",
          "name": "end",
          "type": "uint32"
        }
      ],
      "name": "listSignatures",
      "outputs": [
        {
          "internalType": "bytes32[]",
          "name": "",
          "type": "bytes32[]"
        },
        {
          "internalType": "bytes32[]",
          "name": "",
          "type": "bytes32[]"
        },
        {
          "internalType": "uint32[]",
          "name": "",
          "type": "uint32[]"
        },
        {
          "internalType": "uint32[]",
          "name": "",
          "type": "uint32[]"
        }
      ],
      "stateMutability": "view",
      "type": "function"
    },
    {
      "inputs": [
        {
          "internalType": "bytes32",
          "name": "hash",
          "type": "bytes32"
        }
      ],
      "name": "lookupSignature",
      "outputs": [
        {
          "internalType": "bytes32",
          "name": "",
          "type": "bytes32"
        },
        {
          "internalType": "uint32",
          "name": "",
          "type": "uint32"
        },
        {
          "internalType": "uint32",
          "name": "",
          "type": "uint32"
        }
      ],
      "stateMutability": "view",
      "type": "function"
    }
  ],
  "bytecode": "0x60806040526017805460ff1916905534801561001a57600080fd5b506144738061002a6000396000f3fe6080604052600436106101d15760003560e01c80635a9b0b89116100f7578063bc197c8111610095578063db582c7e11610064578063db582c7e14610812578063e4e5b25814610828578063ea3f7ec014610848578063f23a6e611461086857600080fd5b8063bc197c8114610790578063c34a6dad146107b0578063d087d288146107cb578063d87458a3146107f257600080fd5b8063a17027e1116100d1578063a17027e114610713578063a4874d7714610739578063a6b920b61461074e578063b1ccfccc1461076e57600080fd5b80635a9b0b891461062d578063695def4c146106ad57806391df0925146106d157600080fd5b80632293d3fb1161016f5780633f079ab81161013e5780633f079ab81461059357806341a64878146105b3578063424c5110146105db578063496018af1461060b57600080fd5b80632293d3fb1461048a5780632f1f7520146104b4578063318c728c146104d9578063396ec5f41461055257600080fd5b8063150b7a02116101ab578063150b7a02146103cd5780631626ba7e1461040657806316d43a97146104265780631cf4ea051461043c57600080fd5b806301ffc9a71461035357806304013239146103885780630d8e6e2c146103ab57600080fd5b3661034e5760175460ff166101e557600080fd5b600e546001600160a01b03161561026c57600654600e546001600160a01b039081169116141561021957610217610888565b005b6006546001600160a01b031633141561026457670de0b6b3a764000034141561025c57600654610251906001600160a01b0316610924565b610259610bd8565b50005b610251610ca6565b610217610888565b670de0b6b3a7640000341461027d57005b6006546001600160a01b0316331461029157005b3330141561029b57005b62127500600d546102ac9190614236565b42101561030a577fe58fb6bc612703a64f091af2ff6a6831eca838a0301129ab6879cab20d6d7c8c3362127500600d546102e69190614236565b604080516001600160a01b03909316835260208301919091520160405180910390a1005b6040513381527f0cbe1fea4becf04af2176bbef0c9c53d439d30a05a197aacc38bb4a2873222e39060200160405180910390a1610345610cfc565b61021757600080fd5b600080fd5b34801561035f57600080fd5b5061037361036e36600461369f565b610dee565b60405190151581526020015b60405180910390f35b34801561039457600080fd5b5061039d610e19565b60405190815260200161037f565b3480156103b757600080fd5b5060408051600f8152600160208201520161037f565b3480156103d957600080fd5b506103ed6103e8366004612f61565b610e64565b6040516001600160e01b0319909116815260200161037f565b34801561041257600080fd5b506103ed610421366004613619565b610fdd565b34801561043257600080fd5b5061039d600d5481565b34801561044857600080fd5b5061045c6104573660046135d6565b611073565b60405161037f9493929190938452602084019290925263ffffffff1660408301521515606082015260800190565b34801561049657600080fd5b5061049f61107e565b6040805192835260208301919091520161037f565b3480156104c057600080fd5b506104c9611086565b60405161037f9493929190613cc4565b3480156104e557600080fd5b506104ee611091565b60405161037f9190600060e0820190508251825260208301516020830152604083015163ffffffff8082166040850152806060860151166060850152806080860151166080850152505060a083015160a083015260c083015160c083015292915050565b34801561055e57600080fd5b50610567611073565b60408051948552602085019390935263ffffffff9182169284019290925216606082015260800161037f565b34801561059f57600080fd5b506102176105ae366004613717565b61113e565b3480156105bf57600080fd5b50600e546040516001600160a01b03909116815260200161037f565b3480156105e757600080fd5b506105fb6105f63660046138ec565b6111fc565b60405161037f9493929190613d11565b34801561061757600080fd5b506106206112b0565b60405161037f9190613d5e565b34801561063957600080fd5b506002546003546006546040805193845260ff808416602086015261010080850482169286019290925263ffffffff62010000850481166060870152600160301b8504166080860152600160501b90930490921660a08401526001600160a01b031660c0830152600060e08301520161037f565b3480156106b957600080fd5b506106c2611312565b60405161037f93929190613dab565b3480156106dd57600080fd5b506106f16106ec3660046135d6565b6113ab565b6040805193845263ffffffff928316602085015291169082015260600161037f565b34801561071f57600080fd5b50610728611449565b60405161037f959493929190613c63565b34801561074557600080fd5b506103736114ec565b34801561075a57600080fd5b5061039d6107693660046136d7565b611596565b34801561077a57600080fd5b50610783611666565b60405161037f9190613e3c565b34801561079c57600080fd5b506103ed6107ab366004612ea7565b611713565b3480156107bc57600080fd5b5061021761034e36600461313e565b3480156107d757600080fd5b506107e0611825565b60405160ff909116815260200161037f565b3480156107fe57600080fd5b5061072861080d3660046135d6565b6118c1565b34801561081e57600080fd5b5061039d60075481565b34801561083457600080fd5b506102176108433660046135ee565b61196c565b34801561085457600080fd5b50610217610863366004613784565b6119f8565b34801561087457600080fd5b506103ed610883366004612fd1565b611d72565b600e546040516000916001600160a01b03169034908381818185875af1925050503d80600081146108d5576040519150601f19603f3d011682016040523d82523d6000602084013e6108da565b606091505b50509050806108e857600080fd5b604080513481523360208201527f6e8641fc34fdcf9d67683d1a8ced72ff01d27ff86ff3b1d338fa6165e496c73f91015b60405180910390a150565b600e546001600160a01b031630148061094457506001600160a01b038116155b15610982576040516001600160a01b03821681527f81a6b37eeab97da1bb7ac3b3e34fcee45f445c8de943999917a6fe95ed7fa78790602001610919565b600e80546001600160a01b0319166001600160a01b0383169081179091556040519081527fa706c3d6ff18ff7dfc1ee0a34bc34fe432c200d8d475bff3ed963eb31ae194689060200160405180910390a16006546109e8906001600160a01b0316611eec565b610a4e57600e54610a01906001600160a01b0316611f28565b6000610a0b610cfc565b90507f41af6efec37729ca1819094cce85d9ae325b936fda39ac98a58cfcb45d431b4b81604051610a40911515815260200190565b60405180910390a150610b62565b60405163c9c80f8f60e01b81526008600482015260009073__SpendingManager_______________________9063c9c80f8f9060240160206040518083038186803b158015610a9c57600080fd5b505af4158015610ab0573d6000803e3d6000fd5b505050506040513d601f19601f82011682018060405250810190610ad49190613877565b600e54909150610aed906001600160a01b031682611fd4565b5060405163aaf6047360e01b8152600060048201526001600160a01b038316602482015273__TokenTracker__________________________9063aaf604739060440160006040518083038186803b158015610b4857600080fd5b505af4158015610b5c573d6000803e3d6000fd5b50505050505b604051639cacd87160e01b8152600f60048201526001600160a01b038216602482015273__WalletGraph___________________________90639cacd871906044015b60006040518083038186803b158015610bbd57600080fd5b505af4158015610bd1573d6000803e3d6000fd5b5050505050565b600654600090610bf0906001600160a01b0316611eec565b610c23576040517fc27dbdcf29e2a161f0420d399444129801e578bafe157fef0370098459e082bf90600090a150600090565b6006546001600160a01b0316301415610c3c5750600190565b610c44610cfc565b610c77576040517fa3a244603d968c02ebd2017f990d4e077cf0381929976be2a0cb07076147a56f90600090a150600090565b6040517f94f696b15fed1e58be1975a224273b56878dda280cb878ec20eb56b6fea7313a90600090a150600190565b600e54600680546001600160a01b0319166001600160a01b0390921691821790556040519081527f83c14e1947c5a639434d6195a6e9d85ab3471a5049c66e0aa46b71e2c0a06dde9060200160405180910390a1565b60065460405160009182916001600160a01b039091169047908381818185875af1925050503d8060008114610d4d576040519150601f19603f3d011682016040523d82523d6000602084013e610d52565b606091505b505090508015610de957600654600e80546001600160a01b0319166001600160a01b03909216918217905560405163aaf6047360e01b815260006004820152602481019190915273__TokenTracker__________________________9063aaf604739060440160006040518083038186803b158015610dd057600080fd5b505af4158015610de4573d6000803e3d6000fd5b505050505b919050565b60006001600160e01b03198216630b135d3f60e11b1480610e135750610e13826121f7565b92915050565b60045460009015610e5d576004600081548110610e4657634e487b7160e01b600052603260045260246000fd5b906000526020600020906002020160000154905090565b5060025490565b60007feb7a68d5a205eea79480f44587fe8146ae15b7e92582967fd1b1b119c9b60efa60018087338a898989604051610ea4989796959493929190613f2a565b60405180910390a16000610ec0600e546001600160a01b031690565b90506001600160a01b03811615610f595760405163c841a9db60e01b815273__TokenTracker__________________________9063c841a9db90610f189060009060019033908b90889084908d908d90600401614146565b60006040518083038186803b158015610f3057600080fd5b505af4158015610f44573d6000803e3d6000fd5b50630a85bd0160e11b9450610fd49350505050565b6040516304e9b2db60e31b815273__TokenTracker__________________________9063274d96d890610f989060009060019033908b90600401614117565b60006040518083038186803b158015610fb057600080fd5b505af4158015610fc4573d6000803e3d6000fd5b50630a85bd0160e11b9450505050505b95945050505050565b604051634d94f52360e01b815260009073__SignatureManager______________________90634d94f5239061101c90601490879087906004016140f8565b60206040518083038186803b15801561103457600080fd5b505af4158015611048573d6000803e3d6000fd5b505050506040513d601f19601f8201168201806040525081019061106c91906136bb565b9392505050565b600080600080600080fd5b600080600080fd5b606080606080600080fd5b6110e36040518060e001604052806000815260200160008152602001600063ffffffff168152602001600063ffffffff168152602001600063ffffffff16815260200160008152602001600081525090565b506040805160e08101825260085481526009546020820152600a5463ffffffff80821693830193909352640100000000810483166060830152600160401b90049091166080820152600b5460a0820152600c5460c082015290565b60175460ff1661114d57600080fd5b600e546001600160a01b031633146111e75760065460405163f35664b160e01b815273__Reveal________________________________9163f35664b1916111b2916002916004916005916001600160a01b03909116906010908a908a908601613f9b565b60006040518083038186803b1580156111ca57600080fd5b505af41580156111de573d6000803e3d6000fd5b505042600d5550505b6111f86111f3826142aa565b612248565b5050565b604051630139109f60e31b81526014600482015263ffffffff80841660248301528216604482015260609081908190819073__SignatureManager______________________906309c884f89060640160006040518083038186803b15801561126457600080fd5b505af4158015611278573d6000803e3d6000fd5b505050506040513d6000823e601f3d908101601f191682016040526112a091908101906132ee565b9299919850965090945092505050565b6060600f80548060200260200160405190810160405280929190818152602001828054801561130857602002820191906000526020600020905b81546001600160a01b031681526001909101906020018083116112ea575b5050505050905090565b604051631d9037a160e11b8152600060048201526060908190819073__TokenTracker__________________________90633b206f429060240160006040518083038186803b15801561136457600080fd5b505af4158015611378573d6000803e3d6000fd5b505050506040513d6000823e601f3d908101601f191682016040526113a09190810190613395565b925092509250909192565b604051635107e51560e11b815260146004820152602481018290526000908190819073__SignatureManager______________________9063a20fca2a9060440160606040518083038186803b15801561140457600080fd5b505af4158015611418573d6000803e3d6000fd5b505050506040513d601f19601f8201168201806040525081019061143c919061365d565b9250925092509193909250565b60405163732d1f0f60e01b815260106004820152606090819081908190819073__CommitManager_________________________9063732d1f0f9060240160006040518083038186803b15801561149f57600080fd5b505af41580156114b3573d6000803e3d6000fd5b505050506040513d6000823e601f3d908101601f191682016040526114db9190810190613223565b945094509450945094509091929394565b60035460009063ffffffff600160301b82048116916201000081049091169061151e9060ff610100909104164261424e565b6115289190614285565b63ffffffff161161153857600080fd5b60065461154d906001600160a01b0316611eec565b61155657600080fd5b61155e610cfc565b61156757600080fd5b6040517fc15f68f0a72806ff3f8bf2435385a67c4c22413f1c7931ef7bcea718e6ffcf0390600090a150600190565b60008060008073__TokenTracker__________________________636489a8db8888886040518463ffffffff1660e01b81526004016115d793929190613f02565b60006040518083038186803b1580156115ef57600080fd5b505af4158015611603573d6000803e3d6000fd5b505050506040513d6000823e601f3d908101601f1916820160405261162b919081019061388f565b92509250925081819061165a5760405162461bcd60e51b81526004016116519190613f88565b60405180910390fd5b50919695505050505050565b60606004805480602002602001604051908101604052809291908181526020016000905b8282101561170a5760008481526020908190206040805160c081018252600286029092018054835260019081015460ff80821685870152610100820481169385019390935263ffffffff62010000820481166060860152600160301b8204166080850152600160501b900490911660a0830152908352909201910161168a565b50505050905090565b6000805b63ffffffff811687111561180f573063f23a6e618b8b8b8b63ffffffff871681811061175357634e487b7160e01b600052603260045260246000fd5b905060200201358a8a8763ffffffff1681811061178057634e487b7160e01b600052603260045260246000fd5b9050602002013589896040518763ffffffff1660e01b81526004016117aa96959493929190613b99565b602060405180830381600087803b1580156117c457600080fd5b505af11580156117d8573d6000803e3d6000fd5b505050506040513d601f19601f820116820180604052508101906117fc91906136bb565b508061180781614371565b915050611717565b5063bc197c8160e01b9998505050505050505050565b600354604051631601f47b60e31b81526010600482015261010090910460ff16602482015260009073__CommitManager_________________________9063b00fa3d89060440160206040518083038186803b15801561188457600080fd5b505af4158015611898573d6000803e3d6000fd5b505050506040513d601f19601f820116820180604052508101906118bc9190613919565b905090565b6040516391a351d360e01b81526010600482015260248101829052606090819081908190819073__CommitManager_________________________906391a351d39060440160006040518083038186803b15801561191e57600080fd5b505af4158015611932573d6000803e3d6000fd5b505050506040513d6000823e601f3d908101601f1916820160405261195a9190810190613223565b939a9299509097509550909350915050565b60175460ff1661197b57600080fd5b604051632b6e663760e21b81526010600482015260248101849052604481018390526064810182905273__CommitManager_________________________9063adb998dc9060840160006040518083038186803b1580156119db57600080fd5b505af41580156119ef573d6000803e3d6000fd5b50505050505050565b60175460ff1615611a0857600080fd5b60005b8160a00151518163ffffffff161015611b0f5760048260a001518263ffffffff1681518110611a4a57634e487b7160e01b600052603260045260246000fd5b60209081029190910181015182546001808201855560009485529383902082516002909202019081559181015191909201805460408401516060850151608086015160a09096015160ff95861661ffff1990941693909317610100928616929092029190911769ffffffffffffffff000019166201000063ffffffff9283160263ffffffff60301b191617600160301b91909516029390931760ff60501b1916600160501b929093169190910291909117905580611b0781614371565b915050611a0b565b5060005b8160c00151518163ffffffff161015611c175760058260c001518263ffffffff1681518110611b5257634e487b7160e01b600052603260045260246000fd5b60209081029190910181015182546001808201855560009485529383902082516002909202019081559181015191909201805460408401516060850151608086015160a09096015160ff95861661ffff1990941693909317610100928616929092029190911769ffffffffffffffff000019166201000063ffffffff9283160263ffffffff60301b191617600160301b91909516029390931760ff60501b1916600160501b929093169190910291909117905580611c0f81614371565b915050611b13565b5080518051600255602080820151600380546040808601516060808801516080808a015160a09a8b015160ff998a1661ffff1990981697909717610100958a16959095029490941769ffffffffffffffff000019166201000063ffffffff9384160263ffffffff60301b191617600160301b948316949094029390931760ff60501b1916600160501b9790951696909602939093179093558487015180516008558086015160095580820151600a8054948301518387015192881667ffffffffffffffff199096169590951764010000000095881695909502949094176bffffffff00000000000000001916600160401b91909616029490941790915593820151600b5560c090910151600c5591830151600680546001600160a01b0319166001600160a01b03909216919091179055908201518051611d5b92600f920190612914565b50606001516007556017805460ff19166001179055565b60007feb7a68d5a205eea79480f44587fe8146ae15b7e92582967fd1b1b119c9b60efa60028588338b8a8989604051611db2989796959493929190613f2a565b60405180910390a16000611dce600e546001600160a01b031690565b90506001600160a01b03811615611e675760405163c841a9db60e01b815273__TokenTracker__________________________9063c841a9db90611e269060009060029033908c9088908d908d908d90600401614146565b60006040518083038186803b158015611e3e57600080fd5b505af4158015611e52573d6000803e3d6000fd5b5063f23a6e6160e01b9450611ee29350505050565b6040516304e9b2db60e31b815273__TokenTracker__________________________9063274d96d890611ea69060009060029033908c90600401614117565b60006040518083038186803b158015611ebe57600080fd5b505af4158015611ed2573d6000803e3d6000fd5b5063f23a6e6160e01b9450505050505b9695505050505050565b60006001600160a01b03821615801590610e1357506001600160a01b038216737534978f9fa903150ed429c486d1f42b7fdb7a61141592915050565b600654611f3d906001600160a01b0316611eec565b80611f5057506001600160a01b03811630145b15611f8657604051600081527f83c14e1947c5a639434d6195a6e9d85ab3471a5049c66e0aa46b71e2c0a06dde90602001610919565b600680546001600160a01b0319166001600160a01b0383169081179091556040519081527f83c14e1947c5a639434d6195a6e9d85ab3471a5049c66e0aa46b71e2c0a06dde90602001610919565b60405163075f723760e11b8152600860048201526001600160a01b038316602482015260448101829052600090819073__SpendingManager_______________________90630ebee46e9060640160206040518083038186803b15801561203a57600080fd5b505af415801561204e573d6000803e3d6000fd5b505050506040513d601f19601f8201168201806040525081019061207291906135bc565b905080612083576000915050610e13565b60405163ddc7babd60e01b8152600860048201526024810184905273__SpendingManager_______________________9063ddc7babd9060440160006040518083038186803b1580156120d557600080fd5b505af41580156120e9573d6000803e3d6000fd5b50505050600080856001600160a01b03168560405160006040518083038185875af1925050503d806000811461213b576040519150601f19603f3d011682016040523d82523d6000602084013e612140565b606091505b5091509150816121aa57846008600101600082825461215f919061426e565b90915550506040517ff5c313ebe4b0c35fe244772061cea14ddbae7ed089b2850d6ee2235fd42847e4906121969088908490613b6d565b60405180910390a160009350505050610e13565b604080518681526001600160a01b03881660208201527f8f4636f285a9a17fe3479ab47bb7a5deadaf9b2295a16c3965f55fa48e542d1f910160405180910390a150600195945050505050565b60006001600160e01b031982166301ffc9a760e01b148061222857506001600160e01b0319821663f23a6e6160e01b145b80610e1357506001600160e01b03198216630a85bd0160e11b1492915050565b60048151601981111561226b57634e487b7160e01b600052602160045260246000fd5b1415612283576111f881608001518260a00151611fd4565b6006815160198111156122a657634e487b7160e01b600052602160045260246000fd5b14156122b4576111f8610bd8565b6005815160198111156122d757634e487b7160e01b600052602160045260246000fd5b14156122ed576122ea8160800151611f28565b50565b60088151601981111561231057634e487b7160e01b600052602160045260246000fd5b1415612323576122ea8160800151610924565b60158151601981111561234657634e487b7160e01b600052602160045260246000fd5b141561237957606081015161236c576122ea81604001518260a001518360c0015161246b565b6122ea8160c001516126c5565b60078151601981111561239c57634e487b7160e01b600052602160045260246000fd5b14156123f25760c0810151600e54604051637d80bb9960e11b815273__CoreManager___________________________9263fb01773292610ba59260049260029290916001600160a01b03909116908401613eca565b60168151601981111561241557634e487b7160e01b600052602160045260246000fd5b1415612428576122ea8160c00151612897565b6040516338e617e360e21b815273__Executor______________________________9063e3985f8c90610ba5908490600090600f90601490600890600401614058565b60405163075f723760e11b8152600860048201526001600160a01b03841660248201526044810183905260009073__SpendingManager_______________________90630ebee46e9060640160206040518083038186803b1580156124cf57600080fd5b505af41580156124e3573d6000803e3d6000fd5b505050506040513d601f19601f8201168201806040525081019061250791906135bc565b90508061254f577f4d62b9a6ffb55cee5d5dc75b67dc0013b2cce2fa73c7a715ad72dedc5ffdc60c84848460405161254193929190613c24565b60405180910390a150505050565b60405163ddc7babd60e01b8152600860048201526024810184905273__SpendingManager_______________________9063ddc7babd9060440160006040518083038186803b1580156125a157600080fd5b505af41580156125b5573d6000803e3d6000fd5b50505050600080856001600160a01b031685856040516125d59190613b51565b60006040518083038185875af1925050503d8060008114612612576040519150601f19603f3d011682016040523d82523d6000602084013e612617565b606091505b50915091508115612664577f594eb1d75e7963acdb8e3677a186a5ed35924ab37f2b20e78aea6516bbc9bd6e868686846040516126579493929190613be0565b60405180910390a16126bd565b8460086001016000828254612679919061426e565b90915550506040517f4d62b9a6ffb55cee5d5dc75b67dc0013b2cce2fa73c7a715ad72dedc5ffdc60c906126b4908890889088908690613be0565b60405180910390a15b505050505050565b6000806000838060200190518101906126de919061304a565b9250925092506000805b83518163ffffffff16101561274457838163ffffffff168151811061271d57634e487b7160e01b600052603260045260246000fd5b6020026020010151826127309190614236565b91508061273c81614371565b9150506126e8565b5060405163075f723760e11b815260086004820152600060248201526044810182905273__SpendingManager_______________________90630ebee46e9060640160206040518083038186803b15801561279e57600080fd5b505af41580156127b2573d6000803e3d6000fd5b505050506040513d601f19601f820116820180604052508101906127d691906135bc565b6127e1575050505050565b60005b84518163ffffffff1610156126bd57612885858263ffffffff168151811061281c57634e487b7160e01b600052603260045260246000fd5b6020026020010151858363ffffffff168151811061284a57634e487b7160e01b600052603260045260246000fd5b6020026020010151858463ffffffff168151811061287857634e487b7160e01b600052603260045260246000fd5b602002602001015161246b565b8061288f81614371565b9150506127e4565b6000818060200190518101906128ad919061347d565b805190915060005b8160ff168163ffffffff16101561290e576128fc838263ffffffff16815181106128ef57634e487b7160e01b600052603260045260246000fd5b6020026020010151612248565b8061290681614371565b9150506128b5565b50505050565b828054828255906000526020600020908101928215612969579160200282015b8281111561296957825182546001600160a01b0319166001600160a01b03909116178255602090920191600190910190612934565b50612975929150612979565b5090565b5b80821115612975576000815560010161297a565b60006129a161299c8461420f565b6141bc565b90508281528383830111156129b557600080fd5b61106c836020830184614345565b8035610de9816143d7565b8051610de9816143d7565b600082601f8301126129e9578081fd5b815160206129f961299c836141ec565b80838252828201915082860187848660051b8901011115612a18578586fd5b855b85811015612a3f578151612a2d816143d7565b84529284019290840190600101612a1a565b5090979650505050505050565b600082601f830112612a5c578081fd5b81516020612a6c61299c836141ec565b80838252828201915082860187848660051b8901011115612a8b578586fd5b855b85811015612a3f57612a9e82612c94565b84529284019290840190600101612a8d565b60008083601f840112612ac1578182fd5b5081356001600160401b03811115612ad7578182fd5b6020830191508360208260051b8501011115612af257600080fd5b9250929050565b600082601f830112612b09578081fd5b81516020612b1961299c836141ec565b80838252828201915082860187848660051b8901011115612b38578586fd5b855b85811015612a3f57815184529284019290840190600101612b3a565b600082601f830112612b66578081fd5b81356020612b7661299c836141ec565b80838252828201915082860187848660051b8901011115612b95578586fd5b855b85811015612a3f578135612baa816143d7565b84529284019290840190600101612b97565b600082601f830112612bcc578081fd5b81356020612bdc61299c836141ec565b8281528181019085830160c080860288018501891015612bfa578687fd5b865b86811015612c2057612c0e8a84612d7a565b85529385019391810191600101612bfc565b509198975050505050505050565b600082601f830112612c3e578081fd5b81516020612c4e61299c836141ec565b80838252828201915082860187848660051b8901011115612c6d578586fd5b855b85811015612a3f578151612c828161441c565b84529284019290840190600101612c6f565b80518015158114610de957600080fd5b60008083601f840112612cb5578182fd5b5081356001600160401b03811115612ccb578182fd5b602083019150836020828501011115612af257600080fd5b600082601f830112612cf3578081fd5b8135612d0161299c8261420f565b818152846020838601011115612d15578283fd5b816020850160208301379081016020019190915292915050565b600082601f830112612d3f578081fd5b61106c8383516020850161298e565b8035610de981614402565b8051610de981614402565b8035610de98161440f565b8051610de98161440f565b600060c08284031215612d8b578081fd5b60405160c081018181106001600160401b0382111715612dad57612dad6143c1565b604052823581529050806020830135612dc58161442e565b60208201526040830135612dd88161442e565b60408201526060830135612deb8161441c565b60608201526080830135612dfe8161441c565b608082015260a0830135612e118161442e565b60a0919091015292915050565b600060e08284031215612e2f578081fd5b612e37614194565b905081358152602082013560208201526040820135612e558161441c565b60408201526060820135612e688161441c565b60608201526080820135612e7b8161441c565b8060808301525060a082013560a082015260c082013560c082015292915050565b8035610de98161441c565b60008060008060008060008060a0898b031215612ec2578384fd5b8835612ecd816143d7565b97506020890135612edd816143d7565b965060408901356001600160401b0380821115612ef8578586fd5b612f048c838d01612ab0565b909850965060608b0135915080821115612f1c578586fd5b612f288c838d01612ab0565b909650945060808b0135915080821115612f40578384fd5b50612f4d8b828c01612ca4565b999c989b5096995094979396929594505050565b600080600080600060808688031215612f78578283fd5b8535612f83816143d7565b94506020860135612f93816143d7565b93506040860135925060608601356001600160401b03811115612fb4578182fd5b612fc088828901612ca4565b969995985093965092949392505050565b60008060008060008060a08789031215612fe9578384fd5b8635612ff4816143d7565b95506020870135613004816143d7565b9450604087013593506060870135925060808701356001600160401b0381111561302c578283fd5b61303889828a01612ca4565b979a9699509497509295939492505050565b60008060006060848603121561305e578081fd5b83516001600160401b0380821115613074578283fd5b613080878388016129d9565b9450602091508186015181811115613096578384fd5b6130a288828901612af9565b9450506040860151818111156130b6578384fd5b8601601f810188136130c6578384fd5b80516130d461299c826141ec565b8082825285820191508584018b878560051b87010111156130f3578788fd5b875b8481101561312c5781518781111561310b57898afd5b6131198e8a838a0101612d2f565b85525092870192908701906001016130f5565b50508096505050505050509250925092565b6000806000806000806000806000806000806101408d8f031215613160578586fd5b6001600160401b038d351115613174578586fd5b6131818e8e358f01612ab0565b909c509a5061319260208e01612e9c565b995060408d013598506131a760608e01612d4e565b97506131b560808e01612d64565b96506131c360a08e016129c3565b955060c08d013594506131d860e08e016129c3565b93506101008d013592506001600160401b036101208e013511156131fa578081fd5b61320b8e6101208f01358f01612ca4565b81935080925050509295989b509295989b509295989b565b600080600080600060a0868803121561323a578283fd5b85516001600160401b0380821115613250578485fd5b61325c89838a01612af9565b96506020880151915080821115613271578485fd5b61327d89838a01612af9565b95506040880151915080821115613292578485fd5b61329e89838a01612af9565b945060608801519150808211156132b3578283fd5b6132bf89838a01612c2e565b935060808801519150808211156132d4578283fd5b506132e188828901612a4c565b9150509295509295909350565b60008060008060808587031215613303578182fd5b84516001600160401b0380821115613319578384fd5b61332588838901612af9565b9550602087015191508082111561333a578384fd5b61334688838901612af9565b9450604087015191508082111561335b578384fd5b61336788838901612c2e565b9350606087015191508082111561337c578283fd5b5061338987828801612c2e565b91505092959194509250565b6000806000606084860312156133a9578081fd5b83516001600160401b03808211156133bf578283fd5b818601915086601f8301126133d2578283fd5b815160206133e261299c836141ec565b8083825282820191508286018b848660051b8901011115613401578788fd5b8796505b8487101561342c5780516134188161440f565b835260019690960195918301918301613405565b5091890151919750909350505080821115613445578283fd5b613451878388016129d9565b93506040860151915080821115613466578283fd5b5061347386828701612af9565b9150509250925092565b6000602080838503121561348f578182fd5b82516001600160401b03808211156134a5578384fd5b818501915085601f8301126134b8578384fd5b81516134c661299c826141ec565b80828252858201915085850189878560051b88010111156134e5578788fd5b875b848110156135ad578151868111156134fd57898afd5b870160e0818d03601f1901811315613513578a8bfd5b61351b614194565b6135268b8401612d59565b81526040613535818501612d6f565b8c83015260606135468186016129ce565b828401526080915081850151818401525060a06135648186016129ce565b8284015260c0915081850151818401525082840151925089831115613587578c8dfd5b6135958f8d85870101612d2f565b908201528652505092870192908701906001016134e7565b50909998505050505050505050565b6000602082840312156135cd578081fd5b61106c82612c94565b6000602082840312156135e7578081fd5b5035919050565b600080600060608486031215613602578081fd5b505081359360208301359350604090920135919050565b6000806040838503121561362b578182fd5b8235915060208301356001600160401b03811115613647578182fd5b61365385828601612ce3565b9150509250929050565b600080600060608486031215613671578081fd5b8351925060208401516136838161441c565b60408501519092506136948161441c565b809150509250925092565b6000602082840312156136b0578081fd5b813561106c816143ec565b6000602082840312156136cc578081fd5b815161106c816143ec565b6000806000606084860312156136eb578081fd5b83356136f68161440f565b92506020840135613706816143d7565b929592945050506040919091013590565b60008060408385031215613729578182fd5b82356001600160401b038082111561373f578384fd5b9084019060608287031215613752578384fd5b90925060208401359080821115613767578283fd5b50830160e08186031215613779578182fd5b809150509250929050565b600060208284031215613795578081fd5b81356001600160401b03808211156137ab578283fd5b9083019061024082860312156137bf578283fd5b6137c7614194565b6137d18684612d7a565b81526137e08660c08501612e1e565b60208201526137f26101a084016129c3565b60408201526101c083013560608201526101e083013582811115613814578485fd5b61382087828601612b56565b60808301525061020083013582811115613838578485fd5b61384487828601612bbc565b60a0830152506102208301358281111561385c578485fd5b61386887828601612bbc565b60c08301525095945050505050565b600060208284031215613888578081fd5b5051919050565b6000806000606084860312156138a3578081fd5b835192506138b360208501612c94565b915060408401516001600160401b038111156138cd578182fd5b8401601f810186136138dd578182fd5b6134738682516020840161298e565b600080604083850312156138fe578182fd5b82356139098161441c565b915060208301356137798161441c565b60006020828403121561392a578081fd5b815161106c8161442e565b6000815180845260208085019450808401835b83811015613966578151151587529582019590820190600101613948565b509495945050505050565b81835260006001600160fb1b03831115613989578081fd5b8260051b80836020870137939093016020019283525090919050565b6000815180845260208085019450808401835b83811015613966578151875295820195908201906001016139b8565b6000815180845260208085019450808401835b8381101561396657815163ffffffff16875295820195908201906001016139e7565b81835281816020850137506000828201602090810191909152601f909101601f19169091010190565b60008151808452613a4a816020860160208601614345565b601f01601f19169290920160200192915050565b601a8110613a6e57613a6e6143ab565b9052565b60048110613a6e57613a6e6143ab565b60008135613a8f81614402565b613a998482613a5e565b506020820135613aa88161440f565b613ab56020850182613a72565b506040820135613ac4816143d7565b6001600160a01b03908116604085015260608381013590850152608083013590613aed826143d7565b16608084015260a0828101359084015260c082013536839003601e19018112613b14578182fd5b820180356001600160401b03811115613b2b578283fd5b803603841315613b39578283fd5b60e060c0860152610fd460e086018260208501613a09565b60008251613b63818460208701614345565b9190910192915050565b6001600160a01b0383168152604060208201819052600090613b9190830184613a32565b949350505050565b6001600160a01b03878116825286166020820152604081018590526060810184905260a060808201819052600090613bd49083018486613a09565b98975050505050505050565b60018060a01b0385168152836020820152608060408201526000613c076080830185613a32565b8281036060840152613c198185613a32565b979650505050505050565b60018060a01b0384168152826020820152608060408201526000613c4b6080830184613a32565b82810360609093019290925281526020019392505050565b60a081526000613c7660a08301886139a5565b8281036020840152613c8881886139a5565b90508281036040840152613c9c81876139a5565b90508281036060840152613cb081866139d4565b90508281036080840152613bd48185613935565b608081526000613cd760808301876139a5565b8281036020840152613ce981876139a5565b90508281036040840152613cfd81866139d4565b90508281036060840152613c198185613935565b608081526000613d2460808301876139a5565b8281036020840152613d3681876139a5565b90508281036040840152613d4a81866139d4565b90508281036060840152613c1981856139d4565b6020808252825182820181905260009190848201906040850190845b81811015613d9f5783516001600160a01b031683529284019291840191600101613d7a565b50909695505050505050565b606080825284519082018190526000906020906080840190828801845b82811015613deb57613ddb848351613a72565b9284019290840190600101613dc8565b50505083810382850152855180825286830191830190845b81811015613e285783516001600160a01b031683529284019291840191600101613e03565b50508481036040860152613bd481876139a5565b602080825282518282018190526000919060409081850190868401855b82811015613ebd578151805185528681015160ff908116888701528682015181168787015260608083015163ffffffff908116918801919091526080808401519091169087015260a091820151169085015260c09093019290850190600101613e59565b5091979650505050505050565b848152836020820152608060408201526000613ee96080830185613a32565b905060018060a01b038316606083015295945050505050565b60608101613f108286613a72565b6001600160a01b0393909316602082015260400152919050565b613f34818a613a72565b602081018890526001600160a01b03878116604083015286811660608301528516608082015260a0810184905260e060c08201819052600090613f7a9083018486613a09565b9a9950505050505050505050565b60208152600061106c6020830184613a32565b87815260208101879052604081018690526001600160a01b03851660608201526080810184905260e060a08201526000833536859003601e19018112613fdf578182fd5b840180356001600160401b03811115613ff6578283fd5b8060051b3603861315614007578283fd5b606060e085015261402061014085018260208501613971565b91505061402f60208601612e9c565b63ffffffff16610100840152604085013561012084015282810360c0840152613f7a8185613a82565b60a0815261406a60a082018751613a5e565b6000602087015161407e60c0840182613a72565b50604087015160018060a01b0380821660e085015260608901516101008501528060808a015116610120850152505060a087015161014083015260c087015160e06101608401526140d3610180840182613a32565b9150508560208301528460408301528360608301528260808301529695505050505050565b838152826020820152606060408201526000610fd46060830184613a32565b8481526080810161412b6020830186613a72565b6001600160a01b039390931660408201526060015292915050565b8881526141566020820189613a72565b6001600160a01b038781166040830152606082018790528516608082015260a0810184905260e060c08201819052600090613f7a9083018486613a09565b60405160e081016001600160401b03811182821017156141b6576141b66143c1565b60405290565b604051601f8201601f191681016001600160401b03811182821017156141e4576141e46143c1565b604052919050565b60006001600160401b03821115614205576142056143c1565b5060051b60200190565b60006001600160401b03821115614228576142286143c1565b50601f01601f191660200190565b6000821982111561424957614249614395565b500190565b60008261426957634e487b7160e01b81526012600452602481fd5b500490565b60008282101561428057614280614395565b500390565b600063ffffffff838116908316818110156142a2576142a2614395565b039392505050565b600060e082360312156142bb578081fd5b6142c3614194565b6142cc83612d4e565b81526142da60208401612d64565b60208201526142eb604084016129c3565b604082015260608301356060820152614306608084016129c3565b608082015260a083013560a082015260c08301356001600160401b0381111561432d578283fd5b61433936828601612ce3565b60c08301525092915050565b60005b83811015614360578181015183820152602001614348565b8381111561290e5750506000910152565b600063ffffffff8083168181141561438b5761438b614395565b6001019392505050565b634e487b7160e01b600052601160045260246000fd5b634e487b7160e01b600052602160045260246000fd5b634e487b7160e01b600052604160045260246000fd5b6001600160a01b03811681146122ea57600080fd5b6001600160e01b0319811681146122ea57600080fd5b601a81106122ea57600080fd5b600481106122ea57600080fd5b63ffffffff811681146122ea57600080fd5b60ff811681146122ea57600080fdfea264697066735822122024731e21fe19639b6c1ef1a8b257e1da488e92117668a37b1b06effe4323640364736f6c63430008040033",
  "immutableReferences": {},
  "source": "// SPDX-License-Identifier: Apache-2.0\npragma solidity ^0.8.4;\n\nimport \"./SpendingManager.sol\";\nimport \"./CommitManager.sol\";\nimport \"./TokenManager.sol\";\nimport \"./DomainManager.sol\";\nimport \"./SignatureManager.sol\";\nimport \"./Reveal.sol\";\nimport \"./WalletGraph.sol\";\nimport \"./Enums.sol\";\nimport \"./IONEWallet.sol\";\nimport \"./AbstractONEWallet.sol\";\nimport \"./CoreManager.sol\";\nimport \"./Executor.sol\";\nimport \"./Recovery.sol\";\nimport \"./Version.sol\";\n\ncontract ONEWallet is TokenManager, AbstractONEWallet {\n    using TokenTracker for TokenTracker.TokenTrackerState;\n    using WalletGraph for IONEWallet[];\n    using SignatureManager for SignatureManager.SignatureTracker;\n    using SpendingManager for SpendingManager.SpendingState;\n    using CommitManager for CommitManager.CommitState;\n    using Reveal for CoreSetting;\n\n    CoreSetting core;\n    CoreSetting[] oldCores;\n    CoreSetting[] innerCores;\n\n    /// global mutable variables\n    address payable recoveryAddress; // where money will be sent during a recovery process (or when the wallet is beyond its lifespan)\n    bytes32 public override identificationHash;\n\n    SpendingManager.SpendingState spendingState;\n\n    uint256 public override lastOperationTime; // in seconds; record the time for the last successful reveal\n    address payable forwardAddress; // a non-empty forward address assumes full control of this contract. A forward address can only be set upon a successful recovery or upgrade operation.\n    IONEWallet[] backlinkAddresses; // to be set in next version - these are addresses forwarding funds and tokens to this contract AND must have their forwardAddress updated if this contract's forwardAddress is set or updated. One example of such an address is a previous version of the wallet \"upgrading\" to a new version. See more at https://github.com/polymorpher/one-wallet/issues/78\n\n    /// commit management\n    CommitManager.CommitState commitState;\n    SignatureManager.SignatureTracker signatures;\n\n    bool initialized = false;\n\n    function initialize(InitParams memory initParams) override external\n    {\n        require(!initialized);\n        for (uint32 i = 0; i < initParams.oldCores.length; i++) {\n            oldCores.push(initParams.oldCores[i]);\n        }\n        for (uint32 i = 0; i < initParams.innerCores.length; i++) {\n            innerCores.push(initParams.innerCores[i]);\n        }\n        core = initParams.core;\n        spendingState = initParams.spendingState;\n        recoveryAddress = initParams.recoveryAddress;\n        backlinkAddresses = initParams.backlinkAddresses;\n        identificationHash = initParams.identificationHash;\n        initialized = true;\n    }\n\n    function _getForwardAddress() internal override view returns (address payable){\n        return forwardAddress;\n    }\n\n    function getForwardAddress() external override view returns (address payable){\n        return forwardAddress;\n    }\n\n    function _forwardPayment() internal {\n        (bool success,) = forwardAddress.call{value : msg.value}(\"\");\n        require(success);\n        emit PaymentForwarded(msg.value, msg.sender);\n    }\n\n    receive() external payable {\n        require(initialized);\n        if (forwardAddress != address(0)) {// this wallet already has a forward address set - standard recovery process should not apply\n            if (forwardAddress == recoveryAddress) {// in this case, funds should be forwarded to forwardAddress no matter what\n                _forwardPayment();\n                return;\n            }\n            if (msg.sender == recoveryAddress) {// this case requires special handling\n                if (msg.value == Recovery.AUTO_RECOVERY_TRIGGER_AMOUNT) {// in this case, send funds to recovery address and reclaim forwardAddress to recovery address\n                    _forward(recoveryAddress);\n                    _recover();\n                    return;\n                }\n                // any other amount is deemed to authorize withdrawal of all funds to forwardAddress\n                _overrideRecoveryAddress();\n                _recover();\n                return;\n            }\n            // if sender is anyone else (including self), simply forward the payment\n            _forwardPayment();\n            return;\n        }\n        if (msg.value != Recovery.AUTO_RECOVERY_TRIGGER_AMOUNT) {\n            return;\n        }\n        if (msg.sender != recoveryAddress) {\n            return;\n        }\n        if (msg.sender == address(this)) {\n            return;\n        }\n        if (block.timestamp < lastOperationTime + Recovery.AUTO_RECOVERY_MANDATORY_WAIT_TIME) {\n            emit AutoRecoveryTriggeredPrematurely(msg.sender, lastOperationTime + Recovery.AUTO_RECOVERY_MANDATORY_WAIT_TIME);\n            return;\n        }\n        emit AutoRecoveryTriggered(msg.sender);\n        require(_drain());\n    }\n\n    function retire() external override returns (bool)\n    {\n        require(uint32(block.timestamp / core.interval) - core.t0 > core.lifespan);\n        require(Recovery.isRecoveryAddressSet(recoveryAddress));\n        require(_drain());\n        emit Retired();\n        return true;\n    }\n\n    function getInfo() external override view returns (bytes32, uint8, uint8, uint32, uint32, uint8, address, uint256){\n        return (core.root, core.height, core.interval, core.t0, core.lifespan, core.maxOperationsPerInterval, recoveryAddress, 0);\n    }\n\n    function getOldInfos() external override view returns (CoreSetting[] memory){\n        return oldCores;\n    }\n\n    function getRootKey() external override view returns (bytes32){\n        if (oldCores.length > 0) {\n            return oldCores[0].root;\n        }\n        return core.root;\n    }\n\n    function getVersion() external override pure returns (uint32, uint32){\n        return (Version.majorVersion, Version.minorVersion);\n    }\n\n    function getSpendingState() external override view returns (SpendingManager.SpendingState memory){\n        return spendingState;\n    }\n\n    function getNonce() external override view returns (uint8){\n        return commitState.getNonce(core.interval);\n    }\n\n    function getTrackedTokens() external override view returns (Enums.TokenType[] memory, address[] memory, uint256[] memory){\n        return tokenTrackerState.getTrackedTokens();\n    }\n\n    function getBalance(Enums.TokenType tokenType, address contractAddress, uint256 tokenId) external override view returns (uint256){\n        (uint256 balance, bool success, string memory reason) = TokenTracker.getBalance(tokenType, contractAddress, tokenId);\n        require(success, reason);\n        return balance;\n    }\n\n    function getAllCommits() external override view returns (bytes32[] memory, bytes32[] memory, bytes32[] memory, uint32[] memory, bool[] memory){\n        return commitState.getAllCommits();\n    }\n\n\n    function lookupCommit(bytes32 hash) external override view returns (bytes32[] memory, bytes32[] memory, bytes32[] memory, uint32[] memory, bool[] memory){\n        return commitState.lookupCommit(hash);\n    }\n\n    function commit(bytes32 hash, bytes32 paramsHash, bytes32 verificationHash) external override {\n        require(initialized);\n        commitState.commit(hash, paramsHash, verificationHash);\n    }\n\n    /// require approval using recovery cores, unless recovery address is set\n    function _forward(address payable dest) internal {\n        if (address(forwardAddress) == address(this) || dest == address(0)) {\n            emit ForwardAddressInvalid(dest);\n            return;\n        }\n        // TODO: in the next version, add a flag in the parameter indicating whether the operation is from the forwardAddress. If the flag is set, skip the check below\n        //        if (forwardAddress != address(0)) {\n        //            if (!_isRecoveryAddressSet() || dest != recoveryAddress) {\n        //                emit ForwardAddressAlreadySet(dest);\n        //                return;\n        //            }\n        //        }\n        forwardAddress = dest;\n        emit ForwardAddressUpdated(dest);\n        if (!Recovery.isRecoveryAddressSet(recoveryAddress)) {\n            // Under this condition, the authentication would be done through recovery cores. Therefore, we can transfer all assets without violating the principal that no operation should spend more than what is specified in spend limit\n            _setRecoveryAddress(forwardAddress);\n            bool drainSuccess = _drain();\n            emit ForwardedBalance(drainSuccess);\n        } else {\n            // Under this condition, the authentication is done through regular cores (oldCores + core). Only assets within spend limit should be transferred. Transfer of the rest should be approved by recovery address (sending 0.1 ONE)\n            uint256 budget = spendingState.getRemainingAllowance();\n            _transfer(forwardAddress, budget);\n            tokenTrackerState.recoverAllTokens(dest);\n        }\n        backlinkAddresses.batchUpdateForwardAddress(dest);\n    }\n\n    /// This function sends all remaining funds and tokens in the wallet to `recoveryAddress`. The caller should verify that `recoveryAddress` is not null.\n    function _drain() internal returns (bool) {\n        // this may be triggered after revealing the proof, and we must prevent revert in all cases\n        (bool success,) = recoveryAddress.call{value : address(this).balance}(\"\");\n        if (success) {\n            forwardAddress = recoveryAddress;\n            tokenTrackerState.recoverAllTokens(recoveryAddress);\n        }\n        return success;\n    }\n\n    function _transfer(address payable dest, uint256 amount) internal returns (bool) {\n        bool canSpend = spendingState.canSpend(dest, amount);\n        if (!canSpend) {\n            return false;\n        }\n        spendingState.accountSpending(amount);\n        (bool success, bytes memory ret) = dest.call{value : amount}(\"\");\n        // we do not want to revert the whole transaction if this operation fails, since EOTP is already revealed\n        if (!success) {\n            spendingState.spentAmount -= amount;\n            emit TransferError(dest, ret);\n            return false;\n        }\n        emit PaymentSent(amount, dest);\n        return true;\n    }\n\n    /// To initiate recovery, client should submit leaf_{-1} as eotp, where leaf_{-1} is the last leaf in OTP Merkle Tree. Note that leaf_0 = hasher(hseed . nonce . OTP . randomness) where hasher is either sha256 or argon2, depending on client's security parameters. The definition of leaf_{-1} ensures attackers cannot use widespread miners to brute-force for seed or hseed, even if keccak256(leaf_{i}) for any i is known. It has been considered that leaf_0 should be used instead of leaf_{-1}, because leaf_0 is extremely unlikely to be used for any wallet operation. It is only used if the user performs any operation within the first 60 seconds of seed generation (when QR code is displayed). Regardless of which leaf is used to trigger recovery, this mechanism ensures hseed remains secret at the client. Even when the leaf becomes public (on blockchain), it is no longer useful because the wallet would already be deprecated (all assets transferred out). It can be used to repeatedly trigger recovery on this deprecated wallet, but that would cause no harm.\n    function _recover() internal returns (bool){\n        if (!Recovery.isRecoveryAddressSet(recoveryAddress)) {\n            emit LastResortAddressNotSet();\n            return false;\n        }\n        if (recoveryAddress == address(this)) {// this should not happen unless recoveryAddress is set at contract creation time, and is deliberately set to contract's own address\n            // nothing needs to be done;\n            return true;\n        }\n        if (!_drain()) {\n            emit RecoveryFailure();\n            return false;\n        }\n        emit RecoveryTriggered();\n        return true;\n    }\n\n    function _overrideRecoveryAddress() internal {\n        recoveryAddress = forwardAddress;\n        emit RecoveryAddressUpdated(recoveryAddress);\n    }\n\n    function _setRecoveryAddress(address payable recoveryAddress_) internal {\n        if (Recovery.isRecoveryAddressSet(recoveryAddress) || recoveryAddress_ == address(this)) {\n            emit RecoveryAddressUpdated(address(0));\n            return;\n        }\n        recoveryAddress = recoveryAddress_;\n        emit RecoveryAddressUpdated(recoveryAddress);\n    }\n\n    function _batch(bytes memory data) internal {\n        OperationParams[] memory batchParams = abi.decode(data, (OperationParams[]));\n        uint8 len = uint8(batchParams.length);\n        for (uint32 i = 0; i < len; i++) {\n            _execute(batchParams[i]);\n        }\n    }\n\n    function reveal(AuthParams calldata auth, OperationParams calldata op) external override {\n        require(initialized);\n        if (msg.sender != forwardAddress) {\n            core.authenticate(oldCores, innerCores, recoveryAddress, commitState, auth, op);\n            lastOperationTime = block.timestamp;\n        }\n        _execute(op);\n    }\n\n    function _execute(OperationParams memory op) internal {\n        // No revert should occur below this point\n        if (op.operationType == Enums.OperationType.TRANSFER) {\n            _transfer(op.dest, op.amount);\n        } else if (op.operationType == Enums.OperationType.RECOVER) {\n            _recover();\n        } else if (op.operationType == Enums.OperationType.SET_RECOVERY_ADDRESS) {\n            _setRecoveryAddress(op.dest);\n        } else if (op.operationType == Enums.OperationType.FORWARD) {\n            _forward(op.dest);\n        } else if (op.operationType == Enums.OperationType.CALL) {\n            if (op.tokenId == 0) {\n                _callContract(op.contractAddress, op.amount, op.data);\n            } else {\n                _multiCall(op.data);\n            }\n        } else if (op.operationType == Enums.OperationType.DISPLACE) {\n            CoreManager.displaceCoreWithValidationByBytes(oldCores, core, op.data, forwardAddress);\n        } else if (op.operationType == Enums.OperationType.BATCH) {\n            _batch(op.data);\n        } else {\n            Executor.execute(op, tokenTrackerState, backlinkAddresses, signatures, spendingState);\n        }\n    }\n\n    function getBacklinks() external override view returns (IONEWallet[] memory){\n        return backlinkAddresses;\n    }\n\n    function _callContract(address contractAddress, uint256 amount, bytes memory encodedWithSignature) internal {\n        bool canSpend = spendingState.canSpend(contractAddress, amount);\n        if (!canSpend) {\n            emit ExternalCallFailed(contractAddress, amount, encodedWithSignature, \"\");\n            return;\n        }\n        spendingState.accountSpending(amount);\n        (bool success, bytes memory ret) = contractAddress.call{value : amount}(encodedWithSignature);\n        if (success) {\n            emit ExternalCallCompleted(contractAddress, amount, encodedWithSignature, ret);\n        } else {\n            spendingState.spentAmount -= amount;\n            emit ExternalCallFailed(contractAddress, amount, encodedWithSignature, ret);\n        }\n    }\n\n    function _multiCall(bytes memory data) internal {\n        (address[] memory dest, uint256[] memory amounts, bytes[] memory encoded) = abi.decode(data, (address[], uint256[], bytes[]));\n        uint256 totalAmount = 0;\n        for (uint32 i = 0; i < amounts.length; i++) {\n            totalAmount += amounts[i];\n        }\n        if (!spendingState.canSpend(address(0), totalAmount)) {\n            return;\n        }\n        for (uint32 i = 0; i < dest.length; i++) {\n            _callContract(dest[i], amounts[i], encoded[i]);\n        }\n    }\n\n    function supportsInterface(bytes4 interfaceId) public override pure returns (bool) {\n        return interfaceId == this.isValidSignature.selector || TokenManager.supportsInterface(interfaceId);\n    }\n\n    function isValidSignature(bytes32 hash, bytes memory signatureBytes) override public view returns (bytes4){\n        return signatures.isValidSignature(hash, signatureBytes);\n    }\n\n    function listSignatures(uint32 start, uint32 end) external override view returns (bytes32[] memory, bytes32[] memory, uint32[] memory, uint32[] memory){\n        return signatures.list(start, end);\n    }\n\n    function lookupSignature(bytes32 hash) external override view returns (bytes32, uint32, uint32){\n        return signatures.lookup(hash);\n    }\n\n}\n",
  "sourcePath": "/Users/polymorpher/git/one-wallet/code/contracts/ONEWallet.sol",
  "compiler": {
    "name": "solc",
    "version": "0.8.4+commit.c7e474f2.Emscripten.clang"
  },
  "schemaVersion": "3.4.2",
  "updatedAt": "2021-11-14T13:20:53.838Z",
  "devdoc": {
    "kind": "dev",
    "methods": {
      "onERC1155BatchReceived(address,address,uint256[],uint256[],bytes)": {
        "details": "Handles the receipt of a multiple ERC1155 token types. This function is called at the end of a `safeBatchTransferFrom` after the balances have been updated. To accept the transfer(s), this must return `bytes4(keccak256(\"onERC1155BatchReceived(address,address,uint256[],uint256[],bytes)\"))` (i.e. 0xbc197c81, or its own function selector).",
        "params": {
          "data": "Additional data with no specified format",
          "from": "The address which previously owned the token",
          "ids": "An array containing ids of each token being transferred (order and length must match values array)",
          "operator": "The address which initiated the batch transfer (i.e. msg.sender)",
          "values": "An array containing amounts of each token being transferred (order and length must match ids array)"
        },
        "returns": {
          "_0": "`bytes4(keccak256(\"onERC1155BatchReceived(address,address,uint256[],uint256[],bytes)\"))` if transfer is allowed"
        }
      },
      "onERC1155Received(address,address,uint256,uint256,bytes)": {
        "details": "Handles the receipt of a single ERC1155 token type. This function is called at the end of a `safeTransferFrom` after the balance has been updated. To accept the transfer, this must return `bytes4(keccak256(\"onERC1155Received(address,address,uint256,uint256,bytes)\"))` (i.e. 0xf23a6e61, or its own function selector).",
        "params": {
          "data": "Additional data with no specified format",
          "from": "The address which previously owned the token",
          "id": "The ID of the token being transferred",
          "operator": "The address which initiated the transfer (i.e. msg.sender)",
          "value": "The amount of tokens being transferred"
        },
        "returns": {
          "_0": "`bytes4(keccak256(\"onERC1155Received(address,address,uint256,uint256,bytes)\"))` if transfer is allowed"
        }
      },
      "onERC721Received(address,address,uint256,bytes)": {
        "details": "Whenever an {IERC721} `tokenId` token is transferred to this contract via {IERC721-safeTransferFrom} by `operator` from `from`, this function is called. It must return its Solidity selector to confirm the token transfer. If any other value is returned or the interface is not implemented by the recipient, the transfer will be reverted. The selector can be obtained in Solidity with `IERC721.onERC721Received.selector`."
      }
    },
    "version": 1
  },
  "userdoc": {
    "kind": "user",
    "methods": {
      "findCommit(bytes32)": {
        "notice": "DEPRECATED"
      },
      "getCommits()": {
        "notice": "DEPRECATED"
      }
    },
    "version": 1
  }
}