{
  "contractName": "ONEWalletFactoryHelper",
  "abi": [
    {
      "inputs": [
        {
          "internalType": "contract ONEWalletFactory",
          "name": "factory_",
          "type": "address"
        }
      ],
      "stateMutability": "nonpayable",
      "type": "constructor"
    },
    {
      "inputs": [],
      "name": "factory",
      "outputs": [
        {
          "internalType": "contract ONEWalletFactory",
          "name": "",
          "type": "address"
        }
      ],
      "stateMutability": "view",
      "type": "function"
    },
    {
      "inputs": [],
      "name": "getVersion",
      "outputs": [
        {
          "internalType": "uint32",
          "name": "",
          "type": "uint32"
        },
        {
          "internalType": "uint32",
          "name": "",
          "type": "uint32"
        }
      ],
      "stateMutability": "pure",
      "type": "function"
    },
    {
      "inputs": [
        {
          "components": [
            {
              "components": [
                {
                  "internalType": "bytes32",
                  "name": "root",
                  "type": "bytes32"
                },
                {
                  "internalType": "uint8",
                  "name": "height",
                  "type": "uint8"
                },
                {
                  "internalType": "uint8",
                  "name": "interval",
                  "type": "uint8"
                },
                {
                  "internalType": "uint32",
                  "name": "t0",
                  "type": "uint32"
                },
                {
                  "internalType": "uint32",
                  "name": "lifespan",
                  "type": "uint32"
                },
                {
                  "internalType": "uint8",
                  "name": "maxOperationsPerInterval",
                  "type": "uint8"
                }
              ],
              "internalType": "struct IONEWallet.CoreSetting",
              "name": "core",
              "type": "tuple"
            },
            {
              "components": [
                {
                  "internalType": "uint256",
                  "name": "spendingLimit",
                  "type": "uint256"
                },
                {
                  "internalType": "uint256",
                  "name": "spentAmount",
                  "type": "uint256"
                },
                {
                  "internalType": "uint32",
                  "name": "lastSpendingInterval",
                  "type": "uint32"
                },
                {
                  "internalType": "uint32",
                  "name": "spendingInterval",
                  "type": "uint32"
                },
                {
                  "internalType": "uint32",
                  "name": "lastLimitAdjustmentTime",
                  "type": "uint32"
                },
                {
                  "internalType": "uint256",
                  "name": "highestSpendingLimit",
                  "type": "uint256"
                }
              ],
              "internalType": "struct SpendingManager.SpendingState",
              "name": "spendingState",
              "type": "tuple"
            },
            {
              "internalType": "address payable",
              "name": "recoveryAddress",
              "type": "address"
            },
            {
              "internalType": "contract IONEWallet[]",
              "name": "backlinkAddresses",
              "type": "address[]"
            },
            {
              "components": [
                {
                  "internalType": "bytes32",
                  "name": "root",
                  "type": "bytes32"
                },
                {
                  "internalType": "uint8",
                  "name": "height",
                  "type": "uint8"
                },
                {
                  "internalType": "uint8",
                  "name": "interval",
                  "type": "uint8"
                },
                {
                  "internalType": "uint32",
                  "name": "t0",
                  "type": "uint32"
                },
                {
                  "internalType": "uint32",
                  "name": "lifespan",
                  "type": "uint32"
                },
                {
                  "internalType": "uint8",
                  "name": "maxOperationsPerInterval",
                  "type": "uint8"
                }
              ],
              "internalType": "struct IONEWallet.CoreSetting[]",
              "name": "oldCores",
              "type": "tuple[]"
            },
            {
              "components": [
                {
                  "internalType": "bytes32",
                  "name": "root",
                  "type": "bytes32"
                },
                {
                  "internalType": "uint8",
                  "name": "height",
                  "type": "uint8"
                },
                {
                  "internalType": "uint8",
                  "name": "interval",
                  "type": "uint8"
                },
                {
                  "internalType": "uint32",
                  "name": "t0",
                  "type": "uint32"
                },
                {
                  "internalType": "uint32",
                  "name": "lifespan",
                  "type": "uint32"
                },
                {
                  "internalType": "uint8",
                  "name": "maxOperationsPerInterval",
                  "type": "uint8"
                }
              ],
              "internalType": "struct IONEWallet.CoreSetting[]",
              "name": "innerCores",
              "type": "tuple[]"
            },
            {
              "internalType": "bytes[]",
              "name": "identificationKeys",
              "type": "bytes[]"
            }
          ],
          "internalType": "struct IONEWallet.InitParams",
          "name": "args",
          "type": "tuple"
        }
      ],
      "name": "deploy",
      "outputs": [
        {
          "internalType": "address",
          "name": "",
          "type": "address"
        }
      ],
      "stateMutability": "payable",
      "type": "function"
    },
    {
      "inputs": [
        {
          "internalType": "bytes",
          "name": "identificationKey",
          "type": "bytes"
        }
      ],
      "name": "predict",
      "outputs": [
        {
          "internalType": "address",
          "name": "",
          "type": "address"
        }
      ],
      "stateMutability": "view",
      "type": "function"
    },
    {
      "inputs": [],
      "name": "getCode",
      "outputs": [
        {
          "internalType": "bytes",
          "name": "",
          "type": "bytes"
        }
      ],
      "stateMutability": "pure",
      "type": "function"
    },
    {
      "inputs": [
        {
          "internalType": "contract IONEWallet",
          "name": "addr",
          "type": "address"
        }
      ],
      "name": "verify",
      "outputs": [
        {
          "internalType": "bool",
          "name": "",
          "type": "bool"
        }
      ],
      "stateMutability": "view",
      "type": "function"
    }
  ],
  "bytecode": "0x6080604052600080546001600160a01b031916905534801561002057600080fd5b50604051610f9c380380610f9c83398101604081905261003f91610064565b600080546001600160a01b0319166001600160a01b0392909216919091179055610092565b600060208284031215610075578081fd5b81516001600160a01b038116811461008b578182fd5b9392505050565b610efb806100a16000396000f3fe6080604052600436106100555760003560e01c80630d8e6e2c1461005a57806363a9c3d714610081578063a64139fa146100b1578063c45a0155146100e9578063ea87963414610109578063f31e87d91461012b575b600080fd5b34801561006657600080fd5b5060408051600f815260016020820152015b60405180910390f35b34801561008d57600080fd5b506100a161009c3660046109fa565b61013e565b6040519015158152602001610078565b3480156100bd57600080fd5b506100d16100cc36600461094c565b6102e6565b6040516001600160a01b039091168152602001610078565b3480156100f557600080fd5b506000546100d1906001600160a01b031681565b34801561011557600080fd5b5061011e61040a565b6040516100789190610c6e565b6100d1610139366004610a16565b610491565b60008060008054906101000a90046001600160a01b03166001600160a01b03166322aa763373__ONEWalletCodeHelper___________________6324c12bf66040518163ffffffff1660e01b815260040160006040518083038186803b1580156101a757600080fd5b505af41580156101bb573d6000803e3d6000fd5b505050506040513d6000823e601f3d908101601f191682016040526101e39190810190610987565b856001600160a01b0316636ee89e6a6040518163ffffffff1660e01b815260040160006040518083038186803b15801561021c57600080fd5b505afa158015610230573d6000803e3d6000fd5b505050506040513d6000823e601f3d908101601f191682016040526102589190810190610987565b8051906020012060001c6040518363ffffffff1660e01b815260040161027f929190610c81565b60206040518083038186803b15801561029757600080fd5b505afa1580156102ab573d6000803e3d6000fd5b505050506040513d601f19601f820116820180604052508101906102cf9190610929565b6001600160a01b0390811693169290921492915050565b60008060009054906101000a90046001600160a01b03166001600160a01b03166322aa763373__ONEWalletCodeHelper___________________6324c12bf66040518163ffffffff1660e01b815260040160006040518083038186803b15801561034f57600080fd5b505af4158015610363573d6000803e3d6000fd5b505050506040513d6000823e601f3d908101601f1916820160405261038b9190810190610987565b845160208601206040516001600160e01b031960e085901b1681526103b4929190600401610c81565b60206040518083038186803b1580156103cc57600080fd5b505afa1580156103e0573d6000803e3d6000fd5b505050506040513d601f19601f820116820180604052508101906104049190610929565b92915050565b606073__ONEWalletCodeHelper___________________6324c12bf66040518163ffffffff1660e01b815260040160006040518083038186803b15801561045057600080fd5b505af4158015610464573d6000803e3d6000fd5b505050506040513d6000823e601f3d908101601f1916820160405261048c9190810190610987565b905090565b60008060008054906101000a90046001600160a01b03166001600160a01b0316639c4ae2d03473__ONEWalletCodeHelper___________________6324c12bf66040518163ffffffff1660e01b815260040160006040518083038186803b1580156104fb57600080fd5b505af415801561050f573d6000803e3d6000fd5b505050506040513d6000823e601f3d908101601f191682016040526105379190810190610987565b8660c0015160008151811061055c57634e487b7160e01b600052603260045260246000fd5b60200260200101518051906020012060001c6040518463ffffffff1660e01b815260040161058b929190610c81565b6020604051808303818588803b1580156105a457600080fd5b505af11580156105b8573d6000803e3d6000fd5b50505050506040513d601f19601f820116820180604052508101906105dd9190610929565b90506001600160a01b0381166105f35792915050565b6040516313cfd45b60e21b81526001600160a01b03821690634f3f516c9061061f908690600401610ca3565b600060405180830381600087803b15801561063957600080fd5b505af115801561064d573d6000803e3d6000fd5b509295945050505050565b803561066381610ead565b919050565b600082601f830112610678578081fd5b8135602061068d61068883610e1b565b610dea565b80838252828201915082860187848660051b89010111156106ac578586fd5b855b858110156106ed57813567ffffffffffffffff8111156106cc578788fd5b6106da8a87838c01016107d2565b85525092840192908401906001016106ae565b5090979650505050505050565b600082601f83011261070a578081fd5b8135602061071a61068883610e1b565b80838252828201915082860187848660051b8901011115610739578586fd5b855b858110156106ed57813561074e81610ead565b8452928401929084019060010161073b565b600082601f830112610770578081fd5b8135602061078061068883610e1b565b8281528181019085830160c08086028801850189101561079e578687fd5b865b868110156107c4576107b28a8461081e565b855293850193918101916001016107a0565b509198975050505050505050565b600082601f8301126107e2578081fd5b81356107f061068882610e3f565b818152846020838601011115610804578283fd5b816020850160208301379081016020019190915292915050565b600060c0828403121561082f578081fd5b610837610d9e565b90508135815261084960208301610918565b602082015261085a60408301610918565b604082015261086b60608301610904565b606082015261087c60808301610904565b608082015261088d60a08301610918565b60a082015292915050565b600060c082840312156108a9578081fd5b6108b1610d9e565b905081358152602082013560208201526108cd60408301610904565b60408201526108de60608301610904565b60608201526108ef60808301610904565b608082015260a082013560a082015292915050565b803563ffffffff8116811461066357600080fd5b803560ff8116811461066357600080fd5b60006020828403121561093a578081fd5b815161094581610ead565b9392505050565b60006020828403121561095d578081fd5b813567ffffffffffffffff811115610973578182fd5b61097f848285016107d2565b949350505050565b600060208284031215610998578081fd5b815167ffffffffffffffff8111156109ae578182fd5b8201601f810184136109be578182fd5b80516109cc61068882610e3f565b8181528560208385010111156109e0578384fd5b6109f1826020830160208601610e67565b95945050505050565b600060208284031215610a0b578081fd5b813561094581610ead565b600060208284031215610a27578081fd5b813567ffffffffffffffff80821115610a3e578283fd5b908301906102208286031215610a52578283fd5b610a5a610dc7565b610a64868461081e565b8152610a738660c08501610898565b6020820152610a856101808401610658565b60408201526101a083013582811115610a9c578485fd5b610aa8878286016106fa565b6060830152506101c083013582811115610ac0578485fd5b610acc87828601610760565b6080830152506101e083013582811115610ae4578485fd5b610af087828601610760565b60a08301525061020083013582811115610b08578485fd5b610b1487828601610668565b60c08301525095945050505050565b600081518084526020808501808196508360051b81019150828601855b85811015610b6a578284038952610b58848351610bf3565b98850198935090840190600101610b40565b5091979650505050505050565b6000815180845260208085019450808401835b83811015610baf5781516001600160a01b031687529582019590820190600101610b8a565b509495945050505050565b6000815180845260208085019450808401835b83811015610baf57610be0878351610c1f565b60c0969096019590820190600101610bcd565b60008151808452610c0b816020860160208601610e67565b601f01601f19169290920160200192915050565b8051825260ff602082015116602083015260ff6040820151166040830152606081015163ffffffff8082166060850152806080840151166080850152505060ff60a08201511660a08301525050565b6020815260006109456020830184610bf3565b604081526000610c946040830185610bf3565b90508260208301529392505050565b60208152610cb5602082018351610c1f565b602082810151805160e084015290810151610100830152604081015163ffffffff9081166101208401526060820151811661014084015260808201511661016083015260a08101516101808301526000905060408301516001600160a01b0381166101a0840152506060830151610220806101c0850152610d3a610240850183610b77565b91506080850151601f1980868503016101e0870152610d598483610bba565b935060a087015191508086850301610200870152610d778483610bba565b935060c0870151915080868503018387015250610d948382610b23565b9695505050505050565b60405160c0810167ffffffffffffffff81118282101715610dc157610dc1610e97565b60405290565b60405160e0810167ffffffffffffffff81118282101715610dc157610dc1610e97565b604051601f8201601f1916810167ffffffffffffffff81118282101715610e1357610e13610e97565b604052919050565b600067ffffffffffffffff821115610e3557610e35610e97565b5060051b60200190565b600067ffffffffffffffff821115610e5957610e59610e97565b50601f01601f191660200190565b60005b83811015610e82578181015183820152602001610e6a565b83811115610e91576000848401525b50505050565b634e487b7160e01b600052604160045260246000fd5b6001600160a01b0381168114610ec257600080fd5b5056fea264697066735822122026130a80daaf77e0ee165aa4e261ab241737e1d02a503dafcc7e402fe64e1eec64736f6c63430008040033",
  "immutableReferences": {},
  "source": "// SPDX-License-Identifier: Apache-2.0\npragma solidity ^0.8.4;\n\nimport \"./ONEWallet.sol\";\nimport \"./IONEWallet.sol\";\nimport \"./Factory.sol\";\nimport \"./Version.sol\";\n\nlibrary ONEWalletCodeHelper {\n    function code() pure public returns (bytes memory){\n        return type(ONEWallet).creationCode;\n    }\n}\n\ncontract ONEWalletFactoryHelper {\n    ONEWalletFactory public factory = ONEWalletFactory(address(0));\n    constructor(ONEWalletFactory factory_){\n        factory = factory_;\n    }\n    function getVersion() public pure returns (uint32, uint32){\n        return (Version.majorVersion, Version.minorVersion);\n    }\n    function deploy(IONEWallet.InitParams memory args) payable public returns (address){\n        // ONEWallet has no constructor argument since v15\n        address addr = factory.deploy{value : msg.value}(ONEWalletCodeHelper.code(), uint256(keccak256(args.identificationKeys[0])));\n        if (addr == address(0)) {\n            return addr;\n        }\n        IONEWallet(addr).initialize(args);\n        return addr;\n    }\n\n    function predict(bytes memory identificationKey) public view returns (address){\n        return factory.predict(ONEWalletCodeHelper.code(), uint256(keccak256(identificationKey)));\n    }\n\n    function getCode() public pure returns (bytes memory){\n        return ONEWalletCodeHelper.code();\n    }\n\n    function verify(IONEWallet addr) public view returns (bool){\n        address predictedAddress = factory.predict(ONEWalletCodeHelper.code(), uint256(keccak256(addr.identificationKey())));\n        return predictedAddress == address(addr);\n    }\n}\n",
  "sourcePath": "/Users/polymorpher/git/one-wallet/code/contracts/FactoryHelper.sol",
  "compiler": {
    "name": "solc",
    "version": "0.8.4+commit.c7e474f2.Emscripten.clang"
  },
  "schemaVersion": "3.4.2",
  "updatedAt": "2021-11-15T12:16:53.368Z",
  "devdoc": {
    "kind": "dev",
    "methods": {},
    "version": 1
  },
  "userdoc": {
    "kind": "user",
    "methods": {},
    "version": 1
  }
}