{
  "contractName": "ONEWalletFactory",
  "abi": [
    {
      "inputs": [
        {
          "internalType": "uint256",
          "name": "salt",
          "type": "uint256"
        },
        {
          "internalType": "bytes",
          "name": "code",
          "type": "bytes"
        }
      ],
      "name": "predict",
      "outputs": [
        {
          "internalType": "address",
          "name": "",
          "type": "address"
        }
      ],
      "stateMutability": "view",
      "type": "function"
    },
    {
      "inputs": [
        {
          "internalType": "address",
          "name": "addr",
          "type": "address"
        }
      ],
      "name": "hasCode",
      "outputs": [
        {
          "internalType": "bool",
          "name": "",
          "type": "bool"
        }
      ],
      "stateMutability": "view",
      "type": "function"
    },
    {
      "inputs": [
        {
          "internalType": "uint256",
          "name": "salt",
          "type": "uint256"
        },
        {
          "internalType": "bytes",
          "name": "code",
          "type": "bytes"
        }
      ],
      "name": "deploy",
      "outputs": [
        {
          "internalType": "address",
          "name": "",
          "type": "address"
        }
      ],
      "stateMutability": "payable",
      "type": "function"
    }
  ],
  "bytecode": "0x608060405234801561001057600080fd5b5061026f806100206000396000f3fe6080604052600436106100345760003560e01c806361ff715f146100395780639538c4b314610069578063b505d0e9146100a0575b600080fd5b61004c61004736600461016d565b610117565b6040516001600160a01b0390911681526020015b60405180910390f35b34801561007557600080fd5b50610090610084366004610146565b3b63ffffffff16151590565b6040519015158152602001610060565b3480156100ac57600080fd5b5061004c6100bb36600461016d565b8051602091820120604080516001600160f81b0319818501523060601b6bffffffffffffffffffffffff191660218201526035810194909452605580850192909252805180850390920182526075909301909252815191012090565b6000808383518460200134f590506001600160a01b03811661013d576000915050610140565b90505b92915050565b600060208284031215610157578081fd5b81356001600160a01b038116811461013d578182fd5b6000806040838503121561017f578081fd5b82359150602083013567ffffffffffffffff8082111561019d578283fd5b818501915085601f8301126101b0578283fd5b8135818111156101c2576101c2610223565b604051601f8201601f19908116603f011681019083821181831017156101ea576101ea610223565b81604052828152886020848701011115610202578586fd5b82602086016020830137856020848301015280955050505050509250929050565b634e487b7160e01b600052604160045260246000fdfea2646970667358221220c40df16c1cfe0b58a9198c5669e5ddc6506611b17211e409926f5e077ebc1d8f64736f6c63430008040033",
  "immutableReferences": {},
  "source": "// SPDX-License-Identifier: Apache-2.0\npragma solidity ^0.8.4;\n\n/// This factory is expected to be deployed only once. Its deployed address will be used by clients to infer expected address of their 1wallet (given seed) and verify the address is as expected (thus validating the implementation)\ncontract ONEWalletFactory {\n    /// This method may be called by ONEWalletFactoryHelper to verify an address is created using 1wallet code, and by clients who do not want to compute the address by themselves.\n    function predict(uint256 salt, bytes memory code) view public returns (address){\n        bytes memory data = bytes.concat(bytes1(0xff), bytes20(address(this)), bytes32(salt), keccak256(code));\n        bytes32 hash = keccak256(data);\n        return address(uint160(uint256(hash)));\n    }\n\n    function hasCode(address addr) public view returns (bool){\n        uint32 size;\n        assembly {\n            size := extcodesize(addr)\n        }\n        return (size > 0);\n    }\n\n    /// an alternative is to use create3 mechanisms (and library) in https://github.com/0xsequence/create3, which allows the address of the contract to be independent to its code. This is achieved by deploying (via CREATE2) a proxy contract with fixed content and to have the proxy contract pointing to the actual implementation contract (which its address does depend on the bytecode). This approach has two downsides: (1) unlike CREATE2, the client would not be able to verify the contract does contain the intended code simply by verifying the address is as expected. (2) the use of proxy and fallback mechanisms make debugging harder and may introduce unexpected behaviors\n    function deploy(uint256 salt, bytes memory code) public payable returns (address){\n        address ret;\n        assembly{\n            ret := create2(callvalue(), add(0x20, code), mload(code), salt)\n        }\n        if (ret == address(0)) {\n            return address(0);\n        }\n        return ret;\n    }\n}\n",
  "sourcePath": "/Users/polymorpher/git/one-wallet/code/contracts/Factory.sol",
  "compiler": {
    "name": "solc",
    "version": "0.8.4+commit.c7e474f2.Emscripten.clang"
  },
  "schemaVersion": "3.4.2",
  "updatedAt": "2021-12-21T09:09:50.760Z",
  "devdoc": {
    "kind": "dev",
    "methods": {},
    "version": 1
  },
  "userdoc": {
    "kind": "user",
    "methods": {
      "deploy(uint256,bytes)": {
        "notice": "an alternative is to use create3 mechanisms (and library) in https://github.com/0xsequence/create3, which allows the address of the contract to be independent to its code. This is achieved by deploying (via CREATE2) a proxy contract with fixed content and to have the proxy contract pointing to the actual implementation contract (which its address does depend on the bytecode). This approach has two downsides: (1) unlike CREATE2, the client would not be able to verify the contract does contain the intended code simply by verifying the address is as expected. (2) the use of proxy and fallback mechanisms make debugging harder and may introduce unexpected behaviors"
      },
      "predict(uint256,bytes)": {
        "notice": "This method may be called by ONEWalletFactoryHelper to verify an address is created using 1wallet code, and by clients who do not want to compute the address by themselves."
      }
    },
    "notice": "This factory is expected to be deployed only once. Its deployed address will be used by clients to infer expected address of their 1wallet (given seed) and verify the address is as expected (thus validating the implementation)",
    "version": 1
  }
}