{
  "contractName": "ONEWalletFactoryHelper",
  "abi": [
    {
      "inputs": [
        {
          "internalType": "contract ONEWalletFactory",
          "name": "factory_",
          "type": "address"
        }
      ],
      "stateMutability": "nonpayable",
      "type": "constructor"
    },
    {
      "inputs": [],
      "name": "factory",
      "outputs": [
        {
          "internalType": "contract ONEWalletFactory",
          "name": "",
          "type": "address"
        }
      ],
      "stateMutability": "view",
      "type": "function"
    },
    {
      "inputs": [],
      "name": "getVersion",
      "outputs": [
        {
          "internalType": "uint32",
          "name": "",
          "type": "uint32"
        },
        {
          "internalType": "uint32",
          "name": "",
          "type": "uint32"
        }
      ],
      "stateMutability": "pure",
      "type": "function"
    },
    {
      "inputs": [
        {
          "components": [
            {
              "components": [
                {
                  "internalType": "bytes32",
                  "name": "root",
                  "type": "bytes32"
                },
                {
                  "internalType": "uint8",
                  "name": "height",
                  "type": "uint8"
                },
                {
                  "internalType": "uint8",
                  "name": "interval",
                  "type": "uint8"
                },
                {
                  "internalType": "uint32",
                  "name": "t0",
                  "type": "uint32"
                },
                {
                  "internalType": "uint32",
                  "name": "lifespan",
                  "type": "uint32"
                },
                {
                  "internalType": "uint8",
                  "name": "maxOperationsPerInterval",
                  "type": "uint8"
                }
              ],
              "internalType": "struct IONEWallet.CoreSetting",
              "name": "core",
              "type": "tuple"
            },
            {
              "components": [
                {
                  "internalType": "uint256",
                  "name": "spendingLimit",
                  "type": "uint256"
                },
                {
                  "internalType": "uint256",
                  "name": "spentAmount",
                  "type": "uint256"
                },
                {
                  "internalType": "uint32",
                  "name": "lastSpendingInterval",
                  "type": "uint32"
                },
                {
                  "internalType": "uint32",
                  "name": "spendingInterval",
                  "type": "uint32"
                },
                {
                  "internalType": "uint32",
                  "name": "lastLimitAdjustmentTime",
                  "type": "uint32"
                },
                {
                  "internalType": "uint256",
                  "name": "highestSpendingLimit",
                  "type": "uint256"
                }
              ],
              "internalType": "struct SpendingManager.SpendingState",
              "name": "spendingState",
              "type": "tuple"
            },
            {
              "internalType": "address payable",
              "name": "recoveryAddress",
              "type": "address"
            },
            {
              "internalType": "contract IONEWallet[]",
              "name": "backlinkAddresses",
              "type": "address[]"
            },
            {
              "components": [
                {
                  "internalType": "bytes32",
                  "name": "root",
                  "type": "bytes32"
                },
                {
                  "internalType": "uint8",
                  "name": "height",
                  "type": "uint8"
                },
                {
                  "internalType": "uint8",
                  "name": "interval",
                  "type": "uint8"
                },
                {
                  "internalType": "uint32",
                  "name": "t0",
                  "type": "uint32"
                },
                {
                  "internalType": "uint32",
                  "name": "lifespan",
                  "type": "uint32"
                },
                {
                  "internalType": "uint8",
                  "name": "maxOperationsPerInterval",
                  "type": "uint8"
                }
              ],
              "internalType": "struct IONEWallet.CoreSetting[]",
              "name": "oldCores",
              "type": "tuple[]"
            },
            {
              "components": [
                {
                  "internalType": "bytes32",
                  "name": "root",
                  "type": "bytes32"
                },
                {
                  "internalType": "uint8",
                  "name": "height",
                  "type": "uint8"
                },
                {
                  "internalType": "uint8",
                  "name": "interval",
                  "type": "uint8"
                },
                {
                  "internalType": "uint32",
                  "name": "t0",
                  "type": "uint32"
                },
                {
                  "internalType": "uint32",
                  "name": "lifespan",
                  "type": "uint32"
                },
                {
                  "internalType": "uint8",
                  "name": "maxOperationsPerInterval",
                  "type": "uint8"
                }
              ],
              "internalType": "struct IONEWallet.CoreSetting[]",
              "name": "innerCores",
              "type": "tuple[]"
            },
            {
              "internalType": "bytes",
              "name": "identificationKey",
              "type": "bytes"
            }
          ],
          "internalType": "struct IONEWallet.InitParams",
          "name": "args",
          "type": "tuple"
        }
      ],
      "name": "deploy",
      "outputs": [
        {
          "internalType": "address",
          "name": "",
          "type": "address"
        }
      ],
      "stateMutability": "payable",
      "type": "function"
    },
    {
      "inputs": [
        {
          "internalType": "bytes",
          "name": "identificationKey",
          "type": "bytes"
        }
      ],
      "name": "predict",
      "outputs": [
        {
          "internalType": "address",
          "name": "",
          "type": "address"
        }
      ],
      "stateMutability": "view",
      "type": "function"
    },
    {
      "inputs": [
        {
          "internalType": "contract IONEWallet",
          "name": "addr",
          "type": "address"
        }
      ],
      "name": "verify",
      "outputs": [
        {
          "internalType": "bool",
          "name": "",
          "type": "bool"
        }
      ],
      "stateMutability": "view",
      "type": "function"
    }
  ],
  "bytecode": "0x6080604052600080546001600160a01b031916905534801561002057600080fd5b50604051610dd9380380610dd983398101604081905261003f91610064565b600080546001600160a01b0319166001600160a01b0392909216919091179055610092565b600060208284031215610075578081fd5b81516001600160a01b038116811461008b578182fd5b9392505050565b610d38806100a16000396000f3fe60806040526004361061004a5760003560e01c80630d8e6e2c1461004f5780631dd865c41461007657806363a9c3d7146100a1578063a64139fa146100d1578063c45a0155146100f1575b600080fd5b34801561005b57600080fd5b5060408051600f815260016020820152015b60405180910390f35b6100896100843660046108ba565b610111565b6040516001600160a01b03909116815260200161006d565b3480156100ad57600080fd5b506100c16100bc36600461089e565b6102b0565b604051901515815260200161006d565b3480156100dd57600080fd5b506100896100ec3660046107f0565b610458565b3480156100fd57600080fd5b50600054610089906001600160a01b031681565b60008060008054906101000a90046001600160a01b03166001600160a01b0316639c4ae2d03473__ONEWalletCodeHelper___________________6324c12bf66040518163ffffffff1660e01b815260040160006040518083038186803b15801561017b57600080fd5b505af415801561018f573d6000803e3d6000fd5b505050506040513d6000823e601f3d908101601f191682016040526101b7919081019061082b565b8660c001518051906020012060001c6040518463ffffffff1660e01b81526004016101e3929190610abe565b6020604051808303818588803b1580156101fc57600080fd5b505af1158015610210573d6000803e3d6000fd5b50505050506040513d601f19601f8201168201806040525081019061023591906107cd565b90506001600160a01b03811661024b5792915050565b6040516380d1082960e01b81526001600160a01b038216906380d1082990610277908690600401610ae0565b600060405180830381600087803b15801561029157600080fd5b505af11580156102a5573d6000803e3d6000fd5b509295945050505050565b60008060008054906101000a90046001600160a01b03166001600160a01b03166322aa763373__ONEWalletCodeHelper___________________6324c12bf66040518163ffffffff1660e01b815260040160006040518083038186803b15801561031957600080fd5b505af415801561032d573d6000803e3d6000fd5b505050506040513d6000823e601f3d908101601f19168201604052610355919081019061082b565b856001600160a01b0316636ee89e6a6040518163ffffffff1660e01b815260040160006040518083038186803b15801561038e57600080fd5b505afa1580156103a2573d6000803e3d6000fd5b505050506040513d6000823e601f3d908101601f191682016040526103ca919081019061082b565b8051906020012060001c6040518363ffffffff1660e01b81526004016103f1929190610abe565b60206040518083038186803b15801561040957600080fd5b505afa15801561041d573d6000803e3d6000fd5b505050506040513d601f19601f8201168201806040525081019061044191906107cd565b6001600160a01b0390811693169290921492915050565b60008060009054906101000a90046001600160a01b03166001600160a01b03166322aa763373__ONEWalletCodeHelper___________________6324c12bf66040518163ffffffff1660e01b815260040160006040518083038186803b1580156104c157600080fd5b505af41580156104d5573d6000803e3d6000fd5b505050506040513d6000823e601f3d908101601f191682016040526104fd919081019061082b565b845160208601206040516001600160e01b031960e085901b168152610526929190600401610abe565b60206040518083038186803b15801561053e57600080fd5b505afa158015610552573d6000803e3d6000fd5b505050506040513d601f19601f8201168201806040525081019061057691906107cd565b92915050565b803561058781610cea565b919050565b600082601f83011261059c578081fd5b813560206105b16105ac83610c58565b610c27565b80838252828201915082860187848660051b89010111156105d0578586fd5b855b858110156105f75781356105e581610cea565b845292840192908401906001016105d2565b5090979650505050505050565b600082601f830112610614578081fd5b813560206106246105ac83610c58565b8281528181019085830160c080860288018501891015610642578687fd5b865b86811015610668576106568a846106c2565b85529385019391810191600101610644565b509198975050505050505050565b600082601f830112610686578081fd5b81356106946105ac82610c7c565b8181528460208386010111156106a8578283fd5b816020850160208301379081016020019190915292915050565b600060c082840312156106d3578081fd5b6106db610bdb565b9050813581526106ed602083016107bc565b60208201526106fe604083016107bc565b604082015261070f606083016107a8565b6060820152610720608083016107a8565b608082015261073160a083016107bc565b60a082015292915050565b600060c0828403121561074d578081fd5b610755610bdb565b90508135815260208201356020820152610771604083016107a8565b6040820152610782606083016107a8565b6060820152610793608083016107a8565b608082015260a082013560a082015292915050565b803563ffffffff8116811461058757600080fd5b803560ff8116811461058757600080fd5b6000602082840312156107de578081fd5b81516107e981610cea565b9392505050565b600060208284031215610801578081fd5b813567ffffffffffffffff811115610817578182fd5b61082384828501610676565b949350505050565b60006020828403121561083c578081fd5b815167ffffffffffffffff811115610852578182fd5b8201601f81018413610862578182fd5b80516108706105ac82610c7c565b818152856020838501011115610884578384fd5b610895826020830160208601610ca4565b95945050505050565b6000602082840312156108af578081fd5b81356107e981610cea565b6000602082840312156108cb578081fd5b813567ffffffffffffffff808211156108e2578283fd5b9083019061022082860312156108f6578283fd5b6108fe610c04565b61090886846106c2565b81526109178660c0850161073c565b6020820152610929610180840161057c565b60408201526101a083013582811115610940578485fd5b61094c8782860161058c565b6060830152506101c083013582811115610964578485fd5b61097087828601610604565b6080830152506101e083013582811115610988578485fd5b61099487828601610604565b60a083015250610200830135828111156109ac578485fd5b6109b887828601610676565b60c08301525095945050505050565b6000815180845260208085019450808401835b838110156109ff5781516001600160a01b0316875295820195908201906001016109da565b509495945050505050565b6000815180845260208085019450808401835b838110156109ff57610a30878351610a6f565b60c0969096019590820190600101610a1d565b60008151808452610a5b816020860160208601610ca4565b601f01601f19169290920160200192915050565b8051825260ff602082015116602083015260ff6040820151166040830152606081015163ffffffff8082166060850152806080840151166080850152505060ff60a08201511660a08301525050565b604081526000610ad16040830185610a43565b90508260208301529392505050565b60208152610af2602082018351610a6f565b602082810151805160e084015290810151610100830152604081015163ffffffff9081166101208401526060820151811661014084015260808201511661016083015260a08101516101808301526000905060408301516001600160a01b0381166101a0840152506060830151610220806101c0850152610b776102408501836109c7565b91506080850151601f1980868503016101e0870152610b968483610a0a565b935060a087015191508086850301610200870152610bb48483610a0a565b935060c0870151915080868503018387015250610bd18382610a43565b9695505050505050565b60405160c0810167ffffffffffffffff81118282101715610bfe57610bfe610cd4565b60405290565b60405160e0810167ffffffffffffffff81118282101715610bfe57610bfe610cd4565b604051601f8201601f1916810167ffffffffffffffff81118282101715610c5057610c50610cd4565b604052919050565b600067ffffffffffffffff821115610c7257610c72610cd4565b5060051b60200190565b600067ffffffffffffffff821115610c9657610c96610cd4565b50601f01601f191660200190565b60005b83811015610cbf578181015183820152602001610ca7565b83811115610cce576000848401525b50505050565b634e487b7160e01b600052604160045260246000fd5b6001600160a01b0381168114610cff57600080fd5b5056fea2646970667358221220cbd62d97e5e97024410acf9fa1fb7356f1fa6ac78b62167e43d9962f2c78926a64736f6c63430008040033",
  "immutableReferences": {},
  "source": "// SPDX-License-Identifier: Apache-2.0\npragma solidity ^0.8.4;\n\nimport \"./ONEWallet.sol\";\nimport \"./IONEWallet.sol\";\nimport \"./Factory.sol\";\nimport \"./Version.sol\";\n\nlibrary ONEWalletCodeHelper {\n    function code() pure public returns (bytes memory){\n        return type(ONEWallet).creationCode;\n    }\n}\n\ncontract ONEWalletFactoryHelper {\n    ONEWalletFactory public factory = ONEWalletFactory(address(0));\n    constructor(ONEWalletFactory factory_){\n        factory = factory_;\n    }\n    function getVersion() public pure returns (uint32, uint32){\n        return (Version.majorVersion, Version.minorVersion);\n    }\n    function deploy(IONEWallet.InitParams memory args) payable public returns (address){\n        // ONEWallet has no constructor argument since v15\n        address addr = factory.deploy{value : msg.value}(ONEWalletCodeHelper.code(), uint256(keccak256(args.identificationKey)));\n        if (addr == address(0)) {\n            return addr;\n        }\n        IONEWallet(addr).initialize(args);\n        return addr;\n    }\n\n    function predict(bytes memory identificationKey) public view returns (address){\n        return factory.predict(ONEWalletCodeHelper.code(), uint256(keccak256(identificationKey)));\n    }\n\n    function verify(IONEWallet addr) public view returns (bool){\n        address predictedAddress = factory.predict(ONEWalletCodeHelper.code(), uint256(keccak256(addr.identificationKey())));\n        return predictedAddress == address(addr);\n    }\n}\n",
  "sourcePath": "/Users/polymorpher/git/one-wallet/code/contracts/FactoryHelper.sol",
  "compiler": {
    "name": "solc",
    "version": "0.8.4+commit.c7e474f2.Emscripten.clang"
  },
  "schemaVersion": "3.4.2",
  "updatedAt": "2021-11-15T08:53:03.254Z",
  "devdoc": {
    "kind": "dev",
    "methods": {},
    "version": 1
  },
  "userdoc": {
    "kind": "user",
    "methods": {},
    "version": 1
  }
}