{
  "contractName": "ONEWallet",
  "abi": [
    {
      "anonymous": false,
      "inputs": [
        {
          "indexed": false,
          "internalType": "address",
          "name": "from",
          "type": "address"
        }
      ],
      "name": "AutoRecoveryTriggered",
      "type": "event"
    },
    {
      "anonymous": false,
      "inputs": [
        {
          "indexed": false,
          "internalType": "address",
          "name": "from",
          "type": "address"
        },
        {
          "indexed": false,
          "internalType": "uint256",
          "name": "requiredTime",
          "type": "uint256"
        }
      ],
      "name": "AutoRecoveryTriggeredPrematurely",
      "type": "event"
    },
    {
      "anonymous": false,
      "inputs": [
        {
          "indexed": false,
          "internalType": "address",
          "name": "contractAddress",
          "type": "address"
        },
        {
          "indexed": false,
          "internalType": "uint256",
          "name": "amount",
          "type": "uint256"
        },
        {
          "indexed": false,
          "internalType": "bytes",
          "name": "data",
          "type": "bytes"
        },
        {
          "indexed": false,
          "internalType": "bytes",
          "name": "ret",
          "type": "bytes"
        }
      ],
      "name": "ExternalCallCompleted",
      "type": "event"
    },
    {
      "anonymous": false,
      "inputs": [
        {
          "indexed": false,
          "internalType": "address",
          "name": "contractAddress",
          "type": "address"
        },
        {
          "indexed": false,
          "internalType": "uint256",
          "name": "amount",
          "type": "uint256"
        },
        {
          "indexed": false,
          "internalType": "bytes",
          "name": "data",
          "type": "bytes"
        },
        {
          "indexed": false,
          "internalType": "bytes",
          "name": "ret",
          "type": "bytes"
        }
      ],
      "name": "ExternalCallFailed",
      "type": "event"
    },
    {
      "anonymous": false,
      "inputs": [
        {
          "indexed": false,
          "internalType": "address",
          "name": "dest",
          "type": "address"
        }
      ],
      "name": "ForwardAddressAlreadySet",
      "type": "event"
    },
    {
      "anonymous": false,
      "inputs": [
        {
          "indexed": false,
          "internalType": "address",
          "name": "dest",
          "type": "address"
        }
      ],
      "name": "ForwardAddressInvalid",
      "type": "event"
    },
    {
      "anonymous": false,
      "inputs": [
        {
          "indexed": false,
          "internalType": "address",
          "name": "dest",
          "type": "address"
        }
      ],
      "name": "ForwardAddressUpdated",
      "type": "event"
    },
    {
      "anonymous": false,
      "inputs": [
        {
          "indexed": false,
          "internalType": "bool",
          "name": "success",
          "type": "bool"
        }
      ],
      "name": "ForwardedBalance",
      "type": "event"
    },
    {
      "anonymous": false,
      "inputs": [
        {
          "indexed": false,
          "internalType": "enum Enums.TokenType",
          "name": "tokenType",
          "type": "uint8"
        },
        {
          "indexed": false,
          "internalType": "uint256",
          "name": "amount",
          "type": "uint256"
        },
        {
          "indexed": false,
          "internalType": "address",
          "name": "from",
          "type": "address"
        },
        {
          "indexed": false,
          "internalType": "address",
          "name": "tokenContract",
          "type": "address"
        },
        {
          "indexed": false,
          "internalType": "address",
          "name": "operator",
          "type": "address"
        },
        {
          "indexed": false,
          "internalType": "uint256",
          "name": "tokenId",
          "type": "uint256"
        },
        {
          "indexed": false,
          "internalType": "bytes",
          "name": "data",
          "type": "bytes"
        }
      ],
      "name": "ForwardedToken",
      "type": "event"
    },
    {
      "anonymous": false,
      "inputs": [],
      "name": "LastResortAddressNotSet",
      "type": "event"
    },
    {
      "anonymous": false,
      "inputs": [
        {
          "indexed": false,
          "internalType": "uint256",
          "name": "amount",
          "type": "uint256"
        },
        {
          "indexed": false,
          "internalType": "address",
          "name": "dest",
          "type": "address"
        }
      ],
      "name": "PaymentForwarded",
      "type": "event"
    },
    {
      "anonymous": false,
      "inputs": [
        {
          "indexed": false,
          "internalType": "uint256",
          "name": "amount",
          "type": "uint256"
        },
        {
          "indexed": false,
          "internalType": "address",
          "name": "from",
          "type": "address"
        }
      ],
      "name": "PaymentReceived",
      "type": "event"
    },
    {
      "anonymous": false,
      "inputs": [
        {
          "indexed": false,
          "internalType": "uint256",
          "name": "amount",
          "type": "uint256"
        },
        {
          "indexed": false,
          "internalType": "address",
          "name": "dest",
          "type": "address"
        }
      ],
      "name": "PaymentSent",
      "type": "event"
    },
    {
      "anonymous": false,
      "inputs": [
        {
          "indexed": false,
          "internalType": "enum Enums.TokenType",
          "name": "tokenType",
          "type": "uint8"
        },
        {
          "indexed": false,
          "internalType": "uint256",
          "name": "amount",
          "type": "uint256"
        },
        {
          "indexed": false,
          "internalType": "address",
          "name": "from",
          "type": "address"
        },
        {
          "indexed": false,
          "internalType": "address",
          "name": "tokenContract",
          "type": "address"
        },
        {
          "indexed": false,
          "internalType": "address",
          "name": "operator",
          "type": "address"
        },
        {
          "indexed": false,
          "internalType": "uint256",
          "name": "tokenId",
          "type": "uint256"
        },
        {
          "indexed": false,
          "internalType": "bytes",
          "name": "data",
          "type": "bytes"
        }
      ],
      "name": "ReceivedToken",
      "type": "event"
    },
    {
      "anonymous": false,
      "inputs": [
        {
          "indexed": false,
          "internalType": "address",
          "name": "dest",
          "type": "address"
        }
      ],
      "name": "RecoveryAddressUpdated",
      "type": "event"
    },
    {
      "anonymous": false,
      "inputs": [],
      "name": "RecoveryFailure",
      "type": "event"
    },
    {
      "anonymous": false,
      "inputs": [],
      "name": "RecoveryTriggered",
      "type": "event"
    },
    {
      "anonymous": false,
      "inputs": [],
      "name": "Retired",
      "type": "event"
    },
    {
      "anonymous": false,
      "inputs": [
        {
          "indexed": false,
          "internalType": "address",
          "name": "dest",
          "type": "address"
        },
        {
          "indexed": false,
          "internalType": "bytes",
          "name": "error",
          "type": "bytes"
        }
      ],
      "name": "TransferError",
      "type": "event"
    },
    {
      "inputs": [
        {
          "internalType": "bytes32",
          "name": "",
          "type": "bytes32"
        }
      ],
      "name": "findCommit",
      "outputs": [
        {
          "internalType": "bytes32",
          "name": "",
          "type": "bytes32"
        },
        {
          "internalType": "bytes32",
          "name": "",
          "type": "bytes32"
        },
        {
          "internalType": "uint32",
          "name": "",
          "type": "uint32"
        },
        {
          "internalType": "bool",
          "name": "",
          "type": "bool"
        }
      ],
      "stateMutability": "pure",
      "type": "function"
    },
    {
      "inputs": [],
      "name": "getCommits",
      "outputs": [
        {
          "internalType": "bytes32[]",
          "name": "",
          "type": "bytes32[]"
        },
        {
          "internalType": "bytes32[]",
          "name": "",
          "type": "bytes32[]"
        },
        {
          "internalType": "uint32[]",
          "name": "",
          "type": "uint32[]"
        },
        {
          "internalType": "bool[]",
          "name": "",
          "type": "bool[]"
        }
      ],
      "stateMutability": "pure",
      "type": "function"
    },
    {
      "inputs": [],
      "name": "getCurrentSpending",
      "outputs": [
        {
          "internalType": "uint256",
          "name": "",
          "type": "uint256"
        },
        {
          "internalType": "uint256",
          "name": "",
          "type": "uint256"
        }
      ],
      "stateMutability": "pure",
      "type": "function"
    },
    {
      "inputs": [],
      "name": "getCurrentSpendingState",
      "outputs": [
        {
          "internalType": "uint256",
          "name": "",
          "type": "uint256"
        },
        {
          "internalType": "uint256",
          "name": "",
          "type": "uint256"
        },
        {
          "internalType": "uint32",
          "name": "",
          "type": "uint32"
        },
        {
          "internalType": "uint32",
          "name": "",
          "type": "uint32"
        }
      ],
      "stateMutability": "pure",
      "type": "function"
    },
    {
      "inputs": [],
      "name": "identificationHash",
      "outputs": [
        {
          "internalType": "bytes32",
          "name": "",
          "type": "bytes32"
        }
      ],
      "stateMutability": "view",
      "type": "function"
    },
    {
      "inputs": [],
      "name": "lastOperationTime",
      "outputs": [
        {
          "internalType": "uint256",
          "name": "",
          "type": "uint256"
        }
      ],
      "stateMutability": "view",
      "type": "function"
    },
    {
      "inputs": [
        {
          "internalType": "address",
          "name": "operator",
          "type": "address"
        },
        {
          "internalType": "address",
          "name": "from",
          "type": "address"
        },
        {
          "internalType": "uint256[]",
          "name": "ids",
          "type": "uint256[]"
        },
        {
          "internalType": "uint256[]",
          "name": "values",
          "type": "uint256[]"
        },
        {
          "internalType": "bytes",
          "name": "data",
          "type": "bytes"
        }
      ],
      "name": "onERC1155BatchReceived",
      "outputs": [
        {
          "internalType": "bytes4",
          "name": "",
          "type": "bytes4"
        }
      ],
      "stateMutability": "nonpayable",
      "type": "function"
    },
    {
      "inputs": [
        {
          "internalType": "address",
          "name": "operator",
          "type": "address"
        },
        {
          "internalType": "address",
          "name": "from",
          "type": "address"
        },
        {
          "internalType": "uint256",
          "name": "id",
          "type": "uint256"
        },
        {
          "internalType": "uint256",
          "name": "value",
          "type": "uint256"
        },
        {
          "internalType": "bytes",
          "name": "data",
          "type": "bytes"
        }
      ],
      "name": "onERC1155Received",
      "outputs": [
        {
          "internalType": "bytes4",
          "name": "",
          "type": "bytes4"
        }
      ],
      "stateMutability": "nonpayable",
      "type": "function"
    },
    {
      "inputs": [
        {
          "internalType": "address",
          "name": "operator",
          "type": "address"
        },
        {
          "internalType": "address",
          "name": "from",
          "type": "address"
        },
        {
          "internalType": "uint256",
          "name": "tokenId",
          "type": "uint256"
        },
        {
          "internalType": "bytes",
          "name": "data",
          "type": "bytes"
        }
      ],
      "name": "onERC721Received",
      "outputs": [
        {
          "internalType": "bytes4",
          "name": "",
          "type": "bytes4"
        }
      ],
      "stateMutability": "nonpayable",
      "type": "function"
    },
    {
      "stateMutability": "payable",
      "type": "receive"
    },
    {
      "inputs": [
        {
          "components": [
            {
              "components": [
                {
                  "internalType": "bytes32",
                  "name": "root",
                  "type": "bytes32"
                },
                {
                  "internalType": "uint8",
                  "name": "height",
                  "type": "uint8"
                },
                {
                  "internalType": "uint8",
                  "name": "interval",
                  "type": "uint8"
                },
                {
                  "internalType": "uint32",
                  "name": "t0",
                  "type": "uint32"
                },
                {
                  "internalType": "uint32",
                  "name": "lifespan",
                  "type": "uint32"
                },
                {
                  "internalType": "uint8",
                  "name": "maxOperationsPerInterval",
                  "type": "uint8"
                }
              ],
              "internalType": "struct IONEWallet.CoreSetting",
              "name": "core",
              "type": "tuple"
            },
            {
              "components": [
                {
                  "internalType": "uint256",
                  "name": "spendingLimit",
                  "type": "uint256"
                },
                {
                  "internalType": "uint256",
                  "name": "spentAmount",
                  "type": "uint256"
                },
                {
                  "internalType": "uint32",
                  "name": "lastSpendingInterval",
                  "type": "uint32"
                },
                {
                  "internalType": "uint32",
                  "name": "spendingInterval",
                  "type": "uint32"
                },
                {
                  "internalType": "uint32",
                  "name": "lastLimitAdjustmentTime",
                  "type": "uint32"
                },
                {
                  "internalType": "uint256",
                  "name": "highestSpendingLimit",
                  "type": "uint256"
                }
              ],
              "internalType": "struct SpendingManager.SpendingState",
              "name": "spendingState",
              "type": "tuple"
            },
            {
              "internalType": "address payable",
              "name": "recoveryAddress",
              "type": "address"
            },
            {
              "internalType": "bytes32",
              "name": "identificationHash",
              "type": "bytes32"
            },
            {
              "internalType": "contract IONEWallet[]",
              "name": "backlinkAddresses",
              "type": "address[]"
            },
            {
              "components": [
                {
                  "internalType": "bytes32",
                  "name": "root",
                  "type": "bytes32"
                },
                {
                  "internalType": "uint8",
                  "name": "height",
                  "type": "uint8"
                },
                {
                  "internalType": "uint8",
                  "name": "interval",
                  "type": "uint8"
                },
                {
                  "internalType": "uint32",
                  "name": "t0",
                  "type": "uint32"
                },
                {
                  "internalType": "uint32",
                  "name": "lifespan",
                  "type": "uint32"
                },
                {
                  "internalType": "uint8",
                  "name": "maxOperationsPerInterval",
                  "type": "uint8"
                }
              ],
              "internalType": "struct IONEWallet.CoreSetting[]",
              "name": "oldCores",
              "type": "tuple[]"
            },
            {
              "components": [
                {
                  "internalType": "bytes32",
                  "name": "root",
                  "type": "bytes32"
                },
                {
                  "internalType": "uint8",
                  "name": "height",
                  "type": "uint8"
                },
                {
                  "internalType": "uint8",
                  "name": "interval",
                  "type": "uint8"
                },
                {
                  "internalType": "uint32",
                  "name": "t0",
                  "type": "uint32"
                },
                {
                  "internalType": "uint32",
                  "name": "lifespan",
                  "type": "uint32"
                },
                {
                  "internalType": "uint8",
                  "name": "maxOperationsPerInterval",
                  "type": "uint8"
                }
              ],
              "internalType": "struct IONEWallet.CoreSetting[]",
              "name": "innerCores",
              "type": "tuple[]"
            }
          ],
          "internalType": "struct IONEWallet.InitParams",
          "name": "initParams",
          "type": "tuple"
        }
      ],
      "name": "initialize",
      "outputs": [],
      "stateMutability": "nonpayable",
      "type": "function"
    },
    {
      "inputs": [],
      "name": "getForwardAddress",
      "outputs": [
        {
          "internalType": "address payable",
          "name": "",
          "type": "address"
        }
      ],
      "stateMutability": "view",
      "type": "function"
    },
    {
      "inputs": [],
      "name": "retire",
      "outputs": [
        {
          "internalType": "bool",
          "name": "",
          "type": "bool"
        }
      ],
      "stateMutability": "nonpayable",
      "type": "function"
    },
    {
      "inputs": [],
      "name": "getInfo",
      "outputs": [
        {
          "internalType": "bytes32",
          "name": "",
          "type": "bytes32"
        },
        {
          "internalType": "uint8",
          "name": "",
          "type": "uint8"
        },
        {
          "internalType": "uint8",
          "name": "",
          "type": "uint8"
        },
        {
          "internalType": "uint32",
          "name": "",
          "type": "uint32"
        },
        {
          "internalType": "uint32",
          "name": "",
          "type": "uint32"
        },
        {
          "internalType": "uint8",
          "name": "",
          "type": "uint8"
        },
        {
          "internalType": "address",
          "name": "",
          "type": "address"
        },
        {
          "internalType": "uint256",
          "name": "",
          "type": "uint256"
        }
      ],
      "stateMutability": "view",
      "type": "function"
    },
    {
      "inputs": [],
      "name": "getOldInfos",
      "outputs": [
        {
          "components": [
            {
              "internalType": "bytes32",
              "name": "root",
              "type": "bytes32"
            },
            {
              "internalType": "uint8",
              "name": "height",
              "type": "uint8"
            },
            {
              "internalType": "uint8",
              "name": "interval",
              "type": "uint8"
            },
            {
              "internalType": "uint32",
              "name": "t0",
              "type": "uint32"
            },
            {
              "internalType": "uint32",
              "name": "lifespan",
              "type": "uint32"
            },
            {
              "internalType": "uint8",
              "name": "maxOperationsPerInterval",
              "type": "uint8"
            }
          ],
          "internalType": "struct IONEWallet.CoreSetting[]",
          "name": "",
          "type": "tuple[]"
        }
      ],
      "stateMutability": "view",
      "type": "function"
    },
    {
      "inputs": [],
      "name": "getRootKey",
      "outputs": [
        {
          "internalType": "bytes32",
          "name": "",
          "type": "bytes32"
        }
      ],
      "stateMutability": "view",
      "type": "function"
    },
    {
      "inputs": [],
      "name": "getVersion",
      "outputs": [
        {
          "internalType": "uint32",
          "name": "",
          "type": "uint32"
        },
        {
          "internalType": "uint32",
          "name": "",
          "type": "uint32"
        }
      ],
      "stateMutability": "pure",
      "type": "function"
    },
    {
      "inputs": [],
      "name": "getSpendingState",
      "outputs": [
        {
          "components": [
            {
              "internalType": "uint256",
              "name": "spendingLimit",
              "type": "uint256"
            },
            {
              "internalType": "uint256",
              "name": "spentAmount",
              "type": "uint256"
            },
            {
              "internalType": "uint32",
              "name": "lastSpendingInterval",
              "type": "uint32"
            },
            {
              "internalType": "uint32",
              "name": "spendingInterval",
              "type": "uint32"
            },
            {
              "internalType": "uint32",
              "name": "lastLimitAdjustmentTime",
              "type": "uint32"
            },
            {
              "internalType": "uint256",
              "name": "highestSpendingLimit",
              "type": "uint256"
            }
          ],
          "internalType": "struct SpendingManager.SpendingState",
          "name": "",
          "type": "tuple"
        }
      ],
      "stateMutability": "view",
      "type": "function"
    },
    {
      "inputs": [],
      "name": "getNonce",
      "outputs": [
        {
          "internalType": "uint8",
          "name": "",
          "type": "uint8"
        }
      ],
      "stateMutability": "view",
      "type": "function"
    },
    {
      "inputs": [],
      "name": "getTrackedTokens",
      "outputs": [
        {
          "internalType": "enum Enums.TokenType[]",
          "name": "",
          "type": "uint8[]"
        },
        {
          "internalType": "address[]",
          "name": "",
          "type": "address[]"
        },
        {
          "internalType": "uint256[]",
          "name": "",
          "type": "uint256[]"
        }
      ],
      "stateMutability": "view",
      "type": "function"
    },
    {
      "inputs": [
        {
          "internalType": "enum Enums.TokenType",
          "name": "tokenType",
          "type": "uint8"
        },
        {
          "internalType": "address",
          "name": "contractAddress",
          "type": "address"
        },
        {
          "internalType": "uint256",
          "name": "tokenId",
          "type": "uint256"
        }
      ],
      "name": "getBalance",
      "outputs": [
        {
          "internalType": "uint256",
          "name": "",
          "type": "uint256"
        }
      ],
      "stateMutability": "view",
      "type": "function"
    },
    {
      "inputs": [],
      "name": "getAllCommits",
      "outputs": [
        {
          "internalType": "bytes32[]",
          "name": "",
          "type": "bytes32[]"
        },
        {
          "internalType": "bytes32[]",
          "name": "",
          "type": "bytes32[]"
        },
        {
          "internalType": "bytes32[]",
          "name": "",
          "type": "bytes32[]"
        },
        {
          "internalType": "uint32[]",
          "name": "",
          "type": "uint32[]"
        },
        {
          "internalType": "bool[]",
          "name": "",
          "type": "bool[]"
        }
      ],
      "stateMutability": "view",
      "type": "function"
    },
    {
      "inputs": [
        {
          "internalType": "bytes32",
          "name": "hash",
          "type": "bytes32"
        }
      ],
      "name": "lookupCommit",
      "outputs": [
        {
          "internalType": "bytes32[]",
          "name": "",
          "type": "bytes32[]"
        },
        {
          "internalType": "bytes32[]",
          "name": "",
          "type": "bytes32[]"
        },
        {
          "internalType": "bytes32[]",
          "name": "",
          "type": "bytes32[]"
        },
        {
          "internalType": "uint32[]",
          "name": "",
          "type": "uint32[]"
        },
        {
          "internalType": "bool[]",
          "name": "",
          "type": "bool[]"
        }
      ],
      "stateMutability": "view",
      "type": "function"
    },
    {
      "inputs": [
        {
          "internalType": "bytes32",
          "name": "hash",
          "type": "bytes32"
        },
        {
          "internalType": "bytes32",
          "name": "paramsHash",
          "type": "bytes32"
        },
        {
          "internalType": "bytes32",
          "name": "verificationHash",
          "type": "bytes32"
        }
      ],
      "name": "commit",
      "outputs": [],
      "stateMutability": "nonpayable",
      "type": "function"
    },
    {
      "inputs": [
        {
          "components": [
            {
              "internalType": "bytes32[]",
              "name": "neighbors",
              "type": "bytes32[]"
            },
            {
              "internalType": "uint32",
              "name": "indexWithNonce",
              "type": "uint32"
            },
            {
              "internalType": "bytes32",
              "name": "eotp",
              "type": "bytes32"
            }
          ],
          "internalType": "struct IONEWallet.AuthParams",
          "name": "auth",
          "type": "tuple"
        },
        {
          "components": [
            {
              "internalType": "enum Enums.OperationType",
              "name": "operationType",
              "type": "uint8"
            },
            {
              "internalType": "enum Enums.TokenType",
              "name": "tokenType",
              "type": "uint8"
            },
            {
              "internalType": "address",
              "name": "contractAddress",
              "type": "address"
            },
            {
              "internalType": "uint256",
              "name": "tokenId",
              "type": "uint256"
            },
            {
              "internalType": "address payable",
              "name": "dest",
              "type": "address"
            },
            {
              "internalType": "uint256",
              "name": "amount",
              "type": "uint256"
            },
            {
              "internalType": "bytes",
              "name": "data",
              "type": "bytes"
            }
          ],
          "internalType": "struct IONEWallet.OperationParams",
          "name": "op",
          "type": "tuple"
        }
      ],
      "name": "reveal",
      "outputs": [],
      "stateMutability": "nonpayable",
      "type": "function"
    },
    {
      "inputs": [
        {
          "internalType": "bytes32[]",
          "name": "",
          "type": "bytes32[]"
        },
        {
          "internalType": "uint32",
          "name": "",
          "type": "uint32"
        },
        {
          "internalType": "bytes32",
          "name": "",
          "type": "bytes32"
        },
        {
          "internalType": "enum Enums.OperationType",
          "name": "",
          "type": "uint8"
        },
        {
          "internalType": "enum Enums.TokenType",
          "name": "",
          "type": "uint8"
        },
        {
          "internalType": "address",
          "name": "",
          "type": "address"
        },
        {
          "internalType": "uint256",
          "name": "",
          "type": "uint256"
        },
        {
          "internalType": "address payable",
          "name": "",
          "type": "address"
        },
        {
          "internalType": "uint256",
          "name": "",
          "type": "uint256"
        },
        {
          "internalType": "bytes",
          "name": "",
          "type": "bytes"
        }
      ],
      "name": "reveal",
      "outputs": [],
      "stateMutability": "pure",
      "type": "function"
    },
    {
      "inputs": [],
      "name": "getBacklinks",
      "outputs": [
        {
          "internalType": "contract IONEWallet[]",
          "name": "",
          "type": "address[]"
        }
      ],
      "stateMutability": "view",
      "type": "function"
    },
    {
      "inputs": [
        {
          "internalType": "bytes4",
          "name": "interfaceId",
          "type": "bytes4"
        }
      ],
      "name": "supportsInterface",
      "outputs": [
        {
          "internalType": "bool",
          "name": "",
          "type": "bool"
        }
      ],
      "stateMutability": "pure",
      "type": "function"
    },
    {
      "inputs": [
        {
          "internalType": "bytes32",
          "name": "hash",
          "type": "bytes32"
        },
        {
          "internalType": "bytes",
          "name": "signatureBytes",
          "type": "bytes"
        }
      ],
      "name": "isValidSignature",
      "outputs": [
        {
          "internalType": "bytes4",
          "name": "",
          "type": "bytes4"
        }
      ],
      "stateMutability": "view",
      "type": "function"
    },
    {
      "inputs": [
        {
          "internalType": "uint32",
          "name": "start",
          "type": "uint32"
        },
        {
          "internalType": "uint32",
          "name": "end",
          "type": "uint32"
        }
      ],
      "name": "listSignatures",
      "outputs": [
        {
          "internalType": "bytes32[]",
          "name": "",
          "type": "bytes32[]"
        },
        {
          "internalType": "bytes32[]",
          "name": "",
          "type": "bytes32[]"
        },
        {
          "internalType": "uint32[]",
          "name": "",
          "type": "uint32[]"
        },
        {
          "internalType": "uint32[]",
          "name": "",
          "type": "uint32[]"
        }
      ],
      "stateMutability": "view",
      "type": "function"
    },
    {
      "inputs": [
        {
          "internalType": "bytes32",
          "name": "hash",
          "type": "bytes32"
        }
      ],
      "name": "lookupSignature",
      "outputs": [
        {
          "internalType": "bytes32",
          "name": "",
          "type": "bytes32"
        },
        {
          "internalType": "uint32",
          "name": "",
          "type": "uint32"
        },
        {
          "internalType": "uint32",
          "name": "",
          "type": "uint32"
        }
      ],
      "stateMutability": "view",
      "type": "function"
    }
  ],
  "bytecode": "0x60806040526016805460ff1916905534801561001a57600080fd5b506144338061002a6000396000f3fe6080604052600436106101d15760003560e01c806358cab0c5116100f7578063b1ccfccc11610095578063d87458a311610064578063d87458a314610888578063db582c7e146108a8578063e4e5b258146108be578063f23a6e61146108de57600080fd5b8063b1ccfccc14610804578063bc197c8114610826578063c34a6dad14610846578063d087d2881461086157600080fd5b806391df0925116100d157806391df092514610767578063a17027e1146107a9578063a4874d77146107cf578063a6b920b6146107e457600080fd5b806358cab0c5146106a35780635a9b0b89146106c3578063695def4c1461074357600080fd5b80632293d3fb1161016f5780633f079ab81161013e5780633f079ab81461060957806341a6487814610629578063424c511014610651578063496018af1461068157600080fd5b80632293d3fb1461048a5780632f1f7520146104b4578063318c728c146104d9578063396ec5f4146105c857600080fd5b8063150b7a02116101ab578063150b7a02146103cd5780631626ba7e1461040657806316d43a97146104265780631cf4ea051461043c57600080fd5b806301ffc9a71461035357806304013239146103885780630d8e6e2c146103ab57600080fd5b3661034e5760165460ff166101e557600080fd5b600d546001600160a01b03161561026c57600654600d546001600160a01b0390811691161415610219576102176108fe565b005b6006546001600160a01b031633141561026457670de0b6b3a764000034141561025c57600654610251906001600160a01b031661099a565b610259610c4e565b50005b610251610d1c565b6102176108fe565b670de0b6b3a7640000341461027d57005b6006546001600160a01b0316331461029157005b3330141561029b57005b62127500600c546102ac91906141f6565b42101561030a577fe58fb6bc612703a64f091af2ff6a6831eca838a0301129ab6879cab20d6d7c8c3362127500600c546102e691906141f6565b604080516001600160a01b03909316835260208301919091520160405180910390a1005b6040513381527f0cbe1fea4becf04af2176bbef0c9c53d439d30a05a197aacc38bb4a2873222e39060200160405180910390a1610345610d72565b61021757600080fd5b600080fd5b34801561035f57600080fd5b5061037361036e366004613636565b610e64565b60405190151581526020015b60405180910390f35b34801561039457600080fd5b5061039d610e8f565b60405190815260200161037f565b3480156103b757600080fd5b5060408051600f8152600160208201520161037f565b3480156103d957600080fd5b506103ed6103e8366004612ef8565b610eda565b6040516001600160e01b0319909116815260200161037f565b34801561041257600080fd5b506103ed6104213660046135b0565b611053565b34801561043257600080fd5b5061039d600c5481565b34801561044857600080fd5b5061045c61045736600461356d565b6110e9565b60405161037f9493929190938452602084019290925263ffffffff1660408301521515606082015260800190565b34801561049657600080fd5b5061049f6110f4565b6040805192835260208301919091520161037f565b3480156104c057600080fd5b506104c96110fc565b60405161037f9493929190613c5b565b3480156104e557600080fd5b5061056e6040805160c081018252600080825260208201819052918101829052606081018290526080810182905260a0810191909152506040805160c08101825260085481526009546020820152600a5463ffffffff80821693830193909352640100000000810483166060830152600160401b90049091166080820152600b5460a082015290565b60405161037f9190600060c0820190508251825260208301516020830152604083015163ffffffff8082166040850152806060860151166060850152806080860151166080850152505060a083015160a083015292915050565b3480156105d457600080fd5b506105dd6110e9565b60408051948552602085019390935263ffffffff9182169284019290925216606082015260800161037f565b34801561061557600080fd5b506102176106243660046136ae565b611107565b34801561063557600080fd5b50600d546040516001600160a01b03909116815260200161037f565b34801561065d57600080fd5b5061067161066c366004613883565b6111c5565b60405161037f9493929190613ca8565b34801561068d57600080fd5b50610696611279565b60405161037f9190613cf5565b3480156106af57600080fd5b506102176106be36600461371b565b6112db565b3480156106cf57600080fd5b506002546003546006546040805193845260ff808416602086015261010080850482169286019290925263ffffffff62010000850481166060870152600160301b8504166080860152600160501b90930490921660a08401526001600160a01b031660c0830152600060e08301520161037f565b34801561074f57600080fd5b5061075861164c565b60405161037f93929190613d42565b34801561077357600080fd5b5061078761078236600461356d565b6116e5565b6040805193845263ffffffff928316602085015291169082015260600161037f565b3480156107b557600080fd5b506107be611783565b60405161037f959493929190613bfa565b3480156107db57600080fd5b50610373611826565b3480156107f057600080fd5b5061039d6107ff36600461366e565b6118d0565b34801561081057600080fd5b506108196119a0565b60405161037f9190613dd3565b34801561083257600080fd5b506103ed610841366004612e3e565b611a4d565b34801561085257600080fd5b5061021761034e3660046130d5565b34801561086d57600080fd5b50610876611b5f565b60405160ff909116815260200161037f565b34801561089457600080fd5b506107be6108a336600461356d565b611bfb565b3480156108b457600080fd5b5061039d60075481565b3480156108ca57600080fd5b506102176108d9366004613585565b611ca6565b3480156108ea57600080fd5b506103ed6108f9366004612f68565b611d32565b600d546040516000916001600160a01b03169034908381818185875af1925050503d806000811461094b576040519150601f19603f3d011682016040523d82523d6000602084013e610950565b606091505b505090508061095e57600080fd5b604080513481523360208201527f6e8641fc34fdcf9d67683d1a8ced72ff01d27ff86ff3b1d338fa6165e496c73f91015b60405180910390a150565b600d546001600160a01b03163014806109ba57506001600160a01b038116155b156109f8576040516001600160a01b03821681527f81a6b37eeab97da1bb7ac3b3e34fcee45f445c8de943999917a6fe95ed7fa7879060200161098f565b600d80546001600160a01b0319166001600160a01b0383169081179091556040519081527fa706c3d6ff18ff7dfc1ee0a34bc34fe432c200d8d475bff3ed963eb31ae194689060200160405180910390a1600654610a5e906001600160a01b0316611eac565b610ac457600d54610a77906001600160a01b0316611ee8565b6000610a81610d72565b90507f41af6efec37729ca1819094cce85d9ae325b936fda39ac98a58cfcb45d431b4b81604051610ab6911515815260200190565b60405180910390a150610bd8565b60405163c9c80f8f60e01b81526008600482015260009073__SpendingManager_______________________9063c9c80f8f9060240160206040518083038186803b158015610b1257600080fd5b505af4158015610b26573d6000803e3d6000fd5b505050506040513d601f19601f82011682018060405250810190610b4a919061380e565b600d54909150610b63906001600160a01b031682611f94565b5060405163aaf6047360e01b8152600060048201526001600160a01b038316602482015273__TokenTracker__________________________9063aaf604739060440160006040518083038186803b158015610bbe57600080fd5b505af4158015610bd2573d6000803e3d6000fd5b50505050505b604051639cacd87160e01b8152600e60048201526001600160a01b038216602482015273__WalletGraph___________________________90639cacd871906044015b60006040518083038186803b158015610c3357600080fd5b505af4158015610c47573d6000803e3d6000fd5b5050505050565b600654600090610c66906001600160a01b0316611eac565b610c99576040517fc27dbdcf29e2a161f0420d399444129801e578bafe157fef0370098459e082bf90600090a150600090565b6006546001600160a01b0316301415610cb25750600190565b610cba610d72565b610ced576040517fa3a244603d968c02ebd2017f990d4e077cf0381929976be2a0cb07076147a56f90600090a150600090565b6040517f94f696b15fed1e58be1975a224273b56878dda280cb878ec20eb56b6fea7313a90600090a150600190565b600d54600680546001600160a01b0319166001600160a01b0390921691821790556040519081527f83c14e1947c5a639434d6195a6e9d85ab3471a5049c66e0aa46b71e2c0a06dde9060200160405180910390a1565b60065460405160009182916001600160a01b039091169047908381818185875af1925050503d8060008114610dc3576040519150601f19603f3d011682016040523d82523d6000602084013e610dc8565b606091505b505090508015610e5f57600654600d80546001600160a01b0319166001600160a01b03909216918217905560405163aaf6047360e01b815260006004820152602481019190915273__TokenTracker__________________________9063aaf604739060440160006040518083038186803b158015610e4657600080fd5b505af4158015610e5a573d6000803e3d6000fd5b505050505b919050565b60006001600160e01b03198216630b135d3f60e11b1480610e895750610e89826121b7565b92915050565b60045460009015610ed3576004600081548110610ebc57634e487b7160e01b600052603260045260246000fd5b906000526020600020906002020160000154905090565b5060025490565b60007feb7a68d5a205eea79480f44587fe8146ae15b7e92582967fd1b1b119c9b60efa60018087338a898989604051610f1a989796959493929190613ec8565b60405180910390a16000610f36600d546001600160a01b031690565b90506001600160a01b03811615610fcf5760405163c841a9db60e01b815273__TokenTracker__________________________9063c841a9db90610f8e9060009060019033908b90889084908d908d906004016140e4565b60006040518083038186803b158015610fa657600080fd5b505af4158015610fba573d6000803e3d6000fd5b50630a85bd0160e11b945061104a9350505050565b6040516304e9b2db60e31b815273__TokenTracker__________________________9063274d96d89061100e9060009060019033908b906004016140b5565b60006040518083038186803b15801561102657600080fd5b505af415801561103a573d6000803e3d6000fd5b50630a85bd0160e11b9450505050505b95945050505050565b604051634d94f52360e01b815260009073__SignatureManager______________________90634d94f523906110929060139087908790600401614096565b60206040518083038186803b1580156110aa57600080fd5b505af41580156110be573d6000803e3d6000fd5b505050506040513d601f19601f820116820180604052508101906110e29190613652565b9392505050565b600080600080600080fd5b600080600080fd5b606080606080600080fd5b60165460ff1661111657600080fd5b600d546001600160a01b031633146111b05760065460405163f35664b160e01b815273__Reveal________________________________9163f35664b19161117b916002916004916005916001600160a01b0390911690600f908a908a908601613f39565b60006040518083038186803b15801561119357600080fd5b505af41580156111a7573d6000803e3d6000fd5b505042600c5550505b6111c16111bc8261426a565b612208565b5050565b604051630139109f60e31b81526013600482015263ffffffff80841660248301528216604482015260609081908190819073__SignatureManager______________________906309c884f89060640160006040518083038186803b15801561122d57600080fd5b505af4158015611241573d6000803e3d6000fd5b505050506040513d6000823e601f3d908101601f191682016040526112699190810190613285565b9299919850965090945092505050565b6060600e8054806020026020016040519081016040528092919081815260200182805480156112d157602002820191906000526020600020905b81546001600160a01b031681526001909101906020018083116112b3575b5050505050905090565b60165460ff16156112eb57600080fd5b60005b8160a00151518163ffffffff1610156113f25760048260a001518263ffffffff168151811061132d57634e487b7160e01b600052603260045260246000fd5b60209081029190910181015182546001808201855560009485529383902082516002909202019081559181015191909201805460408401516060850151608086015160a09096015160ff95861661ffff1990941693909317610100928616929092029190911769ffffffffffffffff000019166201000063ffffffff9283160263ffffffff60301b191617600160301b91909516029390931760ff60501b1916600160501b9290931691909102919091179055806113ea81614331565b9150506112ee565b5060005b8160c00151518163ffffffff1610156114fa5760058260c001518263ffffffff168151811061143557634e487b7160e01b600052603260045260246000fd5b60209081029190910181015182546001808201855560009485529383902082516002909202019081559181015191909201805460408401516060850151608086015160a09096015160ff95861661ffff1990941693909317610100928616929092029190911769ffffffffffffffff000019166201000063ffffffff9283160263ffffffff60301b191617600160301b91909516029390931760ff60501b1916600160501b9290931691909102919091179055806114f281614331565b9150506113f6565b5080518051600255602080820151600380546040808601516060808801516080808a015160a09a8b015160ff998a1661ffff1990981697909717610100958a16959095029490941769ffffffffffffffff000019166201000063ffffffff9384160263ffffffff60301b191617600160301b948316949094029390931760ff60501b1916600160501b9790951696909602939093179093558487015180516008558086015160095580820151600a8054948301518387015192881667ffffffffffffffff199096169590951764010000000095881695909502949094176bffffffff00000000000000001916600160401b9190961602949094179091559190930151600b55830151600680546001600160a01b0319166001600160a01b0390921691909117905590820151805161163592600e9201906128d5565b50606001516007556016805460ff19166001179055565b604051631d9037a160e11b8152600060048201526060908190819073__TokenTracker__________________________90633b206f429060240160006040518083038186803b15801561169e57600080fd5b505af41580156116b2573d6000803e3d6000fd5b505050506040513d6000823e601f3d908101601f191682016040526116da919081019061332c565b925092509250909192565b604051635107e51560e11b815260136004820152602481018290526000908190819073__SignatureManager______________________9063a20fca2a9060440160606040518083038186803b15801561173e57600080fd5b505af4158015611752573d6000803e3d6000fd5b505050506040513d601f19601f8201168201806040525081019061177691906135f4565b9250925092509193909250565b60405163732d1f0f60e01b8152600f6004820152606090819081908190819073__CommitManager_________________________9063732d1f0f9060240160006040518083038186803b1580156117d957600080fd5b505af41580156117ed573d6000803e3d6000fd5b505050506040513d6000823e601f3d908101601f1916820160405261181591908101906131ba565b945094509450945094509091929394565b60035460009063ffffffff600160301b8204811691620100008104909116906118589060ff610100909104164261420e565b6118629190614245565b63ffffffff161161187257600080fd5b600654611887906001600160a01b0316611eac565b61189057600080fd5b611898610d72565b6118a157600080fd5b6040517fc15f68f0a72806ff3f8bf2435385a67c4c22413f1c7931ef7bcea718e6ffcf0390600090a150600190565b60008060008073__TokenTracker__________________________636489a8db8888886040518463ffffffff1660e01b815260040161191193929190613ea0565b60006040518083038186803b15801561192957600080fd5b505af415801561193d573d6000803e3d6000fd5b505050506040513d6000823e601f3d908101601f191682016040526119659190810190613826565b9250925092508181906119945760405162461bcd60e51b815260040161198b9190613f26565b60405180910390fd5b50919695505050505050565b60606004805480602002602001604051908101604052809291908181526020016000905b82821015611a445760008481526020908190206040805160c081018252600286029092018054835260019081015460ff80821685870152610100820481169385019390935263ffffffff62010000820481166060860152600160301b8204166080850152600160501b900490911660a083015290835290920191016119c4565b50505050905090565b6000805b63ffffffff8116871115611b49573063f23a6e618b8b8b8b63ffffffff8716818110611a8d57634e487b7160e01b600052603260045260246000fd5b905060200201358a8a8763ffffffff16818110611aba57634e487b7160e01b600052603260045260246000fd5b9050602002013589896040518763ffffffff1660e01b8152600401611ae496959493929190613b30565b602060405180830381600087803b158015611afe57600080fd5b505af1158015611b12573d6000803e3d6000fd5b505050506040513d601f19601f82011682018060405250810190611b369190613652565b5080611b4181614331565b915050611a51565b5063bc197c8160e01b9998505050505050505050565b600354604051631601f47b60e31b8152600f600482015261010090910460ff16602482015260009073__CommitManager_________________________9063b00fa3d89060440160206040518083038186803b158015611bbe57600080fd5b505af4158015611bd2573d6000803e3d6000fd5b505050506040513d601f19601f82011682018060405250810190611bf691906138b0565b905090565b6040516391a351d360e01b8152600f600482015260248101829052606090819081908190819073__CommitManager_________________________906391a351d39060440160006040518083038186803b158015611c5857600080fd5b505af4158015611c6c573d6000803e3d6000fd5b505050506040513d6000823e601f3d908101601f19168201604052611c9491908101906131ba565b939a9299509097509550909350915050565b60165460ff16611cb557600080fd5b604051632b6e663760e21b8152600f600482015260248101849052604481018390526064810182905273__CommitManager_________________________9063adb998dc9060840160006040518083038186803b158015611d1557600080fd5b505af4158015611d29573d6000803e3d6000fd5b50505050505050565b60007feb7a68d5a205eea79480f44587fe8146ae15b7e92582967fd1b1b119c9b60efa60028588338b8a8989604051611d72989796959493929190613ec8565b60405180910390a16000611d8e600d546001600160a01b031690565b90506001600160a01b03811615611e275760405163c841a9db60e01b815273__TokenTracker__________________________9063c841a9db90611de69060009060029033908c9088908d908d908d906004016140e4565b60006040518083038186803b158015611dfe57600080fd5b505af4158015611e12573d6000803e3d6000fd5b5063f23a6e6160e01b9450611ea29350505050565b6040516304e9b2db60e31b815273__TokenTracker__________________________9063274d96d890611e669060009060029033908c906004016140b5565b60006040518083038186803b158015611e7e57600080fd5b505af4158015611e92573d6000803e3d6000fd5b5063f23a6e6160e01b9450505050505b9695505050505050565b60006001600160a01b03821615801590610e8957506001600160a01b038216737534978f9fa903150ed429c486d1f42b7fdb7a61141592915050565b600654611efd906001600160a01b0316611eac565b80611f1057506001600160a01b03811630145b15611f4657604051600081527f83c14e1947c5a639434d6195a6e9d85ab3471a5049c66e0aa46b71e2c0a06dde9060200161098f565b600680546001600160a01b0319166001600160a01b0383169081179091556040519081527f83c14e1947c5a639434d6195a6e9d85ab3471a5049c66e0aa46b71e2c0a06dde9060200161098f565b60405163075f723760e11b8152600860048201526001600160a01b038316602482015260448101829052600090819073__SpendingManager_______________________90630ebee46e9060640160206040518083038186803b158015611ffa57600080fd5b505af415801561200e573d6000803e3d6000fd5b505050506040513d601f19601f820116820180604052508101906120329190613553565b905080612043576000915050610e89565b60405163ddc7babd60e01b8152600860048201526024810184905273__SpendingManager_______________________9063ddc7babd9060440160006040518083038186803b15801561209557600080fd5b505af41580156120a9573d6000803e3d6000fd5b50505050600080856001600160a01b03168560405160006040518083038185875af1925050503d80600081146120fb576040519150601f19603f3d011682016040523d82523d6000602084013e612100565b606091505b50915091508161216a57846008600101600082825461211f919061422e565b90915550506040517ff5c313ebe4b0c35fe244772061cea14ddbae7ed089b2850d6ee2235fd42847e4906121569088908490613b04565b60405180910390a160009350505050610e89565b604080518681526001600160a01b03881660208201527f8f4636f285a9a17fe3479ab47bb7a5deadaf9b2295a16c3965f55fa48e542d1f910160405180910390a150600195945050505050565b60006001600160e01b031982166301ffc9a760e01b14806121e857506001600160e01b0319821663f23a6e6160e01b145b80610e8957506001600160e01b03198216630a85bd0160e11b1492915050565b60048151601981111561222b57634e487b7160e01b600052602160045260246000fd5b1415612243576111c181608001518260a00151611f94565b60068151601981111561226657634e487b7160e01b600052602160045260246000fd5b1415612274576111c1610c4e565b60058151601981111561229757634e487b7160e01b600052602160045260246000fd5b14156122ad576122aa8160800151611ee8565b50565b6008815160198111156122d057634e487b7160e01b600052602160045260246000fd5b14156122e3576122aa816080015161099a565b60158151601981111561230657634e487b7160e01b600052602160045260246000fd5b141561233957606081015161232c576122aa81604001518260a001518360c0015161242c565b6122aa8160c00151612686565b60078151601981111561235c57634e487b7160e01b600052602160045260246000fd5b14156123b35760c0810151600d546040516316f5dbe960e31b815273__CoreManager___________________________9263b7aedf4892610c1b926004926005926002926001600160a01b03909116908501613e61565b6016815160198111156123d657634e487b7160e01b600052602160045260246000fd5b14156123e9576122aa8160c00151612858565b6040516338e617e360e21b815273__Executor______________________________9063e3985f8c90610c1b908490600090600e90601390600890600401613ff6565b60405163075f723760e11b8152600860048201526001600160a01b03841660248201526044810183905260009073__SpendingManager_______________________90630ebee46e9060640160206040518083038186803b15801561249057600080fd5b505af41580156124a4573d6000803e3d6000fd5b505050506040513d601f19601f820116820180604052508101906124c89190613553565b905080612510577f4d62b9a6ffb55cee5d5dc75b67dc0013b2cce2fa73c7a715ad72dedc5ffdc60c84848460405161250293929190613bbb565b60405180910390a150505050565b60405163ddc7babd60e01b8152600860048201526024810184905273__SpendingManager_______________________9063ddc7babd9060440160006040518083038186803b15801561256257600080fd5b505af4158015612576573d6000803e3d6000fd5b50505050600080856001600160a01b031685856040516125969190613ae8565b60006040518083038185875af1925050503d80600081146125d3576040519150601f19603f3d011682016040523d82523d6000602084013e6125d8565b606091505b50915091508115612625577f594eb1d75e7963acdb8e3677a186a5ed35924ab37f2b20e78aea6516bbc9bd6e868686846040516126189493929190613b77565b60405180910390a161267e565b846008600101600082825461263a919061422e565b90915550506040517f4d62b9a6ffb55cee5d5dc75b67dc0013b2cce2fa73c7a715ad72dedc5ffdc60c90612675908890889088908690613b77565b60405180910390a15b505050505050565b60008060008380602001905181019061269f9190612fe1565b9250925092506000805b83518163ffffffff16101561270557838163ffffffff16815181106126de57634e487b7160e01b600052603260045260246000fd5b6020026020010151826126f191906141f6565b9150806126fd81614331565b9150506126a9565b5060405163075f723760e11b815260086004820152600060248201526044810182905273__SpendingManager_______________________90630ebee46e9060640160206040518083038186803b15801561275f57600080fd5b505af4158015612773573d6000803e3d6000fd5b505050506040513d601f19601f820116820180604052508101906127979190613553565b6127a2575050505050565b60005b84518163ffffffff16101561267e57612846858263ffffffff16815181106127dd57634e487b7160e01b600052603260045260246000fd5b6020026020010151858363ffffffff168151811061280b57634e487b7160e01b600052603260045260246000fd5b6020026020010151858463ffffffff168151811061283957634e487b7160e01b600052603260045260246000fd5b602002602001015161242c565b8061285081614331565b9150506127a5565b60008180602001905181019061286e9190613414565b805190915060005b8160ff168163ffffffff1610156128cf576128bd838263ffffffff16815181106128b057634e487b7160e01b600052603260045260246000fd5b6020026020010151612208565b806128c781614331565b915050612876565b50505050565b82805482825590600052602060002090810192821561292a579160200282015b8281111561292a57825182546001600160a01b0319166001600160a01b039091161782556020909201916001909101906128f5565b5061293692915061293a565b5090565b5b80821115612936576000815560010161293b565b600061296261295d846141cf565b61417c565b905082815283838301111561297657600080fd5b6110e2836020830184614305565b8035610e5f81614397565b8051610e5f81614397565b600082601f8301126129aa578081fd5b815160206129ba61295d836141ac565b80838252828201915082860187848660051b89010111156129d9578586fd5b855b85811015612a005781516129ee81614397565b845292840192908401906001016129db565b5090979650505050505050565b600082601f830112612a1d578081fd5b81516020612a2d61295d836141ac565b80838252828201915082860187848660051b8901011115612a4c578586fd5b855b85811015612a0057612a5f82612c55565b84529284019290840190600101612a4e565b60008083601f840112612a82578182fd5b5081356001600160401b03811115612a98578182fd5b6020830191508360208260051b8501011115612ab357600080fd5b9250929050565b600082601f830112612aca578081fd5b81516020612ada61295d836141ac565b80838252828201915082860187848660051b8901011115612af9578586fd5b855b85811015612a0057815184529284019290840190600101612afb565b600082601f830112612b27578081fd5b81356020612b3761295d836141ac565b80838252828201915082860187848660051b8901011115612b56578586fd5b855b85811015612a00578135612b6b81614397565b84529284019290840190600101612b58565b600082601f830112612b8d578081fd5b81356020612b9d61295d836141ac565b8281528181019085830160c080860288018501891015612bbb578687fd5b865b86811015612be157612bcf8a84612d3b565b85529385019391810191600101612bbd565b509198975050505050505050565b600082601f830112612bff578081fd5b81516020612c0f61295d836141ac565b80838252828201915082860187848660051b8901011115612c2e578586fd5b855b85811015612a00578151612c43816143dc565b84529284019290840190600101612c30565b80518015158114610e5f57600080fd5b60008083601f840112612c76578182fd5b5081356001600160401b03811115612c8c578182fd5b602083019150836020828501011115612ab357600080fd5b600082601f830112612cb4578081fd5b8135612cc261295d826141cf565b818152846020838601011115612cd6578283fd5b816020850160208301379081016020019190915292915050565b600082601f830112612d00578081fd5b6110e28383516020850161294f565b8035610e5f816143c2565b8051610e5f816143c2565b8035610e5f816143cf565b8051610e5f816143cf565b600060c08284031215612d4c578081fd5b612d54614132565b9050813581526020820135612d68816143ee565b60208201526040820135612d7b816143ee565b60408201526060820135612d8e816143dc565b60608201526080820135612da1816143dc565b608082015260a0820135612db4816143ee565b60a082015292915050565b600060c08284031215612dd0578081fd5b612dd8614132565b905081358152602082013560208201526040820135612df6816143dc565b60408201526060820135612e09816143dc565b60608201526080820135612e1c816143dc565b8060808301525060a082013560a082015292915050565b8035610e5f816143dc565b60008060008060008060008060a0898b031215612e59578384fd5b8835612e6481614397565b97506020890135612e7481614397565b965060408901356001600160401b0380821115612e8f578586fd5b612e9b8c838d01612a71565b909850965060608b0135915080821115612eb3578586fd5b612ebf8c838d01612a71565b909650945060808b0135915080821115612ed7578384fd5b50612ee48b828c01612c65565b999c989b5096995094979396929594505050565b600080600080600060808688031215612f0f578283fd5b8535612f1a81614397565b94506020860135612f2a81614397565b93506040860135925060608601356001600160401b03811115612f4b578182fd5b612f5788828901612c65565b969995985093965092949392505050565b60008060008060008060a08789031215612f80578384fd5b8635612f8b81614397565b95506020870135612f9b81614397565b9450604087013593506060870135925060808701356001600160401b03811115612fc3578283fd5b612fcf89828a01612c65565b979a9699509497509295939492505050565b600080600060608486031215612ff5578081fd5b83516001600160401b038082111561300b578283fd5b6130178783880161299a565b945060209150818601518181111561302d578384fd5b61303988828901612aba565b94505060408601518181111561304d578384fd5b8601601f8101881361305d578384fd5b805161306b61295d826141ac565b8082825285820191508584018b878560051b870101111561308a578788fd5b875b848110156130c3578151878111156130a257898afd5b6130b08e8a838a0101612cf0565b855250928701929087019060010161308c565b50508096505050505050509250925092565b6000806000806000806000806000806000806101408d8f0312156130f7578586fd5b6001600160401b038d35111561310b578586fd5b6131188e8e358f01612a71565b909c509a5061312960208e01612e33565b995060408d0135985061313e60608e01612d0f565b975061314c60808e01612d25565b965061315a60a08e01612984565b955060c08d0135945061316f60e08e01612984565b93506101008d013592506001600160401b036101208e01351115613191578081fd5b6131a28e6101208f01358f01612c65565b81935080925050509295989b509295989b509295989b565b600080600080600060a086880312156131d1578283fd5b85516001600160401b03808211156131e7578485fd5b6131f389838a01612aba565b96506020880151915080821115613208578485fd5b61321489838a01612aba565b95506040880151915080821115613229578485fd5b61323589838a01612aba565b9450606088015191508082111561324a578283fd5b61325689838a01612bef565b9350608088015191508082111561326b578283fd5b5061327888828901612a0d565b9150509295509295909350565b6000806000806080858703121561329a578182fd5b84516001600160401b03808211156132b0578384fd5b6132bc88838901612aba565b955060208701519150808211156132d1578384fd5b6132dd88838901612aba565b945060408701519150808211156132f2578384fd5b6132fe88838901612bef565b93506060870151915080821115613313578283fd5b5061332087828801612bef565b91505092959194509250565b600080600060608486031215613340578081fd5b83516001600160401b0380821115613356578283fd5b818601915086601f830112613369578283fd5b8151602061337961295d836141ac565b8083825282820191508286018b848660051b8901011115613398578788fd5b8796505b848710156133c35780516133af816143cf565b83526001969096019591830191830161339c565b50918901519197509093505050808211156133dc578283fd5b6133e88783880161299a565b935060408601519150808211156133fd578283fd5b5061340a86828701612aba565b9150509250925092565b60006020808385031215613426578182fd5b82516001600160401b038082111561343c578384fd5b818501915085601f83011261344f578384fd5b815161345d61295d826141ac565b80828252858201915085850189878560051b880101111561347c578788fd5b875b848110156135445781518681111561349457898afd5b870160e0818d03601f19018113156134aa578a8bfd5b6134b261415a565b6134bd8b8401612d1a565b815260406134cc818501612d30565b8c83015260606134dd81860161298f565b828401526080915081850151818401525060a06134fb81860161298f565b8284015260c091508185015181840152508284015192508983111561351e578c8dfd5b61352c8f8d85870101612cf0565b9082015286525050928701929087019060010161347e565b50909998505050505050505050565b600060208284031215613564578081fd5b6110e282612c55565b60006020828403121561357e578081fd5b5035919050565b600080600060608486031215613599578081fd5b505081359360208301359350604090920135919050565b600080604083850312156135c2578182fd5b8235915060208301356001600160401b038111156135de578182fd5b6135ea85828601612ca4565b9150509250929050565b600080600060608486031215613608578081fd5b83519250602084015161361a816143dc565b604085015190925061362b816143dc565b809150509250925092565b600060208284031215613647578081fd5b81356110e2816143ac565b600060208284031215613663578081fd5b81516110e2816143ac565b600080600060608486031215613682578081fd5b833561368d816143cf565b9250602084013561369d81614397565b929592945050506040919091013590565b600080604083850312156136c0578182fd5b82356001600160401b03808211156136d6578384fd5b90840190606082870312156136e9578384fd5b909250602084013590808211156136fe578283fd5b50830160e08186031215613710578182fd5b809150509250929050565b60006020828403121561372c578081fd5b81356001600160401b0380821115613742578283fd5b908301906102208286031215613756578283fd5b61375e61415a565b6137688684612d3b565b81526137778660c08501612dbf565b60208201526137896101808401612984565b60408201526101a083013560608201526101c0830135828111156137ab578485fd5b6137b787828601612b17565b6080830152506101e0830135828111156137cf578485fd5b6137db87828601612b7d565b60a083015250610200830135828111156137f3578485fd5b6137ff87828601612b7d565b60c08301525095945050505050565b60006020828403121561381f578081fd5b5051919050565b60008060006060848603121561383a578081fd5b8351925061384a60208501612c55565b915060408401516001600160401b03811115613864578182fd5b8401601f81018613613874578182fd5b61340a8682516020840161294f565b60008060408385031215613895578182fd5b82356138a0816143dc565b91506020830135613710816143dc565b6000602082840312156138c1578081fd5b81516110e2816143ee565b6000815180845260208085019450808401835b838110156138fd5781511515875295820195908201906001016138df565b509495945050505050565b81835260006001600160fb1b03831115613920578081fd5b8260051b80836020870137939093016020019283525090919050565b6000815180845260208085019450808401835b838110156138fd5781518752958201959082019060010161394f565b6000815180845260208085019450808401835b838110156138fd57815163ffffffff168752958201959082019060010161397e565b81835281816020850137506000828201602090810191909152601f909101601f19169091010190565b600081518084526139e1816020860160208601614305565b601f01601f19169290920160200192915050565b601a8110613a0557613a0561436b565b9052565b60048110613a0557613a0561436b565b60008135613a26816143c2565b613a3084826139f5565b506020820135613a3f816143cf565b613a4c6020850182613a09565b506040820135613a5b81614397565b6001600160a01b03908116604085015260608381013590850152608083013590613a8482614397565b16608084015260a0828101359084015260c082013536839003601e19018112613aab578182fd5b820180356001600160401b03811115613ac2578283fd5b803603841315613ad0578283fd5b60e060c086015261104a60e0860182602085016139a0565b60008251613afa818460208701614305565b9190910192915050565b6001600160a01b0383168152604060208201819052600090613b28908301846139c9565b949350505050565b6001600160a01b03878116825286166020820152604081018590526060810184905260a060808201819052600090613b6b90830184866139a0565b98975050505050505050565b60018060a01b0385168152836020820152608060408201526000613b9e60808301856139c9565b8281036060840152613bb081856139c9565b979650505050505050565b60018060a01b0384168152826020820152608060408201526000613be260808301846139c9565b82810360609093019290925281526020019392505050565b60a081526000613c0d60a083018861393c565b8281036020840152613c1f818861393c565b90508281036040840152613c33818761393c565b90508281036060840152613c47818661396b565b90508281036080840152613b6b81856138cc565b608081526000613c6e608083018761393c565b8281036020840152613c80818761393c565b90508281036040840152613c94818661396b565b90508281036060840152613bb081856138cc565b608081526000613cbb608083018761393c565b8281036020840152613ccd818761393c565b90508281036040840152613ce1818661396b565b90508281036060840152613bb0818561396b565b6020808252825182820181905260009190848201906040850190845b81811015613d365783516001600160a01b031683529284019291840191600101613d11565b50909695505050505050565b606080825284519082018190526000906020906080840190828801845b82811015613d8257613d72848351613a09565b9284019290840190600101613d5f565b50505083810382850152855180825286830191830190845b81811015613dbf5783516001600160a01b031683529284019291840191600101613d9a565b50508481036040860152613b6b818761393c565b602080825282518282018190526000919060409081850190868401855b82811015613e54578151805185528681015160ff908116888701528682015181168787015260608083015163ffffffff908116918801919091526080808401519091169087015260a091820151169085015260c09093019290850190600101613df0565b5091979650505050505050565b85815284602082015283604082015260a060608201526000613e8660a08301856139c9565b905060018060a01b03831660808301529695505050505050565b60608101613eae8286613a09565b6001600160a01b0393909316602082015260400152919050565b613ed2818a613a09565b602081018890526001600160a01b03878116604083015286811660608301528516608082015260a0810184905260e060c08201819052600090613f1890830184866139a0565b9a9950505050505050505050565b6020815260006110e260208301846139c9565b87815260208101879052604081018690526001600160a01b03851660608201526080810184905260e060a08201526000833536859003601e19018112613f7d578182fd5b840180356001600160401b03811115613f94578283fd5b8060051b3603861315613fa5578283fd5b606060e0850152613fbe61014085018260208501613908565b915050613fcd60208601612e33565b63ffffffff16610100840152604085013561012084015282810360c0840152613f188185613a19565b60a0815261400860a0820187516139f5565b6000602087015161401c60c0840182613a09565b50604087015160018060a01b0380821660e085015260608901516101008501528060808a015116610120850152505060a087015161014083015260c087015160e06101608401526140716101808401826139c9565b9150508560208301528460408301528360608301528260808301529695505050505050565b83815282602082015260606040820152600061104a60608301846139c9565b848152608081016140c96020830186613a09565b6001600160a01b039390931660408201526060015292915050565b8881526140f46020820189613a09565b6001600160a01b038781166040830152606082018790528516608082015260a0810184905260e060c08201819052600090613f1890830184866139a0565b60405160c081016001600160401b038111828210171561415457614154614381565b60405290565b60405160e081016001600160401b038111828210171561415457614154614381565b604051601f8201601f191681016001600160401b03811182821017156141a4576141a4614381565b604052919050565b60006001600160401b038211156141c5576141c5614381565b5060051b60200190565b60006001600160401b038211156141e8576141e8614381565b50601f01601f191660200190565b6000821982111561420957614209614355565b500190565b60008261422957634e487b7160e01b81526012600452602481fd5b500490565b60008282101561424057614240614355565b500390565b600063ffffffff8381169083168181101561426257614262614355565b039392505050565b600060e0823603121561427b578081fd5b61428361415a565b61428c83612d0f565b815261429a60208401612d25565b60208201526142ab60408401612984565b6040820152606083013560608201526142c660808401612984565b608082015260a083013560a082015260c08301356001600160401b038111156142ed578283fd5b6142f936828601612ca4565b60c08301525092915050565b60005b83811015614320578181015183820152602001614308565b838111156128cf5750506000910152565b600063ffffffff8083168181141561434b5761434b614355565b6001019392505050565b634e487b7160e01b600052601160045260246000fd5b634e487b7160e01b600052602160045260246000fd5b634e487b7160e01b600052604160045260246000fd5b6001600160a01b03811681146122aa57600080fd5b6001600160e01b0319811681146122aa57600080fd5b601a81106122aa57600080fd5b600481106122aa57600080fd5b63ffffffff811681146122aa57600080fd5b60ff811681146122aa57600080fdfea2646970667358221220830aaa26655d1f72d2605d82bb495a8a663aeb9132b3643063c9ed270f5253c964736f6c63430008040033",
  "immutableReferences": {},
  "source": "// SPDX-License-Identifier: Apache-2.0\npragma solidity ^0.8.4;\n\nimport \"./SpendingManager.sol\";\nimport \"./CommitManager.sol\";\nimport \"./TokenManager.sol\";\nimport \"./DomainManager.sol\";\nimport \"./SignatureManager.sol\";\nimport \"./Reveal.sol\";\nimport \"./WalletGraph.sol\";\nimport \"./Enums.sol\";\nimport \"./IONEWallet.sol\";\nimport \"./AbstractONEWallet.sol\";\nimport \"./CoreManager.sol\";\nimport \"./Executor.sol\";\nimport \"./Recovery.sol\";\nimport \"./Version.sol\";\n\ncontract ONEWallet is TokenManager, AbstractONEWallet {\n    using TokenTracker for TokenTracker.TokenTrackerState;\n    using WalletGraph for IONEWallet[];\n    using SignatureManager for SignatureManager.SignatureTracker;\n    using SpendingManager for SpendingManager.SpendingState;\n    using CommitManager for CommitManager.CommitState;\n    using Reveal for CoreSetting;\n\n    CoreSetting core;\n    CoreSetting[] oldCores;\n    CoreSetting[] innerCores;\n\n    /// global mutable variables\n    address payable recoveryAddress; // where money will be sent during a recovery process (or when the wallet is beyond its lifespan)\n    bytes32 public override identificationHash;\n\n    SpendingManager.SpendingState spendingState;\n\n    uint256 public override lastOperationTime; // in seconds; record the time for the last successful reveal\n    address payable forwardAddress; // a non-empty forward address assumes full control of this contract. A forward address can only be set upon a successful recovery or upgrade operation.\n    IONEWallet[] backlinkAddresses; // to be set in next version - these are addresses forwarding funds and tokens to this contract AND must have their forwardAddress updated if this contract's forwardAddress is set or updated. One example of such an address is a previous version of the wallet \"upgrading\" to a new version. See more at https://github.com/polymorpher/one-wallet/issues/78\n\n    /// commit management\n    CommitManager.CommitState commitState;\n    SignatureManager.SignatureTracker signatures;\n\n    bool initialized = false;\n\n    function initialize(InitParams memory initParams) override external\n    {\n        require(!initialized);\n        for (uint32 i = 0; i < initParams.oldCores.length; i++) {\n            oldCores.push(initParams.oldCores[i]);\n        }\n        for (uint32 i = 0; i < initParams.innerCores.length; i++) {\n            innerCores.push(initParams.innerCores[i]);\n        }\n        core = initParams.core;\n        spendingState = initParams.spendingState;\n        recoveryAddress = initParams.recoveryAddress;\n        backlinkAddresses = initParams.backlinkAddresses;\n        identificationHash = initParams.identificationHash;\n        initialized = true;\n    }\n\n    function _getForwardAddress() internal override view returns (address payable){\n        return forwardAddress;\n    }\n\n    function getForwardAddress() external override view returns (address payable){\n        return forwardAddress;\n    }\n\n    function _forwardPayment() internal {\n        (bool success,) = forwardAddress.call{value : msg.value}(\"\");\n        require(success);\n        emit PaymentForwarded(msg.value, msg.sender);\n    }\n\n    receive() external payable {\n        require(initialized);\n        if (forwardAddress != address(0)) {// this wallet already has a forward address set - standard recovery process should not apply\n            if (forwardAddress == recoveryAddress) {// in this case, funds should be forwarded to forwardAddress no matter what\n                _forwardPayment();\n                return;\n            }\n            if (msg.sender == recoveryAddress) {// this case requires special handling\n                if (msg.value == Recovery.AUTO_RECOVERY_TRIGGER_AMOUNT) {// in this case, send funds to recovery address and reclaim forwardAddress to recovery address\n                    _forward(recoveryAddress);\n                    _recover();\n                    return;\n                }\n                // any other amount is deemed to authorize withdrawal of all funds to forwardAddress\n                _overrideRecoveryAddress();\n                _recover();\n                return;\n            }\n            // if sender is anyone else (including self), simply forward the payment\n            _forwardPayment();\n            return;\n        }\n        if (msg.value != Recovery.AUTO_RECOVERY_TRIGGER_AMOUNT) {\n            return;\n        }\n        if (msg.sender != recoveryAddress) {\n            return;\n        }\n        if (msg.sender == address(this)) {\n            return;\n        }\n        if (block.timestamp < lastOperationTime + Recovery.AUTO_RECOVERY_MANDATORY_WAIT_TIME) {\n            emit AutoRecoveryTriggeredPrematurely(msg.sender, lastOperationTime + Recovery.AUTO_RECOVERY_MANDATORY_WAIT_TIME);\n            return;\n        }\n        emit AutoRecoveryTriggered(msg.sender);\n        require(_drain());\n    }\n\n    function retire() external override returns (bool)\n    {\n        require(uint32(block.timestamp / core.interval) - core.t0 > core.lifespan);\n        require(Recovery.isRecoveryAddressSet(recoveryAddress));\n        require(_drain());\n        emit Retired();\n        return true;\n    }\n\n    function getInfo() external override view returns (bytes32, uint8, uint8, uint32, uint32, uint8, address, uint256){\n        return (core.root, core.height, core.interval, core.t0, core.lifespan, core.maxOperationsPerInterval, recoveryAddress, 0);\n    }\n\n    function getOldInfos() external override view returns (CoreSetting[] memory){\n        return oldCores;\n    }\n\n    function getRootKey() external override view returns (bytes32){\n        if (oldCores.length > 0) {\n            return oldCores[0].root;\n        }\n        return core.root;\n    }\n\n    function getVersion() external override pure returns (uint32, uint32){\n        return (Version.majorVersion, Version.minorVersion);\n    }\n\n    function getSpendingState() external override view returns (SpendingManager.SpendingState memory){\n        return spendingState;\n    }\n\n    function getNonce() external override view returns (uint8){\n        return commitState.getNonce(core.interval);\n    }\n\n    function getTrackedTokens() external override view returns (Enums.TokenType[] memory, address[] memory, uint256[] memory){\n        return tokenTrackerState.getTrackedTokens();\n    }\n\n    function getBalance(Enums.TokenType tokenType, address contractAddress, uint256 tokenId) external override view returns (uint256){\n        (uint256 balance, bool success, string memory reason) = TokenTracker.getBalance(tokenType, contractAddress, tokenId);\n        require(success, reason);\n        return balance;\n    }\n\n    function getAllCommits() external override view returns (bytes32[] memory, bytes32[] memory, bytes32[] memory, uint32[] memory, bool[] memory){\n        return commitState.getAllCommits();\n    }\n\n\n    function lookupCommit(bytes32 hash) external override view returns (bytes32[] memory, bytes32[] memory, bytes32[] memory, uint32[] memory, bool[] memory){\n        return commitState.lookupCommit(hash);\n    }\n\n    function commit(bytes32 hash, bytes32 paramsHash, bytes32 verificationHash) external override {\n        require(initialized);\n        commitState.commit(hash, paramsHash, verificationHash);\n    }\n\n    /// require approval using recovery cores, unless recovery address is set\n    function _forward(address payable dest) internal {\n        if (address(forwardAddress) == address(this) || dest == address(0)) {\n            emit ForwardAddressInvalid(dest);\n            return;\n        }\n        // TODO: in the next version, add a flag in the parameter indicating whether the operation is from the forwardAddress. If the flag is set, skip the check below\n        //        if (forwardAddress != address(0)) {\n        //            if (!_isRecoveryAddressSet() || dest != recoveryAddress) {\n        //                emit ForwardAddressAlreadySet(dest);\n        //                return;\n        //            }\n        //        }\n        forwardAddress = dest;\n        emit ForwardAddressUpdated(dest);\n        if (!Recovery.isRecoveryAddressSet(recoveryAddress)) {\n            // Under this condition, the authentication would be done through recovery cores. Therefore, we can transfer all assets without violating the principal that no operation should spend more than what is specified in spend limit\n            _setRecoveryAddress(forwardAddress);\n            bool drainSuccess = _drain();\n            emit ForwardedBalance(drainSuccess);\n        } else {\n            // Under this condition, the authentication is done through regular cores (oldCores + core). Only assets within spend limit should be transferred. Transfer of the rest should be approved by recovery address (sending 0.1 ONE)\n            uint256 budget = spendingState.getRemainingAllowance();\n            _transfer(forwardAddress, budget);\n            tokenTrackerState.recoverAllTokens(dest);\n        }\n        backlinkAddresses.batchUpdateForwardAddress(dest);\n    }\n\n    /// This function sends all remaining funds and tokens in the wallet to `recoveryAddress`. The caller should verify that `recoveryAddress` is not null.\n    function _drain() internal returns (bool) {\n        // this may be triggered after revealing the proof, and we must prevent revert in all cases\n        (bool success,) = recoveryAddress.call{value : address(this).balance}(\"\");\n        if (success) {\n            forwardAddress = recoveryAddress;\n            tokenTrackerState.recoverAllTokens(recoveryAddress);\n        }\n        return success;\n    }\n\n    function _transfer(address payable dest, uint256 amount) internal returns (bool) {\n        bool canSpend = spendingState.canSpend(dest, amount);\n        if (!canSpend) {\n            return false;\n        }\n        spendingState.accountSpending(amount);\n        (bool success, bytes memory ret) = dest.call{value : amount}(\"\");\n        // we do not want to revert the whole transaction if this operation fails, since EOTP is already revealed\n        if (!success) {\n            spendingState.spentAmount -= amount;\n            emit TransferError(dest, ret);\n            return false;\n        }\n        emit PaymentSent(amount, dest);\n        return true;\n    }\n\n    /// To initiate recovery, client should submit leaf_{-1} as eotp, where leaf_{-1} is the last leaf in OTP Merkle Tree. Note that leaf_0 = hasher(hseed . nonce . OTP . randomness) where hasher is either sha256 or argon2, depending on client's security parameters. The definition of leaf_{-1} ensures attackers cannot use widespread miners to brute-force for seed or hseed, even if keccak256(leaf_{i}) for any i is known. It has been considered that leaf_0 should be used instead of leaf_{-1}, because leaf_0 is extremely unlikely to be used for any wallet operation. It is only used if the user performs any operation within the first 60 seconds of seed generation (when QR code is displayed). Regardless of which leaf is used to trigger recovery, this mechanism ensures hseed remains secret at the client. Even when the leaf becomes public (on blockchain), it is no longer useful because the wallet would already be deprecated (all assets transferred out). It can be used to repeatedly trigger recovery on this deprecated wallet, but that would cause no harm.\n    function _recover() internal returns (bool){\n        if (!Recovery.isRecoveryAddressSet(recoveryAddress)) {\n            emit LastResortAddressNotSet();\n            return false;\n        }\n        if (recoveryAddress == address(this)) {// this should not happen unless recoveryAddress is set at contract creation time, and is deliberately set to contract's own address\n            // nothing needs to be done;\n            return true;\n        }\n        if (!_drain()) {\n            emit RecoveryFailure();\n            return false;\n        }\n        emit RecoveryTriggered();\n        return true;\n    }\n\n    function _overrideRecoveryAddress() internal {\n        recoveryAddress = forwardAddress;\n        emit RecoveryAddressUpdated(recoveryAddress);\n    }\n\n    function _setRecoveryAddress(address payable recoveryAddress_) internal {\n        if (Recovery.isRecoveryAddressSet(recoveryAddress) || recoveryAddress_ == address(this)) {\n            emit RecoveryAddressUpdated(address(0));\n            return;\n        }\n        recoveryAddress = recoveryAddress_;\n        emit RecoveryAddressUpdated(recoveryAddress);\n    }\n\n    function _batch(bytes memory data) internal {\n        OperationParams[] memory batchParams = abi.decode(data, (OperationParams[]));\n        uint8 len = uint8(batchParams.length);\n        for (uint32 i = 0; i < len; i++) {\n            _execute(batchParams[i]);\n        }\n    }\n\n    function reveal(AuthParams calldata auth, OperationParams calldata op) external override {\n        require(initialized);\n        if (msg.sender != forwardAddress) {\n            core.authenticate(oldCores, innerCores, recoveryAddress, commitState, auth, op);\n            lastOperationTime = block.timestamp;\n        }\n        _execute(op);\n    }\n\n    function _execute(OperationParams memory op) internal {\n        // No revert should occur below this point\n        if (op.operationType == Enums.OperationType.TRANSFER) {\n            _transfer(op.dest, op.amount);\n        } else if (op.operationType == Enums.OperationType.RECOVER) {\n            _recover();\n        } else if (op.operationType == Enums.OperationType.SET_RECOVERY_ADDRESS) {\n            _setRecoveryAddress(op.dest);\n        } else if (op.operationType == Enums.OperationType.FORWARD) {\n            _forward(op.dest);\n        } else if (op.operationType == Enums.OperationType.CALL) {\n            if (op.tokenId == 0) {\n                _callContract(op.contractAddress, op.amount, op.data);\n            } else {\n                _multiCall(op.data);\n            }\n        } else if (op.operationType == Enums.OperationType.DISPLACE) {\n            CoreManager.displace(oldCores, innerCores, core, op.data, forwardAddress);\n        } else if (op.operationType == Enums.OperationType.BATCH) {\n            _batch(op.data);\n        } else {\n            Executor.execute(op, tokenTrackerState, backlinkAddresses, signatures, spendingState);\n        }\n    }\n\n    function getBacklinks() external override view returns (IONEWallet[] memory){\n        return backlinkAddresses;\n    }\n\n    function _callContract(address contractAddress, uint256 amount, bytes memory encodedWithSignature) internal {\n        bool canSpend = spendingState.canSpend(contractAddress, amount);\n        if (!canSpend) {\n            emit ExternalCallFailed(contractAddress, amount, encodedWithSignature, \"\");\n            return;\n        }\n        spendingState.accountSpending(amount);\n        (bool success, bytes memory ret) = contractAddress.call{value : amount}(encodedWithSignature);\n        if (success) {\n            emit ExternalCallCompleted(contractAddress, amount, encodedWithSignature, ret);\n        } else {\n            spendingState.spentAmount -= amount;\n            emit ExternalCallFailed(contractAddress, amount, encodedWithSignature, ret);\n        }\n    }\n\n    function _multiCall(bytes memory data) internal {\n        (address[] memory dest, uint256[] memory amounts, bytes[] memory encoded) = abi.decode(data, (address[], uint256[], bytes[]));\n        uint256 totalAmount = 0;\n        for (uint32 i = 0; i < amounts.length; i++) {\n            totalAmount += amounts[i];\n        }\n        if (!spendingState.canSpend(address(0), totalAmount)) {\n            return;\n        }\n        for (uint32 i = 0; i < dest.length; i++) {\n            _callContract(dest[i], amounts[i], encoded[i]);\n        }\n    }\n\n    function supportsInterface(bytes4 interfaceId) public override pure returns (bool) {\n        return interfaceId == this.isValidSignature.selector || TokenManager.supportsInterface(interfaceId);\n    }\n\n    function isValidSignature(bytes32 hash, bytes memory signatureBytes) override public view returns (bytes4){\n        return signatures.isValidSignature(hash, signatureBytes);\n    }\n\n    function listSignatures(uint32 start, uint32 end) external override view returns (bytes32[] memory, bytes32[] memory, uint32[] memory, uint32[] memory){\n        return signatures.list(start, end);\n    }\n\n    function lookupSignature(bytes32 hash) external override view returns (bytes32, uint32, uint32){\n        return signatures.lookup(hash);\n    }\n\n}\n",
  "sourcePath": "/Users/polymorpher/git/one-wallet/code/contracts/ONEWallet.sol",
  "compiler": {
    "name": "solc",
    "version": "0.8.4+commit.c7e474f2.Emscripten.clang"
  },
  "schemaVersion": "3.4.2",
  "updatedAt": "2021-11-14T14:05:23.300Z",
  "devdoc": {
    "kind": "dev",
    "methods": {
      "onERC1155BatchReceived(address,address,uint256[],uint256[],bytes)": {
        "details": "Handles the receipt of a multiple ERC1155 token types. This function is called at the end of a `safeBatchTransferFrom` after the balances have been updated. To accept the transfer(s), this must return `bytes4(keccak256(\"onERC1155BatchReceived(address,address,uint256[],uint256[],bytes)\"))` (i.e. 0xbc197c81, or its own function selector).",
        "params": {
          "data": "Additional data with no specified format",
          "from": "The address which previously owned the token",
          "ids": "An array containing ids of each token being transferred (order and length must match values array)",
          "operator": "The address which initiated the batch transfer (i.e. msg.sender)",
          "values": "An array containing amounts of each token being transferred (order and length must match ids array)"
        },
        "returns": {
          "_0": "`bytes4(keccak256(\"onERC1155BatchReceived(address,address,uint256[],uint256[],bytes)\"))` if transfer is allowed"
        }
      },
      "onERC1155Received(address,address,uint256,uint256,bytes)": {
        "details": "Handles the receipt of a single ERC1155 token type. This function is called at the end of a `safeTransferFrom` after the balance has been updated. To accept the transfer, this must return `bytes4(keccak256(\"onERC1155Received(address,address,uint256,uint256,bytes)\"))` (i.e. 0xf23a6e61, or its own function selector).",
        "params": {
          "data": "Additional data with no specified format",
          "from": "The address which previously owned the token",
          "id": "The ID of the token being transferred",
          "operator": "The address which initiated the transfer (i.e. msg.sender)",
          "value": "The amount of tokens being transferred"
        },
        "returns": {
          "_0": "`bytes4(keccak256(\"onERC1155Received(address,address,uint256,uint256,bytes)\"))` if transfer is allowed"
        }
      },
      "onERC721Received(address,address,uint256,bytes)": {
        "details": "Whenever an {IERC721} `tokenId` token is transferred to this contract via {IERC721-safeTransferFrom} by `operator` from `from`, this function is called. It must return its Solidity selector to confirm the token transfer. If any other value is returned or the interface is not implemented by the recipient, the transfer will be reverted. The selector can be obtained in Solidity with `IERC721.onERC721Received.selector`."
      }
    },
    "version": 1
  },
  "userdoc": {
    "kind": "user",
    "methods": {
      "findCommit(bytes32)": {
        "notice": "DEPRECATED"
      },
      "getCommits()": {
        "notice": "DEPRECATED"
      }
    },
    "version": 1
  }
}