{
  "contractName": "ONEWallet",
  "abi": [
    {
      "anonymous": false,
      "inputs": [
        {
          "indexed": false,
          "internalType": "address",
          "name": "from",
          "type": "address"
        }
      ],
      "name": "AutoRecoveryTriggered",
      "type": "event"
    },
    {
      "anonymous": false,
      "inputs": [
        {
          "indexed": false,
          "internalType": "address",
          "name": "from",
          "type": "address"
        },
        {
          "indexed": false,
          "internalType": "uint256",
          "name": "requiredTime",
          "type": "uint256"
        }
      ],
      "name": "AutoRecoveryTriggeredPrematurely",
      "type": "event"
    },
    {
      "anonymous": false,
      "inputs": [
        {
          "indexed": false,
          "internalType": "address",
          "name": "contractAddress",
          "type": "address"
        },
        {
          "indexed": false,
          "internalType": "uint256",
          "name": "amount",
          "type": "uint256"
        },
        {
          "indexed": false,
          "internalType": "bytes",
          "name": "data",
          "type": "bytes"
        },
        {
          "indexed": false,
          "internalType": "bytes",
          "name": "ret",
          "type": "bytes"
        }
      ],
      "name": "ExternalCallCompleted",
      "type": "event"
    },
    {
      "anonymous": false,
      "inputs": [
        {
          "indexed": false,
          "internalType": "address",
          "name": "contractAddress",
          "type": "address"
        },
        {
          "indexed": false,
          "internalType": "uint256",
          "name": "amount",
          "type": "uint256"
        },
        {
          "indexed": false,
          "internalType": "bytes",
          "name": "data",
          "type": "bytes"
        },
        {
          "indexed": false,
          "internalType": "bytes",
          "name": "ret",
          "type": "bytes"
        }
      ],
      "name": "ExternalCallFailed",
      "type": "event"
    },
    {
      "anonymous": false,
      "inputs": [
        {
          "indexed": false,
          "internalType": "address",
          "name": "dest",
          "type": "address"
        }
      ],
      "name": "ForwardAddressAlreadySet",
      "type": "event"
    },
    {
      "anonymous": false,
      "inputs": [
        {
          "indexed": false,
          "internalType": "address",
          "name": "dest",
          "type": "address"
        }
      ],
      "name": "ForwardAddressInvalid",
      "type": "event"
    },
    {
      "anonymous": false,
      "inputs": [
        {
          "indexed": false,
          "internalType": "address",
          "name": "dest",
          "type": "address"
        }
      ],
      "name": "ForwardAddressUpdated",
      "type": "event"
    },
    {
      "anonymous": false,
      "inputs": [
        {
          "indexed": false,
          "internalType": "bool",
          "name": "success",
          "type": "bool"
        }
      ],
      "name": "ForwardedBalance",
      "type": "event"
    },
    {
      "anonymous": false,
      "inputs": [
        {
          "indexed": false,
          "internalType": "enum Enums.TokenType",
          "name": "tokenType",
          "type": "uint8"
        },
        {
          "indexed": false,
          "internalType": "uint256",
          "name": "amount",
          "type": "uint256"
        },
        {
          "indexed": false,
          "internalType": "address",
          "name": "from",
          "type": "address"
        },
        {
          "indexed": false,
          "internalType": "address",
          "name": "tokenContract",
          "type": "address"
        },
        {
          "indexed": false,
          "internalType": "address",
          "name": "operator",
          "type": "address"
        },
        {
          "indexed": false,
          "internalType": "uint256",
          "name": "tokenId",
          "type": "uint256"
        },
        {
          "indexed": false,
          "internalType": "bytes",
          "name": "data",
          "type": "bytes"
        }
      ],
      "name": "ForwardedToken",
      "type": "event"
    },
    {
      "anonymous": false,
      "inputs": [],
      "name": "LastResortAddressNotSet",
      "type": "event"
    },
    {
      "anonymous": false,
      "inputs": [
        {
          "indexed": false,
          "internalType": "uint256",
          "name": "amount",
          "type": "uint256"
        },
        {
          "indexed": false,
          "internalType": "address",
          "name": "dest",
          "type": "address"
        }
      ],
      "name": "PaymentForwarded",
      "type": "event"
    },
    {
      "anonymous": false,
      "inputs": [
        {
          "indexed": false,
          "internalType": "uint256",
          "name": "amount",
          "type": "uint256"
        },
        {
          "indexed": false,
          "internalType": "address",
          "name": "from",
          "type": "address"
        }
      ],
      "name": "PaymentReceived",
      "type": "event"
    },
    {
      "anonymous": false,
      "inputs": [
        {
          "indexed": false,
          "internalType": "uint256",
          "name": "amount",
          "type": "uint256"
        },
        {
          "indexed": false,
          "internalType": "address",
          "name": "dest",
          "type": "address"
        }
      ],
      "name": "PaymentSent",
      "type": "event"
    },
    {
      "anonymous": false,
      "inputs": [
        {
          "indexed": false,
          "internalType": "enum Enums.TokenType",
          "name": "tokenType",
          "type": "uint8"
        },
        {
          "indexed": false,
          "internalType": "uint256",
          "name": "amount",
          "type": "uint256"
        },
        {
          "indexed": false,
          "internalType": "address",
          "name": "from",
          "type": "address"
        },
        {
          "indexed": false,
          "internalType": "address",
          "name": "tokenContract",
          "type": "address"
        },
        {
          "indexed": false,
          "internalType": "address",
          "name": "operator",
          "type": "address"
        },
        {
          "indexed": false,
          "internalType": "uint256",
          "name": "tokenId",
          "type": "uint256"
        },
        {
          "indexed": false,
          "internalType": "bytes",
          "name": "data",
          "type": "bytes"
        }
      ],
      "name": "ReceivedToken",
      "type": "event"
    },
    {
      "anonymous": false,
      "inputs": [
        {
          "indexed": false,
          "internalType": "address",
          "name": "dest",
          "type": "address"
        }
      ],
      "name": "RecoveryAddressUpdated",
      "type": "event"
    },
    {
      "anonymous": false,
      "inputs": [],
      "name": "RecoveryFailure",
      "type": "event"
    },
    {
      "anonymous": false,
      "inputs": [],
      "name": "RecoveryTriggered",
      "type": "event"
    },
    {
      "anonymous": false,
      "inputs": [],
      "name": "Retired",
      "type": "event"
    },
    {
      "anonymous": false,
      "inputs": [
        {
          "indexed": false,
          "internalType": "address",
          "name": "dest",
          "type": "address"
        },
        {
          "indexed": false,
          "internalType": "bytes",
          "name": "error",
          "type": "bytes"
        }
      ],
      "name": "TransferError",
      "type": "event"
    },
    {
      "inputs": [
        {
          "internalType": "bytes32",
          "name": "",
          "type": "bytes32"
        }
      ],
      "name": "findCommit",
      "outputs": [
        {
          "internalType": "bytes32",
          "name": "",
          "type": "bytes32"
        },
        {
          "internalType": "bytes32",
          "name": "",
          "type": "bytes32"
        },
        {
          "internalType": "uint32",
          "name": "",
          "type": "uint32"
        },
        {
          "internalType": "bool",
          "name": "",
          "type": "bool"
        }
      ],
      "stateMutability": "pure",
      "type": "function"
    },
    {
      "inputs": [],
      "name": "getCommits",
      "outputs": [
        {
          "internalType": "bytes32[]",
          "name": "",
          "type": "bytes32[]"
        },
        {
          "internalType": "bytes32[]",
          "name": "",
          "type": "bytes32[]"
        },
        {
          "internalType": "uint32[]",
          "name": "",
          "type": "uint32[]"
        },
        {
          "internalType": "bool[]",
          "name": "",
          "type": "bool[]"
        }
      ],
      "stateMutability": "pure",
      "type": "function"
    },
    {
      "inputs": [],
      "name": "getCurrentSpending",
      "outputs": [
        {
          "internalType": "uint256",
          "name": "",
          "type": "uint256"
        },
        {
          "internalType": "uint256",
          "name": "",
          "type": "uint256"
        }
      ],
      "stateMutability": "pure",
      "type": "function"
    },
    {
      "inputs": [],
      "name": "identificationHash",
      "outputs": [
        {
          "internalType": "bytes32",
          "name": "",
          "type": "bytes32"
        }
      ],
      "stateMutability": "view",
      "type": "function"
    },
    {
      "inputs": [],
      "name": "lastOperationTime",
      "outputs": [
        {
          "internalType": "uint256",
          "name": "",
          "type": "uint256"
        }
      ],
      "stateMutability": "view",
      "type": "function"
    },
    {
      "inputs": [
        {
          "internalType": "address",
          "name": "operator",
          "type": "address"
        },
        {
          "internalType": "address",
          "name": "from",
          "type": "address"
        },
        {
          "internalType": "uint256[]",
          "name": "ids",
          "type": "uint256[]"
        },
        {
          "internalType": "uint256[]",
          "name": "values",
          "type": "uint256[]"
        },
        {
          "internalType": "bytes",
          "name": "data",
          "type": "bytes"
        }
      ],
      "name": "onERC1155BatchReceived",
      "outputs": [
        {
          "internalType": "bytes4",
          "name": "",
          "type": "bytes4"
        }
      ],
      "stateMutability": "nonpayable",
      "type": "function"
    },
    {
      "inputs": [
        {
          "internalType": "address",
          "name": "operator",
          "type": "address"
        },
        {
          "internalType": "address",
          "name": "from",
          "type": "address"
        },
        {
          "internalType": "uint256",
          "name": "id",
          "type": "uint256"
        },
        {
          "internalType": "uint256",
          "name": "value",
          "type": "uint256"
        },
        {
          "internalType": "bytes",
          "name": "data",
          "type": "bytes"
        }
      ],
      "name": "onERC1155Received",
      "outputs": [
        {
          "internalType": "bytes4",
          "name": "",
          "type": "bytes4"
        }
      ],
      "stateMutability": "nonpayable",
      "type": "function"
    },
    {
      "inputs": [
        {
          "internalType": "address",
          "name": "operator",
          "type": "address"
        },
        {
          "internalType": "address",
          "name": "from",
          "type": "address"
        },
        {
          "internalType": "uint256",
          "name": "tokenId",
          "type": "uint256"
        },
        {
          "internalType": "bytes",
          "name": "data",
          "type": "bytes"
        }
      ],
      "name": "onERC721Received",
      "outputs": [
        {
          "internalType": "bytes4",
          "name": "",
          "type": "bytes4"
        }
      ],
      "stateMutability": "nonpayable",
      "type": "function"
    },
    {
      "stateMutability": "payable",
      "type": "receive"
    },
    {
      "inputs": [
        {
          "components": [
            {
              "components": [
                {
                  "internalType": "bytes32",
                  "name": "root",
                  "type": "bytes32"
                },
                {
                  "internalType": "uint8",
                  "name": "height",
                  "type": "uint8"
                },
                {
                  "internalType": "uint8",
                  "name": "interval",
                  "type": "uint8"
                },
                {
                  "internalType": "uint32",
                  "name": "t0",
                  "type": "uint32"
                },
                {
                  "internalType": "uint32",
                  "name": "lifespan",
                  "type": "uint32"
                },
                {
                  "internalType": "uint8",
                  "name": "maxOperationsPerInterval",
                  "type": "uint8"
                }
              ],
              "internalType": "struct IONEWallet.CoreSetting",
              "name": "core",
              "type": "tuple"
            },
            {
              "components": [
                {
                  "internalType": "uint256",
                  "name": "spendingLimit",
                  "type": "uint256"
                },
                {
                  "internalType": "uint256",
                  "name": "spentAmount",
                  "type": "uint256"
                },
                {
                  "internalType": "uint32",
                  "name": "lastSpendingInterval",
                  "type": "uint32"
                },
                {
                  "internalType": "uint32",
                  "name": "spendingInterval",
                  "type": "uint32"
                }
              ],
              "internalType": "struct SpendingManager.SpendingState",
              "name": "spendingState",
              "type": "tuple"
            },
            {
              "internalType": "address payable",
              "name": "recoveryAddress",
              "type": "address"
            },
            {
              "internalType": "bytes32",
              "name": "identificationHash",
              "type": "bytes32"
            },
            {
              "internalType": "contract IONEWallet[]",
              "name": "backlinkAddresses",
              "type": "address[]"
            },
            {
              "components": [
                {
                  "internalType": "bytes32",
                  "name": "root",
                  "type": "bytes32"
                },
                {
                  "internalType": "uint8",
                  "name": "height",
                  "type": "uint8"
                },
                {
                  "internalType": "uint8",
                  "name": "interval",
                  "type": "uint8"
                },
                {
                  "internalType": "uint32",
                  "name": "t0",
                  "type": "uint32"
                },
                {
                  "internalType": "uint32",
                  "name": "lifespan",
                  "type": "uint32"
                },
                {
                  "internalType": "uint8",
                  "name": "maxOperationsPerInterval",
                  "type": "uint8"
                }
              ],
              "internalType": "struct IONEWallet.CoreSetting[]",
              "name": "oldCores",
              "type": "tuple[]"
            },
            {
              "components": [
                {
                  "internalType": "bytes32",
                  "name": "root",
                  "type": "bytes32"
                },
                {
                  "internalType": "uint8",
                  "name": "height",
                  "type": "uint8"
                },
                {
                  "internalType": "uint8",
                  "name": "interval",
                  "type": "uint8"
                },
                {
                  "internalType": "uint32",
                  "name": "t0",
                  "type": "uint32"
                },
                {
                  "internalType": "uint32",
                  "name": "lifespan",
                  "type": "uint32"
                },
                {
                  "internalType": "uint8",
                  "name": "maxOperationsPerInterval",
                  "type": "uint8"
                }
              ],
              "internalType": "struct IONEWallet.CoreSetting[]",
              "name": "recoveryCores",
              "type": "tuple[]"
            }
          ],
          "internalType": "struct IONEWallet.InitParams",
          "name": "initParams",
          "type": "tuple"
        }
      ],
      "name": "initialize",
      "outputs": [],
      "stateMutability": "nonpayable",
      "type": "function"
    },
    {
      "inputs": [],
      "name": "getForwardAddress",
      "outputs": [
        {
          "internalType": "address payable",
          "name": "",
          "type": "address"
        }
      ],
      "stateMutability": "view",
      "type": "function"
    },
    {
      "inputs": [],
      "name": "retire",
      "outputs": [
        {
          "internalType": "bool",
          "name": "",
          "type": "bool"
        }
      ],
      "stateMutability": "nonpayable",
      "type": "function"
    },
    {
      "inputs": [],
      "name": "getInfo",
      "outputs": [
        {
          "internalType": "bytes32",
          "name": "",
          "type": "bytes32"
        },
        {
          "internalType": "uint8",
          "name": "",
          "type": "uint8"
        },
        {
          "internalType": "uint8",
          "name": "",
          "type": "uint8"
        },
        {
          "internalType": "uint32",
          "name": "",
          "type": "uint32"
        },
        {
          "internalType": "uint32",
          "name": "",
          "type": "uint32"
        },
        {
          "internalType": "uint8",
          "name": "",
          "type": "uint8"
        },
        {
          "internalType": "address",
          "name": "",
          "type": "address"
        },
        {
          "internalType": "uint256",
          "name": "",
          "type": "uint256"
        }
      ],
      "stateMutability": "view",
      "type": "function"
    },
    {
      "inputs": [],
      "name": "getOldInfos",
      "outputs": [
        {
          "components": [
            {
              "internalType": "bytes32",
              "name": "root",
              "type": "bytes32"
            },
            {
              "internalType": "uint8",
              "name": "height",
              "type": "uint8"
            },
            {
              "internalType": "uint8",
              "name": "interval",
              "type": "uint8"
            },
            {
              "internalType": "uint32",
              "name": "t0",
              "type": "uint32"
            },
            {
              "internalType": "uint32",
              "name": "lifespan",
              "type": "uint32"
            },
            {
              "internalType": "uint8",
              "name": "maxOperationsPerInterval",
              "type": "uint8"
            }
          ],
          "internalType": "struct IONEWallet.CoreSetting[]",
          "name": "",
          "type": "tuple[]"
        }
      ],
      "stateMutability": "view",
      "type": "function"
    },
    {
      "inputs": [],
      "name": "getRootKey",
      "outputs": [
        {
          "internalType": "bytes32",
          "name": "",
          "type": "bytes32"
        }
      ],
      "stateMutability": "view",
      "type": "function"
    },
    {
      "inputs": [],
      "name": "getVersion",
      "outputs": [
        {
          "internalType": "uint32",
          "name": "",
          "type": "uint32"
        },
        {
          "internalType": "uint32",
          "name": "",
          "type": "uint32"
        }
      ],
      "stateMutability": "pure",
      "type": "function"
    },
    {
      "inputs": [],
      "name": "getCurrentSpendingState",
      "outputs": [
        {
          "internalType": "uint256",
          "name": "",
          "type": "uint256"
        },
        {
          "internalType": "uint256",
          "name": "",
          "type": "uint256"
        },
        {
          "internalType": "uint32",
          "name": "",
          "type": "uint32"
        },
        {
          "internalType": "uint32",
          "name": "",
          "type": "uint32"
        }
      ],
      "stateMutability": "view",
      "type": "function"
    },
    {
      "inputs": [],
      "name": "getNonce",
      "outputs": [
        {
          "internalType": "uint8",
          "name": "",
          "type": "uint8"
        }
      ],
      "stateMutability": "view",
      "type": "function"
    },
    {
      "inputs": [],
      "name": "getTrackedTokens",
      "outputs": [
        {
          "internalType": "enum Enums.TokenType[]",
          "name": "",
          "type": "uint8[]"
        },
        {
          "internalType": "address[]",
          "name": "",
          "type": "address[]"
        },
        {
          "internalType": "uint256[]",
          "name": "",
          "type": "uint256[]"
        }
      ],
      "stateMutability": "view",
      "type": "function"
    },
    {
      "inputs": [
        {
          "internalType": "enum Enums.TokenType",
          "name": "tokenType",
          "type": "uint8"
        },
        {
          "internalType": "address",
          "name": "contractAddress",
          "type": "address"
        },
        {
          "internalType": "uint256",
          "name": "tokenId",
          "type": "uint256"
        }
      ],
      "name": "getBalance",
      "outputs": [
        {
          "internalType": "uint256",
          "name": "",
          "type": "uint256"
        }
      ],
      "stateMutability": "view",
      "type": "function"
    },
    {
      "inputs": [],
      "name": "getAllCommits",
      "outputs": [
        {
          "internalType": "bytes32[]",
          "name": "",
          "type": "bytes32[]"
        },
        {
          "internalType": "bytes32[]",
          "name": "",
          "type": "bytes32[]"
        },
        {
          "internalType": "bytes32[]",
          "name": "",
          "type": "bytes32[]"
        },
        {
          "internalType": "uint32[]",
          "name": "",
          "type": "uint32[]"
        },
        {
          "internalType": "bool[]",
          "name": "",
          "type": "bool[]"
        }
      ],
      "stateMutability": "view",
      "type": "function"
    },
    {
      "inputs": [
        {
          "internalType": "bytes32",
          "name": "hash",
          "type": "bytes32"
        }
      ],
      "name": "lookupCommit",
      "outputs": [
        {
          "internalType": "bytes32[]",
          "name": "",
          "type": "bytes32[]"
        },
        {
          "internalType": "bytes32[]",
          "name": "",
          "type": "bytes32[]"
        },
        {
          "internalType": "bytes32[]",
          "name": "",
          "type": "bytes32[]"
        },
        {
          "internalType": "uint32[]",
          "name": "",
          "type": "uint32[]"
        },
        {
          "internalType": "bool[]",
          "name": "",
          "type": "bool[]"
        }
      ],
      "stateMutability": "view",
      "type": "function"
    },
    {
      "inputs": [
        {
          "internalType": "bytes32",
          "name": "hash",
          "type": "bytes32"
        },
        {
          "internalType": "bytes32",
          "name": "paramsHash",
          "type": "bytes32"
        },
        {
          "internalType": "bytes32",
          "name": "verificationHash",
          "type": "bytes32"
        }
      ],
      "name": "commit",
      "outputs": [],
      "stateMutability": "nonpayable",
      "type": "function"
    },
    {
      "inputs": [
        {
          "components": [
            {
              "internalType": "bytes32[]",
              "name": "neighbors",
              "type": "bytes32[]"
            },
            {
              "internalType": "uint32",
              "name": "indexWithNonce",
              "type": "uint32"
            },
            {
              "internalType": "bytes32",
              "name": "eotp",
              "type": "bytes32"
            }
          ],
          "internalType": "struct IONEWallet.AuthParams",
          "name": "auth",
          "type": "tuple"
        },
        {
          "components": [
            {
              "internalType": "enum Enums.OperationType",
              "name": "operationType",
              "type": "uint8"
            },
            {
              "internalType": "enum Enums.TokenType",
              "name": "tokenType",
              "type": "uint8"
            },
            {
              "internalType": "address",
              "name": "contractAddress",
              "type": "address"
            },
            {
              "internalType": "uint256",
              "name": "tokenId",
              "type": "uint256"
            },
            {
              "internalType": "address payable",
              "name": "dest",
              "type": "address"
            },
            {
              "internalType": "uint256",
              "name": "amount",
              "type": "uint256"
            },
            {
              "internalType": "bytes",
              "name": "data",
              "type": "bytes"
            }
          ],
          "internalType": "struct IONEWallet.OperationParams",
          "name": "op",
          "type": "tuple"
        }
      ],
      "name": "reveal",
      "outputs": [],
      "stateMutability": "nonpayable",
      "type": "function"
    },
    {
      "inputs": [
        {
          "internalType": "bytes32[]",
          "name": "",
          "type": "bytes32[]"
        },
        {
          "internalType": "uint32",
          "name": "",
          "type": "uint32"
        },
        {
          "internalType": "bytes32",
          "name": "",
          "type": "bytes32"
        },
        {
          "internalType": "enum Enums.OperationType",
          "name": "",
          "type": "uint8"
        },
        {
          "internalType": "enum Enums.TokenType",
          "name": "",
          "type": "uint8"
        },
        {
          "internalType": "address",
          "name": "",
          "type": "address"
        },
        {
          "internalType": "uint256",
          "name": "",
          "type": "uint256"
        },
        {
          "internalType": "address payable",
          "name": "",
          "type": "address"
        },
        {
          "internalType": "uint256",
          "name": "",
          "type": "uint256"
        },
        {
          "internalType": "bytes",
          "name": "",
          "type": "bytes"
        }
      ],
      "name": "reveal",
      "outputs": [],
      "stateMutability": "pure",
      "type": "function"
    },
    {
      "inputs": [],
      "name": "getBacklinks",
      "outputs": [
        {
          "internalType": "contract IONEWallet[]",
          "name": "",
          "type": "address[]"
        }
      ],
      "stateMutability": "view",
      "type": "function"
    },
    {
      "inputs": [
        {
          "internalType": "bytes4",
          "name": "interfaceId",
          "type": "bytes4"
        }
      ],
      "name": "supportsInterface",
      "outputs": [
        {
          "internalType": "bool",
          "name": "",
          "type": "bool"
        }
      ],
      "stateMutability": "pure",
      "type": "function"
    },
    {
      "inputs": [
        {
          "internalType": "bytes32",
          "name": "hash",
          "type": "bytes32"
        },
        {
          "internalType": "bytes",
          "name": "signatureBytes",
          "type": "bytes"
        }
      ],
      "name": "isValidSignature",
      "outputs": [
        {
          "internalType": "bytes4",
          "name": "",
          "type": "bytes4"
        }
      ],
      "stateMutability": "view",
      "type": "function"
    },
    {
      "inputs": [
        {
          "internalType": "uint32",
          "name": "start",
          "type": "uint32"
        },
        {
          "internalType": "uint32",
          "name": "end",
          "type": "uint32"
        }
      ],
      "name": "listSignatures",
      "outputs": [
        {
          "internalType": "bytes32[]",
          "name": "",
          "type": "bytes32[]"
        },
        {
          "internalType": "bytes32[]",
          "name": "",
          "type": "bytes32[]"
        },
        {
          "internalType": "uint32[]",
          "name": "",
          "type": "uint32[]"
        },
        {
          "internalType": "uint32[]",
          "name": "",
          "type": "uint32[]"
        }
      ],
      "stateMutability": "view",
      "type": "function"
    },
    {
      "inputs": [
        {
          "internalType": "bytes32",
          "name": "hash",
          "type": "bytes32"
        }
      ],
      "name": "lookupSignature",
      "outputs": [
        {
          "internalType": "bytes32",
          "name": "",
          "type": "bytes32"
        },
        {
          "internalType": "uint32",
          "name": "",
          "type": "uint32"
        },
        {
          "internalType": "uint32",
          "name": "",
          "type": "uint32"
        }
      ],
      "stateMutability": "view",
      "type": "function"
    }
  ],
  "bytecode": "0x60806040526015805460ff1916905534801561001a57600080fd5b506143828061002a6000396000f3fe6080604052600436106101c65760003560e01c80635a9b0b89116100f7578063bc197c8111610095578063db582c7e11610064578063db582c7e1461078e578063e4e5b258146107a4578063f23a6e61146107c4578063fbee04d2146107e457600080fd5b8063bc197c811461070c578063c34a6dad1461072c578063d087d28814610747578063d87458a31461076e57600080fd5b8063a17027e1116100d1578063a17027e11461068f578063a4874d77146106b5578063a6b920b6146106ca578063b1ccfccc146106ea57600080fd5b80635a9b0b89146105a9578063695def4c1461062957806391df09251461064d57600080fd5b80632293d3fb116101645780633f079ab81161013e5780633f079ab81461050f57806341a648781461052f578063424c511014610557578063496018af1461058757600080fd5b80632293d3fb1461047f5780632f1f7520146104a9578063396ec5f4146104ce57600080fd5b8063150b7a02116101a0578063150b7a02146103c25780631626ba7e146103fb57806316d43a971461041b5780631cf4ea051461043157600080fd5b806301ffc9a714610348578063040132391461037d5780630d8e6e2c146103a057600080fd5b366103435760155460ff166101da57600080fd5b600c546001600160a01b03161561026157600654600c546001600160a01b039081169116141561020e5761020c610804565b005b6006546001600160a01b031633141561025957670de0b6b3a764000034141561025157600654610246906001600160a01b03166108a0565b61024e610b47565b50005b610246610c07565b61020c610804565b670de0b6b3a7640000341461027257005b6006546001600160a01b0316331461028657005b3330141561029057005b62127500600b546102a19190614145565b4210156102ff577fe58fb6bc612703a64f091af2ff6a6831eca838a0301129ab6879cab20d6d7c8c3362127500600b546102db9190614145565b604080516001600160a01b03909316835260208301919091520160405180910390a1005b6040513381527f0cbe1fea4becf04af2176bbef0c9c53d439d30a05a197aacc38bb4a2873222e39060200160405180910390a161033a610c5d565b61020c57600080fd5b600080fd5b34801561035457600080fd5b50610368610363366004613588565b610d4f565b60405190151581526020015b60405180910390f35b34801561038957600080fd5b50610392610d7a565b604051908152602001610374565b3480156103ac57600080fd5b5060408051600f81526001602082015201610374565b3480156103ce57600080fd5b506103e26103dd366004612e4a565b610dc5565b6040516001600160e01b03199091168152602001610374565b34801561040757600080fd5b506103e2610416366004613502565b610f3e565b34801561042757600080fd5b50610392600b5481565b34801561043d57600080fd5b5061045161044c3660046134bf565b610fd4565b6040516103749493929190938452602084019290925263ffffffff1660408301521515606082015260800190565b34801561048b57600080fd5b50610494610fdf565b60408051928352602083019190915201610374565b3480156104b557600080fd5b506104be610fe7565b6040516103749493929190613bf7565b3480156104da57600080fd5b506104e3610ff2565b60408051948552602085019390935263ffffffff91821692840192909252166060820152608001610374565b34801561051b57600080fd5b5061020c61052a366004613600565b61108c565b34801561053b57600080fd5b50600c546040516001600160a01b039091168152602001610374565b34801561056357600080fd5b5061057761057236600461381f565b611138565b6040516103749493929190613c44565b34801561059357600080fd5b5061059c6111ec565b6040516103749190613c91565b3480156105b557600080fd5b506002546003546006546040805193845260ff808416602086015261010080850482169286019290925263ffffffff62010000850481166060870152600160301b8504166080860152600160501b90930490921660a08401526001600160a01b031660c0830152600060e083015201610374565b34801561063557600080fd5b5061063e61124e565b60405161037493929190613cde565b34801561065957600080fd5b5061066d6106683660046134bf565b6112e7565b6040805193845263ffffffff9283166020850152911690820152606001610374565b34801561069b57600080fd5b506106a4611385565b604051610374959493929190613b96565b3480156106c157600080fd5b50610368611428565b3480156106d657600080fd5b506103926106e53660046135c0565b6114c5565b3480156106f657600080fd5b506106ff611595565b6040516103749190613d6f565b34801561071857600080fd5b506103e2610727366004612d90565b611642565b34801561073857600080fd5b5061020c610343366004613027565b34801561075357600080fd5b5061075c611754565b60405160ff9091168152602001610374565b34801561077a57600080fd5b506106a46107893660046134bf565b6117f0565b34801561079a57600080fd5b5061039260075481565b3480156107b057600080fd5b5061020c6107bf3660046134d7565b61189b565b3480156107d057600080fd5b506103e26107df366004612eba565b611927565b3480156107f057600080fd5b5061020c6107ff36600461366d565b611aa1565b600c546040516000916001600160a01b03169034908381818185875af1925050503d8060008114610851576040519150601f19603f3d011682016040523d82523d6000602084013e610856565b606091505b505090508061086457600080fd5b604080513481523360208201527f6e8641fc34fdcf9d67683d1a8ced72ff01d27ff86ff3b1d338fa6165e496c73f91015b60405180910390a150565b600c546001600160a01b03163014806108c057506001600160a01b038116155b156108fe576040516001600160a01b03821681527f81a6b37eeab97da1bb7ac3b3e34fcee45f445c8de943999917a6fe95ed7fa78790602001610895565b600c80546001600160a01b0319166001600160a01b0383169081179091556040519081527fa706c3d6ff18ff7dfc1ee0a34bc34fe432c200d8d475bff3ed963eb31ae194689060200160405180910390a1610957611de8565b6109bd57600c54610970906001600160a01b0316611e28565b600061097a610c5d565b90507f41af6efec37729ca1819094cce85d9ae325b936fda39ac98a58cfcb45d431b4b816040516109af911515815260200190565b60405180910390a150610ad1565b60405163c9c80f8f60e01b81526008600482015260009073__SpendingManager_______________________9063c9c80f8f9060240160206040518083038186803b158015610a0b57600080fd5b505af4158015610a1f573d6000803e3d6000fd5b505050506040513d601f19601f82011682018060405250810190610a439190613760565b600c54909150610a5c906001600160a01b031682611ec7565b5060405163aaf6047360e01b8152600060048201526001600160a01b038316602482015273__TokenTracker__________________________9063aaf604739060440160006040518083038186803b158015610ab757600080fd5b505af4158015610acb573d6000803e3d6000fd5b50505050505b604051639cacd87160e01b8152600d60048201526001600160a01b038216602482015273__WalletGraph___________________________90639cacd871906044015b60006040518083038186803b158015610b2c57600080fd5b505af4158015610b40573d6000803e3d6000fd5b5050505050565b6000610b51611de8565b610b84576040517fc27dbdcf29e2a161f0420d399444129801e578bafe157fef0370098459e082bf90600090a150600090565b6006546001600160a01b0316301415610b9d5750600190565b610ba5610c5d565b610bd8576040517fa3a244603d968c02ebd2017f990d4e077cf0381929976be2a0cb07076147a56f90600090a150600090565b6040517f94f696b15fed1e58be1975a224273b56878dda280cb878ec20eb56b6fea7313a90600090a150600190565b600c54600680546001600160a01b0319166001600160a01b0390921691821790556040519081527f83c14e1947c5a639434d6195a6e9d85ab3471a5049c66e0aa46b71e2c0a06dde9060200160405180910390a1565b60065460405160009182916001600160a01b039091169047908381818185875af1925050503d8060008114610cae576040519150601f19603f3d011682016040523d82523d6000602084013e610cb3565b606091505b505090508015610d4a57600654600c80546001600160a01b0319166001600160a01b03909216918217905560405163aaf6047360e01b815260006004820152602481019190915273__TokenTracker__________________________9063aaf604739060440160006040518083038186803b158015610d3157600080fd5b505af4158015610d45573d6000803e3d6000fd5b505050505b919050565b60006001600160e01b03198216630b135d3f60e11b1480610d745750610d74826120ea565b92915050565b60045460009015610dbe576004600081548110610da757634e487b7160e01b600052603260045260246000fd5b906000526020600020906002020160000154905090565b5060025490565b60007feb7a68d5a205eea79480f44587fe8146ae15b7e92582967fd1b1b119c9b60efa60018087338a898989604051610e05989796959493929190613e5d565b60405180910390a16000610e21600c546001600160a01b031690565b90506001600160a01b03811615610eba5760405163c841a9db60e01b815273__TokenTracker__________________________9063c841a9db90610e799060009060019033908b90889084908d908d90600401614055565b60006040518083038186803b158015610e9157600080fd5b505af4158015610ea5573d6000803e3d6000fd5b50630a85bd0160e11b9450610f359350505050565b6040516304e9b2db60e31b815273__TokenTracker__________________________9063274d96d890610ef99060009060019033908b90600401614026565b60006040518083038186803b158015610f1157600080fd5b505af4158015610f25573d6000803e3d6000fd5b50630a85bd0160e11b9450505050505b95945050505050565b604051634d94f52360e01b815260009073__SignatureManager______________________90634d94f52390610f7d9060129087908790600401614007565b60206040518083038186803b158015610f9557600080fd5b505af4158015610fa9573d6000803e3d6000fd5b505050506040513d601f19601f82011682018060405250810190610fcd91906135a4565b9392505050565b600080600080600080fd5b600080600080fd5b606080606080600080fd5b6040516302db916b60e11b81526008600482015260009081908190819073__SpendingManager_______________________906305b722d69060240160806040518083038186803b15801561104657600080fd5b505af415801561105a573d6000803e3d6000fd5b505050506040513d601f19601f8201168201806040525081019061107e91906137d5565b935093509350935090919293565b60155460ff1661109b57600080fd5b600c546001600160a01b031633146111235760405163e1c517a760e01b815273__Reveal________________________________9063e1c517a7906110ee90600290600490600e90889088908401613ece565b60006040518083038186803b15801561110657600080fd5b505af415801561111a573d6000803e3d6000fd5b505042600b5550505b61113461112f826141b9565b61213b565b5050565b604051630139109f60e31b81526012600482015263ffffffff80841660248301528216604482015260609081908190819073__SignatureManager______________________906309c884f89060640160006040518083038186803b1580156111a057600080fd5b505af41580156111b4573d6000803e3d6000fd5b505050506040513d6000823e601f3d908101601f191682016040526111dc91908101906131d7565b9299919850965090945092505050565b6060600d80548060200260200160405190810160405280929190818152602001828054801561124457602002820191906000526020600020905b81546001600160a01b03168152600190910190602001808311611226575b5050505050905090565b604051631d9037a160e11b8152600060048201526060908190819073__TokenTracker__________________________90633b206f429060240160006040518083038186803b1580156112a057600080fd5b505af41580156112b4573d6000803e3d6000fd5b505050506040513d6000823e601f3d908101601f191682016040526112dc919081019061327e565b925092509250909192565b604051635107e51560e11b815260126004820152602481018290526000908190819073__SignatureManager______________________9063a20fca2a9060440160606040518083038186803b15801561134057600080fd5b505af4158015611354573d6000803e3d6000fd5b505050506040513d601f19601f820116820180604052508101906113789190613546565b9250925092509193909250565b60405163732d1f0f60e01b8152600e6004820152606090819081908190819073__CommitManager_________________________9063732d1f0f9060240160006040518083038186803b1580156113db57600080fd5b505af41580156113ef573d6000803e3d6000fd5b505050506040513d6000823e601f3d908101601f19168201604052611417919081019061310c565b945094509450945094509091929394565b60035460009063ffffffff600160301b82048116916201000081049091169061145a9060ff610100909104164261415d565b6114649190614194565b63ffffffff161161147457600080fd5b61147c611de8565b61148557600080fd5b61148d610c5d565b61149657600080fd5b6040517fc15f68f0a72806ff3f8bf2435385a67c4c22413f1c7931ef7bcea718e6ffcf0390600090a150600190565b60008060008073__TokenTracker__________________________636489a8db8888886040518463ffffffff1660e01b815260040161150693929190613e35565b60006040518083038186803b15801561151e57600080fd5b505af4158015611532573d6000803e3d6000fd5b505050506040513d6000823e601f3d908101601f1916820160405261155a9190810190613778565b9250925092508181906115895760405162461bcd60e51b81526004016115809190613ebb565b60405180910390fd5b50919695505050505050565b60606004805480602002602001604051908101604052809291908181526020016000905b828210156116395760008481526020908190206040805160c081018252600286029092018054835260019081015460ff80821685870152610100820481169385019390935263ffffffff62010000820481166060860152600160301b8204166080850152600160501b900490911660a083015290835290920191016115b9565b50505050905090565b6000805b63ffffffff811687111561173e573063f23a6e618b8b8b8b63ffffffff871681811061168257634e487b7160e01b600052603260045260246000fd5b905060200201358a8a8763ffffffff168181106116af57634e487b7160e01b600052603260045260246000fd5b9050602002013589896040518763ffffffff1660e01b81526004016116d996959493929190613acc565b602060405180830381600087803b1580156116f357600080fd5b505af1158015611707573d6000803e3d6000fd5b505050506040513d601f19601f8201168201806040525081019061172b91906135a4565b508061173681614280565b915050611646565b5063bc197c8160e01b9998505050505050505050565b600354604051631601f47b60e31b8152600e600482015261010090910460ff16602482015260009073__CommitManager_________________________9063b00fa3d89060440160206040518083038186803b1580156117b357600080fd5b505af41580156117c7573d6000803e3d6000fd5b505050506040513d601f19601f820116820180604052508101906117eb919061384c565b905090565b6040516391a351d360e01b8152600e600482015260248101829052606090819081908190819073__CommitManager_________________________906391a351d39060440160006040518083038186803b15801561184d57600080fd5b505af4158015611861573d6000803e3d6000fd5b505050506040513d6000823e601f3d908101601f19168201604052611889919081019061310c565b939a9299509097509550909350915050565b60155460ff166118aa57600080fd5b604051632b6e663760e21b8152600e600482015260248101849052604481018390526064810182905273__CommitManager_________________________9063adb998dc9060840160006040518083038186803b15801561190a57600080fd5b505af415801561191e573d6000803e3d6000fd5b50505050505050565b60007feb7a68d5a205eea79480f44587fe8146ae15b7e92582967fd1b1b119c9b60efa60028588338b8a8989604051611967989796959493929190613e5d565b60405180910390a16000611983600c546001600160a01b031690565b90506001600160a01b03811615611a1c5760405163c841a9db60e01b815273__TokenTracker__________________________9063c841a9db906119db9060009060029033908c9088908d908d908d90600401614055565b60006040518083038186803b1580156119f357600080fd5b505af4158015611a07573d6000803e3d6000fd5b5063f23a6e6160e01b9450611a979350505050565b6040516304e9b2db60e31b815273__TokenTracker__________________________9063274d96d890611a5b9060009060029033908c90600401614026565b60006040518083038186803b158015611a7357600080fd5b505af4158015611a87573d6000803e3d6000fd5b5063f23a6e6160e01b9450505050505b9695505050505050565b60155460ff1615611ab157600080fd5b60005b8160a00151518163ffffffff161015611bb85760048260a001518263ffffffff1681518110611af357634e487b7160e01b600052603260045260246000fd5b60209081029190910181015182546001808201855560009485529383902082516002909202019081559181015191909201805460408401516060850151608086015160a09096015160ff95861661ffff1990941693909317610100928616929092029190911769ffffffffffffffff000019166201000063ffffffff9283160263ffffffff60301b191617600160301b91909516029390931760ff60501b1916600160501b929093169190910291909117905580611bb081614280565b915050611ab4565b5060005b8160c00151518163ffffffff161015611cc05760058260c001518263ffffffff1681518110611bfb57634e487b7160e01b600052603260045260246000fd5b60209081029190910181015182546001808201855560009485529383902082516002909202019081559181015191909201805460408401516060850151608086015160a09096015160ff95861661ffff1990941693909317610100928616929092029190911769ffffffffffffffff000019166201000063ffffffff9283160263ffffffff60301b191617600160301b91909516029390931760ff60501b1916600160501b929093169190910291909117905580611cb881614280565b915050611bbc565b5080518051600255602080820151600380546040808601516060808801516080808a015160a0909a015160ff908116600160501b0260ff60501b1963ffffffff9c8d16600160301b0263ffffffff60301b19958e1662010000029590951669ffffffffffffffff0000199784166101000261ffff19909a1693909b16929092179790971794909416979097171791909116929092179092558386015180516008558085015160095580830151600a8054929093015187166401000000000267ffffffffffffffff199092169616959095179490941790935591830151600680546001600160a01b039092166001600160a01b0319909216919091179055908201518051611dd192600d920190612804565b50606001516007556015805460ff19166001179055565b6006546000906001600160a01b0316158015906117eb57506006546001600160a01b0316737534978f9fa903150ed429c486d1f42b7fdb7a611415905090565b611e30611de8565b80611e4357506001600160a01b03811630145b15611e7957604051600081527f83c14e1947c5a639434d6195a6e9d85ab3471a5049c66e0aa46b71e2c0a06dde90602001610895565b600680546001600160a01b0319166001600160a01b0383169081179091556040519081527f83c14e1947c5a639434d6195a6e9d85ab3471a5049c66e0aa46b71e2c0a06dde90602001610895565b60405163075f723760e11b8152600860048201526001600160a01b038316602482015260448101829052600090819073__SpendingManager_______________________90630ebee46e9060640160206040518083038186803b158015611f2d57600080fd5b505af4158015611f41573d6000803e3d6000fd5b505050506040513d601f19601f82011682018060405250810190611f6591906134a5565b905080611f76576000915050610d74565b60405163ddc7babd60e01b8152600860048201526024810184905273__SpendingManager_______________________9063ddc7babd9060440160006040518083038186803b158015611fc857600080fd5b505af4158015611fdc573d6000803e3d6000fd5b50505050600080856001600160a01b03168560405160006040518083038185875af1925050503d806000811461202e576040519150601f19603f3d011682016040523d82523d6000602084013e612033565b606091505b50915091508161209d578460086001016000828254612052919061417d565b90915550506040517ff5c313ebe4b0c35fe244772061cea14ddbae7ed089b2850d6ee2235fd42847e4906120899088908490613aa0565b60405180910390a160009350505050610d74565b604080518681526001600160a01b03881660208201527f8f4636f285a9a17fe3479ab47bb7a5deadaf9b2295a16c3965f55fa48e542d1f910160405180910390a150600195945050505050565b60006001600160e01b031982166301ffc9a760e01b148061211b57506001600160e01b0319821663f23a6e6160e01b145b80610d7457506001600160e01b03198216630a85bd0160e11b1492915050565b60048151601681111561215e57634e487b7160e01b600052602160045260246000fd5b14156121765761113481608001518260a00151611ec7565b60068151601681111561219957634e487b7160e01b600052602160045260246000fd5b14156121a757611134610b47565b6005815160168111156121ca57634e487b7160e01b600052602160045260246000fd5b14156121e0576121dd8160800151611e28565b50565b60088151601681111561220357634e487b7160e01b600052602160045260246000fd5b1415612216576121dd81608001516108a0565b60158151601681111561223957634e487b7160e01b600052602160045260246000fd5b141561226c57606081015161225f576121dd81604001518260a001518360c0015161235b565b6121dd8160c001516125b5565b60078151601681111561228f57634e487b7160e01b600052602160045260246000fd5b14156122e55760c0810151600c54604051637d80bb9960e11b815273__CoreManager___________________________9263fb01773292610b149260049260029290916001600160a01b03909116908401613dfd565b60168151601681111561230857634e487b7160e01b600052602160045260246000fd5b141561231b576121dd8160c00151612787565b6040516340df783160e11b815273__Executor______________________________906381bef06290610b14908490600090600d90601290600401613f70565b60405163075f723760e11b8152600860048201526001600160a01b03841660248201526044810183905260009073__SpendingManager_______________________90630ebee46e9060640160206040518083038186803b1580156123bf57600080fd5b505af41580156123d3573d6000803e3d6000fd5b505050506040513d601f19601f820116820180604052508101906123f791906134a5565b90508061243f577f4d62b9a6ffb55cee5d5dc75b67dc0013b2cce2fa73c7a715ad72dedc5ffdc60c84848460405161243193929190613b57565b60405180910390a150505050565b60405163ddc7babd60e01b8152600860048201526024810184905273__SpendingManager_______________________9063ddc7babd9060440160006040518083038186803b15801561249157600080fd5b505af41580156124a5573d6000803e3d6000fd5b50505050600080856001600160a01b031685856040516124c59190613a84565b60006040518083038185875af1925050503d8060008114612502576040519150601f19603f3d011682016040523d82523d6000602084013e612507565b606091505b50915091508115612554577f594eb1d75e7963acdb8e3677a186a5ed35924ab37f2b20e78aea6516bbc9bd6e868686846040516125479493929190613b13565b60405180910390a16125ad565b8460086001016000828254612569919061417d565b90915550506040517f4d62b9a6ffb55cee5d5dc75b67dc0013b2cce2fa73c7a715ad72dedc5ffdc60c906125a4908890889088908690613b13565b60405180910390a15b505050505050565b6000806000838060200190518101906125ce9190612f33565b9250925092506000805b83518163ffffffff16101561263457838163ffffffff168151811061260d57634e487b7160e01b600052603260045260246000fd5b6020026020010151826126209190614145565b91508061262c81614280565b9150506125d8565b5060405163075f723760e11b815260086004820152600060248201526044810182905273__SpendingManager_______________________90630ebee46e9060640160206040518083038186803b15801561268e57600080fd5b505af41580156126a2573d6000803e3d6000fd5b505050506040513d601f19601f820116820180604052508101906126c691906134a5565b6126d1575050505050565b60005b84518163ffffffff1610156125ad57612775858263ffffffff168151811061270c57634e487b7160e01b600052603260045260246000fd5b6020026020010151858363ffffffff168151811061273a57634e487b7160e01b600052603260045260246000fd5b6020026020010151858463ffffffff168151811061276857634e487b7160e01b600052603260045260246000fd5b602002602001015161235b565b8061277f81614280565b9150506126d4565b60008180602001905181019061279d9190613366565b805190915060005b8160ff168163ffffffff1610156127fe576127ec838263ffffffff16815181106127df57634e487b7160e01b600052603260045260246000fd5b602002602001015161213b565b806127f681614280565b9150506127a5565b50505050565b828054828255906000526020600020908101928215612859579160200282015b8281111561285957825182546001600160a01b0319166001600160a01b03909116178255602090920191600190910190612824565b50612865929150612869565b5090565b5b80821115612865576000815560010161286a565b600061289161288c8461411e565b6140cb565b90508281528383830111156128a557600080fd5b610fcd836020830184614254565b8035610d4a816142e6565b8051610d4a816142e6565b600082601f8301126128d9578081fd5b815160206128e961288c836140fb565b80838252828201915082860187848660051b8901011115612908578586fd5b855b8581101561292f57815161291d816142e6565b8452928401929084019060010161290a565b5090979650505050505050565b600082601f83011261294c578081fd5b8151602061295c61288c836140fb565b80838252828201915082860187848660051b890101111561297b578586fd5b855b8581101561292f5761298e82612b84565b8452928401929084019060010161297d565b60008083601f8401126129b1578182fd5b5081356001600160401b038111156129c7578182fd5b6020830191508360208260051b85010111156129e257600080fd5b9250929050565b600082601f8301126129f9578081fd5b81516020612a0961288c836140fb565b80838252828201915082860187848660051b8901011115612a28578586fd5b855b8581101561292f57815184529284019290840190600101612a2a565b600082601f830112612a56578081fd5b81356020612a6661288c836140fb565b80838252828201915082860187848660051b8901011115612a85578586fd5b855b8581101561292f578135612a9a816142e6565b84529284019290840190600101612a87565b600082601f830112612abc578081fd5b81356020612acc61288c836140fb565b8281528181019085830160c080860288018501891015612aea578687fd5b865b86811015612b1057612afe8a84612c6a565b85529385019391810191600101612aec565b509198975050505050505050565b600082601f830112612b2e578081fd5b81516020612b3e61288c836140fb565b80838252828201915082860187848660051b8901011115612b5d578586fd5b855b8581101561292f578151612b728161432b565b84529284019290840190600101612b5f565b80518015158114610d4a57600080fd5b60008083601f840112612ba5578182fd5b5081356001600160401b03811115612bbb578182fd5b6020830191508360208285010111156129e257600080fd5b600082601f830112612be3578081fd5b8135612bf161288c8261411e565b818152846020838601011115612c05578283fd5b816020850160208301379081016020019190915292915050565b600082601f830112612c2f578081fd5b610fcd8383516020850161287e565b8035610d4a81614311565b8051610d4a81614311565b8035610d4a8161431e565b8051610d4a8161431e565b600060c08284031215612c7b578081fd5b60405160c081018181106001600160401b0382111715612c9d57612c9d6142d0565b604052823581529050806020830135612cb58161433d565b60208201526040830135612cc88161433d565b60408201526060830135612cdb8161432b565b60608201526080830135612cee8161432b565b608082015260a0830135612d018161433d565b60a0919091015292915050565b600060808284031215612d1f578081fd5b604051608081018181106001600160401b0382111715612d4157612d416142d0565b806040525080915082358152602083013560208201526040830135612d658161432b565b60408201526060830135612d788161432b565b6060919091015292915050565b8035610d4a8161432b565b60008060008060008060008060a0898b031215612dab578384fd5b8835612db6816142e6565b97506020890135612dc6816142e6565b965060408901356001600160401b0380821115612de1578586fd5b612ded8c838d016129a0565b909850965060608b0135915080821115612e05578586fd5b612e118c838d016129a0565b909650945060808b0135915080821115612e29578384fd5b50612e368b828c01612b94565b999c989b5096995094979396929594505050565b600080600080600060808688031215612e61578283fd5b8535612e6c816142e6565b94506020860135612e7c816142e6565b93506040860135925060608601356001600160401b03811115612e9d578182fd5b612ea988828901612b94565b969995985093965092949392505050565b60008060008060008060a08789031215612ed2578384fd5b8635612edd816142e6565b95506020870135612eed816142e6565b9450604087013593506060870135925060808701356001600160401b03811115612f15578283fd5b612f2189828a01612b94565b979a9699509497509295939492505050565b600080600060608486031215612f47578081fd5b83516001600160401b0380821115612f5d578283fd5b612f69878388016128c9565b9450602091508186015181811115612f7f578384fd5b612f8b888289016129e9565b945050604086015181811115612f9f578384fd5b8601601f81018813612faf578384fd5b8051612fbd61288c826140fb565b8082825285820191508584018b878560051b8701011115612fdc578788fd5b875b8481101561301557815187811115612ff457898afd5b6130028e8a838a0101612c1f565b8552509287019290870190600101612fde565b50508096505050505050509250925092565b6000806000806000806000806000806000806101408d8f031215613049578586fd5b6001600160401b038d35111561305d578586fd5b61306a8e8e358f016129a0565b909c509a5061307b60208e01612d85565b995060408d0135985061309060608e01612c3e565b975061309e60808e01612c54565b96506130ac60a08e016128b3565b955060c08d013594506130c160e08e016128b3565b93506101008d013592506001600160401b036101208e013511156130e3578081fd5b6130f48e6101208f01358f01612b94565b81935080925050509295989b509295989b509295989b565b600080600080600060a08688031215613123578283fd5b85516001600160401b0380821115613139578485fd5b61314589838a016129e9565b9650602088015191508082111561315a578485fd5b61316689838a016129e9565b9550604088015191508082111561317b578485fd5b61318789838a016129e9565b9450606088015191508082111561319c578283fd5b6131a889838a01612b1e565b935060808801519150808211156131bd578283fd5b506131ca8882890161293c565b9150509295509295909350565b600080600080608085870312156131ec578182fd5b84516001600160401b0380821115613202578384fd5b61320e888389016129e9565b95506020870151915080821115613223578384fd5b61322f888389016129e9565b94506040870151915080821115613244578384fd5b61325088838901612b1e565b93506060870151915080821115613265578283fd5b5061327287828801612b1e565b91505092959194509250565b600080600060608486031215613292578081fd5b83516001600160401b03808211156132a8578283fd5b818601915086601f8301126132bb578283fd5b815160206132cb61288c836140fb565b8083825282820191508286018b848660051b89010111156132ea578788fd5b8796505b848710156133155780516133018161431e565b8352600196909601959183019183016132ee565b509189015191975090935050508082111561332e578283fd5b61333a878388016128c9565b9350604086015191508082111561334f578283fd5b5061335c868287016129e9565b9150509250925092565b60006020808385031215613378578182fd5b82516001600160401b038082111561338e578384fd5b818501915085601f8301126133a1578384fd5b81516133af61288c826140fb565b80828252858201915085850189878560051b88010111156133ce578788fd5b875b84811015613496578151868111156133e657898afd5b870160e0818d03601f19018113156133fc578a8bfd5b6134046140a3565b61340f8b8401612c49565b8152604061341e818501612c5f565b8c830152606061342f8186016128be565b828401526080915081850151818401525060a061344d8186016128be565b8284015260c0915081850151818401525082840151925089831115613470578c8dfd5b61347e8f8d85870101612c1f565b908201528652505092870192908701906001016133d0565b50909998505050505050505050565b6000602082840312156134b6578081fd5b610fcd82612b84565b6000602082840312156134d0578081fd5b5035919050565b6000806000606084860312156134eb578081fd5b505081359360208301359350604090920135919050565b60008060408385031215613514578182fd5b8235915060208301356001600160401b03811115613530578182fd5b61353c85828601612bd3565b9150509250929050565b60008060006060848603121561355a578081fd5b83519250602084015161356c8161432b565b604085015190925061357d8161432b565b809150509250925092565b600060208284031215613599578081fd5b8135610fcd816142fb565b6000602082840312156135b5578081fd5b8151610fcd816142fb565b6000806000606084860312156135d4578081fd5b83356135df8161431e565b925060208401356135ef816142e6565b929592945050506040919091013590565b60008060408385031215613612578182fd5b82356001600160401b0380821115613628578384fd5b908401906060828703121561363b578384fd5b90925060208401359080821115613650578283fd5b50830160e08186031215613662578182fd5b809150509250929050565b60006020828403121561367e578081fd5b81356001600160401b0380821115613694578283fd5b908301906101e082860312156136a8578283fd5b6136b06140a3565b6136ba8684612c6a565b81526136c98660c08501612d0e565b60208201526136db61014084016128b3565b60408201526101608301356060820152610180830135828111156136fd578485fd5b61370987828601612a46565b6080830152506101a083013582811115613721578485fd5b61372d87828601612aac565b60a0830152506101c083013582811115613745578485fd5b61375187828601612aac565b60c08301525095945050505050565b600060208284031215613771578081fd5b5051919050565b60008060006060848603121561378c578081fd5b8351925061379c60208501612b84565b915060408401516001600160401b038111156137b6578182fd5b8401601f810186136137c6578182fd5b61335c8682516020840161287e565b600080600080608085870312156137ea578182fd5b845193506020850151925060408501516138038161432b565b60608601519092506138148161432b565b939692955090935050565b60008060408385031215613831578182fd5b823561383c8161432b565b915060208301356136628161432b565b60006020828403121561385d578081fd5b8151610fcd8161433d565b6000815180845260208085019450808401835b8381101561389957815115158752958201959082019060010161387b565b509495945050505050565b81835260006001600160fb1b038311156138bc578081fd5b8260051b80836020870137939093016020019283525090919050565b6000815180845260208085019450808401835b83811015613899578151875295820195908201906001016138eb565b6000815180845260208085019450808401835b8381101561389957815163ffffffff168752958201959082019060010161391a565b81835281816020850137506000828201602090810191909152601f909101601f19169091010190565b6000815180845261397d816020860160208601614254565b601f01601f19169290920160200192915050565b601781106139a1576139a16142ba565b9052565b600481106139a1576139a16142ba565b600081356139c281614311565b6139cc8482613991565b5060208201356139db8161431e565b6139e860208501826139a5565b5060408201356139f7816142e6565b6001600160a01b03908116604085015260608381013590850152608083013590613a20826142e6565b16608084015260a0828101359084015260c082013536839003601e19018112613a47578182fd5b820180356001600160401b03811115613a5e578283fd5b803603841315613a6c578283fd5b60e060c0860152610f3560e08601826020850161393c565b60008251613a96818460208701614254565b9190910192915050565b6001600160a01b0383168152604060208201819052600090613ac490830184613965565b949350505050565b6001600160a01b03878116825286166020820152604081018590526060810184905260a060808201819052600090613b07908301848661393c565b98975050505050505050565b60018060a01b0385168152836020820152608060408201526000613b3a6080830185613965565b8281036060840152613b4c8185613965565b979650505050505050565b60018060a01b0384168152826020820152608060408201526000613b7e6080830184613965565b82810360609093019290925281526020019392505050565b60a081526000613ba960a08301886138d8565b8281036020840152613bbb81886138d8565b90508281036040840152613bcf81876138d8565b90508281036060840152613be38186613907565b90508281036080840152613b078185613868565b608081526000613c0a60808301876138d8565b8281036020840152613c1c81876138d8565b90508281036040840152613c308186613907565b90508281036060840152613b4c8185613868565b608081526000613c5760808301876138d8565b8281036020840152613c6981876138d8565b90508281036040840152613c7d8186613907565b90508281036060840152613b4c8185613907565b6020808252825182820181905260009190848201906040850190845b81811015613cd25783516001600160a01b031683529284019291840191600101613cad565b50909695505050505050565b606080825284519082018190526000906020906080840190828801845b82811015613d1e57613d0e8483516139a5565b9284019290840190600101613cfb565b50505083810382850152855180825286830191830190845b81811015613d5b5783516001600160a01b031683529284019291840191600101613d36565b50508481036040860152613b0781876138d8565b602080825282518282018190526000919060409081850190868401855b82811015613df0578151805185528681015160ff908116888701528682015181168787015260608083015163ffffffff908116918801919091526080808401519091169087015260a091820151169085015260c09093019290850190600101613d8c565b5091979650505050505050565b848152836020820152608060408201526000613e1c6080830185613965565b905060018060a01b038316606083015295945050505050565b60608101613e4382866139a5565b6001600160a01b0393909316602082015260400152919050565b613e67818a6139a5565b602081018890526001600160a01b03878116604083015286811660608301528516608082015260a0810184905260e060c08201819052600090613ead908301848661393c565b9a9950505050505050505050565b602081526000610fcd6020830184613965565b85815284602082015283604082015260a0606082015260008335601e19853603018112613ef9578182fd5b840180356001600160401b03811115613f10578283fd5b8060051b3603861315613f21578283fd5b606060a0850152613f3a610100850182602085016138a4565b915050613f4960208601612d85565b63ffffffff1660c0840152604085013560e08401528281036080840152613b0781856139b5565b60808152613f82608082018651613991565b60006020860151613f9660a08401826139a5565b50604086015160018060a01b0380821660c0850152606088015160e085015280608089015116610100850152505060a086015161012083015260c086015160e0610140840152613fea610160840182613965565b602084019690965250506040810192909252606090910152919050565b838152826020820152606060408201526000610f356060830184613965565b8481526080810161403a60208301866139a5565b6001600160a01b039390931660408201526060015292915050565b88815261406560208201896139a5565b6001600160a01b038781166040830152606082018790528516608082015260a0810184905260e060c08201819052600090613ead908301848661393c565b60405160e081016001600160401b03811182821017156140c5576140c56142d0565b60405290565b604051601f8201601f191681016001600160401b03811182821017156140f3576140f36142d0565b604052919050565b60006001600160401b03821115614114576141146142d0565b5060051b60200190565b60006001600160401b03821115614137576141376142d0565b50601f01601f191660200190565b60008219821115614158576141586142a4565b500190565b60008261417857634e487b7160e01b81526012600452602481fd5b500490565b60008282101561418f5761418f6142a4565b500390565b600063ffffffff838116908316818110156141b1576141b16142a4565b039392505050565b600060e082360312156141ca578081fd5b6141d26140a3565b6141db83612c3e565b81526141e960208401612c54565b60208201526141fa604084016128b3565b604082015260608301356060820152614215608084016128b3565b608082015260a083013560a082015260c08301356001600160401b0381111561423c578283fd5b61424836828601612bd3565b60c08301525092915050565b60005b8381101561426f578181015183820152602001614257565b838111156127fe5750506000910152565b600063ffffffff8083168181141561429a5761429a6142a4565b6001019392505050565b634e487b7160e01b600052601160045260246000fd5b634e487b7160e01b600052602160045260246000fd5b634e487b7160e01b600052604160045260246000fd5b6001600160a01b03811681146121dd57600080fd5b6001600160e01b0319811681146121dd57600080fd5b601781106121dd57600080fd5b600481106121dd57600080fd5b63ffffffff811681146121dd57600080fd5b60ff811681146121dd57600080fdfea26469706673582212203a8521757bc31be74784337746d71dde4ff3e82d451a23ef69efb9727030e60964736f6c63430008040033",
  "immutableReferences": {},
  "source": "// SPDX-License-Identifier: Apache-2.0\npragma solidity ^0.8.4;\n\nimport \"./SpendingManager.sol\";\nimport \"./CommitManager.sol\";\nimport \"./TokenManager.sol\";\nimport \"./DomainManager.sol\";\nimport \"./SignatureManager.sol\";\nimport \"./Reveal.sol\";\nimport \"./WalletGraph.sol\";\nimport \"./Enums.sol\";\nimport \"./IONEWallet.sol\";\nimport \"./AbstractONEWallet.sol\";\nimport \"./CoreManager.sol\";\nimport \"./Executor.sol\";\n\ncontract ONEWallet is TokenManager, AbstractONEWallet {\n    using TokenTracker for TokenTracker.TokenTrackerState;\n    using WalletGraph for IONEWallet[];\n    using SignatureManager for SignatureManager.SignatureTracker;\n    using SpendingManager for SpendingManager.SpendingState;\n    using CommitManager for CommitManager.CommitState;\n    using Reveal for CoreSetting;\n\n    CoreSetting core;\n    CoreSetting[] oldCores;\n    CoreSetting[] recoveryCores;\n\n    /// global mutable variables\n    address payable recoveryAddress; // where money will be sent during a recovery process (or when the wallet is beyond its lifespan)\n    bytes32 public override identificationHash;\n\n    SpendingManager.SpendingState spendingState;\n\n    uint256 public override lastOperationTime; // in seconds; record the time for the last successful reveal\n    address payable forwardAddress; // a non-empty forward address assumes full control of this contract. A forward address can only be set upon a successful recovery or upgrade operation.\n    IONEWallet[] backlinkAddresses; // to be set in next version - these are addresses forwarding funds and tokens to this contract AND must have their forwardAddress updated if this contract's forwardAddress is set or updated. One example of such an address is a previous version of the wallet \"upgrading\" to a new version. See more at https://github.com/polymorpher/one-wallet/issues/78\n\n    // constants\n    uint256 constant AUTO_RECOVERY_TRIGGER_AMOUNT = 1 ether;\n    uint256 constant AUTO_RECOVERY_MANDATORY_WAIT_TIME = 14 days;\n    address constant ONE_WALLET_TREASURY = 0x7534978F9fa903150eD429C486D1f42B7fDB7a61;\n\n    uint32 constant majorVersion = 0xf; // a change would require client to migrate\n    uint32 constant minorVersion = 0x1; // a change would not require the client to migrate\n\n    /// commit management\n    CommitManager.CommitState commitState;\n    SignatureManager.SignatureTracker signatures;\n\n    bool initialized = false;\n\n    function initialize(InitParams memory initParams) override external\n    {\n        require(!initialized);\n        for (uint32 i = 0; i < initParams.oldCores.length; i++) {\n            oldCores.push(initParams.oldCores[i]);\n        }\n        for (uint32 i = 0; i < initParams.recoveryCores.length; i++) {\n            recoveryCores.push(initParams.recoveryCores[i]);\n        }\n        core = initParams.core;\n        spendingState = initParams.spendingState;\n        recoveryAddress = initParams.recoveryAddress;\n        backlinkAddresses = initParams.backlinkAddresses;\n        identificationHash = initParams.identificationHash;\n        initialized = true;\n    }\n\n    function _getForwardAddress() internal override view returns (address payable){\n        return forwardAddress;\n    }\n\n    function getForwardAddress() external override view returns (address payable){\n        return forwardAddress;\n    }\n\n    function _forwardPayment() internal {\n        (bool success,) = forwardAddress.call{value : msg.value}(\"\");\n        require(success);\n        emit PaymentForwarded(msg.value, msg.sender);\n    }\n\n    receive() external payable {\n        require(initialized);\n        if (forwardAddress != address(0)) {// this wallet already has a forward address set - standard recovery process should not apply\n            if (forwardAddress == recoveryAddress) {// in this case, funds should be forwarded to forwardAddress no matter what\n                _forwardPayment();\n                return;\n            }\n            if (msg.sender == recoveryAddress) {// this case requires special handling\n                if (msg.value == AUTO_RECOVERY_TRIGGER_AMOUNT) {// in this case, send funds to recovery address and reclaim forwardAddress to recovery address\n                    _forward(recoveryAddress);\n                    _recover();\n                    return;\n                }\n                // any other amount is deemed to authorize withdrawal of all funds to forwardAddress\n                _overrideRecoveryAddress();\n                _recover();\n                return;\n            }\n            // if sender is anyone else (including self), simply forward the payment\n            _forwardPayment();\n            return;\n        }\n        if (msg.value != AUTO_RECOVERY_TRIGGER_AMOUNT) {\n            return;\n        }\n        if (msg.sender != recoveryAddress) {\n            return;\n        }\n        if (msg.sender == address(this)) {\n            return;\n        }\n        if (block.timestamp < lastOperationTime + AUTO_RECOVERY_MANDATORY_WAIT_TIME) {\n            emit AutoRecoveryTriggeredPrematurely(msg.sender, lastOperationTime + AUTO_RECOVERY_MANDATORY_WAIT_TIME);\n            return;\n        }\n        emit AutoRecoveryTriggered(msg.sender);\n        require(_drain());\n    }\n\n    function retire() external override returns (bool)\n    {\n        require(uint32(block.timestamp / core.interval) - core.t0 > core.lifespan);\n        require(_isRecoveryAddressSet());\n        require(_drain());\n        emit Retired();\n        return true;\n    }\n\n    function getInfo() external override view returns (bytes32, uint8, uint8, uint32, uint32, uint8, address, uint256){\n        return (core.root, core.height, core.interval, core.t0, core.lifespan, core.maxOperationsPerInterval, recoveryAddress, 0);\n    }\n\n    function getOldInfos() external override view returns (CoreSetting[] memory){\n        return oldCores;\n    }\n\n    function getRootKey() external override view returns (bytes32){\n        if (oldCores.length > 0) {\n            return oldCores[0].root;\n        }\n        return core.root;\n    }\n\n    function getVersion() external override pure returns (uint32, uint32){\n        return (majorVersion, minorVersion);\n    }\n\n    function getCurrentSpendingState() external override view returns (uint256, uint256, uint32, uint32){\n        return spendingState.getState();\n    }\n\n    function getNonce() external override view returns (uint8){\n        return commitState.getNonce(core.interval);\n    }\n\n    function getTrackedTokens() external override view returns (Enums.TokenType[] memory, address[] memory, uint256[] memory){\n        return tokenTrackerState.getTrackedTokens();\n    }\n\n    function getBalance(Enums.TokenType tokenType, address contractAddress, uint256 tokenId) external override view returns (uint256){\n        (uint256 balance, bool success, string memory reason) = TokenTracker.getBalance(tokenType, contractAddress, tokenId);\n        require(success, reason);\n        return balance;\n    }\n\n    function getAllCommits() external override view returns (bytes32[] memory, bytes32[] memory, bytes32[] memory, uint32[] memory, bool[] memory){\n        return commitState.getAllCommits();\n    }\n\n\n    function lookupCommit(bytes32 hash) external override view returns (bytes32[] memory, bytes32[] memory, bytes32[] memory, uint32[] memory, bool[] memory){\n        return commitState.lookupCommit(hash);\n    }\n\n    function commit(bytes32 hash, bytes32 paramsHash, bytes32 verificationHash) external override {\n        require(initialized);\n        commitState.commit(hash, paramsHash, verificationHash);\n    }\n\n    /// require approval using recovery cores, unless recovery address is set\n    function _forward(address payable dest) internal {\n        if (address(forwardAddress) == address(this) || dest == address(0)) {\n            emit ForwardAddressInvalid(dest);\n            return;\n        }\n        // TODO: in the next version, add a flag in the parameter indicating whether the operation is from the forwardAddress. If the flag is set, skip the check below\n        //        if (forwardAddress != address(0)) {\n        //            if (!_isRecoveryAddressSet() || dest != recoveryAddress) {\n        //                emit ForwardAddressAlreadySet(dest);\n        //                return;\n        //            }\n        //        }\n        forwardAddress = dest;\n        emit ForwardAddressUpdated(dest);\n        if (!_isRecoveryAddressSet()) {\n            // since approval is gained from recovery cores, we can transfer all assets without violating the principal that no operation should spend more than what is specified in spend limit\n            _setRecoveryAddress(forwardAddress);\n            bool drainSuccess = _drain();\n            emit ForwardedBalance(drainSuccess);\n        } else {\n            uint256 budget = spendingState.getRemainingAllowance();\n            _transfer(forwardAddress, budget);\n            tokenTrackerState.recoverAllTokens(dest);\n        }\n        backlinkAddresses.batchUpdateForwardAddress(dest);\n    }\n\n    /// This function sends all remaining funds and tokens in the wallet to `recoveryAddress`. The caller should verify that `recoveryAddress` is not null.\n    function _drain() internal returns (bool) {\n        // this may be triggered after revealing the proof, and we must prevent revert in all cases\n        (bool success,) = recoveryAddress.call{value : address(this).balance}(\"\");\n        if (success) {\n            forwardAddress = recoveryAddress;\n            tokenTrackerState.recoverAllTokens(recoveryAddress);\n        }\n        return success;\n    }\n\n    function _transfer(address payable dest, uint256 amount) internal returns (bool) {\n        bool canSpend = spendingState.canSpend(dest, amount);\n        if (!canSpend) {\n            return false;\n        }\n        spendingState.accountSpending(amount);\n        (bool success, bytes memory ret) = dest.call{value : amount}(\"\");\n        // we do not want to revert the whole transaction if this operation fails, since EOTP is already revealed\n        if (!success) {\n            spendingState.spentAmount -= amount;\n            emit TransferError(dest, ret);\n            return false;\n        }\n        emit PaymentSent(amount, dest);\n        return true;\n    }\n\n    /// To initiate recovery, client should submit leaf_{-1} as eotp, where leaf_{-1} is the last leaf in OTP Merkle Tree. Note that leaf_0 = hasher(hseed . nonce . OTP . randomness) where hasher is either sha256 or argon2, depending on client's security parameters. The definition of leaf_{-1} ensures attackers cannot use widespread miners to brute-force for seed or hseed, even if keccak256(leaf_{i}) for any i is known. It has been considered that leaf_0 should be used instead of leaf_{-1}, because leaf_0 is extremely unlikely to be used for any wallet operation. It is only used if the user performs any operation within the first 60 seconds of seed generation (when QR code is displayed). Regardless of which leaf is used to trigger recovery, this mechanism ensures hseed remains secret at the client. Even when the leaf becomes public (on blockchain), it is no longer useful because the wallet would already be deprecated (all assets transferred out). It can be used to repeatedly trigger recovery on this deprecated wallet, but that would cause no harm.\n    function _recover() internal returns (bool){\n        if (!_isRecoveryAddressSet()) {\n            emit LastResortAddressNotSet();\n            return false;\n        }\n        if (recoveryAddress == address(this)) {// this should not happen unless recoveryAddress is set at contract creation time, and is deliberately set to contract's own address\n            // nothing needs to be done;\n            return true;\n        }\n        if (!_drain()) {\n            emit RecoveryFailure();\n            return false;\n        }\n        emit RecoveryTriggered();\n        return true;\n    }\n\n    function _overrideRecoveryAddress() internal {\n        recoveryAddress = forwardAddress;\n        emit RecoveryAddressUpdated(recoveryAddress);\n    }\n\n    function _setRecoveryAddress(address payable recoveryAddress_) internal {\n        if (_isRecoveryAddressSet() || recoveryAddress_ == address(this)) {\n            emit RecoveryAddressUpdated(address(0));\n            return;\n        }\n        recoveryAddress = recoveryAddress_;\n        emit RecoveryAddressUpdated(recoveryAddress);\n    }\n\n    function _batch(bytes memory data) internal {\n        OperationParams[] memory batchParams = abi.decode(data, (OperationParams[]));\n        uint8 len = uint8(batchParams.length);\n        for (uint32 i = 0; i < len; i++) {\n            _execute(batchParams[i]);\n        }\n    }\n\n    function reveal(AuthParams calldata auth, OperationParams calldata op) external override {\n        require(initialized);\n        if (msg.sender != forwardAddress) {\n            core.authenticate(oldCores, commitState, auth, op);\n            lastOperationTime = block.timestamp;\n        }\n        _execute(op);\n    }\n\n    function _execute(OperationParams memory op) internal {\n        // No revert should occur below this point\n        if (op.operationType == Enums.OperationType.TRANSFER) {\n            _transfer(op.dest, op.amount);\n        } else if (op.operationType == Enums.OperationType.RECOVER) {\n            _recover();\n        } else if (op.operationType == Enums.OperationType.SET_RECOVERY_ADDRESS) {\n            _setRecoveryAddress(op.dest);\n        } else if (op.operationType == Enums.OperationType.FORWARD) {\n            _forward(op.dest);\n        } else if (op.operationType == Enums.OperationType.CALL) {\n            if (op.tokenId == 0) {\n                _callContract(op.contractAddress, op.amount, op.data);\n            } else {\n                _multiCall(op.data);\n            }\n        } else if (op.operationType == Enums.OperationType.DISPLACE) {\n            CoreManager.displaceCoreWithValidationByBytes(oldCores, core, op.data, forwardAddress);\n        } else if (op.operationType == Enums.OperationType.BATCH) {\n            _batch(op.data);\n        } else {\n            Executor.execute(op, tokenTrackerState, backlinkAddresses, signatures);\n        }\n    }\n\n    function _isRecoveryAddressSet() internal view returns (bool) {\n        return address(recoveryAddress) != address(0) && address(recoveryAddress) != ONE_WALLET_TREASURY;\n    }\n\n    function getBacklinks() external override view returns (IONEWallet[] memory){\n        return backlinkAddresses;\n    }\n\n    function _callContract(address contractAddress, uint256 amount, bytes memory encodedWithSignature) internal {\n        bool canSpend = spendingState.canSpend(contractAddress, amount);\n        if (!canSpend) {\n            emit ExternalCallFailed(contractAddress, amount, encodedWithSignature, \"\");\n            return;\n        }\n        spendingState.accountSpending(amount);\n        (bool success, bytes memory ret) = contractAddress.call{value : amount}(encodedWithSignature);\n        if (success) {\n            emit ExternalCallCompleted(contractAddress, amount, encodedWithSignature, ret);\n        } else {\n            spendingState.spentAmount -= amount;\n            emit ExternalCallFailed(contractAddress, amount, encodedWithSignature, ret);\n        }\n    }\n\n    function _multiCall(bytes memory data) internal {\n        (address[] memory dest, uint256[] memory amounts, bytes[] memory encoded) = abi.decode(data, (address[], uint256[], bytes[]));\n        uint256 totalAmount = 0;\n        for (uint32 i = 0; i < amounts.length; i++) {\n            totalAmount += amounts[i];\n        }\n        if (!spendingState.canSpend(address(0), totalAmount)) {\n            return;\n        }\n        for (uint32 i = 0; i < dest.length; i++) {\n            _callContract(dest[i], amounts[i], encoded[i]);\n        }\n    }\n\n    function supportsInterface(bytes4 interfaceId) public override pure returns (bool) {\n        return interfaceId == this.isValidSignature.selector || TokenManager.supportsInterface(interfaceId);\n    }\n\n    function isValidSignature(bytes32 hash, bytes memory signatureBytes) override public view returns (bytes4){\n        return signatures.isValidSignature(hash, signatureBytes);\n    }\n\n    function listSignatures(uint32 start, uint32 end) external override view returns (bytes32[] memory, bytes32[] memory, uint32[] memory, uint32[] memory){\n        return signatures.list(start, end);\n    }\n\n    function lookupSignature(bytes32 hash) external override view returns (bytes32, uint32, uint32){\n        return signatures.lookup(hash);\n    }\n\n}\n",
  "sourcePath": "/Users/polymorpher/git/one-wallet/code/contracts/ONEWallet.sol",
  "compiler": {
    "name": "solc",
    "version": "0.8.4+commit.c7e474f2.Emscripten.clang"
  },
  "schemaVersion": "3.4.2",
  "updatedAt": "2021-11-14T00:40:04.833Z",
  "devdoc": {
    "kind": "dev",
    "methods": {
      "onERC1155BatchReceived(address,address,uint256[],uint256[],bytes)": {
        "details": "Handles the receipt of a multiple ERC1155 token types. This function is called at the end of a `safeBatchTransferFrom` after the balances have been updated. To accept the transfer(s), this must return `bytes4(keccak256(\"onERC1155BatchReceived(address,address,uint256[],uint256[],bytes)\"))` (i.e. 0xbc197c81, or its own function selector).",
        "params": {
          "data": "Additional data with no specified format",
          "from": "The address which previously owned the token",
          "ids": "An array containing ids of each token being transferred (order and length must match values array)",
          "operator": "The address which initiated the batch transfer (i.e. msg.sender)",
          "values": "An array containing amounts of each token being transferred (order and length must match ids array)"
        },
        "returns": {
          "_0": "`bytes4(keccak256(\"onERC1155BatchReceived(address,address,uint256[],uint256[],bytes)\"))` if transfer is allowed"
        }
      },
      "onERC1155Received(address,address,uint256,uint256,bytes)": {
        "details": "Handles the receipt of a single ERC1155 token type. This function is called at the end of a `safeTransferFrom` after the balance has been updated. To accept the transfer, this must return `bytes4(keccak256(\"onERC1155Received(address,address,uint256,uint256,bytes)\"))` (i.e. 0xf23a6e61, or its own function selector).",
        "params": {
          "data": "Additional data with no specified format",
          "from": "The address which previously owned the token",
          "id": "The ID of the token being transferred",
          "operator": "The address which initiated the transfer (i.e. msg.sender)",
          "value": "The amount of tokens being transferred"
        },
        "returns": {
          "_0": "`bytes4(keccak256(\"onERC1155Received(address,address,uint256,uint256,bytes)\"))` if transfer is allowed"
        }
      },
      "onERC721Received(address,address,uint256,bytes)": {
        "details": "Whenever an {IERC721} `tokenId` token is transferred to this contract via {IERC721-safeTransferFrom} by `operator` from `from`, this function is called. It must return its Solidity selector to confirm the token transfer. If any other value is returned or the interface is not implemented by the recipient, the transfer will be reverted. The selector can be obtained in Solidity with `IERC721.onERC721Received.selector`."
      }
    },
    "version": 1
  },
  "userdoc": {
    "kind": "user",
    "methods": {
      "findCommit(bytes32)": {
        "notice": "DEPRECATED"
      },
      "getCommits()": {
        "notice": "DEPRECATED"
      }
    },
    "version": 1
  }
}