{
  "contractName": "Recovery",
  "abi": [
    {
      "inputs": [],
      "name": "AUTO_RECOVERY_MANDATORY_WAIT_TIME",
      "outputs": [
        {
          "internalType": "uint256",
          "name": "",
          "type": "uint256"
        }
      ],
      "stateMutability": "view",
      "type": "function"
    },
    {
      "inputs": [],
      "name": "AUTO_RECOVERY_TRIGGER_AMOUNT",
      "outputs": [
        {
          "internalType": "uint256",
          "name": "",
          "type": "uint256"
        }
      ],
      "stateMutability": "view",
      "type": "function"
    }
  ],
  "bytecode": "0x60a1610038600b82828239805160001a607314602b57634e487b7160e01b600052600060045260246000fd5b30600052607381538281f3fe7300000000000000000000000000000000000000003014608060405260043610603d5760003560e01c80634210ca30146042578063f5ab9ff314605d575b600080fd5b604b6212750081565b60405190815260200160405180910390f35b604b670de0b6b3a76400008156fea2646970667358221220a138044eddc33f0ea9df25d829f69fa5778c76273ee823a461ed3afb1e390ea864736f6c63430008040033",
  "immutableReferences": {},
  "source": "// SPDX-License-Identifier: Apache-2.0\npragma solidity ^0.8.4;\n\n// does not need to be deployed\nlibrary Recovery {\n    address constant ONE_WALLET_TREASURY = 0x7534978F9fa903150eD429C486D1f42B7fDB7a61;\n    uint256 public constant AUTO_RECOVERY_TRIGGER_AMOUNT = 1 ether;\n    uint256 public constant AUTO_RECOVERY_MANDATORY_WAIT_TIME = 14 days;\n\n    function isRecoveryAddressSet(address recoveryAddress) internal pure returns (bool) {\n        return recoveryAddress != address(0) && recoveryAddress != ONE_WALLET_TREASURY;\n    }\n}\n",
  "sourcePath": "/Users/polymorpher/git/one-wallet/code/contracts/Recovery.sol",
  "compiler": {
    "name": "solc",
    "version": "0.8.4+commit.c7e474f2.Emscripten.clang"
  },
  "schemaVersion": "3.4.2",
  "updatedAt": "2021-11-14T13:19:56.774Z",
  "devdoc": {
    "kind": "dev",
    "methods": {},
    "version": 1
  },
  "userdoc": {
    "kind": "user",
    "methods": {},
    "version": 1
  }
}