{
  "contractName": "Recovery",
  "abi": [
    {
      "inputs": [],
      "name": "START_RECOVERY_TYPEHASH",
      "outputs": [
        {
          "internalType": "bytes32",
          "name": "",
          "type": "bytes32"
        }
      ],
      "stateMutability": "view",
      "type": "function",
      "constant": true
    }
  ],
  "bytecode": "0x610a74610026600b82828239805160001a60731461001957fe5b30600052607381538281f3fe730000000000000000000000000000000000000000301460806040526004361061004b5760003560e01c806330715388146100505780635fd722471461011e57806378a278df14610159575b600080fd5b81801561005c57600080fd5b5061011c600480360360c081101561007357600080fd5b810190808035906020019092919080356fffffffffffffffffffffffffffffffff19169060200190929190803560ff1690602001909291908035906020019092919080359060200190929190803590602001906401000000008111156100d857600080fd5b8201836020820111156100ea57600080fd5b8035906020019184600183028401116401000000008311171561010c57600080fd5b9091929391929390505050610177565b005b81801561012a57600080fd5b506101576004803603602081101561014157600080fd5b810190808035906020019092919050505061039c565b005b610161610571565b6040518082815260200191505060405180910390f35b600061018b88600401805490506002610595565b9050828290506041820214610208576040517f08c379a000000000000000000000000000000000000000000000000000000000815260040180806020018281038252601a8152602001807f57726f6e67206e756d626572206f66207369676e61747572657300000000000081525060200191505060405180910390fd5b6000610216888888886105cd565b9050610267898286868080601f016020809104026020016040519081016040528093929190818152602001838380828437600081840152601f19601f820116905080830192505050505050506106a9565b6102d9576040517f08c379a00000000000000000000000000000000000000000000000000000000081526004018080602001828103825260128152602001807f496e76616c6964207369676e617475726573000000000000000000000000000081525060200191505060405180910390fd5b6040518060a00160405280896fffffffffffffffffffffffffffffffff191681526020018860ff1681526020018781526020018681526020016201518042018152508960090160008201518160000160006101000a8154816fffffffffffffffffffffffffffffffff021916908360801c021790555060208201518160000160106101000a81548160ff021916908360ff160217905550604082015181600101556060820151816002015560808201518160030155905050505050505050505050565b80600901600301544267ffffffffffffffff1611610422576040517f08c379a00000000000000000000000000000000000000000000000000000000081526004018080602001828103825260178152602001807f6f6e676f696e67207265636f7665727920706572696f6400000000000000000081525060200191505060405180910390fd5b8060090160000160009054906101000a900460801b8160000160006101000a8154816fffffffffffffffffffffffffffffffff021916908360801c02179055508060090160000160109054906101000a900460ff168160000160106101000a81548160ff021916908360ff16021790555080600901600101548160010181905550806009016002015481600201819055506040518060a00160405280600060801b6fffffffffffffffffffffffffffffffff19168152602001600060ff168152602001600081526020016000815260200160008152508160090160008201518160000160006101000a8154816fffffffffffffffffffffffffffffffff021916908360801c021790555060208201518160000160106101000a81548160ff021916908360ff16021790555060408201518160010155606082015181600201556080820151816003015590505050565b7f0eff1cacf91ec50b2baf2726da374088d70828d9a8984acae6949e5275ee2fdf81565b6000808284816105a157fe5b04905060008385816105af57fe5b0614156105bf57809150506105c7565b600181019150505b92915050565b6000807f0eff1cacf91ec50b2baf2726da374088d70828d9a8984acae6949e5275ee2fdf8686868660405160200180868152602001856fffffffffffffffffffffffffffffffff191681526020018460ff168152602001838152602001828152602001955050505050506040516020818303038152906040529050808051906020012060405160200180807f19457468657265756d205369676e6564204d6573736167653a0a333200000000815250601c0182815260200191505060405160208183030381529060405280519060200120915050949350505050565b600080825114156106bd57600190506107ef565b6000808560040180548060200260200160405190810160405280929190818152602001828054801561074457602002820191906000526020600020905b8160009054906101000a900473ffffffffffffffffffffffffffffffffffffffff1673ffffffffffffffffffffffffffffffffffffffff16815260200190600101908083116106fa575b50505050509050600080600090505b604186518161075e57fe5b048110156107e65760006107738888846107f6565b90508473ffffffffffffffffffffffffffffffffffffffff168173ffffffffffffffffffffffffffffffffffffffff16116107b6576000955050505050506107ef565b8094506107c384826109c3565b9250826107d8576000955050505050506107ef565b508080600101915050610753565b50600193505050505b9392505050565b60008060008084604102602001860151915084604102604001860151905060ff85604102604101870151169250601b8360ff1614806108385750601c8360ff16145b6108aa576040517f08c379a000000000000000000000000000000000000000000000000000000000815260040180806020018281038252601f8152602001807f5574696c733a2062616420762076616c756520696e207369676e61747572650081525060200191505060405180910390fd5b600060018885858560405160008152602001604052604051808581526020018460ff1681526020018381526020018281526020019450505050506020604051602081039080840390855afa158015610906573d6000803e3d6000fd5b505050602060405103519050600073ffffffffffffffffffffffffffffffffffffffff168173ffffffffffffffffffffffffffffffffffffffff1614156109b5576040517f08c379a000000000000000000000000000000000000000000000000000000000815260040180806020018281038252601b8152602001807f5574696c733a2065637265636f7665722072657475726e65642030000000000081525060200191505060405180910390fd5b809450505050509392505050565b600080600090505b8351811015610a32578381815181106109e057fe5b602002602001015173ffffffffffffffffffffffffffffffffffffffff168373ffffffffffffffffffffffffffffffffffffffff161415610a25576001915050610a38565b80806001019150506109cb565b50600090505b9291505056fea26469706673582212201809790874653c732de1f6d7476021852c89317bb9f5e637fb1cd3f82c52c40e64736f6c63430007060033",
  "immutableReferences": {},
  "source": "pragma solidity ^0.7.6;\n\nimport \"../core/wallet_data.sol\";\n\nlibrary Recovery {\n\n    bytes32 public constant START_RECOVERY_TYPEHASH = keccak256(\n        \"startRecovery(bytes16, uint8, uint, uint)\"\n    );\n\n    function startRecovery(Core.Wallet storage wallet_, bytes16 rootHash_, uint8 merkelHeight_, uint timePeriod_,\n        uint timeOffset_, bytes calldata signatures_) public {\n\n        uint requiredSignatures = ceil(wallet_.guardians.length, 2);\n        require(requiredSignatures * 65 == signatures_.length, \"Wrong number of signatures\");\n\n        bytes32 signHash = getSignHash(rootHash_, merkelHeight_, timePeriod_, timeOffset_);\n        require(validateSignatures(wallet_, signHash, signatures_), \"Invalid signatures\");\n\n        // queue it for next 24hrs\n        wallet_.recovery = Core.RecoveryInfo(rootHash_, merkelHeight_, timePeriod_, timeOffset_, block.timestamp + 86400);\n    }\n\n    function finalizeRecovery(Core.Wallet storage wallet_) public {\n        require(uint64(block.timestamp) > wallet_.recovery.expiration, \"ongoing recovery period\");\n\n        wallet_.rootHash = wallet_.recovery.rootHash;\n        wallet_.merkelHeight = wallet_.recovery.merkelHeight;\n        wallet_.timePeriod = wallet_.recovery.timePeriod;\n        wallet_.timeOffset = wallet_.recovery.timeOffset;\n\n        wallet_.recovery = Core.RecoveryInfo(0, 0, 0, 0, 0);\n    }\n\n    //\n    // Private functions\n    //\n\n    /**\n    * @notice Returns ceil(a / b).\n    */\n    function ceil(uint256 a, uint256 b) internal pure returns (uint256) {\n        uint256 c = a / b;\n        if (a % b == 0) {\n            return c;\n        } else {\n            return c + 1;\n        }\n    }\n\n    function validateSignatures(Core.Wallet storage wallet_, bytes32 _signHash, bytes memory _signatures) internal view returns (bool)\n    {\n        if (_signatures.length == 0) {\n            return true;\n        }\n        address lastSigner = address(0);\n        address[] memory guardians = wallet_.guardians;\n        bool isGuardian;\n\n        for (uint256 i = 0; i < _signatures.length / 65; i++) {\n            address signer = recoverSigner(_signHash, _signatures, i);\n\n            if (signer <= lastSigner) {\n                return false;\n                // Signers must be different\n            }\n            lastSigner = signer;\n            isGuardian = isGuardianAddress(guardians, signer);\n            if (!isGuardian) {\n                return false;\n            }\n        }\n        return true;\n    }\n\n    function isGuardianAddress(address[] memory _guardians, address _guardian) internal view returns (bool) {\n        for (uint256 i = 0; i < _guardians.length; i++) {\n            if (_guardian == _guardians[i]) {\n                return true;\n            }\n        }\n        return false;\n    }\n\n    function getSignHash(bytes16 rootHash_, uint8 merkelHeight_, uint timePeriod_, uint timeOffset_)\n    internal\n    view\n    returns (bytes32)\n    {\n\n        bytes memory encodedData = abi.encode(\n            START_RECOVERY_TYPEHASH,\n            rootHash_,\n            merkelHeight_,\n            timePeriod_,\n            timeOffset_\n        );\n\n        return keccak256(\n            abi.encodePacked(\n                \"\\x19Ethereum Signed Message:\\n32\",\n                keccak256(encodedData)\n            ));\n    }\n\n    function recoverSigner(bytes32 _signedHash, bytes memory _signatures, uint _index) internal pure returns (address) {\n        uint8 v;\n        bytes32 r;\n        bytes32 s;\n        // we jump 32 (0x20) as the first slot of bytes contains the length\n        // we jump 65 (0x41) per signature\n        // for v we load 32 bytes ending with v (the first 31 come from s) then apply a mask\n        // solhint-disable-next-line no-inline-assembly\n        assembly {\n            r := mload(add(_signatures, add(0x20, mul(0x41, _index))))\n            s := mload(add(_signatures, add(0x40, mul(0x41, _index))))\n            v := and(mload(add(_signatures, add(0x41, mul(0x41, _index)))), 0xff)\n        }\n        require(v == 27 || v == 28, \"Utils: bad v value in signature\");\n\n        address recoveredAddress = ecrecover(_signedHash, v, r, s);\n        require(recoveredAddress != address(0), \"Utils: ecrecover returned 0\");\n        return recoveredAddress;\n    }\n\n}\n",
  "sourcePath": "/Users/polymorpher/git/one-wallet/code/contracts/features/recovery.sol",
  "compiler": {
    "name": "solc",
    "version": "0.7.6+commit.7338295f.Emscripten.clang"
  },
  "schemaVersion": "3.3.4",
  "updatedAt": "2021-05-26T07:27:04.134Z",
  "networkType": "ethereum",
  "devdoc": {
    "kind": "dev",
    "methods": {},
    "version": 1
  },
  "userdoc": {
    "kind": "user",
    "methods": {},
    "version": 1
  }
}