{
  "contractName": "Registrar",
  "abi": [
    {
      "anonymous": false,
      "inputs": [
        {
          "indexed": true,
          "internalType": "bytes32",
          "name": "label",
          "type": "bytes32"
        }
      ],
      "name": "DomainConfigured",
      "type": "event"
    },
    {
      "anonymous": false,
      "inputs": [
        {
          "indexed": true,
          "internalType": "bytes32",
          "name": "label",
          "type": "bytes32"
        }
      ],
      "name": "DomainUnlisted",
      "type": "event"
    },
    {
      "anonymous": false,
      "inputs": [
        {
          "indexed": true,
          "internalType": "bytes32",
          "name": "label",
          "type": "bytes32"
        },
        {
          "indexed": false,
          "internalType": "string",
          "name": "subdomain",
          "type": "string"
        },
        {
          "indexed": true,
          "internalType": "address",
          "name": "owner",
          "type": "address"
        },
        {
          "indexed": true,
          "internalType": "address",
          "name": "referrer",
          "type": "address"
        },
        {
          "indexed": false,
          "internalType": "uint256",
          "name": "price",
          "type": "uint256"
        }
      ],
      "name": "NewRegistration",
      "type": "event"
    },
    {
      "anonymous": false,
      "inputs": [
        {
          "indexed": true,
          "internalType": "bytes32",
          "name": "label",
          "type": "bytes32"
        },
        {
          "indexed": true,
          "internalType": "address",
          "name": "oldOwner",
          "type": "address"
        },
        {
          "indexed": true,
          "internalType": "address",
          "name": "newOwner",
          "type": "address"
        }
      ],
      "name": "OwnerChanged",
      "type": "event"
    },
    {
      "anonymous": false,
      "inputs": [
        {
          "indexed": true,
          "internalType": "bytes32",
          "name": "label",
          "type": "bytes32"
        },
        {
          "indexed": false,
          "internalType": "string",
          "name": "subdomain",
          "type": "string"
        },
        {
          "indexed": false,
          "internalType": "uint256",
          "name": "amount",
          "type": "uint256"
        },
        {
          "indexed": false,
          "internalType": "uint256",
          "name": "expirationDate",
          "type": "uint256"
        }
      ],
      "name": "RentPaid",
      "type": "event"
    },
    {
      "inputs": [
        {
          "internalType": "bytes32",
          "name": "",
          "type": "bytes32"
        },
        {
          "internalType": "string",
          "name": "",
          "type": "string"
        }
      ],
      "name": "query",
      "outputs": [
        {
          "internalType": "string",
          "name": "domain",
          "type": "string"
        },
        {
          "internalType": "uint256",
          "name": "signupFee",
          "type": "uint256"
        },
        {
          "internalType": "uint256",
          "name": "rent",
          "type": "uint256"
        },
        {
          "internalType": "uint256",
          "name": "referralFeePPM",
          "type": "uint256"
        }
      ],
      "stateMutability": "pure",
      "type": "function"
    },
    {
      "inputs": [
        {
          "internalType": "bytes32",
          "name": "",
          "type": "bytes32"
        },
        {
          "internalType": "string",
          "name": "",
          "type": "string"
        },
        {
          "internalType": "address",
          "name": "",
          "type": "address"
        },
        {
          "internalType": "address payable",
          "name": "",
          "type": "address"
        },
        {
          "internalType": "address",
          "name": "",
          "type": "address"
        }
      ],
      "name": "register",
      "outputs": [],
      "stateMutability": "payable",
      "type": "function"
    },
    {
      "inputs": [
        {
          "internalType": "bytes32",
          "name": "",
          "type": "bytes32"
        },
        {
          "internalType": "string",
          "name": "",
          "type": "string"
        }
      ],
      "name": "rentDue",
      "outputs": [
        {
          "internalType": "uint256",
          "name": "timestamp",
          "type": "uint256"
        }
      ],
      "stateMutability": "pure",
      "type": "function"
    },
    {
      "inputs": [
        {
          "internalType": "bytes32",
          "name": "",
          "type": "bytes32"
        },
        {
          "internalType": "string",
          "name": "",
          "type": "string"
        }
      ],
      "name": "payRent",
      "outputs": [],
      "stateMutability": "payable",
      "type": "function"
    }
  ],
  "bytecode": "0x608060405234801561001057600080fd5b506102b9806100206000396000f3fe60806040526004361061003f5760003560e01c80632eef3d65146100445780634254b15514610093578063660b7ad5146100ab578063cb01a9bf146100dd575b600080fd5b34801561005057600080fd5b5061007a61005f366004610137565b60408051602081019091526000808252808093509350935093565b60405161008a9493929190610204565b60405180910390f35b6100a96100a1366004610181565b505050505050565b005b3480156100b757600080fd5b506100cf6100c6366004610137565b60009392505050565b60405190815260200161008a565b6100a96100eb366004610137565b505050565b60008083601f840112610101578182fd5b50813567ffffffffffffffff811115610118578182fd5b60208301915083602082850101111561013057600080fd5b9250929050565b60008060006040848603121561014b578283fd5b83359250602084013567ffffffffffffffff811115610168578283fd5b610174868287016100f0565b9497909650939450505050565b60008060008060008060a08789031215610199578182fd5b86359550602087013567ffffffffffffffff8111156101b6578283fd5b6101c289828a016100f0565b90965094505060408701356101d68161026b565b925060608701356101e68161026b565b915060808701356101f68161026b565b809150509295509295509295565b6080815260008551806080840152815b8181101561023157602081890181015160a0868401015201610214565b81811115610242578260a083860101525b506020830195909552506040810192909252606082015260a0601f909201601f19160101919050565b6001600160a01b038116811461028057600080fd5b5056fea2646970667358221220122a269dccb7bd3c964c2f1003aff5662114992a92627e3f7a847c266365eb6164736f6c63430008040033",
  "immutableReferences": {},
  "source": "// SPDX-License-Identifier: Apache-2.0\npragma solidity ^0.8.4;\n\nimport \"@ensdomains/subdomain-registrar-core/contracts/interfaces/IRegistrar.sol\";\nimport \"@ensdomains/subdomain-registrar-core/contracts/interfaces/IReverseRegistrar.sol\";\n\ncontract Registrar is IRegistrar {\n    function query(bytes32 /*label*/, string calldata /*subdomain*/) external override pure returns (string memory domain, uint signupFee, uint rent, uint referralFeePPM){\n        return (\"\", 0, 0, 0);\n    }\n\n    function register(bytes32 /*label*/, string calldata /*subdomain*/, address /*owner*/, address payable /*referrer*/, address /*resolver*/) external override payable {\n\n    }\n\n    function rentDue(bytes32 /*label*/, string calldata /*subdomain*/) external override pure returns (uint timestamp){\n        return 0;\n    }\n\n    function payRent(bytes32 /*label*/, string calldata /*subdomain*/) external override  payable {\n\n    }\n}\n\ncontract ReverseRegistrar is IReverseRegistrar {\n    function claim(address /*owner*/) external pure override returns (bytes32){\n        return bytes32(0);\n    }\n\n    function node(address /*addr*/) external pure override returns (bytes32){\n        return bytes32(0);\n    }\n\n    function setName(string memory /*name*/) external pure override returns (bytes32){\n        return bytes32(0);\n    }\n\n    function claimWithResolver(address /*owner*/, address /*resolver*/) external pure override returns (bytes32){\n        return bytes32(0);\n    }\n    // DOES NOT EXIST in vanilla ens/ReverseRegistrar.sol. Added in ens-contracts/contracts/registry/ReverseRegistrar\n    function claimForAddr(address /*addr*/, address /*owner*/) external pure override {\n\n    }\n    // DOES NOT EXIST in vanilla ens/ReverseRegistrar.sol. Added in ens-contracts/contracts/registry/ReverseRegistrar\n    function claimWithResolverForAddr(\n        address /*addr*/,\n        address /*owner*/,\n        address /*resolver*/\n    ) external pure override returns (bytes32){\n        return bytes32(0);\n    }\n}\n",
  "sourcePath": "/Users/polymorpher/git/one-wallet/code/contracts/debug/Registrar.sol",
  "compiler": {
    "name": "solc",
    "version": "0.8.4+commit.c7e474f2.Emscripten.clang"
  },
  "schemaVersion": "3.4.2",
  "updatedAt": "2021-08-16T12:37:32.258Z",
  "devdoc": {
    "kind": "dev",
    "methods": {},
    "version": 1
  },
  "userdoc": {
    "kind": "user",
    "methods": {},
    "version": 1
  }
}