{
  "contractName": "Registrar",
  "abi": [
    {
      "anonymous": false,
      "inputs": [
        {
          "indexed": true,
          "internalType": "bytes32",
          "name": "label",
          "type": "bytes32"
        }
      ],
      "name": "DomainConfigured",
      "type": "event"
    },
    {
      "anonymous": false,
      "inputs": [
        {
          "indexed": true,
          "internalType": "bytes32",
          "name": "label",
          "type": "bytes32"
        }
      ],
      "name": "DomainUnlisted",
      "type": "event"
    },
    {
      "anonymous": false,
      "inputs": [
        {
          "indexed": true,
          "internalType": "bytes32",
          "name": "label",
          "type": "bytes32"
        },
        {
          "indexed": false,
          "internalType": "string",
          "name": "subdomain",
          "type": "string"
        },
        {
          "indexed": true,
          "internalType": "address",
          "name": "owner",
          "type": "address"
        },
        {
          "indexed": true,
          "internalType": "address",
          "name": "referrer",
          "type": "address"
        },
        {
          "indexed": false,
          "internalType": "uint256",
          "name": "price",
          "type": "uint256"
        }
      ],
      "name": "NewRegistration",
      "type": "event"
    },
    {
      "anonymous": false,
      "inputs": [
        {
          "indexed": true,
          "internalType": "bytes32",
          "name": "label",
          "type": "bytes32"
        },
        {
          "indexed": true,
          "internalType": "address",
          "name": "oldOwner",
          "type": "address"
        },
        {
          "indexed": true,
          "internalType": "address",
          "name": "newOwner",
          "type": "address"
        }
      ],
      "name": "OwnerChanged",
      "type": "event"
    },
    {
      "anonymous": false,
      "inputs": [
        {
          "indexed": true,
          "internalType": "bytes32",
          "name": "label",
          "type": "bytes32"
        },
        {
          "indexed": false,
          "internalType": "string",
          "name": "subdomain",
          "type": "string"
        },
        {
          "indexed": false,
          "internalType": "uint256",
          "name": "amount",
          "type": "uint256"
        },
        {
          "indexed": false,
          "internalType": "uint256",
          "name": "expirationDate",
          "type": "uint256"
        }
      ],
      "name": "RentPaid",
      "type": "event"
    },
    {
      "inputs": [
        {
          "internalType": "bytes32",
          "name": "",
          "type": "bytes32"
        },
        {
          "internalType": "string",
          "name": "",
          "type": "string"
        }
      ],
      "name": "query",
      "outputs": [
        {
          "internalType": "string",
          "name": "domain",
          "type": "string"
        },
        {
          "internalType": "uint256",
          "name": "signupFee",
          "type": "uint256"
        },
        {
          "internalType": "uint256",
          "name": "rent",
          "type": "uint256"
        },
        {
          "internalType": "uint256",
          "name": "referralFeePPM",
          "type": "uint256"
        }
      ],
      "stateMutability": "pure",
      "type": "function"
    },
    {
      "inputs": [
        {
          "internalType": "bytes32",
          "name": "",
          "type": "bytes32"
        },
        {
          "internalType": "string",
          "name": "",
          "type": "string"
        }
      ],
      "name": "rentDue",
      "outputs": [
        {
          "internalType": "uint256",
          "name": "timestamp",
          "type": "uint256"
        }
      ],
      "stateMutability": "pure",
      "type": "function"
    },
    {
      "inputs": [
        {
          "internalType": "bytes32",
          "name": "",
          "type": "bytes32"
        },
        {
          "internalType": "string",
          "name": "",
          "type": "string"
        }
      ],
      "name": "payRent",
      "outputs": [],
      "stateMutability": "payable",
      "type": "function"
    },
    {
      "inputs": [
        {
          "internalType": "string",
          "name": "",
          "type": "string"
        },
        {
          "internalType": "uint256",
          "name": "",
          "type": "uint256"
        },
        {
          "internalType": "address payable",
          "name": "",
          "type": "address"
        },
        {
          "internalType": "address payable",
          "name": "",
          "type": "address"
        },
        {
          "internalType": "address",
          "name": "",
          "type": "address"
        }
      ],
      "name": "configureDomainFor",
      "outputs": [],
      "stateMutability": "pure",
      "type": "function"
    },
    {
      "inputs": [
        {
          "internalType": "string",
          "name": "",
          "type": "string"
        },
        {
          "internalType": "uint256",
          "name": "",
          "type": "uint256"
        },
        {
          "internalType": "uint256",
          "name": "",
          "type": "uint256"
        },
        {
          "internalType": "address payable",
          "name": "",
          "type": "address"
        },
        {
          "internalType": "address",
          "name": "",
          "type": "address"
        }
      ],
      "name": "configureDomainFor",
      "outputs": [],
      "stateMutability": "pure",
      "type": "function"
    },
    {
      "inputs": [
        {
          "internalType": "bytes32",
          "name": "",
          "type": "bytes32"
        },
        {
          "internalType": "string",
          "name": "",
          "type": "string"
        },
        {
          "internalType": "address",
          "name": "",
          "type": "address"
        },
        {
          "internalType": "address payable",
          "name": "",
          "type": "address"
        },
        {
          "internalType": "address",
          "name": "",
          "type": "address"
        }
      ],
      "name": "register",
      "outputs": [],
      "stateMutability": "payable",
      "type": "function"
    },
    {
      "inputs": [
        {
          "internalType": "bytes32",
          "name": "",
          "type": "bytes32"
        },
        {
          "internalType": "string",
          "name": "",
          "type": "string"
        },
        {
          "internalType": "address",
          "name": "",
          "type": "address"
        },
        {
          "internalType": "uint256",
          "name": "",
          "type": "uint256"
        },
        {
          "internalType": "string",
          "name": "",
          "type": "string"
        },
        {
          "internalType": "address",
          "name": "",
          "type": "address"
        }
      ],
      "name": "register",
      "outputs": [],
      "stateMutability": "payable",
      "type": "function"
    },
    {
      "inputs": [
        {
          "internalType": "string",
          "name": "",
          "type": "string"
        },
        {
          "internalType": "uint256",
          "name": "",
          "type": "uint256"
        }
      ],
      "name": "rentPrice",
      "outputs": [
        {
          "internalType": "uint256",
          "name": "",
          "type": "uint256"
        }
      ],
      "stateMutability": "view",
      "type": "function"
    },
    {
      "inputs": [
        {
          "internalType": "string",
          "name": "name",
          "type": "string"
        },
        {
          "internalType": "address payable",
          "name": "newOwner",
          "type": "address"
        }
      ],
      "name": "transfer",
      "outputs": [],
      "stateMutability": "nonpayable",
      "type": "function"
    },
    {
      "inputs": [
        {
          "internalType": "bytes32",
          "name": "label",
          "type": "bytes32"
        },
        {
          "internalType": "string",
          "name": "subdomain",
          "type": "string"
        },
        {
          "internalType": "uint256",
          "name": "duration",
          "type": "uint256"
        }
      ],
      "name": "renew",
      "outputs": [],
      "stateMutability": "payable",
      "type": "function"
    }
  ],
  "bytecode": "0x608060405234801561001057600080fd5b506106b6806100206000396000f3fe6080604052600436106100915760003560e01c8063c837b0d111610059578063c837b0d114610174578063cb01a9bf14610188578063cf7752551461019b578063eab585b0146101b6578063fbf58b3e146101ce57600080fd5b80632eef3d65146100965780634254b155146100e5578063660b7ad5146100fd57806383e7f6ff1461012f578063880fa5a314610152575b600080fd5b3480156100a257600080fd5b506100cc6100b13660046102bb565b60408051602081019091526000808252808093509350935093565b6040516100dc94939291906105eb565b60405180910390f35b6100fb6100f3366004610305565b505050505050565b005b34801561010957600080fd5b506101216101183660046102bb565b60009392505050565b6040519081526020016100dc565b34801561013b57600080fd5b5061012161014a3660046104d1565b600092915050565b34801561015e57600080fd5b506100fb61016d366004610514565b5050505050565b6100fb610182366004610430565b50505050565b6100fb6101963660046102bb565b505050565b3480156101a757600080fd5b506100fb61016d366004610593565b6100fb6101c4366004610388565b5050505050505050565b3480156101da57600080fd5b506100fb6101e9366004610481565b5050565b60008083601f8401126101fe578182fd5b50813567ffffffffffffffff811115610215578182fd5b60208301915083602082850101111561022d57600080fd5b9250929050565b600082601f830112610244578081fd5b813567ffffffffffffffff8082111561025f5761025f610652565b604051601f8301601f19908116603f0116810190828211818310171561028757610287610652565b8160405283815286602085880101111561029f578485fd5b8360208701602083013792830160200193909352509392505050565b6000806000604084860312156102cf578283fd5b83359250602084013567ffffffffffffffff8111156102ec578283fd5b6102f8868287016101ed565b9497909650939450505050565b60008060008060008060a0878903121561031d578182fd5b86359550602087013567ffffffffffffffff81111561033a578283fd5b61034689828a016101ed565b909650945050604087013561035a81610668565b9250606087013561036a81610668565b9150608087013561037a81610668565b809150509295509295509295565b60008060008060008060008060c0898b0312156103a3578182fd5b88359750602089013567ffffffffffffffff808211156103c1578384fd5b6103cd8c838d016101ed565b909950975060408b013591506103e282610668565b90955060608a0135945060808a013590808211156103fe578384fd5b5061040b8b828c016101ed565b90945092505060a089013561041f81610668565b809150509295985092959890939650565b60008060008060608587031215610445578384fd5b84359350602085013567ffffffffffffffff811115610462578384fd5b61046e878288016101ed565b9598909750949560400135949350505050565b60008060408385031215610493578182fd5b823567ffffffffffffffff8111156104a9578283fd5b6104b585828601610234565b92505060208301356104c681610668565b809150509250929050565b600080604083850312156104e3578182fd5b823567ffffffffffffffff8111156104f9578283fd5b61050585828601610234565b95602094909401359450505050565b600080600080600060a0868803121561052b578081fd5b853567ffffffffffffffff811115610541578182fd5b61054d88828901610234565b95505060208601359350604086013561056581610668565b9250606086013561057581610668565b9150608086013561058581610668565b809150509295509295909350565b600080600080600060a086880312156105aa578081fd5b853567ffffffffffffffff8111156105c0578182fd5b6105cc88828901610234565b9550506020860135935060408601359250606086013561057581610668565b6080815260008551806080840152815b8181101561061857602081890181015160a08684010152016105fb565b81811115610629578260a083860101525b506020830195909552506040810192909252606082015260a0601f909201601f19160101919050565b634e487b7160e01b600052604160045260246000fd5b6001600160a01b038116811461067d57600080fd5b5056fea2646970667358221220a694bf77dde9ba8d33d4ce6b0f48827d3e2ad30951c808795cf9daa90456fa6764736f6c63430008040033",
  "immutableReferences": {},
  "source": "// SPDX-License-Identifier: Apache-2.0\npragma solidity ^0.8.4;\n\nimport \"@ensdomains/subdomain-registrar-core/contracts/interfaces/IRegistrar.sol\";\nimport \"@ensdomains/subdomain-registrar-core/contracts/Resolver.sol\";\nimport \"@ensdomains/subdomain-registrar-core/contracts/interfaces/IReverseRegistrar.sol\";\nimport \"@ensdomains/subdomain-registrar-core/contracts/interfaces/IDefaultReverseResolver.sol\";\n\ncontract Registrar is IRegistrar {\n    function query(bytes32 /*label*/, string calldata /*subdomain*/) external override pure returns (string memory domain, uint signupFee, uint rent, uint referralFeePPM){\n        return (\"\", 0, 0, 0);\n    }\n\n    function register(bytes32 /*label*/, string calldata /*subdomain*/, address /*owner*/, address payable /*referrer*/, address /*resolver*/) external override payable {\n\n    }\n\n    function rentDue(bytes32 /*label*/, string calldata /*subdomain*/) external override pure returns (uint timestamp){\n        return 0;\n    }\n\n    function payRent(bytes32 /*label*/, string calldata /*subdomain*/) external override payable {\n\n    }\n\n    function configureDomainFor(string memory /*name*/, uint /*price*/, uint /*referralFeePPM*/, address payable /*_owner*/, address /*_transfer*/) external override pure {\n\n    }\n\n    /// Harmony specific implementation: https://github.com/harmony-one/subdomain-registrar/blob/one-names-v4/contracts/EthRegistrarSubdomainRegistrar.sol#L139\n    function configureDomainFor(string memory /*name*/, uint /*price*/, address payable /*referralAddress*/, address payable /*_owner*/, address /*_transfer*/) override pure external {\n\n    }\n\n    /// Harmony specific implementation: https://github.com/harmony-one/subdomain-registrar/blob/one-names-v4/contracts/EthRegistrarSubdomainRegistrar.sol#L229\n    function register(bytes32 /*label*/, string calldata /*subdomain*/, address /*_subdomainOwner*/, uint /*duration*/, string calldata /*url*/, address /*resolver*/) override external payable {\n\n    }\n\n    function rentPrice(string memory /*name*/, uint /*duration*/) override virtual external view returns (uint256) {\n        return 0;\n    }\n\n    function transfer(string memory name, address payable newOwner) override external{\n\n    }\n\n    /// Harmony specific: https://github.com/harmony-one/subdomain-registrar/blob/one-names-v4/contracts/EthRegistrarSubdomainRegistrar.sol#L64\n    function renew(bytes32 label, string calldata subdomain, uint duration) override external payable{\n\n    }\n}\n\ncontract ReverseRegistrar is IReverseRegistrar {\n    function claim(address /*owner*/) external pure override returns (bytes32){\n        return bytes32(0);\n    }\n\n    function node(address /*addr*/) external pure override returns (bytes32){\n        return bytes32(0);\n    }\n\n    function setName(string memory /*name*/) external pure override returns (bytes32){\n        return bytes32(0);\n    }\n\n    function claimWithResolver(address /*owner*/, address /*resolver*/) external pure override returns (bytes32){\n        return bytes32(0);\n    }\n    // DOES NOT EXIST in vanilla ens/ReverseRegistrar.sol. Added in ens-contracts/contracts/registry/ReverseRegistrar\n    function claimForAddr(address /*addr*/, address /*owner*/) external pure override {\n\n    }\n    // DOES NOT EXIST in vanilla ens/ReverseRegistrar.sol. Added in ens-contracts/contracts/registry/ReverseRegistrar\n    function claimWithResolverForAddr(\n        address /*addr*/,\n        address /*owner*/,\n        address /*resolver*/\n    ) external pure override returns (bytes32){\n        return bytes32(0);\n    }\n}\n",
  "sourcePath": "/Users/polymorpher/git/one-wallet/code/contracts/debug/Registrar.sol",
  "compiler": {
    "name": "solc",
    "version": "0.8.4+commit.c7e474f2.Emscripten.clang"
  },
  "schemaVersion": "3.4.2",
  "updatedAt": "2021-08-22T10:25:23.270Z",
  "devdoc": {
    "kind": "dev",
    "methods": {},
    "version": 1
  },
  "userdoc": {
    "kind": "user",
    "methods": {
      "configureDomainFor(string,uint256,address,address,address)": {
        "notice": "Harmony specific implementation: https://github.com/harmony-one/subdomain-registrar/blob/one-names-v4/contracts/EthRegistrarSubdomainRegistrar.sol#L139"
      },
      "register(bytes32,string,address,uint256,string,address)": {
        "notice": "Harmony specific implementation: https://github.com/harmony-one/subdomain-registrar/blob/one-names-v4/contracts/EthRegistrarSubdomainRegistrar.sol#L229"
      },
      "renew(bytes32,string,uint256)": {
        "notice": "Harmony specific: https://github.com/harmony-one/subdomain-registrar/blob/one-names-v4/contracts/EthRegistrarSubdomainRegistrar.sol#L64"
      }
    },
    "version": 1
  }
}