{
  "contractName": "Registrar",
  "abi": [
    {
      "anonymous": false,
      "inputs": [
        {
          "indexed": true,
          "internalType": "bytes32",
          "name": "label",
          "type": "bytes32"
        }
      ],
      "name": "DomainConfigured",
      "type": "event"
    },
    {
      "anonymous": false,
      "inputs": [
        {
          "indexed": true,
          "internalType": "bytes32",
          "name": "label",
          "type": "bytes32"
        }
      ],
      "name": "DomainUnlisted",
      "type": "event"
    },
    {
      "anonymous": false,
      "inputs": [
        {
          "indexed": true,
          "internalType": "bytes32",
          "name": "label",
          "type": "bytes32"
        },
        {
          "indexed": false,
          "internalType": "string",
          "name": "subdomain",
          "type": "string"
        },
        {
          "indexed": true,
          "internalType": "address",
          "name": "owner",
          "type": "address"
        },
        {
          "indexed": true,
          "internalType": "address",
          "name": "referrer",
          "type": "address"
        },
        {
          "indexed": false,
          "internalType": "uint256",
          "name": "price",
          "type": "uint256"
        }
      ],
      "name": "NewRegistration",
      "type": "event"
    },
    {
      "anonymous": false,
      "inputs": [
        {
          "indexed": true,
          "internalType": "bytes32",
          "name": "label",
          "type": "bytes32"
        },
        {
          "indexed": true,
          "internalType": "address",
          "name": "oldOwner",
          "type": "address"
        },
        {
          "indexed": true,
          "internalType": "address",
          "name": "newOwner",
          "type": "address"
        }
      ],
      "name": "OwnerChanged",
      "type": "event"
    },
    {
      "anonymous": false,
      "inputs": [
        {
          "indexed": true,
          "internalType": "bytes32",
          "name": "label",
          "type": "bytes32"
        },
        {
          "indexed": false,
          "internalType": "string",
          "name": "subdomain",
          "type": "string"
        },
        {
          "indexed": false,
          "internalType": "uint256",
          "name": "amount",
          "type": "uint256"
        },
        {
          "indexed": false,
          "internalType": "uint256",
          "name": "expirationDate",
          "type": "uint256"
        }
      ],
      "name": "RentPaid",
      "type": "event"
    },
    {
      "inputs": [
        {
          "internalType": "bytes32",
          "name": "",
          "type": "bytes32"
        },
        {
          "internalType": "string",
          "name": "",
          "type": "string"
        }
      ],
      "name": "query",
      "outputs": [
        {
          "internalType": "string",
          "name": "domain",
          "type": "string"
        },
        {
          "internalType": "uint256",
          "name": "signupFee",
          "type": "uint256"
        },
        {
          "internalType": "uint256",
          "name": "rent",
          "type": "uint256"
        },
        {
          "internalType": "uint256",
          "name": "referralFeePPM",
          "type": "uint256"
        }
      ],
      "stateMutability": "pure",
      "type": "function"
    },
    {
      "inputs": [
        {
          "internalType": "bytes32",
          "name": "",
          "type": "bytes32"
        },
        {
          "internalType": "string",
          "name": "",
          "type": "string"
        }
      ],
      "name": "rentDue",
      "outputs": [
        {
          "internalType": "uint256",
          "name": "timestamp",
          "type": "uint256"
        }
      ],
      "stateMutability": "pure",
      "type": "function"
    },
    {
      "inputs": [
        {
          "internalType": "bytes32",
          "name": "",
          "type": "bytes32"
        },
        {
          "internalType": "string",
          "name": "",
          "type": "string"
        }
      ],
      "name": "payRent",
      "outputs": [],
      "stateMutability": "payable",
      "type": "function"
    },
    {
      "inputs": [
        {
          "internalType": "string",
          "name": "",
          "type": "string"
        },
        {
          "internalType": "uint256",
          "name": "",
          "type": "uint256"
        },
        {
          "internalType": "address payable",
          "name": "",
          "type": "address"
        },
        {
          "internalType": "address payable",
          "name": "",
          "type": "address"
        },
        {
          "internalType": "address",
          "name": "",
          "type": "address"
        }
      ],
      "name": "configureDomainFor",
      "outputs": [],
      "stateMutability": "pure",
      "type": "function"
    },
    {
      "inputs": [
        {
          "internalType": "string",
          "name": "",
          "type": "string"
        },
        {
          "internalType": "uint256",
          "name": "",
          "type": "uint256"
        },
        {
          "internalType": "uint256",
          "name": "",
          "type": "uint256"
        },
        {
          "internalType": "address payable",
          "name": "",
          "type": "address"
        },
        {
          "internalType": "address",
          "name": "",
          "type": "address"
        }
      ],
      "name": "configureDomainFor",
      "outputs": [],
      "stateMutability": "pure",
      "type": "function"
    },
    {
      "inputs": [
        {
          "internalType": "bytes32",
          "name": "",
          "type": "bytes32"
        },
        {
          "internalType": "string",
          "name": "",
          "type": "string"
        },
        {
          "internalType": "address",
          "name": "",
          "type": "address"
        },
        {
          "internalType": "address payable",
          "name": "",
          "type": "address"
        },
        {
          "internalType": "address",
          "name": "",
          "type": "address"
        }
      ],
      "name": "register",
      "outputs": [],
      "stateMutability": "payable",
      "type": "function"
    },
    {
      "inputs": [
        {
          "internalType": "bytes32",
          "name": "",
          "type": "bytes32"
        },
        {
          "internalType": "string",
          "name": "",
          "type": "string"
        },
        {
          "internalType": "address",
          "name": "",
          "type": "address"
        },
        {
          "internalType": "uint256",
          "name": "",
          "type": "uint256"
        },
        {
          "internalType": "string",
          "name": "",
          "type": "string"
        },
        {
          "internalType": "address",
          "name": "",
          "type": "address"
        }
      ],
      "name": "register",
      "outputs": [],
      "stateMutability": "payable",
      "type": "function"
    },
    {
      "inputs": [
        {
          "internalType": "string",
          "name": "",
          "type": "string"
        },
        {
          "internalType": "uint256",
          "name": "",
          "type": "uint256"
        }
      ],
      "name": "rentPrice",
      "outputs": [
        {
          "internalType": "uint256",
          "name": "",
          "type": "uint256"
        }
      ],
      "stateMutability": "view",
      "type": "function"
    },
    {
      "inputs": [
        {
          "internalType": "string",
          "name": "name",
          "type": "string"
        },
        {
          "internalType": "address payable",
          "name": "newOwner",
          "type": "address"
        }
      ],
      "name": "transfer",
      "outputs": [],
      "stateMutability": "nonpayable",
      "type": "function"
    },
    {
      "inputs": [
        {
          "internalType": "bytes32",
          "name": "label",
          "type": "bytes32"
        },
        {
          "internalType": "string",
          "name": "subdomain",
          "type": "string"
        },
        {
          "internalType": "uint256",
          "name": "duration",
          "type": "uint256"
        }
      ],
      "name": "renew",
      "outputs": [],
      "stateMutability": "payable",
      "type": "function"
    },
    {
      "inputs": [],
      "name": "ens",
      "outputs": [
        {
          "internalType": "address",
          "name": "",
          "type": "address"
        }
      ],
      "stateMutability": "view",
      "type": "function"
    }
  ],
  "bytecode": "0x608060405234801561001057600080fd5b506106dd806100206000396000f3fe60806040526004361061009c5760003560e01c8063880fa5a311610064578063880fa5a314610179578063c837b0d11461019b578063cb01a9bf146101af578063cf775255146101c2578063eab585b0146101dd578063fbf58b3e146101f557600080fd5b80632eef3d65146100a15780633f15457f146100f05780634254b1551461010c578063660b7ad51461012457806383e7f6ff14610156575b600080fd5b3480156100ad57600080fd5b506100d76100bc3660046102e2565b60408051602081019091526000808252808093509350935093565b6040516100e79493929190610612565b60405180910390f35b3480156100fc57600080fd5b50604051600081526020016100e7565b61012261011a36600461032c565b505050505050565b005b34801561013057600080fd5b5061014861013f3660046102e2565b60009392505050565b6040519081526020016100e7565b34801561016257600080fd5b506101486101713660046104f8565b600092915050565b34801561018557600080fd5b5061012261019436600461053b565b5050505050565b6101226101a9366004610457565b50505050565b6101226101bd3660046102e2565b505050565b3480156101ce57600080fd5b506101226101943660046105ba565b6101226101eb3660046103af565b5050505050505050565b34801561020157600080fd5b506101226102103660046104a8565b5050565b60008083601f840112610225578182fd5b50813567ffffffffffffffff81111561023c578182fd5b60208301915083602082850101111561025457600080fd5b9250929050565b600082601f83011261026b578081fd5b813567ffffffffffffffff8082111561028657610286610679565b604051601f8301601f19908116603f011681019082821181831017156102ae576102ae610679565b816040528381528660208588010111156102c6578485fd5b8360208701602083013792830160200193909352509392505050565b6000806000604084860312156102f6578283fd5b83359250602084013567ffffffffffffffff811115610313578283fd5b61031f86828701610214565b9497909650939450505050565b60008060008060008060a08789031215610344578182fd5b86359550602087013567ffffffffffffffff811115610361578283fd5b61036d89828a01610214565b90965094505060408701356103818161068f565b925060608701356103918161068f565b915060808701356103a18161068f565b809150509295509295509295565b60008060008060008060008060c0898b0312156103ca578182fd5b88359750602089013567ffffffffffffffff808211156103e8578384fd5b6103f48c838d01610214565b909950975060408b013591506104098261068f565b90955060608a0135945060808a01359080821115610425578384fd5b506104328b828c01610214565b90945092505060a08901356104468161068f565b809150509295985092959890939650565b6000806000806060858703121561046c578384fd5b84359350602085013567ffffffffffffffff811115610489578384fd5b61049587828801610214565b9598909750949560400135949350505050565b600080604083850312156104ba578182fd5b823567ffffffffffffffff8111156104d0578283fd5b6104dc8582860161025b565b92505060208301356104ed8161068f565b809150509250929050565b6000806040838503121561050a578182fd5b823567ffffffffffffffff811115610520578283fd5b61052c8582860161025b565b95602094909401359450505050565b600080600080600060a08688031215610552578081fd5b853567ffffffffffffffff811115610568578182fd5b6105748882890161025b565b95505060208601359350604086013561058c8161068f565b9250606086013561059c8161068f565b915060808601356105ac8161068f565b809150509295509295909350565b600080600080600060a086880312156105d1578081fd5b853567ffffffffffffffff8111156105e7578182fd5b6105f38882890161025b565b9550506020860135935060408601359250606086013561059c8161068f565b6080815260008551806080840152815b8181101561063f57602081890181015160a0868401015201610622565b81811115610650578260a083860101525b506020830195909552506040810192909252606082015260a0601f909201601f19160101919050565b634e487b7160e01b600052604160045260246000fd5b6001600160a01b03811681146106a457600080fd5b5056fea264697066735822122076542e222049f9f6be410869e31041f2991cc6e1bc80e7d1912736b163872fb864736f6c63430008040033",
  "immutableReferences": {},
  "source": "// SPDX-License-Identifier: Apache-2.0\npragma solidity ^0.8.4;\n\nimport \"@ensdomains/subdomain-registrar-core/contracts/interfaces/IRegistrar.sol\";\nimport \"@ensdomains/subdomain-registrar-core/contracts/Resolver.sol\";\nimport \"@ensdomains/subdomain-registrar-core/contracts/interfaces/IReverseRegistrar.sol\";\nimport \"@ensdomains/subdomain-registrar-core/contracts/interfaces/IDefaultReverseResolver.sol\";\n\ncontract Registrar is IRegistrar {\n    function query(bytes32 /*label*/, string calldata /*subdomain*/) external override pure returns (string memory domain, uint signupFee, uint rent, uint referralFeePPM){\n        return (\"\", 0, 0, 0);\n    }\n\n    function register(bytes32 /*label*/, string calldata /*subdomain*/, address /*owner*/, address payable /*referrer*/, address /*resolver*/) external override payable {\n\n    }\n\n    function rentDue(bytes32 /*label*/, string calldata /*subdomain*/) external override pure returns (uint timestamp){\n        return 0;\n    }\n\n    function payRent(bytes32 /*label*/, string calldata /*subdomain*/) external override payable {\n\n    }\n\n    function configureDomainFor(string memory /*name*/, uint /*price*/, uint /*referralFeePPM*/, address payable /*_owner*/, address /*_transfer*/) external override pure {\n\n    }\n\n    /// Harmony specific implementation: https://github.com/harmony-one/subdomain-registrar/blob/one-names-v4/contracts/EthRegistrarSubdomainRegistrar.sol#L139\n    function configureDomainFor(string memory /*name*/, uint /*price*/, address payable /*referralAddress*/, address payable /*_owner*/, address /*_transfer*/) override pure external {\n\n    }\n\n    /// Harmony specific implementation: https://github.com/harmony-one/subdomain-registrar/blob/one-names-v4/contracts/EthRegistrarSubdomainRegistrar.sol#L229\n    function register(bytes32 /*label*/, string calldata /*subdomain*/, address /*_subdomainOwner*/, uint /*duration*/, string calldata /*url*/, address /*resolver*/) override external payable {\n\n    }\n\n    function rentPrice(string memory /*name*/, uint /*duration*/) override virtual external view returns (uint256) {\n        return 0;\n    }\n\n    function transfer(string memory name, address payable newOwner) override external{\n\n    }\n\n    /// Harmony specific: https://github.com/harmony-one/subdomain-registrar/blob/one-names-v4/contracts/EthRegistrarSubdomainRegistrar.sol#L64\n    function renew(bytes32 label, string calldata subdomain, uint duration) override external payable{\n\n    }\n\n    function ens() override external view returns (address){\n        return address(0);\n    }\n}\n\ncontract ReverseRegistrar is IReverseRegistrar {\n    function claim(address /*owner*/) external pure override returns (bytes32){\n        return bytes32(0);\n    }\n\n    function node(address /*addr*/) external pure override returns (bytes32){\n        return bytes32(0);\n    }\n\n    function setName(string memory /*name*/) external pure override returns (bytes32){\n        return bytes32(0);\n    }\n\n    function claimWithResolver(address /*owner*/, address /*resolver*/) external pure override returns (bytes32){\n        return bytes32(0);\n    }\n    // DOES NOT EXIST in vanilla ens/ReverseRegistrar.sol. Added in ens-contracts/contracts/registry/ReverseRegistrar\n    function claimForAddr(address /*addr*/, address /*owner*/) external pure override {\n\n    }\n    // DOES NOT EXIST in vanilla ens/ReverseRegistrar.sol. Added in ens-contracts/contracts/registry/ReverseRegistrar\n    function claimWithResolverForAddr(\n        address /*addr*/,\n        address /*owner*/,\n        address /*resolver*/\n    ) external pure override returns (bytes32){\n        return bytes32(0);\n    }\n}\n",
  "sourcePath": "/Users/polymorpher/git/one-wallet/code/contracts/debug/Registrar.sol",
  "compiler": {
    "name": "solc",
    "version": "0.8.4+commit.c7e474f2.Emscripten.clang"
  },
  "schemaVersion": "3.4.2",
  "updatedAt": "2021-08-22T16:02:12.792Z",
  "devdoc": {
    "kind": "dev",
    "methods": {},
    "version": 1
  },
  "userdoc": {
    "kind": "user",
    "methods": {
      "configureDomainFor(string,uint256,address,address,address)": {
        "notice": "Harmony specific implementation: https://github.com/harmony-one/subdomain-registrar/blob/one-names-v4/contracts/EthRegistrarSubdomainRegistrar.sol#L139"
      },
      "register(bytes32,string,address,uint256,string,address)": {
        "notice": "Harmony specific implementation: https://github.com/harmony-one/subdomain-registrar/blob/one-names-v4/contracts/EthRegistrarSubdomainRegistrar.sol#L229"
      },
      "renew(bytes32,string,uint256)": {
        "notice": "Harmony specific: https://github.com/harmony-one/subdomain-registrar/blob/one-names-v4/contracts/EthRegistrarSubdomainRegistrar.sol#L64"
      }
    },
    "version": 1
  }
}