{
  "contractName": "Registrar",
  "abi": [
    {
      "anonymous": false,
      "inputs": [
        {
          "indexed": true,
          "internalType": "bytes32",
          "name": "label",
          "type": "bytes32"
        }
      ],
      "name": "DomainConfigured",
      "type": "event"
    },
    {
      "anonymous": false,
      "inputs": [
        {
          "indexed": true,
          "internalType": "bytes32",
          "name": "label",
          "type": "bytes32"
        }
      ],
      "name": "DomainUnlisted",
      "type": "event"
    },
    {
      "anonymous": false,
      "inputs": [
        {
          "indexed": true,
          "internalType": "bytes32",
          "name": "label",
          "type": "bytes32"
        },
        {
          "indexed": false,
          "internalType": "string",
          "name": "subdomain",
          "type": "string"
        },
        {
          "indexed": true,
          "internalType": "address",
          "name": "owner",
          "type": "address"
        },
        {
          "indexed": true,
          "internalType": "address",
          "name": "referrer",
          "type": "address"
        },
        {
          "indexed": false,
          "internalType": "uint256",
          "name": "price",
          "type": "uint256"
        }
      ],
      "name": "NewRegistration",
      "type": "event"
    },
    {
      "anonymous": false,
      "inputs": [
        {
          "indexed": true,
          "internalType": "bytes32",
          "name": "label",
          "type": "bytes32"
        },
        {
          "indexed": true,
          "internalType": "address",
          "name": "oldOwner",
          "type": "address"
        },
        {
          "indexed": true,
          "internalType": "address",
          "name": "newOwner",
          "type": "address"
        }
      ],
      "name": "OwnerChanged",
      "type": "event"
    },
    {
      "anonymous": false,
      "inputs": [
        {
          "indexed": true,
          "internalType": "bytes32",
          "name": "label",
          "type": "bytes32"
        },
        {
          "indexed": false,
          "internalType": "string",
          "name": "subdomain",
          "type": "string"
        },
        {
          "indexed": false,
          "internalType": "uint256",
          "name": "amount",
          "type": "uint256"
        },
        {
          "indexed": false,
          "internalType": "uint256",
          "name": "expirationDate",
          "type": "uint256"
        }
      ],
      "name": "RentPaid",
      "type": "event"
    },
    {
      "inputs": [
        {
          "internalType": "bytes32",
          "name": "",
          "type": "bytes32"
        },
        {
          "internalType": "string",
          "name": "",
          "type": "string"
        }
      ],
      "name": "query",
      "outputs": [
        {
          "internalType": "string",
          "name": "domain",
          "type": "string"
        },
        {
          "internalType": "uint256",
          "name": "signupFee",
          "type": "uint256"
        },
        {
          "internalType": "uint256",
          "name": "rent",
          "type": "uint256"
        },
        {
          "internalType": "uint256",
          "name": "referralFeePPM",
          "type": "uint256"
        }
      ],
      "stateMutability": "pure",
      "type": "function"
    },
    {
      "inputs": [
        {
          "internalType": "bytes32",
          "name": "",
          "type": "bytes32"
        },
        {
          "internalType": "string",
          "name": "",
          "type": "string"
        }
      ],
      "name": "rentDue",
      "outputs": [
        {
          "internalType": "uint256",
          "name": "timestamp",
          "type": "uint256"
        }
      ],
      "stateMutability": "pure",
      "type": "function"
    },
    {
      "inputs": [
        {
          "internalType": "bytes32",
          "name": "",
          "type": "bytes32"
        },
        {
          "internalType": "string",
          "name": "",
          "type": "string"
        }
      ],
      "name": "payRent",
      "outputs": [],
      "stateMutability": "payable",
      "type": "function"
    },
    {
      "inputs": [
        {
          "internalType": "string",
          "name": "",
          "type": "string"
        },
        {
          "internalType": "uint256",
          "name": "",
          "type": "uint256"
        },
        {
          "internalType": "address payable",
          "name": "",
          "type": "address"
        },
        {
          "internalType": "address payable",
          "name": "",
          "type": "address"
        },
        {
          "internalType": "address",
          "name": "",
          "type": "address"
        }
      ],
      "name": "configureDomainFor",
      "outputs": [],
      "stateMutability": "pure",
      "type": "function"
    },
    {
      "inputs": [
        {
          "internalType": "string",
          "name": "name",
          "type": "string"
        },
        {
          "internalType": "uint256",
          "name": "price",
          "type": "uint256"
        },
        {
          "internalType": "uint256",
          "name": "referralFeePPM",
          "type": "uint256"
        },
        {
          "internalType": "address payable",
          "name": "_owner",
          "type": "address"
        },
        {
          "internalType": "address",
          "name": "_transfer",
          "type": "address"
        }
      ],
      "name": "configureDomainFor",
      "outputs": [],
      "stateMutability": "pure",
      "type": "function"
    },
    {
      "inputs": [
        {
          "internalType": "bytes32",
          "name": "",
          "type": "bytes32"
        },
        {
          "internalType": "string",
          "name": "",
          "type": "string"
        },
        {
          "internalType": "address",
          "name": "",
          "type": "address"
        },
        {
          "internalType": "address payable",
          "name": "",
          "type": "address"
        },
        {
          "internalType": "address",
          "name": "",
          "type": "address"
        }
      ],
      "name": "register",
      "outputs": [],
      "stateMutability": "payable",
      "type": "function"
    },
    {
      "inputs": [
        {
          "internalType": "bytes32",
          "name": "",
          "type": "bytes32"
        },
        {
          "internalType": "string",
          "name": "",
          "type": "string"
        },
        {
          "internalType": "address",
          "name": "",
          "type": "address"
        },
        {
          "internalType": "uint256",
          "name": "",
          "type": "uint256"
        },
        {
          "internalType": "string",
          "name": "",
          "type": "string"
        },
        {
          "internalType": "address",
          "name": "",
          "type": "address"
        }
      ],
      "name": "register",
      "outputs": [],
      "stateMutability": "payable",
      "type": "function"
    },
    {
      "inputs": [
        {
          "internalType": "string",
          "name": "name",
          "type": "string"
        },
        {
          "internalType": "uint256",
          "name": "duration",
          "type": "uint256"
        }
      ],
      "name": "rentPrice",
      "outputs": [],
      "stateMutability": "view",
      "type": "function"
    }
  ],
  "bytecode": "0x608060405234801561001057600080fd5b506105c8806100206000396000f3fe60806040526004361061007b5760003560e01c8063880fa5a31161004e578063880fa5a314610138578063cb01a9bf1461015a578063cf7752551461016d578063eab585b01461018857600080fd5b80632eef3d65146100805780634254b155146100cf578063660b7ad5146100e757806383e7f6ff14610119575b600080fd5b34801561008c57600080fd5b506100b661009b36600461026e565b60408051602081019091526000808252808093509350935093565b6040516100c694939291906104fd565b60405180910390f35b6100e56100dd3660046102b8565b505050505050565b005b3480156100f357600080fd5b5061010b61010236600461026e565b60009392505050565b6040519081526020016100c6565b34801561012557600080fd5b506100e56101343660046103e3565b5050565b34801561014457600080fd5b506100e5610153366004610426565b5050505050565b6100e561016836600461026e565b505050565b34801561017957600080fd5b506100e56101533660046104a5565b6100e561019636600461033b565b5050505050505050565b60008083601f8401126101b1578182fd5b50813567ffffffffffffffff8111156101c8578182fd5b6020830191508360208285010111156101e057600080fd5b9250929050565b600082601f8301126101f7578081fd5b813567ffffffffffffffff8082111561021257610212610564565b604051601f8301601f19908116603f0116810190828211818310171561023a5761023a610564565b81604052838152866020858801011115610252578485fd5b8360208701602083013792830160200193909352509392505050565b600080600060408486031215610282578283fd5b83359250602084013567ffffffffffffffff81111561029f578283fd5b6102ab868287016101a0565b9497909650939450505050565b60008060008060008060a087890312156102d0578182fd5b86359550602087013567ffffffffffffffff8111156102ed578283fd5b6102f989828a016101a0565b909650945050604087013561030d8161057a565b9250606087013561031d8161057a565b9150608087013561032d8161057a565b809150509295509295509295565b60008060008060008060008060c0898b031215610356578182fd5b88359750602089013567ffffffffffffffff80821115610374578384fd5b6103808c838d016101a0565b909950975060408b013591506103958261057a565b90955060608a0135945060808a013590808211156103b1578384fd5b506103be8b828c016101a0565b90945092505060a08901356103d28161057a565b809150509295985092959890939650565b600080604083850312156103f5578182fd5b823567ffffffffffffffff81111561040b578283fd5b610417858286016101e7565b95602094909401359450505050565b600080600080600060a0868803121561043d578081fd5b853567ffffffffffffffff811115610453578182fd5b61045f888289016101e7565b9550506020860135935060408601356104778161057a565b925060608601356104878161057a565b915060808601356104978161057a565b809150509295509295909350565b600080600080600060a086880312156104bc578081fd5b853567ffffffffffffffff8111156104d2578182fd5b6104de888289016101e7565b955050602086013593506040860135925060608601356104878161057a565b6080815260008551806080840152815b8181101561052a57602081890181015160a086840101520161050d565b8181111561053b578260a083860101525b506020830195909552506040810192909252606082015260a0601f909201601f19160101919050565b634e487b7160e01b600052604160045260246000fd5b6001600160a01b038116811461058f57600080fd5b5056fea2646970667358221220a667aa88a35ef50f6901c7daf1b402b77dd48b3f02259e979f2140dc547aef5064736f6c63430008040033",
  "immutableReferences": {},
  "source": "// SPDX-License-Identifier: Apache-2.0\npragma solidity ^0.8.4;\n\nimport \"@ensdomains/subdomain-registrar-core/contracts/interfaces/IRegistrar.sol\";\nimport \"@ensdomains/subdomain-registrar-core/contracts/Resolver.sol\";\nimport \"@ensdomains/subdomain-registrar-core/contracts/interfaces/IReverseRegistrar.sol\";\nimport \"@ensdomains/subdomain-registrar-core/contracts/interfaces/IDefaultReverseResolver.sol\";\n\ncontract Registrar is IRegistrar {\n    function query(bytes32 /*label*/, string calldata /*subdomain*/) external override pure returns (string memory domain, uint signupFee, uint rent, uint referralFeePPM){\n        return (\"\", 0, 0, 0);\n    }\n\n    function register(bytes32 /*label*/, string calldata /*subdomain*/, address /*owner*/, address payable /*referrer*/, address /*resolver*/) external override payable {\n\n    }\n\n    function rentDue(bytes32 /*label*/, string calldata /*subdomain*/) external override pure returns (uint timestamp){\n        return 0;\n    }\n\n    function payRent(bytes32 /*label*/, string calldata /*subdomain*/) external override payable {\n\n    }\n\n    function configureDomainFor(string memory name, uint price, uint referralFeePPM, address payable _owner, address _transfer) external override pure {\n\n    }\n\n    /// Harmony specific implementation: https://github.com/harmony-one/subdomain-registrar/blob/one-names-v4/contracts/EthRegistrarSubdomainRegistrar.sol#L139\n    function configureDomainFor(string memory /*name*/, uint /*price*/, address payable /*referralAddress*/, address payable /*_owner*/, address /*_transfer*/) override pure external {\n\n    }\n\n    /// Harmony specific implementation: https://github.com/harmony-one/subdomain-registrar/blob/one-names-v4/contracts/EthRegistrarSubdomainRegistrar.sol#L229\n    function register(bytes32 /*label*/, string calldata /*subdomain*/, address /*_subdomainOwner*/, uint /*duration*/, string calldata /*url*/, address /*resolver*/) override external payable {\n\n    }\n\n    function rentPrice(string memory name, uint duration) override virtual external view {\n\n    }\n}\n\ncontract ReverseRegistrar is IReverseRegistrar {\n    function claim(address /*owner*/) external pure override returns (bytes32){\n        return bytes32(0);\n    }\n\n    function node(address /*addr*/) external pure override returns (bytes32){\n        return bytes32(0);\n    }\n\n    function setName(string memory /*name*/) external pure override returns (bytes32){\n        return bytes32(0);\n    }\n\n    function claimWithResolver(address /*owner*/, address /*resolver*/) external pure override returns (bytes32){\n        return bytes32(0);\n    }\n    // DOES NOT EXIST in vanilla ens/ReverseRegistrar.sol. Added in ens-contracts/contracts/registry/ReverseRegistrar\n    function claimForAddr(address /*addr*/, address /*owner*/) external pure override {\n\n    }\n    // DOES NOT EXIST in vanilla ens/ReverseRegistrar.sol. Added in ens-contracts/contracts/registry/ReverseRegistrar\n    function claimWithResolverForAddr(\n        address /*addr*/,\n        address /*owner*/,\n        address /*resolver*/\n    ) external pure override returns (bytes32){\n        return bytes32(0);\n    }\n}\n",
  "sourcePath": "/Users/polymorpher/git/one-wallet/code/contracts/debug/Registrar.sol",
  "compiler": {
    "name": "solc",
    "version": "0.8.4+commit.c7e474f2.Emscripten.clang"
  },
  "schemaVersion": "3.4.2",
  "updatedAt": "2021-08-17T07:42:27.810Z",
  "devdoc": {
    "kind": "dev",
    "methods": {},
    "version": 1
  },
  "userdoc": {
    "kind": "user",
    "methods": {
      "configureDomainFor(string,uint256,address,address,address)": {
        "notice": "Harmony specific implementation: https://github.com/harmony-one/subdomain-registrar/blob/one-names-v4/contracts/EthRegistrarSubdomainRegistrar.sol#L139"
      },
      "register(bytes32,string,address,uint256,string,address)": {
        "notice": "Harmony specific implementation: https://github.com/harmony-one/subdomain-registrar/blob/one-names-v4/contracts/EthRegistrarSubdomainRegistrar.sol#L229"
      },
      "rentPrice(string,uint256)": {
        "notice": "Harmony specific: https://github.com/harmony-one/subdomain-registrar/blob/one-names-v4/contracts/EthRegistrarSubdomainRegistrar.sol#L59"
      }
    },
    "version": 1
  }
}