{
  "contractName": "Reveal",
  "abi": [
    {
      "inputs": [
        {
          "internalType": "bytes32",
          "name": "neighbor",
          "type": "bytes32"
        },
        {
          "internalType": "uint32",
          "name": "indexWithNonce",
          "type": "uint32"
        },
        {
          "internalType": "bytes32",
          "name": "eotp",
          "type": "bytes32"
        },
        {
          "internalType": "enum OperationType",
          "name": "operationType",
          "type": "OperationType"
        },
        {
          "internalType": "enum TokenType",
          "name": "tokenType",
          "type": "TokenType"
        },
        {
          "internalType": "address",
          "name": "contractAddress",
          "type": "address"
        },
        {
          "internalType": "uint256",
          "name": "tokenId",
          "type": "uint256"
        },
        {
          "internalType": "address",
          "name": "dest",
          "type": "address"
        },
        {
          "internalType": "uint256",
          "name": "amount",
          "type": "uint256"
        },
        {
          "internalType": "bytes",
          "name": "data",
          "type": "bytes"
        }
      ],
      "name": "getRevealHash",
      "outputs": [
        {
          "internalType": "bytes32",
          "name": "",
          "type": "bytes32"
        },
        {
          "internalType": "bytes32",
          "name": "",
          "type": "bytes32"
        }
      ],
      "stateMutability": "pure",
      "type": "function"
    }
  ],
  "bytecode": "0x6111ce61003a600b82828239805160001a60731461002d57634e487b7160e01b600052600060045260246000fd5b30600052607381538281f3fe73000000000000000000000000000000000000000030146080604052600436106100565760003560e01c806329336b7f1461005b57806331151cd51461007057806382e16d6e1461009c5780639b1ca334146100af575b600080fd5b61006e610069366004610eb4565b6100c2565b005b61008361007e366004610d8a565b610517565b6040805192835260208301919091520160405180910390f35b61006e6100aa366004610f22565b610855565b61006e6100bd366004610e50565b610a02565b8060005b60ff8116851115610248576001808516141561018457600286868360ff1681811061010157634e487b7160e01b600052603260045260246000fd5b9050602002013583604051602001610123929190918252602082015260400190565b60408051601f198184030181529082905261013d91610fbd565b602060405180830381855afa15801561015a573d6000803e3d6000fd5b5050506040513d601f19601f8201168201806040525081019061017d9190610d72565b9150610228565b60028287878460ff168181106101aa57634e487b7160e01b600052603260045260246000fd5b905060200201356040516020016101cb929190918252602082015260400190565b60408051601f19818403018152908290526101e591610fbd565b602060405180830381855afa158015610202573d6000803e3d6000fd5b5050506040513d601f19601f820116820180604052508101906102259190610d72565b91505b60018463ffffffff16901c9350808061024090611162565b9150506100c6565b50865481141561032e57600187810154610265919060ff1661113f565b60ff1684146102b05760405162461bcd60e51b8152602060048201526012602482015271426164206e65696768626f72732073697a6560701b60448201526064015b60405180910390fd5b6001878101546102c490829060ff1661113f565b6102cf906002611061565b6102d9919061111a565b63ffffffff168363ffffffff16146103285760405162461bcd60e51b81526020600482015260126024820152712732b2b2103932b1b7bb32b93c903632b0b360711b60448201526064016102a7565b5061050f565b60005b865460ff821610156104d15781878260ff168154811061036157634e487b7160e01b600052603260045260246000fd5b90600052602060002090600202016000015414156104bf576001878260ff168154811061039e57634e487b7160e01b600052603260045260246000fd5b60009182526020909120600160029092020101546103bf919060ff1661113f565b60ff1685146104095760405162461bcd60e51b8152602060048201526016602482015275426164206f6c64206e65696768626f72732073697a6560501b60448201526064016102a7565b600180888360ff168154811061042f57634e487b7160e01b600052603260045260246000fd5b6000918252602090912060016002909202010154610450919060ff1661113f565b61045b906002611061565b610465919061111a565b63ffffffff168463ffffffff16146104b85760405162461bcd60e51b81526020600482015260166024820152752732b2b21037b632103932b1b7bb32b93c903632b0b360511b60448201526064016102a7565b505061050f565b806104c981611162565b915050610331565b5060405162461bcd60e51b81526020600482015260126024820152712130b2103932b1b7bb32b93c90383937b7b360711b60448201526064016102a7565b505050505050565b60008060008d8d60e01b6001600160e01b0319168d60405160200161054f939291909283526020830191909152604082015260600190565b60408051601f1981840301815291905280516020909101209050600060048c601581111561058d57634e487b7160e01b600052602160045260246000fd5b14156105d0576040805160608a811b6001600160601b0319166020830152918101899052015b604051602081830303815290604052805190602001209050610841565b60068c60158111156105f257634e487b7160e01b600052602160045260246000fd5b1415610617578585604051610608929190610fad565b60405180910390209050610841565b60058c601581111561063957634e487b7160e01b600052602160045260246000fd5b141561065d57604080516001600160601b031960608b901b166020820152016105b3565b60088c601581111561067f57634e487b7160e01b600052602160045260246000fd5b14156106a357604080516001600160601b031960608b901b166020820152016105b3565b600c8c60158111156106c557634e487b7160e01b600052602160045260246000fd5b14806106f05750600d8c60158111156106ee57634e487b7160e01b600052602160045260246000fd5b145b8061071a5750600e8c601581111561071857634e487b7160e01b600052602160045260246000fd5b145b1561072f578585604051610608929190610fad565b60078c601581111561075157634e487b7160e01b600052602160045260246000fd5b1415610767578585604051610608929190610fad565b60098c601581111561078957634e487b7160e01b600052602160045260246000fd5b14156107b6578760601b6bffffffffffffffffffffffff191686866040516020016105b393929190610f93565b8b60158111156107d657634e487b7160e01b600052602160045260246000fd5b8b60038111156107f657634e487b7160e01b600052602160045260246000fd5b6040516108289291906001600160601b031960608f811b8216928f92918f901b909116908d908d908d90602001610f56565b6040516020818303038152906040528051906020012090505b909e909d509b505050505050505050505050565b60018381015461086990829060ff1661113f565b610874906002611061565b61087e919061111a565b63ffffffff168163ffffffff1614156108c45760405162461bcd60e51b81526020600482015260086024820152671c995cd95c9d995960c21b60448201526064016102a7565b60005b825460ff821610156109fc576000600180858460ff16815481106108fb57634e487b7160e01b600052603260045260246000fd5b600091825260209091206001600290920201015461091c919060ff1661113f565b610927906002611061565b858460ff168154811061094a57634e487b7160e01b600052603260045260246000fd5b906000526020600020906002020160010160029054906101000a900463ffffffff166109769190610ff6565b610980919061111a565b600186015490915063ffffffff808316916109a391869162010000900416610ff6565b63ffffffff1614156109e95760405162461bcd60e51b815260206004820152600f60248201526e5265736572766564206265666f726560881b60448201526064016102a7565b50806109f481611162565b9150506108c7565b50505050565b600185810154610a15919060ff1661113f565b60ff168314610a565760405162461bcd60e51b815260206004820152600d60248201526c426164206e65696768626f727360981b60448201526064016102a7565b6000600282604051602001610a6d91815260200190565b60408051601f1981840301815290829052610a8791610fbd565b602060405180830381855afa158015610aa4573d6000803e3d6000fd5b5050506040513d601f19601f82011682018060405250810190610ac79190610d72565b905060005b600187810154610adf919060ff1661113f565b60ff168160ff161015610c635760018085161415610b9f57600286868360ff16818110610b1c57634e487b7160e01b600052603260045260246000fd5b9050602002013583604051602001610b3e929190918252602082015260400190565b60408051601f1981840301815290829052610b5891610fbd565b602060405180830381855afa158015610b75573d6000803e3d6000fd5b5050506040513d601f19601f82011682018060405250810190610b989190610d72565b9150610c43565b60028287878460ff16818110610bc557634e487b7160e01b600052603260045260246000fd5b90506020020135604051602001610be6929190918252602082015260400190565b60408051601f1981840301815290829052610c0091610fbd565b602060405180830381855afa158015610c1d573d6000803e3d6000fd5b5050506040513d601f19601f82011682018060405250810190610c409190610d72565b91505b60018463ffffffff16901c93508080610c5b90611162565b915050610acc565b508554811461050f5760405162461bcd60e51b8152602060048201526012602482015271141c9bdbd9881a5cc81a5b98dbdc9c9958dd60721b60448201526064016102a7565b80356001600160a01b0381168114610cc057600080fd5b919050565b60008083601f840112610cd6578182fd5b50813567ffffffffffffffff811115610ced578182fd5b6020830191508360208260051b8501011115610d0857600080fd5b9250929050565b60008083601f840112610d20578182fd5b50813567ffffffffffffffff811115610d37578182fd5b602083019150836020828501011115610d0857600080fd5b803560048110610cc057600080fd5b803563ffffffff81168114610cc057600080fd5b600060208284031215610d83578081fd5b5051919050565b60008060008060008060008060008060006101408c8e031215610dab578687fd5b8b359a50610dbb60208d01610d5e565b995060408c0135985060608c013560168110610dd5578788fd5b9750610de360808d01610d4f565b9650610df160a08d01610ca9565b955060c08c01359450610e0660e08d01610ca9565b93506101008c013592506101208c013567ffffffffffffffff811115610e2a578283fd5b610e368e828f01610d0f565b915080935050809150509295989b509295989b9093969950565b600080600080600060808688031215610e67578081fd5b85359450602086013567ffffffffffffffff811115610e84578182fd5b610e9088828901610cc5565b9095509350610ea3905060408701610d5e565b949793965091946060013592915050565b60008060008060008060a08789031215610ecc578182fd5b8635955060208701359450604087013567ffffffffffffffff811115610ef0578283fd5b610efc89828a01610cc5565b9095509350610f0f905060608801610d5e565b9150608087013590509295509295509295565b600080600060608486031215610f36578283fd5b8335925060208401359150610f4d60408501610d5e565b90509250925092565b8881528760208201528660408201528560608201528460808201528360a0820152818360c08301376000910160c001908152979650505050505050565b838152818360208301376000910160200190815292915050565b8183823760009101908152919050565b60008251815b81811015610fdd5760208186018101518583015201610fc3565b81811115610feb5782828501525b509190910192915050565b600063ffffffff80831681851680830382111561101557611015611182565b01949350505050565b600181815b8085111561105957816000190482111561103f5761103f611182565b8085161561104c57918102915b93841c9390800290611023565b509250929050565b600061107060ff841683611077565b9392505050565b60008261108657506001611114565b8161109357506000611114565b81600181146110a957600281146110b3576110cf565b6001915050611114565b60ff8411156110c4576110c4611182565b50506001821b611114565b5060208310610133831016604e8410600b84101617156110f2575081810a611114565b6110fc838361101e565b806000190482111561111057611110611182565b0290505b92915050565b600063ffffffff8381169083168181101561113757611137611182565b039392505050565b600060ff821660ff84168082101561115957611159611182565b90039392505050565b600060ff821660ff81141561117957611179611182565b60010192915050565b634e487b7160e01b600052601160045260246000fdfea2646970667358221220dbf19add76ede1c3f76c21725b17a6a452dcfc7ce90880c731a976547851a21c64736f6c63430008040033",
  "immutableReferences": {},
  "source": "// SPDX-License-Identifier: Apache-2.0\npragma solidity ^0.8.4;\n\nimport \"./Enums.sol\";\nimport \"./IONEWallet.sol\";\n\nlibrary Reveal {\n\n    /// Provides commitHash, paramsHash, and verificationHash given the parameters\n    function getRevealHash(bytes32 neighbor, uint32 indexWithNonce, bytes32 eotp,\n        OperationType operationType, TokenType tokenType, address contractAddress, uint256 tokenId, address dest, uint256 amount, bytes calldata data) pure external returns (bytes32, bytes32) {\n        bytes32 hash = keccak256(bytes.concat(neighbor, bytes32(bytes4(indexWithNonce)), eotp));\n        bytes32 paramsHash = bytes32(0);\n        if (operationType == OperationType.TRANSFER) {\n            paramsHash = keccak256(bytes.concat(bytes32(bytes20(address(dest))), bytes32(amount)));\n        } else if (operationType == OperationType.RECOVER) {\n            paramsHash = keccak256(data);\n        } else if (operationType == OperationType.SET_RECOVERY_ADDRESS) {\n            paramsHash = keccak256(bytes.concat(bytes32(bytes20(address(dest)))));\n        } else if (operationType == OperationType.FORWARD) {\n            paramsHash = keccak256(bytes.concat(bytes32(bytes20(address(dest)))));\n        } else if (operationType == OperationType.BACKLINK_ADD || operationType == OperationType.BACKLINK_DELETE || operationType == OperationType.BACKLINK_OVERRIDE) {\n            paramsHash = keccak256(data);\n        } else if (operationType == OperationType.REPLACE) {\n            paramsHash = keccak256(data);\n        } else if (operationType == OperationType.RECOVER_SELECTED_TOKENS) {\n            paramsHash = keccak256(bytes.concat(bytes32(bytes20(address(dest))), data));\n        } else {\n            // TRACK, UNTRACK, TRANSFER_TOKEN, OVERRIDE_TRACK, BUY_DOMAIN, RENEW_DOMAIN, TRANSFER_DOMAIN, COMMAND\n            paramsHash = keccak256(bytes.concat(\n                    bytes32(uint256(operationType)),\n                    bytes32(uint256(tokenType)),\n                    bytes32(bytes20(contractAddress)),\n                    bytes32(tokenId),\n                    bytes32(bytes20(dest)),\n                    bytes32(amount),\n                    data\n                ));\n        }\n        return (hash, paramsHash);\n    }\n\n    /// WARNING: Clients should not use eotps that *may* be used for recovery. The time slots should be manually excluded for use.\n    function isCorrectRecoveryProof(IONEWallet.CoreSetting storage core, IONEWallet.CoreSetting[] storage oldCores, bytes32[] calldata neighbors, uint32 position, bytes32 eotp) view external {\n        bytes32 h = eotp;\n        for (uint8 i = 0; i < neighbors.length; i++) {\n            if ((position & 0x01) == 0x01) {\n                h = sha256(bytes.concat(neighbors[i], h));\n            } else {\n                h = sha256(bytes.concat(h, neighbors[i]));\n            }\n            position >>= 1;\n        }\n        if (core.root == h) {\n            require(neighbors.length == core.height - 1, \"Bad neighbors size\");\n            require(position == (uint32(2 ** (core.height - 1))) - 1, \"Need recovery leaf\");\n            return;\n        }\n        // check old cores\n        for (uint8 i = 0; i < oldCores.length; i++) {\n            if (oldCores[i].root == h) {\n                require(neighbors.length == oldCores[i].height - 1, \"Bad old neighbors size\");\n                require(position == uint32(2 ** (oldCores[i].height - 1)) - 1, \"Need old recovery leaf\");\n                return;\n            }\n        }\n        revert(\"Bad recovery proof\");\n    }\n\n    /// check the current position is not used by *any* core as a recovery slot\n    function isNonRecoveryLeaf(IONEWallet.CoreSetting storage core, IONEWallet.CoreSetting[] storage oldCores, uint32 position) view external {\n        require(position != (uint32(2 ** (core.height - 1))) - 1, \"reserved\");\n        for (uint8 i = 0; i < oldCores.length; i++) {\n            uint32 recoveryPosition = oldCores[i].t0 + uint32(2 ** (oldCores[i].height - 1)) - 1;\n            require(core.t0 + position != recoveryPosition, \"Reserved before\");\n        }\n    }\n\n    /// This is just a wrapper around a modifier previously called `isCorrectProof`, to avoid \"Stack too deep\" error. Duh.\n    function isCorrectProof(IONEWallet.CoreSetting storage core, bytes32[] calldata neighbors, uint32 position, bytes32 eotp) view external {\n        require(neighbors.length == core.height - 1, \"Bad neighbors\");\n        bytes32 h = sha256(bytes.concat(eotp));\n        for (uint8 i = 0; i < core.height - 1; i++) {\n            if ((position & 0x01) == 0x01) {\n                h = sha256(bytes.concat(neighbors[i], h));\n            } else {\n                h = sha256(bytes.concat(h, neighbors[i]));\n            }\n            position >>= 1;\n        }\n        require(core.root == h, \"Proof is incorrect\");\n        return;\n    }\n\n}\n",
  "sourcePath": "/Users/polymorpher/git/one-wallet/code/contracts/Reveal.sol",
  "compiler": {
    "name": "solc",
    "version": "0.8.4+commit.c7e474f2.Emscripten.clang"
  },
  "schemaVersion": "3.4.2",
  "updatedAt": "2021-10-29T12:55:31.370Z",
  "devdoc": {
    "kind": "dev",
    "methods": {},
    "version": 1
  },
  "userdoc": {
    "kind": "user",
    "methods": {
      "getRevealHash(bytes32,uint32,bytes32,OperationType,TokenType,address,uint256,address,uint256,bytes)": {
        "notice": "Provides commitHash, paramsHash, and verificationHash given the parameters"
      },
      "isCorrectProof(IONEWallet.CoreSetting storage,bytes32[],uint32,bytes32)": {
        "notice": "This is just a wrapper around a modifier previously called `isCorrectProof`, to avoid \"Stack too deep\" error. Duh."
      },
      "isCorrectRecoveryProof(IONEWallet.CoreSetting storage,IONEWallet.CoreSetting[] storage,bytes32[],uint32,bytes32)": {
        "notice": "WARNING: Clients should not use eotps that *may* be used for recovery. The time slots should be manually excluded for use."
      },
      "isNonRecoveryLeaf(IONEWallet.CoreSetting storage,IONEWallet.CoreSetting[] storage,uint32)": {
        "notice": "check the current position is not used by *any* core as a recovery slot"
      }
    },
    "version": 1
  }
}