{
  "contractName": "Reveal",
  "abi": [
    {
      "inputs": [
        {
          "components": [
            {
              "internalType": "bytes32[]",
              "name": "neighbors",
              "type": "bytes32[]"
            },
            {
              "internalType": "uint32",
              "name": "indexWithNonce",
              "type": "uint32"
            },
            {
              "internalType": "bytes32",
              "name": "eotp",
              "type": "bytes32"
            }
          ],
          "internalType": "struct IONEWallet.AuthParams",
          "name": "auth",
          "type": "tuple"
        },
        {
          "components": [
            {
              "internalType": "enum Enums.OperationType",
              "name": "operationType",
              "type": "Enums.OperationType"
            },
            {
              "internalType": "enum Enums.TokenType",
              "name": "tokenType",
              "type": "Enums.TokenType"
            },
            {
              "internalType": "address",
              "name": "contractAddress",
              "type": "address"
            },
            {
              "internalType": "uint256",
              "name": "tokenId",
              "type": "uint256"
            },
            {
              "internalType": "address payable",
              "name": "dest",
              "type": "address"
            },
            {
              "internalType": "uint256",
              "name": "amount",
              "type": "uint256"
            },
            {
              "internalType": "bytes",
              "name": "data",
              "type": "bytes"
            }
          ],
          "internalType": "struct IONEWallet.OperationParams",
          "name": "op",
          "type": "tuple"
        }
      ],
      "name": "getRevealHash",
      "outputs": [
        {
          "internalType": "bytes32",
          "name": "",
          "type": "bytes32"
        },
        {
          "internalType": "bytes32",
          "name": "",
          "type": "bytes32"
        }
      ],
      "stateMutability": "pure",
      "type": "function"
    }
  ],
  "bytecode": "0x611d9d61003a600b82828239805160001a60731461002d57634e487b7160e01b600052600060045260246000fd5b30600052607381538281f3fe73000000000000000000000000000000000000000030146080604052600436106100875760003560e01c80635bffb069116100655780635bffb069146100ee57806382e16d6e14610116578063c926ed4514610129578063e1c517a71461013c57600080fd5b80632130da551461008c57806323e53149146100ae5780633cc35ec7146100db575b600080fd5b81801561009857600080fd5b506100ac6100a73660046119d3565b61015c565b005b6100c16100bc366004611971565b61035f565b60405163ffffffff90911681526020015b60405180910390f35b6100c16100e9366004611871565b61072e565b6101016100fc366004611810565b610bc6565b604080519283526020830191909152016100d2565b6100ac61012436600461193d565b610f74565b6100c1610137366004611871565b61112a565b81801561014857600080fd5b506100ac6101573660046118bf565b6114d3565b6000838152602085905260409020805461018657634e487b7160e01b600052600160045260246000fd5b805463ffffffff8416106101aa57634e487b7160e01b600052600160045260246000fd5b6000818463ffffffff16815481106101d257634e487b7160e01b600052603260045260246000fd5b60009182526020909120600390910201600281015490915063ffffffff1661020a57634e487b7160e01b600052600160045260246000fd5b600683601681111561022c57634e487b7160e01b600052602160045260246000fd5b1461034157600187015460028201546000916102579161010090910460ff169063ffffffff16611b63565b6040516307830e7d60e21b81526004810189905263ffffffff8216602482015290915073__CommitManager_________________________90631e0c39f49060440160006040518083038186803b1580156102b157600080fd5b505af41580156102c5573d6000803e3d6000fd5b505050506001880154604051630aefe9ab60e11b81526004810189905261010090910460ff16602482015273__CommitManager_________________________906315dfd3569060440160006040518083038186803b15801561032757600080fd5b505af415801561033b573d6000803e3d6000fd5b50505050505b600201805464ff000000001916640100000000179055505050505050565b6001870154600090819061037d90600160501b900460ff1687611b63565b60018a015490915060009061039c90600160501b900460ff1688611d02565b600089815260208b9052604090208054919250906103f35760405162461bcd60e51b815260206004820152600f60248201526e139bc818dbdb5b5a5d08199bdd5b99608a1b60448201526064015b60405180910390fd5b60005b815463ffffffff821610156106ee576000828263ffffffff168154811061042d57634e487b7160e01b600052603260045260246000fd5b90600052602060002090600302019050600081600001548960405160200161045f929190918252602082015260400190565b604051602081830303815290604052805190602001209050808260010154146104895750506106dc565b81548a146104ca5760405162461bcd60e51b815260206004820152600e60248201526d0a0c2e4c2da40dad2e6dac2e8c6d60931b60448201526064016103ea565b60068860168111156104ec57634e487b7160e01b600052602160045260246000fd5b146106255760018e015460028301546000916105179161010090910460ff169063ffffffff16611b63565b905060008f60010160029054906101000a900463ffffffff168261053b9190611c76565b90508763ffffffff168163ffffffff16148061056c575063ffffffff8816610564600183611c76565b63ffffffff16145b6105a85760405162461bcd60e51b815260206004820152600d60248201526c0a8d2daca40dad2e6dac2e8c6d609b1b60448201526064016103ea565b60008f60020160008463ffffffff1663ffffffff16815260200190815260200160002060009054906101000a900460ff1690508060ff168860ff1610156106215760405162461bcd60e51b815260206004820152600d60248201526c4e6f6e636520746f6f206c6f7760981b60448201526064016103ea565b5050505b6002820154640100000000900460ff16156106785760405162461bcd60e51b8152602060048201526013602482015272436f6d6d697420616c726561647920646f6e6560681b60448201526064016103ea565b6002820154603c906106909063ffffffff1642611c76565b63ffffffff16106106ce5760405162461bcd60e51b8152602060048201526008602482015267546f6f206c61746560c01b60448201526064016103ea565b829650505050505050610723565b806106e681611cbe565b9150506103f6565b5060405162461bcd60e51b8152602060048201526009602482015268139bc818dbdb5b5a5d60ba1b60448201526064016103ea565b979650505050505050565b6040810151602082015160009190825b84515160ff821610156108cc576001808316141561080357600285600001518260ff168151811061077f57634e487b7160e01b600052603260045260246000fd5b6020026020010151846040516020016107a2929190918252602082015260400190565b60408051601f19818403018152908290526107bc91611ab2565b602060405180830381855afa1580156107d9573d6000803e3d6000fd5b5050506040513d601f19601f820116820180604052508101906107fc91906117f8565b92506108ac565b60028386600001518360ff168151811061082d57634e487b7160e01b600052603260045260246000fd5b602002602001015160405160200161084f929190918252602082015260400190565b60408051601f198184030181529082905261086991611ab2565b602060405180830381855afa158015610886573d6000803e3d6000fd5b5050506040513d601f19601f820116820180604052508101906108a991906117f8565b92505b60018263ffffffff16901c915080806108c490611ce2565b91505061073e565b5085548214156109bb576001868101546108e9919060ff16611c9b565b60ff16846000015151146109345760405162461bcd60e51b8152602060048201526012602482015271426164206e65696768626f72732073697a6560701b60448201526064016103ea565b60018681015461094890829060ff16611c9b565b610953906002611bc9565b61095d9190611c76565b63ffffffff16846020015163ffffffff16146109b05760405162461bcd60e51b81526020600482015260126024820152712732b2b2103932b1b7bb32b93c903632b0b360711b60448201526064016103ea565b600092505050610bbf565b60005b855463ffffffff82161015610b815782868263ffffffff16815481106109f457634e487b7160e01b600052603260045260246000fd5b9060005260206000209060020201600001541415610b6f576001868263ffffffff1681548110610a3457634e487b7160e01b600052603260045260246000fd5b6000918252602090912060016002909202010154610a55919060ff16611c9b565b60ff1685600001515114610aa45760405162461bcd60e51b8152602060048201526016602482015275426164206f6c64206e65696768626f72732073697a6560501b60448201526064016103ea565b600180878363ffffffff1681548110610acd57634e487b7160e01b600052603260045260246000fd5b6000918252602090912060016002909202010154610aee919060ff16611c9b565b610af9906002611bc9565b610b039190611c76565b63ffffffff16856020015163ffffffff1614610b5a5760405162461bcd60e51b81526020600482015260166024820152752732b2b21037b632103932b1b7bb32b93c903632b0b360511b60448201526064016103ea565b610b65816001611b3b565b9350505050610bbf565b80610b7981611cbe565b9150506109be565b5060405162461bcd60e51b81526020600482015260126024820152712130b2103932b1b7bb32b93c90383937b7b360711b60448201526064016103ea565b9392505050565b60008060008460000151600081518110610bf057634e487b7160e01b600052603260045260246000fd5b6020026020010151856020015160e01b6001600160e01b0319168660400151604051602001610c32939291909283526020830191909152604082015260600190565b60408051601f19818403018152919052805160209091012090506000600485516016811115610c7157634e487b7160e01b600052602160045260246000fd5b1415610cc457608085015160a0860151604080516bffffffffffffffffffffffff19606094851b16602082015290810191909152015b604051602081830303815290604052805190602001209050610f69565b600685516016811115610ce757634e487b7160e01b600052602160045260246000fd5b1415610d00578460c00151805190602001209050610f69565b600585516016811115610d2357634e487b7160e01b600052602160045260246000fd5b1415610d4d57846080015160601b6001600160601b031916604051602001610ca791815260200190565b600885516016811115610d7057634e487b7160e01b600052602160045260246000fd5b1415610d9a57846080015160601b6001600160601b031916604051602001610ca791815260200190565b600c85516016811115610dbd57634e487b7160e01b600052602160045260246000fd5b1480610de95750600d85516016811115610de757634e487b7160e01b600052602160045260246000fd5b145b80610e145750600e85516016811115610e1257634e487b7160e01b600052602160045260246000fd5b145b15610e2c578460c00151805190602001209050610f69565b600785516016811115610e4f57634e487b7160e01b600052602160045260246000fd5b1415610e68578460c00151805190602001209050610f69565b600985516016811115610e8b57634e487b7160e01b600052602160045260246000fd5b1415610eb957846080015160601b6001600160601b0319168560c00151604051602001610ca7929190611a98565b84516016811115610eda57634e487b7160e01b600052602160045260246000fd5b60208601516003811115610efe57634e487b7160e01b600052602160045260246000fd5b60001b866040015160601b6001600160601b031916876060015160001b886080015160601b6001600160601b0319168960a0015160001b8a60c00151604051602001610f509796959493929190611a5b565b6040516020818303038152906040528051906020012090505b909590945092505050565b600183810154610f8890829060ff16611c9b565b610f93906002611bc9565b610f9d9190611c76565b63ffffffff168163ffffffff161415610fe35760405162461bcd60e51b81526020600482015260086024820152671c995cd95c9d995960c21b60448201526064016103ea565b60005b825463ffffffff82161015611124576000600180858463ffffffff168154811061102057634e487b7160e01b600052603260045260246000fd5b6000918252602090912060016002909202010154611041919060ff16611c9b565b61104c906002611bc9565b858463ffffffff168154811061107257634e487b7160e01b600052603260045260246000fd5b906000526020600020906002020160010160029054906101000a900463ffffffff1661109e9190611b3b565b6110a89190611c76565b600186015490915063ffffffff808316916110cb91869162010000900416611b3b565b63ffffffff1614156111115760405162461bcd60e51b815260206004820152600f60248201526e5265736572766564206265666f726560881b60448201526064016103ea565b508061111c81611cbe565b915050610fe6565b50505050565b60208082015160408084015181519384015260009283916002910160408051601f198184030181529082905261115f91611ab2565b602060405180830381855afa15801561117c573d6000803e3d6000fd5b5050506040513d601f19601f8201168201806040525081019061119f91906117f8565b905060005b84515160ff82161015611332576001808416141561126957600285600001518260ff16815181106111e557634e487b7160e01b600052603260045260246000fd5b602002602001015183604051602001611208929190918252602082015260400190565b60408051601f198184030181529082905261122291611ab2565b602060405180830381855afa15801561123f573d6000803e3d6000fd5b5050506040513d601f19601f8201168201806040525081019061126291906117f8565b9150611312565b60028286600001518360ff168151811061129357634e487b7160e01b600052603260045260246000fd5b60200260200101516040516020016112b5929190918252602082015260400190565b60408051601f19818403018152908290526112cf91611ab2565b602060405180830381855afa1580156112ec573d6000803e3d6000fd5b5050506040513d601f19601f8201168201806040525081019061130f91906117f8565b91505b60018363ffffffff16901c9250808061132a90611ce2565b9150506111a4565b50855481141561139a5760018681015461134f919060ff16611c9b565b60ff16846000015151146109b05760405162461bcd60e51b8152602060048201526012602482015271426164206e65696768626f72732073697a6560701b60448201526064016103ea565b60005b855463ffffffff821610156114955781868263ffffffff16815481106113d357634e487b7160e01b600052603260045260246000fd5b9060005260206000209060020201600001541415611483576001868263ffffffff168154811061141357634e487b7160e01b600052603260045260246000fd5b6000918252602090912060016002909202010154611434919060ff16611c9b565b60ff1685600001515114610b5a5760405162461bcd60e51b8152602060048201526016602482015275426164206f6c64206e65696768626f72732073697a6560501b60448201526064016103ea565b8061148d81611cbe565b91505061139d565b5060405162461bcd60e51b8152602060048201526012602482015271141c9bdbd9881a5cc81a5b98dbdc9c9958dd60721b60448201526064016103ea565b60006006825160168111156114f857634e487b7160e01b600052602160045260246000fd5b14156115105761150986868561072e565b905061152d565b61151f86868560200151610f74565b61152a86868561112a565b90505b600063ffffffff82161561157e5785611547600184611c76565b63ffffffff168154811061156b57634e487b7160e01b600052603260045260246000fd5b9060005260206000209060020201611580565b865b905060008061158f8686610bc6565b9150915060006115b08489858a60200151868c604001518c6000015161035f565b90506115c3848985848a6000015161015c565b50505050505050505050565b80356001600160a01b03811681146115e657600080fd5b919050565b600082601f8301126115fb578081fd5b813567ffffffffffffffff81111561161557611615611d51565b611628601f8201601f1916602001611b0a565b81815284602083860101111561163c578283fd5b816020850160208301379081016020019190915292915050565b8035601781106115e657600080fd5b8035600481106115e657600080fd5b600060608284031215611685578081fd5b61168d611abe565b9050813567ffffffffffffffff808211156116a757600080fd5b818401915084601f8301126116bb57600080fd5b81356020828211156116cf576116cf611d51565b8160051b92506116e0818401611b0a565b8281528181019085830185870184018a10156116fb57600080fd5b600096505b8487101561171e578035835260019690960195918301918301611700565b5086525061172d8682016117e4565b81860152505050506040820135604082015292915050565b600060e08284031215611756578081fd5b61175e611ae7565b905061176982611656565b815261177760208301611665565b6020820152611788604083016115cf565b6040820152606082013560608201526117a3608083016115cf565b608082015260a082013560a082015260c082013567ffffffffffffffff8111156117cc57600080fd5b6117d8848285016115eb565b60c08301525092915050565b803563ffffffff811681146115e657600080fd5b600060208284031215611809578081fd5b5051919050565b60008060408385031215611822578081fd5b823567ffffffffffffffff80821115611839578283fd5b61184586838701611674565b9350602085013591508082111561185a578283fd5b5061186785828601611745565b9150509250929050565b600080600060608486031215611885578081fd5b8335925060208401359150604084013567ffffffffffffffff8111156118a9578182fd5b6118b586828701611674565b9150509250925092565b600080600080600060a086880312156118d6578081fd5b853594506020860135935060408601359250606086013567ffffffffffffffff80821115611902578283fd5b61190e89838a01611674565b93506080880135915080821115611923578283fd5b5061193088828901611745565b9150509295509295909350565b600080600060608486031215611951578283fd5b8335925060208401359150611968604085016117e4565b90509250925092565b600080600080600080600060e0888a03121561198b578182fd5b8735965060208801359550604088013594506119a9606089016117e4565b93506080880135925060a088013591506119c560c08901611656565b905092959891949750929550565b600080600080600060a086880312156119ea578283fd5b853594506020860135935060408601359250611a08606087016117e4565b9150611a1660808701611656565b90509295509295909350565b60008151815b81811015611a425760208185018101518683015201611a28565b81811115611a505782828601525b509290920192915050565b8781528660208201528560408201528460608201528360808201528260a08201526000611a8b60c0830184611a22565b9998505050505050505050565b8281526000611aaa6020830184611a22565b949350505050565b6000610bbf8284611a22565b6040516060810167ffffffffffffffff81118282101715611ae157611ae1611d51565b60405290565b60405160e0810167ffffffffffffffff81118282101715611ae157611ae1611d51565b604051601f8201601f1916810167ffffffffffffffff81118282101715611b3357611b33611d51565b604052919050565b600063ffffffff808316818516808303821115611b5a57611b5a611d25565b01949350505050565b600063ffffffff80841680611b7a57611b7a611d3b565b92169190910492915050565b600181815b80851115611bc1578160001904821115611ba757611ba7611d25565b80851615611bb457918102915b93841c9390800290611b8b565b509250929050565b6000610bbf60ff841683600082611be257506001611c70565b81611bef57506000611c70565b8160018114611c055760028114611c0f57611c2b565b6001915050611c70565b60ff841115611c2057611c20611d25565b50506001821b611c70565b5060208310610133831016604e8410600b8410161715611c4e575081810a611c70565b611c588383611b86565b8060001904821115611c6c57611c6c611d25565b0290505b92915050565b600063ffffffff83811690831681811015611c9357611c93611d25565b039392505050565b600060ff821660ff841680821015611cb557611cb5611d25565b90039392505050565b600063ffffffff80831681811415611cd857611cd8611d25565b6001019392505050565b600060ff821660ff811415611cf957611cf9611d25565b60010192915050565b600063ffffffff80841680611d1957611d19611d3b565b92169190910692915050565b634e487b7160e01b600052601160045260246000fd5b634e487b7160e01b600052601260045260246000fd5b634e487b7160e01b600052604160045260246000fdfea2646970667358221220882b95b8c5f23255b6358251020d03f183743550f3be3873262ddfc275fd5bcc64736f6c63430008040033",
  "immutableReferences": {},
  "source": "// SPDX-License-Identifier: Apache-2.0\npragma solidity ^0.8.4;\n\nimport \"./Enums.sol\";\nimport \"./IONEWallet.sol\";\nimport \"./CommitManager.sol\";\n\nlibrary Reveal {\n    using CommitManager for CommitManager.CommitState;\n    /// Provides commitHash, paramsHash, and verificationHash given the parameters\n    function getRevealHash(IONEWallet.AuthParams memory auth, IONEWallet.OperationParams memory op) pure public returns (bytes32, bytes32) {\n        bytes32 hash = keccak256(bytes.concat(auth.neighbors[0], bytes32(bytes4(auth.indexWithNonce)), auth.eotp));\n        bytes32 paramsHash = bytes32(0);\n        // Perhaps a better way to do this is simply using the general paramsHash (in else branch) to handle all cases. We are holding off from doing that because that would be a drastic change and it would result in a lot of work for backward compatibility reasons.\n        if (op.operationType == Enums.OperationType.TRANSFER) {\n            paramsHash = keccak256(bytes.concat(bytes32(bytes20(address(op.dest))), bytes32(op.amount)));\n        } else if (op.operationType == Enums.OperationType.RECOVER) {\n            paramsHash = keccak256(op.data);\n        } else if (op.operationType == Enums.OperationType.SET_RECOVERY_ADDRESS) {\n            paramsHash = keccak256(bytes.concat(bytes32(bytes20(address(op.dest)))));\n        } else if (op.operationType == Enums.OperationType.FORWARD) {\n            paramsHash = keccak256(bytes.concat(bytes32(bytes20(address(op.dest)))));\n        } else if (op.operationType == Enums.OperationType.BACKLINK_ADD || op.operationType == Enums.OperationType.BACKLINK_DELETE || op.operationType == Enums.OperationType.BACKLINK_OVERRIDE) {\n            paramsHash = keccak256(op.data);\n        } else if (op.operationType == Enums.OperationType.DISPLACE) {\n            paramsHash = keccak256(op.data);\n        } else if (op.operationType == Enums.OperationType.RECOVER_SELECTED_TOKENS) {\n            paramsHash = keccak256(bytes.concat(bytes32(bytes20(address(op.dest))), op.data));\n        } else {\n            // TRACK, UNTRACK, TRANSFER_TOKEN, OVERRIDE_TRACK, BUY_DOMAIN, RENEW_DOMAIN, TRANSFER_DOMAIN, COMMAND\n            paramsHash = keccak256(bytes.concat(\n                    bytes32(uint256(op.operationType)),\n                    bytes32(uint256(op.tokenType)),\n                    bytes32(bytes20(op.contractAddress)),\n                    bytes32(op.tokenId),\n                    bytes32(bytes20(address(op.dest))),\n                    bytes32(op.amount),\n                    op.data\n                ));\n        }\n        return (hash, paramsHash);\n    }\n\n    /// WARNING: Clients should not use eotps that *may* be used for recovery. The time slots should be manually excluded for use.\n    function isCorrectRecoveryProof(IONEWallet.CoreSetting storage core, IONEWallet.CoreSetting[] storage oldCores, IONEWallet.AuthParams memory auth) view public returns (uint32) {\n        bytes32 h = auth.eotp;\n        uint32 position = auth.indexWithNonce;\n        for (uint8 i = 0; i < auth.neighbors.length; i++) {\n            if ((position & 0x01) == 0x01) {\n                h = sha256(bytes.concat(auth.neighbors[i], h));\n            } else {\n                h = sha256(bytes.concat(h, auth.neighbors[i]));\n            }\n            position >>= 1;\n        }\n        if (core.root == h) {\n            require(auth.neighbors.length == core.height - 1, \"Bad neighbors size\");\n            require(auth.indexWithNonce == (uint32(2 ** (core.height - 1))) - 1, \"Need recovery leaf\");\n            return 0;\n        }\n        // check old cores\n        for (uint32 i = 0; i < oldCores.length; i++) {\n            if (oldCores[i].root == h) {\n                require(auth.neighbors.length == oldCores[i].height - 1, \"Bad old neighbors size\");\n                require(auth.indexWithNonce == uint32(2 ** (oldCores[i].height - 1)) - 1, \"Need old recovery leaf\");\n                return i + 1;\n            }\n        }\n        revert(\"Bad recovery proof\");\n    }\n\n    /// check the current position is not used by *any* core as a recovery slot\n    function isNonRecoveryLeaf(IONEWallet.CoreSetting storage core, IONEWallet.CoreSetting[] storage oldCores, uint32 position) view public {\n        require(position != (uint32(2 ** (core.height - 1))) - 1, \"reserved\");\n        for (uint32 i = 0; i < oldCores.length; i++) {\n            uint32 recoveryPosition = oldCores[i].t0 + uint32(2 ** (oldCores[i].height - 1)) - 1;\n            require(core.t0 + position != recoveryPosition, \"Reserved before\");\n        }\n    }\n\n    /// This is just a wrapper around a modifier previously called `isCorrectProof`, to avoid \"Stack too deep\" error. Duh.\n    function isCorrectProof(IONEWallet.CoreSetting storage core, IONEWallet.CoreSetting[] storage oldCores, IONEWallet.AuthParams memory auth) view public returns (uint32) {\n        uint32 position = auth.indexWithNonce;\n        bytes32 h = sha256(bytes.concat(auth.eotp));\n        for (uint8 i = 0; i < auth.neighbors.length; i++) {\n            if ((position & 0x01) == 0x01) {\n                h = sha256(bytes.concat(auth.neighbors[i], h));\n            } else {\n                h = sha256(bytes.concat(h, auth.neighbors[i]));\n            }\n            position >>= 1;\n        }\n        if (core.root == h) {\n            require(auth.neighbors.length == core.height - 1, \"Bad neighbors size\");\n            return 0;\n        }\n        for (uint32 i = 0; i < oldCores.length; i++) {\n            if (oldCores[i].root == h) {\n                require(auth.neighbors.length == oldCores[i].height - 1, \"Bad old neighbors size\");\n                return i + 1;\n            }\n        }\n        revert(\"Proof is incorrect\");\n    }\n\n\n    /// This function verifies that the first valid entry with respect to the given `eotp` in `commitState.commitLocker[hash]` matches the provided `paramsHash` and `verificationHash`. An entry is valid with respect to `eotp` iff `h3(entry.paramsHash . eotp)` equals `entry.verificationHash`. It returns the index of first valid entry in the array of commits, with respect to the commit hash\n    function verifyReveal(IONEWallet.CoreSetting storage core, CommitManager.CommitState storage commitState, bytes32 hash, uint32 indexWithNonce, bytes32 paramsHash, bytes32 eotp, Enums.OperationType operationType) view public returns (uint32)\n    {\n        uint32 index = indexWithNonce / core.maxOperationsPerInterval;\n        uint8 nonce = uint8(indexWithNonce % core.maxOperationsPerInterval);\n        CommitManager.Commit[] storage cc = commitState.commitLocker[hash];\n        require(cc.length > 0, \"No commit found\");\n        for (uint32 i = 0; i < cc.length; i++) {\n            CommitManager.Commit storage c = cc[i];\n            bytes32 expectedVerificationHash = keccak256(bytes.concat(c.paramsHash, eotp));\n            if (c.verificationHash != expectedVerificationHash) {\n                // Invalid entry. Ignore\n                continue;\n            }\n            require(c.paramsHash == paramsHash, \"Param mismatch\");\n            if (operationType != Enums.OperationType.RECOVER) {\n                uint32 counter = c.timestamp / core.interval;\n                uint32 t = counter - core.t0;\n                require(t == index || t - 1 == index, \"Time mismatch\");\n                uint8 expectedNonce = commitState.nonces[counter];\n                require(nonce >= expectedNonce, \"Nonce too low\");\n            }\n            require(!c.completed, \"Commit already done\");\n            // This normally should not happen, but when the network is congested (regardless of whether due to an attacker's malicious acts or not), the legitimate reveal may become untimely. This may happen before the old commit is cleaned up by another fresh commit. We enforce this restriction so that the attacker would not have a lot of time to reverse-engineer a single EOTP or leaf using an old commit.\n            require(uint32(block.timestamp) - c.timestamp < CommitManager.REVEAL_MAX_DELAY, \"Too late\");\n            return i;\n        }\n        revert(\"No commit\");\n    }\n\n    function completeReveal(IONEWallet.CoreSetting storage core, CommitManager.CommitState storage commitState, bytes32 commitHash, uint32 commitIndex, Enums.OperationType operationType) public {\n        CommitManager.Commit[] storage cc = commitState.commitLocker[commitHash];\n        assert(cc.length > 0);\n        assert(cc.length > commitIndex);\n        CommitManager.Commit storage c = cc[commitIndex];\n        assert(c.timestamp > 0);\n        if (operationType != Enums.OperationType.RECOVER) {\n            uint32 absoluteIndex = uint32(c.timestamp) / core.interval;\n            commitState.incrementNonce(absoluteIndex);\n            commitState.cleanupNonces(core.interval);\n        }\n        c.completed = true;\n    }\n\n    /// Validate `auth` is correct based on settings in `core` (plus `oldCores`, for reocvery operations) and the given operation `op`. Revert if `auth` is not correct. Modify wallet's commit state based on `auth` (increment nonce, mark commit as completed, etc.) if `auth` is correct.\n    function authenticate(IONEWallet.CoreSetting storage core, IONEWallet.CoreSetting[] storage oldCores, CommitManager.CommitState storage commitState, IONEWallet.AuthParams memory auth, IONEWallet.OperationParams memory op) public {\n        uint32 coreIndex = 0;\n        if (op.operationType == Enums.OperationType.RECOVER) {\n            coreIndex = isCorrectRecoveryProof(core, oldCores, auth);\n        } else {\n            isNonRecoveryLeaf(core, oldCores, auth.indexWithNonce);\n            coreIndex = isCorrectProof(core, oldCores, auth);\n        }\n        IONEWallet.CoreSetting storage coreUsed = coreIndex == 0 ? core : oldCores[coreIndex - 1];\n        (bytes32 commitHash, bytes32 paramsHash) = getRevealHash(auth, op);\n        uint32 commitIndex = verifyReveal(coreUsed, commitState, commitHash, auth.indexWithNonce, paramsHash, auth.eotp, op.operationType);\n        completeReveal(coreUsed, commitState, commitHash, commitIndex, op.operationType);\n    }\n}\n",
  "sourcePath": "/Users/polymorpher/git/one-wallet/code/contracts/Reveal.sol",
  "compiler": {
    "name": "solc",
    "version": "0.8.4+commit.c7e474f2.Emscripten.clang"
  },
  "schemaVersion": "3.4.2",
  "updatedAt": "2021-11-03T07:39:34.643Z",
  "devdoc": {
    "kind": "dev",
    "methods": {},
    "version": 1
  },
  "userdoc": {
    "kind": "user",
    "methods": {
      "authenticate(IONEWallet.CoreSetting storage,IONEWallet.CoreSetting[] storage,CommitManager.CommitState storage,IONEWallet.AuthParams,IONEWallet.OperationParams)": {
        "notice": "Validate `auth` is correct based on settings in `core` (plus `oldCores`, for reocvery operations) and the given operation `op`. Revert if `auth` is not correct. Modify wallet's commit state based on `auth` (increment nonce, mark commit as completed, etc.) if `auth` is correct."
      },
      "getRevealHash(IONEWallet.AuthParams,IONEWallet.OperationParams)": {
        "notice": "Provides commitHash, paramsHash, and verificationHash given the parameters"
      },
      "isCorrectProof(IONEWallet.CoreSetting storage,IONEWallet.CoreSetting[] storage,IONEWallet.AuthParams)": {
        "notice": "This is just a wrapper around a modifier previously called `isCorrectProof`, to avoid \"Stack too deep\" error. Duh."
      },
      "isCorrectRecoveryProof(IONEWallet.CoreSetting storage,IONEWallet.CoreSetting[] storage,IONEWallet.AuthParams)": {
        "notice": "WARNING: Clients should not use eotps that *may* be used for recovery. The time slots should be manually excluded for use."
      },
      "isNonRecoveryLeaf(IONEWallet.CoreSetting storage,IONEWallet.CoreSetting[] storage,uint32)": {
        "notice": "check the current position is not used by *any* core as a recovery slot"
      },
      "verifyReveal(IONEWallet.CoreSetting storage,CommitManager.CommitState storage,bytes32,uint32,bytes32,bytes32,Enums.OperationType)": {
        "notice": "This function verifies that the first valid entry with respect to the given `eotp` in `commitState.commitLocker[hash]` matches the provided `paramsHash` and `verificationHash`. An entry is valid with respect to `eotp` iff `h3(entry.paramsHash . eotp)` equals `entry.verificationHash`. It returns the index of first valid entry in the array of commits, with respect to the commit hash"
      }
    },
    "version": 1
  }
}