{
  "contractName": "ReverseRegistrar",
  "abi": [
    {
      "inputs": [
        {
          "internalType": "address",
          "name": "",
          "type": "address"
        }
      ],
      "name": "claim",
      "outputs": [
        {
          "internalType": "bytes32",
          "name": "",
          "type": "bytes32"
        }
      ],
      "stateMutability": "pure",
      "type": "function"
    },
    {
      "inputs": [
        {
          "internalType": "address",
          "name": "",
          "type": "address"
        }
      ],
      "name": "node",
      "outputs": [
        {
          "internalType": "bytes32",
          "name": "",
          "type": "bytes32"
        }
      ],
      "stateMutability": "pure",
      "type": "function"
    },
    {
      "inputs": [
        {
          "internalType": "string",
          "name": "",
          "type": "string"
        }
      ],
      "name": "setName",
      "outputs": [
        {
          "internalType": "bytes32",
          "name": "",
          "type": "bytes32"
        }
      ],
      "stateMutability": "pure",
      "type": "function"
    },
    {
      "inputs": [
        {
          "internalType": "address",
          "name": "",
          "type": "address"
        },
        {
          "internalType": "address",
          "name": "",
          "type": "address"
        }
      ],
      "name": "claimWithResolver",
      "outputs": [
        {
          "internalType": "bytes32",
          "name": "",
          "type": "bytes32"
        }
      ],
      "stateMutability": "pure",
      "type": "function"
    },
    {
      "inputs": [
        {
          "internalType": "address",
          "name": "",
          "type": "address"
        },
        {
          "internalType": "address",
          "name": "",
          "type": "address"
        }
      ],
      "name": "claimForAddr",
      "outputs": [],
      "stateMutability": "pure",
      "type": "function"
    },
    {
      "inputs": [
        {
          "internalType": "address",
          "name": "",
          "type": "address"
        },
        {
          "internalType": "address",
          "name": "",
          "type": "address"
        },
        {
          "internalType": "address",
          "name": "",
          "type": "address"
        }
      ],
      "name": "claimWithResolverForAddr",
      "outputs": [
        {
          "internalType": "bytes32",
          "name": "",
          "type": "bytes32"
        }
      ],
      "stateMutability": "pure",
      "type": "function"
    }
  ],
  "bytecode": "0x608060405234801561001057600080fd5b50610283806100206000396000f3fe608060405234801561001057600080fd5b50600436106100625760003560e01c80630ccc4a7f146100675780630f5a5466146100905780631e83409a146100a65780634709bf4b146100ba578063bffbe61c146100a6578063c47f0027146100ce575b600080fd5b61007e61007536600461014b565b60009392505050565b60405190815260200160405180910390f35b61007e61009e366004610119565b600092915050565b61007e6100b43660046100f8565b50600090565b6100cc6100c8366004610119565b5050565b005b61007e6100b436600461018d565b80356001600160a01b03811681146100f357600080fd5b919050565b600060208284031215610109578081fd5b610112826100dc565b9392505050565b6000806040838503121561012b578081fd5b610134836100dc565b9150610142602084016100dc565b90509250929050565b60008060006060848603121561015f578081fd5b610168846100dc565b9250610176602085016100dc565b9150610184604085016100dc565b90509250925092565b60006020828403121561019e578081fd5b813567ffffffffffffffff808211156101b5578283fd5b818401915084601f8301126101c8578283fd5b8135818111156101da576101da610237565b604051601f8201601f19908116603f0116810190838211818310171561020257610202610237565b8160405282815287602084870101111561021a578586fd5b826020860160208301379182016020019490945295945050505050565b634e487b7160e01b600052604160045260246000fdfea264697066735822122087f4b1ceab320515c9adbb545d998e48da637492afa0aa570738c84893ce663e64736f6c63430008040033",
  "immutableReferences": {},
  "source": "// SPDX-License-Identifier: Apache-2.0\npragma solidity ^0.8.4;\n\nimport \"@ensdomains/subdomain-registrar-core/contracts/interfaces/IRegistrar.sol\";\nimport \"@ensdomains/subdomain-registrar-core/contracts/interfaces/IReverseRegistrar.sol\";\n\ncontract Registrar is IRegistrar {\n    function query(bytes32 /*label*/, string calldata /*subdomain*/) external override pure returns (string memory domain, uint signupFee, uint rent, uint referralFeePPM){\n        return (\"\", 0, 0, 0);\n    }\n\n    function register(bytes32 /*label*/, string calldata /*subdomain*/, address /*owner*/, address payable /*referrer*/, address /*resolver*/) external override payable {\n\n    }\n\n    function rentDue(bytes32 /*label*/, string calldata /*subdomain*/) external override pure returns (uint timestamp){\n        return 0;\n    }\n\n    function payRent(bytes32 /*label*/, string calldata /*subdomain*/) external override  payable {\n\n    }\n}\n\ncontract ReverseRegistrar is IReverseRegistrar {\n    function claim(address /*owner*/) external pure override returns (bytes32){\n        return bytes32(0);\n    }\n\n    function node(address /*addr*/) external pure override returns (bytes32){\n        return bytes32(0);\n    }\n\n    function setName(string memory /*name*/) external pure override returns (bytes32){\n        return bytes32(0);\n    }\n\n    function claimWithResolver(address /*owner*/, address /*resolver*/) external pure override returns (bytes32){\n        return bytes32(0);\n    }\n    // DOES NOT EXIST in vanilla ens/ReverseRegistrar.sol. Added in ens-contracts/contracts/registry/ReverseRegistrar\n    function claimForAddr(address /*addr*/, address /*owner*/) external pure override {\n\n    }\n    // DOES NOT EXIST in vanilla ens/ReverseRegistrar.sol. Added in ens-contracts/contracts/registry/ReverseRegistrar\n    function claimWithResolverForAddr(\n        address /*addr*/,\n        address /*owner*/,\n        address /*resolver*/\n    ) external pure override returns (bytes32){\n        return bytes32(0);\n    }\n}\n",
  "sourcePath": "/Users/polymorpher/git/one-wallet/code/contracts/debug/Registrar.sol",
  "compiler": {
    "name": "solc",
    "version": "0.8.4+commit.c7e474f2.Emscripten.clang"
  },
  "schemaVersion": "3.4.2",
  "updatedAt": "2021-08-16T12:37:32.264Z",
  "devdoc": {
    "kind": "dev",
    "methods": {},
    "version": 1
  },
  "userdoc": {
    "kind": "user",
    "methods": {},
    "version": 1
  }
}