{
  "contractName": "TestERC1155",
  "abi": [
    {
      "inputs": [
        {
          "internalType": "uint256[]",
          "name": "tokenIds",
          "type": "uint256[]"
        },
        {
          "internalType": "uint256[]",
          "name": "amounts",
          "type": "uint256[]"
        },
        {
          "internalType": "string[]",
          "name": "uris_",
          "type": "string[]"
        }
      ],
      "stateMutability": "nonpayable",
      "type": "constructor"
    },
    {
      "anonymous": false,
      "inputs": [
        {
          "indexed": true,
          "internalType": "address",
          "name": "account",
          "type": "address"
        },
        {
          "indexed": true,
          "internalType": "address",
          "name": "operator",
          "type": "address"
        },
        {
          "indexed": false,
          "internalType": "bool",
          "name": "approved",
          "type": "bool"
        }
      ],
      "name": "ApprovalForAll",
      "type": "event"
    },
    {
      "anonymous": false,
      "inputs": [
        {
          "indexed": true,
          "internalType": "address",
          "name": "operator",
          "type": "address"
        },
        {
          "indexed": true,
          "internalType": "address",
          "name": "from",
          "type": "address"
        },
        {
          "indexed": true,
          "internalType": "address",
          "name": "to",
          "type": "address"
        },
        {
          "indexed": false,
          "internalType": "uint256[]",
          "name": "ids",
          "type": "uint256[]"
        },
        {
          "indexed": false,
          "internalType": "uint256[]",
          "name": "values",
          "type": "uint256[]"
        }
      ],
      "name": "TransferBatch",
      "type": "event"
    },
    {
      "anonymous": false,
      "inputs": [
        {
          "indexed": true,
          "internalType": "address",
          "name": "operator",
          "type": "address"
        },
        {
          "indexed": true,
          "internalType": "address",
          "name": "from",
          "type": "address"
        },
        {
          "indexed": true,
          "internalType": "address",
          "name": "to",
          "type": "address"
        },
        {
          "indexed": false,
          "internalType": "uint256",
          "name": "id",
          "type": "uint256"
        },
        {
          "indexed": false,
          "internalType": "uint256",
          "name": "value",
          "type": "uint256"
        }
      ],
      "name": "TransferSingle",
      "type": "event"
    },
    {
      "anonymous": false,
      "inputs": [
        {
          "indexed": false,
          "internalType": "string",
          "name": "value",
          "type": "string"
        },
        {
          "indexed": true,
          "internalType": "uint256",
          "name": "id",
          "type": "uint256"
        }
      ],
      "name": "URI",
      "type": "event"
    },
    {
      "inputs": [
        {
          "internalType": "address",
          "name": "account",
          "type": "address"
        },
        {
          "internalType": "uint256",
          "name": "id",
          "type": "uint256"
        }
      ],
      "name": "balanceOf",
      "outputs": [
        {
          "internalType": "uint256",
          "name": "",
          "type": "uint256"
        }
      ],
      "stateMutability": "view",
      "type": "function"
    },
    {
      "inputs": [
        {
          "internalType": "address[]",
          "name": "accounts",
          "type": "address[]"
        },
        {
          "internalType": "uint256[]",
          "name": "ids",
          "type": "uint256[]"
        }
      ],
      "name": "balanceOfBatch",
      "outputs": [
        {
          "internalType": "uint256[]",
          "name": "",
          "type": "uint256[]"
        }
      ],
      "stateMutability": "view",
      "type": "function"
    },
    {
      "inputs": [
        {
          "internalType": "address",
          "name": "account",
          "type": "address"
        },
        {
          "internalType": "address",
          "name": "operator",
          "type": "address"
        }
      ],
      "name": "isApprovedForAll",
      "outputs": [
        {
          "internalType": "bool",
          "name": "",
          "type": "bool"
        }
      ],
      "stateMutability": "view",
      "type": "function"
    },
    {
      "inputs": [
        {
          "internalType": "address",
          "name": "from",
          "type": "address"
        },
        {
          "internalType": "address",
          "name": "to",
          "type": "address"
        },
        {
          "internalType": "uint256[]",
          "name": "ids",
          "type": "uint256[]"
        },
        {
          "internalType": "uint256[]",
          "name": "amounts",
          "type": "uint256[]"
        },
        {
          "internalType": "bytes",
          "name": "data",
          "type": "bytes"
        }
      ],
      "name": "safeBatchTransferFrom",
      "outputs": [],
      "stateMutability": "nonpayable",
      "type": "function"
    },
    {
      "inputs": [
        {
          "internalType": "address",
          "name": "from",
          "type": "address"
        },
        {
          "internalType": "address",
          "name": "to",
          "type": "address"
        },
        {
          "internalType": "uint256",
          "name": "id",
          "type": "uint256"
        },
        {
          "internalType": "uint256",
          "name": "amount",
          "type": "uint256"
        },
        {
          "internalType": "bytes",
          "name": "data",
          "type": "bytes"
        }
      ],
      "name": "safeTransferFrom",
      "outputs": [],
      "stateMutability": "nonpayable",
      "type": "function"
    },
    {
      "inputs": [
        {
          "internalType": "address",
          "name": "operator",
          "type": "address"
        },
        {
          "internalType": "bool",
          "name": "approved",
          "type": "bool"
        }
      ],
      "name": "setApprovalForAll",
      "outputs": [],
      "stateMutability": "nonpayable",
      "type": "function"
    },
    {
      "inputs": [
        {
          "internalType": "bytes4",
          "name": "interfaceId",
          "type": "bytes4"
        }
      ],
      "name": "supportsInterface",
      "outputs": [
        {
          "internalType": "bool",
          "name": "",
          "type": "bool"
        }
      ],
      "stateMutability": "view",
      "type": "function"
    },
    {
      "inputs": [
        {
          "internalType": "uint256",
          "name": "tokenId",
          "type": "uint256"
        },
        {
          "internalType": "uint256",
          "name": "amount",
          "type": "uint256"
        },
        {
          "internalType": "address",
          "name": "dest",
          "type": "address"
        },
        {
          "internalType": "string",
          "name": "metadataUri",
          "type": "string"
        }
      ],
      "name": "mint",
      "outputs": [],
      "stateMutability": "nonpayable",
      "type": "function"
    },
    {
      "inputs": [
        {
          "internalType": "uint256",
          "name": "tokenId",
          "type": "uint256"
        },
        {
          "internalType": "uint256",
          "name": "amount",
          "type": "uint256"
        },
        {
          "internalType": "address",
          "name": "dest",
          "type": "address"
        },
        {
          "internalType": "string",
          "name": "metadataUri",
          "type": "string"
        }
      ],
      "name": "payToMint",
      "outputs": [],
      "stateMutability": "payable",
      "type": "function"
    },
    {
      "inputs": [
        {
          "internalType": "uint256",
          "name": "id",
          "type": "uint256"
        },
        {
          "internalType": "string",
          "name": "uri_",
          "type": "string"
        }
      ],
      "name": "setUri",
      "outputs": [],
      "stateMutability": "nonpayable",
      "type": "function"
    },
    {
      "inputs": [
        {
          "internalType": "uint256",
          "name": "id",
          "type": "uint256"
        }
      ],
      "name": "uri",
      "outputs": [
        {
          "internalType": "string",
          "name": "",
          "type": "string"
        }
      ],
      "stateMutability": "view",
      "type": "function"
    },
    {
      "inputs": [
        {
          "internalType": "address",
          "name": "dest",
          "type": "address"
        },
        {
          "internalType": "uint256",
          "name": "tokenId",
          "type": "uint256"
        },
        {
          "internalType": "uint256",
          "name": "amount",
          "type": "uint256"
        }
      ],
      "name": "burn",
      "outputs": [],
      "stateMutability": "nonpayable",
      "type": "function"
    }
  ],
  "bytecode": "0x60806040523480156200001157600080fd5b506040516200258c3803806200258c833981016040819052620000349162000646565b6040805160208101909152600081526200004e816200019d565b50600380546001600160a01b0319163317905560005b83518163ffffffff1610156200019357620000f833858363ffffffff1681518110620000a057634e487b7160e01b600052603260045260246000fd5b6020026020010151858463ffffffff1681518110620000cf57634e487b7160e01b600052603260045260246000fd5b602002602001015160405180602001604052806000815250620001b660201b620009581760201c565b818163ffffffff16815181106200011f57634e487b7160e01b600052603260045260246000fd5b602002602001015160046000868463ffffffff16815181106200015257634e487b7160e01b600052603260045260246000fd5b6020026020010151815260200190815260200160002090805190602001906200017d92919062000524565b50806200018a816200094a565b91505062000064565b5050505062000a45565b8051620001b290600290602084019062000524565b5050565b6001600160a01b0384166200021c5760405162461bcd60e51b815260206004820152602160248201527f455243313135353a206d696e7420746f20746865207a65726f206164647265736044820152607360f81b60648201526084015b60405180910390fd5b3362000242816000876200023088620002d6565b6200023b88620002d6565b5050505050565b6000848152602081815260408083206001600160a01b0389168452909152812080548592906200027490849062000890565b909155505060408051858152602081018590526001600160a01b0380881692600092918516917fc3d58168c5ae7397731d063d5bbf3d657854427343f4c083240f7aacaa2d0f62910160405180910390a46200023b8160008787878762000338565b604080516001808252818301909252606091600091906020808301908036833701905050905082816000815181106200031f57634e487b7160e01b600052603260045260246000fd5b602090810291909101015292915050565b505050505050565b62000357846001600160a01b03166200051e60201b62000a621760201c565b15620003305760405163f23a6e6160e01b81526001600160a01b0385169063f23a6e61906200039390899089908890889088906004016200080e565b602060405180830381600087803b158015620003ae57600080fd5b505af1925050508015620003e1575060408051601f3d908101601f19168201909252620003de91810190620007af565b60015b620004a257620003f06200099d565b806308c379a0141562000431575062000408620009b6565b8062000415575062000433565b8060405162461bcd60e51b815260040162000213919062000855565b505b60405162461bcd60e51b815260206004820152603460248201527f455243313135353a207472616e7366657220746f206e6f6e204552433131353560448201527f526563656976657220696d706c656d656e746572000000000000000000000000606482015260840162000213565b6001600160e01b0319811663f23a6e6160e01b14620005155760405162461bcd60e51b815260206004820152602860248201527f455243313135353a204552433131353552656365697665722072656a656374656044820152676420746f6b656e7360c01b606482015260840162000213565b50505050505050565b3b151590565b8280546200053290620008de565b90600052602060002090601f016020900481019282620005565760008555620005a1565b82601f106200057157805160ff1916838001178555620005a1565b82800160010185558215620005a1579182015b82811115620005a157825182559160200191906001019062000584565b50620005af929150620005b3565b5090565b5b80821115620005af5760008155600101620005b4565b600082601f830112620005db578081fd5b81516020620005ea826200086a565b604051620005f982826200091b565b8381528281019150858301600585901b8701840188101562000619578586fd5b855b8581101562000639578151845292840192908401906001016200061b565b5090979650505050505050565b6000806000606084860312156200065b578283fd5b83516001600160401b038082111562000672578485fd5b6200068087838801620005ca565b945060209150818601518181111562000697578485fd5b620006a588828901620005ca565b945050604086015181811115620006ba578384fd5b8601601f81018813620006cb578384fd5b8051620006d8816200086a565b604051620006e782826200091b565b8281528581019150838601600584901b850187018c101562000707578788fd5b875b848110156200079d578151878111156200072157898afd5b8601603f81018e136200073257898afd5b888101518881111562000749576200074962000987565b60405162000761601f8301601f19168c01826200091b565b8181528f604083850101111562000776578b8cfd5b62000788828c830160408601620008ab565b86525050928701929087019060010162000709565b50508096505050505050509250925092565b600060208284031215620007c1578081fd5b81516001600160e01b031981168114620007d9578182fd5b9392505050565b60008151808452620007fa816020860160208601620008ab565b601f01601f19169290920160200192915050565b6001600160a01b03868116825285166020820152604081018490526060810183905260a0608082018190526000906200084a90830184620007e0565b979650505050505050565b602081526000620007d96020830184620007e0565b60006001600160401b0382111562000886576200088662000987565b5060051b60200190565b60008219821115620008a657620008a662000971565b500190565b60005b83811015620008c8578181015183820152602001620008ae565b83811115620008d8576000848401525b50505050565b600181811c90821680620008f357607f821691505b602082108114156200091557634e487b7160e01b600052602260045260246000fd5b50919050565b601f8201601f191681016001600160401b038111828210171562000943576200094362000987565b6040525050565b600063ffffffff8083168181141562000967576200096762000971565b6001019392505050565b634e487b7160e01b600052601160045260246000fd5b634e487b7160e01b600052604160045260246000fd5b600060033d1115620009b357600481823e5160e01c5b90565b600060443d1015620009c55790565b6040516003193d81016004833e81513d6001600160401b038083116024840183101715620009f557505050505090565b828501915081518181111562000a0e5750505050505090565b843d870101602082850101111562000a295750505050505090565b62000a3a602082860101876200091b565b509095945050505050565b611b378062000a556000396000f3fe6080604052600436106100a65760003560e01c8063a22cb46511610064578063a22cb465146101aa578063a382a4d9146101ca578063cf09dd3a146101ea578063e985e9c5146101fd578063f242432a14610246578063f5298aca1461026657600080fd5b8062fdd58e146100ab57806301ffc9a7146100de5780630e89341c1461010e5780632eb2c2d61461013b5780634e1273f41461015d578063782f08ae1461018a575b600080fd5b3480156100b757600080fd5b506100cb6100c636600461148b565b610286565b6040519081526020015b60405180910390f35b3480156100ea57600080fd5b506100fe6100f93660046115b1565b61031d565b60405190151581526020016100d5565b34801561011a57600080fd5b5061012e6101293660046115f0565b61036f565b6040516100d5919061180b565b34801561014757600080fd5b5061015b610156366004611348565b610411565b005b34801561016957600080fd5b5061017d6101783660046114e6565b6104a8565b6040516100d591906117ca565b34801561019657600080fd5b5061015b6101a5366004611608565b61060a565b3480156101b657600080fd5b5061015b6101c5366004611451565b610658565b3480156101d657600080fd5b5061015b6101e5366004611643565b61072f565b61015b6101f8366004611643565b610793565b34801561020957600080fd5b506100fe610218366004611316565b6001600160a01b03918216600090815260016020908152604080832093909416825291909152205460ff1690565b34801561025257600080fd5b5061015b6102613660046113ee565b61089c565b34801561027257600080fd5b5061015b6102813660046114b4565b610923565b60006001600160a01b0383166102f75760405162461bcd60e51b815260206004820152602b60248201527f455243313135353a2062616c616e636520717565727920666f7220746865207a60448201526a65726f206164647265737360a81b60648201526084015b60405180910390fd5b506000908152602081815260408083206001600160a01b03949094168352929052205490565b60006001600160e01b03198216636cdb3d1360e11b148061034e57506001600160e01b031982166303a24d0760e21b145b8061036957506301ffc9a760e01b6001600160e01b03198316145b92915050565b600081815260046020526040902080546060919061038c90611997565b80601f01602080910402602001604051908101604052809291908181526020018280546103b890611997565b80156104055780601f106103da57610100808354040283529160200191610405565b820191906000526020600020905b8154815290600101906020018083116103e857829003601f168201915b50505050509050919050565b6001600160a01b03851633148061042d575061042d8533610218565b6104945760405162461bcd60e51b815260206004820152603260248201527f455243313135353a207472616e736665722063616c6c6572206973206e6f74206044820152711bdddb995c881b9bdc88185c1c1c9bdd995960721b60648201526084016102ee565b6104a18585858585610a68565b5050505050565b6060815183511461050d5760405162461bcd60e51b815260206004820152602960248201527f455243313135353a206163636f756e747320616e6420696473206c656e677468604482015268040dad2e6dac2e8c6d60bb1b60648201526084016102ee565b6000835167ffffffffffffffff81111561053757634e487b7160e01b600052604160045260246000fd5b604051908082528060200260200182016040528015610560578160200160208202803683370190505b50905060005b8451811015610602576105c785828151811061059257634e487b7160e01b600052603260045260246000fd5b60200260200101518583815181106105ba57634e487b7160e01b600052603260045260246000fd5b6020026020010151610286565b8282815181106105e757634e487b7160e01b600052603260045260246000fd5b60209081029190910101526105fb816119ff565b9050610566565b509392505050565b6003546001600160a01b031633146106345760405162461bcd60e51b81526004016102ee90611866565b600082815260046020908152604090912082516106539284019061117e565b505050565b336001600160a01b03831614156106c35760405162461bcd60e51b815260206004820152602960248201527f455243313135353a2073657474696e6720617070726f76616c20737461747573604482015268103337b91039b2b63360b91b60648201526084016102ee565b3360008181526001602090815260408083206001600160a01b03871680855290835292819020805460ff191686151590811790915590519081529192917f17307eab39ab6107e8899845ad3d59bd9653f200f220920489ca2b5937696c31910160405180910390a35050565b6003546001600160a01b031633146107595760405162461bcd60e51b81526004016102ee90611866565b61077482858560405180602001604052806000815250610958565b600084815260046020908152604090912082516104a19284019061117e565b6107a583670de0b6b3a7640000611961565b3410156107eb5760405162461bcd60e51b8152602060048201526014602482015273125b9cdd59999a58da595b9d081c185e5b595b9d60621b60448201526064016102ee565b60006107ff84670de0b6b3a7640000611961565b6108099034611980565b9050801561085a5760405133908290600081818185875af1925050503d8060008114610851576040519150601f19603f3d011682016040523d82523d6000602084013e610856565b606091505b5050505b61087583868660405180602001604052806000815250610958565b600085815260046020908152604090912083516108949285019061117e565b505050505050565b6001600160a01b0385163314806108b857506108b88533610218565b6109165760405162461bcd60e51b815260206004820152602960248201527f455243313135353a2063616c6c6572206973206e6f74206f776e6572206e6f7260448201526808185c1c1c9bdd995960ba1b60648201526084016102ee565b6104a18585858585610c59565b6003546001600160a01b0316331461094d5760405162461bcd60e51b81526004016102ee90611866565b610653838383610d76565b6001600160a01b0384166109b85760405162461bcd60e51b815260206004820152602160248201527f455243313135353a206d696e7420746f20746865207a65726f206164647265736044820152607360f81b60648201526084016102ee565b336109d2816000876109c988610ef0565b6104a188610ef0565b6000848152602081815260408083206001600160a01b038916845290915281208054859290610a02908490611949565b909155505060408051858152602081018590526001600160a01b0380881692600092918516917fc3d58168c5ae7397731d063d5bbf3d657854427343f4c083240f7aacaa2d0f62910160405180910390a46104a181600087878787610f49565b3b151590565b8151835114610aca5760405162461bcd60e51b815260206004820152602860248201527f455243313135353a2069647320616e6420616d6f756e7473206c656e677468206044820152670dad2e6dac2e8c6d60c31b60648201526084016102ee565b6001600160a01b038416610af05760405162461bcd60e51b81526004016102ee90611896565b3360005b8451811015610bf3576000858281518110610b1f57634e487b7160e01b600052603260045260246000fd5b602002602001015190506000858381518110610b4b57634e487b7160e01b600052603260045260246000fd5b602090810291909101810151600084815280835260408082206001600160a01b038e168352909352919091205490915081811015610b9b5760405162461bcd60e51b81526004016102ee906118db565b6000838152602081815260408083206001600160a01b038e8116855292528083208585039055908b16825281208054849290610bd8908490611949565b9250508190555050505080610bec906119ff565b9050610af4565b50846001600160a01b0316866001600160a01b0316826001600160a01b03167f4a39dc06d4c0dbc64b70af90fd698a233a518aa5d07e595d983b8c0526c8f7fb8787604051610c439291906117dd565b60405180910390a46108948187878787876110b4565b6001600160a01b038416610c7f5760405162461bcd60e51b81526004016102ee90611896565b33610c8f8187876109c988610ef0565b6000848152602081815260408083206001600160a01b038a16845290915290205483811015610cd05760405162461bcd60e51b81526004016102ee906118db565b6000858152602081815260408083206001600160a01b038b8116855292528083208785039055908816825281208054869290610d0d908490611949565b909155505060408051868152602081018690526001600160a01b03808916928a821692918616917fc3d58168c5ae7397731d063d5bbf3d657854427343f4c083240f7aacaa2d0f62910160405180910390a4610d6d828888888888610f49565b50505050505050565b6001600160a01b038316610dd85760405162461bcd60e51b815260206004820152602360248201527f455243313135353a206275726e2066726f6d20746865207a65726f206164647260448201526265737360e81b60648201526084016102ee565b33610e0881856000610de987610ef0565b610df287610ef0565b5050604080516020810190915260009052505050565b6000838152602081815260408083206001600160a01b038816845290915290205482811015610e855760405162461bcd60e51b8152602060048201526024808201527f455243313135353a206275726e20616d6f756e7420657863656564732062616c604482015263616e636560e01b60648201526084016102ee565b6000848152602081815260408083206001600160a01b03898116808652918452828520888703905582518981529384018890529092908616917fc3d58168c5ae7397731d063d5bbf3d657854427343f4c083240f7aacaa2d0f62910160405180910390a45050505050565b60408051600180825281830190925260609160009190602080830190803683370190505090508281600081518110610f3857634e487b7160e01b600052603260045260246000fd5b602090810291909101015292915050565b6001600160a01b0384163b156108945760405163f23a6e6160e01b81526001600160a01b0385169063f23a6e6190610f8d9089908990889088908890600401611785565b602060405180830381600087803b158015610fa757600080fd5b505af1925050508015610fd7575060408051601f3d908101601f19168201909252610fd4918101906115d4565b60015b61108457610fe3611a46565b806308c379a0141561101d5750610ff8611a5e565b80611003575061101f565b8060405162461bcd60e51b81526004016102ee919061180b565b505b60405162461bcd60e51b815260206004820152603460248201527f455243313135353a207472616e7366657220746f206e6f6e20455243313135356044820152732932b1b2b4bb32b91034b6b83632b6b2b73a32b960611b60648201526084016102ee565b6001600160e01b0319811663f23a6e6160e01b14610d6d5760405162461bcd60e51b81526004016102ee9061181e565b6001600160a01b0384163b156108945760405163bc197c8160e01b81526001600160a01b0385169063bc197c81906110f89089908990889088908890600401611727565b602060405180830381600087803b15801561111257600080fd5b505af1925050508015611142575060408051601f3d908101601f1916820190925261113f918101906115d4565b60015b61114e57610fe3611a46565b6001600160e01b0319811663bc197c8160e01b14610d6d5760405162461bcd60e51b81526004016102ee9061181e565b82805461118a90611997565b90600052602060002090601f0160209004810192826111ac57600085556111f2565b82601f106111c557805160ff19168380011785556111f2565b828001600101855582156111f2579182015b828111156111f25782518255916020019190600101906111d7565b506111fe929150611202565b5090565b5b808211156111fe5760008155600101611203565b80356001600160a01b038116811461122e57600080fd5b919050565b600082601f830112611243578081fd5b8135602061125082611925565b60405161125d82826119d2565b8381528281019150858301600585901b8701840188101561127c578586fd5b855b8581101561129a5781358452928401929084019060010161127e565b5090979650505050505050565b600082601f8301126112b7578081fd5b813567ffffffffffffffff8111156112d1576112d1611a30565b6040516112e8601f8301601f1916602001826119d2565b8181528460208386010111156112fc578283fd5b816020850160208301379081016020019190915292915050565b60008060408385031215611328578182fd5b61133183611217565b915061133f60208401611217565b90509250929050565b600080600080600060a0868803121561135f578081fd5b61136886611217565b945061137660208701611217565b9350604086013567ffffffffffffffff80821115611392578283fd5b61139e89838a01611233565b945060608801359150808211156113b3578283fd5b6113bf89838a01611233565b935060808801359150808211156113d4578283fd5b506113e1888289016112a7565b9150509295509295909350565b600080600080600060a08688031215611405578081fd5b61140e86611217565b945061141c60208701611217565b93506040860135925060608601359150608086013567ffffffffffffffff811115611445578182fd5b6113e1888289016112a7565b60008060408385031215611463578182fd5b61146c83611217565b915060208301358015158114611480578182fd5b809150509250929050565b6000806040838503121561149d578182fd5b6114a683611217565b946020939093013593505050565b6000806000606084860312156114c8578283fd5b6114d184611217565b95602085013595506040909401359392505050565b600080604083850312156114f8578182fd5b823567ffffffffffffffff8082111561150f578384fd5b818501915085601f830112611522578384fd5b8135602061152f82611925565b60405161153c82826119d2565b8381528281019150858301600585901b870184018b101561155b578889fd5b8896505b848710156115845761157081611217565b83526001969096019591830191830161155f565b509650508601359250508082111561159a578283fd5b506115a785828601611233565b9150509250929050565b6000602082840312156115c2578081fd5b81356115cd81611ae8565b9392505050565b6000602082840312156115e5578081fd5b81516115cd81611ae8565b600060208284031215611601578081fd5b5035919050565b6000806040838503121561161a578182fd5b82359150602083013567ffffffffffffffff811115611637578182fd5b6115a7858286016112a7565b60008060008060808587031215611658578182fd5b843593506020850135925061166f60408601611217565b9150606085013567ffffffffffffffff81111561168a578182fd5b611696878288016112a7565b91505092959194509250565b6000815180845260208085019450808401835b838110156116d1578151875295820195908201906001016116b5565b509495945050505050565b60008151808452815b81811015611701576020818501810151868301820152016116e5565b818111156117125782602083870101525b50601f01601f19169290920160200192915050565b6001600160a01b0386811682528516602082015260a060408201819052600090611753908301866116a2565b828103606084015261176581866116a2565b9050828103608084015261177981856116dc565b98975050505050505050565b6001600160a01b03868116825285166020820152604081018490526060810183905260a0608082018190526000906117bf908301846116dc565b979650505050505050565b6020815260006115cd60208301846116a2565b6040815260006117f060408301856116a2565b828103602084015261180281856116a2565b95945050505050565b6020815260006115cd60208301846116dc565b60208082526028908201527f455243313135353a204552433131353552656365697665722072656a656374656040820152676420746f6b656e7360c01b606082015260800190565b6020808252601690820152754f6e6c792061646d696e2063616e20646f207468697360501b604082015260600190565b60208082526025908201527f455243313135353a207472616e7366657220746f20746865207a65726f206164604082015264647265737360d81b606082015260800190565b6020808252602a908201527f455243313135353a20696e73756666696369656e742062616c616e636520666f60408201526939103a3930b739b332b960b11b606082015260800190565b600067ffffffffffffffff82111561193f5761193f611a30565b5060051b60200190565b6000821982111561195c5761195c611a1a565b500190565b600081600019048311821515161561197b5761197b611a1a565b500290565b60008282101561199257611992611a1a565b500390565b600181811c908216806119ab57607f821691505b602082108114156119cc57634e487b7160e01b600052602260045260246000fd5b50919050565b601f8201601f1916810167ffffffffffffffff811182821017156119f8576119f8611a30565b6040525050565b6000600019821415611a1357611a13611a1a565b5060010190565b634e487b7160e01b600052601160045260246000fd5b634e487b7160e01b600052604160045260246000fd5b600060033d1115611a5b57600481823e5160e01c5b90565b600060443d1015611a6c5790565b6040516003193d81016004833e81513d67ffffffffffffffff8160248401118184111715611a9c57505050505090565b8285019150815181811115611ab45750505050505090565b843d8701016020828501011115611ace5750505050505090565b611add602082860101876119d2565b509095945050505050565b6001600160e01b031981168114611afe57600080fd5b5056fea264697066735822122049247e3308be7f27d64860ce0754745459a03f94dd9dc5449cf49e5eeeaabc6064736f6c63430008040033",
  "immutableReferences": {},
  "source": "// SPDX-License-Identifier: Apache-2.0\npragma solidity >=0.8.0;\n\nimport \"@openzeppelin/contracts/token/ERC20/ERC20.sol\";\nimport \"@openzeppelin/contracts/token/ERC721/ERC721.sol\";\nimport \"@openzeppelin/contracts/token/ERC1155/ERC1155.sol\";\n\ncontract TestERC20 is ERC20 {\n    string constant NAME = \"Test20\";\n    string constant SYMBOL = \"T20\";\n    address admin;\n    constructor(uint256 _amount)\n    ERC20(NAME, SYMBOL) {\n        admin = msg.sender;\n        _mint(msg.sender, _amount);\n    }\n    modifier isAdmin(){\n        require(msg.sender == admin, \"Only admin can do this\");\n        _;\n    }\n    function mint(address dest, uint256 amount) public isAdmin() {\n        ERC20._mint(dest, amount);\n    }\n\n    function burn(address dest, uint256 amount) public isAdmin() {\n        ERC20._burn(dest, amount);\n    }\n}\n\ncontract TestERC20Decimals9 is ERC20 {\n    string constant NAME = \"Test20_D9\";\n    string constant SYMBOL = \"T20D9\";\n    address admin;\n    constructor(uint256 _amount)\n    ERC20(NAME, SYMBOL) {\n        admin = msg.sender;\n        _mint(msg.sender, _amount);\n    }\n    modifier isAdmin(){\n        require(msg.sender == admin, \"Only admin can do this\");\n        _;\n    }\n    function mint(address dest, uint256 amount) public isAdmin() {\n        ERC20._mint(dest, amount);\n    }\n\n    function burn(address dest, uint256 amount) public isAdmin() {\n        ERC20._burn(dest, amount);\n    }\n\n    function decimals() public pure override returns (uint8) {\n        return 9;\n    }\n}\n\ncontract TestERC721 is ERC721 {\n    string constant NAME = \"Test721\";\n    string constant SYMBOL = \"T721\";\n    address admin;\n    mapping(uint256 => string) uris;\n\n    constructor(uint256[] memory tokenIds, string[] memory uris_)\n    ERC721(NAME, SYMBOL) {\n        admin = msg.sender;\n        for (uint32 i = 0; i < tokenIds.length; i++) {\n            ERC721._mint(msg.sender, tokenIds[i]);\n            uris[tokenIds[i]] = uris_[i];\n        }\n\n    }\n    modifier isAdmin(){\n        require(msg.sender == admin, \"Only admin can do this\");\n        _;\n    }\n    function mint(address dest, uint256 tokenId) external isAdmin() {\n        ERC721._mint(dest, tokenId);\n    }\n\n    function burn(uint256 tokenId) external isAdmin() {\n        ERC721._burn(tokenId);\n    }\n\n    function setTokenUri(uint256 tokenId, string memory uri) external isAdmin() {\n        uris[tokenId] = uri;\n    }\n\n    function tokenURI(uint256 tokenId) public view override returns (string memory){\n        return uris[tokenId];\n    }\n}\n\ncontract TestERC1155 is ERC1155 {\n    address admin;\n    mapping(uint256 => string) metadataUris;\n    constructor(uint256[] memory tokenIds, uint256[] memory amounts, string[] memory uris_)\n    ERC1155(\"\") {\n        admin = msg.sender;\n        for (uint32 i = 0; i < tokenIds.length; i++) {\n            ERC1155._mint(msg.sender, tokenIds[i], amounts[i], \"\");\n            metadataUris[tokenIds[i]] = uris_[i];\n        }\n    }\n    modifier isAdmin(){\n        require(msg.sender == admin, \"Only admin can do this\");\n        _;\n    }\n    function mint(uint256 tokenId, uint256 amount, address dest, string memory metadataUri) public isAdmin() {\n        ERC1155._mint(dest, tokenId, amount, \"\");\n        metadataUris[tokenId] = metadataUri;\n    }\n\n    function payToMint(uint256 tokenId, uint256 amount, address dest, string memory metadataUri) payable external {\n        require(msg.value >= (amount * 1 ether), \"Insufficient payment\");\n        uint256 excess = msg.value - (amount * 1 ether);\n        if (excess > 0) {\n            msg.sender.call{value : excess}(\"\");\n        }\n        ERC1155._mint(dest, tokenId, amount, \"\");\n        metadataUris[tokenId] = metadataUri;\n    }\n\n    function setUri(uint256 id, string memory uri_) public isAdmin() {\n        metadataUris[id] = uri_;\n    }\n\n    function uri(uint256 id) override public view returns (string memory){\n        return metadataUris[id];\n    }\n\n    function burn(address dest, uint256 tokenId, uint256 amount) public isAdmin() {\n        ERC1155._burn(dest, tokenId, amount);\n    }\n}\n",
  "sourcePath": "/Users/john/one-wallet/one-wallet/code/contracts/debug/TestTokens.sol",
  "compiler": {
    "name": "solc",
    "version": "0.8.4+commit.c7e474f2.Emscripten.clang"
  },
  "schemaVersion": "3.4.3",
  "updatedAt": "2022-03-08T00:51:57.103Z",
  "devdoc": {
    "kind": "dev",
    "methods": {
      "balanceOf(address,uint256)": {
        "details": "See {IERC1155-balanceOf}. Requirements: - `account` cannot be the zero address."
      },
      "balanceOfBatch(address[],uint256[])": {
        "details": "See {IERC1155-balanceOfBatch}. Requirements: - `accounts` and `ids` must have the same length."
      },
      "isApprovedForAll(address,address)": {
        "details": "See {IERC1155-isApprovedForAll}."
      },
      "safeBatchTransferFrom(address,address,uint256[],uint256[],bytes)": {
        "details": "See {IERC1155-safeBatchTransferFrom}."
      },
      "safeTransferFrom(address,address,uint256,uint256,bytes)": {
        "details": "See {IERC1155-safeTransferFrom}."
      },
      "setApprovalForAll(address,bool)": {
        "details": "See {IERC1155-setApprovalForAll}."
      },
      "supportsInterface(bytes4)": {
        "details": "See {IERC165-supportsInterface}."
      }
    },
    "version": 1
  },
  "userdoc": {
    "kind": "user",
    "methods": {},
    "version": 1
  }
}