{
  "contractName": "TestERC721",
  "abi": [
    {
      "inputs": [
        {
          "internalType": "uint256[]",
          "name": "tokenIds",
          "type": "uint256[]"
        },
        {
          "internalType": "string[]",
          "name": "uris_",
          "type": "string[]"
        }
      ],
      "stateMutability": "nonpayable",
      "type": "constructor"
    },
    {
      "anonymous": false,
      "inputs": [
        {
          "indexed": true,
          "internalType": "address",
          "name": "owner",
          "type": "address"
        },
        {
          "indexed": true,
          "internalType": "address",
          "name": "approved",
          "type": "address"
        },
        {
          "indexed": true,
          "internalType": "uint256",
          "name": "tokenId",
          "type": "uint256"
        }
      ],
      "name": "Approval",
      "type": "event"
    },
    {
      "anonymous": false,
      "inputs": [
        {
          "indexed": true,
          "internalType": "address",
          "name": "owner",
          "type": "address"
        },
        {
          "indexed": true,
          "internalType": "address",
          "name": "operator",
          "type": "address"
        },
        {
          "indexed": false,
          "internalType": "bool",
          "name": "approved",
          "type": "bool"
        }
      ],
      "name": "ApprovalForAll",
      "type": "event"
    },
    {
      "anonymous": false,
      "inputs": [
        {
          "indexed": true,
          "internalType": "address",
          "name": "from",
          "type": "address"
        },
        {
          "indexed": true,
          "internalType": "address",
          "name": "to",
          "type": "address"
        },
        {
          "indexed": true,
          "internalType": "uint256",
          "name": "tokenId",
          "type": "uint256"
        }
      ],
      "name": "Transfer",
      "type": "event"
    },
    {
      "inputs": [
        {
          "internalType": "address",
          "name": "to",
          "type": "address"
        },
        {
          "internalType": "uint256",
          "name": "tokenId",
          "type": "uint256"
        }
      ],
      "name": "approve",
      "outputs": [],
      "stateMutability": "nonpayable",
      "type": "function"
    },
    {
      "inputs": [
        {
          "internalType": "address",
          "name": "owner",
          "type": "address"
        }
      ],
      "name": "balanceOf",
      "outputs": [
        {
          "internalType": "uint256",
          "name": "",
          "type": "uint256"
        }
      ],
      "stateMutability": "view",
      "type": "function"
    },
    {
      "inputs": [
        {
          "internalType": "uint256",
          "name": "tokenId",
          "type": "uint256"
        }
      ],
      "name": "getApproved",
      "outputs": [
        {
          "internalType": "address",
          "name": "",
          "type": "address"
        }
      ],
      "stateMutability": "view",
      "type": "function"
    },
    {
      "inputs": [
        {
          "internalType": "address",
          "name": "owner",
          "type": "address"
        },
        {
          "internalType": "address",
          "name": "operator",
          "type": "address"
        }
      ],
      "name": "isApprovedForAll",
      "outputs": [
        {
          "internalType": "bool",
          "name": "",
          "type": "bool"
        }
      ],
      "stateMutability": "view",
      "type": "function"
    },
    {
      "inputs": [],
      "name": "name",
      "outputs": [
        {
          "internalType": "string",
          "name": "",
          "type": "string"
        }
      ],
      "stateMutability": "view",
      "type": "function"
    },
    {
      "inputs": [
        {
          "internalType": "uint256",
          "name": "tokenId",
          "type": "uint256"
        }
      ],
      "name": "ownerOf",
      "outputs": [
        {
          "internalType": "address",
          "name": "",
          "type": "address"
        }
      ],
      "stateMutability": "view",
      "type": "function"
    },
    {
      "inputs": [
        {
          "internalType": "address",
          "name": "from",
          "type": "address"
        },
        {
          "internalType": "address",
          "name": "to",
          "type": "address"
        },
        {
          "internalType": "uint256",
          "name": "tokenId",
          "type": "uint256"
        }
      ],
      "name": "safeTransferFrom",
      "outputs": [],
      "stateMutability": "nonpayable",
      "type": "function"
    },
    {
      "inputs": [
        {
          "internalType": "address",
          "name": "from",
          "type": "address"
        },
        {
          "internalType": "address",
          "name": "to",
          "type": "address"
        },
        {
          "internalType": "uint256",
          "name": "tokenId",
          "type": "uint256"
        },
        {
          "internalType": "bytes",
          "name": "_data",
          "type": "bytes"
        }
      ],
      "name": "safeTransferFrom",
      "outputs": [],
      "stateMutability": "nonpayable",
      "type": "function"
    },
    {
      "inputs": [
        {
          "internalType": "address",
          "name": "operator",
          "type": "address"
        },
        {
          "internalType": "bool",
          "name": "approved",
          "type": "bool"
        }
      ],
      "name": "setApprovalForAll",
      "outputs": [],
      "stateMutability": "nonpayable",
      "type": "function"
    },
    {
      "inputs": [
        {
          "internalType": "bytes4",
          "name": "interfaceId",
          "type": "bytes4"
        }
      ],
      "name": "supportsInterface",
      "outputs": [
        {
          "internalType": "bool",
          "name": "",
          "type": "bool"
        }
      ],
      "stateMutability": "view",
      "type": "function"
    },
    {
      "inputs": [],
      "name": "symbol",
      "outputs": [
        {
          "internalType": "string",
          "name": "",
          "type": "string"
        }
      ],
      "stateMutability": "view",
      "type": "function"
    },
    {
      "inputs": [
        {
          "internalType": "address",
          "name": "from",
          "type": "address"
        },
        {
          "internalType": "address",
          "name": "to",
          "type": "address"
        },
        {
          "internalType": "uint256",
          "name": "tokenId",
          "type": "uint256"
        }
      ],
      "name": "transferFrom",
      "outputs": [],
      "stateMutability": "nonpayable",
      "type": "function"
    },
    {
      "inputs": [
        {
          "internalType": "address",
          "name": "dest",
          "type": "address"
        },
        {
          "internalType": "uint256",
          "name": "tokenId",
          "type": "uint256"
        }
      ],
      "name": "mint",
      "outputs": [],
      "stateMutability": "nonpayable",
      "type": "function"
    },
    {
      "inputs": [
        {
          "internalType": "uint256",
          "name": "tokenId",
          "type": "uint256"
        }
      ],
      "name": "burn",
      "outputs": [],
      "stateMutability": "nonpayable",
      "type": "function"
    },
    {
      "inputs": [
        {
          "internalType": "uint256",
          "name": "tokenId",
          "type": "uint256"
        },
        {
          "internalType": "string",
          "name": "uri",
          "type": "string"
        }
      ],
      "name": "setTokenUri",
      "outputs": [],
      "stateMutability": "nonpayable",
      "type": "function"
    },
    {
      "inputs": [
        {
          "internalType": "uint256",
          "name": "tokenId",
          "type": "uint256"
        }
      ],
      "name": "tokenURI",
      "outputs": [
        {
          "internalType": "string",
          "name": "",
          "type": "string"
        }
      ],
      "stateMutability": "view",
      "type": "function"
    }
  ],
  "bytecode": "0x60806040523480156200001157600080fd5b5060405162001b1038038062001b108339810160408190526200003491620004b0565b60408051808201825260078152665465737437323160c81b6020808301918252835180850190945260048452635437323160e01b9084015281519192916200007f91600091620002f2565b50805162000095906001906020840190620002f2565b5050600680546001600160a01b031916331790555060005b82518163ffffffff1610156200019d576200010233848363ffffffff1681518110620000e957634e487b7160e01b600052603260045260246000fd5b6020026020010151620001a660201b620008d51760201c565b818163ffffffff16815181106200012957634e487b7160e01b600052603260045260246000fd5b602002602001015160076000858463ffffffff16815181106200015c57634e487b7160e01b600052603260045260246000fd5b60200260200101518152602001908152602001600020908051906020019062000187929190620002f2565b5080620001948162000629565b915050620000ad565b5050506200067c565b6001600160a01b038216620002025760405162461bcd60e51b815260206004820181905260248201527f4552433732313a206d696e7420746f20746865207a65726f206164647265737360448201526064015b60405180910390fd5b6000818152600260205260409020546001600160a01b031615620002695760405162461bcd60e51b815260206004820152601c60248201527f4552433732313a20746f6b656e20616c7265616479206d696e746564000000006044820152606401620001f9565b6001600160a01b038216600090815260036020526040812080546001929062000294908490620005d1565b909155505060008181526002602052604080822080546001600160a01b0319166001600160a01b03861690811790915590518392907fddf252ad1be2c89b69c2b068fc378daa952ba7f163c4a11628f55a4df523b3ef908290a45050565b8280546200030090620005ec565b90600052602060002090601f0160209004810192826200032457600085556200036f565b82601f106200033f57805160ff19168380011785556200036f565b828001600101855582156200036f579182015b828111156200036f57825182559160200191906001019062000352565b506200037d92915062000381565b5090565b5b808211156200037d576000815560010162000382565b6000601f8381840112620003aa578182fd5b82516020620003c3620003bd83620005ab565b62000578565b80838252828201915082870188848660051b8a01011115620003e3578687fd5b865b85811015620004a25781516001600160401b03808211156200040557898afd5b818b0191508b603f8301126200041957898afd5b868201518181111562000430576200043062000666565b62000443818b01601f1916890162000578565b915080825260408d818386010111156200045b578b8cfd5b8b5b828110156200047a578481018201518482018b015289016200045d565b828111156200048b578c8a84860101525b5050508552509284019290840190600101620003e5565b509098975050505050505050565b60008060408385031215620004c3578182fd5b82516001600160401b0380821115620004da578384fd5b818501915085601f830112620004ee578384fd5b8151602062000501620003bd83620005ab565b8083825282820191508286018a848660051b890101111562000521578889fd5b8896505b848710156200054557805183526001969096019591830191830162000525565b50918801519196509093505050808211156200055f578283fd5b506200056e8582860162000398565b9150509250929050565b604051601f8201601f191681016001600160401b0381118282101715620005a357620005a362000666565b604052919050565b60006001600160401b03821115620005c757620005c762000666565b5060051b60200190565b60008219821115620005e757620005e762000650565b500190565b600181811c908216806200060157607f821691505b602082108114156200062357634e487b7160e01b600052602260045260246000fd5b50919050565b600063ffffffff8083168181141562000646576200064662000650565b6001019392505050565b634e487b7160e01b600052601160045260246000fd5b634e487b7160e01b600052604160045260246000fd5b611484806200068c6000396000f3fe608060405234801561001057600080fd5b50600436106101005760003560e01c806357f7789e11610097578063a22cb46511610066578063a22cb4651461021d578063b88d4fde14610230578063c87b56dd14610243578063e985e9c51461025657600080fd5b806357f7789e146101ce5780636352211e146101e157806370a08231146101f457806395d89b411461021557600080fd5b806323b872dd116100d357806323b872dd1461018257806340c10f191461019557806342842e0e146101a857806342966c68146101bb57600080fd5b806301ffc9a71461010557806306fdde031461012d578063081812fc14610142578063095ea7b31461016d575b600080fd5b61011861011336600461118c565b610292565b60405190151581526020015b60405180910390f35b6101356102e4565b60405161012491906112bc565b6101556101503660046111c4565b610376565b6040516001600160a01b039091168152602001610124565b61018061017b366004611163565b610410565b005b610180610190366004611075565b610526565b6101806101a3366004611163565b610557565b6101806101b6366004611075565b61058f565b6101806101c93660046111c4565b6105aa565b6101806101dc3660046111dc565b6105e0565b6101556101ef3660046111c4565b610629565b610207610202366004611022565b6106a0565b604051908152602001610124565b610135610727565b61018061022b366004611129565b610736565b61018061023e3660046110b0565b6107fb565b6101356102513660046111c4565b610833565b610118610264366004611043565b6001600160a01b03918216600090815260056020908152604080832093909416825291909152205460ff1690565b60006001600160e01b031982166380ac58cd60e01b14806102c357506001600160e01b03198216635b5e139f60e01b145b806102de57506301ffc9a760e01b6001600160e01b03198316145b92915050565b6060600080546102f3906113d1565b80601f016020809104026020016040519081016040528092919081815260200182805461031f906113d1565b801561036c5780601f106103415761010080835404028352916020019161036c565b820191906000526020600020905b81548152906001019060200180831161034f57829003601f168201915b5050505050905090565b6000818152600260205260408120546001600160a01b03166103f45760405162461bcd60e51b815260206004820152602c60248201527f4552433732313a20617070726f76656420717565727920666f72206e6f6e657860448201526b34b9ba32b73a103a37b5b2b760a11b60648201526084015b60405180910390fd5b506000908152600460205260409020546001600160a01b031690565b600061041b82610629565b9050806001600160a01b0316836001600160a01b031614156104895760405162461bcd60e51b815260206004820152602160248201527f4552433732313a20617070726f76616c20746f2063757272656e74206f776e656044820152603960f91b60648201526084016103eb565b336001600160a01b03821614806104a557506104a58133610264565b6105175760405162461bcd60e51b815260206004820152603860248201527f4552433732313a20617070726f76652063616c6c6572206973206e6f74206f7760448201527f6e6572206e6f7220617070726f76656420666f7220616c6c000000000000000060648201526084016103eb565b6105218383610a17565b505050565b6105303382610a85565b61054c5760405162461bcd60e51b81526004016103eb90611351565b610521838383610b7c565b6006546001600160a01b031633146105815760405162461bcd60e51b81526004016103eb90611321565b61058b82826108d5565b5050565b610521838383604051806020016040528060008152506107fb565b6006546001600160a01b031633146105d45760405162461bcd60e51b81526004016103eb90611321565b6105dd81610d1c565b50565b6006546001600160a01b0316331461060a5760405162461bcd60e51b81526004016103eb90611321565b6000828152600760209081526040909120825161052192840190610ef7565b6000818152600260205260408120546001600160a01b0316806102de5760405162461bcd60e51b815260206004820152602960248201527f4552433732313a206f776e657220717565727920666f72206e6f6e657869737460448201526832b73a103a37b5b2b760b91b60648201526084016103eb565b60006001600160a01b03821661070b5760405162461bcd60e51b815260206004820152602a60248201527f4552433732313a2062616c616e636520717565727920666f7220746865207a65604482015269726f206164647265737360b01b60648201526084016103eb565b506001600160a01b031660009081526003602052604090205490565b6060600180546102f3906113d1565b6001600160a01b03821633141561078f5760405162461bcd60e51b815260206004820152601960248201527f4552433732313a20617070726f766520746f2063616c6c65720000000000000060448201526064016103eb565b3360008181526005602090815260408083206001600160a01b03871680855290835292819020805460ff191686151590811790915590519081529192917f17307eab39ab6107e8899845ad3d59bd9653f200f220920489ca2b5937696c31910160405180910390a35050565b6108053383610a85565b6108215760405162461bcd60e51b81526004016103eb90611351565b61082d84848484610db7565b50505050565b6000818152600760205260409020805460609190610850906113d1565b80601f016020809104026020016040519081016040528092919081815260200182805461087c906113d1565b80156108c95780601f1061089e576101008083540402835291602001916108c9565b820191906000526020600020905b8154815290600101906020018083116108ac57829003601f168201915b50505050509050919050565b6001600160a01b03821661092b5760405162461bcd60e51b815260206004820181905260248201527f4552433732313a206d696e7420746f20746865207a65726f206164647265737360448201526064016103eb565b6000818152600260205260409020546001600160a01b0316156109905760405162461bcd60e51b815260206004820152601c60248201527f4552433732313a20746f6b656e20616c7265616479206d696e7465640000000060448201526064016103eb565b6001600160a01b03821660009081526003602052604081208054600192906109b99084906113a2565b909155505060008181526002602052604080822080546001600160a01b0319166001600160a01b03861690811790915590518392907fddf252ad1be2c89b69c2b068fc378daa952ba7f163c4a11628f55a4df523b3ef908290a45050565b600081815260046020526040902080546001600160a01b0319166001600160a01b0384169081179091558190610a4c82610629565b6001600160a01b03167f8c5be1e5ebec7d5bd14f71427d1e84f3dd0314c0f7b2291e5b200ac8c7c3b92560405160405180910390a45050565b6000818152600260205260408120546001600160a01b0316610afe5760405162461bcd60e51b815260206004820152602c60248201527f4552433732313a206f70657261746f7220717565727920666f72206e6f6e657860448201526b34b9ba32b73a103a37b5b2b760a11b60648201526084016103eb565b6000610b0983610629565b9050806001600160a01b0316846001600160a01b03161480610b445750836001600160a01b0316610b3984610376565b6001600160a01b0316145b80610b7457506001600160a01b0380821660009081526005602090815260408083209388168352929052205460ff165b949350505050565b826001600160a01b0316610b8f82610629565b6001600160a01b031614610bf75760405162461bcd60e51b815260206004820152602960248201527f4552433732313a207472616e73666572206f6620746f6b656e2074686174206960448201526839903737ba1037bbb760b91b60648201526084016103eb565b6001600160a01b038216610c595760405162461bcd60e51b8152602060048201526024808201527f4552433732313a207472616e7366657220746f20746865207a65726f206164646044820152637265737360e01b60648201526084016103eb565b610c64600082610a17565b6001600160a01b0383166000908152600360205260408120805460019290610c8d9084906113ba565b90915550506001600160a01b0382166000908152600360205260408120805460019290610cbb9084906113a2565b909155505060008181526002602052604080822080546001600160a01b0319166001600160a01b0386811691821790925591518493918716917fddf252ad1be2c89b69c2b068fc378daa952ba7f163c4a11628f55a4df523b3ef91a4505050565b6000610d2782610629565b9050610d34600083610a17565b6001600160a01b0381166000908152600360205260408120805460019290610d5d9084906113ba565b909155505060008281526002602052604080822080546001600160a01b0319169055518391906001600160a01b038416907fddf252ad1be2c89b69c2b068fc378daa952ba7f163c4a11628f55a4df523b3ef908390a45050565b610dc2848484610b7c565b610dce84848484610dea565b61082d5760405162461bcd60e51b81526004016103eb906112cf565b60006001600160a01b0384163b15610eec57604051630a85bd0160e11b81526001600160a01b0385169063150b7a0290610e2e90339089908890889060040161127f565b602060405180830381600087803b158015610e4857600080fd5b505af1925050508015610e78575060408051601f3d908101601f19168201909252610e75918101906111a8565b60015b610ed2573d808015610ea6576040519150601f19603f3d011682016040523d82523d6000602084013e610eab565b606091505b508051610eca5760405162461bcd60e51b81526004016103eb906112cf565b805181602001fd5b6001600160e01b031916630a85bd0160e11b149050610b74565b506001949350505050565b828054610f03906113d1565b90600052602060002090601f016020900481019282610f255760008555610f6b565b82601f10610f3e57805160ff1916838001178555610f6b565b82800160010185558215610f6b579182015b82811115610f6b578251825591602001919060010190610f50565b50610f77929150610f7b565b5090565b5b80821115610f775760008155600101610f7c565b600067ffffffffffffffff80841115610fab57610fab611422565b604051601f8501601f19908116603f01168101908282118183101715610fd357610fd3611422565b81604052809350858152868686011115610fec57600080fd5b858560208301376000602087830101525050509392505050565b80356001600160a01b038116811461101d57600080fd5b919050565b600060208284031215611033578081fd5b61103c82611006565b9392505050565b60008060408385031215611055578081fd5b61105e83611006565b915061106c60208401611006565b90509250929050565b600080600060608486031215611089578081fd5b61109284611006565b92506110a060208501611006565b9150604084013590509250925092565b600080600080608085870312156110c5578081fd5b6110ce85611006565b93506110dc60208601611006565b925060408501359150606085013567ffffffffffffffff8111156110fe578182fd5b8501601f8101871361110e578182fd5b61111d87823560208401610f90565b91505092959194509250565b6000806040838503121561113b578182fd5b61114483611006565b915060208301358015158114611158578182fd5b809150509250929050565b60008060408385031215611175578182fd5b61117e83611006565b946020939093013593505050565b60006020828403121561119d578081fd5b813561103c81611438565b6000602082840312156111b9578081fd5b815161103c81611438565b6000602082840312156111d5578081fd5b5035919050565b600080604083850312156111ee578182fd5b82359150602083013567ffffffffffffffff81111561120b578182fd5b8301601f8101851361121b578182fd5b61122a85823560208401610f90565b9150509250929050565b60008151808452815b818110156112595760208185018101518683018201520161123d565b8181111561126a5782602083870101525b50601f01601f19169290920160200192915050565b6001600160a01b03858116825284166020820152604081018390526080606082018190526000906112b290830184611234565b9695505050505050565b60208152600061103c6020830184611234565b60208082526032908201527f4552433732313a207472616e7366657220746f206e6f6e20455243373231526560408201527131b2b4bb32b91034b6b83632b6b2b73a32b960711b606082015260800190565b6020808252601690820152754f6e6c792061646d696e2063616e20646f207468697360501b604082015260600190565b60208082526031908201527f4552433732313a207472616e736665722063616c6c6572206973206e6f74206f6040820152701ddb995c881b9bdc88185c1c1c9bdd9959607a1b606082015260800190565b600082198211156113b5576113b561140c565b500190565b6000828210156113cc576113cc61140c565b500390565b600181811c908216806113e557607f821691505b6020821081141561140657634e487b7160e01b600052602260045260246000fd5b50919050565b634e487b7160e01b600052601160045260246000fd5b634e487b7160e01b600052604160045260246000fd5b6001600160e01b0319811681146105dd57600080fdfea2646970667358221220645e9721493ff9a1b259591b19a7e75abc7ae10486788e4596b924ce59a93f4964736f6c63430008040033",
  "immutableReferences": {},
  "source": "// SPDX-License-Identifier: Apache-2.0\npragma solidity >=0.8.0;\n\nimport \"@openzeppelin/contracts/token/ERC20/ERC20.sol\";\nimport \"@openzeppelin/contracts/token/ERC721/ERC721.sol\";\nimport \"@openzeppelin/contracts/token/ERC1155/ERC1155.sol\";\n\ncontract TestERC20 is ERC20 {\n    string constant NAME = \"Test20\";\n    string constant SYMBOL = \"T20\";\n    address admin;\n    constructor(uint256 _amount)\n    ERC20(NAME, SYMBOL) {\n        admin = msg.sender;\n        _mint(msg.sender, _amount);\n    }\n    modifier isAdmin(){\n        require(msg.sender == admin, \"Only admin can do this\");\n        _;\n    }\n    function mint(address dest, uint256 amount) public isAdmin() {\n        ERC20._mint(dest, amount);\n    }\n\n    function burn(address dest, uint256 amount) public isAdmin() {\n        ERC20._burn(dest, amount);\n    }\n}\n\ncontract TestERC20Decimals9 is ERC20 {\n    string constant NAME = \"Test20_D9\";\n    string constant SYMBOL = \"T20D9\";\n    address admin;\n    constructor(uint256 _amount)\n    ERC20(NAME, SYMBOL) {\n        admin = msg.sender;\n        _mint(msg.sender, _amount);\n    }\n    modifier isAdmin(){\n        require(msg.sender == admin, \"Only admin can do this\");\n        _;\n    }\n    function mint(address dest, uint256 amount) public isAdmin() {\n        ERC20._mint(dest, amount);\n    }\n\n    function burn(address dest, uint256 amount) public isAdmin() {\n        ERC20._burn(dest, amount);\n    }\n    function decimals() public pure override returns (uint8) {\n        return 9;\n    }\n}\n\ncontract TestERC721 is ERC721 {\n    string constant NAME = \"Test721\";\n    string constant SYMBOL = \"T721\";\n    address admin;\n    mapping(uint256 => string) uris;\n\n    constructor(uint256[] memory tokenIds, string[] memory uris_)\n    ERC721(NAME, SYMBOL) {\n        admin = msg.sender;\n        for (uint32 i = 0; i < tokenIds.length; i++) {\n            ERC721._mint(msg.sender, tokenIds[i]);\n            uris[tokenIds[i]] = uris_[i];\n        }\n\n    }\n    modifier isAdmin(){\n        require(msg.sender == admin, \"Only admin can do this\");\n        _;\n    }\n    function mint(address dest, uint256 tokenId) external isAdmin() {\n        ERC721._mint(dest, tokenId);\n    }\n\n    function burn(uint256 tokenId) external isAdmin() {\n        ERC721._burn(tokenId);\n    }\n\n    function setTokenUri(uint256 tokenId, string memory uri) external isAdmin() {\n        uris[tokenId] = uri;\n    }\n\n    function tokenURI(uint256 tokenId) public view override returns (string memory){\n        return uris[tokenId];\n    }\n}\n\ncontract TestERC1155 is ERC1155 {\n    address admin;\n    mapping(uint256 => string) metadataUris;\n    constructor(uint256[] memory tokenIds, uint256[] memory amounts, string[] memory uris_)\n    ERC1155(\"\") {\n        admin = msg.sender;\n        for (uint32 i = 0; i < tokenIds.length; i++) {\n            ERC1155._mint(msg.sender, tokenIds[i], amounts[i], \"\");\n            metadataUris[tokenIds[i]] = uris_[i];\n        }\n    }\n    modifier isAdmin(){\n        require(msg.sender == admin, \"Only admin can do this\");\n        _;\n    }\n    function mint(uint256 tokenId, uint256 amount, address dest, string memory metadataUri) public isAdmin() {\n        ERC1155._mint(dest, tokenId, amount, \"\");\n        metadataUris[tokenId] = metadataUri;\n    }\n\n    function setUri(uint256 id, string memory uri_) public isAdmin() {\n        metadataUris[id] = uri_;\n    }\n\n    function uri(uint256 id) override public view returns (string memory){\n        return metadataUris[id];\n    }\n\n    function burn(address dest, uint256 tokenId, uint256 amount) public isAdmin() {\n        ERC1155._burn(dest, tokenId, amount);\n    }\n}\n",
  "sourcePath": "/Users/polymorpher/git/one-wallet/code/contracts/debug/TestTokens.sol",
  "compiler": {
    "name": "solc",
    "version": "0.8.4+commit.c7e474f2.Emscripten.clang"
  },
  "schemaVersion": "3.4.2",
  "updatedAt": "2021-08-10T23:08:19.695Z",
  "devdoc": {
    "kind": "dev",
    "methods": {
      "approve(address,uint256)": {
        "details": "See {IERC721-approve}."
      },
      "balanceOf(address)": {
        "details": "See {IERC721-balanceOf}."
      },
      "getApproved(uint256)": {
        "details": "See {IERC721-getApproved}."
      },
      "isApprovedForAll(address,address)": {
        "details": "See {IERC721-isApprovedForAll}."
      },
      "name()": {
        "details": "See {IERC721Metadata-name}."
      },
      "ownerOf(uint256)": {
        "details": "See {IERC721-ownerOf}."
      },
      "safeTransferFrom(address,address,uint256)": {
        "details": "See {IERC721-safeTransferFrom}."
      },
      "safeTransferFrom(address,address,uint256,bytes)": {
        "details": "See {IERC721-safeTransferFrom}."
      },
      "setApprovalForAll(address,bool)": {
        "details": "See {IERC721-setApprovalForAll}."
      },
      "supportsInterface(bytes4)": {
        "details": "See {IERC165-supportsInterface}."
      },
      "symbol()": {
        "details": "See {IERC721Metadata-symbol}."
      },
      "tokenURI(uint256)": {
        "details": "See {IERC721Metadata-tokenURI}."
      },
      "transferFrom(address,address,uint256)": {
        "details": "See {IERC721-transferFrom}."
      }
    },
    "version": 1
  },
  "userdoc": {
    "kind": "user",
    "methods": {},
    "version": 1
  }
}