{
  "contractName": "TestERC1155",
  "abi": [
    {
      "inputs": [
        {
          "internalType": "uint256[]",
          "name": "tokenIds",
          "type": "uint256[]"
        },
        {
          "internalType": "uint256[]",
          "name": "amounts",
          "type": "uint256[]"
        },
        {
          "internalType": "string[]",
          "name": "uris_",
          "type": "string[]"
        }
      ],
      "stateMutability": "nonpayable",
      "type": "constructor"
    },
    {
      "anonymous": false,
      "inputs": [
        {
          "indexed": true,
          "internalType": "address",
          "name": "account",
          "type": "address"
        },
        {
          "indexed": true,
          "internalType": "address",
          "name": "operator",
          "type": "address"
        },
        {
          "indexed": false,
          "internalType": "bool",
          "name": "approved",
          "type": "bool"
        }
      ],
      "name": "ApprovalForAll",
      "type": "event"
    },
    {
      "anonymous": false,
      "inputs": [
        {
          "indexed": true,
          "internalType": "address",
          "name": "operator",
          "type": "address"
        },
        {
          "indexed": true,
          "internalType": "address",
          "name": "from",
          "type": "address"
        },
        {
          "indexed": true,
          "internalType": "address",
          "name": "to",
          "type": "address"
        },
        {
          "indexed": false,
          "internalType": "uint256[]",
          "name": "ids",
          "type": "uint256[]"
        },
        {
          "indexed": false,
          "internalType": "uint256[]",
          "name": "values",
          "type": "uint256[]"
        }
      ],
      "name": "TransferBatch",
      "type": "event"
    },
    {
      "anonymous": false,
      "inputs": [
        {
          "indexed": true,
          "internalType": "address",
          "name": "operator",
          "type": "address"
        },
        {
          "indexed": true,
          "internalType": "address",
          "name": "from",
          "type": "address"
        },
        {
          "indexed": true,
          "internalType": "address",
          "name": "to",
          "type": "address"
        },
        {
          "indexed": false,
          "internalType": "uint256",
          "name": "id",
          "type": "uint256"
        },
        {
          "indexed": false,
          "internalType": "uint256",
          "name": "value",
          "type": "uint256"
        }
      ],
      "name": "TransferSingle",
      "type": "event"
    },
    {
      "anonymous": false,
      "inputs": [
        {
          "indexed": false,
          "internalType": "string",
          "name": "value",
          "type": "string"
        },
        {
          "indexed": true,
          "internalType": "uint256",
          "name": "id",
          "type": "uint256"
        }
      ],
      "name": "URI",
      "type": "event"
    },
    {
      "inputs": [
        {
          "internalType": "address",
          "name": "account",
          "type": "address"
        },
        {
          "internalType": "uint256",
          "name": "id",
          "type": "uint256"
        }
      ],
      "name": "balanceOf",
      "outputs": [
        {
          "internalType": "uint256",
          "name": "",
          "type": "uint256"
        }
      ],
      "stateMutability": "view",
      "type": "function"
    },
    {
      "inputs": [
        {
          "internalType": "address[]",
          "name": "accounts",
          "type": "address[]"
        },
        {
          "internalType": "uint256[]",
          "name": "ids",
          "type": "uint256[]"
        }
      ],
      "name": "balanceOfBatch",
      "outputs": [
        {
          "internalType": "uint256[]",
          "name": "",
          "type": "uint256[]"
        }
      ],
      "stateMutability": "view",
      "type": "function"
    },
    {
      "inputs": [
        {
          "internalType": "address",
          "name": "account",
          "type": "address"
        },
        {
          "internalType": "address",
          "name": "operator",
          "type": "address"
        }
      ],
      "name": "isApprovedForAll",
      "outputs": [
        {
          "internalType": "bool",
          "name": "",
          "type": "bool"
        }
      ],
      "stateMutability": "view",
      "type": "function"
    },
    {
      "inputs": [
        {
          "internalType": "address",
          "name": "from",
          "type": "address"
        },
        {
          "internalType": "address",
          "name": "to",
          "type": "address"
        },
        {
          "internalType": "uint256[]",
          "name": "ids",
          "type": "uint256[]"
        },
        {
          "internalType": "uint256[]",
          "name": "amounts",
          "type": "uint256[]"
        },
        {
          "internalType": "bytes",
          "name": "data",
          "type": "bytes"
        }
      ],
      "name": "safeBatchTransferFrom",
      "outputs": [],
      "stateMutability": "nonpayable",
      "type": "function"
    },
    {
      "inputs": [
        {
          "internalType": "address",
          "name": "from",
          "type": "address"
        },
        {
          "internalType": "address",
          "name": "to",
          "type": "address"
        },
        {
          "internalType": "uint256",
          "name": "id",
          "type": "uint256"
        },
        {
          "internalType": "uint256",
          "name": "amount",
          "type": "uint256"
        },
        {
          "internalType": "bytes",
          "name": "data",
          "type": "bytes"
        }
      ],
      "name": "safeTransferFrom",
      "outputs": [],
      "stateMutability": "nonpayable",
      "type": "function"
    },
    {
      "inputs": [
        {
          "internalType": "address",
          "name": "operator",
          "type": "address"
        },
        {
          "internalType": "bool",
          "name": "approved",
          "type": "bool"
        }
      ],
      "name": "setApprovalForAll",
      "outputs": [],
      "stateMutability": "nonpayable",
      "type": "function"
    },
    {
      "inputs": [
        {
          "internalType": "bytes4",
          "name": "interfaceId",
          "type": "bytes4"
        }
      ],
      "name": "supportsInterface",
      "outputs": [
        {
          "internalType": "bool",
          "name": "",
          "type": "bool"
        }
      ],
      "stateMutability": "view",
      "type": "function"
    },
    {
      "inputs": [
        {
          "internalType": "uint256",
          "name": "tokenId",
          "type": "uint256"
        },
        {
          "internalType": "uint256",
          "name": "amount",
          "type": "uint256"
        },
        {
          "internalType": "address",
          "name": "dest",
          "type": "address"
        },
        {
          "internalType": "string",
          "name": "metadataUri",
          "type": "string"
        }
      ],
      "name": "mint",
      "outputs": [],
      "stateMutability": "nonpayable",
      "type": "function"
    },
    {
      "inputs": [
        {
          "internalType": "uint256",
          "name": "id",
          "type": "uint256"
        },
        {
          "internalType": "string",
          "name": "uri_",
          "type": "string"
        }
      ],
      "name": "setUri",
      "outputs": [],
      "stateMutability": "nonpayable",
      "type": "function"
    },
    {
      "inputs": [
        {
          "internalType": "uint256",
          "name": "id",
          "type": "uint256"
        }
      ],
      "name": "uri",
      "outputs": [
        {
          "internalType": "string",
          "name": "",
          "type": "string"
        }
      ],
      "stateMutability": "view",
      "type": "function"
    },
    {
      "inputs": [
        {
          "internalType": "address",
          "name": "dest",
          "type": "address"
        },
        {
          "internalType": "uint256",
          "name": "tokenId",
          "type": "uint256"
        },
        {
          "internalType": "uint256",
          "name": "amount",
          "type": "uint256"
        }
      ],
      "name": "burn",
      "outputs": [],
      "stateMutability": "nonpayable",
      "type": "function"
    }
  ],
  "bytecode": "0x60806040523480156200001157600080fd5b50604051620023b5380380620023b5833981016040819052620000349162000646565b6040805160208101909152600081526200004e816200019d565b50600380546001600160a01b0319163317905560005b83518163ffffffff1610156200019357620000f833858363ffffffff1681518110620000a057634e487b7160e01b600052603260045260246000fd5b6020026020010151858463ffffffff1681518110620000cf57634e487b7160e01b600052603260045260246000fd5b602002602001015160405180602001604052806000815250620001b660201b620007af1760201c565b818163ffffffff16815181106200011f57634e487b7160e01b600052603260045260246000fd5b602002602001015160046000868463ffffffff16815181106200015257634e487b7160e01b600052603260045260246000fd5b6020026020010151815260200190815260200160002090805190602001906200017d92919062000524565b50806200018a816200094a565b91505062000064565b5050505062000a45565b8051620001b290600290602084019062000524565b5050565b6001600160a01b0384166200021c5760405162461bcd60e51b815260206004820152602160248201527f455243313135353a206d696e7420746f20746865207a65726f206164647265736044820152607360f81b60648201526084015b60405180910390fd5b3362000242816000876200023088620002d6565b6200023b88620002d6565b5050505050565b6000848152602081815260408083206001600160a01b0389168452909152812080548592906200027490849062000890565b909155505060408051858152602081018590526001600160a01b0380881692600092918516917fc3d58168c5ae7397731d063d5bbf3d657854427343f4c083240f7aacaa2d0f62910160405180910390a46200023b8160008787878762000338565b604080516001808252818301909252606091600091906020808301908036833701905050905082816000815181106200031f57634e487b7160e01b600052603260045260246000fd5b602090810291909101015292915050565b505050505050565b62000357846001600160a01b03166200051e60201b620008b91760201c565b15620003305760405163f23a6e6160e01b81526001600160a01b0385169063f23a6e61906200039390899089908890889088906004016200080e565b602060405180830381600087803b158015620003ae57600080fd5b505af1925050508015620003e1575060408051601f3d908101601f19168201909252620003de91810190620007af565b60015b620004a257620003f06200099d565b806308c379a0141562000431575062000408620009b6565b8062000415575062000433565b8060405162461bcd60e51b815260040162000213919062000855565b505b60405162461bcd60e51b815260206004820152603460248201527f455243313135353a207472616e7366657220746f206e6f6e204552433131353560448201527f526563656976657220696d706c656d656e746572000000000000000000000000606482015260840162000213565b6001600160e01b0319811663f23a6e6160e01b14620005155760405162461bcd60e51b815260206004820152602860248201527f455243313135353a204552433131353552656365697665722072656a656374656044820152676420746f6b656e7360c01b606482015260840162000213565b50505050505050565b3b151590565b8280546200053290620008de565b90600052602060002090601f016020900481019282620005565760008555620005a1565b82601f106200057157805160ff1916838001178555620005a1565b82800160010185558215620005a1579182015b82811115620005a157825182559160200191906001019062000584565b50620005af929150620005b3565b5090565b5b80821115620005af5760008155600101620005b4565b600082601f830112620005db578081fd5b81516020620005ea826200086a565b604051620005f982826200091b565b8381528281019150858301600585901b8701840188101562000619578586fd5b855b8581101562000639578151845292840192908401906001016200061b565b5090979650505050505050565b6000806000606084860312156200065b578283fd5b83516001600160401b038082111562000672578485fd5b6200068087838801620005ca565b945060209150818601518181111562000697578485fd5b620006a588828901620005ca565b945050604086015181811115620006ba578384fd5b8601601f81018813620006cb578384fd5b8051620006d8816200086a565b604051620006e782826200091b565b8281528581019150838601600584901b850187018c101562000707578788fd5b875b848110156200079d578151878111156200072157898afd5b8601603f81018e136200073257898afd5b888101518881111562000749576200074962000987565b60405162000761601f8301601f19168c01826200091b565b8181528f604083850101111562000776578b8cfd5b62000788828c830160408601620008ab565b86525050928701929087019060010162000709565b50508096505050505050509250925092565b600060208284031215620007c1578081fd5b81516001600160e01b031981168114620007d9578182fd5b9392505050565b60008151808452620007fa816020860160208601620008ab565b601f01601f19169290920160200192915050565b6001600160a01b03868116825285166020820152604081018490526060810183905260a0608082018190526000906200084a90830184620007e0565b979650505050505050565b602081526000620007d96020830184620007e0565b60006001600160401b0382111562000886576200088662000987565b5060051b60200190565b60008219821115620008a657620008a662000971565b500190565b60005b83811015620008c8578181015183820152602001620008ae565b83811115620008d8576000848401525b50505050565b600181811c90821680620008f357607f821691505b602082108114156200091557634e487b7160e01b600052602260045260246000fd5b50919050565b601f8201601f191681016001600160401b038111828210171562000943576200094362000987565b6040525050565b600063ffffffff8083168181141562000967576200096762000971565b6001019392505050565b634e487b7160e01b600052601160045260246000fd5b634e487b7160e01b600052604160045260246000fd5b600060033d1115620009b357600481823e5160e01c5b90565b600060443d1015620009c55790565b6040516003193d81016004833e81513d6001600160401b038083116024840183101715620009f557505050505090565b828501915081518181111562000a0e5750505050505090565b843d870101602082850101111562000a295750505050505090565b62000a3a602082860101876200091b565b509095945050505050565b6119608062000a556000396000f3fe608060405234801561001057600080fd5b50600436106100a85760003560e01c8063782f08ae11610071578063782f08ae1461014b578063a22cb4651461015e578063a382a4d914610171578063e985e9c514610184578063f242432a146101c0578063f5298aca146101d357600080fd5b8062fdd58e146100ad57806301ffc9a7146100d35780630e89341c146100f65780632eb2c2d6146101165780634e1273f41461012b575b600080fd5b6100c06100bb3660046112ea565b6101e6565b6040519081526020015b60405180910390f35b6100e66100e1366004611410565b61027d565b60405190151581526020016100ca565b61010961010436600461144f565b6102cf565b6040516100ca919061166a565b6101296101243660046111a7565b610371565b005b61013e610139366004611345565b610408565b6040516100ca9190611629565b610129610159366004611467565b61056a565b61012961016c3660046112b0565b6105b8565b61012961017f3660046114a2565b61068f565b6100e6610192366004611175565b6001600160a01b03918216600090815260016020908152604080832093909416825291909152205460ff1690565b6101296101ce36600461124d565b6106f3565b6101296101e1366004611313565b61077a565b60006001600160a01b0383166102575760405162461bcd60e51b815260206004820152602b60248201527f455243313135353a2062616c616e636520717565727920666f7220746865207a60448201526a65726f206164647265737360a81b60648201526084015b60405180910390fd5b506000908152602081815260408083206001600160a01b03949094168352929052205490565b60006001600160e01b03198216636cdb3d1360e11b14806102ae57506001600160e01b031982166303a24d0760e21b145b806102c957506301ffc9a760e01b6001600160e01b03198316145b92915050565b60008181526004602052604090208054606091906102ec906117c0565b80601f0160208091040260200160405190810160405280929190818152602001828054610318906117c0565b80156103655780601f1061033a57610100808354040283529160200191610365565b820191906000526020600020905b81548152906001019060200180831161034857829003601f168201915b50505050509050919050565b6001600160a01b03851633148061038d575061038d8533610192565b6103f45760405162461bcd60e51b815260206004820152603260248201527f455243313135353a207472616e736665722063616c6c6572206973206e6f74206044820152711bdddb995c881b9bdc88185c1c1c9bdd995960721b606482015260840161024e565b61040185858585856108bf565b5050505050565b6060815183511461046d5760405162461bcd60e51b815260206004820152602960248201527f455243313135353a206163636f756e747320616e6420696473206c656e677468604482015268040dad2e6dac2e8c6d60bb1b606482015260840161024e565b6000835167ffffffffffffffff81111561049757634e487b7160e01b600052604160045260246000fd5b6040519080825280602002602001820160405280156104c0578160200160208202803683370190505b50905060005b8451811015610562576105278582815181106104f257634e487b7160e01b600052603260045260246000fd5b602002602001015185838151811061051a57634e487b7160e01b600052603260045260246000fd5b60200260200101516101e6565b82828151811061054757634e487b7160e01b600052603260045260246000fd5b602090810291909101015261055b81611828565b90506104c6565b509392505050565b6003546001600160a01b031633146105945760405162461bcd60e51b815260040161024e906116c5565b600082815260046020908152604090912082516105b392840190610fdd565b505050565b336001600160a01b03831614156106235760405162461bcd60e51b815260206004820152602960248201527f455243313135353a2073657474696e6720617070726f76616c20737461747573604482015268103337b91039b2b63360b91b606482015260840161024e565b3360008181526001602090815260408083206001600160a01b03871680855290835292819020805460ff191686151590811790915590519081529192917f17307eab39ab6107e8899845ad3d59bd9653f200f220920489ca2b5937696c31910160405180910390a35050565b6003546001600160a01b031633146106b95760405162461bcd60e51b815260040161024e906116c5565b6106d4828585604051806020016040528060008152506107af565b6000848152600460209081526040909120825161040192840190610fdd565b6001600160a01b03851633148061070f575061070f8533610192565b61076d5760405162461bcd60e51b815260206004820152602960248201527f455243313135353a2063616c6c6572206973206e6f74206f776e6572206e6f7260448201526808185c1c1c9bdd995960ba1b606482015260840161024e565b6104018585858585610ab8565b6003546001600160a01b031633146107a45760405162461bcd60e51b815260040161024e906116c5565b6105b3838383610bd5565b6001600160a01b03841661080f5760405162461bcd60e51b815260206004820152602160248201527f455243313135353a206d696e7420746f20746865207a65726f206164647265736044820152607360f81b606482015260840161024e565b336108298160008761082088610d4f565b61040188610d4f565b6000848152602081815260408083206001600160a01b0389168452909152812080548592906108599084906117a8565b909155505060408051858152602081018590526001600160a01b0380881692600092918516917fc3d58168c5ae7397731d063d5bbf3d657854427343f4c083240f7aacaa2d0f62910160405180910390a461040181600087878787610da8565b3b151590565b81518351146109215760405162461bcd60e51b815260206004820152602860248201527f455243313135353a2069647320616e6420616d6f756e7473206c656e677468206044820152670dad2e6dac2e8c6d60c31b606482015260840161024e565b6001600160a01b0384166109475760405162461bcd60e51b815260040161024e906116f5565b3360005b8451811015610a4a57600085828151811061097657634e487b7160e01b600052603260045260246000fd5b6020026020010151905060008583815181106109a257634e487b7160e01b600052603260045260246000fd5b602090810291909101810151600084815280835260408082206001600160a01b038e1683529093529190912054909150818110156109f25760405162461bcd60e51b815260040161024e9061173a565b6000838152602081815260408083206001600160a01b038e8116855292528083208585039055908b16825281208054849290610a2f9084906117a8565b9250508190555050505080610a4390611828565b905061094b565b50846001600160a01b0316866001600160a01b0316826001600160a01b03167f4a39dc06d4c0dbc64b70af90fd698a233a518aa5d07e595d983b8c0526c8f7fb8787604051610a9a92919061163c565b60405180910390a4610ab0818787878787610f13565b505050505050565b6001600160a01b038416610ade5760405162461bcd60e51b815260040161024e906116f5565b33610aee81878761082088610d4f565b6000848152602081815260408083206001600160a01b038a16845290915290205483811015610b2f5760405162461bcd60e51b815260040161024e9061173a565b6000858152602081815260408083206001600160a01b038b8116855292528083208785039055908816825281208054869290610b6c9084906117a8565b909155505060408051868152602081018690526001600160a01b03808916928a821692918616917fc3d58168c5ae7397731d063d5bbf3d657854427343f4c083240f7aacaa2d0f62910160405180910390a4610bcc828888888888610da8565b50505050505050565b6001600160a01b038316610c375760405162461bcd60e51b815260206004820152602360248201527f455243313135353a206275726e2066726f6d20746865207a65726f206164647260448201526265737360e81b606482015260840161024e565b33610c6781856000610c4887610d4f565b610c5187610d4f565b5050604080516020810190915260009052505050565b6000838152602081815260408083206001600160a01b038816845290915290205482811015610ce45760405162461bcd60e51b8152602060048201526024808201527f455243313135353a206275726e20616d6f756e7420657863656564732062616c604482015263616e636560e01b606482015260840161024e565b6000848152602081815260408083206001600160a01b03898116808652918452828520888703905582518981529384018890529092908616917fc3d58168c5ae7397731d063d5bbf3d657854427343f4c083240f7aacaa2d0f62910160405180910390a45050505050565b60408051600180825281830190925260609160009190602080830190803683370190505090508281600081518110610d9757634e487b7160e01b600052603260045260246000fd5b602090810291909101015292915050565b6001600160a01b0384163b15610ab05760405163f23a6e6160e01b81526001600160a01b0385169063f23a6e6190610dec90899089908890889088906004016115e4565b602060405180830381600087803b158015610e0657600080fd5b505af1925050508015610e36575060408051601f3d908101601f19168201909252610e3391810190611433565b60015b610ee357610e4261186f565b806308c379a01415610e7c5750610e57611887565b80610e625750610e7e565b8060405162461bcd60e51b815260040161024e919061166a565b505b60405162461bcd60e51b815260206004820152603460248201527f455243313135353a207472616e7366657220746f206e6f6e20455243313135356044820152732932b1b2b4bb32b91034b6b83632b6b2b73a32b960611b606482015260840161024e565b6001600160e01b0319811663f23a6e6160e01b14610bcc5760405162461bcd60e51b815260040161024e9061167d565b6001600160a01b0384163b15610ab05760405163bc197c8160e01b81526001600160a01b0385169063bc197c8190610f579089908990889088908890600401611586565b602060405180830381600087803b158015610f7157600080fd5b505af1925050508015610fa1575060408051601f3d908101601f19168201909252610f9e91810190611433565b60015b610fad57610e4261186f565b6001600160e01b0319811663bc197c8160e01b14610bcc5760405162461bcd60e51b815260040161024e9061167d565b828054610fe9906117c0565b90600052602060002090601f01602090048101928261100b5760008555611051565b82601f1061102457805160ff1916838001178555611051565b82800160010185558215611051579182015b82811115611051578251825591602001919060010190611036565b5061105d929150611061565b5090565b5b8082111561105d5760008155600101611062565b80356001600160a01b038116811461108d57600080fd5b919050565b600082601f8301126110a2578081fd5b813560206110af82611784565b6040516110bc82826117fb565b8381528281019150858301600585901b870184018810156110db578586fd5b855b858110156110f9578135845292840192908401906001016110dd565b5090979650505050505050565b600082601f830112611116578081fd5b813567ffffffffffffffff81111561113057611130611859565b604051611147601f8301601f1916602001826117fb565b81815284602083860101111561115b578283fd5b816020850160208301379081016020019190915292915050565b60008060408385031215611187578182fd5b61119083611076565b915061119e60208401611076565b90509250929050565b600080600080600060a086880312156111be578081fd5b6111c786611076565b94506111d560208701611076565b9350604086013567ffffffffffffffff808211156111f1578283fd5b6111fd89838a01611092565b94506060880135915080821115611212578283fd5b61121e89838a01611092565b93506080880135915080821115611233578283fd5b5061124088828901611106565b9150509295509295909350565b600080600080600060a08688031215611264578081fd5b61126d86611076565b945061127b60208701611076565b93506040860135925060608601359150608086013567ffffffffffffffff8111156112a4578182fd5b61124088828901611106565b600080604083850312156112c2578182fd5b6112cb83611076565b9150602083013580151581146112df578182fd5b809150509250929050565b600080604083850312156112fc578182fd5b61130583611076565b946020939093013593505050565b600080600060608486031215611327578283fd5b61133084611076565b95602085013595506040909401359392505050565b60008060408385031215611357578182fd5b823567ffffffffffffffff8082111561136e578384fd5b818501915085601f830112611381578384fd5b8135602061138e82611784565b60405161139b82826117fb565b8381528281019150858301600585901b870184018b10156113ba578889fd5b8896505b848710156113e3576113cf81611076565b8352600196909601959183019183016113be565b50965050860135925050808211156113f9578283fd5b5061140685828601611092565b9150509250929050565b600060208284031215611421578081fd5b813561142c81611911565b9392505050565b600060208284031215611444578081fd5b815161142c81611911565b600060208284031215611460578081fd5b5035919050565b60008060408385031215611479578182fd5b82359150602083013567ffffffffffffffff811115611496578182fd5b61140685828601611106565b600080600080608085870312156114b7578182fd5b84359350602085013592506114ce60408601611076565b9150606085013567ffffffffffffffff8111156114e9578182fd5b6114f587828801611106565b91505092959194509250565b6000815180845260208085019450808401835b8381101561153057815187529582019590820190600101611514565b509495945050505050565b60008151808452815b8181101561156057602081850181015186830182015201611544565b818111156115715782602083870101525b50601f01601f19169290920160200192915050565b6001600160a01b0386811682528516602082015260a0604082018190526000906115b290830186611501565b82810360608401526115c48186611501565b905082810360808401526115d8818561153b565b98975050505050505050565b6001600160a01b03868116825285166020820152604081018490526060810183905260a06080820181905260009061161e9083018461153b565b979650505050505050565b60208152600061142c6020830184611501565b60408152600061164f6040830185611501565b82810360208401526116618185611501565b95945050505050565b60208152600061142c602083018461153b565b60208082526028908201527f455243313135353a204552433131353552656365697665722072656a656374656040820152676420746f6b656e7360c01b606082015260800190565b6020808252601690820152754f6e6c792061646d696e2063616e20646f207468697360501b604082015260600190565b60208082526025908201527f455243313135353a207472616e7366657220746f20746865207a65726f206164604082015264647265737360d81b606082015260800190565b6020808252602a908201527f455243313135353a20696e73756666696369656e742062616c616e636520666f60408201526939103a3930b739b332b960b11b606082015260800190565b600067ffffffffffffffff82111561179e5761179e611859565b5060051b60200190565b600082198211156117bb576117bb611843565b500190565b600181811c908216806117d457607f821691505b602082108114156117f557634e487b7160e01b600052602260045260246000fd5b50919050565b601f8201601f1916810167ffffffffffffffff8111828210171561182157611821611859565b6040525050565b600060001982141561183c5761183c611843565b5060010190565b634e487b7160e01b600052601160045260246000fd5b634e487b7160e01b600052604160045260246000fd5b600060033d111561188457600481823e5160e01c5b90565b600060443d10156118955790565b6040516003193d81016004833e81513d67ffffffffffffffff81602484011181841117156118c557505050505090565b82850191508151818111156118dd5750505050505090565b843d87010160208285010111156118f75750505050505090565b611906602082860101876117fb565b509095945050505050565b6001600160e01b03198116811461192757600080fd5b5056fea2646970667358221220752183b7100b0f944a7cf9e7b4d4bc7ce168ab6e6e06cc8c16e6acd75d742b2e64736f6c63430008040033",
  "immutableReferences": {},
  "source": "// SPDX-License-Identifier: Apache-2.0\npragma solidity >=0.8.0;\n\nimport \"@openzeppelin/contracts/token/ERC20/ERC20.sol\";\nimport \"@openzeppelin/contracts/token/ERC721/ERC721.sol\";\nimport \"@openzeppelin/contracts/token/ERC1155/ERC1155.sol\";\n\ncontract TestERC20 is ERC20 {\n    string constant NAME = \"Test20\";\n    string constant SYMBOL = \"T20\";\n    address admin;\n    constructor(uint256 _amount)\n    ERC20(NAME, SYMBOL) {\n        admin = msg.sender;\n        _mint(msg.sender, _amount);\n    }\n    modifier isAdmin(){\n        require(msg.sender == admin, \"Only admin can do this\");\n        _;\n    }\n    function mint(address dest, uint256 amount) public isAdmin() {\n        ERC20._mint(dest, amount);\n    }\n\n    function burn(address dest, uint256 amount) public isAdmin() {\n        ERC20._burn(dest, amount);\n    }\n}\n\ncontract TestERC721 is ERC721 {\n    string constant NAME = \"Test721\";\n    string constant SYMBOL = \"T721\";\n    address admin;\n    mapping(uint256 => string) uris;\n\n    constructor(uint256[] memory tokenIds, string[] memory uris_)\n    ERC721(NAME, SYMBOL) {\n        admin = msg.sender;\n        for (uint32 i = 0; i < tokenIds.length; i++) {\n            ERC721._mint(msg.sender, tokenIds[i]);\n            uris[tokenIds[i]] = uris_[i];\n        }\n\n    }\n    modifier isAdmin(){\n        require(msg.sender == admin, \"Only admin can do this\");\n        _;\n    }\n    function mint(address dest, uint256 tokenId) external isAdmin() {\n        ERC721._mint(dest, tokenId);\n    }\n\n    function burn(uint256 tokenId) external isAdmin() {\n        ERC721._burn(tokenId);\n    }\n\n    function setTokenUri(uint256 tokenId, string memory uri) external isAdmin() {\n        uris[tokenId] = uri;\n    }\n\n    function tokenURI(uint256 tokenId) public view override returns (string memory){\n        return uris[tokenId];\n    }\n}\n\ncontract TestERC1155 is ERC1155 {\n    address admin;\n    mapping(uint256 => string) metadataUris;\n    constructor(uint256[] memory tokenIds, uint256[] memory amounts, string[] memory uris_)\n    ERC1155(\"\") {\n        admin = msg.sender;\n        for (uint32 i = 0; i < tokenIds.length; i++) {\n            ERC1155._mint(msg.sender, tokenIds[i], amounts[i], \"\");\n            metadataUris[tokenIds[i]] = uris_[i];\n        }\n    }\n    modifier isAdmin(){\n        require(msg.sender == admin, \"Only admin can do this\");\n        _;\n    }\n    function mint(uint256 tokenId, uint256 amount, address dest, string memory metadataUri) public isAdmin() {\n        ERC1155._mint(dest, tokenId, amount, \"\");\n        metadataUris[tokenId] = metadataUri;\n    }\n\n    function setUri(uint256 id, string memory uri_) public isAdmin() {\n        metadataUris[id] = uri_;\n    }\n\n    function uri(uint256 id) override public view returns (string memory){\n        return metadataUris[id];\n    }\n\n    function burn(address dest, uint256 tokenId, uint256 amount) public isAdmin() {\n        ERC1155._burn(dest, tokenId, amount);\n    }\n}\n",
  "sourcePath": "/Users/polymorpher/git/one-wallet/code/contracts/debug/TestTokens.sol",
  "compiler": {
    "name": "solc",
    "version": "0.8.4+commit.c7e474f2.Emscripten.clang"
  },
  "schemaVersion": "3.4.1",
  "updatedAt": "2021-07-27T02:42:56.015Z",
  "devdoc": {
    "kind": "dev",
    "methods": {
      "balanceOf(address,uint256)": {
        "details": "See {IERC1155-balanceOf}. Requirements: - `account` cannot be the zero address."
      },
      "balanceOfBatch(address[],uint256[])": {
        "details": "See {IERC1155-balanceOfBatch}. Requirements: - `accounts` and `ids` must have the same length."
      },
      "isApprovedForAll(address,address)": {
        "details": "See {IERC1155-isApprovedForAll}."
      },
      "safeBatchTransferFrom(address,address,uint256[],uint256[],bytes)": {
        "details": "See {IERC1155-safeBatchTransferFrom}."
      },
      "safeTransferFrom(address,address,uint256,uint256,bytes)": {
        "details": "See {IERC1155-safeTransferFrom}."
      },
      "setApprovalForAll(address,bool)": {
        "details": "See {IERC1155-setApprovalForAll}."
      },
      "supportsInterface(bytes4)": {
        "details": "See {IERC165-supportsInterface}."
      }
    },
    "version": 1
  },
  "userdoc": {
    "kind": "user",
    "methods": {},
    "version": 1
  }
}