{
  "contractName": "TokenTracker",
  "abi": [
    {
      "anonymous": false,
      "inputs": [
        {
          "indexed": false,
          "internalType": "enum Enums.TokenType",
          "name": "tokenType",
          "type": "uint8"
        },
        {
          "indexed": false,
          "internalType": "address",
          "name": "contractAddress",
          "type": "address"
        },
        {
          "indexed": false,
          "internalType": "uint256",
          "name": "tokenId",
          "type": "uint256"
        },
        {
          "indexed": false,
          "internalType": "string",
          "name": "reason",
          "type": "string"
        }
      ],
      "name": "BalanceRetrievalError",
      "type": "event"
    },
    {
      "anonymous": false,
      "inputs": [
        {
          "indexed": false,
          "internalType": "enum Enums.TokenType",
          "name": "tokenType",
          "type": "uint8"
        },
        {
          "indexed": false,
          "internalType": "address",
          "name": "contractAddress",
          "type": "address"
        },
        {
          "indexed": false,
          "internalType": "uint256",
          "name": "tokenId",
          "type": "uint256"
        }
      ],
      "name": "TokenNotFound",
      "type": "event"
    },
    {
      "anonymous": false,
      "inputs": [
        {
          "indexed": false,
          "internalType": "enum Enums.TokenType",
          "name": "tokenType",
          "type": "uint8"
        },
        {
          "indexed": false,
          "internalType": "address",
          "name": "contractAddress",
          "type": "address"
        },
        {
          "indexed": false,
          "internalType": "uint256",
          "name": "tokenId",
          "type": "uint256"
        },
        {
          "indexed": false,
          "internalType": "uint256",
          "name": "balance",
          "type": "uint256"
        }
      ],
      "name": "TokenRecovered",
      "type": "event"
    },
    {
      "anonymous": false,
      "inputs": [
        {
          "indexed": false,
          "internalType": "enum Enums.TokenType",
          "name": "tokenType",
          "type": "uint8"
        },
        {
          "indexed": false,
          "internalType": "address",
          "name": "contractAddress",
          "type": "address"
        },
        {
          "indexed": false,
          "internalType": "uint256",
          "name": "tokenId",
          "type": "uint256"
        }
      ],
      "name": "TokenTracked",
      "type": "event"
    },
    {
      "anonymous": false,
      "inputs": [
        {
          "indexed": false,
          "internalType": "enum Enums.TokenType",
          "name": "tokenType",
          "type": "uint8"
        },
        {
          "indexed": false,
          "internalType": "address",
          "name": "contractAddress",
          "type": "address"
        },
        {
          "indexed": false,
          "internalType": "uint256",
          "name": "tokenId",
          "type": "uint256"
        },
        {
          "indexed": false,
          "internalType": "address",
          "name": "dest",
          "type": "address"
        },
        {
          "indexed": false,
          "internalType": "uint256",
          "name": "amount",
          "type": "uint256"
        },
        {
          "indexed": false,
          "internalType": "string",
          "name": "reason",
          "type": "string"
        }
      ],
      "name": "TokenTransferError",
      "type": "event"
    },
    {
      "anonymous": false,
      "inputs": [
        {
          "indexed": false,
          "internalType": "enum Enums.TokenType",
          "name": "tokenType",
          "type": "uint8"
        },
        {
          "indexed": false,
          "internalType": "address",
          "name": "contractAddress",
          "type": "address"
        },
        {
          "indexed": false,
          "internalType": "uint256",
          "name": "tokenId",
          "type": "uint256"
        },
        {
          "indexed": false,
          "internalType": "address",
          "name": "dest",
          "type": "address"
        },
        {
          "indexed": false,
          "internalType": "uint256",
          "name": "amount",
          "type": "uint256"
        }
      ],
      "name": "TokenTransferFailed",
      "type": "event"
    },
    {
      "anonymous": false,
      "inputs": [
        {
          "indexed": false,
          "internalType": "enum Enums.TokenType",
          "name": "tokenType",
          "type": "uint8"
        },
        {
          "indexed": false,
          "internalType": "address",
          "name": "contractAddress",
          "type": "address"
        },
        {
          "indexed": false,
          "internalType": "uint256",
          "name": "tokenId",
          "type": "uint256"
        },
        {
          "indexed": false,
          "internalType": "address",
          "name": "dest",
          "type": "address"
        },
        {
          "indexed": false,
          "internalType": "uint256",
          "name": "amount",
          "type": "uint256"
        }
      ],
      "name": "TokenTransferSucceeded",
      "type": "event"
    },
    {
      "anonymous": false,
      "inputs": [
        {
          "indexed": false,
          "internalType": "enum Enums.TokenType",
          "name": "tokenType",
          "type": "uint8"
        },
        {
          "indexed": false,
          "internalType": "address",
          "name": "contractAddress",
          "type": "address"
        },
        {
          "indexed": false,
          "internalType": "uint256",
          "name": "tokenId",
          "type": "uint256"
        }
      ],
      "name": "TokenUntracked",
      "type": "event"
    },
    {
      "inputs": [
        {
          "internalType": "enum Enums.TokenType",
          "name": "tokenType",
          "type": "Enums.TokenType"
        },
        {
          "internalType": "address",
          "name": "contractAddress",
          "type": "address"
        },
        {
          "internalType": "uint256",
          "name": "tokenId",
          "type": "uint256"
        }
      ],
      "name": "getBalance",
      "outputs": [
        {
          "internalType": "uint256",
          "name": "",
          "type": "uint256"
        },
        {
          "internalType": "bool",
          "name": "success",
          "type": "bool"
        },
        {
          "internalType": "string",
          "name": "",
          "type": "string"
        }
      ],
      "stateMutability": "view",
      "type": "function"
    }
  ],
  "bytecode": "0x612a1f61003a600b82828239805160001a60731461002d57634e487b7160e01b600052600060045260246000fd5b30600052607381538281f3fe73000000000000000000000000000000000000000030146080604052600436106100be5760003560e01c80637af6e6191161007b5780637af6e61914610192578063a441793b146101b2578063aaf60473146101d2578063c841a9db146101f2578063e858622414610212578063f1addb9c1461023257600080fd5b806322a5a565146100c3578063274d96d8146100e55780633b206f421461010557806347159417146101305780636489a8db146101505780637625993a14610172575b600080fd5b8180156100cf57600080fd5b506100e36100de3660046122a4565b610252565b005b8180156100f157600080fd5b506100e3610100366004612426565b61037a565b610118610113366004612211565b6106c1565b60405161012793929190612639565b60405180910390f35b81801561013c57600080fd5b506100e361014b3660046123b0565b6109b0565b61016361015e3660046121d3565b610aa5565b6040516101279392919061282e565b81801561017e57600080fd5b506100e361018d3660046123b0565b610d46565b81801561019e57600080fd5b506100e36101ad3660046123b0565b610f1d565b8180156101be57600080fd5b506100e36101cd366004612426565b611009565b8180156101de57600080fd5b506100e36101ed366004612229565b61165e565b8180156101fe57600080fd5b506100e361020d36600461246b565b6116c8565b81801561021e57600080fd5b506100e361022d3660046122ca565b611a46565b81801561023e57600080fd5b506100e361024d366004612258565b611de0565b805460018201546000918291829161027d9160ff82169161010090046001600160a01b031690610aa5565b925092509250816102dd57835460018501546040517fdd42b2d608f4c9bed2c43d049f441dac9098f3f74f843f9242f3ab9b9852f2bf926102d49260ff8216926101009092046001600160a01b03169186906127c8565b60405180910390a15b8215610372578354600185015460408051602081019091526000815261031d92899260ff8216926101009092046001600160a01b0316918a9089906116c8565b835460018501546040517ff55f4f66ca397ce834b2245859167c6912466e110505839852dbb803c0c04653926103699260ff8216926101009092046001600160a01b03169188906127fc565b60405180910390a15b505050505050565b600083600381111561039c57634e487b7160e01b600052602160045260246000fd5b604080516020810192909252606085811b6001600160601b03191691830191909152810183905260800160408051601f1981840301815291815281516020928301206000818152600189019093529120549091501561058e5760005b600082815260018701602052604090205463ffffffff8216101561058c5760008281526001870160205260408120805463ffffffff841690811061044c57634e487b7160e01b600052603260045260246000fd5b9060005260206000200154905085600381111561047957634e487b7160e01b600052602160045260246000fd5b87600001828154811061049c57634e487b7160e01b600052603260045260246000fd5b600091825260209091206002909102015460ff1660038111156104cf57634e487b7160e01b600052602160045260246000fd5b146104da575061057a565b838760000182815481106104fe57634e487b7160e01b600052603260045260246000fd5b9060005260206000209060020201600101541461051b575061057a565b846001600160a01b031687600001828154811061054857634e487b7160e01b600052603260045260246000fd5b600091825260209091206002909102015461010090046001600160a01b031614610572575061057a565b5050506106bb565b80610584816128e3565b9150506103f8565b505b600081815260018087016020908152604080842089548154948501825590855291909320909101558051606081019091528590808660038111156105e257634e487b7160e01b600052602160045260246000fd5b81526001600160a01b038616602080830191909152604090910185905282546001818101855560009485529190932082516002909402018054929390929091839160ff19169083600381111561064857634e487b7160e01b600052602160045260246000fd5b0217905550602082015181546001600160a01b0390911661010002610100600160a81b0319909116178155604091820151600190910155517f7e1890e95e59ca252ad98a9bbeeb8c7f6ce5269f06ecb4f0cb5ebcee5770c2a2906106b1908690869086906126d6565b60405180910390a1505b50505050565b8054606090819081906000906001600160401b038111156106f257634e487b7160e01b600052604160045260246000fd5b60405190808252806020026020018201604052801561071b578160200160208202803683370190505b5085549091506000906001600160401b0381111561074957634e487b7160e01b600052604160045260246000fd5b604051908082528060200260200182016040528015610772578160200160208202803683370190505b5086549091506000906001600160401b038111156107a057634e487b7160e01b600052604160045260246000fd5b6040519080825280602002602001820160405280156107c9578160200160208202803683370190505b50905060005b875463ffffffff821610156109a257876000018163ffffffff168154811061080757634e487b7160e01b600052603260045260246000fd5b6000918252602090912060029091020154845160ff90911690859063ffffffff841690811061084657634e487b7160e01b600052603260045260246000fd5b6020026020010190600381111561086d57634e487b7160e01b600052602160045260246000fd5b9081600381111561088e57634e487b7160e01b600052602160045260246000fd5b9052508754889063ffffffff83169081106108b957634e487b7160e01b600052603260045260246000fd5b906000526020600020906002020160000160019054906101000a90046001600160a01b0316838263ffffffff168151811061090457634e487b7160e01b600052603260045260246000fd5b60200260200101906001600160a01b031690816001600160a01b031681525050876000018163ffffffff168154811061094d57634e487b7160e01b600052603260045260246000fd5b906000526020600020906002020160010154828263ffffffff168151811061098557634e487b7160e01b600052603260045260246000fd5b60209081029190910101528061099a816128e3565b9150506107cf565b509196909550909350915050565b600080806109c084860186612018565b92509250925060005b83518163ffffffff161015610a9c57610a8a87858363ffffffff1681518110610a0257634e487b7160e01b600052603260045260246000fd5b60200260200101516003811115610a2957634e487b7160e01b600052602160045260246000fd5b858463ffffffff1681518110610a4f57634e487b7160e01b600052603260045260246000fd5b6020026020010151858563ffffffff1681518110610a7d57634e487b7160e01b600052603260045260246000fd5b602002602001015161037a565b80610a94816128e3565b9150506109c9565b50505050505050565b600080606081866003811115610acb57634e487b7160e01b600052602160045260246000fd5b1415610bc5576040516370a0823160e01b81523060048201526001600160a01b038616906370a08231906024015b60206040518083038186803b158015610b1157600080fd5b505afa925050508015610b41575060408051601f3d908101601f19168201909252610b3e918101906124f8565b60015b610ba857610b4d612933565b806308c379a01415610b7b5750610b6261294b565b80610b6d5750610b7d565b600093508392509050610d3d565b505b50506040805180820190915260078152662ab735b737bbb760c91b6020820152600091508190610d3d565b604080516020810190915260008152909350600192509050610d3d565b6001866003811115610be757634e487b7160e01b600052602160045260246000fd5b1415610cbc576040516331a9108f60e11b8152600481018590526001600160a01b03861690636352211e9060240160206040518083038186803b158015610c2d57600080fd5b505afa925050508015610c5d575060408051601f3d908101601f19168201909252610c5a91810190611ff5565b60015b610c6957610b4d612933565b6001600160a01b03811630148015610c9b57600180604051806020016040528060008152509450945094505050610d3d565b60006001604051806020016040528060008152509450945094505050610d3d565b6002866003811115610cde57634e487b7160e01b600052602160045260246000fd5b1415610d1557604051627eeac760e11b8152306004820152602481018590526001600160a01b0386169062fdd58e90604401610af9565b5050604080518082019091526008815267426164207479706560c01b60208201526000915081905b93509350939050565b60008080610d5684860186612018565b925092509250600083516001600160401b03811115610d8557634e487b7160e01b600052604160045260246000fd5b604051908082528060200260200182016040528015610dd057816020015b6040805160608101825260008082526020808301829052928201528252600019909201910181610da35790505b50905060005b84518163ffffffff161015610f12576040518060600160405280868363ffffffff1681518110610e1657634e487b7160e01b600052603260045260246000fd5b60200260200101516003811115610e3d57634e487b7160e01b600052602160045260246000fd5b6003811115610e5c57634e487b7160e01b600052602160045260246000fd5b8152602001858363ffffffff1681518110610e8757634e487b7160e01b600052603260045260246000fd5b60200260200101516001600160a01b03168152602001848363ffffffff1681518110610ec357634e487b7160e01b600052603260045260246000fd5b6020026020010151815250828263ffffffff1681518110610ef457634e487b7160e01b600052603260045260246000fd5b60200260200101819052508080610f0a906128e3565b915050610dd6565b50610a9c8782611a46565b60008080610f2d84860186612018565b92509250925060005b83518163ffffffff161015610a9c57610ff787858363ffffffff1681518110610f6f57634e487b7160e01b600052603260045260246000fd5b60200260200101516003811115610f9657634e487b7160e01b600052602160045260246000fd5b858463ffffffff1681518110610fbc57634e487b7160e01b600052603260045260246000fd5b6020026020010151858563ffffffff1681518110610fea57634e487b7160e01b600052603260045260246000fd5b6020026020010151611009565b80611001816128e3565b915050610f36565b600083600381111561102b57634e487b7160e01b600052602160045260246000fd5b604080516020810192909252606085811b6001600160601b03191691830191909152810183905260800160408051601f19818403018152918152815160209283012060008181526001890190935291205490915061108957506106bb565b60005b600082815260018701602052604090205463ffffffff8216101561162a5760008281526001870160205260408120805463ffffffff84169081106110e057634e487b7160e01b600052603260045260246000fd5b9060005260206000200154905085600381111561110d57634e487b7160e01b600052602160045260246000fd5b87600001828154811061113057634e487b7160e01b600052603260045260246000fd5b600091825260209091206002909102015460ff16600381111561116357634e487b7160e01b600052602160045260246000fd5b1461116e5750611618565b8387600001828154811061119257634e487b7160e01b600052603260045260246000fd5b906000526020600020906002020160010154146111af5750611618565b846001600160a01b03168760000182815481106111dc57634e487b7160e01b600052603260045260246000fd5b600091825260209091206002909102015461010090046001600160a01b0316146112065750611618565b86546000906112179060019061287b565b905087600001818154811061123c57634e487b7160e01b600052603260045260246000fd5b906000526020600020906002020188600001838154811061126d57634e487b7160e01b600052603260045260246000fd5b6000918252602090912082546002909202018054909160ff1690829060ff191660018360038111156112af57634e487b7160e01b600052602160045260246000fd5b021790555081548154610100600160a81b031916610100918290046001600160a01b0316909102178155600191820154910155875460009089908490811061130757634e487b7160e01b600052603260045260246000fd5b600091825260209091206002909102015460ff16600381111561133a57634e487b7160e01b600052602160045260246000fd5b89548a908590811061135c57634e487b7160e01b600052603260045260246000fd5b60009182526020909120600290910201548a5461010090910460601b6001600160601b031916908b90869081106113a357634e487b7160e01b600052603260045260246000fd5b90600052602060002090600202016001015460001b6040516020016113db939291909283526020830191909152604082015260600190565b6040516020818303038152906040528051906020012090508860000180548061141457634e487b7160e01b600052603160045260246000fd5b60008281526020812060026000199093019283020180546001600160a81b031916815560010181905591555b600082815260018b01602052604090205463ffffffff8216101561150057600082815260018b0160205260409020805484919063ffffffff841690811061149757634e487b7160e01b600052603260045260246000fd5b906000526020600020015414156114ee57600082815260018b0160205260409020805485919063ffffffff84169081106114e157634e487b7160e01b600052603260045260246000fd5b6000918252602090912001555b806114f8816128e3565b915050611440565b5060008581526001808b016020526040909120805490916115209161287b565b8154811061153e57634e487b7160e01b600052603260045260246000fd5b9060005260206000200154896001016000878152602001908152602001600020848154811061157d57634e487b7160e01b600052603260045260246000fd5b90600052602060002001819055508860010160008681526020019081526020016000208054806115bd57634e487b7160e01b600052603160045260246000fd5b600190038181906000526020600020016000905590557f166bc904e3b7f8699e175923a2635944dd9ac0dc817927aac60d854d23a82b9b888888604051611606939291906126d6565b60405180910390a150505050506106bb565b80611622816128e3565b91505061108c565b507ffc773cf3883ef83133327fbc62fe0a7c3c96add34a1781cae66ba5de7efa3f5f8484846040516106b1939291906126d6565b60005b825463ffffffff821610156116c3576116b18383856000018463ffffffff168154811061169e57634e487b7160e01b600052603260045260246000fd5b9060005260206000209060020201610252565b806116bb816128e3565b915050611661565b505050565b60008660038111156116ea57634e487b7160e01b600052602160045260246000fd5b14156118a35760405163a9059cbb60e01b81526001600160a01b0384811660048301526024820184905286169063a9059cbb90604401602060405180830381600087803b15801561173a57600080fd5b505af192505050801561176a575060408051601f3d908101601f19168201909252611767918101906121b3565b60015b61182357611776612933565b806308c379a014156117dd575061178b61294b565b8061179657506117df565b7fb2c309e26e7b2de22ddccb000bdb486012c32f2d701ded2884bad91974065cba8787878787866040516117cf96959493929190612739565b60405180910390a150610a9c565b505b7fb2c309e26e7b2de22ddccb000bdb486012c32f2d701ded2884bad91974065cba8686868686604051611816959493929190612780565b60405180910390a1610a9c565b801561186c576118358888888861037a565b7f1b7af2671454aac8f59a0b294dd30d582e2df89a6efef446afd125b268795b3187878787876040516117cf9594939291906126fe565b7f75a36803468aca74d964b22522480470a7a3f2121daa5994c2a937aec85d232987878787876040516117cf9594939291906126fe565b60018660038111156118c557634e487b7160e01b600052602160045260246000fd5b141561196b57604051635c46a7ef60e11b81526001600160a01b0386169063b88d4fde906118fd9030908790899087906004016125b7565b600060405180830381600087803b15801561191757600080fd5b505af1925050508015611928575060015b61193457611776612933565b7f1b7af2671454aac8f59a0b294dd30d582e2df89a6efef446afd125b268795b3186868686866040516118169594939291906126fe565b600286600381111561198d57634e487b7160e01b600052602160045260246000fd5b1415610a9c57604051637921219560e11b81526001600160a01b0386169063f242432a906119c790309087908990889088906004016125f4565b600060405180830381600087803b1580156119e157600080fd5b505af19250505080156119f2575060015b6119fe57611776612933565b7f1b7af2671454aac8f59a0b294dd30d582e2df89a6efef446afd125b268795b318686868686604051611a359594939291906126fe565b60405180910390a150505050505050565b60005b825463ffffffff82161015611bb6576000836000018263ffffffff1681548110611a8357634e487b7160e01b600052603260045260246000fd5b60009182526020822060029091020154855460ff9091169250859063ffffffff8516908110611ac257634e487b7160e01b600052603260045260246000fd5b600091825260208220600291909102015486546101009091046001600160a01b03169250869063ffffffff8616908110611b0c57634e487b7160e01b600052603260045260246000fd5b90600052602060002090600202016001015490506000836003811115611b4257634e487b7160e01b600052602160045260246000fd5b604080516020810192909252606085811b6001600160601b03191691830191909152810183905260800160408051601f198184030181529181528151602092830120600081815260018b01909352908220909250611b9f91611e7e565b505050508080611bae906128e3565b915050611a49565b50611bc2826000611e9f565b60005b81518163ffffffff1610156116c3576000828263ffffffff1681518110611bfc57634e487b7160e01b600052603260045260246000fd5b60200260200101516000015190506000838363ffffffff1681518110611c3257634e487b7160e01b600052603260045260246000fd5b60200260200101516020015190506000848463ffffffff1681518110611c6857634e487b7160e01b600052603260045260246000fd5b60200260200101516040015190506000836003811115611c9857634e487b7160e01b600052602160045260246000fd5b604080516020810192909252606085811b6001600160601b031916918301919091528101839052608001604051602081830303815290604052805190602001209050866000016040518060600160405280866003811115611d0957634e487b7160e01b600052602160045260246000fd5b81526001600160a01b038616602080830191909152604090910185905282546001818101855560009485529190932082516002909402018054929390929091839160ff191690836003811115611d6f57634e487b7160e01b600052602160045260246000fd5b021790555060208281015182546001600160a01b0390911661010002610100600160a81b031990911617825560409283015160019283015560009384528982018152918320805491820181558352912063ffffffff861691015550829150611dd89050816128e3565b915050611bc5565b600081806020019051810190611df69190612106565b905060005b81518163ffffffff161015611e7757611e65858587600001858563ffffffff1681518110611e3957634e487b7160e01b600052603260045260246000fd5b602002602001015163ffffffff168154811061169e57634e487b7160e01b600052603260045260246000fd5b80611e6f816128e3565b915050611dfb565b5050505050565b5080546000825590600052602060002090810190611e9c9190611ec0565b50565b5080546000825560020290600052602060002090810190611e9c9190611ed9565b5b80821115611ed55760008155600101611ec1565b5090565b5b80821115611ed55780546001600160a81b031916815560006001820155600201611eda565b600082601f830112611f0f578081fd5b81356020611f1c82612858565b604051611f2982826128b7565b8381528281019150858301600585901b87018401881015611f48578586fd5b855b85811015611f6657813584529284019290840190600101611f4a565b5090979650505050505050565b600082601f830112611f83578081fd5b81356001600160401b03811115611f9c57611f9c61291d565b604051611fb3601f8301601f1916602001826128b7565b818152846020838601011115611fc7578283fd5b816020850160208301379081016020019190915292915050565b803560048110611ff057600080fd5b919050565b600060208284031215612006578081fd5b8151612011816129d4565b9392505050565b60008060006060848603121561202c578182fd5b83356001600160401b0380821115612042578384fd5b61204e87838801611eff565b9450602091508186013581811115612064578485fd5b8601601f81018813612074578485fd5b803561207f81612858565b60405161208c82826128b7565b8281528581019150838601600584901b850187018c10156120ab578889fd5b8894505b838510156120d65780356120c2816129d4565b8352600194909401939186019186016120af565b50965050505060408601359150808211156120ef578283fd5b506120fc86828701611eff565b9150509250925092565b60006020808385031215612118578182fd5b82516001600160401b0381111561212d578283fd5b8301601f8101851361213d578283fd5b805161214881612858565b60405161215582826128b7565b8281528481019150838501600584901b85018601891015612174578687fd5b8694505b838510156121a757805163ffffffff81168114612193578788fd5b835260019490940193918501918501612178565b50979650505050505050565b6000602082840312156121c4578081fd5b81518015158114612011578182fd5b6000806000606084860312156121e7578081fd5b6121f084611fe1565b92506020840135612200816129d4565b929592945050506040919091013590565b600060208284031215612222578081fd5b5035919050565b6000806040838503121561223b578182fd5b82359150602083013561224d816129d4565b809150509250929050565b60008060006060848603121561226c578081fd5b83359250602084013561227e816129d4565b915060408401356001600160401b03811115612298578182fd5b6120fc86828701611f73565b6000806000606084860312156122b8578081fd5b833592506020840135612200816129d4565b60008060408084860312156122dd578283fd5b833592506020808501356001600160401b038111156122fa578384fd5b8501601f8101871361230a578384fd5b803561231581612858565b845161232182826128b7565b82815284810191508385016060808502860187018c1015612340578889fd5b8895505b8486101561239f5780828d03121561235a578889fd5b875161236581612892565b61236e83611fe1565b81528783013561237d816129d4565b8189015282890135898201528452600195909501949286019290810190612344565b50979a909950975050505050505050565b6000806000604084860312156123c4578081fd5b8335925060208401356001600160401b03808211156123e1578283fd5b818601915086601f8301126123f4578283fd5b813581811115612402578384fd5b876020828501011115612413578384fd5b6020830194508093505050509250925092565b6000806000806080858703121561243b578182fd5b8435935061244b60208601611fe1565b9250604085013561245b816129d4565b9396929550929360600135925050565b600080600080600080600060e0888a031215612485578485fd5b8735965061249560208901611fe1565b955060408801356124a5816129d4565b94506060880135935060808801356124bc816129d4565b925060a0880135915060c08801356001600160401b038111156124dd578182fd5b6124e98a828b01611f73565b91505092959891949750929550565b600060208284031215612509578081fd5b5051919050565b6000815180845260208085019450808401835b8381101561253f57815187529582019590820190600101612523565b509495945050505050565b60008151808452815b8181101561256f57602081850181015186830182015201612553565b818111156125805782602083870101525b50601f01601f19169290920160200192915050565b600481106125b357634e487b7160e01b600052602160045260246000fd5b9052565b6001600160a01b03858116825284166020820152604081018390526080606082018190526000906125ea9083018461254a565b9695505050505050565b6001600160a01b03868116825285166020820152604081018490526060810183905260a06080820181905260009061262e9083018461254a565b979650505050505050565b606080825284519082018190526000906020906080840190828801845b8281101561267957612669848351612595565b9284019290840190600101612656565b50505083810382850152855180825286830191830190845b818110156126b65783516001600160a01b031683529284019291840191600101612691565b505084810360408601526126ca8187612510565b98975050505050505050565b606081016126e48286612595565b6001600160a01b0393909316602082015260400152919050565b60a0810161270c8288612595565b6001600160a01b039586166020830152604082019490945291909316606082015260800191909152919050565b6127438188612595565b6001600160a01b03868116602083015260408201869052841660608201526080810183905260c060a082018190526000906126ca9083018461254a565b61278a8187612595565b6001600160a01b039485166020820152604081019390935292166060820152608081019190915260c060a0820181905260009082015260e001919050565b6127d28186612595565b60018060a01b03841660208201528260408201526080606082015260006125ea608083018461254a565b6080810161280a8287612595565b6001600160a01b039490941660208201526040810192909252606090910152919050565b838152821515602082015260606040820152600061284f606083018461254a565b95945050505050565b60006001600160401b038211156128715761287161291d565b5060051b60200190565b60008282101561288d5761288d612907565b500390565b606081018181106001600160401b03821117156128b1576128b161291d565b60405250565b601f8201601f191681016001600160401b03811182821017156128dc576128dc61291d565b6040525050565b600063ffffffff808316818114156128fd576128fd612907565b6001019392505050565b634e487b7160e01b600052601160045260246000fd5b634e487b7160e01b600052604160045260246000fd5b600060033d111561294857600481823e5160e01c5b90565b600060443d10156129595790565b6040516003193d81016004833e81513d6001600160401b03816024840111818411171561298857505050505090565b82850191508151818111156129a05750505050505090565b843d87010160208285010111156129ba5750505050505090565b6129c9602082860101876128b7565b509095945050505050565b6001600160a01b0381168114611e9c57600080fdfea264697066735822122053b8fa976f68f48d3634923d6a2da2631759ee74aaeaf6318112ae121552c6c664736f6c63430008040033",
  "immutableReferences": {},
  "source": "// SPDX-License-Identifier: Apache-2.0\npragma solidity ^0.8.4;\n\nimport \"./Enums.sol\";\nimport \"@openzeppelin/contracts/token/ERC20/IERC20.sol\";\nimport \"@openzeppelin/contracts/token/ERC721/IERC721.sol\";\nimport \"@openzeppelin/contracts/token/ERC1155/IERC1155.sol\";\n\nlibrary TokenTracker {\n    event TokenTransferFailed(Enums.TokenType tokenType, address contractAddress, uint256 tokenId, address dest, uint256 amount);\n    event TokenTransferError(Enums.TokenType tokenType, address contractAddress, uint256 tokenId, address dest, uint256 amount, string reason);\n    event TokenTransferSucceeded(Enums.TokenType tokenType, address contractAddress, uint256 tokenId, address dest, uint256 amount);\n    event TokenRecovered(Enums.TokenType tokenType, address contractAddress, uint256 tokenId, uint256 balance);\n    event BalanceRetrievalError(Enums.TokenType tokenType, address contractAddress, uint256 tokenId, string reason);\n\n    struct TrackedToken {\n        Enums.TokenType tokenType;\n        address contractAddress;\n        uint256 tokenId; // only valid for ERC721 and ERC1155\n    }\n\n    struct TokenTrackerState {\n        TrackedToken[] trackedTokens;\n        mapping(bytes32 => uint256[]) trackedTokenPositions;\n    }\n\n    event TokenTracked(Enums.TokenType tokenType, address contractAddress, uint256 tokenId);\n    event TokenUntracked(Enums.TokenType tokenType, address contractAddress, uint256 tokenId);\n    event TokenNotFound(Enums.TokenType tokenType, address contractAddress, uint256 tokenId);\n\n    function trackToken(TokenTrackerState storage state, Enums.TokenType tokenType, address contractAddress, uint256 tokenId) public {\n        bytes32 key = keccak256(bytes.concat(bytes32(uint256(tokenType)), bytes32(bytes20(contractAddress)), bytes32(tokenId)));\n        if (state.trackedTokenPositions[key].length > 0) {\n            for (uint32 i = 0; i < state.trackedTokenPositions[key].length; i++) {\n                uint256 j = state.trackedTokenPositions[key][i];\n                if (state.trackedTokens[j].tokenType != tokenType) continue;\n                if (state.trackedTokens[j].tokenId != tokenId) continue;\n                if (state.trackedTokens[j].contractAddress != contractAddress) continue;\n                // we found a token that is already tracked and is identical to the requested token\n                return;\n            }\n        }\n        state.trackedTokenPositions[key].push(state.trackedTokens.length);\n        state.trackedTokens.push(TrackedToken(tokenType, contractAddress, tokenId));\n        emit TokenTracked(tokenType, contractAddress, tokenId);\n    }\n\n    function untrackToken(TokenTrackerState storage state, Enums.TokenType tokenType, address contractAddress, uint256 tokenId) public {\n        bytes32 key = keccak256(bytes.concat(bytes32(uint256(tokenType)), bytes32(bytes20(contractAddress)), bytes32(tokenId)));\n        if (state.trackedTokenPositions[key].length == 0) {\n            return;\n        }\n        for (uint32 i = 0; i < state.trackedTokenPositions[key].length; i++) {\n            uint256 j = state.trackedTokenPositions[key][i];\n            if (state.trackedTokens[j].tokenType != tokenType) continue;\n            if (state.trackedTokens[j].tokenId != tokenId) continue;\n            if (state.trackedTokens[j].contractAddress != contractAddress) continue;\n            // found our token\n            uint256 swappedPosition = state.trackedTokens.length - 1;\n            state.trackedTokens[j] = state.trackedTokens[swappedPosition];\n            bytes32 swappedKey = keccak256(bytes.concat(bytes32(uint256(state.trackedTokens[j].tokenType)), bytes32(bytes20(state.trackedTokens[j].contractAddress)), bytes32(state.trackedTokens[j].tokenId)));\n            state.trackedTokens.pop();\n            for (uint32 k = 0; k < state.trackedTokenPositions[swappedKey].length; k++) {\n                if (state.trackedTokenPositions[swappedKey][k] == swappedPosition) {\n                    state.trackedTokenPositions[swappedKey][k] = j;\n                }\n            }\n            state.trackedTokenPositions[key][j] = state.trackedTokenPositions[key][state.trackedTokenPositions[key].length - 1];\n            state.trackedTokenPositions[key].pop();\n            emit TokenUntracked(tokenType, contractAddress, tokenId);\n            return;\n        }\n        emit TokenNotFound(tokenType, contractAddress, tokenId);\n    }\n\n    function overrideTrack(TokenTrackerState storage state, TrackedToken[] memory newTrackedTokens) public {\n        for (uint32 i = 0; i < state.trackedTokens.length; i++) {\n            Enums.TokenType tokenType = state.trackedTokens[i].tokenType;\n            address contractAddress = state.trackedTokens[i].contractAddress;\n            uint256 tokenId = state.trackedTokens[i].tokenId;\n            bytes32 key = keccak256(bytes.concat(bytes32(uint256(tokenType)), bytes32(bytes20(contractAddress)), bytes32(tokenId)));\n            delete state.trackedTokenPositions[key];\n        }\n        delete state.trackedTokens;\n        for (uint32 i = 0; i < newTrackedTokens.length; i++) {\n            Enums.TokenType tokenType = newTrackedTokens[i].tokenType;\n            address contractAddress = newTrackedTokens[i].contractAddress;\n            uint256 tokenId = newTrackedTokens[i].tokenId;\n            bytes32 key = keccak256(bytes.concat(bytes32(uint256(tokenType)), bytes32(bytes20(contractAddress)), bytes32(tokenId)));\n            state.trackedTokens.push(TrackedToken(tokenType, contractAddress, tokenId));\n            state.trackedTokenPositions[key].push(i);\n        }\n    }\n\n    function overrideTrackWithBytes(TokenTrackerState storage state, bytes calldata data) public {\n        (uint256[] memory tokenTypes, address[] memory contractAddresses, uint256[] memory tokenIds) = abi.decode(data, (uint256[], address[], uint256[]));\n        TrackedToken[] memory newTrackedTokens = new TrackedToken[](tokenTypes.length);\n        for (uint32 i = 0; i < tokenTypes.length; i++) {\n            newTrackedTokens[i] = TrackedToken(Enums.TokenType(tokenTypes[i]), contractAddresses[i], tokenIds[i]);\n        }\n        overrideTrack(state, newTrackedTokens);\n    }\n\n    function multiTrack(TokenTrackerState storage state, bytes calldata data) public {\n        (uint256[] memory tokenTypes, address[] memory contractAddresses, uint256[] memory tokenIds) = abi.decode(data, (uint256[], address[], uint256[]));\n        for (uint32 i = 0; i < tokenTypes.length; i++) {\n            trackToken(state, Enums.TokenType(tokenTypes[i]), contractAddresses[i], tokenIds[i]);\n        }\n    }\n\n    function multiUntrack(TokenTrackerState storage state, bytes calldata data) public {\n        (uint256[] memory tokenTypes, address[] memory contractAddresses, uint256[] memory tokenIds) = abi.decode(data, (uint256[], address[], uint256[]));\n        for (uint32 i = 0; i < tokenTypes.length; i++) {\n            untrackToken(state, Enums.TokenType(tokenTypes[i]), contractAddresses[i], tokenIds[i]);\n        }\n    }\n\n    function transferToken(TokenTrackerState storage state, Enums.TokenType tokenType, address contractAddress, uint256 tokenId, address dest, uint256 amount, bytes memory data) public {\n        if (tokenType == Enums.TokenType.ERC20) {\n            try IERC20(contractAddress).transfer(dest, amount) returns (bool success){\n                if (success) {\n                    trackToken(state, tokenType, contractAddress, tokenId);\n                    emit TokenTransferSucceeded(tokenType, contractAddress, tokenId, dest, amount);\n                    return;\n                }\n                emit TokenTransferFailed(tokenType, contractAddress, tokenId, dest, amount);\n            } catch Error(string memory reason){\n                emit TokenTransferError(tokenType, contractAddress, tokenId, dest, amount, reason);\n            } catch {\n                emit TokenTransferError(tokenType, contractAddress, tokenId, dest, amount, \"\");\n            }\n        } else if (tokenType == Enums.TokenType.ERC721) {\n            try IERC721(contractAddress).safeTransferFrom(address(this), dest, tokenId, data){\n                emit TokenTransferSucceeded(tokenType, contractAddress, tokenId, dest, amount);\n            } catch Error(string memory reason){\n                emit TokenTransferError(tokenType, contractAddress, tokenId, dest, amount, reason);\n            } catch {\n                emit TokenTransferError(tokenType, contractAddress, tokenId, dest, amount, \"\");\n            }\n        } else if (tokenType == Enums.TokenType.ERC1155) {\n            try IERC1155(contractAddress).safeTransferFrom(address(this), dest, tokenId, amount, data) {\n                emit TokenTransferSucceeded(tokenType, contractAddress, tokenId, dest, amount);\n            } catch Error(string memory reason){\n                emit TokenTransferError(tokenType, contractAddress, tokenId, dest, amount, reason);\n            } catch {\n                emit TokenTransferError(tokenType, contractAddress, tokenId, dest, amount, \"\");\n            }\n        }\n    }\n\n    function getBalance(Enums.TokenType tokenType, address contractAddress, uint256 tokenId) public view returns (uint256, bool success, string memory)  {\n        // all external calls are safe because they are automatically compiled to static call due to view mutability\n        if (tokenType == Enums.TokenType.ERC20) {\n            try IERC20(contractAddress).balanceOf(address(this)) returns (uint256 balance){\n                return (balance, true, \"\");\n            }catch Error(string memory reason){\n                return (0, false, reason);\n            }catch {\n                return (0, false, \"Unknown\");\n            }\n        } else if (tokenType == Enums.TokenType.ERC721) {\n            try IERC721(contractAddress).ownerOf(tokenId) returns (address owner){\n                bool owned = (owner == address(this));\n                if (owned) {\n                    return (1, true, \"\");\n                } else {\n                    return (0, true, \"\");\n                }\n            }catch Error(string memory reason){\n                return (0, false, reason);\n            }catch {\n                return (0, false, \"Unknown\");\n            }\n        } else if (tokenType == Enums.TokenType.ERC1155) {\n            try IERC1155(contractAddress).balanceOf(address(this), tokenId) returns (uint256 balance){\n                return (balance, true, \"\");\n            }catch Error(string memory reason){\n                return (0, false, reason);\n            }catch {\n                return (0, false, \"Unknown\");\n            }\n        }\n        return (0, false, \"Bad type\");\n    }\n\n    function recoverToken(TokenTrackerState storage state, address dest, TokenTracker.TrackedToken storage t) public {\n        (uint256 balance, bool success, string memory reason) = getBalance(t.tokenType, t.contractAddress, t.tokenId);\n        if (!success) {\n            emit BalanceRetrievalError(t.tokenType, t.contractAddress, t.tokenId, reason);\n        }\n        if (balance > 0) {\n            transferToken(state, t.tokenType, t.contractAddress, t.tokenId, dest, balance, bytes(\"\"));\n            emit TokenRecovered(t.tokenType, t.contractAddress, t.tokenId, balance);\n        }\n    }\n\n    function recoverSelectedTokensEncoded(TokenTrackerState storage state, address dest, bytes memory data) public {\n        uint32[] memory indices = abi.decode(data, (uint32[]));\n        for (uint32 i = 0; i < indices.length; i++) {\n            recoverToken(state, dest, state.trackedTokens[indices[i]]);\n        }\n    }\n\n    function recoverAllTokens(TokenTrackerState storage state, address dest) public {\n        for (uint32 i = 0; i < state.trackedTokens.length; i++) {\n            recoverToken(state, dest, state.trackedTokens[i]);\n        }\n    }\n\n    function getTrackedTokens(TokenTrackerState storage state) public view returns (Enums.TokenType[] memory, address[] memory, uint256[] memory){\n        Enums.TokenType[] memory tokenTypes = new Enums.TokenType[](state.trackedTokens.length);\n        address[] memory contractAddresses = new address[](state.trackedTokens.length);\n        uint256[] memory tokenIds = new uint256[](state.trackedTokens.length);\n        for (uint32 i = 0; i < state.trackedTokens.length; i++) {\n            tokenTypes[i] = state.trackedTokens[i].tokenType;\n            contractAddresses[i] = state.trackedTokens[i].contractAddress;\n            tokenIds[i] = state.trackedTokens[i].tokenId;\n        }\n        return (tokenTypes, contractAddresses, tokenIds);\n    }\n}\n",
  "sourcePath": "/Users/polymorpher/git/one-wallet/code/contracts/TokenTracker.sol",
  "compiler": {
    "name": "solc",
    "version": "0.8.4+commit.c7e474f2.Emscripten.clang"
  },
  "schemaVersion": "3.4.2",
  "updatedAt": "2021-12-21T09:09:50.905Z",
  "devdoc": {
    "kind": "dev",
    "methods": {},
    "version": 1
  },
  "userdoc": {
    "kind": "user",
    "methods": {},
    "version": 1
  }
}