{
  "contractName": "TokenTracker",
  "abi": [
    {
      "inputs": [],
      "stateMutability": "nonpayable",
      "type": "constructor"
    },
    {
      "anonymous": false,
      "inputs": [
        {
          "indexed": false,
          "internalType": "enum TokenTracker.TokenType",
          "name": "tokenType",
          "type": "uint8"
        },
        {
          "indexed": false,
          "internalType": "uint256",
          "name": "amount",
          "type": "uint256"
        },
        {
          "indexed": false,
          "internalType": "address",
          "name": "from",
          "type": "address"
        },
        {
          "indexed": false,
          "internalType": "address",
          "name": "tokenContract",
          "type": "address"
        },
        {
          "indexed": false,
          "internalType": "address",
          "name": "operator",
          "type": "address"
        },
        {
          "indexed": false,
          "internalType": "uint256",
          "name": "tokenId",
          "type": "uint256"
        },
        {
          "indexed": false,
          "internalType": "bytes",
          "name": "data",
          "type": "bytes"
        }
      ],
      "name": "ReceivedToken",
      "type": "event"
    },
    {
      "anonymous": false,
      "inputs": [
        {
          "indexed": false,
          "internalType": "enum TokenTracker.TokenType",
          "name": "tokenType",
          "type": "uint8"
        },
        {
          "indexed": false,
          "internalType": "address",
          "name": "contractAddress",
          "type": "address"
        },
        {
          "indexed": false,
          "internalType": "uint256",
          "name": "tokenId",
          "type": "uint256"
        }
      ],
      "name": "TokenNotFound",
      "type": "event"
    },
    {
      "anonymous": false,
      "inputs": [
        {
          "indexed": false,
          "internalType": "enum TokenTracker.TokenType",
          "name": "tokenType",
          "type": "uint8"
        },
        {
          "indexed": false,
          "internalType": "address",
          "name": "contractAddress",
          "type": "address"
        },
        {
          "indexed": false,
          "internalType": "uint256",
          "name": "tokenId",
          "type": "uint256"
        }
      ],
      "name": "TokenTracked",
      "type": "event"
    },
    {
      "anonymous": false,
      "inputs": [
        {
          "indexed": false,
          "internalType": "enum TokenTracker.TokenType",
          "name": "tokenType",
          "type": "uint8"
        },
        {
          "indexed": false,
          "internalType": "address",
          "name": "contractAddress",
          "type": "address"
        },
        {
          "indexed": false,
          "internalType": "uint256",
          "name": "tokenId",
          "type": "uint256"
        },
        {
          "indexed": false,
          "internalType": "address",
          "name": "dest",
          "type": "address"
        },
        {
          "indexed": false,
          "internalType": "uint256",
          "name": "amount",
          "type": "uint256"
        },
        {
          "indexed": false,
          "internalType": "string",
          "name": "reason",
          "type": "string"
        }
      ],
      "name": "TokenTransferError",
      "type": "event"
    },
    {
      "anonymous": false,
      "inputs": [
        {
          "indexed": false,
          "internalType": "enum TokenTracker.TokenType",
          "name": "tokenType",
          "type": "uint8"
        },
        {
          "indexed": false,
          "internalType": "address",
          "name": "contractAddress",
          "type": "address"
        },
        {
          "indexed": false,
          "internalType": "uint256",
          "name": "tokenId",
          "type": "uint256"
        },
        {
          "indexed": false,
          "internalType": "address",
          "name": "dest",
          "type": "address"
        },
        {
          "indexed": false,
          "internalType": "uint256",
          "name": "amount",
          "type": "uint256"
        }
      ],
      "name": "TokenTransferFailed",
      "type": "event"
    },
    {
      "anonymous": false,
      "inputs": [
        {
          "indexed": false,
          "internalType": "enum TokenTracker.TokenType",
          "name": "tokenType",
          "type": "uint8"
        },
        {
          "indexed": false,
          "internalType": "address",
          "name": "contractAddress",
          "type": "address"
        },
        {
          "indexed": false,
          "internalType": "uint256",
          "name": "tokenId",
          "type": "uint256"
        },
        {
          "indexed": false,
          "internalType": "address",
          "name": "dest",
          "type": "address"
        },
        {
          "indexed": false,
          "internalType": "uint256",
          "name": "amount",
          "type": "uint256"
        }
      ],
      "name": "TokenTransferSucceeded",
      "type": "event"
    },
    {
      "anonymous": false,
      "inputs": [
        {
          "indexed": false,
          "internalType": "enum TokenTracker.TokenType",
          "name": "tokenType",
          "type": "uint8"
        },
        {
          "indexed": false,
          "internalType": "address",
          "name": "contractAddress",
          "type": "address"
        },
        {
          "indexed": false,
          "internalType": "uint256",
          "name": "tokenId",
          "type": "uint256"
        }
      ],
      "name": "TokenUntracked",
      "type": "event"
    },
    {
      "inputs": [
        {
          "internalType": "address",
          "name": "operator",
          "type": "address"
        },
        {
          "internalType": "address",
          "name": "from",
          "type": "address"
        },
        {
          "internalType": "uint256",
          "name": "id",
          "type": "uint256"
        },
        {
          "internalType": "uint256",
          "name": "value",
          "type": "uint256"
        },
        {
          "internalType": "bytes",
          "name": "data",
          "type": "bytes"
        }
      ],
      "name": "onERC1155Received",
      "outputs": [
        {
          "internalType": "bytes4",
          "name": "",
          "type": "bytes4"
        }
      ],
      "stateMutability": "nonpayable",
      "type": "function"
    },
    {
      "inputs": [
        {
          "internalType": "address",
          "name": "operator",
          "type": "address"
        },
        {
          "internalType": "address",
          "name": "from",
          "type": "address"
        },
        {
          "internalType": "uint256[]",
          "name": "ids",
          "type": "uint256[]"
        },
        {
          "internalType": "uint256[]",
          "name": "values",
          "type": "uint256[]"
        },
        {
          "internalType": "bytes",
          "name": "data",
          "type": "bytes"
        }
      ],
      "name": "onERC1155BatchReceived",
      "outputs": [
        {
          "internalType": "bytes4",
          "name": "",
          "type": "bytes4"
        }
      ],
      "stateMutability": "nonpayable",
      "type": "function"
    },
    {
      "inputs": [
        {
          "internalType": "bytes4",
          "name": "interfaceID",
          "type": "bytes4"
        }
      ],
      "name": "supportsInterface",
      "outputs": [
        {
          "internalType": "bool",
          "name": "",
          "type": "bool"
        }
      ],
      "stateMutability": "pure",
      "type": "function"
    },
    {
      "inputs": [
        {
          "internalType": "address",
          "name": "operator",
          "type": "address"
        },
        {
          "internalType": "address",
          "name": "from",
          "type": "address"
        },
        {
          "internalType": "uint256",
          "name": "tokenId",
          "type": "uint256"
        },
        {
          "internalType": "bytes",
          "name": "data",
          "type": "bytes"
        }
      ],
      "name": "onERC721Received",
      "outputs": [
        {
          "internalType": "bytes4",
          "name": "",
          "type": "bytes4"
        }
      ],
      "stateMutability": "nonpayable",
      "type": "function"
    },
    {
      "inputs": [],
      "name": "getTrackedTokens",
      "outputs": [
        {
          "internalType": "enum TokenTracker.TokenType[]",
          "name": "",
          "type": "uint8[]"
        },
        {
          "internalType": "address[]",
          "name": "",
          "type": "address[]"
        },
        {
          "internalType": "uint256[]",
          "name": "",
          "type": "uint256[]"
        }
      ],
      "stateMutability": "view",
      "type": "function"
    }
  ],
  "bytecode": "0x608060405234801561001057600080fd5b50610e46806100206000396000f3fe608060405234801561001057600080fd5b50600436106100575760003560e01c806301ffc9a71461005c578063150b7a0214610084578063695def4c146100b0578063bc197c81146100c7578063f23a6e61146100da575b600080fd5b61006f61006a366004610ba5565b6100ed565b60405190151581526020015b60405180910390f35b610097610092366004610ac2565b61013f565b6040516001600160e01b0319909116815260200161007b565b6100b86101a5565b60405161007b93929190610cb0565b6100976100d5366004610a0b565b610496565b6100976100e8366004610b2f565b6105a8565b60006001600160e01b031982166301ffc9a760e01b148061011e57506001600160e01b0319821663f23a6e6160e01b145b8061013957506001600160e01b03198216630a85bd0160e11b145b92915050565b60007feb7a68d5a205eea79480f44587fe8146ae15b7e92582967fd1b1b119c9b60efa60018087338a89898960405161017f989796959493929190610d69565b60405180910390a16101936001338661060f565b50630a85bd0160e11b95945050505050565b6060806060600060018054905067ffffffffffffffff8111156101d857634e487b7160e01b600052604160045260246000fd5b604051908082528060200260200182016040528015610201578160200160208202803683370190505b5060015490915060009067ffffffffffffffff81111561023157634e487b7160e01b600052604160045260246000fd5b60405190808252806020026020018201604052801561025a578160200160208202803683370190505b5060015490915060009067ffffffffffffffff81111561028a57634e487b7160e01b600052604160045260246000fd5b6040519080825280602002602001820160405280156102b3578160200160208202803683370190505b50905060005b60015463ffffffff821610156104895760018163ffffffff16815481106102f057634e487b7160e01b600052603260045260246000fd5b6000918252602090912060029091020154845160ff90911690859063ffffffff841690811061032f57634e487b7160e01b600052603260045260246000fd5b6020026020010190600381111561035657634e487b7160e01b600052602160045260246000fd5b9081600381111561037757634e487b7160e01b600052602160045260246000fd5b8152505060018163ffffffff16815481106103a257634e487b7160e01b600052603260045260246000fd5b906000526020600020906002020160000160019054906101000a90046001600160a01b0316838263ffffffff16815181106103ed57634e487b7160e01b600052603260045260246000fd5b60200260200101906001600160a01b031690816001600160a01b03168152505060018163ffffffff168154811061043457634e487b7160e01b600052603260045260246000fd5b906000526020600020906002020160010154828263ffffffff168151811061046c57634e487b7160e01b600052603260045260246000fd5b60209081029190910101528061048181610dc7565b9150506102b9565b5091959094509092509050565b6000805b63ffffffff8116871115610592573063f23a6e618b8b8b8b63ffffffff87168181106104d657634e487b7160e01b600052603260045260246000fd5b905060200201358a8a8763ffffffff1681811061050357634e487b7160e01b600052603260045260246000fd5b9050602002013589896040518763ffffffff1660e01b815260040161052d96959493929190610c69565b602060405180830381600087803b15801561054757600080fd5b505af115801561055b573d6000803e3d6000fd5b505050506040513d601f19601f8201168201806040525081019061057f9190610bc8565b508061058a81610dc7565b91505061049a565b5063bc197c8160e01b9998505050505050505050565b60007feb7a68d5a205eea79480f44587fe8146ae15b7e92582967fd1b1b119c9b60efa60028588338b8a89896040516105e8989796959493929190610d69565b60405180910390a16105fc6002338761060f565b5063f23a6e6160e01b9695505050505050565b600083600381111561063157634e487b7160e01b600052602160045260246000fd5b604080516020810192909252606085811b6bffffffffffffffffffffffff191691830191909152810183905260800160408051601f1981840301815291815281516020928301206000818152928390529120549091501561081b5760005b60008281526020819052604090205463ffffffff82161015610819576000828152602081905260408120805463ffffffff84169081106106df57634e487b7160e01b600052603260045260246000fd5b9060005260206000200154905085600381111561070c57634e487b7160e01b600052602160045260246000fd5b6001828154811061072d57634e487b7160e01b600052603260045260246000fd5b600091825260209091206002909102015460ff16600381111561076057634e487b7160e01b600052602160045260246000fd5b1461076b5750610807565b836001828154811061078d57634e487b7160e01b600052603260045260246000fd5b906000526020600020906002020160010154146107aa5750610807565b846001600160a01b0316600182815481106107d557634e487b7160e01b600052603260045260246000fd5b600091825260209091206002909102015461010090046001600160a01b0316146107ff5750610807565b505050505050565b8061081181610dc7565b91505061068f565b505b6000604051806060016040528086600381111561084857634e487b7160e01b600052602160045260246000fd5b81526001600160a01b038616602080830191909152604091820186905260008581528082529182206001805482548083018455928552928420909101919091558054808201825591819052825160029092027fb10e2d527612073b26eecdfd717e6a320cf44b4afac2b0732d9fcbe2b7fa0cf60180549394508493909291839160ff1916908360038111156108ed57634e487b7160e01b600052602160045260246000fd5b0217905550602082015181546001600160a01b0390911661010002610100600160a81b0319909116178155604091820151600190910155517f7e1890e95e59ca252ad98a9bbeeb8c7f6ce5269f06ecb4f0cb5ebcee5770c2a29061095690879087908790610d41565b60405180910390a15050505050565b80356001600160a01b038116811461097c57600080fd5b919050565b60008083601f840112610992578182fd5b50813567ffffffffffffffff8111156109a9578182fd5b6020830191508360208260051b85010111156109c457600080fd5b9250929050565b60008083601f8401126109dc578182fd5b50813567ffffffffffffffff8111156109f3578182fd5b6020830191508360208285010111156109c457600080fd5b60008060008060008060008060a0898b031215610a26578384fd5b610a2f89610965565b9750610a3d60208a01610965565b9650604089013567ffffffffffffffff80821115610a59578586fd5b610a658c838d01610981565b909850965060608b0135915080821115610a7d578586fd5b610a898c838d01610981565b909650945060808b0135915080821115610aa1578384fd5b50610aae8b828c016109cb565b999c989b5096995094979396929594505050565b600080600080600060808688031215610ad9578081fd5b610ae286610965565b9450610af060208701610965565b935060408601359250606086013567ffffffffffffffff811115610b12578182fd5b610b1e888289016109cb565b969995985093965092949392505050565b60008060008060008060a08789031215610b47578182fd5b610b5087610965565b9550610b5e60208801610965565b94506040870135935060608701359250608087013567ffffffffffffffff811115610b87578283fd5b610b9389828a016109cb565b979a9699509497509295939492505050565b600060208284031215610bb6578081fd5b8135610bc181610df7565b9392505050565b600060208284031215610bd9578081fd5b8151610bc181610df7565b6000815180845260208085019450808401835b83811015610c1357815187529582019590820190600101610bf7565b509495945050505050565b81835281816020850137506000828201602090810191909152601f909101601f19169091010190565b60048110610c6557634e487b7160e01b600052602160045260246000fd5b9052565b6001600160a01b03878116825286166020820152604081018590526060810184905260a060808201819052600090610ca49083018486610c1e565b98975050505050505050565b606080825284519082018190526000906020906080840190828801845b82811015610cf057610ce0848351610c47565b9284019290840190600101610ccd565b50505083810382850152855180825286830191830190845b81811015610d2d5783516001600160a01b031683529284019291840191600101610d08565b50508481036040860152610ca48187610be4565b60608101610d4f8286610c47565b6001600160a01b0393909316602082015260400152919050565b610d73818a610c47565b602081018890526001600160a01b03878116604083015286811660608301528516608082015260a0810184905260e060c08201819052600090610db99083018486610c1e565b9a9950505050505050505050565b600063ffffffff80831681811415610ded57634e487b7160e01b83526011600452602483fd5b6001019392505050565b6001600160e01b031981168114610e0d57600080fd5b5056fea26469706673582212209a067293a034ef0eacd53de57cd02464c7288d5b1459e383b7f9dfd883a0168c64736f6c63430008040033",
  "immutableReferences": {},
  "source": "// SPDX-License-Identifier: Apache-2.0\npragma solidity ^0.8.4;\n\nimport \"@openzeppelin/contracts/token/ERC721/IERC721Receiver.sol\";\nimport \"@openzeppelin/contracts/token/ERC721/IERC721.sol\";\nimport \"@openzeppelin/contracts/token/ERC1155/IERC1155Receiver.sol\";\nimport \"@openzeppelin/contracts/token/ERC1155/IERC1155.sol\";\n\n\ncontract TokenTracker is IERC721Receiver, IERC1155Receiver {\n\n    /// token tracking\n    enum TokenType{\n        ERC20, ERC721, ERC1155, NONE\n    }\n    event ReceivedToken(TokenType tokenType, uint256 amount, address from, address tokenContract, address operator, uint256 tokenId, bytes data);\n    event TokenTracked(TokenType tokenType, address contractAddress, uint256 tokenId);\n    event TokenUntracked(TokenType tokenType, address contractAddress, uint256 tokenId);\n    event TokenNotFound(TokenType tokenType, address contractAddress, uint256 tokenId);\n    event TokenTransferFailed(TokenType tokenType, address contractAddress, uint256 tokenId, address dest, uint256 amount);\n    event TokenTransferError(TokenType tokenType, address contractAddress, uint256 tokenId, address dest, uint256 amount, string reason);\n    event TokenTransferSucceeded(TokenType tokenType, address contractAddress, uint256 tokenId, address dest, uint256 amount);\n\n    // We track tokens in the contract instead of at the client so users can immediately get a record of what tokens they own when they restore their wallet at a new client\n    // The tracking of ERC721 and ERC1155 are automatically established upon a token is transferred to this wallet. The tracking of ERC20 needs to be manually established by the client.\n    // The gas cost of tracking and untracking operations are of constant complexity. The gas cost is paid by the transferer in the case of automatically established tracking, and paid by the user in the case of manual tracking.\n    struct TrackedToken {\n        TokenType tokenType;\n        address contractAddress;\n        uint256 tokenId; // only valid for ERC721 and ERC1155\n    }\n\n    mapping(bytes32 => uint256[]) trackedTokenPositions; // keccak256(bytes.concat(byte32(uint(tokenType)), bytes32(contractAddress), bytes32(tokenId)) => positions in trackedTokens. Positions should be of length 1 except in very rare occasion of collision\n    TrackedToken[] trackedTokens;\n\n    constructor(){}\n\n    function onERC1155Received(\n        address operator,\n        address from,\n        uint256 id,\n        uint256 value,\n        bytes calldata data\n    ) external override returns (bytes4){\n        emit ReceivedToken(TokenType.ERC1155, value, from, msg.sender, operator, id, data);\n        _trackToken(TokenType.ERC1155, msg.sender, id);\n        return this.onERC1155Received.selector;\n    }\n\n    function onERC1155BatchReceived(address operator, address from, uint256[] calldata ids, uint256[] calldata values, bytes calldata data) external override returns (bytes4){\n        for (uint32 i = 0; i < ids.length; i++) {\n            this.onERC1155Received(operator, from, ids[i], values[i], data);\n        }\n        return this.onERC1155BatchReceived.selector;\n    }\n\n    function supportsInterface(bytes4 interfaceID) external override pure returns (bool) {\n        return interfaceID == this.supportsInterface.selector ||\n        interfaceID == this.onERC1155Received.selector ||\n        interfaceID == this.onERC721Received.selector;\n    }\n\n    // identical to ERC1155, except tracked only on ERC721 related data structures\n    function onERC721Received(\n        address operator,\n        address from,\n        uint256 tokenId,\n        bytes calldata data\n    ) external override returns (bytes4){\n        emit ReceivedToken(TokenType.ERC721, 1, from, msg.sender, operator, tokenId, data);\n        _trackToken(TokenType.ERC721, msg.sender, tokenId);\n        return this.onERC721Received.selector;\n    }\n\n    function getTrackedTokens() external view returns (TokenType[] memory, address[] memory, uint256[] memory){\n        TokenType[] memory tokenTypes = new TokenType[](trackedTokens.length);\n        address[] memory contractAddresses = new address[](trackedTokens.length);\n        uint256[] memory tokenIds = new uint256[](trackedTokens.length);\n        for (uint32 i = 0; i < trackedTokens.length; i++) {\n            tokenTypes[i] = trackedTokens[i].tokenType;\n            contractAddresses[i] = trackedTokens[i].contractAddress;\n            tokenIds[i] = trackedTokens[i].tokenId;\n        }\n        return (tokenTypes, contractAddresses, tokenIds);\n    }\n \n\n    function _trackToken(TokenType tokenType, address contractAddress, uint256 tokenId) internal {\n        bytes32 key = keccak256(bytes.concat(bytes32(uint256(tokenType)), bytes32(bytes20(contractAddress)), bytes32(tokenId)));\n        if (trackedTokenPositions[key].length > 0) {\n            for (uint32 i = 0; i < trackedTokenPositions[key].length; i++) {\n                uint256 j = trackedTokenPositions[key][i];\n                if (trackedTokens[j].tokenType != tokenType) continue;\n                if (trackedTokens[j].tokenId != tokenId) continue;\n                if (trackedTokens[j].contractAddress != contractAddress) continue;\n                // we found a token that is already tracked and is identical to the requested token\n                return;\n            }\n        }\n        TrackedToken memory tt = TrackedToken(tokenType, contractAddress, tokenId);\n        trackedTokenPositions[key].push(trackedTokens.length);\n        trackedTokens.push(tt);\n        emit TokenTracked(tokenType, contractAddress, tokenId);\n    }\n\n    function _untrackToken(TokenType tokenType, address contractAddress, uint256 tokenId) internal {\n        bytes32 key = keccak256(bytes.concat(bytes32(uint256(tokenType)), bytes32(bytes20(contractAddress)), bytes32(tokenId)));\n        if (trackedTokenPositions[key].length == 0) {\n            return;\n        }\n        for (uint32 i = 0; i < trackedTokenPositions[key].length; i++) {\n            uint256 j = trackedTokenPositions[key][i];\n            if (trackedTokens[j].tokenType != tokenType) continue;\n            if (trackedTokens[j].tokenId != tokenId) continue;\n            if (trackedTokens[j].contractAddress != contractAddress) continue;\n            // found our token\n            uint256 swappedPosition = trackedTokens.length - 1;\n            trackedTokens[j] = trackedTokens[swappedPosition];\n            bytes32 swappedKey = keccak256(bytes.concat(bytes32(uint256(trackedTokens[j].tokenType)), bytes32(bytes20(trackedTokens[j].contractAddress)), bytes32(trackedTokens[j].tokenId)));\n            trackedTokens.pop();\n            for (uint32 k = 0; k < trackedTokenPositions[swappedKey].length; k++) {\n                if (trackedTokenPositions[swappedKey][k] == swappedPosition) {\n                    trackedTokenPositions[swappedKey][k] = j;\n                }\n            }\n            trackedTokenPositions[key][j] = trackedTokenPositions[key][trackedTokenPositions[key].length - 1];\n            trackedTokenPositions[key].pop();\n            emit TokenUntracked(tokenType, contractAddress, tokenId);\n            return;\n        }\n        emit TokenNotFound(tokenType, contractAddress, tokenId);\n    }\n\n    function _overrideTrack(TrackedToken[] memory newTrackedTokens) internal {\n        for (uint32 i = 0; i < trackedTokens.length; i++) {\n            TokenType tokenType = trackedTokens[i].tokenType;\n            address contractAddress = trackedTokens[i].contractAddress;\n            uint256 tokenId = trackedTokens[i].tokenId;\n            bytes32 key = keccak256(bytes.concat(bytes32(uint256(tokenType)), bytes32(bytes20(contractAddress)), bytes32(tokenId)));\n            delete trackedTokenPositions[key];\n        }\n        delete trackedTokens;\n        for (uint32 i = 0; i < newTrackedTokens.length; i++) {\n            TokenType tokenType = newTrackedTokens[i].tokenType;\n            address contractAddress = newTrackedTokens[i].contractAddress;\n            uint256 tokenId = newTrackedTokens[i].tokenId;\n            bytes32 key = keccak256(bytes.concat(bytes32(uint256(tokenType)), bytes32(bytes20(contractAddress)), bytes32(tokenId)));\n            TrackedToken memory t = TrackedToken(tokenType, contractAddress, tokenId);\n            trackedTokens.push(t);\n            trackedTokenPositions[key].push(i);\n        }\n    }\n\n    function _overrideTrackWithBytes(bytes calldata data) internal {\n        uint32 numTokens = uint32(data.length / 96);\n        require(numTokens * 96 == data.length, \"data must have length multiple to 96\");\n        TrackedToken[] memory newTrackedTokens = new TrackedToken[](numTokens);\n        for (uint32 i = 0; i < numTokens; i++) {\n            TokenType tokenType = TokenType(uint256(_asByte32(data[i * 96 : i * 96 + 32])));\n            address contractAddress = address(bytes20(_asByte32(data[i * 96 + 32 : i * 96 + 52])));\n            uint256 tokenId = uint256(_asByte32(data[i * 96 + 64 : i * 96 + 96]));\n            newTrackedTokens[i] = TrackedToken(tokenType, contractAddress, tokenId);\n        }\n        _overrideTrack(newTrackedTokens);\n    }\n\n    function _multiTrack(bytes calldata data) internal {\n        uint32 numTokens = uint32(data.length / 96);\n        require(numTokens * 96 == data.length, \"data must have length multiple to 96\");\n        for (uint32 i = 0; i < numTokens; i++) {\n            TokenType tokenType = TokenType(uint256(_asByte32(data[i * 96 : i * 96 + 32])));\n            address contractAddress = address(bytes20(_asByte32(data[i * 96 + 32 : i * 96 + 52])));\n            uint256 tokenId = uint256(_asByte32(data[i * 96 + 64 : i * 96 + 96]));\n            _trackToken(tokenType, contractAddress, tokenId);\n        }\n    }\n\n    function _multiUntrack(bytes calldata data) internal {\n        uint32 numTokens = uint32(data.length / 96);\n        require(numTokens * 96 == data.length, \"data must have length multiple to 96\");\n        for (uint32 i = 0; i < numTokens; i++) {\n            TokenType tokenType = TokenType(uint256(_asByte32(data[i * 96 : i * 96 + 32])));\n            address contractAddress = address(bytes20(_asByte32(data[i * 96 + 32 : i * 96 + 52])));\n            uint256 tokenId = uint256(_asByte32(data[i * 96 + 64 : i * 96 + 96]));\n            _untrackToken(tokenType, contractAddress, tokenId);\n        }\n    }\n\n    function _asByte32(bytes memory b) pure internal returns (bytes32){\n        if (b.length == 0) {\n            return bytes32(0x0);\n        }\n        require(b.length <= 32, \"input bytes too long\");\n        bytes32 r;\n        uint8 len = uint8((32 - b.length) * 8);\n        assembly{\n            r := mload(add(b, 32))\n            r := shr(len, r)\n            r := shl(len, r)\n        }\n        return r;\n    }\n}\n",
  "sourcePath": "/Users/polymorpher/git/one-wallet/code/contracts/TokenTracker.sol",
  "compiler": {
    "name": "solc",
    "version": "0.8.4+commit.c7e474f2.Emscripten.clang"
  },
  "schemaVersion": "3.4.2",
  "updatedAt": "2021-08-10T21:16:08.547Z",
  "devdoc": {
    "kind": "dev",
    "methods": {
      "onERC1155BatchReceived(address,address,uint256[],uint256[],bytes)": {
        "details": "Handles the receipt of a multiple ERC1155 token types. This function is called at the end of a `safeBatchTransferFrom` after the balances have been updated. To accept the transfer(s), this must return `bytes4(keccak256(\"onERC1155BatchReceived(address,address,uint256[],uint256[],bytes)\"))` (i.e. 0xbc197c81, or its own function selector).",
        "params": {
          "data": "Additional data with no specified format",
          "from": "The address which previously owned the token",
          "ids": "An array containing ids of each token being transferred (order and length must match values array)",
          "operator": "The address which initiated the batch transfer (i.e. msg.sender)",
          "values": "An array containing amounts of each token being transferred (order and length must match ids array)"
        },
        "returns": {
          "_0": "`bytes4(keccak256(\"onERC1155BatchReceived(address,address,uint256[],uint256[],bytes)\"))` if transfer is allowed"
        }
      },
      "onERC1155Received(address,address,uint256,uint256,bytes)": {
        "details": "Handles the receipt of a single ERC1155 token type. This function is called at the end of a `safeTransferFrom` after the balance has been updated. To accept the transfer, this must return `bytes4(keccak256(\"onERC1155Received(address,address,uint256,uint256,bytes)\"))` (i.e. 0xf23a6e61, or its own function selector).",
        "params": {
          "data": "Additional data with no specified format",
          "from": "The address which previously owned the token",
          "id": "The ID of the token being transferred",
          "operator": "The address which initiated the transfer (i.e. msg.sender)",
          "value": "The amount of tokens being transferred"
        },
        "returns": {
          "_0": "`bytes4(keccak256(\"onERC1155Received(address,address,uint256,uint256,bytes)\"))` if transfer is allowed"
        }
      },
      "onERC721Received(address,address,uint256,bytes)": {
        "details": "Whenever an {IERC721} `tokenId` token is transferred to this contract via {IERC721-safeTransferFrom} by `operator` from `from`, this function is called. It must return its Solidity selector to confirm the token transfer. If any other value is returned or the interface is not implemented by the recipient, the transfer will be reverted. The selector can be obtained in Solidity with `IERC721.onERC721Received.selector`."
      }
    },
    "version": 1
  },
  "userdoc": {
    "kind": "user",
    "methods": {},
    "version": 1
  }
}