{
  "contractName": "TokenTracker",
  "abi": [
    {
      "anonymous": false,
      "inputs": [
        {
          "indexed": false,
          "internalType": "enum Enums.TokenType",
          "name": "tokenType",
          "type": "uint8"
        },
        {
          "indexed": false,
          "internalType": "address",
          "name": "contractAddress",
          "type": "address"
        },
        {
          "indexed": false,
          "internalType": "uint256",
          "name": "tokenId",
          "type": "uint256"
        },
        {
          "indexed": false,
          "internalType": "string",
          "name": "reason",
          "type": "string"
        }
      ],
      "name": "BalanceRetrievalError",
      "type": "event"
    },
    {
      "anonymous": false,
      "inputs": [
        {
          "indexed": false,
          "internalType": "enum Enums.TokenType",
          "name": "tokenType",
          "type": "uint8"
        },
        {
          "indexed": false,
          "internalType": "address",
          "name": "contractAddress",
          "type": "address"
        },
        {
          "indexed": false,
          "internalType": "uint256",
          "name": "tokenId",
          "type": "uint256"
        }
      ],
      "name": "TokenNotFound",
      "type": "event"
    },
    {
      "anonymous": false,
      "inputs": [
        {
          "indexed": false,
          "internalType": "enum Enums.TokenType",
          "name": "tokenType",
          "type": "uint8"
        },
        {
          "indexed": false,
          "internalType": "address",
          "name": "contractAddress",
          "type": "address"
        },
        {
          "indexed": false,
          "internalType": "uint256",
          "name": "tokenId",
          "type": "uint256"
        },
        {
          "indexed": false,
          "internalType": "uint256",
          "name": "balance",
          "type": "uint256"
        }
      ],
      "name": "TokenRecovered",
      "type": "event"
    },
    {
      "anonymous": false,
      "inputs": [
        {
          "indexed": false,
          "internalType": "enum Enums.TokenType",
          "name": "tokenType",
          "type": "uint8"
        },
        {
          "indexed": false,
          "internalType": "address",
          "name": "contractAddress",
          "type": "address"
        },
        {
          "indexed": false,
          "internalType": "uint256",
          "name": "tokenId",
          "type": "uint256"
        }
      ],
      "name": "TokenTracked",
      "type": "event"
    },
    {
      "anonymous": false,
      "inputs": [
        {
          "indexed": false,
          "internalType": "enum Enums.TokenType",
          "name": "tokenType",
          "type": "uint8"
        },
        {
          "indexed": false,
          "internalType": "address",
          "name": "contractAddress",
          "type": "address"
        },
        {
          "indexed": false,
          "internalType": "uint256",
          "name": "tokenId",
          "type": "uint256"
        },
        {
          "indexed": false,
          "internalType": "address",
          "name": "dest",
          "type": "address"
        },
        {
          "indexed": false,
          "internalType": "uint256",
          "name": "amount",
          "type": "uint256"
        },
        {
          "indexed": false,
          "internalType": "string",
          "name": "reason",
          "type": "string"
        }
      ],
      "name": "TokenTransferError",
      "type": "event"
    },
    {
      "anonymous": false,
      "inputs": [
        {
          "indexed": false,
          "internalType": "enum Enums.TokenType",
          "name": "tokenType",
          "type": "uint8"
        },
        {
          "indexed": false,
          "internalType": "address",
          "name": "contractAddress",
          "type": "address"
        },
        {
          "indexed": false,
          "internalType": "uint256",
          "name": "tokenId",
          "type": "uint256"
        },
        {
          "indexed": false,
          "internalType": "address",
          "name": "dest",
          "type": "address"
        },
        {
          "indexed": false,
          "internalType": "uint256",
          "name": "amount",
          "type": "uint256"
        }
      ],
      "name": "TokenTransferFailed",
      "type": "event"
    },
    {
      "anonymous": false,
      "inputs": [
        {
          "indexed": false,
          "internalType": "enum Enums.TokenType",
          "name": "tokenType",
          "type": "uint8"
        },
        {
          "indexed": false,
          "internalType": "address",
          "name": "contractAddress",
          "type": "address"
        },
        {
          "indexed": false,
          "internalType": "uint256",
          "name": "tokenId",
          "type": "uint256"
        },
        {
          "indexed": false,
          "internalType": "address",
          "name": "dest",
          "type": "address"
        },
        {
          "indexed": false,
          "internalType": "uint256",
          "name": "amount",
          "type": "uint256"
        }
      ],
      "name": "TokenTransferSucceeded",
      "type": "event"
    },
    {
      "anonymous": false,
      "inputs": [
        {
          "indexed": false,
          "internalType": "enum Enums.TokenType",
          "name": "tokenType",
          "type": "uint8"
        },
        {
          "indexed": false,
          "internalType": "address",
          "name": "contractAddress",
          "type": "address"
        },
        {
          "indexed": false,
          "internalType": "uint256",
          "name": "tokenId",
          "type": "uint256"
        }
      ],
      "name": "TokenUntracked",
      "type": "event"
    },
    {
      "inputs": [
        {
          "internalType": "enum Enums.TokenType",
          "name": "tokenType",
          "type": "Enums.TokenType"
        },
        {
          "internalType": "address",
          "name": "contractAddress",
          "type": "address"
        },
        {
          "internalType": "uint256",
          "name": "tokenId",
          "type": "uint256"
        }
      ],
      "name": "getBalance",
      "outputs": [
        {
          "internalType": "uint256",
          "name": "",
          "type": "uint256"
        },
        {
          "internalType": "bool",
          "name": "success",
          "type": "bool"
        },
        {
          "internalType": "string",
          "name": "",
          "type": "string"
        }
      ],
      "stateMutability": "view",
      "type": "function"
    }
  ],
  "bytecode": "0x61262c61003a600b82828239805160001a60731461002d57634e487b7160e01b600052600060045260246000fd5b30600052607381538281f3fe73000000000000000000000000000000000000000030146080604052600436106100b35760003560e01c80637af6e6191161007b5780637af6e61914610165578063a441793b14610185578063aaf60473146101a5578063c841a9db146101c5578063e8586224146101e5578063f1addb9c1461020557600080fd5b806322a5a565146100b8578063274d96d8146100da57806347159417146100fa5780636489a8db1461011a5780637625993a14610145575b600080fd5b8180156100c457600080fd5b506100d86100d3366004611f75565b610225565b005b8180156100e657600080fd5b506100d86100f53660046120f9565b61034d565b81801561010657600080fd5b506100d8610115366004612082565b610694565b61012d610128366004611ebb565b610789565b60405161013c93929190612437565b60405180910390f35b81801561015157600080fd5b506100d8610160366004612082565b610a2a565b81801561017157600080fd5b506100d8610180366004612082565b610c02565b81801561019157600080fd5b506100d86101a03660046120f9565b610cee565b8180156101b157600080fd5b506100d86101c0366004611ef9565b611343565b8180156101d157600080fd5b506100d86101e036600461213e565b6113ad565b8180156101f157600080fd5b506100d8610200366004611f9b565b61172b565b81801561021157600080fd5b506100d8610220366004611f28565b611ac5565b80546001820154600091829182916102509160ff82169161010090046001600160a01b031690610789565b925092509250816102b057835460018501546040517fdd42b2d608f4c9bed2c43d049f441dac9098f3f74f843f9242f3ab9b9852f2bf926102a79260ff8216926101009092046001600160a01b03169186906123d1565b60405180910390a15b821561034557835460018501546040805160208101909152600081526102f092899260ff8216926101009092046001600160a01b0316918a9089906113ad565b835460018501546040517ff55f4f66ca397ce834b2245859167c6912466e110505839852dbb803c0c046539261033c9260ff8216926101009092046001600160a01b0316918890612405565b60405180910390a15b505050505050565b600083600381111561036f57634e487b7160e01b600052602160045260246000fd5b604080516020810192909252606085811b6001600160601b03191691830191909152810183905260800160408051601f198184030181529181528151602092830120600081815260018901909352912054909150156105615760005b600082815260018701602052604090205463ffffffff8216101561055f5760008281526001870160205260408120805463ffffffff841690811061041f57634e487b7160e01b600052603260045260246000fd5b9060005260206000200154905085600381111561044c57634e487b7160e01b600052602160045260246000fd5b87600001828154811061046f57634e487b7160e01b600052603260045260246000fd5b600091825260209091206002909102015460ff1660038111156104a257634e487b7160e01b600052602160045260246000fd5b146104ad575061054d565b838760000182815481106104d157634e487b7160e01b600052603260045260246000fd5b906000526020600020906002020160010154146104ee575061054d565b846001600160a01b031687600001828154811061051b57634e487b7160e01b600052603260045260246000fd5b600091825260209091206002909102015461010090046001600160a01b031614610545575061054d565b50505061068e565b80610557816124ef565b9150506103cb565b505b600081815260018087016020908152604080842089548154948501825590855291909320909101558051606081019091528590808660038111156105b557634e487b7160e01b600052602160045260246000fd5b81526001600160a01b038616602080830191909152604090910185905282546001818101855560009485529190932082516002909402018054929390929091839160ff19169083600381111561061b57634e487b7160e01b600052602160045260246000fd5b0217905550602082015181546001600160a01b0390911661010002610100600160a81b0319909116178155604091820151600190910155517f7e1890e95e59ca252ad98a9bbeeb8c7f6ce5269f06ecb4f0cb5ebcee5770c2a290610684908690869086906122d3565b60405180910390a1505b50505050565b600080806106a484860186611cfe565b92509250925060005b83518163ffffffff1610156107805761076e87858363ffffffff16815181106106e657634e487b7160e01b600052603260045260246000fd5b6020026020010151600381111561070d57634e487b7160e01b600052602160045260246000fd5b858463ffffffff168151811061073357634e487b7160e01b600052603260045260246000fd5b6020026020010151858563ffffffff168151811061076157634e487b7160e01b600052603260045260246000fd5b602002602001015161034d565b80610778816124ef565b9150506106ad565b50505050505050565b6000806060818660038111156107af57634e487b7160e01b600052602160045260246000fd5b14156108a9576040516370a0823160e01b81523060048201526001600160a01b038616906370a08231906024015b60206040518083038186803b1580156107f557600080fd5b505afa925050508015610825575060408051601f3d908101601f19168201909252610822918101906121cc565b60015b61088c5761083161253f565b806308c379a0141561085f5750610846612557565b806108515750610861565b600093508392509050610a21565b505b50506040805180820190915260078152662ab735b737bbb760c91b6020820152600091508190610a21565b604080516020810190915260008152909350600192509050610a21565b60018660038111156108cb57634e487b7160e01b600052602160045260246000fd5b14156109a0576040516331a9108f60e11b8152600481018590526001600160a01b03861690636352211e9060240160206040518083038186803b15801561091157600080fd5b505afa925050508015610941575060408051601f3d908101601f1916820190925261093e91810190611cdb565b60015b61094d5761083161253f565b6001600160a01b0381163014801561097f57600180604051806020016040528060008152509450945094505050610a21565b60006001604051806020016040528060008152509450945094505050610a21565b60028660038111156109c257634e487b7160e01b600052602160045260246000fd5b14156109f957604051627eeac760e11b8152306004820152602481018590526001600160a01b0386169062fdd58e906044016107dd565b5050604080518082019091526008815267426164207479706560c01b60208201526000915081905b93509350939050565b60008080610a3a84860186611cfe565b9250925092506000835167ffffffffffffffff811115610a6a57634e487b7160e01b600052604160045260246000fd5b604051908082528060200260200182016040528015610ab557816020015b6040805160608101825260008082526020808301829052928201528252600019909201910181610a885790505b50905060005b84518163ffffffff161015610bf7576040518060600160405280868363ffffffff1681518110610afb57634e487b7160e01b600052603260045260246000fd5b60200260200101516003811115610b2257634e487b7160e01b600052602160045260246000fd5b6003811115610b4157634e487b7160e01b600052602160045260246000fd5b8152602001858363ffffffff1681518110610b6c57634e487b7160e01b600052603260045260246000fd5b60200260200101516001600160a01b03168152602001848363ffffffff1681518110610ba857634e487b7160e01b600052603260045260246000fd5b6020026020010151815250828263ffffffff1681518110610bd957634e487b7160e01b600052603260045260246000fd5b60200260200101819052508080610bef906124ef565b915050610abb565b50610780878261172b565b60008080610c1284860186611cfe565b92509250925060005b83518163ffffffff16101561078057610cdc87858363ffffffff1681518110610c5457634e487b7160e01b600052603260045260246000fd5b60200260200101516003811115610c7b57634e487b7160e01b600052602160045260246000fd5b858463ffffffff1681518110610ca157634e487b7160e01b600052603260045260246000fd5b6020026020010151858563ffffffff1681518110610ccf57634e487b7160e01b600052603260045260246000fd5b6020026020010151610cee565b80610ce6816124ef565b915050610c1b565b6000836003811115610d1057634e487b7160e01b600052602160045260246000fd5b604080516020810192909252606085811b6001600160601b03191691830191909152810183905260800160408051601f198184030181529181528151602092830120600081815260018901909352912054909150610d6e575061068e565b60005b600082815260018701602052604090205463ffffffff8216101561130f5760008281526001870160205260408120805463ffffffff8416908110610dc557634e487b7160e01b600052603260045260246000fd5b90600052602060002001549050856003811115610df257634e487b7160e01b600052602160045260246000fd5b876000018281548110610e1557634e487b7160e01b600052603260045260246000fd5b600091825260209091206002909102015460ff166003811115610e4857634e487b7160e01b600052602160045260246000fd5b14610e5357506112fd565b83876000018281548110610e7757634e487b7160e01b600052603260045260246000fd5b90600052602060002090600202016001015414610e9457506112fd565b846001600160a01b0316876000018281548110610ec157634e487b7160e01b600052603260045260246000fd5b600091825260209091206002909102015461010090046001600160a01b031614610eeb57506112fd565b8654600090610efc90600190612485565b9050876000018181548110610f2157634e487b7160e01b600052603260045260246000fd5b9060005260206000209060020201886000018381548110610f5257634e487b7160e01b600052603260045260246000fd5b6000918252602090912082546002909202018054909160ff1690829060ff19166001836003811115610f9457634e487b7160e01b600052602160045260246000fd5b021790555081548154610100600160a81b031916610100918290046001600160a01b03169091021781556001918201549101558754600090899084908110610fec57634e487b7160e01b600052603260045260246000fd5b600091825260209091206002909102015460ff16600381111561101f57634e487b7160e01b600052602160045260246000fd5b89548a908590811061104157634e487b7160e01b600052603260045260246000fd5b60009182526020909120600290910201548a5461010090910460601b6001600160601b031916908b908690811061108857634e487b7160e01b600052603260045260246000fd5b90600052602060002090600202016001015460001b6040516020016110c0939291909283526020830191909152604082015260600190565b604051602081830303815290604052805190602001209050886000018054806110f957634e487b7160e01b600052603160045260246000fd5b60008281526020812060026000199093019283020180546001600160a81b031916815560010181905591555b600082815260018b01602052604090205463ffffffff821610156111e557600082815260018b0160205260409020805484919063ffffffff841690811061117c57634e487b7160e01b600052603260045260246000fd5b906000526020600020015414156111d357600082815260018b0160205260409020805485919063ffffffff84169081106111c657634e487b7160e01b600052603260045260246000fd5b6000918252602090912001555b806111dd816124ef565b915050611125565b5060008581526001808b0160205260409091208054909161120591612485565b8154811061122357634e487b7160e01b600052603260045260246000fd5b9060005260206000200154896001016000878152602001908152602001600020848154811061126257634e487b7160e01b600052603260045260246000fd5b90600052602060002001819055508860010160008681526020019081526020016000208054806112a257634e487b7160e01b600052603160045260246000fd5b600190038181906000526020600020016000905590557f166bc904e3b7f8699e175923a2635944dd9ac0dc817927aac60d854d23a82b9b8888886040516112eb939291906122d3565b60405180910390a1505050505061068e565b80611307816124ef565b915050610d71565b507ffc773cf3883ef83133327fbc62fe0a7c3c96add34a1781cae66ba5de7efa3f5f848484604051610684939291906122d3565b60005b825463ffffffff821610156113a8576113968383856000018463ffffffff168154811061138357634e487b7160e01b600052603260045260246000fd5b9060005260206000209060020201610225565b806113a0816124ef565b915050611346565b505050565b60008660038111156113cf57634e487b7160e01b600052602160045260246000fd5b14156115885760405163a9059cbb60e01b81526001600160a01b0384811660048301526024820184905286169063a9059cbb90604401602060405180830381600087803b15801561141f57600080fd5b505af192505050801561144f575060408051601f3d908101601f1916820190925261144c91810190611e9b565b60015b6115085761145b61253f565b806308c379a014156114c25750611470612557565b8061147b57506114c4565b7fb2c309e26e7b2de22ddccb000bdb486012c32f2d701ded2884bad91974065cba8787878787866040516114b496959493929190612336565b60405180910390a150610780565b505b7fb2c309e26e7b2de22ddccb000bdb486012c32f2d701ded2884bad91974065cba86868686866040516114fb959493929190612389565b60405180910390a1610780565b80156115515761151a8888888861034d565b7f1b7af2671454aac8f59a0b294dd30d582e2df89a6efef446afd125b268795b3187878787876040516114b49594939291906122fb565b7f75a36803468aca74d964b22522480470a7a3f2121daa5994c2a937aec85d232987878787876040516114b49594939291906122fb565b60018660038111156115aa57634e487b7160e01b600052602160045260246000fd5b141561165057604051635c46a7ef60e11b81526001600160a01b0386169063b88d4fde906115e2903090879089908790600401612251565b600060405180830381600087803b1580156115fc57600080fd5b505af192505050801561160d575060015b6116195761145b61253f565b7f1b7af2671454aac8f59a0b294dd30d582e2df89a6efef446afd125b268795b3186868686866040516114fb9594939291906122fb565b600286600381111561167257634e487b7160e01b600052602160045260246000fd5b141561078057604051637921219560e11b81526001600160a01b0386169063f242432a906116ac903090879089908890889060040161228e565b600060405180830381600087803b1580156116c657600080fd5b505af19250505080156116d7575060015b6116e35761145b61253f565b7f1b7af2671454aac8f59a0b294dd30d582e2df89a6efef446afd125b268795b31868686868660405161171a9594939291906122fb565b60405180910390a150505050505050565b60005b825463ffffffff8216101561189b576000836000018263ffffffff168154811061176857634e487b7160e01b600052603260045260246000fd5b60009182526020822060029091020154855460ff9091169250859063ffffffff85169081106117a757634e487b7160e01b600052603260045260246000fd5b600091825260208220600291909102015486546101009091046001600160a01b03169250869063ffffffff86169081106117f157634e487b7160e01b600052603260045260246000fd5b9060005260206000209060020201600101549050600083600381111561182757634e487b7160e01b600052602160045260246000fd5b604080516020810192909252606085811b6001600160601b03191691830191909152810183905260800160408051601f198184030181529181528151602092830120600081815260018b0190935290822090925061188491611b63565b505050508080611893906124ef565b91505061172e565b506118a7826000611b84565b60005b81518163ffffffff1610156113a8576000828263ffffffff16815181106118e157634e487b7160e01b600052603260045260246000fd5b60200260200101516000015190506000838363ffffffff168151811061191757634e487b7160e01b600052603260045260246000fd5b60200260200101516020015190506000848463ffffffff168151811061194d57634e487b7160e01b600052603260045260246000fd5b6020026020010151604001519050600083600381111561197d57634e487b7160e01b600052602160045260246000fd5b604080516020810192909252606085811b6001600160601b0319169183019190915281018390526080016040516020818303038152906040528051906020012090508660000160405180606001604052808660038111156119ee57634e487b7160e01b600052602160045260246000fd5b81526001600160a01b038616602080830191909152604090910185905282546001818101855560009485529190932082516002909402018054929390929091839160ff191690836003811115611a5457634e487b7160e01b600052602160045260246000fd5b021790555060208281015182546001600160a01b0390911661010002610100600160a81b031990911617825560409283015160019283015560009384528982018152918320805491820181558352912063ffffffff861691015550829150611abd9050816124ef565b9150506118aa565b600081806020019051810190611adb9190611ded565b905060005b81518163ffffffff161015611b5c57611b4a858587600001858563ffffffff1681518110611b1e57634e487b7160e01b600052603260045260246000fd5b602002602001015163ffffffff168154811061138357634e487b7160e01b600052603260045260246000fd5b80611b54816124ef565b915050611ae0565b5050505050565b5080546000825590600052602060002090810190611b819190611ba5565b50565b5080546000825560020290600052602060002090810190611b819190611bbe565b5b80821115611bba5760008155600101611ba6565b5090565b5b80821115611bba5780546001600160a81b031916815560006001820155600201611bbf565b600082601f830112611bf4578081fd5b81356020611c0182612461565b604051611c0e82826124c2565b8381528281019150858301600585901b87018401881015611c2d578586fd5b855b85811015611c4b57813584529284019290840190600101611c2f565b5090979650505050505050565b600082601f830112611c68578081fd5b813567ffffffffffffffff811115611c8257611c82612529565b604051611c99601f8301601f1916602001826124c2565b818152846020838601011115611cad578283fd5b816020850160208301379081016020019190915292915050565b803560048110611cd657600080fd5b919050565b600060208284031215611cec578081fd5b8151611cf7816125e1565b9392505050565b600080600060608486031215611d12578182fd5b833567ffffffffffffffff80821115611d29578384fd5b611d3587838801611be4565b9450602091508186013581811115611d4b578485fd5b8601601f81018813611d5b578485fd5b8035611d6681612461565b604051611d7382826124c2565b8281528581019150838601600584901b850187018c1015611d92578889fd5b8894505b83851015611dbd578035611da9816125e1565b835260019490940193918601918601611d96565b5096505050506040860135915080821115611dd6578283fd5b50611de386828701611be4565b9150509250925092565b60006020808385031215611dff578182fd5b825167ffffffffffffffff811115611e15578283fd5b8301601f81018513611e25578283fd5b8051611e3081612461565b604051611e3d82826124c2565b8281528481019150838501600584901b85018601891015611e5c578687fd5b8694505b83851015611e8f57805163ffffffff81168114611e7b578788fd5b835260019490940193918501918501611e60565b50979650505050505050565b600060208284031215611eac578081fd5b81518015158114611cf7578182fd5b600080600060608486031215611ecf578081fd5b611ed884611cc7565b92506020840135611ee8816125e1565b929592945050506040919091013590565b60008060408385031215611f0b578182fd5b823591506020830135611f1d816125e1565b809150509250929050565b600080600060608486031215611f3c578081fd5b833592506020840135611f4e816125e1565b9150604084013567ffffffffffffffff811115611f69578182fd5b611de386828701611c58565b600080600060608486031215611f89578081fd5b833592506020840135611ee8816125e1565b6000806040808486031215611fae578283fd5b8335925060208085013567ffffffffffffffff811115611fcc578384fd5b8501601f81018713611fdc578384fd5b8035611fe781612461565b8451611ff382826124c2565b82815284810191508385016060808502860187018c1015612012578889fd5b8895505b848610156120715780828d03121561202c578889fd5b87516120378161249c565b61204083611cc7565b81528783013561204f816125e1565b8189015282890135898201528452600195909501949286019290810190612016565b50979a909950975050505050505050565b600080600060408486031215612096578081fd5b83359250602084013567ffffffffffffffff808211156120b4578283fd5b818601915086601f8301126120c7578283fd5b8135818111156120d5578384fd5b8760208285010111156120e6578384fd5b6020830194508093505050509250925092565b6000806000806080858703121561210e578182fd5b8435935061211e60208601611cc7565b9250604085013561212e816125e1565b9396929550929360600135925050565b600080600080600080600060e0888a031215612158578485fd5b8735965061216860208901611cc7565b95506040880135612178816125e1565b945060608801359350608088013561218f816125e1565b925060a0880135915060c088013567ffffffffffffffff8111156121b1578182fd5b6121bd8a828b01611c58565b91505092959891949750929550565b6000602082840312156121dd578081fd5b5051919050565b60008151808452815b81811015612209576020818501810151868301820152016121ed565b8181111561221a5782602083870101525b50601f01601f19169290920160200192915050565b6004811061224d57634e487b7160e01b600052602160045260246000fd5b9052565b6001600160a01b0385811682528416602082015260408101839052608060608201819052600090612284908301846121e4565b9695505050505050565b6001600160a01b03868116825285166020820152604081018490526060810183905260a0608082018190526000906122c8908301846121e4565b979650505050505050565b606081016122e1828661222f565b6001600160a01b0393909316602082015260400152919050565b60a08101612309828861222f565b6001600160a01b039586166020830152604082019490945291909316606082015260800191909152919050565b612340818861222f565b6001600160a01b03868116602083015260408201869052841660608201526080810183905260c060a0820181905260009061237d908301846121e4565b98975050505050505050565b612393818761222f565b6001600160a01b039485166020820152604081019390935292166060820152608081019190915260c060a0820181905260009082015260e001919050565b6123db818661222f565b60018060a01b038416602082015282604082015260806060820152600061228460808301846121e4565b60808101612413828761222f565b6001600160a01b039490941660208201526040810192909252606090910152919050565b838152821515602082015260606040820152600061245860608301846121e4565b95945050505050565b600067ffffffffffffffff82111561247b5761247b612529565b5060051b60200190565b60008282101561249757612497612513565b500390565b6060810181811067ffffffffffffffff821117156124bc576124bc612529565b60405250565b601f8201601f1916810167ffffffffffffffff811182821017156124e8576124e8612529565b6040525050565b600063ffffffff8083168181141561250957612509612513565b6001019392505050565b634e487b7160e01b600052601160045260246000fd5b634e487b7160e01b600052604160045260246000fd5b600060033d111561255457600481823e5160e01c5b90565b600060443d10156125655790565b6040516003193d81016004833e81513d67ffffffffffffffff816024840111818411171561259557505050505090565b82850191508151818111156125ad5750505050505090565b843d87010160208285010111156125c75750505050505090565b6125d6602082860101876124c2565b509095945050505050565b6001600160a01b0381168114611b8157600080fdfea26469706673582212205eefda943262c34508e7ad698661b05aa8411e521480ad48a3b1b8ede84024ee64736f6c63430008040033",
  "immutableReferences": {},
  "source": "// SPDX-License-Identifier: Apache-2.0\npragma solidity ^0.8.4;\n\nimport \"./Enums.sol\";\nimport \"@openzeppelin/contracts/token/ERC20/IERC20.sol\";\nimport \"@openzeppelin/contracts/token/ERC721/IERC721.sol\";\nimport \"@openzeppelin/contracts/token/ERC1155/IERC1155.sol\";\n\nlibrary TokenTracker {\n    event TokenTransferFailed(Enums.TokenType tokenType, address contractAddress, uint256 tokenId, address dest, uint256 amount);\n    event TokenTransferError(Enums.TokenType tokenType, address contractAddress, uint256 tokenId, address dest, uint256 amount, string reason);\n    event TokenTransferSucceeded(Enums.TokenType tokenType, address contractAddress, uint256 tokenId, address dest, uint256 amount);\n    event TokenRecovered(Enums.TokenType tokenType, address contractAddress, uint256 tokenId, uint256 balance);\n    event BalanceRetrievalError(Enums.TokenType tokenType, address contractAddress, uint256 tokenId, string reason);\n\n    struct TrackedToken {\n        Enums.TokenType tokenType;\n        address contractAddress;\n        uint256 tokenId; // only valid for ERC721 and ERC1155\n    }\n\n    struct TokenTrackerState {\n        TrackedToken[] trackedTokens;\n        mapping(bytes32 => uint256[]) trackedTokenPositions;\n    }\n\n    event TokenTracked(Enums.TokenType tokenType, address contractAddress, uint256 tokenId);\n    event TokenUntracked(Enums.TokenType tokenType, address contractAddress, uint256 tokenId);\n    event TokenNotFound(Enums.TokenType tokenType, address contractAddress, uint256 tokenId);\n\n    function trackToken(TokenTrackerState storage state, Enums.TokenType tokenType, address contractAddress, uint256 tokenId) public {\n        bytes32 key = keccak256(bytes.concat(bytes32(uint256(tokenType)), bytes32(bytes20(contractAddress)), bytes32(tokenId)));\n        if (state.trackedTokenPositions[key].length > 0) {\n            for (uint32 i = 0; i < state.trackedTokenPositions[key].length; i++) {\n                uint256 j = state.trackedTokenPositions[key][i];\n                if (state.trackedTokens[j].tokenType != tokenType) continue;\n                if (state.trackedTokens[j].tokenId != tokenId) continue;\n                if (state.trackedTokens[j].contractAddress != contractAddress) continue;\n                // we found a token that is already tracked and is identical to the requested token\n                return;\n            }\n        }\n        state.trackedTokenPositions[key].push(state.trackedTokens.length);\n        state.trackedTokens.push(TrackedToken(tokenType, contractAddress, tokenId));\n        emit TokenTracked(tokenType, contractAddress, tokenId);\n    }\n\n    function untrackToken(TokenTrackerState storage state, Enums.TokenType tokenType, address contractAddress, uint256 tokenId) public {\n        bytes32 key = keccak256(bytes.concat(bytes32(uint256(tokenType)), bytes32(bytes20(contractAddress)), bytes32(tokenId)));\n        if (state.trackedTokenPositions[key].length == 0) {\n            return;\n        }\n        for (uint32 i = 0; i < state.trackedTokenPositions[key].length; i++) {\n            uint256 j = state.trackedTokenPositions[key][i];\n            if (state.trackedTokens[j].tokenType != tokenType) continue;\n            if (state.trackedTokens[j].tokenId != tokenId) continue;\n            if (state.trackedTokens[j].contractAddress != contractAddress) continue;\n            // found our token\n            uint256 swappedPosition = state.trackedTokens.length - 1;\n            state.trackedTokens[j] = state.trackedTokens[swappedPosition];\n            bytes32 swappedKey = keccak256(bytes.concat(bytes32(uint256(state.trackedTokens[j].tokenType)), bytes32(bytes20(state.trackedTokens[j].contractAddress)), bytes32(state.trackedTokens[j].tokenId)));\n            state.trackedTokens.pop();\n            for (uint32 k = 0; k < state.trackedTokenPositions[swappedKey].length; k++) {\n                if (state.trackedTokenPositions[swappedKey][k] == swappedPosition) {\n                    state.trackedTokenPositions[swappedKey][k] = j;\n                }\n            }\n            state.trackedTokenPositions[key][j] = state.trackedTokenPositions[key][state.trackedTokenPositions[key].length - 1];\n            state.trackedTokenPositions[key].pop();\n            emit TokenUntracked(tokenType, contractAddress, tokenId);\n            return;\n        }\n        emit TokenNotFound(tokenType, contractAddress, tokenId);\n    }\n\n    function overrideTrack(TokenTrackerState storage state, TrackedToken[] memory newTrackedTokens) public {\n        for (uint32 i = 0; i < state.trackedTokens.length; i++) {\n            Enums.TokenType tokenType = state.trackedTokens[i].tokenType;\n            address contractAddress = state.trackedTokens[i].contractAddress;\n            uint256 tokenId = state.trackedTokens[i].tokenId;\n            bytes32 key = keccak256(bytes.concat(bytes32(uint256(tokenType)), bytes32(bytes20(contractAddress)), bytes32(tokenId)));\n            delete state.trackedTokenPositions[key];\n        }\n        delete state.trackedTokens;\n        for (uint32 i = 0; i < newTrackedTokens.length; i++) {\n            Enums.TokenType tokenType = newTrackedTokens[i].tokenType;\n            address contractAddress = newTrackedTokens[i].contractAddress;\n            uint256 tokenId = newTrackedTokens[i].tokenId;\n            bytes32 key = keccak256(bytes.concat(bytes32(uint256(tokenType)), bytes32(bytes20(contractAddress)), bytes32(tokenId)));\n            state.trackedTokens.push(TrackedToken(tokenType, contractAddress, tokenId));\n            state.trackedTokenPositions[key].push(i);\n        }\n    }\n\n    function overrideTrackWithBytes(TokenTrackerState storage state, bytes calldata data) public {\n        (uint256[] memory tokenTypes, address[] memory contractAddresses, uint256[] memory tokenIds) = abi.decode(data, (uint256[], address[], uint256[]));\n        TrackedToken[] memory newTrackedTokens = new TrackedToken[](tokenTypes.length);\n        for (uint32 i = 0; i < tokenTypes.length; i++) {\n            newTrackedTokens[i] = TrackedToken(Enums.TokenType(tokenTypes[i]), contractAddresses[i], tokenIds[i]);\n        }\n        overrideTrack(state, newTrackedTokens);\n    }\n\n    function multiTrack(TokenTrackerState storage state, bytes calldata data) public {\n        (uint256[] memory tokenTypes, address[] memory contractAddresses, uint256[] memory tokenIds) = abi.decode(data, (uint256[], address[], uint256[]));\n        for (uint32 i = 0; i < tokenTypes.length; i++) {\n            trackToken(state, Enums.TokenType(tokenTypes[i]), contractAddresses[i], tokenIds[i]);\n        }\n    }\n\n    function multiUntrack(TokenTrackerState storage state, bytes calldata data) public {\n        (uint256[] memory tokenTypes, address[] memory contractAddresses, uint256[] memory tokenIds) = abi.decode(data, (uint256[], address[], uint256[]));\n        for (uint32 i = 0; i < tokenTypes.length; i++) {\n            untrackToken(state, Enums.TokenType(tokenTypes[i]), contractAddresses[i], tokenIds[i]);\n        }\n    }\n\n    function transferToken(TokenTrackerState storage state, Enums.TokenType tokenType, address contractAddress, uint256 tokenId, address dest, uint256 amount, bytes memory data) public {\n        if (tokenType == Enums.TokenType.ERC20) {\n            try IERC20(contractAddress).transfer(dest, amount) returns (bool success){\n                if (success) {\n                    trackToken(state, tokenType, contractAddress, tokenId);\n                    emit TokenTransferSucceeded(tokenType, contractAddress, tokenId, dest, amount);\n                    return;\n                }\n                emit TokenTransferFailed(tokenType, contractAddress, tokenId, dest, amount);\n            } catch Error(string memory reason){\n                emit TokenTransferError(tokenType, contractAddress, tokenId, dest, amount, reason);\n            } catch {\n                emit TokenTransferError(tokenType, contractAddress, tokenId, dest, amount, \"\");\n            }\n        } else if (tokenType == Enums.TokenType.ERC721) {\n            try IERC721(contractAddress).safeTransferFrom(address(this), dest, tokenId, data){\n                emit TokenTransferSucceeded(tokenType, contractAddress, tokenId, dest, amount);\n            } catch Error(string memory reason){\n                emit TokenTransferError(tokenType, contractAddress, tokenId, dest, amount, reason);\n            } catch {\n                emit TokenTransferError(tokenType, contractAddress, tokenId, dest, amount, \"\");\n            }\n        } else if (tokenType == Enums.TokenType.ERC1155) {\n            try IERC1155(contractAddress).safeTransferFrom(address(this), dest, tokenId, amount, data) {\n                emit TokenTransferSucceeded(tokenType, contractAddress, tokenId, dest, amount);\n            } catch Error(string memory reason){\n                emit TokenTransferError(tokenType, contractAddress, tokenId, dest, amount, reason);\n            } catch {\n                emit TokenTransferError(tokenType, contractAddress, tokenId, dest, amount, \"\");\n            }\n        }\n    }\n\n    function getBalance(Enums.TokenType tokenType, address contractAddress, uint256 tokenId) public view returns (uint256, bool success, string memory)  {\n        // all external calls are safe because they are automatically compiled to static call due to view mutability\n        if (tokenType == Enums.TokenType.ERC20) {\n            try IERC20(contractAddress).balanceOf(address(this)) returns (uint256 balance){\n                return (balance, true, \"\");\n            }catch Error(string memory reason){\n                return (0, false, reason);\n            }catch {\n                return (0, false, \"Unknown\");\n            }\n        } else if (tokenType == Enums.TokenType.ERC721) {\n            try IERC721(contractAddress).ownerOf(tokenId) returns (address owner){\n                bool owned = (owner == address(this));\n                if (owned) {\n                    return (1, true, \"\");\n                } else {\n                    return (0, true, \"\");\n                }\n            }catch Error(string memory reason){\n                return (0, false, reason);\n            }catch {\n                return (0, false, \"Unknown\");\n            }\n        } else if (tokenType == Enums.TokenType.ERC1155) {\n            try IERC1155(contractAddress).balanceOf(address(this), tokenId) returns (uint256 balance){\n                return (balance, true, \"\");\n            }catch Error(string memory reason){\n                return (0, false, reason);\n            }catch {\n                return (0, false, \"Unknown\");\n            }\n        }\n        return (0, false, \"Bad type\");\n    }\n\n    function recoverToken(TokenTrackerState storage state, address dest, TokenTracker.TrackedToken storage t) public {\n        (uint256 balance, bool success, string memory reason) = getBalance(t.tokenType, t.contractAddress, t.tokenId);\n        if (!success) {\n            emit BalanceRetrievalError(t.tokenType, t.contractAddress, t.tokenId, reason);\n        }\n        if (balance > 0) {\n            transferToken(state, t.tokenType, t.contractAddress, t.tokenId, dest, balance, bytes(\"\"));\n            emit TokenRecovered(t.tokenType, t.contractAddress, t.tokenId, balance);\n        }\n    }\n\n    function recoverSelectedTokensEncoded(TokenTrackerState storage state, address dest, bytes memory data) public {\n        uint32[] memory indices = abi.decode(data, (uint32[]));\n        for (uint32 i = 0; i < indices.length; i++) {\n            recoverToken(state, dest, state.trackedTokens[indices[i]]);\n        }\n    }\n\n    function recoverAllTokens(TokenTrackerState storage state, address dest) public {\n        for (uint32 i = 0; i < state.trackedTokens.length; i++) {\n            recoverToken(state, dest, state.trackedTokens[i]);\n        }\n    }\n}\n",
  "sourcePath": "/Users/polymorpher/git/one-wallet/code/contracts/TokenTracker.sol",
  "compiler": {
    "name": "solc",
    "version": "0.8.4+commit.c7e474f2.Emscripten.clang"
  },
  "schemaVersion": "3.4.2",
  "updatedAt": "2021-11-13T14:37:07.857Z",
  "devdoc": {
    "kind": "dev",
    "methods": {},
    "version": 1
  },
  "userdoc": {
    "kind": "user",
    "methods": {},
    "version": 1
  }
}