{
  "contractName": "TOTPWallet",
  "abi": [
    {
      "inputs": [
        {
          "internalType": "bytes16",
          "name": "rootHash_",
          "type": "bytes16"
        },
        {
          "internalType": "uint8",
          "name": "merkelHeight_",
          "type": "uint8"
        },
        {
          "internalType": "uint256",
          "name": "timePeriod_",
          "type": "uint256"
        },
        {
          "internalType": "uint256",
          "name": "timeOffset_",
          "type": "uint256"
        },
        {
          "internalType": "address payable",
          "name": "drainAddr_",
          "type": "address"
        },
        {
          "internalType": "uint256",
          "name": "dailyLimit_",
          "type": "uint256"
        }
      ],
      "stateMutability": "nonpayable",
      "type": "constructor"
    },
    {
      "anonymous": false,
      "inputs": [
        {
          "indexed": false,
          "internalType": "bytes16",
          "name": "data",
          "type": "bytes16"
        }
      ],
      "name": "DebugEvent",
      "type": "event"
    },
    {
      "anonymous": false,
      "inputs": [
        {
          "indexed": false,
          "internalType": "uint32",
          "name": "data",
          "type": "uint32"
        }
      ],
      "name": "DebugEventN",
      "type": "event"
    },
    {
      "anonymous": false,
      "inputs": [
        {
          "indexed": true,
          "internalType": "address",
          "name": "sender",
          "type": "address"
        },
        {
          "indexed": false,
          "internalType": "uint256",
          "name": "value",
          "type": "uint256"
        }
      ],
      "name": "Deposit",
      "type": "event"
    },
    {
      "anonymous": false,
      "inputs": [
        {
          "indexed": false,
          "internalType": "address",
          "name": "to",
          "type": "address"
        },
        {
          "indexed": false,
          "internalType": "uint256",
          "name": "amount",
          "type": "uint256"
        }
      ],
      "name": "WalletTransfer",
      "type": "event"
    },
    {
      "inputs": [],
      "name": "wallet",
      "outputs": [
        {
          "internalType": "bytes16",
          "name": "rootHash",
          "type": "bytes16"
        },
        {
          "internalType": "uint8",
          "name": "merkelHeight",
          "type": "uint8"
        },
        {
          "internalType": "uint256",
          "name": "timePeriod",
          "type": "uint256"
        },
        {
          "internalType": "uint256",
          "name": "timeOffset",
          "type": "uint256"
        },
        {
          "internalType": "address payable",
          "name": "drainAddr",
          "type": "address"
        },
        {
          "internalType": "uint256",
          "name": "dailyLimit",
          "type": "uint256"
        },
        {
          "internalType": "uint256",
          "name": "lastDay",
          "type": "uint256"
        },
        {
          "internalType": "uint256",
          "name": "spentToday",
          "type": "uint256"
        },
        {
          "components": [
            {
              "internalType": "bytes16",
              "name": "rootHash",
              "type": "bytes16"
            },
            {
              "internalType": "uint8",
              "name": "merkelHeight",
              "type": "uint8"
            },
            {
              "internalType": "uint256",
              "name": "timePeriod",
              "type": "uint256"
            },
            {
              "internalType": "uint256",
              "name": "timeOffset",
              "type": "uint256"
            },
            {
              "internalType": "uint256",
              "name": "expiration",
              "type": "uint256"
            }
          ],
          "internalType": "struct Core.RecoveryInfo",
          "name": "recovery",
          "type": "tuple"
        }
      ],
      "stateMutability": "view",
      "type": "function"
    },
    {
      "stateMutability": "payable",
      "type": "receive"
    },
    {
      "inputs": [
        {
          "internalType": "address payable",
          "name": "to",
          "type": "address"
        },
        {
          "internalType": "uint256",
          "name": "amount",
          "type": "uint256"
        },
        {
          "internalType": "bytes16[]",
          "name": "confirmMaterial",
          "type": "bytes16[]"
        },
        {
          "internalType": "bytes20",
          "name": "sides",
          "type": "bytes20"
        }
      ],
      "name": "makeTransfer",
      "outputs": [],
      "stateMutability": "nonpayable",
      "type": "function"
    },
    {
      "inputs": [],
      "name": "drain",
      "outputs": [],
      "stateMutability": "nonpayable",
      "type": "function"
    },
    {
      "inputs": [
        {
          "internalType": "bytes16[]",
          "name": "confirmMaterial",
          "type": "bytes16[]"
        },
        {
          "internalType": "bytes20",
          "name": "sides",
          "type": "bytes20"
        }
      ],
      "name": "drain",
      "outputs": [],
      "stateMutability": "nonpayable",
      "type": "function"
    },
    {
      "inputs": [
        {
          "internalType": "address",
          "name": "guardian",
          "type": "address"
        },
        {
          "internalType": "bytes16[]",
          "name": "confirmMaterial",
          "type": "bytes16[]"
        },
        {
          "internalType": "bytes20",
          "name": "sides",
          "type": "bytes20"
        }
      ],
      "name": "addGuardian",
      "outputs": [],
      "stateMutability": "nonpayable",
      "type": "function"
    },
    {
      "inputs": [
        {
          "internalType": "address",
          "name": "guardian",
          "type": "address"
        },
        {
          "internalType": "bytes16[]",
          "name": "confirmMaterial",
          "type": "bytes16[]"
        },
        {
          "internalType": "bytes20",
          "name": "sides",
          "type": "bytes20"
        }
      ],
      "name": "revokeGuardian",
      "outputs": [],
      "stateMutability": "nonpayable",
      "type": "function"
    },
    {
      "inputs": [
        {
          "internalType": "address",
          "name": "addr",
          "type": "address"
        }
      ],
      "name": "isGuardian",
      "outputs": [
        {
          "internalType": "bool",
          "name": "",
          "type": "bool"
        }
      ],
      "stateMutability": "view",
      "type": "function"
    },
    {
      "inputs": [],
      "name": "getGuardians",
      "outputs": [
        {
          "internalType": "address[]",
          "name": "",
          "type": "address[]"
        }
      ],
      "stateMutability": "view",
      "type": "function"
    },
    {
      "inputs": [
        {
          "internalType": "bytes16",
          "name": "rootHash_",
          "type": "bytes16"
        },
        {
          "internalType": "uint8",
          "name": "merkelHeight_",
          "type": "uint8"
        },
        {
          "internalType": "uint256",
          "name": "timePeriod_",
          "type": "uint256"
        },
        {
          "internalType": "uint256",
          "name": "timeOffset_",
          "type": "uint256"
        },
        {
          "internalType": "bytes",
          "name": "signatures_",
          "type": "bytes"
        }
      ],
      "name": "startRecovery",
      "outputs": [],
      "stateMutability": "nonpayable",
      "type": "function"
    },
    {
      "inputs": [],
      "name": "isRecovering",
      "outputs": [
        {
          "internalType": "bool",
          "name": "",
          "type": "bool"
        }
      ],
      "stateMutability": "view",
      "type": "function"
    },
    {
      "inputs": [
        {
          "internalType": "bytes16[]",
          "name": "confirmMaterial",
          "type": "bytes16[]"
        },
        {
          "internalType": "bytes20",
          "name": "sides",
          "type": "bytes20"
        }
      ],
      "name": "cancelRecovery",
      "outputs": [],
      "stateMutability": "nonpayable",
      "type": "function"
    },
    {
      "inputs": [],
      "name": "getRecovery",
      "outputs": [
        {
          "internalType": "bytes16",
          "name": "",
          "type": "bytes16"
        },
        {
          "internalType": "uint8",
          "name": "",
          "type": "uint8"
        },
        {
          "internalType": "uint256",
          "name": "",
          "type": "uint256"
        },
        {
          "internalType": "uint256",
          "name": "",
          "type": "uint256"
        }
      ],
      "stateMutability": "view",
      "type": "function"
    },
    {
      "inputs": [],
      "name": "finalizeRecovery",
      "outputs": [],
      "stateMutability": "nonpayable",
      "type": "function"
    },
    {
      "inputs": [],
      "name": "getCurrentCounter",
      "outputs": [
        {
          "internalType": "uint256",
          "name": "",
          "type": "uint256"
        }
      ],
      "stateMutability": "view",
      "type": "function"
    },
    {
      "inputs": [],
      "name": "remainingTokens",
      "outputs": [
        {
          "internalType": "uint256",
          "name": "",
          "type": "uint256"
        }
      ],
      "stateMutability": "view",
      "type": "function"
    },
    {
      "inputs": [
        {
          "internalType": "bytes16[]",
          "name": "confirmMaterial",
          "type": "bytes16[]"
        },
        {
          "internalType": "bytes20",
          "name": "sides",
          "type": "bytes20"
        }
      ],
      "name": "_reduceConfirmMaterial",
      "outputs": [
        {
          "internalType": "bytes16",
          "name": "",
          "type": "bytes16"
        }
      ],
      "stateMutability": "nonpayable",
      "type": "function"
    }
  ],
  "bytecode": "0x60806040523480156200001157600080fd5b50604051620026073803806200260783398181016040528101906200003791906200014a565b856000800160006101000a8154816fffffffffffffffffffffffffffffffff021916908360801c0217905550846000800160106101000a81548160ff021916908360ff160217905550836000600101819055508260006002018190555081600060030160006101000a81548173ffffffffffffffffffffffffffffffffffffffff021916908373ffffffffffffffffffffffffffffffffffffffff16021790555080600060060181905550505050505050620002bf565b600081519050620000ff8162000257565b92915050565b600081519050620001168162000271565b92915050565b6000815190506200012d816200028b565b92915050565b6000815190506200014481620002a5565b92915050565b60008060008060008060c087890312156200016457600080fd5b60006200017489828a0162000105565b96505060206200018789828a0162000133565b95505060406200019a89828a016200011c565b9450506060620001ad89828a016200011c565b9350506080620001c089828a01620000ee565b92505060a0620001d389828a016200011c565b9150509295509295509295565b6000620001ed8262000220565b9050919050565b60007fffffffffffffffffffffffffffffffff0000000000000000000000000000000082169050919050565b600073ffffffffffffffffffffffffffffffffffffffff82169050919050565b6000819050919050565b600060ff82169050919050565b6200026281620001e0565b81146200026e57600080fd5b50565b6200027c81620001f4565b81146200028857600080fd5b50565b620002968162000240565b8114620002a257600080fd5b50565b620002b0816200024a565b8114620002bc57600080fd5b50565b61233880620002cf6000396000f3fe6080604052600436106100f75760003560e01c8063adcc50141161008a578063bf651ffa11610059578063bf651ffa14610360578063c35b276014610389578063d6351068146103b2578063e2ccb305146103ef57610156565b8063adcc5014146102ba578063be558f23146102e3578063bf4293441461030c578063bf5839031461033557610156565b8063706f7658116100c6578063706f76581461021f57806373448c461461024d57806391ac2788146102785780639890220b146102a357610156565b80630665f04b1461015b5780630c68ba2114610186578063477e0bcf146101c3578063521eb273146101ec57610156565b36610156576000341115610154573373ffffffffffffffffffffffffffffffffffffffff167fe1fffcc4923d04b559f4d29a8bfc6cda04eb5b0d3c460751c2402c5c5cc9109c3460405161014b919061206d565b60405180910390a25b005b600080fd5b34801561016757600080fd5b50610170610406565b60405161017d9190611dd5565b60405180910390f35b34801561019257600080fd5b506101ad60048036038101906101a8919061176e565b610497565b6040516101ba9190611df7565b60405180910390f35b3480156101cf57600080fd5b506101ea60048036038101906101e59190611817565b61052b565b005b3480156101f857600080fd5b506102016106c1565b60405161021699989796959493929190611e72565b60405180910390f35b34801561022b57600080fd5b506102346107b9565b6040516102449493929190611e2d565b60405180910390f35b34801561025957600080fd5b5061026261080b565b60405161026f919061206d565b60405180910390f35b34801561028457600080fd5b5061028d610827565b60405161029a9190611df7565b60405180910390f35b3480156102af57600080fd5b506102b861085d565b005b3480156102c657600080fd5b506102e160048036038101906102dc9190611883565b6109a9565b005b3480156102ef57600080fd5b5061030a60048036038101906103059190611883565b610b3e565b005b34801561031857600080fd5b50610333600480360381019061032e9190611797565b610d23565b005b34801561034157600080fd5b5061034a610f77565b604051610357919061206d565b60405180910390f35b34801561036c57600080fd5b5061038760048036038101906103829190611958565b610fb9565b005b34801561039557600080fd5b506103b060048036038101906103ab9190611817565b611037565b005b3480156103be57600080fd5b506103d960048036038101906103d491906118db565b6111cd565b6040516103e69190611e12565b60405180910390f35b3480156103fb57600080fd5b5061040461125d565b005b6060600060040180548060200260200160405190810160405280929190818152602001828054801561048d57602002820191906000526020600020905b8160009054906101000a900473ffffffffffffffffffffffffffffffffffffffff1673ffffffffffffffffffffffffffffffffffffffff1681526020019060010190808311610443575b5050505050905090565b60008073__Guardians_____________________________63121c95629091846040518363ffffffff1660e01b81526004016104d4929190611fda565b60206040518083038186803b1580156104ec57600080fd5b505af4158015610500573d6000803e3d6000fd5b505050506040513d601f19601f82011682018060405250810190610524919061192f565b9050919050565b828280806020026020016040519081016040528093929190818152602001838360200280828437600081840152601f19601f820116905080830192505050505050508161057661080b565b61057f826112c9565b63ffffffff16146105c5576040517f08c379a00000000000000000000000000000000000000000000000000000000081526004016105bc90611f3f565b60405180910390fd5b60006105d183836111cd565b90506000800160009054906101000a900460801b6fffffffffffffffffffffffffffffffff1916816fffffffffffffffffffffffffffffffff19161461064c576040517f08c379a000000000000000000000000000000000000000000000000000000000815260040161064390611f5f565b60405180910390fd5b600073__Guardians_____________________________6397b9ce099091896040518363ffffffff1660e01b8152600401610688929190611fda565b60006040518083038186803b1580156106a057600080fd5b505af41580156106b4573d6000803e3d6000fd5b5050505050505050505050565b60008060000160009054906101000a900460801b908060000160109054906101000a900460ff16908060010154908060020154908060030160009054906101000a900473ffffffffffffffffffffffffffffffffffffffff1690806006015490806007015490806008015490806009016040518060a00160405290816000820160009054906101000a900460801b6fffffffffffffffffffffffffffffffff19166fffffffffffffffffffffffffffffffff191681526020016000820160109054906101000a900460ff1660ff1660ff1681526020016001820154815260200160028201548152602001600382015481525050905089565b600080600080600060090160000160009054906101000a900460801b600060090160000160109054906101000a900460ff16600060090160010154600060090160020154935093509350935090919293565b6000806001015460006002015442038161082157fe5b04905090565b60008060801b600060090160000160009054906101000a900460801b6fffffffffffffffffffffffffffffffff19161415905090565b600060030160009054906101000a900473ffffffffffffffffffffffffffffffffffffffff1673ffffffffffffffffffffffffffffffffffffffff163373ffffffffffffffffffffffffffffffffffffffff16146108f0576040517f08c379a00000000000000000000000000000000000000000000000000000000081526004016108e790611eff565b60405180910390fd5b60006108fa610f77565b111561093b576040517f08c379a000000000000000000000000000000000000000000000000000000000815260040161093290611f9f565b60405180910390fd5b600060030160009054906101000a900473ffffffffffffffffffffffffffffffffffffffff1673ffffffffffffffffffffffffffffffffffffffff166108fc479081150290604051600060405180830381858888f193505050501580156109a6573d6000803e3d6000fd5b50565b828280806020026020016040519081016040528093929190818152602001838360200280828437600081840152601f19601f82011690508083019250505050505050816109f461080b565b6109fd826112c9565b63ffffffff1614610a43576040517f08c379a0000000000000000000000000000000000000000000000000000000008152600401610a3a90611f3f565b60405180910390fd5b6000610a4f83836111cd565b90506000800160009054906101000a900460801b6fffffffffffffffffffffffffffffffff1916816fffffffffffffffffffffffffffffffff191614610aca576040517f08c379a0000000000000000000000000000000000000000000000000000000008152600401610ac190611f5f565b60405180910390fd5b600060030160009054906101000a900473ffffffffffffffffffffffffffffffffffffffff1673ffffffffffffffffffffffffffffffffffffffff166108fc479081150290604051600060405180830381858888f19350505050158015610b35573d6000803e3d6000fd5b50505050505050565b828280806020026020016040519081016040528093929190818152602001838360200280828437600081840152601f19601f8201169050808301925050505050505081610b8961080b565b610b92826112c9565b63ffffffff1614610bd8576040517f08c379a0000000000000000000000000000000000000000000000000000000008152600401610bcf90611f3f565b60405180910390fd5b6000610be483836111cd565b90506000800160009054906101000a900460801b6fffffffffffffffffffffffffffffffff1916816fffffffffffffffffffffffffffffffff191614610c5f576040517f08c379a0000000000000000000000000000000000000000000000000000000008152600401610c5690611f5f565b60405180910390fd5b6040518060a00160405280600060801b6fffffffffffffffffffffffffffffffff19168152602001600060ff16815260200160008152602001600081526020016000815250600060090160008201518160000160006101000a8154816fffffffffffffffffffffffffffffffff021916908360801c021790555060208201518160000160106101000a81548160ff021916908360ff160217905550604082015181600101556060820151816002015560808201518160030155905050505050505050565b828280806020026020016040519081016040528093929190818152602001838360200280828437600081840152601f19601f8201169050808301925050505050505081610d6e61080b565b610d77826112c9565b63ffffffff1614610dbd576040517f08c379a0000000000000000000000000000000000000000000000000000000008152600401610db490611f3f565b60405180910390fd5b6000610dc983836111cd565b90506000800160009054906101000a900460801b6fffffffffffffffffffffffffffffffff1916816fffffffffffffffffffffffffffffffff191614610e44576040517f08c379a0000000000000000000000000000000000000000000000000000000008152600401610e3b90611f5f565b60405180910390fd5b610e5887600061137e90919063ffffffff16565b610e97576040517f08c379a0000000000000000000000000000000000000000000000000000000008152600401610e8e90611f7f565b60405180910390fd5b86471015610eda576040517f08c379a0000000000000000000000000000000000000000000000000000000008152600401610ed190611f1f565b60405180910390fd5b866000600801600082825401925050819055508773ffffffffffffffffffffffffffffffffffffffff166108fc889081150290604051600060405180830381858888f19350505050158015610f33573d6000803e3d6000fd5b507f688077ec2e4cf5b023188b3c964a1a6481e6ff3fd3d3af3971ae0bf2172f75658888604051610f65929190611dac565b60405180910390a15050505050505050565b600080610f8261080b565b905060008060000160109054906101000a900460ff1660ff1660020a9050818111610fae576000610fb2565b8181035b9250505090565b600073__Recovery______________________________633071538890918888888888886040518863ffffffff1660e01b8152600401610fff9796959493929190612003565b60006040518083038186803b15801561101757600080fd5b505af415801561102b573d6000803e3d6000fd5b50505050505050505050565b828280806020026020016040519081016040528093929190818152602001838360200280828437600081840152601f19601f820116905080830192505050505050508161108261080b565b61108b826112c9565b63ffffffff16146110d1576040517f08c379a00000000000000000000000000000000000000000000000000000000081526004016110c890611f3f565b60405180910390fd5b60006110dd83836111cd565b90506000800160009054906101000a900460801b6fffffffffffffffffffffffffffffffff1916816fffffffffffffffffffffffffffffffff191614611158576040517f08c379a000000000000000000000000000000000000000000000000000000000815260040161114f90611f5f565b60405180910390fd5b600073__Guardians_____________________________63e98ee0859091896040518363ffffffff1660e01b8152600401611194929190611fda565b60006040518083038186803b1580156111ac57600080fd5b505af41580156111c0573d6000803e3d6000fd5b5050505050505050505050565b6000826000815181106111dc57fe5b60200260200101516040516020016111f49190611d65565b604051602081830303815290604052805190602001208360008151811061121757fe5b60200260200101906fffffffffffffffffffffffffffffffff191690816fffffffffffffffffffffffffffffffff19168152505061125583836113df565b905092915050565b600073__Recovery______________________________635fd7224790916040518263ffffffff1660e01b81526004016112979190611fbf565b60006040518083038186803b1580156112af57600080fd5b505af41580156112c3573d6000803e3d6000fd5b50505050565b6000806000905060005b6000800160109054906101000a900460ff1660ff168160ff16101561137457838160ff166014811061130157fe5b1a60f81b7effffffffffffffffffffffffffffffffffffffffffffffffffffffffffffff1916600160f81b7effffffffffffffffffffffffffffffffffffffffffffffffffffffffffffff19161415611367578060ff16600163ffffffff16901b821791505b80806001019150506112d3565b5080915050919050565b6000620151808360070154014211156113a557428360070181905550600083600801819055505b82600601548284600801540111806113c65750826008015482846008015401105b156113d457600090506113d9565b600190505b92915050565b600080600190505b83518160ff16101561159357826001820360ff166014811061140557fe5b1a60f81b7effffffffffffffffffffffffffffffffffffffffffffffffffffffffffffff1916600060f81b7effffffffffffffffffffffffffffffffffffffffffffffffffffffffffffff191614156114f1578360008151811061146557fe5b6020026020010151848260ff168151811061147c57fe5b6020026020010151604051602001611495929190611d80565b60405160208183030381529060405280519060200120846000815181106114b857fe5b60200260200101906fffffffffffffffffffffffffffffffff191690816fffffffffffffffffffffffffffffffff191681525050611586565b838160ff168151811061150057fe5b60200260200101518460008151811061151557fe5b602002602001015160405160200161152e929190611d80565b604051602081830303815290604052805190602001208460008151811061155157fe5b60200260200101906fffffffffffffffffffffffffffffffff191690816fffffffffffffffffffffffffffffffff1916815250505b80806001019150506113e7565b50826000815181106115a157fe5b6020026020010151905092915050565b60006115c46115bf846120b9565b612088565b905080838252602082019050828560208602820111156115e357600080fd5b60005b8581101561161357816115f988826116d0565b8452602084019350602083019250506001810190506115e6565b5050509392505050565b60008135905061162c81612261565b92915050565b60008135905061164181612278565b92915050565b60008083601f84011261165957600080fd5b8235905067ffffffffffffffff81111561167257600080fd5b60208301915083602082028301111561168a57600080fd5b9250929050565b600082601f8301126116a257600080fd5b81356116b28482602086016115b1565b91505092915050565b6000815190506116ca8161228f565b92915050565b6000813590506116df816122a6565b92915050565b6000813590506116f4816122bd565b92915050565b60008083601f84011261170c57600080fd5b8235905067ffffffffffffffff81111561172557600080fd5b60208301915083600182028301111561173d57600080fd5b9250929050565b600081359050611753816122d4565b92915050565b600081359050611768816122eb565b92915050565b60006020828403121561178057600080fd5b600061178e8482850161161d565b91505092915050565b6000806000806000608086880312156117af57600080fd5b60006117bd88828901611632565b95505060206117ce88828901611744565b945050604086013567ffffffffffffffff8111156117eb57600080fd5b6117f788828901611647565b9350935050606061180a888289016116e5565b9150509295509295909350565b6000806000806060858703121561182d57600080fd5b600061183b8782880161161d565b945050602085013567ffffffffffffffff81111561185857600080fd5b61186487828801611647565b93509350506040611877878288016116e5565b91505092959194509250565b60008060006040848603121561189857600080fd5b600084013567ffffffffffffffff8111156118b257600080fd5b6118be86828701611647565b935093505060206118d1868287016116e5565b9150509250925092565b600080604083850312156118ee57600080fd5b600083013567ffffffffffffffff81111561190857600080fd5b61191485828601611691565b9250506020611925858286016116e5565b9150509250929050565b60006020828403121561194157600080fd5b600061194f848285016116bb565b91505092915050565b60008060008060008060a0878903121561197157600080fd5b600061197f89828a016116d0565b965050602061199089828a01611759565b95505060406119a189828a01611744565b94505060606119b289828a01611744565b935050608087013567ffffffffffffffff8111156119cf57600080fd5b6119db89828a016116fa565b92509250509295509295509295565b60006119f68383611a20565b60208301905092915050565b611a0b816121ff565b82525050565b611a1a81612152565b82525050565b611a2981612140565b82525050565b611a3881612140565b82525050565b6000611a49826120f5565b611a53818561210d565b9350611a5e836120e5565b8060005b83811015611a8f578151611a7688826119ea565b9750611a8183612100565b925050600181019050611a62565b5085935050505092915050565b611aa581612164565b82525050565b611ab481612170565b82525050565b611ac381612170565b82525050565b611ad281612170565b82525050565b611ae9611ae482612170565b612244565b82525050565b6000611afb838561211e565b9350611b08838584612235565b611b1183612250565b840190509392505050565b6000611b29600f8361212f565b91507f73656e64657220213d20647261696e00000000000000000000000000000000006000830152602082019050919050565b6000611b6960128361212f565b91507f6e6f7420656e6f7567682062616c616e636500000000000000000000000000006000830152602082019050919050565b6000611ba960188361212f565b91507f756e657870656374656420636f756e7465722076616c756500000000000000006000830152602082019050919050565b6000611be960108361212f565b91507f756e65787065637465642070726f6f66000000000000000000000000000000006000830152602082019050919050565b6000611c2960158361212f565b91507f6f766572207769746864726177616c206c696d697400000000000000000000006000830152602082019050919050565b6000611c6960138361212f565b91507f6e6f74206465706c6574656420746f6b656e73000000000000000000000000006000830152602082019050919050565b60a082016000820151611cb26000850182611aab565b506020820151611cc56020850182611d38565b506040820151611cd86040850182611d0b565b506060820151611ceb6060850182611d0b565b506080820151611cfe6080850182611d0b565b50505050565b8082525050565b611d14816121e8565b82525050565b611d23816121e8565b82525050565b611d32816121e8565b82525050565b611d41816121f2565b82525050565b611d50816121f2565b82525050565b611d5f816121f2565b82525050565b6000611d718284611ad8565b60108201915081905092915050565b6000611d8c8285611ad8565b601082019150611d9c8284611ad8565b6010820191508190509392505050565b6000604082019050611dc16000830185611a02565b611dce6020830184611d1a565b9392505050565b60006020820190508181036000830152611def8184611a3e565b905092915050565b6000602082019050611e0c6000830184611a9c565b92915050565b6000602082019050611e276000830184611aba565b92915050565b6000608082019050611e426000830187611aba565b611e4f6020830186611d47565b611e5c6040830185611d1a565b611e696060830184611d1a565b95945050505050565b60006101a082019050611e88600083018c611aba565b611e95602083018b611d47565b611ea2604083018a611d1a565b611eaf6060830189611d1a565b611ebc6080830188611a11565b611ec960a0830187611d1a565b611ed660c0830186611d1a565b611ee360e0830185611d1a565b611ef1610100830184611c9c565b9a9950505050505050505050565b60006020820190508181036000830152611f1881611b1c565b9050919050565b60006020820190508181036000830152611f3881611b5c565b9050919050565b60006020820190508181036000830152611f5881611b9c565b9050919050565b60006020820190508181036000830152611f7881611bdc565b9050919050565b60006020820190508181036000830152611f9881611c1c565b9050919050565b60006020820190508181036000830152611fb881611c5c565b9050919050565b6000602082019050611fd46000830184611d04565b92915050565b6000604082019050611fef6000830185611d04565b611ffc6020830184611a2f565b9392505050565b600060c082019050612018600083018a611d04565b6120256020830189611ac9565b6120326040830188611d56565b61203f6060830187611d29565b61204c6080830186611d29565b81810360a083015261205f818486611aef565b905098975050505050505050565b60006020820190506120826000830184611d1a565b92915050565b6000604051905081810181811067ffffffffffffffff821117156120af576120ae61224e565b5b8060405250919050565b600067ffffffffffffffff8211156120d4576120d361224e565b5b602082029050602081019050919050565b6000819050602082019050919050565b600081519050919050565b6000602082019050919050565b600082825260208201905092915050565b600082825260208201905092915050565b600082825260208201905092915050565b600061214b826121c8565b9050919050565b600061215d826121c8565b9050919050565b60008115159050919050565b60007fffffffffffffffffffffffffffffffff0000000000000000000000000000000082169050919050565b60007fffffffffffffffffffffffffffffffffffffffff00000000000000000000000082169050919050565b600073ffffffffffffffffffffffffffffffffffffffff82169050919050565b6000819050919050565b600060ff82169050919050565b600061220a82612211565b9050919050565b600061221c82612223565b9050919050565b600061222e826121c8565b9050919050565b82818337600083830152505050565b6000819050919050565bfe5b6000601f19601f8301169050919050565b61226a81612140565b811461227557600080fd5b50565b61228181612152565b811461228c57600080fd5b50565b61229881612164565b81146122a357600080fd5b50565b6122af81612170565b81146122ba57600080fd5b50565b6122c68161219c565b81146122d157600080fd5b50565b6122dd816121e8565b81146122e857600080fd5b50565b6122f4816121f2565b81146122ff57600080fd5b5056fea264697066735822122088ab6569e1d415d4c572cb5b9de83deadc6951fc68afdf7c8e69056124c5e44f64736f6c63430007060033",
  "immutableReferences": {},
  "source": "pragma solidity ^0.7.6;\npragma experimental ABIEncoderV2;\n\nimport \"./core/wallet_data.sol\";\nimport \"./features/guardians.sol\";\nimport \"./features/daily_limit.sol\";\nimport \"./features/recovery.sol\";\n\ncontract TOTPWallet {\n\n    using Guardians for Core.Wallet;\n    using DailyLimit for Core.Wallet;\n    using Recovery for Core.Wallet;\n    Core.Wallet public wallet;\n\n    event DebugEvent(bytes16 data);\n    event DebugEventN(uint32 data);\n    event WalletTransfer(address to, uint amount);\n    event Deposit(address indexed sender, uint value);\n\n    constructor(bytes16 rootHash_, uint8 merkelHeight_, uint timePeriod_,\n        uint timeOffset_, address payable drainAddr_, uint dailyLimit_)\n    {\n        wallet.rootHash = rootHash_;\n        wallet.merkelHeight = merkelHeight_;\n        wallet.timePeriod = timePeriod_;\n        wallet.timeOffset = timeOffset_;\n        wallet.drainAddr = drainAddr_;\n        wallet.dailyLimit = dailyLimit_;\n\n    }\n\n    modifier onlyValidTOTP(bytes16[] memory confirmMaterial, bytes20 sides)\n    {\n        require(_deriveChildTreeIdx(sides) == getCurrentCounter(), \"unexpected counter value\");\n        bytes16 reduced = _reduceConfirmMaterial(confirmMaterial, sides);\n        require(reduced == wallet.rootHash, \"unexpected proof\");\n        _;\n    }\n\n    function makeTransfer(address payable to, uint amount, bytes16[] calldata confirmMaterial, bytes20 sides) external onlyValidTOTP(confirmMaterial, sides)\n    {\n        require(wallet.isUnderLimit(amount), \"over withdrawal limit\");\n        require(address(this).balance >= amount, \"not enough balance\");\n\n        wallet.spentToday += amount;\n        to.transfer(amount);\n        emit WalletTransfer(to, amount);\n    }\n\n    //TODO: Drain ERC20 tokens too\n    function drain(bytes16[] calldata confirmMaterial, bytes20 sides) external onlyValidTOTP(confirmMaterial, sides) {\n        wallet.drainAddr.transfer(address(this).balance);\n    }\n\n    function drain() external {\n        require(msg.sender == wallet.drainAddr, \"sender != drain\");\n        require(remainingTokens() <= 0, \"not depleted tokens\");\n        wallet.drainAddr.transfer(address(this).balance);\n    }\n\n    //\n    // Guardians functions\n    //\n    function addGuardian(address guardian, bytes16[] calldata confirmMaterial, bytes20 sides)\n    external\n    onlyValidTOTP(confirmMaterial, sides)\n    {\n        wallet.addGuardian(guardian);\n    }\n\n    function revokeGuardian(address guardian, bytes16[] calldata confirmMaterial, bytes20 sides)\n    external\n    onlyValidTOTP(confirmMaterial, sides)\n    {\n        wallet.revokeGuardian(guardian);\n    }\n\n    function isGuardian(address addr)\n    public\n    view\n    returns (bool)\n    {\n        return wallet.isGuardian(addr);\n    }\n\n    function getGuardians()\n    public\n    view\n    returns (address[] memory)\n    {\n        return wallet.guardians;\n    }\n\n    //\n    // Recovery functions\n    //\n\n    function startRecovery(bytes16 rootHash_, uint8 merkelHeight_, uint timePeriod_,\n        uint timeOffset_, bytes calldata signatures_) external {\n        wallet.startRecovery(rootHash_, merkelHeight_, timePeriod_, timeOffset_, signatures_);\n    }\n\n    function isRecovering() external view returns (bool) {\n        return wallet.recovery.rootHash != 0x0;\n    }\n\n    function cancelRecovery(bytes16[] calldata confirmMaterial, bytes20 sides) external onlyValidTOTP(confirmMaterial, sides) {\n        wallet.recovery = Core.RecoveryInfo(0, 0, 0, 0, 0);\n    }\n\n    function getRecovery() external view returns (bytes16, uint8, uint, uint) {\n        return (wallet.recovery.rootHash, wallet.recovery.merkelHeight, wallet.recovery.timePeriod, wallet.recovery.timeOffset);\n    }\n\n    function finalizeRecovery() external {\n        wallet.finalizeRecovery();\n    }\n\n    //\n    // Utility functions\n    //\n\n    // 1609459200 is 2021-01-01 00:00:00\n    function getCurrentCounter() public view returns (uint) {\n        return (block.timestamp - wallet.timeOffset) / wallet.timePeriod;\n    }\n\n    function remainingTokens() public view returns (uint) {\n        // timeOffset + (DURATION*2^depth) < current time\n        //uint lastTokenExpires = timeOffset + (timePeriod * (2**treeHeight));\n        uint c = getCurrentCounter();\n        uint total = 2 ** uint(wallet.merkelHeight);\n        return total > c ? total - c : 0;\n    }\n\n    function _deriveChildTreeIdx(bytes20 sides) private view returns (uint32) {\n        uint32 derivedIdx = 0;\n        for (uint8 i = 0; i < wallet.merkelHeight; i++) {\n            if (byte(0x01) == sides[i]) {\n                derivedIdx |= uint32(0x01) << i;\n            }\n        }\n        return derivedIdx;\n    }\n\n    function _reduceConfirmMaterial(bytes16[] memory confirmMaterial, bytes20 sides) public returns (bytes16) {\n        //  and then compute h(OTP) to get the leaf of the tree\n        confirmMaterial[0] = bytes16(keccak256(abi.encodePacked(confirmMaterial[0])));\n        return _reduceAuthPath(confirmMaterial, sides);\n    }\n\n    function _reduceAuthPath(bytes16[] memory authPath, bytes20 sides) internal returns (bytes16){\n        for (uint8 i = 1; i < authPath.length; i++) {\n            if (byte(0x00) == sides[i - 1]) {\n                authPath[0] = bytes16(keccak256(abi.encodePacked(authPath[0], authPath[i])));\n            } else {\n                authPath[0] = bytes16(keccak256(abi.encodePacked(authPath[i], authPath[0])));\n            }\n        }\n        //emit DebugEvent(authPath[0]);\n        return authPath[0];\n    }\n\n\n    /// @dev Fallback function allows to deposit ether.\n    receive() external payable {\n        if (msg.value > 0)\n            emit Deposit(msg.sender, msg.value);\n    }\n\n}\n",
  "sourcePath": "/Users/polymorpher/git/one-wallet/code/contracts/otp_wallet.sol",
  "compiler": {
    "name": "solc",
    "version": "0.7.6+commit.7338295f.Emscripten.clang"
  },
  "schemaVersion": "3.3.4",
  "updatedAt": "2021-05-26T07:27:02.765Z",
  "devdoc": {
    "kind": "dev",
    "methods": {},
    "version": 1
  },
  "userdoc": {
    "kind": "user",
    "methods": {},
    "version": 1
  }
}