{
  "contractName": "TOTPWallet",
  "abi": [
    {
      "inputs": [
        {
          "internalType": "bytes16",
          "name": "rootHash_",
          "type": "bytes16"
        },
        {
          "internalType": "uint8",
          "name": "merkelHeight_",
          "type": "uint8"
        },
        {
          "internalType": "uint256",
          "name": "timePeriod_",
          "type": "uint256"
        },
        {
          "internalType": "uint256",
          "name": "timeOffset_",
          "type": "uint256"
        },
        {
          "internalType": "address payable",
          "name": "drainAddr_",
          "type": "address"
        },
        {
          "internalType": "uint256",
          "name": "withdrawLimit_",
          "type": "uint256"
        }
      ],
      "stateMutability": "nonpayable",
      "type": "constructor"
    },
    {
      "anonymous": false,
      "inputs": [
        {
          "indexed": false,
          "internalType": "bytes16",
          "name": "data",
          "type": "bytes16"
        }
      ],
      "name": "DebugEvent",
      "type": "event"
    },
    {
      "anonymous": false,
      "inputs": [
        {
          "indexed": false,
          "internalType": "uint32",
          "name": "data",
          "type": "uint32"
        }
      ],
      "name": "DebugEventN",
      "type": "event"
    },
    {
      "anonymous": false,
      "inputs": [
        {
          "indexed": true,
          "internalType": "address",
          "name": "sender",
          "type": "address"
        },
        {
          "indexed": false,
          "internalType": "uint256",
          "name": "value",
          "type": "uint256"
        }
      ],
      "name": "Deposit",
      "type": "event"
    },
    {
      "anonymous": false,
      "inputs": [
        {
          "indexed": false,
          "internalType": "bytes16",
          "name": "totp",
          "type": "bytes16"
        }
      ],
      "name": "WalletTotpMismatch",
      "type": "event"
    },
    {
      "anonymous": false,
      "inputs": [
        {
          "indexed": false,
          "internalType": "address",
          "name": "to",
          "type": "address"
        },
        {
          "indexed": false,
          "internalType": "uint256",
          "name": "amount",
          "type": "uint256"
        }
      ],
      "name": "WalletTransfer",
      "type": "event"
    },
    {
      "inputs": [],
      "name": "drainAddr",
      "outputs": [
        {
          "internalType": "address payable",
          "name": "",
          "type": "address"
        }
      ],
      "stateMutability": "view",
      "type": "function"
    },
    {
      "inputs": [],
      "name": "rootHash",
      "outputs": [
        {
          "internalType": "bytes16",
          "name": "",
          "type": "bytes16"
        }
      ],
      "stateMutability": "view",
      "type": "function"
    },
    {
      "inputs": [],
      "name": "timeOffset",
      "outputs": [
        {
          "internalType": "uint256",
          "name": "",
          "type": "uint256"
        }
      ],
      "stateMutability": "view",
      "type": "function"
    },
    {
      "inputs": [],
      "name": "timePeriod",
      "outputs": [
        {
          "internalType": "uint256",
          "name": "",
          "type": "uint256"
        }
      ],
      "stateMutability": "view",
      "type": "function"
    },
    {
      "inputs": [],
      "name": "treeHeight",
      "outputs": [
        {
          "internalType": "uint8",
          "name": "",
          "type": "uint8"
        }
      ],
      "stateMutability": "view",
      "type": "function"
    },
    {
      "inputs": [],
      "name": "withdrawLimit",
      "outputs": [
        {
          "internalType": "uint256",
          "name": "",
          "type": "uint256"
        }
      ],
      "stateMutability": "view",
      "type": "function"
    },
    {
      "stateMutability": "payable",
      "type": "receive"
    },
    {
      "inputs": [
        {
          "internalType": "address payable",
          "name": "to",
          "type": "address"
        },
        {
          "internalType": "uint256",
          "name": "amount",
          "type": "uint256"
        },
        {
          "components": [
            {
              "internalType": "bytes16[]",
              "name": "confirmMaterial",
              "type": "bytes16[]"
            },
            {
              "internalType": "bytes20",
              "name": "sides",
              "type": "bytes20"
            }
          ],
          "internalType": "struct TOTPWallet.TOTPProof",
          "name": "proof",
          "type": "tuple"
        }
      ],
      "name": "makeTransfer",
      "outputs": [],
      "stateMutability": "nonpayable",
      "type": "function"
    },
    {
      "inputs": [
        {
          "components": [
            {
              "internalType": "bytes16[]",
              "name": "confirmMaterial",
              "type": "bytes16[]"
            },
            {
              "internalType": "bytes20",
              "name": "sides",
              "type": "bytes20"
            }
          ],
          "internalType": "struct TOTPWallet.TOTPProof",
          "name": "proof",
          "type": "tuple"
        }
      ],
      "name": "drain",
      "outputs": [],
      "stateMutability": "nonpayable",
      "type": "function"
    },
    {
      "inputs": [
        {
          "internalType": "address",
          "name": "guardian",
          "type": "address"
        },
        {
          "components": [
            {
              "internalType": "bytes16[]",
              "name": "confirmMaterial",
              "type": "bytes16[]"
            },
            {
              "internalType": "bytes20",
              "name": "sides",
              "type": "bytes20"
            }
          ],
          "internalType": "struct TOTPWallet.TOTPProof",
          "name": "proof",
          "type": "tuple"
        }
      ],
      "name": "addGuardian",
      "outputs": [],
      "stateMutability": "nonpayable",
      "type": "function"
    },
    {
      "inputs": [
        {
          "internalType": "address",
          "name": "guardian",
          "type": "address"
        },
        {
          "components": [
            {
              "internalType": "bytes16[]",
              "name": "confirmMaterial",
              "type": "bytes16[]"
            },
            {
              "internalType": "bytes20",
              "name": "sides",
              "type": "bytes20"
            }
          ],
          "internalType": "struct TOTPWallet.TOTPProof",
          "name": "proof",
          "type": "tuple"
        }
      ],
      "name": "revokeGuardian",
      "outputs": [],
      "stateMutability": "nonpayable",
      "type": "function"
    },
    {
      "inputs": [
        {
          "internalType": "address",
          "name": "addr",
          "type": "address"
        }
      ],
      "name": "isGuardian",
      "outputs": [
        {
          "internalType": "bool",
          "name": "",
          "type": "bool"
        }
      ],
      "stateMutability": "view",
      "type": "function"
    },
    {
      "inputs": [],
      "name": "getGuardians",
      "outputs": [
        {
          "internalType": "address[]",
          "name": "",
          "type": "address[]"
        }
      ],
      "stateMutability": "view",
      "type": "function"
    },
    {
      "inputs": [],
      "name": "getCurrentCounter",
      "outputs": [
        {
          "internalType": "uint256",
          "name": "",
          "type": "uint256"
        }
      ],
      "stateMutability": "view",
      "type": "function"
    },
    {
      "inputs": [],
      "name": "hasRemainingTokens",
      "outputs": [
        {
          "internalType": "bool",
          "name": "",
          "type": "bool"
        }
      ],
      "stateMutability": "view",
      "type": "function"
    },
    {
      "inputs": [
        {
          "internalType": "bytes16[]",
          "name": "confirmMaterial",
          "type": "bytes16[]"
        },
        {
          "internalType": "bytes20",
          "name": "sides",
          "type": "bytes20"
        }
      ],
      "name": "_reduceConfirmMaterial",
      "outputs": [
        {
          "internalType": "bytes16",
          "name": "",
          "type": "bytes16"
        }
      ],
      "stateMutability": "nonpayable",
      "type": "function"
    }
  ],
  "bytecode": "0x60806040523480156200001157600080fd5b5060405162001b2738038062001b27833981810160405281019062000037919062000139565b85600260006101000a8154816fffffffffffffffffffffffffffffffff021916908360801c0217905550846000806101000a81548160ff021916908360ff160217905550836001819055508260038190555081600460006101000a81548173ffffffffffffffffffffffffffffffffffffffff021916908373ffffffffffffffffffffffffffffffffffffffff16021790555080600581905550505050505050620002ae565b600081519050620000ee8162000246565b92915050565b600081519050620001058162000260565b92915050565b6000815190506200011c816200027a565b92915050565b600081519050620001338162000294565b92915050565b60008060008060008060c087890312156200015357600080fd5b60006200016389828a01620000f4565b96505060206200017689828a0162000122565b95505060406200018989828a016200010b565b94505060606200019c89828a016200010b565b9350506080620001af89828a01620000dd565b92505060a0620001c289828a016200010b565b9150509295509295509295565b6000620001dc826200020f565b9050919050565b60007fffffffffffffffffffffffffffffffff0000000000000000000000000000000082169050919050565b600073ffffffffffffffffffffffffffffffffffffffff82169050919050565b6000819050919050565b600060ff82169050919050565b6200025181620001cf565b81146200025d57600080fd5b50565b6200026b81620001e3565b81146200027757600080fd5b50565b62000285816200022f565b81146200029157600080fd5b50565b6200029f8162000239565b8114620002ab57600080fd5b50565b61186980620002be6000396000f3fe6080604052600436106100ec5760003560e01c80639359abec1161008a578063bd1ddbfc11610059578063bd1ddbfc14610337578063c9e5a7a314610360578063d635106814610389578063f848d541146103c65761014b565b80639359abec1461028f578063a438b0e5146102ba578063ae32ab58146102e5578063b9dff7dd1461030e5761014b565b80631d80009a116100c65780631d80009a146101e35780633bfcb1361461020e5780633e79d1e11461023957806373448c46146102645761014b565b806301e3e915146101505780630665f04b1461017b5780630c68ba21146101a65761014b565b3661014b576000341115610149573373ffffffffffffffffffffffffffffffffffffffff167fe1fffcc4923d04b559f4d29a8bfc6cda04eb5b0d3c460751c2402c5c5cc9109c3460405161014091906115b8565b60405180910390a25b005b600080fd5b34801561015c57600080fd5b506101656103f1565b60405161017291906115d3565b60405180910390f35b34801561018757600080fd5b50610190610402565b60405161019d91906114b7565b60405180910390f35b3480156101b257600080fd5b506101cd60048036038101906101c8919061107e565b610493565b6040516101da91906114d9565b60405180910390f35b3480156101ef57600080fd5b506101f8610528565b60405161020591906114f4565b60405180910390f35b34801561021a57600080fd5b5061022361053b565b60405161023091906114d9565b60405180910390f35b34801561024557600080fd5b5061024e610560565b60405161025b91906115b8565b60405180910390f35b34801561027057600080fd5b50610279610566565b60405161028691906115b8565b60405180910390f35b34801561029b57600080fd5b506102a461057d565b6040516102b19190611473565b60405180910390f35b3480156102c657600080fd5b506102cf6105a3565b6040516102dc91906115b8565b60405180910390f35b3480156102f157600080fd5b5061030c600480360381019061030791906110a7565b6105a9565b005b34801561031a57600080fd5b506103356004803603810190610330919061110e565b6107aa565b005b34801561034357600080fd5b5061035e600480360381019061035991906111df565b61090e565b005b34801561036c57600080fd5b506103876004803603810190610382919061110e565b610a6e565b005b34801561039557600080fd5b506103b060048036038101906103ab9190611162565b610bd2565b6040516103bd91906114f4565b60405180910390f35b3480156103d257600080fd5b506103db610c62565b6040516103e891906115b8565b60405180910390f35b60008054906101000a900460ff1681565b6060600660000180548060200260200160405190810160405280929190818152602001828054801561048957602002820191906000526020600020905b8160009054906101000a900473ffffffffffffffffffffffffffffffffffffffff1673ffffffffffffffffffffffffffffffffffffffff168152602001906001019080831161043f575b5050505050905090565b6000600673__Guardians_____________________________63121c95629091846040518363ffffffff1660e01b81526004016104d192919061158f565b60206040518083038186803b1580156104e957600080fd5b505af41580156104fd573d6000803e3d6000fd5b505050506040513d601f19601f8201168201806040525081019061052191906111b6565b9050919050565b600260009054906101000a900460801b81565b60008060009054906101000a900460ff1660ff1660020a61055a610566565b10905090565b60015481565b600060015460035442038161057757fe5b04905090565b600460009054906101000a900473ffffffffffffffffffffffffffffffffffffffff1681565b60035481565b806105b390611766565b6105bb610566565b6105c88260200151610c68565b63ffffffff161461060e576040517f08c379a00000000000000000000000000000000000000000000000000000000081526004016106059061152f565b60405180910390fd5b600061062282600001518360200151610bd2565b9050600260009054906101000a900460801b6fffffffffffffffffffffffffffffffff1916816fffffffffffffffffffffffffffffffff19161461069b576040517f08c379a00000000000000000000000000000000000000000000000000000000081526004016106929061154f565b60405180910390fd5b6005548411156106e0576040517f08c379a00000000000000000000000000000000000000000000000000000000081526004016106d79061156f565b60405180910390fd5b83471015610723576040517f08c379a000000000000000000000000000000000000000000000000000000000815260040161071a9061150f565b60405180910390fd5b8473ffffffffffffffffffffffffffffffffffffffff166108fc859081150290604051600060405180830381858888f19350505050158015610769573d6000803e3d6000fd5b507f688077ec2e4cf5b023188b3c964a1a6481e6ff3fd3d3af3971ae0bf2172f7565858560405161079b92919061148e565b60405180910390a15050505050565b806107b490611766565b6107bc610566565b6107c98260200151610c68565b63ffffffff161461080f576040517f08c379a00000000000000000000000000000000000000000000000000000000081526004016108069061152f565b60405180910390fd5b600061082382600001518360200151610bd2565b9050600260009054906101000a900460801b6fffffffffffffffffffffffffffffffff1916816fffffffffffffffffffffffffffffffff19161461089c576040517f08c379a00000000000000000000000000000000000000000000000000000000081526004016108939061154f565b60405180910390fd5b600673__Guardians_____________________________6397b9ce099091866040518363ffffffff1660e01b81526004016108d892919061158f565b60006040518083038186803b1580156108f057600080fd5b505af4158015610904573d6000803e3d6000fd5b5050505050505050565b8061091890611766565b610920610566565b61092d8260200151610c68565b63ffffffff1614610973576040517f08c379a000000000000000000000000000000000000000000000000000000000815260040161096a9061152f565b60405180910390fd5b600061098782600001518360200151610bd2565b9050600260009054906101000a900460801b6fffffffffffffffffffffffffffffffff1916816fffffffffffffffffffffffffffffffff191614610a00576040517f08c379a00000000000000000000000000000000000000000000000000000000081526004016109f79061154f565b60405180910390fd5b600460009054906101000a900473ffffffffffffffffffffffffffffffffffffffff1673ffffffffffffffffffffffffffffffffffffffff166108fc479081150290604051600060405180830381858888f19350505050158015610a68573d6000803e3d6000fd5b50505050565b80610a7890611766565b610a80610566565b610a8d8260200151610c68565b63ffffffff1614610ad3576040517f08c379a0000000000000000000000000000000000000000000000000000000008152600401610aca9061152f565b60405180910390fd5b6000610ae782600001518360200151610bd2565b9050600260009054906101000a900460801b6fffffffffffffffffffffffffffffffff1916816fffffffffffffffffffffffffffffffff191614610b60576040517f08c379a0000000000000000000000000000000000000000000000000000000008152600401610b579061154f565b60405180910390fd5b600673__Guardians_____________________________63e98ee0859091866040518363ffffffff1660e01b8152600401610b9c92919061158f565b60006040518083038186803b158015610bb457600080fd5b505af4158015610bc8573d6000803e3d6000fd5b5050505050505050565b600082600081518110610be157fe5b6020026020010151604051602001610bf9919061142c565b6040516020818303038152906040528051906020012083600081518110610c1c57fe5b60200260200101906fffffffffffffffffffffffffffffffff191690816fffffffffffffffffffffffffffffffff191681525050610c5a8383610d19565b905092915050565b60055481565b6000806000905060005b60008054906101000a900460ff1660ff168160ff161015610d0f57838160ff1660148110610c9c57fe5b1a60f81b7effffffffffffffffffffffffffffffffffffffffffffffffffffffffffffff1916600160f81b7effffffffffffffffffffffffffffffffffffffffffffffffffffffffffffff19161415610d02578060ff16600163ffffffff16901b821791505b8080600101915050610c72565b5080915050919050565b600080600190505b83518160ff161015610ecd57826001820360ff1660148110610d3f57fe5b1a60f81b7effffffffffffffffffffffffffffffffffffffffffffffffffffffffffffff1916600060f81b7effffffffffffffffffffffffffffffffffffffffffffffffffffffffffffff19161415610e2b5783600081518110610d9f57fe5b6020026020010151848260ff1681518110610db657fe5b6020026020010151604051602001610dcf929190611447565b6040516020818303038152906040528051906020012084600081518110610df257fe5b60200260200101906fffffffffffffffffffffffffffffffff191690816fffffffffffffffffffffffffffffffff191681525050610ec0565b838160ff1681518110610e3a57fe5b602002602001015184600081518110610e4f57fe5b6020026020010151604051602001610e68929190611447565b6040516020818303038152906040528051906020012084600081518110610e8b57fe5b60200260200101906fffffffffffffffffffffffffffffffff191690816fffffffffffffffffffffffffffffffff1916815250505b8080600101915050610d21565b5082600081518110610edb57fe5b6020026020010151905092915050565b6000610efe610ef98461161f565b6115ee565b90508083825260208201905082856020860282011115610f1d57600080fd5b60005b85811015610f4d5781610f338882610fc0565b845260208401935060208301925050600181019050610f20565b5050509392505050565b600081359050610f66816117a9565b92915050565b600081359050610f7b816117c0565b92915050565b600082601f830112610f9257600080fd5b8135610fa2848260208601610eeb565b91505092915050565b600081519050610fba816117d7565b92915050565b600081359050610fcf816117ee565b92915050565b600081359050610fe481611805565b92915050565b600060408284031215610ffc57600080fd5b81905092915050565b60006040828403121561101757600080fd5b61102160406115ee565b9050600082013567ffffffffffffffff81111561103d57600080fd5b61104984828501610f81565b600083015250602061105d84828501610fd5565b60208301525092915050565b6000813590506110788161181c565b92915050565b60006020828403121561109057600080fd5b600061109e84828501610f57565b91505092915050565b6000806000606084860312156110bc57600080fd5b60006110ca86828701610f6c565b93505060206110db86828701611069565b925050604084013567ffffffffffffffff8111156110f857600080fd5b61110486828701610fea565b9150509250925092565b6000806040838503121561112157600080fd5b600061112f85828601610f57565b925050602083013567ffffffffffffffff81111561114c57600080fd5b61115885828601610fea565b9150509250929050565b6000806040838503121561117557600080fd5b600083013567ffffffffffffffff81111561118f57600080fd5b61119b85828601610f81565b92505060206111ac85828601610fd5565b9150509250929050565b6000602082840312156111c857600080fd5b60006111d684828501610fab565b91505092915050565b6000602082840312156111f157600080fd5b600082013567ffffffffffffffff81111561120b57600080fd5b61121784828501610fea565b91505092915050565b600061122c8383611256565b60208301905092915050565b61124181611754565b82525050565b611250816116a7565b82525050565b61125f81611695565b82525050565b61126e81611695565b82525050565b600061127f8261165b565b6112898185611673565b93506112948361164b565b8060005b838110156112c55781516112ac8882611220565b97506112b783611666565b925050600181019050611298565b5085935050505092915050565b6112db816116b9565b82525050565b6112ea816116c5565b82525050565b6113016112fc826116c5565b61179d565b82525050565b6000611314601283611684565b91507f6e6f7420656e6f7567682062616c616e636500000000000000000000000000006000830152602082019050919050565b6000611354601883611684565b91507f756e657870656374656420636f756e7465722076616c756500000000000000006000830152602082019050919050565b6000611394601083611684565b91507f756e65787065637465642070726f6f66000000000000000000000000000000006000830152602082019050919050565b60006113d4601583611684565b91507f6f766572207769746864726177616c206c696d697400000000000000000000006000830152602082019050919050565b8082525050565b6114178161173d565b82525050565b61142681611747565b82525050565b600061143882846112f0565b60108201915081905092915050565b600061145382856112f0565b60108201915061146382846112f0565b6010820191508190509392505050565b60006020820190506114886000830184611247565b92915050565b60006040820190506114a36000830185611238565b6114b0602083018461140e565b9392505050565b600060208201905081810360008301526114d18184611274565b905092915050565b60006020820190506114ee60008301846112d2565b92915050565b600060208201905061150960008301846112e1565b92915050565b6000602082019050818103600083015261152881611307565b9050919050565b6000602082019050818103600083015261154881611347565b9050919050565b6000602082019050818103600083015261156881611387565b9050919050565b60006020820190508181036000830152611588816113c7565b9050919050565b60006040820190506115a46000830185611407565b6115b16020830184611265565b9392505050565b60006020820190506115cd600083018461140e565b92915050565b60006020820190506115e8600083018461141d565b92915050565b6000604051905081810181811067ffffffffffffffff82111715611615576116146117a7565b5b8060405250919050565b600067ffffffffffffffff82111561163a576116396117a7565b5b602082029050602081019050919050565b6000819050602082019050919050565b600081519050919050565b6000602082019050919050565b600082825260208201905092915050565b600082825260208201905092915050565b60006116a08261171d565b9050919050565b60006116b28261171d565b9050919050565b60008115159050919050565b60007fffffffffffffffffffffffffffffffff0000000000000000000000000000000082169050919050565b60007fffffffffffffffffffffffffffffffffffffffff00000000000000000000000082169050919050565b600073ffffffffffffffffffffffffffffffffffffffff82169050919050565b6000819050919050565b600060ff82169050919050565b600061175f82611779565b9050919050565b60006117723683611005565b9050919050565b60006117848261178b565b9050919050565b60006117968261171d565b9050919050565b6000819050919050565bfe5b6117b281611695565b81146117bd57600080fd5b50565b6117c9816116a7565b81146117d457600080fd5b50565b6117e0816116b9565b81146117eb57600080fd5b50565b6117f7816116c5565b811461180257600080fd5b50565b61180e816116f1565b811461181957600080fd5b50565b6118258161173d565b811461183057600080fd5b5056fea2646970667358221220bd58b1e4fbe47111eac67468a913f064e75d0c978e642cd92de2ce571f621a9364736f6c63430007060033",
  "immutableReferences": {},
  "source": "pragma solidity ^0.7.6;\npragma experimental ABIEncoderV2;\n\nimport \"./core/wallet_data.sol\";\nimport \"./features/guardians.sol\";\n\ncontract TOTPWallet {\n    uint8 public treeHeight;\n    uint public timePeriod;\n    bytes16 public rootHash;\n    uint public timeOffset;\n    address payable public drainAddr;\n    uint public withdrawLimit;\n\n    using Guardians for Core.Wallet;\n    Core.Wallet wallet;\n    \n    struct TOTPProof {\n        bytes16[] confirmMaterial;\n        bytes20 sides;\n    }\n\n    event DebugEvent(bytes16 data);\n    event DebugEventN(uint32 data);\n    event WalletTransfer(address to, uint amount);\n    event WalletTotpMismatch(bytes16 totp);\n    event Deposit(address indexed sender, uint value);\n\n    constructor(bytes16 rootHash_, uint8 merkelHeight_, uint timePeriod_, \n                uint timeOffset_, address payable drainAddr_, uint withdrawLimit_)\n    {\n        rootHash = rootHash_;\n        treeHeight = merkelHeight_;\n        timePeriod = timePeriod_;\n        timeOffset = timeOffset_;\n        drainAddr = drainAddr_;\n        withdrawLimit = withdrawLimit_;\n    }   \n\n    modifier onlyValidTOTP(TOTPProof memory proof) \n    {\n        require(_deriveChildTreeIdx(proof.sides) == getCurrentCounter(), \"unexpected counter value\"); \n        bytes16 reduced = _reduceConfirmMaterial(proof.confirmMaterial, proof.sides);\n        require(reduced==rootHash, \"unexpected proof\");\n        _;\n    }\n\n    function makeTransfer(address payable to, uint amount, TOTPProof calldata proof) external onlyValidTOTP(proof) \n    {\n        require(amount <= withdrawLimit, \"over withdrawal limit\");\n        require(address(this).balance >= amount, \"not enough balance\");  \n\n        to.transfer(amount);\n        emit WalletTransfer(to, amount);             \n    }\n\n    //TODO: Drain ERC20 tokens too\n    function drain(TOTPProof calldata proof) external onlyValidTOTP(proof)  {\n        drainAddr.transfer(address(this).balance);            \n    }\n\n    //\n    // Guardians functions\n    //\n    function addGuardian(address guardian, TOTPProof calldata proof)\n        external\n        onlyValidTOTP(proof)\n    {\n        wallet.addGuardian(guardian);\n    }\n\n    function revokeGuardian(address guardian, TOTPProof calldata proof)\n        external\n        onlyValidTOTP(proof)\n    {\n        wallet.revokeGuardian(guardian);\n    }\n\n    function isGuardian(address addr)\n         public\n         view\n         returns (bool)\n     {\n         return wallet.isGuardian(addr);\n     }\n\n     function getGuardians()\n         public\n         view\n         returns (address[] memory )\n     {\n         return wallet.guardians;\n     }\n\n    //\n    // Utility functions\n    //\n\n    // 1609459200 is 2021-01-01 00:00:00\n    function getCurrentCounter() public view returns (uint) {\n        return (block.timestamp-timeOffset)/timePeriod;\n    }\n\n    function hasRemainingTokens() public view returns (bool) {\n        // timeOffset + (DURATION*2^depth) < current time\n        //uint lastTokenExpires = timeOffset + (timePeriod * (2**treeHeight));\n        return getCurrentCounter() < 2**uint(treeHeight);\n    }\n        \n    //\n    // Private functions\n    //\n    \n    function _deriveChildTreeIdx(bytes20 sides) private view returns (uint32) {\n        uint32 derivedIdx = 0;\n        for(uint8 i = 0 ; i <treeHeight ; i++){\n            if(byte(0x01) == sides[i]){\n                derivedIdx |=  uint32(0x01) << i;\n            }\n        }\n        return derivedIdx;\n    }\n    \n    function _reduceConfirmMaterial(bytes16[] memory confirmMaterial, bytes20 sides) public returns (bytes16) {\n        //  and then compute h(OTP) to get the leaf of the tree\n        confirmMaterial[0] = bytes16(keccak256(abi.encodePacked(confirmMaterial[0])));\n        return _reduceAuthPath(confirmMaterial, sides);\n    }\n\n    function _reduceAuthPath(bytes16[] memory authPath, bytes20 sides) internal returns (bytes16){\n        for (uint8 i = 1; i < authPath.length ; i++) {\n            if(byte(0x00) == sides[i - 1]){\n                authPath[0] = bytes16(keccak256(abi.encodePacked(authPath[0], authPath[i])));\n            } else{\n                authPath[0] = bytes16(keccak256(abi.encodePacked(authPath[i], authPath[0])));\n            }\n        }\n        //emit DebugEvent(authPath[0]);\n        return authPath[0];\n    }\n\n\n    /// @dev Fallback function allows to deposit ether.\n    receive() external payable {\n        if (msg.value > 0)\n            emit Deposit(msg.sender, msg.value);\n    }\n\n}\n",
  "sourcePath": "/home/quoc/Projects/harmony-totp-pure/contracts/otp_wallet.sol",
  "compiler": {
    "name": "solc",
    "version": "0.7.6+commit.7338295f.Emscripten.clang"
  },
  "schemaVersion": "3.3.4",
  "updatedAt": "2021-04-29T19:17:20.227Z",
  "devdoc": {
    "kind": "dev",
    "methods": {},
    "version": 1
  },
  "userdoc": {
    "kind": "user",
    "methods": {},
    "version": 1
  }
}