{
  "contractName": "TOTPWallet",
  "abi": [
    {
      "constant": true,
      "inputs": [],
      "name": "treeHeight",
      "outputs": [
        {
          "name": "",
          "type": "uint8"
        }
      ],
      "payable": false,
      "stateMutability": "view",
      "type": "function"
    },
    {
      "constant": true,
      "inputs": [],
      "name": "rootHash",
      "outputs": [
        {
          "name": "",
          "type": "bytes16"
        }
      ],
      "payable": false,
      "stateMutability": "view",
      "type": "function"
    },
    {
      "constant": true,
      "inputs": [],
      "name": "timePeriod",
      "outputs": [
        {
          "name": "",
          "type": "uint256"
        }
      ],
      "payable": false,
      "stateMutability": "view",
      "type": "function"
    },
    {
      "constant": true,
      "inputs": [],
      "name": "timeOffset",
      "outputs": [
        {
          "name": "",
          "type": "uint256"
        }
      ],
      "payable": false,
      "stateMutability": "view",
      "type": "function"
    },
    {
      "inputs": [
        {
          "name": "rootHash_",
          "type": "bytes16"
        },
        {
          "name": "merkelHeight_",
          "type": "uint8"
        },
        {
          "name": "timePeriod_",
          "type": "uint256"
        },
        {
          "name": "timeOffset_",
          "type": "uint256"
        }
      ],
      "payable": false,
      "stateMutability": "nonpayable",
      "type": "constructor"
    },
    {
      "payable": true,
      "stateMutability": "payable",
      "type": "fallback"
    },
    {
      "anonymous": false,
      "inputs": [
        {
          "indexed": false,
          "name": "data",
          "type": "bytes16"
        }
      ],
      "name": "DebugEvent",
      "type": "event"
    },
    {
      "anonymous": false,
      "inputs": [
        {
          "indexed": false,
          "name": "data",
          "type": "uint32"
        }
      ],
      "name": "DebugEventN",
      "type": "event"
    },
    {
      "anonymous": false,
      "inputs": [
        {
          "indexed": false,
          "name": "to",
          "type": "address"
        },
        {
          "indexed": false,
          "name": "amount",
          "type": "uint256"
        }
      ],
      "name": "WalletTransfer",
      "type": "event"
    },
    {
      "anonymous": false,
      "inputs": [
        {
          "indexed": false,
          "name": "totp",
          "type": "bytes16"
        }
      ],
      "name": "WalletTotpMismatch",
      "type": "event"
    },
    {
      "anonymous": false,
      "inputs": [
        {
          "indexed": true,
          "name": "sender",
          "type": "address"
        },
        {
          "indexed": false,
          "name": "value",
          "type": "uint256"
        }
      ],
      "name": "Deposit",
      "type": "event"
    },
    {
      "constant": false,
      "inputs": [
        {
          "name": "to",
          "type": "address"
        },
        {
          "name": "amount",
          "type": "uint256"
        },
        {
          "name": "confirmMaterial",
          "type": "bytes16[]"
        },
        {
          "name": "sides",
          "type": "bytes20"
        }
      ],
      "name": "makeTransfer",
      "outputs": [],
      "payable": false,
      "stateMutability": "nonpayable",
      "type": "function"
    },
    {
      "constant": true,
      "inputs": [],
      "name": "getCurrentCounter",
      "outputs": [
        {
          "name": "",
          "type": "uint256"
        }
      ],
      "payable": false,
      "stateMutability": "view",
      "type": "function"
    },
    {
      "constant": false,
      "inputs": [
        {
          "name": "confirmMaterial",
          "type": "bytes16[]"
        },
        {
          "name": "sides",
          "type": "bytes20"
        }
      ],
      "name": "_reduceConfirmMaterial",
      "outputs": [
        {
          "name": "",
          "type": "bytes16"
        }
      ],
      "payable": false,
      "stateMutability": "nonpayable",
      "type": "function"
    }
  ],
  "bytecode": "0x608060405234801561001057600080fd5b50604051608080610c9c8339810180604052810190808051906020019092919080519060200190929190805190602001909291908051906020019092919050505083600260006101000a8154816fffffffffffffffffffffffffffffffff021916908370010000000000000000000000000000000090040217905550826000806101000a81548160ff021916908360ff160217905550816001819055508060038190555050505050610bd5806100c76000396000f300608060405260043610610083576000357c0100000000000000000000000000000000000000000000000000000000900463ffffffff16806301e3e915146100dd5780631d80009a1461010e5780633e79d1e11461015f57806373448c461461018a578063a438b0e5146101b5578063bf429344146101e0578063d635106814610289575b60003411156100db573373ffffffffffffffffffffffffffffffffffffffff167fe1fffcc4923d04b559f4d29a8bfc6cda04eb5b0d3c460751c2402c5c5cc9109c346040518082815260200191505060405180910390a25b005b3480156100e957600080fd5b506100f2610342565b604051808260ff1660ff16815260200191505060405180910390f35b34801561011a57600080fd5b50610123610354565b60405180826fffffffffffffffffffffffffffffffff19166fffffffffffffffffffffffffffffffff1916815260200191505060405180910390f35b34801561016b57600080fd5b50610174610377565b6040518082815260200191505060405180910390f35b34801561019657600080fd5b5061019f61037d565b6040518082815260200191505060405180910390f35b3480156101c157600080fd5b506101ca610396565b6040518082815260200191505060405180910390f35b3480156101ec57600080fd5b50610287600480360381019080803573ffffffffffffffffffffffffffffffffffffffff169060200190929190803590602001909291908035906020019082018035906020019080806020026020016040519081016040528093929190818152602001838360200280828437820191505050505050919291929080356bffffffffffffffffffffffff1916906020019092919050505061039c565b005b34801561029557600080fd5b506103066004803603810190808035906020019082018035906020019080806020026020016040519081016040528093929190818152602001838360200280828437820191505050505050919291929080356bffffffffffffffffffffffff19169060200190929190505050610610565b60405180826fffffffffffffffffffffffffffffffff19166fffffffffffffffffffffffffffffffff1916815260200191505060405180910390f35b6000809054906101000a900460ff1681565b600260009054906101000a90047001000000000000000000000000000000000281565b60015481565b6000600154600354420381151561039057fe5b04905090565b60035481565b6000833073ffffffffffffffffffffffffffffffffffffffff1631101515156103c457600080fd5b6103cc61037d565b6103d583610729565b63ffffffff16141515610450576040517f08c379a00000000000000000000000000000000000000000000000000000000081526004018080602001828103825260188152602001807f756e657870656374656420636f756e7465722076616c7565000000000000000081525060200191505060405180910390fd5b7f0be79ed53f3531ffabf033755c79daa8db1f32396dc98aa332b51afaaf51b53a61047a83610729565b604051808263ffffffff1663ffffffff16815260200191505060405180910390a16104a58383610610565b9050600260009054906101000a9004700100000000000000000000000000000000026fffffffffffffffffffffffffffffffff1916816fffffffffffffffffffffffffffffffff191614156105ab578473ffffffffffffffffffffffffffffffffffffffff166108fc859081150290604051600060405180830381858888f1935050505015801561053a573d6000803e3d6000fd5b507f688077ec2e4cf5b023188b3c964a1a6481e6ff3fd3d3af3971ae0bf2172f75658585604051808373ffffffffffffffffffffffffffffffffffffffff1673ffffffffffffffffffffffffffffffffffffffff1681526020018281526020019250505060405180910390a1610609565b7fbd12be31c15159cddcfb2877e1547f8f5fece5e49c36ce59cb8580498e33e3988160405180826fffffffffffffffffffffffffffffffff19166fffffffffffffffffffffffffffffffff1916815260200191505060405180910390a15b5050505050565b600082600081518110151561062157fe5b9060200190602002015160405160200180826fffffffffffffffffffffffffffffffff19166fffffffffffffffffffffffffffffffff191681526010019150506040516020818303038152906040526040518082805190602001908083835b6020831015156106a55780518252602082019150602081019050602083039250610680565b6001836020036101000a03801982511681845116808217855250505050505090500191505060405180910390208360008151811015156106e157fe5b906020019060200201906fffffffffffffffffffffffffffffffff191690816fffffffffffffffffffffffffffffffff1916815250506107218383610821565b905092915050565b6000806000809150600090505b6000809054906101000a900460ff1660ff168160ff16101561081757838160ff1660148110151561076357fe5b1a7f0100000000000000000000000000000000000000000000000000000000000000027effffffffffffffffffffffffffffffffffffffffffffffffffffffffffffff191660017f0100000000000000000000000000000000000000000000000000000000000000027effffffffffffffffffffffffffffffffffffffffffffffffffffffffffffff1916141561080a578060ff16600163ffffffff169060020a02821791505b8080600101915050610736565b8192505050919050565b600080600190505b83518160ff161015610b8757826001820360ff1660148110151561084957fe5b1a7f0100000000000000000000000000000000000000000000000000000000000000027effffffffffffffffffffffffffffffffffffffffffffffffffffffffffffff191660007f0100000000000000000000000000000000000000000000000000000000000000027effffffffffffffffffffffffffffffffffffffffffffffffffffffffffffff19161415610a2c578360008151811015156108e957fe5b90602001906020020151848260ff1681518110151561090457fe5b9060200190602002015160405160200180836fffffffffffffffffffffffffffffffff19166fffffffffffffffffffffffffffffffff19168152601001826fffffffffffffffffffffffffffffffff19166fffffffffffffffffffffffffffffffff19168152601001925050506040516020818303038152906040526040518082805190602001908083835b6020831015156109b55780518252602082019150602081019050602083039250610990565b6001836020036101000a03801982511681845116808217855250505050505090500191505060405180910390208460008151811015156109f157fe5b906020019060200201906fffffffffffffffffffffffffffffffff191690816fffffffffffffffffffffffffffffffff191681525050610b7a565b838160ff16815181101515610a3d57fe5b90602001906020020151846000815181101515610a5657fe5b9060200190602002015160405160200180836fffffffffffffffffffffffffffffffff19166fffffffffffffffffffffffffffffffff19168152601001826fffffffffffffffffffffffffffffffff19166fffffffffffffffffffffffffffffffff19168152601001925050506040516020818303038152906040526040518082805190602001908083835b602083101515610b075780518252602082019150602081019050602083039250610ae2565b6001836020036101000a0380198251168184511680821785525050505050509050019150506040518091039020846000815181101515610b4357fe5b906020019060200201906fffffffffffffffffffffffffffffffff191690816fffffffffffffffffffffffffffffffff1916815250505b8080600101915050610829565b836000815181101515610b9657fe5b90602001906020020151915050929150505600a165627a7a723058208aac9b4e9ea74ba6fd39ac63eed55dadeff567225baab92b19387621e527e07a0029",
  "source": "pragma solidity 0.4.24;\n\ncontract TOTPWallet {\n    uint8 public treeHeight;\n    uint public timePeriod;\n    bytes16 public rootHash;\n    uint public timeOffset;\n\n    event DebugEvent(bytes16 data);\n    event DebugEventN(uint32 data);\n    event WalletTransfer(address to, uint amount);\n    event WalletTotpMismatch(bytes16 totp);\n    event Deposit(address indexed sender, uint value);\n\n    constructor(bytes16 rootHash_, uint8 merkelHeight_, uint timePeriod_, uint timeOffset_) public {\n        rootHash = rootHash_;\n        treeHeight = merkelHeight_;\n        timePeriod = timePeriod_;\n        timeOffset = timeOffset_;\n    }\n\n    function makeTransfer(address to, uint amount, bytes16[] memory confirmMaterial, bytes20 sides) public {\n        // fire off totp check\n        require(address(this).balance >= amount);  \n        require(_deriveChildTreeIdx(sides) == getCurrentCounter(), \"unexpected counter value\"); \n\n        emit DebugEventN(_deriveChildTreeIdx(sides));\n\n        bytes16 proof = _reduceConfirmMaterial(confirmMaterial, sides);\n        if (proof == rootHash) {\n             to.transfer(amount);\n             emit WalletTransfer(to, amount);             \n        } else {\n             emit WalletTotpMismatch(proof);            \n        }\n    }\n\n    // 1609459200 is 2021-01-01 00:00:00\n    function getCurrentCounter() public view returns (uint) {\n        return (block.timestamp-timeOffset)/timePeriod;\n    }\n\n    function _deriveChildTreeIdx(bytes20 sides) private view returns (uint32) {\n        uint32 derivedIdx = 0;\n        for(uint8 i = 0 ; i <treeHeight ; i++){\n            if(byte(0x01) == sides[i]){\n                derivedIdx |=  uint32(0x01) << i;\n            }\n        }\n        return derivedIdx;\n    }\n    \n    function _reduceConfirmMaterial(bytes16[] memory confirmMaterial, bytes20 sides) public returns (bytes16) {\n        //  and then compute h(OTP) to get the leaf of the tree\n        confirmMaterial[0] = bytes16(keccak256(abi.encodePacked(confirmMaterial[0])));\n        return _reduceAuthPath(confirmMaterial, sides);\n    }\n\n    function _reduceAuthPath(bytes16[] memory authPath, bytes20 sides) internal returns (bytes16){\n        for (uint8 i = 1; i < authPath.length ; i++) {\n            if(byte(0x00) == sides[i - 1]){\n                authPath[0] = bytes16(keccak256(abi.encodePacked(authPath[0], authPath[i])));\n            } else{\n                authPath[0] = bytes16(keccak256(abi.encodePacked(authPath[i], authPath[0])));\n            }\n        }\n        //emit DebugEvent(authPath[0]);\n        return authPath[0];\n    }\n\n\n    /// @dev Fallback function allows to deposit ether.\n    function()\n        payable\n    {\n        if (msg.value > 0)\n            Deposit(msg.sender, msg.value);\n    }\n\n}\n",
  "sourcePath": "/home/quoc/Projects/harmony-totp/contracts/otp_wallet.sol",
  "compiler": {
    "name": "solc",
    "version": "0.4.24+commit.e67f0147.Emscripten.clang"
  },
  "schemaVersion": "3.3.4",
  "updatedAt": "2021-04-14T20:43:19.675Z",
  "devdoc": {
    "methods": {}
  },
  "userdoc": {
    "methods": {}
  }
}