{
  "contractName": "TOTPWallet",
  "abi": [
    {
      "inputs": [
        {
          "internalType": "bytes16",
          "name": "rootHash_",
          "type": "bytes16"
        },
        {
          "internalType": "uint8",
          "name": "merkelHeight_",
          "type": "uint8"
        },
        {
          "internalType": "uint256",
          "name": "timePeriod_",
          "type": "uint256"
        },
        {
          "internalType": "uint256",
          "name": "timeOffset_",
          "type": "uint256"
        },
        {
          "internalType": "address payable",
          "name": "drainAddr_",
          "type": "address"
        },
        {
          "internalType": "uint256",
          "name": "dailyLimit_",
          "type": "uint256"
        }
      ],
      "stateMutability": "nonpayable",
      "type": "constructor"
    },
    {
      "anonymous": false,
      "inputs": [
        {
          "indexed": false,
          "internalType": "bytes16",
          "name": "data",
          "type": "bytes16"
        }
      ],
      "name": "DebugEvent",
      "type": "event"
    },
    {
      "anonymous": false,
      "inputs": [
        {
          "indexed": false,
          "internalType": "uint32",
          "name": "data",
          "type": "uint32"
        }
      ],
      "name": "DebugEventN",
      "type": "event"
    },
    {
      "anonymous": false,
      "inputs": [
        {
          "indexed": true,
          "internalType": "address",
          "name": "sender",
          "type": "address"
        },
        {
          "indexed": false,
          "internalType": "uint256",
          "name": "value",
          "type": "uint256"
        }
      ],
      "name": "Deposit",
      "type": "event"
    },
    {
      "anonymous": false,
      "inputs": [
        {
          "indexed": false,
          "internalType": "address",
          "name": "to",
          "type": "address"
        },
        {
          "indexed": false,
          "internalType": "uint256",
          "name": "amount",
          "type": "uint256"
        }
      ],
      "name": "WalletTransfer",
      "type": "event"
    },
    {
      "inputs": [],
      "name": "wallet",
      "outputs": [
        {
          "internalType": "bytes16",
          "name": "rootHash",
          "type": "bytes16"
        },
        {
          "internalType": "uint8",
          "name": "merkelHeight",
          "type": "uint8"
        },
        {
          "internalType": "uint256",
          "name": "timePeriod",
          "type": "uint256"
        },
        {
          "internalType": "uint256",
          "name": "timeOffset",
          "type": "uint256"
        },
        {
          "internalType": "address payable",
          "name": "drainAddr",
          "type": "address"
        },
        {
          "internalType": "uint256",
          "name": "dailyLimit",
          "type": "uint256"
        },
        {
          "internalType": "uint256",
          "name": "lastDay",
          "type": "uint256"
        },
        {
          "internalType": "uint256",
          "name": "spentToday",
          "type": "uint256"
        },
        {
          "components": [
            {
              "internalType": "bytes16",
              "name": "rootHash",
              "type": "bytes16"
            },
            {
              "internalType": "uint8",
              "name": "merkelHeight",
              "type": "uint8"
            },
            {
              "internalType": "uint256",
              "name": "timePeriod",
              "type": "uint256"
            },
            {
              "internalType": "uint256",
              "name": "timeOffset",
              "type": "uint256"
            },
            {
              "internalType": "uint256",
              "name": "expiration",
              "type": "uint256"
            }
          ],
          "internalType": "struct Core.RecoveryInfo",
          "name": "recovery",
          "type": "tuple"
        }
      ],
      "stateMutability": "view",
      "type": "function"
    },
    {
      "stateMutability": "payable",
      "type": "receive"
    },
    {
      "inputs": [
        {
          "internalType": "address payable",
          "name": "to",
          "type": "address"
        },
        {
          "internalType": "uint256",
          "name": "amount",
          "type": "uint256"
        },
        {
          "internalType": "bytes16[]",
          "name": "confirmMaterial",
          "type": "bytes16[]"
        },
        {
          "internalType": "bytes20",
          "name": "sides",
          "type": "bytes20"
        }
      ],
      "name": "makeTransfer",
      "outputs": [],
      "stateMutability": "nonpayable",
      "type": "function"
    },
    {
      "inputs": [],
      "name": "drain",
      "outputs": [],
      "stateMutability": "nonpayable",
      "type": "function"
    },
    {
      "inputs": [
        {
          "internalType": "bytes16[]",
          "name": "confirmMaterial",
          "type": "bytes16[]"
        },
        {
          "internalType": "bytes20",
          "name": "sides",
          "type": "bytes20"
        }
      ],
      "name": "drain",
      "outputs": [],
      "stateMutability": "nonpayable",
      "type": "function"
    },
    {
      "inputs": [
        {
          "internalType": "address",
          "name": "guardian",
          "type": "address"
        },
        {
          "internalType": "bytes16[]",
          "name": "confirmMaterial",
          "type": "bytes16[]"
        },
        {
          "internalType": "bytes20",
          "name": "sides",
          "type": "bytes20"
        }
      ],
      "name": "addGuardian",
      "outputs": [],
      "stateMutability": "nonpayable",
      "type": "function"
    },
    {
      "inputs": [
        {
          "internalType": "address",
          "name": "guardian",
          "type": "address"
        },
        {
          "internalType": "bytes16[]",
          "name": "confirmMaterial",
          "type": "bytes16[]"
        },
        {
          "internalType": "bytes20",
          "name": "sides",
          "type": "bytes20"
        }
      ],
      "name": "revokeGuardian",
      "outputs": [],
      "stateMutability": "nonpayable",
      "type": "function"
    },
    {
      "inputs": [
        {
          "internalType": "address",
          "name": "addr",
          "type": "address"
        }
      ],
      "name": "isGuardian",
      "outputs": [
        {
          "internalType": "bool",
          "name": "",
          "type": "bool"
        }
      ],
      "stateMutability": "view",
      "type": "function"
    },
    {
      "inputs": [],
      "name": "getGuardians",
      "outputs": [
        {
          "internalType": "address[]",
          "name": "",
          "type": "address[]"
        }
      ],
      "stateMutability": "view",
      "type": "function"
    },
    {
      "inputs": [
        {
          "internalType": "bytes16",
          "name": "rootHash_",
          "type": "bytes16"
        },
        {
          "internalType": "uint8",
          "name": "merkelHeight_",
          "type": "uint8"
        },
        {
          "internalType": "uint256",
          "name": "timePeriod_",
          "type": "uint256"
        },
        {
          "internalType": "uint256",
          "name": "timeOffset_",
          "type": "uint256"
        },
        {
          "internalType": "bytes",
          "name": "signatures_",
          "type": "bytes"
        }
      ],
      "name": "startRecovery",
      "outputs": [],
      "stateMutability": "nonpayable",
      "type": "function"
    },
    {
      "inputs": [],
      "name": "isRecovering",
      "outputs": [
        {
          "internalType": "bool",
          "name": "",
          "type": "bool"
        }
      ],
      "stateMutability": "view",
      "type": "function"
    },
    {
      "inputs": [
        {
          "internalType": "bytes16[]",
          "name": "confirmMaterial",
          "type": "bytes16[]"
        },
        {
          "internalType": "bytes20",
          "name": "sides",
          "type": "bytes20"
        }
      ],
      "name": "cancelRecovery",
      "outputs": [],
      "stateMutability": "nonpayable",
      "type": "function"
    },
    {
      "inputs": [],
      "name": "getRecovery",
      "outputs": [
        {
          "internalType": "bytes16",
          "name": "",
          "type": "bytes16"
        },
        {
          "internalType": "uint8",
          "name": "",
          "type": "uint8"
        },
        {
          "internalType": "uint256",
          "name": "",
          "type": "uint256"
        },
        {
          "internalType": "uint256",
          "name": "",
          "type": "uint256"
        }
      ],
      "stateMutability": "view",
      "type": "function"
    },
    {
      "inputs": [],
      "name": "finalizeRecovery",
      "outputs": [],
      "stateMutability": "nonpayable",
      "type": "function"
    },
    {
      "inputs": [],
      "name": "getCurrentCounter",
      "outputs": [
        {
          "internalType": "uint256",
          "name": "",
          "type": "uint256"
        }
      ],
      "stateMutability": "view",
      "type": "function"
    },
    {
      "inputs": [],
      "name": "remainingTokens",
      "outputs": [
        {
          "internalType": "uint256",
          "name": "",
          "type": "uint256"
        }
      ],
      "stateMutability": "view",
      "type": "function"
    },
    {
      "inputs": [
        {
          "internalType": "bytes16[]",
          "name": "confirmMaterial",
          "type": "bytes16[]"
        },
        {
          "internalType": "bytes20",
          "name": "sides",
          "type": "bytes20"
        }
      ],
      "name": "_reduceConfirmMaterial",
      "outputs": [
        {
          "internalType": "bytes16",
          "name": "",
          "type": "bytes16"
        }
      ],
      "stateMutability": "nonpayable",
      "type": "function"
    }
  ],
  "bytecode": "0x60806040523480156200001157600080fd5b50604051620025ed380380620025ed83398181016040528101906200003791906200014a565b856000800160006101000a8154816fffffffffffffffffffffffffffffffff021916908360801c0217905550846000800160106101000a81548160ff021916908360ff160217905550836000600101819055508260006002018190555081600060030160006101000a81548173ffffffffffffffffffffffffffffffffffffffff021916908373ffffffffffffffffffffffffffffffffffffffff16021790555080600060060181905550505050505050620002bf565b600081519050620000ff8162000257565b92915050565b600081519050620001168162000271565b92915050565b6000815190506200012d816200028b565b92915050565b6000815190506200014481620002a5565b92915050565b60008060008060008060c087890312156200016457600080fd5b60006200017489828a0162000105565b96505060206200018789828a0162000133565b95505060406200019a89828a016200011c565b9450506060620001ad89828a016200011c565b9350506080620001c089828a01620000ee565b92505060a0620001d389828a016200011c565b9150509295509295509295565b6000620001ed8262000220565b9050919050565b60007fffffffffffffffffffffffffffffffff0000000000000000000000000000000082169050919050565b600073ffffffffffffffffffffffffffffffffffffffff82169050919050565b6000819050919050565b600060ff82169050919050565b6200026281620001e0565b81146200026e57600080fd5b50565b6200027c81620001f4565b81146200028857600080fd5b50565b620002968162000240565b8114620002a257600080fd5b50565b620002b0816200024a565b8114620002bc57600080fd5b50565b61231e80620002cf6000396000f3fe6080604052600436106100f75760003560e01c8063adcc50141161008a578063bf651ffa11610059578063bf651ffa14610360578063c35b276014610389578063d6351068146103b2578063e2ccb305146103ef57610156565b8063adcc5014146102ba578063be558f23146102e3578063bf4293441461030c578063bf5839031461033557610156565b8063706f7658116100c6578063706f76581461021f57806373448c461461024d57806391ac2788146102785780639890220b146102a357610156565b80630665f04b1461015b5780630c68ba2114610186578063477e0bcf146101c3578063521eb273146101ec57610156565b36610156576000341115610154573373ffffffffffffffffffffffffffffffffffffffff167fe1fffcc4923d04b559f4d29a8bfc6cda04eb5b0d3c460751c2402c5c5cc9109c3460405161014b9190612053565b60405180910390a25b005b600080fd5b34801561016757600080fd5b50610170610406565b60405161017d9190611dbb565b60405180910390f35b34801561019257600080fd5b506101ad60048036038101906101a89190611754565b610497565b6040516101ba9190611ddd565b60405180910390f35b3480156101cf57600080fd5b506101ea60048036038101906101e591906117fd565b61052b565b005b3480156101f857600080fd5b506102016106c1565b60405161021699989796959493929190611e58565b60405180910390f35b34801561022b57600080fd5b506102346107b9565b6040516102449493929190611e13565b60405180910390f35b34801561025957600080fd5b5061026261080b565b60405161026f9190612053565b60405180910390f35b34801561028457600080fd5b5061028d610827565b60405161029a9190611ddd565b60405180910390f35b3480156102af57600080fd5b506102b861085d565b005b3480156102c657600080fd5b506102e160048036038101906102dc9190611869565b6109a9565b005b3480156102ef57600080fd5b5061030a60048036038101906103059190611869565b610b3e565b005b34801561031857600080fd5b50610333600480360381019061032e919061177d565b610d23565b005b34801561034157600080fd5b5061034a610f77565b6040516103579190612053565b60405180910390f35b34801561036c57600080fd5b506103876004803603810190610382919061193e565b610f9f565b005b34801561039557600080fd5b506103b060048036038101906103ab91906117fd565b61101d565b005b3480156103be57600080fd5b506103d960048036038101906103d491906118c1565b6111b3565b6040516103e69190611df8565b60405180910390f35b3480156103fb57600080fd5b50610404611243565b005b6060600060040180548060200260200160405190810160405280929190818152602001828054801561048d57602002820191906000526020600020905b8160009054906101000a900473ffffffffffffffffffffffffffffffffffffffff1673ffffffffffffffffffffffffffffffffffffffff1681526020019060010190808311610443575b5050505050905090565b60008073__Guardians_____________________________63121c95629091846040518363ffffffff1660e01b81526004016104d4929190611fc0565b60206040518083038186803b1580156104ec57600080fd5b505af4158015610500573d6000803e3d6000fd5b505050506040513d601f19601f820116820180604052508101906105249190611915565b9050919050565b828280806020026020016040519081016040528093929190818152602001838360200280828437600081840152601f19601f820116905080830192505050505050508161057661080b565b61057f826112af565b63ffffffff16146105c5576040517f08c379a00000000000000000000000000000000000000000000000000000000081526004016105bc90611f25565b60405180910390fd5b60006105d183836111b3565b90506000800160009054906101000a900460801b6fffffffffffffffffffffffffffffffff1916816fffffffffffffffffffffffffffffffff19161461064c576040517f08c379a000000000000000000000000000000000000000000000000000000000815260040161064390611f45565b60405180910390fd5b600073__Guardians_____________________________6397b9ce099091896040518363ffffffff1660e01b8152600401610688929190611fc0565b60006040518083038186803b1580156106a057600080fd5b505af41580156106b4573d6000803e3d6000fd5b5050505050505050505050565b60008060000160009054906101000a900460801b908060000160109054906101000a900460ff16908060010154908060020154908060030160009054906101000a900473ffffffffffffffffffffffffffffffffffffffff1690806006015490806007015490806008015490806009016040518060a00160405290816000820160009054906101000a900460801b6fffffffffffffffffffffffffffffffff19166fffffffffffffffffffffffffffffffff191681526020016000820160109054906101000a900460ff1660ff1660ff1681526020016001820154815260200160028201548152602001600382015481525050905089565b600080600080600060090160000160009054906101000a900460801b600060090160000160109054906101000a900460ff16600060090160010154600060090160020154935093509350935090919293565b6000806001015460006002015442038161082157fe5b04905090565b60008060801b600060090160000160009054906101000a900460801b6fffffffffffffffffffffffffffffffff19161415905090565b600060030160009054906101000a900473ffffffffffffffffffffffffffffffffffffffff1673ffffffffffffffffffffffffffffffffffffffff163373ffffffffffffffffffffffffffffffffffffffff16146108f0576040517f08c379a00000000000000000000000000000000000000000000000000000000081526004016108e790611ee5565b60405180910390fd5b60006108fa610f77565b111561093b576040517f08c379a000000000000000000000000000000000000000000000000000000000815260040161093290611f85565b60405180910390fd5b600060030160009054906101000a900473ffffffffffffffffffffffffffffffffffffffff1673ffffffffffffffffffffffffffffffffffffffff166108fc479081150290604051600060405180830381858888f193505050501580156109a6573d6000803e3d6000fd5b50565b828280806020026020016040519081016040528093929190818152602001838360200280828437600081840152601f19601f82011690508083019250505050505050816109f461080b565b6109fd826112af565b63ffffffff1614610a43576040517f08c379a0000000000000000000000000000000000000000000000000000000008152600401610a3a90611f25565b60405180910390fd5b6000610a4f83836111b3565b90506000800160009054906101000a900460801b6fffffffffffffffffffffffffffffffff1916816fffffffffffffffffffffffffffffffff191614610aca576040517f08c379a0000000000000000000000000000000000000000000000000000000008152600401610ac190611f45565b60405180910390fd5b600060030160009054906101000a900473ffffffffffffffffffffffffffffffffffffffff1673ffffffffffffffffffffffffffffffffffffffff166108fc479081150290604051600060405180830381858888f19350505050158015610b35573d6000803e3d6000fd5b50505050505050565b828280806020026020016040519081016040528093929190818152602001838360200280828437600081840152601f19601f8201169050808301925050505050505081610b8961080b565b610b92826112af565b63ffffffff1614610bd8576040517f08c379a0000000000000000000000000000000000000000000000000000000008152600401610bcf90611f25565b60405180910390fd5b6000610be483836111b3565b90506000800160009054906101000a900460801b6fffffffffffffffffffffffffffffffff1916816fffffffffffffffffffffffffffffffff191614610c5f576040517f08c379a0000000000000000000000000000000000000000000000000000000008152600401610c5690611f45565b60405180910390fd5b6040518060a00160405280600060801b6fffffffffffffffffffffffffffffffff19168152602001600060ff16815260200160008152602001600081526020016000815250600060090160008201518160000160006101000a8154816fffffffffffffffffffffffffffffffff021916908360801c021790555060208201518160000160106101000a81548160ff021916908360ff160217905550604082015181600101556060820151816002015560808201518160030155905050505050505050565b828280806020026020016040519081016040528093929190818152602001838360200280828437600081840152601f19601f8201169050808301925050505050505081610d6e61080b565b610d77826112af565b63ffffffff1614610dbd576040517f08c379a0000000000000000000000000000000000000000000000000000000008152600401610db490611f25565b60405180910390fd5b6000610dc983836111b3565b90506000800160009054906101000a900460801b6fffffffffffffffffffffffffffffffff1916816fffffffffffffffffffffffffffffffff191614610e44576040517f08c379a0000000000000000000000000000000000000000000000000000000008152600401610e3b90611f45565b60405180910390fd5b610e5887600061136490919063ffffffff16565b610e97576040517f08c379a0000000000000000000000000000000000000000000000000000000008152600401610e8e90611f65565b60405180910390fd5b86471015610eda576040517f08c379a0000000000000000000000000000000000000000000000000000000008152600401610ed190611f05565b60405180910390fd5b866000600801600082825401925050819055508773ffffffffffffffffffffffffffffffffffffffff166108fc889081150290604051600060405180830381858888f19350505050158015610f33573d6000803e3d6000fd5b507f688077ec2e4cf5b023188b3c964a1a6481e6ff3fd3d3af3971ae0bf2172f75658888604051610f65929190611d92565b60405180910390a15050505050505050565b6000610f8161080b565b6000800160109054906101000a900460ff1660ff1660020a03905090565b600073__Recovery______________________________633071538890918888888888886040518863ffffffff1660e01b8152600401610fe59796959493929190611fe9565b60006040518083038186803b158015610ffd57600080fd5b505af4158015611011573d6000803e3d6000fd5b50505050505050505050565b828280806020026020016040519081016040528093929190818152602001838360200280828437600081840152601f19601f820116905080830192505050505050508161106861080b565b611071826112af565b63ffffffff16146110b7576040517f08c379a00000000000000000000000000000000000000000000000000000000081526004016110ae90611f25565b60405180910390fd5b60006110c383836111b3565b90506000800160009054906101000a900460801b6fffffffffffffffffffffffffffffffff1916816fffffffffffffffffffffffffffffffff19161461113e576040517f08c379a000000000000000000000000000000000000000000000000000000000815260040161113590611f45565b60405180910390fd5b600073__Guardians_____________________________63e98ee0859091896040518363ffffffff1660e01b815260040161117a929190611fc0565b60006040518083038186803b15801561119257600080fd5b505af41580156111a6573d6000803e3d6000fd5b5050505050505050505050565b6000826000815181106111c257fe5b60200260200101516040516020016111da9190611d4b565b60405160208183030381529060405280519060200120836000815181106111fd57fe5b60200260200101906fffffffffffffffffffffffffffffffff191690816fffffffffffffffffffffffffffffffff19168152505061123b83836113c5565b905092915050565b600073__Recovery______________________________635fd7224790916040518263ffffffff1660e01b815260040161127d9190611fa5565b60006040518083038186803b15801561129557600080fd5b505af41580156112a9573d6000803e3d6000fd5b50505050565b6000806000905060005b6000800160109054906101000a900460ff1660ff168160ff16101561135a57838160ff16601481106112e757fe5b1a60f81b7effffffffffffffffffffffffffffffffffffffffffffffffffffffffffffff1916600160f81b7effffffffffffffffffffffffffffffffffffffffffffffffffffffffffffff1916141561134d578060ff16600163ffffffff16901b821791505b80806001019150506112b9565b5080915050919050565b60006201518083600701540142111561138b57428360070181905550600083600801819055505b82600601548284600801540111806113ac5750826008015482846008015401105b156113ba57600090506113bf565b600190505b92915050565b600080600190505b83518160ff16101561157957826001820360ff16601481106113eb57fe5b1a60f81b7effffffffffffffffffffffffffffffffffffffffffffffffffffffffffffff1916600060f81b7effffffffffffffffffffffffffffffffffffffffffffffffffffffffffffff191614156114d7578360008151811061144b57fe5b6020026020010151848260ff168151811061146257fe5b602002602001015160405160200161147b929190611d66565b604051602081830303815290604052805190602001208460008151811061149e57fe5b60200260200101906fffffffffffffffffffffffffffffffff191690816fffffffffffffffffffffffffffffffff19168152505061156c565b838160ff16815181106114e657fe5b6020026020010151846000815181106114fb57fe5b6020026020010151604051602001611514929190611d66565b604051602081830303815290604052805190602001208460008151811061153757fe5b60200260200101906fffffffffffffffffffffffffffffffff191690816fffffffffffffffffffffffffffffffff1916815250505b80806001019150506113cd565b508260008151811061158757fe5b6020026020010151905092915050565b60006115aa6115a58461209f565b61206e565b905080838252602082019050828560208602820111156115c957600080fd5b60005b858110156115f957816115df88826116b6565b8452602084019350602083019250506001810190506115cc565b5050509392505050565b60008135905061161281612247565b92915050565b6000813590506116278161225e565b92915050565b60008083601f84011261163f57600080fd5b8235905067ffffffffffffffff81111561165857600080fd5b60208301915083602082028301111561167057600080fd5b9250929050565b600082601f83011261168857600080fd5b8135611698848260208601611597565b91505092915050565b6000815190506116b081612275565b92915050565b6000813590506116c58161228c565b92915050565b6000813590506116da816122a3565b92915050565b60008083601f8401126116f257600080fd5b8235905067ffffffffffffffff81111561170b57600080fd5b60208301915083600182028301111561172357600080fd5b9250929050565b600081359050611739816122ba565b92915050565b60008135905061174e816122d1565b92915050565b60006020828403121561176657600080fd5b600061177484828501611603565b91505092915050565b60008060008060006080868803121561179557600080fd5b60006117a388828901611618565b95505060206117b48882890161172a565b945050604086013567ffffffffffffffff8111156117d157600080fd5b6117dd8882890161162d565b935093505060606117f0888289016116cb565b9150509295509295909350565b6000806000806060858703121561181357600080fd5b600061182187828801611603565b945050602085013567ffffffffffffffff81111561183e57600080fd5b61184a8782880161162d565b9350935050604061185d878288016116cb565b91505092959194509250565b60008060006040848603121561187e57600080fd5b600084013567ffffffffffffffff81111561189857600080fd5b6118a48682870161162d565b935093505060206118b7868287016116cb565b9150509250925092565b600080604083850312156118d457600080fd5b600083013567ffffffffffffffff8111156118ee57600080fd5b6118fa85828601611677565b925050602061190b858286016116cb565b9150509250929050565b60006020828403121561192757600080fd5b6000611935848285016116a1565b91505092915050565b60008060008060008060a0878903121561195757600080fd5b600061196589828a016116b6565b965050602061197689828a0161173f565b955050604061198789828a0161172a565b945050606061199889828a0161172a565b935050608087013567ffffffffffffffff8111156119b557600080fd5b6119c189828a016116e0565b92509250509295509295509295565b60006119dc8383611a06565b60208301905092915050565b6119f1816121e5565b82525050565b611a0081612138565b82525050565b611a0f81612126565b82525050565b611a1e81612126565b82525050565b6000611a2f826120db565b611a3981856120f3565b9350611a44836120cb565b8060005b83811015611a75578151611a5c88826119d0565b9750611a67836120e6565b925050600181019050611a48565b5085935050505092915050565b611a8b8161214a565b82525050565b611a9a81612156565b82525050565b611aa981612156565b82525050565b611ab881612156565b82525050565b611acf611aca82612156565b61222a565b82525050565b6000611ae18385612104565b9350611aee83858461221b565b611af783612236565b840190509392505050565b6000611b0f600f83612115565b91507f73656e64657220213d20647261696e00000000000000000000000000000000006000830152602082019050919050565b6000611b4f601283612115565b91507f6e6f7420656e6f7567682062616c616e636500000000000000000000000000006000830152602082019050919050565b6000611b8f601883612115565b91507f756e657870656374656420636f756e7465722076616c756500000000000000006000830152602082019050919050565b6000611bcf601083612115565b91507f756e65787065637465642070726f6f66000000000000000000000000000000006000830152602082019050919050565b6000611c0f601583612115565b91507f6f766572207769746864726177616c206c696d697400000000000000000000006000830152602082019050919050565b6000611c4f601383612115565b91507f6e6f74206465706c6574656420746f6b656e73000000000000000000000000006000830152602082019050919050565b60a082016000820151611c986000850182611a91565b506020820151611cab6020850182611d1e565b506040820151611cbe6040850182611cf1565b506060820151611cd16060850182611cf1565b506080820151611ce46080850182611cf1565b50505050565b8082525050565b611cfa816121ce565b82525050565b611d09816121ce565b82525050565b611d18816121ce565b82525050565b611d27816121d8565b82525050565b611d36816121d8565b82525050565b611d45816121d8565b82525050565b6000611d578284611abe565b60108201915081905092915050565b6000611d728285611abe565b601082019150611d828284611abe565b6010820191508190509392505050565b6000604082019050611da760008301856119e8565b611db46020830184611d00565b9392505050565b60006020820190508181036000830152611dd58184611a24565b905092915050565b6000602082019050611df26000830184611a82565b92915050565b6000602082019050611e0d6000830184611aa0565b92915050565b6000608082019050611e286000830187611aa0565b611e356020830186611d2d565b611e426040830185611d00565b611e4f6060830184611d00565b95945050505050565b60006101a082019050611e6e600083018c611aa0565b611e7b602083018b611d2d565b611e88604083018a611d00565b611e956060830189611d00565b611ea260808301886119f7565b611eaf60a0830187611d00565b611ebc60c0830186611d00565b611ec960e0830185611d00565b611ed7610100830184611c82565b9a9950505050505050505050565b60006020820190508181036000830152611efe81611b02565b9050919050565b60006020820190508181036000830152611f1e81611b42565b9050919050565b60006020820190508181036000830152611f3e81611b82565b9050919050565b60006020820190508181036000830152611f5e81611bc2565b9050919050565b60006020820190508181036000830152611f7e81611c02565b9050919050565b60006020820190508181036000830152611f9e81611c42565b9050919050565b6000602082019050611fba6000830184611cea565b92915050565b6000604082019050611fd56000830185611cea565b611fe26020830184611a15565b9392505050565b600060c082019050611ffe600083018a611cea565b61200b6020830189611aaf565b6120186040830188611d3c565b6120256060830187611d0f565b6120326080830186611d0f565b81810360a0830152612045818486611ad5565b905098975050505050505050565b60006020820190506120686000830184611d00565b92915050565b6000604051905081810181811067ffffffffffffffff8211171561209557612094612234565b5b8060405250919050565b600067ffffffffffffffff8211156120ba576120b9612234565b5b602082029050602081019050919050565b6000819050602082019050919050565b600081519050919050565b6000602082019050919050565b600082825260208201905092915050565b600082825260208201905092915050565b600082825260208201905092915050565b6000612131826121ae565b9050919050565b6000612143826121ae565b9050919050565b60008115159050919050565b60007fffffffffffffffffffffffffffffffff0000000000000000000000000000000082169050919050565b60007fffffffffffffffffffffffffffffffffffffffff00000000000000000000000082169050919050565b600073ffffffffffffffffffffffffffffffffffffffff82169050919050565b6000819050919050565b600060ff82169050919050565b60006121f0826121f7565b9050919050565b600061220282612209565b9050919050565b6000612214826121ae565b9050919050565b82818337600083830152505050565b6000819050919050565bfe5b6000601f19601f8301169050919050565b61225081612126565b811461225b57600080fd5b50565b61226781612138565b811461227257600080fd5b50565b61227e8161214a565b811461228957600080fd5b50565b61229581612156565b81146122a057600080fd5b50565b6122ac81612182565b81146122b757600080fd5b50565b6122c3816121ce565b81146122ce57600080fd5b50565b6122da816121d8565b81146122e557600080fd5b5056fea26469706673582212209ce846a4f63ed9d58935068c95af8147678950ff73603cadc25771b104c1a02264736f6c63430007060033",
  "immutableReferences": {},
  "source": "pragma solidity ^0.7.6;\npragma experimental ABIEncoderV2;\n\nimport \"./core/wallet_data.sol\";\nimport \"./features/guardians.sol\";\nimport \"./features/daily_limit.sol\";\nimport \"./features/recovery.sol\";\n\ncontract TOTPWallet {\n\n    using Guardians for Core.Wallet;\n    using DailyLimit for Core.Wallet;\n    using Recovery for Core.Wallet;\n    Core.Wallet public wallet;\n\n    event DebugEvent(bytes16 data);\n    event DebugEventN(uint32 data);\n    event WalletTransfer(address to, uint amount);\n    event Deposit(address indexed sender, uint value);\n\n    constructor(bytes16 rootHash_, uint8 merkelHeight_, uint timePeriod_, \n                uint timeOffset_, address payable drainAddr_, uint dailyLimit_)\n    {\n        wallet.rootHash = rootHash_;\n        wallet.merkelHeight = merkelHeight_;\n        wallet.timePeriod = timePeriod_;\n        wallet.timeOffset = timeOffset_;\n        wallet.drainAddr = drainAddr_;\n        wallet.dailyLimit = dailyLimit_;\n\n    }   \n\n    modifier onlyValidTOTP(bytes16[] memory confirmMaterial, bytes20 sides) \n    {\n        require(_deriveChildTreeIdx(sides) == getCurrentCounter(), \"unexpected counter value\"); \n        bytes16 reduced = _reduceConfirmMaterial(confirmMaterial, sides);\n        require(reduced==wallet.rootHash, \"unexpected proof\");\n        _;\n    }\n\n    function makeTransfer(address payable to, uint amount, bytes16[] calldata confirmMaterial, bytes20 sides) external onlyValidTOTP(confirmMaterial, sides) \n    {\n        require(wallet.isUnderLimit(amount), \"over withdrawal limit\");\n        require(address(this).balance >= amount, \"not enough balance\");  \n\n        wallet.spentToday += amount;\n        to.transfer(amount);\n        emit WalletTransfer(to, amount);             \n    }\n\n    //TODO: Drain ERC20 tokens too\n    function drain(bytes16[] calldata confirmMaterial, bytes20 sides) external onlyValidTOTP(confirmMaterial, sides)  {\n        wallet.drainAddr.transfer(address(this).balance);            \n    }\n\n    function drain() external {\n        require(msg.sender == wallet.drainAddr, \"sender != drain\");        \n        require(remainingTokens() <= 0, \"not depleted tokens\");\n        wallet.drainAddr.transfer(address(this).balance);            \n    }\n\n    //\n    // Guardians functions\n    //\n    function addGuardian(address guardian, bytes16[] calldata confirmMaterial, bytes20 sides)\n        external\n        onlyValidTOTP(confirmMaterial, sides)\n    {\n        wallet.addGuardian(guardian);\n    }\n\n    function revokeGuardian(address guardian, bytes16[] calldata confirmMaterial, bytes20 sides)\n        external\n        onlyValidTOTP(confirmMaterial, sides)\n    {\n        wallet.revokeGuardian(guardian);\n    }\n\n    function isGuardian(address addr)\n         public\n         view\n         returns (bool)\n     {\n         return wallet.isGuardian(addr);\n     }\n\n     function getGuardians()\n         public\n         view\n         returns (address[] memory )\n     {\n         return wallet.guardians;\n     }\n\n    //\n    // Recovery functions\n    //\n\n    function startRecovery(bytes16 rootHash_, uint8 merkelHeight_, uint timePeriod_, \n                uint timeOffset_, bytes calldata signatures_) external {\n        wallet.startRecovery(rootHash_, merkelHeight_, timePeriod_, timeOffset_, signatures_);\n    }\n\n    function isRecovering() external view returns (bool) {\n        return wallet.recovery.rootHash != 0x0;\n    }\n\n    function cancelRecovery(bytes16[] calldata confirmMaterial, bytes20 sides) external onlyValidTOTP(confirmMaterial, sides) {\n        wallet.recovery = Core.RecoveryInfo(0, 0, 0, 0, 0);\n    }\n\n    function getRecovery() external view returns (bytes16, uint8, uint, uint) {\n        return (wallet.recovery.rootHash, wallet.recovery.merkelHeight, wallet.recovery.timePeriod, wallet.recovery.timeOffset);\n    }\n\n    function finalizeRecovery() external {\n        wallet.finalizeRecovery();\n    }\n\n    //\n    // Utility functions\n    //\n\n    // 1609459200 is 2021-01-01 00:00:00\n    function getCurrentCounter() public view returns (uint) {\n        return (block.timestamp-wallet.timeOffset)/wallet.timePeriod;\n    }\n\n    function remainingTokens() public view returns (uint) {\n        // timeOffset + (DURATION*2^depth) < current time\n        //uint lastTokenExpires = timeOffset + (timePeriod * (2**treeHeight));\n        return 2**uint(wallet.merkelHeight) - getCurrentCounter();\n    }\n        \n    function _deriveChildTreeIdx(bytes20 sides) private view returns (uint32) {\n        uint32 derivedIdx = 0;\n        for(uint8 i = 0 ; i <wallet.merkelHeight ; i++){\n            if(byte(0x01) == sides[i]){\n                derivedIdx |=  uint32(0x01) << i;\n            }\n        }\n        return derivedIdx;\n    }\n    \n    function _reduceConfirmMaterial(bytes16[] memory confirmMaterial, bytes20 sides) public returns (bytes16) {\n        //  and then compute h(OTP) to get the leaf of the tree\n        confirmMaterial[0] = bytes16(keccak256(abi.encodePacked(confirmMaterial[0])));\n        return _reduceAuthPath(confirmMaterial, sides);\n    }\n\n    function _reduceAuthPath(bytes16[] memory authPath, bytes20 sides) internal returns (bytes16){\n        for (uint8 i = 1; i < authPath.length ; i++) {\n            if(byte(0x00) == sides[i - 1]){\n                authPath[0] = bytes16(keccak256(abi.encodePacked(authPath[0], authPath[i])));\n            } else{\n                authPath[0] = bytes16(keccak256(abi.encodePacked(authPath[i], authPath[0])));\n            }\n        }\n        //emit DebugEvent(authPath[0]);\n        return authPath[0];\n    }\n\n\n    /// @dev Fallback function allows to deposit ether.\n    receive() external payable {\n        if (msg.value > 0)\n            emit Deposit(msg.sender, msg.value);\n    }\n\n}\n",
  "sourcePath": "/home/quoc/Projects/harmony-totp-pure/contracts/otp_wallet.sol",
  "compiler": {
    "name": "solc",
    "version": "0.7.6+commit.7338295f.Emscripten.clang"
  },
  "schemaVersion": "3.3.4",
  "updatedAt": "2021-05-03T21:45:18.487Z",
  "devdoc": {
    "kind": "dev",
    "methods": {},
    "version": 1
  },
  "userdoc": {
    "kind": "user",
    "methods": {},
    "version": 1
  }
}